{
  "contractName": "SimpleAdmin",
  "abi": [
    {
      "inputs": [
        {
          "internalType": "address",
          "name": "_admin",
          "type": "address"
        }
      ],
      "stateMutability": "nonpayable",
      "type": "constructor"
    },
    {
      "inputs": [],
      "name": "admin",
      "outputs": [
        {
          "internalType": "address",
          "name": "",
          "type": "address"
        }
      ],
      "stateMutability": "view",
      "type": "function"
    }
  ],
  "bytecode": {
    "object": "608034606e57601f61010438819003918201601f19168301916001600160401b03831184841017607257808492602094604052833981010312606e57516001600160a01b03811690819003606e575f80546001600160a01b031916919091179055604051607d90816100878239f35b5f80fd5b634e487b7160e01b5f52604160045260245ffdfe60808060405260043610156011575f80fd5b5f3560e01c63f851a440146023575f80fd5b346043575f3660031901126043575f546001600160a01b03168152602090f35b5f80fdfea26469706673582212201e92064cb2abfa5511bd836f9d4ad60d558f0b2653cc578d3170e8d6cda4dff364736f6c634300081a0033"
  }
}