{
  "contractName": "RevenueDistribution",
  "abi": [
    {
      "inputs": [
        {
          "internalType": "address",
          "name": "admin",
          "type": "address"
        },
        {
          "internalType": "address",
          "name": "_propertyToken",
          "type": "address"
        },
        {
          "internalType": "address",
          "name": "_payoutToken",
          "type": "address"
        }
      ],
      "stateMutability": "nonpayable",
      "type": "constructor"
    },
    {
      "anonymous": false,
      "inputs": [
        {
          "indexed": true,
          "internalType": "uint256",
          "name": "propertyTokenId",
          "type": "uint256"
        },
        {
          "indexed": false,
          "internalType": "uint256",
          "name": "amount",
          "type": "uint256"
        },
        {
          "indexed": true,
          "internalType": "address",
          "name": "depositor",
          "type": "address"
        }
      ],
      "name": "RevenueDeposited",
      "type": "event"
    },
    {
      "anonymous": false,
      "inputs": [
        {
          "indexed": true,
          "internalType": "uint256",
          "name": "propertyTokenId",
          "type": "uint256"
        },
        {
          "indexed": false,
          "internalType": "uint256",
          "name": "totalAmount",
          "type": "uint256"
        }
      ],
      "name": "RevenueDistributed",
      "type": "event"
    },
    {
      "anonymous": false,
      "inputs": [
        {
          "indexed": true,
          "internalType": "bytes32",
          "name": "role",
          "type": "bytes32"
        },
        {
          "indexed": true,
          "internalType": "bytes32",
          "name": "previousAdminRole",
          "type": "bytes32"
        },
        {
          "indexed": true,
          "internalType": "bytes32",
          "name": "newAdminRole",
          "type": "bytes32"
        }
      ],
      "name": "RoleAdminChanged",
      "type": "event"
    },
    {
      "anonymous": false,
      "inputs": [
        {
          "indexed": true,
          "internalType": "bytes32",
          "name": "role",
          "type": "bytes32"
        },
        {
          "indexed": true,
          "internalType": "address",
          "name": "account",
          "type": "address"
        },
        {
          "indexed": true,
          "internalType": "address",
          "name": "sender",
          "type": "address"
        }
      ],
      "name": "RoleGranted",
      "type": "event"
    },
    {
      "anonymous": false,
      "inputs": [
        {
          "indexed": true,
          "internalType": "bytes32",
          "name": "role",
          "type": "bytes32"
        },
        {
          "indexed": true,
          "internalType": "address",
          "name": "account",
          "type": "address"
        },
        {
          "indexed": true,
          "internalType": "address",
          "name": "sender",
          "type": "address"
        }
      ],
      "name": "RoleRevoked",
      "type": "event"
    },
    {
      "inputs": [],
      "name": "DEFAULT_ADMIN_ROLE",
      "outputs": [
        {
          "internalType": "bytes32",
          "name": "",
          "type": "bytes32"
        }
      ],
      "stateMutability": "view",
      "type": "function"
    },
    {
      "inputs": [],
      "name": "ESCROW_ROLE",
      "outputs": [
        {
          "internalType": "bytes32",
          "name": "",
          "type": "bytes32"
        }
      ],
      "stateMutability": "view",
      "type": "function"
    },
    {
      "inputs": [],
      "name": "GOVERNANCE_ROLE",
      "outputs": [
        {
          "internalType": "bytes32",
          "name": "",
          "type": "bytes32"
        }
      ],
      "stateMutability": "view",
      "type": "function"
    },
    {
      "inputs": [],
      "name": "ISSUER_ROLE",
      "outputs": [
        {
          "internalType": "bytes32",
          "name": "",
          "type": "bytes32"
        }
      ],
      "stateMutability": "view",
      "type": "function"
    },
    {
      "inputs": [],
      "name": "OPERATOR_ROLE",
      "outputs": [
        {
          "internalType": "bytes32",
          "name": "",
          "type": "bytes32"
        }
      ],
      "stateMutability": "view",
      "type": "function"
    },
    {
      "inputs": [],
      "name": "ORACLE_ROLE",
      "outputs": [
        {
          "internalType": "bytes32",
          "name": "",
          "type": "bytes32"
        }
      ],
      "stateMutability": "view",
      "type": "function"
    },
    {
      "inputs": [
        {
          "internalType": "uint256",
          "name": "propertyTokenId",
          "type": "uint256"
        },
        {
          "internalType": "uint256",
          "name": "amount",
          "type": "uint256"
        }
      ],
      "name": "depositRevenue",
      "outputs": [],
      "stateMutability": "payable",
      "type": "function"
    },
    {
      "inputs": [
        {
          "internalType": "uint256",
          "name": "propertyTokenId",
          "type": "uint256"
        }
      ],
      "name": "distribute",
      "outputs": [],
      "stateMutability": "nonpayable",
      "type": "function"
    },
    {
      "inputs": [
        {
          "internalType": "bytes32",
          "name": "role",
          "type": "bytes32"
        }
      ],
      "name": "getRoleAdmin",
      "outputs": [
        {
          "internalType": "bytes32",
          "name": "",
          "type": "bytes32"
        }
      ],
      "stateMutability": "view",
      "type": "function"
    },
    {
      "inputs": [
        {
          "internalType": "bytes32",
          "name": "role",
          "type": "bytes32"
        },
        {
          "internalType": "address",
          "name": "account",
          "type": "address"
        }
      ],
      "name": "grantRole",
      "outputs": [],
      "stateMutability": "nonpayable",
      "type": "function"
    },
    {
      "inputs": [
        {
          "internalType": "bytes32",
          "name": "role",
          "type": "bytes32"
        },
        {
          "internalType": "address",
          "name": "account",
          "type": "address"
        }
      ],
      "name": "hasRole",
      "outputs": [
        {
          "internalType": "bool",
          "name": "",
          "type": "bool"
        }
      ],
      "stateMutability": "view",
      "type": "function"
    },
    {
      "inputs": [],
      "name": "payoutToken",
      "outputs": [
        {
          "internalType": "address",
          "name": "",
          "type": "address"
        }
      ],
      "stateMutability": "view",
      "type": "function"
    },
    {
      "inputs": [],
      "name": "propertyToken",
      "outputs": [
        {
          "internalType": "address",
          "name": "",
          "type": "address"
        }
      ],
      "stateMutability": "view",
      "type": "function"
    },
    {
      "inputs": [
        {
          "internalType": "bytes32",
          "name": "role",
          "type": "bytes32"
        },
        {
          "internalType": "address",
          "name": "account",
          "type": "address"
        }
      ],
      "name": "renounceRole",
      "outputs": [],
      "stateMutability": "nonpayable",
      "type": "function"
    },
    {
      "inputs": [
        {
          "internalType": "bytes32",
          "name": "role",
          "type": "bytes32"
        },
        {
          "internalType": "address",
          "name": "account",
          "type": "address"
        }
      ],
      "name": "revokeRole",
      "outputs": [],
      "stateMutability": "nonpayable",
      "type": "function"
    },
    {
      "inputs": [
        {
          "internalType": "bytes4",
          "name": "interfaceId",
          "type": "bytes4"
        }
      ],
      "name": "supportsInterface",
      "outputs": [
        {
          "internalType": "bool",
          "name": "",
          "type": "bool"
        }
      ],
      "stateMutability": "view",
      "type": "function"
    },
    {
      "stateMutability": "payable",
      "type": "receive"
    }
  ],
  "bytecode": {
    "object": "60c03461032657601f61136a38819003918201601f19168301916001600160401b0383118484101761032a57808492606094604052833981010312610326576100478161033e565b9061006060406100596020840161033e565b920161033e565b6001600160a01b0383165f9081525f8051602061134a833981519152602052604090205490929060ff16156102cc575b507f97667070c54ef182b0f5858b034beac1b6f3089aa2d3188bb1e8929f4fa9b9295f81815260208190527fee57cd81e84075558e8fcc182a1f4393f91fc97f963a136e66b7f949a62f31a080549082905590915f8051602061132a8339815191528380a47f2fdac322ee704ce09f0773f7f3f92eb98d5e7c836ee9c056cccd5f61041e5e3f5f81815260208190527fe3c558b62678382104a32eca8acfc9cd319238c371fe623afa6ac48f9723f7b180549082905590915f8051602061132a8339815191528380a47f68e79a7bf1e0bc45d0a330c573bc367f9cf464fd326078812f301165fbda4ef15f81815260208190527fa629f6981c2f6895a67dc766e8e03ff72d04a413d0d8773a3ca56e9e474032c280549082905590915f8051602061132a8339815191528380a47f114e74f6ea3bd819998f78687bfcb11b140da08e9b7d222fa9c1f1ba1f2aa1225f81815260208190527ff9c002f57bb53b4d861ae1ef1369a8087d06c8210e4846f897918d0e534663cf80549082905590915f8051602061132a8339815191528380a47f71840dc4906352362b0cdaf79870196c8e42acafade72d5d5a6d59291253ceb15f81815260208190527f316a51056d8b2401ab04c48d9973add294eadde229c785c6d19cde93785467f080549082905590915f8051602061132a8339815191528380a46001805560805260a052604051610fd79081610353823960805181818161024c015261075e015260a0518181816103200152818161071a015281816109380152610ee30152f35b6001600160a01b03165f8181525f8051602061134a83398151915260205260408120805460ff191660011790553391907f2f8788117e7eff1d82e926ec794901d17c78024a50270940304540a733656f0d8180a45f610090565b5f80fd5b634e487b7160e01b5f52604160045260245ffd5b51906001600160a01b03821682036103265756fe608080604052600436101561001c575b50361561001a575f80fd5b005b5f3560e01c90816301ffc9a714610abf5750806307e2cea514610a855780630cae7afc146108ec578063248a9ca3146108ba5780632f2ff15d1461081157806336568abe1461078d57806343ae2695146107495780634efa82b6146107055780636ce76f30146106cb57806382aefa241461069157806391c05b0b146101d957806391d148541461019e578063a217fddf14610184578063d547741f14610150578063f36c8f5c146101165763f5b541a6146100d8575f61000f565b34610112575f3660031901126101125760206040517f97667070c54ef182b0f5858b034beac1b6f3089aa2d3188bb1e8929f4fa9b9298152f35b5f80fd5b34610112575f3660031901126101125760206040517f71840dc4906352362b0cdaf79870196c8e42acafade72d5d5a6d59291253ceb18152f35b346101125761001a61016136610b12565b9061017f61017a825f525f602052600160405f20015490565b610c07565b610e61565b34610112575f3660031901126101125760206040515f8152f35b34610112576101ac36610b12565b905f525f60205260405f209060018060a01b03165f52602052602060ff60405f2054166040519015158152f35b346101125760203660031901126101125760043560026001541461064c576002600155335f9081527fee57cd81e84075558e8fcc182a1f4393f91fc97f963a136e66b7f949a62f319f60205260409020546102369060ff16610b38565b604051636377aa8f60e11b8152600481018290527f00000000000000000000000000000000000000000000000000000000000000006001600160a01b03165f82602481845afa908115610430575f925f92610532575b509060206024926040519384809263013f2dad60e41b82528860048301525afa918215610430575f926104fe575b508115806104c9576102ca610ee1565b918215610495575f5b8551811015610463576102e68183610bdf565b51808502908582040361044f578361043b578590048061030a575b506001016102d3565b6001600160a01b0361031c8389610bdf565b51167f00000000000000000000000000000000000000000000000000000000000000006001600160a01b0316806103c757505f80809381935af13d156103c2573d61036681610f74565b906103746040519283610b79565b81525f60203d92013e5b1561038d576001905b90610301565b60405162461bcd60e51b815260206004820152600d60248201526c1491558e9210905497d1905253609a1b6044820152606490fd5b61037e565b929160446020925f604051968794859363a9059cbb60e01b8552600485015260248401525af191821561043057600192610402575b50610387565b6104229060203d8111610429575b61041a8183610b79565b810190610baf565b50886103fc565b503d610410565b6040513d5f823e3d90fd5b634e487b7160e01b5f52601260045260245ffd5b634e487b7160e01b5f52601160045260245ffd5b867ff2838e4b541f90d41a1076a560d75e948f7d1008e72118a655568626a30b451f602086604051908152a260018055005b60405162461bcd60e51b815260206004820152600c60248201526b5245563a4e4f5f46554e445360a01b6044820152606490fd5b60405162461bcd60e51b815260206004820152600d60248201526c5245563a4e4f5f53484152455360981b6044820152606490fd5b9091506020813d60201161052a575b8161051a60209383610b79565b81010312610112575190846102ba565b3d915061050d565b925090503d805f843e6105458184610b79565b82019160408184031261011257805167ffffffffffffffff81116101125781019083601f8301121561011257815161057c81610bc7565b9261058a6040519485610b79565b81845260208085019260051b8201019086821161011257602001915b81831061062c5750505060208101519067ffffffffffffffff821161011257019280601f850112156101125783516105dd81610bc7565b946105eb6040519687610b79565b81865260208087019260051b82010192831161011257602001905b82821061061c575091939291506020905061028c565b8151815260209182019101610606565b82516001600160a01b0381168103610112578152602092830192016105a6565b60405162461bcd60e51b815260206004820152601f60248201527f5265656e7472616e637947756172643a207265656e7472616e742063616c6c006044820152606490fd5b34610112575f3660031901126101125760206040517f114e74f6ea3bd819998f78687bfcb11b140da08e9b7d222fa9c1f1ba1f2aa1228152f35b34610112575f3660031901126101125760206040517f2fdac322ee704ce09f0773f7f3f92eb98d5e7c836ee9c056cccd5f61041e5e3f8152f35b34610112575f366003190112610112576040517f00000000000000000000000000000000000000000000000000000000000000006001600160a01b03168152602090f35b34610112575f366003190112610112576040517f00000000000000000000000000000000000000000000000000000000000000006001600160a01b03168152602090f35b346101125761079b36610b12565b336001600160a01b038216036107b45761001a91610e61565b60405162461bcd60e51b815260206004820152602f60248201527f416363657373436f6e74726f6c3a2063616e206f6e6c792072656e6f756e636560448201526e103937b632b9903337b91039b2b63360891b6064820152608490fd5b346101125761081f36610b12565b9061083861017a825f525f602052600160405f20015490565b5f818152602081815260408083206001600160a01b038616845290915290205460ff161561086257005b5f818152602081815260408083206001600160a01b0395909516808452949091528120805460ff19166001179055339291907f2f8788117e7eff1d82e926ec794901d17c78024a50270940304540a733656f0d9080a4005b346101125760203660031901126101125760206108e46004355f525f602052600160405f20015490565b604051908152f35b604036600319011261011257335f9081527fee57cd81e84075558e8fcc182a1f4393f91fc97f963a136e66b7f949a62f319f6020526040902054602435906109369060ff16610b38565b7f00000000000000000000000000000000000000000000000000000000000000006001600160a01b0316806109e95750803414806109e0575b156109a7575b60405190815233907f7b7e4768e4ea555662a1f0ae63ea56391e03419109492d0b44735d40af3e591b602060043592a3005b60405162461bcd60e51b81526020600482015260116024820152705245563a494e56414c49445f56414c554560781b6044820152606490fd5b5080151561096f565b34610a495760205f916064604051809481936323b872dd60e01b83523360048401523060248401528760448401525af1801561043057610a2a575b50610975565b610a429060203d6020116104295761041a8183610b79565b5081610a24565b60405162461bcd60e51b81526020600482015260146024820152731491558e9210905497d393d517d0531313d5d15160621b6044820152606490fd5b34610112575f3660031901126101125760206040517f68e79a7bf1e0bc45d0a330c573bc367f9cf464fd326078812f301165fbda4ef18152f35b34610112576020366003190112610112576004359063ffffffff60e01b821680920361011257602091637965db0b60e01b8114908115610b01575b5015158152f35b6301ffc9a760e01b14905083610afa565b604090600319011261011257600435906024356001600160a01b03811681036101125790565b15610b3f57565b60405162461bcd60e51b8152602060048201526012602482015271524f4c453a4f50455241544f525f4f4e4c5960701b6044820152606490fd5b90601f8019910116810190811067ffffffffffffffff821117610b9b57604052565b634e487b7160e01b5f52604160045260245ffd5b90816020910312610112575180151581036101125790565b67ffffffffffffffff8111610b9b5760051b60200190565b8051821015610bf35760209160051b010190565b634e487b7160e01b5f52603260045260245ffd5b5f8181526020818152604080832033845290915290205460ff1615610c295750565b33610c34602a610f74565b91610c426040519384610b79565b602a8352610c50602a610f74565b602084019290601f1901368437835115610bf35760308353835160011015610bf3576078602185015360295b60018111610e205750610d9b5790610c946042610f74565b90610ca26040519283610b79565b60428252610cb06042610f74565b602083019390601f1901368537825115610bf35760308453825160011015610bf3576078602184015360415b60018111610ddf5750610d9b576011610d6391603760449560405195869360208501997f416363657373436f6e74726f6c3a206163636f756e74200000000000000000008b525180918587015e8401907001034b99036b4b9b9b4b733903937b6329607d1b84830152518092604883015e01015f838201520301601f198101835282610b79565b60405192839162461bcd60e51b8352602060048401525180918160248501528484015e5f828201840152601f01601f19168101030190fd5b606460405162461bcd60e51b815260206004820152602060248201527f537472696e67733a20686578206c656e67746820696e73756666696369656e746044820152fd5b90600f81166010811015610bf3576f181899199a1a9b1b9c1cb0b131b232b360811b901a610e0d8386610f90565b5360041c90801561044f575f1901610cdc565b90600f81166010811015610bf3576f181899199a1a9b1b9c1cb0b131b232b360811b901a610e4e8387610f90565b5360041c90801561044f575f1901610c7c565b5f818152602081815260408083206001600160a01b038616845290915290205460ff16610e8c575050565b5f818152602081815260408083206001600160a01b0395909516808452949091528120805460ff19169055339291907ff6391f5c32d9c69d2a47ea670b442974b53935d1edc7fd64eb21e047a839171b9080a4565b7f00000000000000000000000000000000000000000000000000000000000000006001600160a01b03168015610f6f576020602491604051928380926370a0823160e01b82523060048301525afa908115610430575f91610f40575090565b90506020813d602011610f67575b81610f5b60209383610b79565b81010312610112575190565b3d9150610f4e565b504790565b67ffffffffffffffff8111610b9b57601f01601f191660200190565b908151811015610bf357016020019056fea2646970667358221220daa9c32a4bb8fa3a35be385330a76cd9e2fc446505921c226b898eaabb13bba964736f6c634300081a0033bd79b86ffe0ab8e8776151514217cd7cacd52c909f66475c3af44e129f0b00ffad3228b676f7d3cd4284a5443f17f1962b36e491b30a40b2405849e597ba5fb5"
  }
}