{
  "contractName": "StablecoinBridge",
  "abi": [
    {
      "inputs": [
        {
          "internalType": "address",
          "name": "admin",
          "type": "address"
        },
        {
          "internalType": "contract IERC20",
          "name": "_stablecoin",
          "type": "address"
        },
        {
          "internalType": "uint256",
          "name": "initialRate",
          "type": "uint256"
        }
      ],
      "stateMutability": "nonpayable",
      "type": "constructor"
    },
    {
      "anonymous": false,
      "inputs": [
        {
          "indexed": false,
          "internalType": "uint256",
          "name": "newRate",
          "type": "uint256"
        }
      ],
      "name": "ExchangeRateUpdated",
      "type": "event"
    },
    {
      "anonymous": false,
      "inputs": [
        {
          "indexed": true,
          "internalType": "address",
          "name": "user",
          "type": "address"
        },
        {
          "indexed": false,
          "internalType": "uint256",
          "name": "amountFiat",
          "type": "uint256"
        },
        {
          "indexed": false,
          "internalType": "uint256",
          "name": "amountMinted",
          "type": "uint256"
        },
        {
          "indexed": false,
          "internalType": "bytes",
          "name": "proofHash",
          "type": "bytes"
        }
      ],
      "name": "FiatDeposited",
      "type": "event"
    },
    {
      "anonymous": false,
      "inputs": [
        {
          "indexed": true,
          "internalType": "bytes32",
          "name": "role",
          "type": "bytes32"
        },
        {
          "indexed": true,
          "internalType": "bytes32",
          "name": "previousAdminRole",
          "type": "bytes32"
        },
        {
          "indexed": true,
          "internalType": "bytes32",
          "name": "newAdminRole",
          "type": "bytes32"
        }
      ],
      "name": "RoleAdminChanged",
      "type": "event"
    },
    {
      "anonymous": false,
      "inputs": [
        {
          "indexed": true,
          "internalType": "bytes32",
          "name": "role",
          "type": "bytes32"
        },
        {
          "indexed": true,
          "internalType": "address",
          "name": "account",
          "type": "address"
        },
        {
          "indexed": true,
          "internalType": "address",
          "name": "sender",
          "type": "address"
        }
      ],
      "name": "RoleGranted",
      "type": "event"
    },
    {
      "anonymous": false,
      "inputs": [
        {
          "indexed": true,
          "internalType": "bytes32",
          "name": "role",
          "type": "bytes32"
        },
        {
          "indexed": true,
          "internalType": "address",
          "name": "account",
          "type": "address"
        },
        {
          "indexed": true,
          "internalType": "address",
          "name": "sender",
          "type": "address"
        }
      ],
      "name": "RoleRevoked",
      "type": "event"
    },
    {
      "anonymous": false,
      "inputs": [
        {
          "indexed": true,
          "internalType": "address",
          "name": "user",
          "type": "address"
        },
        {
          "indexed": false,
          "internalType": "uint256",
          "name": "amountStable",
          "type": "uint256"
        },
        {
          "indexed": false,
          "internalType": "uint256",
          "name": "amountFiat",
          "type": "uint256"
        },
        {
          "indexed": false,
          "internalType": "bytes",
          "name": "proofHash",
          "type": "bytes"
        }
      ],
      "name": "StableWithdrawn",
      "type": "event"
    },
    {
      "inputs": [],
      "name": "DEFAULT_ADMIN_ROLE",
      "outputs": [
        {
          "internalType": "bytes32",
          "name": "",
          "type": "bytes32"
        }
      ],
      "stateMutability": "view",
      "type": "function"
    },
    {
      "inputs": [],
      "name": "ESCROW_ROLE",
      "outputs": [
        {
          "internalType": "bytes32",
          "name": "",
          "type": "bytes32"
        }
      ],
      "stateMutability": "view",
      "type": "function"
    },
    {
      "inputs": [],
      "name": "GOVERNANCE_ROLE",
      "outputs": [
        {
          "internalType": "bytes32",
          "name": "",
          "type": "bytes32"
        }
      ],
      "stateMutability": "view",
      "type": "function"
    },
    {
      "inputs": [],
      "name": "ISSUER_ROLE",
      "outputs": [
        {
          "internalType": "bytes32",
          "name": "",
          "type": "bytes32"
        }
      ],
      "stateMutability": "view",
      "type": "function"
    },
    {
      "inputs": [],
      "name": "OPERATOR_ROLE",
      "outputs": [
        {
          "internalType": "bytes32",
          "name": "",
          "type": "bytes32"
        }
      ],
      "stateMutability": "view",
      "type": "function"
    },
    {
      "inputs": [],
      "name": "ORACLE_ROLE",
      "outputs": [
        {
          "internalType": "bytes32",
          "name": "",
          "type": "bytes32"
        }
      ],
      "stateMutability": "view",
      "type": "function"
    },
    {
      "inputs": [
        {
          "internalType": "address",
          "name": "to",
          "type": "address"
        },
        {
          "internalType": "uint256",
          "name": "amountFiat",
          "type": "uint256"
        },
        {
          "internalType": "bytes",
          "name": "proof",
          "type": "bytes"
        }
      ],
      "name": "depositFiatProof",
      "outputs": [],
      "stateMutability": "nonpayable",
      "type": "function"
    },
    {
      "inputs": [],
      "name": "exchangeRate",
      "outputs": [
        {
          "internalType": "uint256",
          "name": "",
          "type": "uint256"
        }
      ],
      "stateMutability": "view",
      "type": "function"
    },
    {
      "inputs": [
        {
          "internalType": "bytes32",
          "name": "role",
          "type": "bytes32"
        }
      ],
      "name": "getRoleAdmin",
      "outputs": [
        {
          "internalType": "bytes32",
          "name": "",
          "type": "bytes32"
        }
      ],
      "stateMutability": "view",
      "type": "function"
    },
    {
      "inputs": [
        {
          "internalType": "bytes32",
          "name": "role",
          "type": "bytes32"
        },
        {
          "internalType": "address",
          "name": "account",
          "type": "address"
        }
      ],
      "name": "grantRole",
      "outputs": [],
      "stateMutability": "nonpayable",
      "type": "function"
    },
    {
      "inputs": [
        {
          "internalType": "bytes32",
          "name": "role",
          "type": "bytes32"
        },
        {
          "internalType": "address",
          "name": "account",
          "type": "address"
        }
      ],
      "name": "hasRole",
      "outputs": [
        {
          "internalType": "bool",
          "name": "",
          "type": "bool"
        }
      ],
      "stateMutability": "view",
      "type": "function"
    },
    {
      "inputs": [
        {
          "internalType": "bytes32",
          "name": "role",
          "type": "bytes32"
        },
        {
          "internalType": "address",
          "name": "account",
          "type": "address"
        }
      ],
      "name": "renounceRole",
      "outputs": [],
      "stateMutability": "nonpayable",
      "type": "function"
    },
    {
      "inputs": [
        {
          "internalType": "bytes32",
          "name": "role",
          "type": "bytes32"
        },
        {
          "internalType": "address",
          "name": "account",
          "type": "address"
        }
      ],
      "name": "revokeRole",
      "outputs": [],
      "stateMutability": "nonpayable",
      "type": "function"
    },
    {
      "inputs": [
        {
          "internalType": "uint256",
          "name": "newRate",
          "type": "uint256"
        }
      ],
      "name": "setExchangeRate",
      "outputs": [],
      "stateMutability": "nonpayable",
      "type": "function"
    },
    {
      "inputs": [],
      "name": "stablecoin",
      "outputs": [
        {
          "internalType": "contract IERC20",
          "name": "",
          "type": "address"
        }
      ],
      "stateMutability": "view",
      "type": "function"
    },
    {
      "inputs": [
        {
          "internalType": "bytes4",
          "name": "interfaceId",
          "type": "bytes4"
        }
      ],
      "name": "supportsInterface",
      "outputs": [
        {
          "internalType": "bool",
          "name": "",
          "type": "bool"
        }
      ],
      "stateMutability": "view",
      "type": "function"
    },
    {
      "inputs": [
        {
          "internalType": "address",
          "name": "from",
          "type": "address"
        },
        {
          "internalType": "uint256",
          "name": "amountStable",
          "type": "uint256"
        },
        {
          "internalType": "bytes",
          "name": "proof",
          "type": "bytes"
        }
      ],
      "name": "withdrawStable",
      "outputs": [],
      "stateMutability": "nonpayable",
      "type": "function"
    }
  ],
  "bytecode": {
    "object": "60a03461030757601f61106638819003918201601f19168301916001600160401b0383118484101761030b578084926060946040528339810103126103075780516001600160a01b0381169190829003610307576020810151906001600160a01b0382168203610307576040908101515f8481525f80516020611046833981519152602052919091205490929060ff16156102b6575b507f97667070c54ef182b0f5858b034beac1b6f3089aa2d3188bb1e8929f4fa9b9295f81815260208190527fee57cd81e84075558e8fcc182a1f4393f91fc97f963a136e66b7f949a62f31a080549082905590915f805160206110268339815191528380a47f2fdac322ee704ce09f0773f7f3f92eb98d5e7c836ee9c056cccd5f61041e5e3f5f81815260208190527fe3c558b62678382104a32eca8acfc9cd319238c371fe623afa6ac48f9723f7b180549082905590915f805160206110268339815191528380a47f68e79a7bf1e0bc45d0a330c573bc367f9cf464fd326078812f301165fbda4ef15f81815260208190527fa629f6981c2f6895a67dc766e8e03ff72d04a413d0d8773a3ca56e9e474032c280549082905590915f805160206110268339815191528380a47f114e74f6ea3bd819998f78687bfcb11b140da08e9b7d222fa9c1f1ba1f2aa1225f81815260208190527ff9c002f57bb53b4d861ae1ef1369a8087d06c8210e4846f897918d0e534663cf80549082905590915f805160206110268339815191528380a47f71840dc4906352362b0cdaf79870196c8e42acafade72d5d5a6d59291253ceb15f81815260208190527f316a51056d8b2401ab04c48d9973add294eadde229c785c6d19cde93785467f080549082905590915f805160206110268339815191528380a4608052600155604051610d06908161032082396080518181816101640152818161036001526105500152f35b5f8181525f8051602061104683398151915260205260408120805460ff191660011790553391907f2f8788117e7eff1d82e926ec794901d17c78024a50270940304540a733656f0d8180a45f610095565b5f80fd5b634e487b7160e01b5f52604160045260245ffdfe6080806040526004361015610012575f80fd5b5f3560e01c90816301ffc9a7146107e65750806307e2cea5146107ac578063248a9ca31461077a5780632f2ff15d146106c357806336568abe146106315780633ba0b9a9146106145780636ce76f30146105da5780637822de86146104a857806382aefa241461046e57806391d148541461042657806398195e4f146102aa578063a217fddf14610290578063d547741f1461024c578063db068e0e14610193578063e9cbd8221461014f578063f36c8f5c146101155763f5b541a6146100d7575f80fd5b34610111575f3660031901126101115760206040517f97667070c54ef182b0f5858b034beac1b6f3089aa2d3188bb1e8929f4fa9b9298152f35b5f80fd5b34610111575f3660031901126101115760206040517f71840dc4906352362b0cdaf79870196c8e42acafade72d5d5a6d59291253ceb18152f35b34610111575f366003190112610111576040517f00000000000000000000000000000000000000000000000000000000000000006001600160a01b03168152602090f35b3461011157602036600319011261011157335f9081527fee57cd81e84075558e8fcc182a1f4393f91fc97f963a136e66b7f949a62f319f6020526040902054600435906101e29060ff166108b8565b8015610219576020817f388f446e9526fe5c9af20a5919b342370c8a7c0cb05245afe1e545658fa3cdba92600155604051908152a1005b60405162461bcd60e51b815260206004820152600b60248201526a4252494447453a5241544560a81b6044820152606490fd5b346101115760403660031901126101115761028e60043561026b610839565b90610289610284825f525f602052600160405f20015490565b6109b5565b610c23565b005b34610111575f3660031901126101115760206040515f8152f35b34610111576102b83661084f565b335f9081527fee57cd81e84075558e8fcc182a1f4393f91fc97f963a136e66b7f949a62f319f6020526040902054909392906102f69060ff166108b8565b801561030281156108f9565b670de0b6b3a7640000820290828204670de0b6b3a7640000141715610412576001549081156103fe5704916040519363a9059cbb60e01b855260018060a01b0316948560048601528360248601526020856044815f60018060a01b037f0000000000000000000000000000000000000000000000000000000000000000165af19182156103f3577fce9d5cba49cf569985d4cd5e93ff106b44d6d2ad14af71bb9588971e8cfee404956103c1936103c6575b5060405194859485610983565b0390a2005b6103e79060203d6020116103ec575b6103df8183610935565b81019061096b565b6103b4565b503d6103d5565b6040513d5f823e3d90fd5b634e487b7160e01b5f52601260045260245ffd5b634e487b7160e01b5f52601160045260245ffd5b346101115760403660031901126101115761043f610839565b6004355f525f60205260405f209060018060a01b03165f52602052602060ff60405f2054166040519015158152f35b34610111575f3660031901126101115760206040517f114e74f6ea3bd819998f78687bfcb11b140da08e9b7d222fa9c1f1ba1f2aa1228152f35b34610111576104b63661084f565b335f9081527fee57cd81e84075558e8fcc182a1f4393f91fc97f963a136e66b7f949a62f319f6020526040902054909391906104f49060ff166108b8565b82159061050182156108f9565b6001549182850292858404141715610412576040516323b872dd60e01b81526001600160a01b039384166004820181905230602483015260448201869052959093602090859060649082905f907f0000000000000000000000000000000000000000000000000000000000000000165af19182156103f3577f197fd69c14165d2e29d23c649dd074b01ef6401307fbbd7459a3807bc6a761a295670de0b6b3a7640000956103c1946105bd575b50604051958695049085610983565b6105d59060203d6020116103ec576103df8183610935565b6105ae565b34610111575f3660031901126101115760206040517f2fdac322ee704ce09f0773f7f3f92eb98d5e7c836ee9c056cccd5f61041e5e3f8152f35b34610111575f366003190112610111576020600154604051908152f35b346101115760403660031901126101115761064a610839565b336001600160a01b038216036106665761028e90600435610c23565b60405162461bcd60e51b815260206004820152602f60248201527f416363657373436f6e74726f6c3a2063616e206f6e6c792072656e6f756e636560448201526e103937b632b9903337b91039b2b63360891b6064820152608490fd5b34610111576040366003190112610111576004356106df610839565b906106f8610284825f525f602052600160405f20015490565b5f818152602081815260408083206001600160a01b038616845290915290205460ff161561072257005b5f818152602081815260408083206001600160a01b0395909516808452949091528120805460ff19166001179055339291907f2f8788117e7eff1d82e926ec794901d17c78024a50270940304540a733656f0d9080a4005b346101115760203660031901126101115760206107a46004355f525f602052600160405f20015490565b604051908152f35b34610111575f3660031901126101115760206040517f68e79a7bf1e0bc45d0a330c573bc367f9cf464fd326078812f301165fbda4ef18152f35b34610111576020366003190112610111576004359063ffffffff60e01b821680920361011157602091637965db0b60e01b8114908115610828575b5015158152f35b6301ffc9a760e01b14905083610821565b602435906001600160a01b038216820361011157565b906060600319830112610111576004356001600160a01b038116810361011157916024359160443567ffffffffffffffff811161011157826023820112156101115780600401359267ffffffffffffffff84116101115760248483010111610111576024019190565b156108bf57565b60405162461bcd60e51b8152602060048201526012602482015271524f4c453a4f50455241544f525f4f4e4c5960701b6044820152606490fd5b1561090057565b60405162461bcd60e51b815260206004820152600d60248201526c1094925111d14e905353d55395609a1b6044820152606490fd5b90601f8019910116810190811067ffffffffffffffff82111761095757604052565b634e487b7160e01b5f52604160045260245ffd5b90816020910312610111575180151581036101115790565b928492608095928552602085015260606040850152816060850152848401375f828201840152601f01601f1916010190565b5f8181526020818152604080832033845290915290205460ff16156109d75750565b336109e2602a610ca3565b916109f06040519384610935565b602a83526109fe602a610ca3565b602084019290601f1901368437835115610bce5760308353835160011015610bce576078602185015360295b60018111610be25750610b495790610a426042610ca3565b90610a506040519283610935565b60428252610a5e6042610ca3565b602083019390601f1901368537825115610bce5760308453825160011015610bce576078602184015360415b60018111610b8d5750610b49576011610b1191603760449560405195869360208501997f416363657373436f6e74726f6c3a206163636f756e74200000000000000000008b525180918587015e8401907001034b99036b4b9b9b4b733903937b6329607d1b84830152518092604883015e01015f838201520301601f198101835282610935565b60405192839162461bcd60e51b8352602060048401525180918160248501528484015e5f828201840152601f01601f19168101030190fd5b606460405162461bcd60e51b815260206004820152602060248201527f537472696e67733a20686578206c656e67746820696e73756666696369656e746044820152fd5b90600f81166010811015610bce576f181899199a1a9b1b9c1cb0b131b232b360811b901a610bbb8386610cbf565b5360041c908015610412575f1901610a8a565b634e487b7160e01b5f52603260045260245ffd5b90600f81166010811015610bce576f181899199a1a9b1b9c1cb0b131b232b360811b901a610c108387610cbf565b5360041c908015610412575f1901610a2a565b5f818152602081815260408083206001600160a01b038616845290915290205460ff16610c4e575050565b5f818152602081815260408083206001600160a01b0395909516808452949091528120805460ff19169055339291907ff6391f5c32d9c69d2a47ea670b442974b53935d1edc7fd64eb21e047a839171b9080a4565b67ffffffffffffffff811161095757601f01601f191660200190565b908151811015610bce57016020019056fea26469706673582212200fe1389c4cd007ae6c9b627bdc48275babc7f48e5b35611b99508be17500cc2864736f6c634300081a0033bd79b86ffe0ab8e8776151514217cd7cacd52c909f66475c3af44e129f0b00ffad3228b676f7d3cd4284a5443f17f1962b36e491b30a40b2405849e597ba5fb5"
  }
}