{
  "contractName": "EscrowManager",
  "abi": [
    {
      "inputs": [
        {
          "internalType": "address",
          "name": "admin",
          "type": "address"
        },
        {
          "internalType": "address",
          "name": "_complianceOracle",
          "type": "address"
        }
      ],
      "stateMutability": "nonpayable",
      "type": "constructor"
    },
    {
      "anonymous": false,
      "inputs": [
        {
          "indexed": true,
          "internalType": "uint256",
          "name": "escrowId",
          "type": "uint256"
        },
        {
          "indexed": false,
          "internalType": "bytes32",
          "name": "conditionId",
          "type": "bytes32"
        },
        {
          "indexed": false,
          "internalType": "bool",
          "name": "satisfied",
          "type": "bool"
        }
      ],
      "name": "ConditionUpdated",
      "type": "event"
    },
    {
      "anonymous": false,
      "inputs": [
        {
          "indexed": true,
          "internalType": "uint256",
          "name": "escrowId",
          "type": "uint256"
        },
        {
          "indexed": true,
          "internalType": "address",
          "name": "buyer",
          "type": "address"
        },
        {
          "indexed": true,
          "internalType": "address",
          "name": "seller",
          "type": "address"
        },
        {
          "indexed": false,
          "internalType": "uint256",
          "name": "amount",
          "type": "uint256"
        },
        {
          "indexed": false,
          "internalType": "address",
          "name": "paymentToken",
          "type": "address"
        }
      ],
      "name": "EscrowCreated",
      "type": "event"
    },
    {
      "anonymous": false,
      "inputs": [
        {
          "indexed": true,
          "internalType": "uint256",
          "name": "escrowId",
          "type": "uint256"
        },
        {
          "indexed": true,
          "internalType": "address",
          "name": "payer",
          "type": "address"
        },
        {
          "indexed": false,
          "internalType": "uint256",
          "name": "amount",
          "type": "uint256"
        }
      ],
      "name": "FundsDeposited",
      "type": "event"
    },
    {
      "anonymous": false,
      "inputs": [
        {
          "indexed": true,
          "internalType": "uint256",
          "name": "escrowId",
          "type": "uint256"
        },
        {
          "indexed": true,
          "internalType": "address",
          "name": "to",
          "type": "address"
        },
        {
          "indexed": false,
          "internalType": "uint256",
          "name": "amount",
          "type": "uint256"
        }
      ],
      "name": "FundsReleased",
      "type": "event"
    },
    {
      "anonymous": false,
      "inputs": [
        {
          "indexed": true,
          "internalType": "uint256",
          "name": "escrowId",
          "type": "uint256"
        },
        {
          "indexed": true,
          "internalType": "address",
          "name": "to",
          "type": "address"
        },
        {
          "indexed": false,
          "internalType": "uint256",
          "name": "amount",
          "type": "uint256"
        }
      ],
      "name": "Refunded",
      "type": "event"
    },
    {
      "anonymous": false,
      "inputs": [
        {
          "indexed": true,
          "internalType": "bytes32",
          "name": "role",
          "type": "bytes32"
        },
        {
          "indexed": true,
          "internalType": "bytes32",
          "name": "previousAdminRole",
          "type": "bytes32"
        },
        {
          "indexed": true,
          "internalType": "bytes32",
          "name": "newAdminRole",
          "type": "bytes32"
        }
      ],
      "name": "RoleAdminChanged",
      "type": "event"
    },
    {
      "anonymous": false,
      "inputs": [
        {
          "indexed": true,
          "internalType": "bytes32",
          "name": "role",
          "type": "bytes32"
        },
        {
          "indexed": true,
          "internalType": "address",
          "name": "account",
          "type": "address"
        },
        {
          "indexed": true,
          "internalType": "address",
          "name": "sender",
          "type": "address"
        }
      ],
      "name": "RoleGranted",
      "type": "event"
    },
    {
      "anonymous": false,
      "inputs": [
        {
          "indexed": true,
          "internalType": "bytes32",
          "name": "role",
          "type": "bytes32"
        },
        {
          "indexed": true,
          "internalType": "address",
          "name": "account",
          "type": "address"
        },
        {
          "indexed": true,
          "internalType": "address",
          "name": "sender",
          "type": "address"
        }
      ],
      "name": "RoleRevoked",
      "type": "event"
    },
    {
      "inputs": [],
      "name": "DEFAULT_ADMIN_ROLE",
      "outputs": [
        {
          "internalType": "bytes32",
          "name": "",
          "type": "bytes32"
        }
      ],
      "stateMutability": "view",
      "type": "function"
    },
    {
      "inputs": [],
      "name": "ESCROW_ROLE",
      "outputs": [
        {
          "internalType": "bytes32",
          "name": "",
          "type": "bytes32"
        }
      ],
      "stateMutability": "view",
      "type": "function"
    },
    {
      "inputs": [],
      "name": "GOVERNANCE_ROLE",
      "outputs": [
        {
          "internalType": "bytes32",
          "name": "",
          "type": "bytes32"
        }
      ],
      "stateMutability": "view",
      "type": "function"
    },
    {
      "inputs": [],
      "name": "ISSUER_ROLE",
      "outputs": [
        {
          "internalType": "bytes32",
          "name": "",
          "type": "bytes32"
        }
      ],
      "stateMutability": "view",
      "type": "function"
    },
    {
      "inputs": [],
      "name": "OPERATOR_ROLE",
      "outputs": [
        {
          "internalType": "bytes32",
          "name": "",
          "type": "bytes32"
        }
      ],
      "stateMutability": "view",
      "type": "function"
    },
    {
      "inputs": [],
      "name": "ORACLE_ROLE",
      "outputs": [
        {
          "internalType": "bytes32",
          "name": "",
          "type": "bytes32"
        }
      ],
      "stateMutability": "view",
      "type": "function"
    },
    {
      "inputs": [],
      "name": "complianceOracle",
      "outputs": [
        {
          "internalType": "address",
          "name": "",
          "type": "address"
        }
      ],
      "stateMutability": "view",
      "type": "function"
    },
    {
      "inputs": [
        {
          "internalType": "address",
          "name": "buyer",
          "type": "address"
        },
        {
          "internalType": "address",
          "name": "seller",
          "type": "address"
        },
        {
          "internalType": "uint256",
          "name": "amount",
          "type": "uint256"
        },
        {
          "internalType": "address",
          "name": "paymentToken",
          "type": "address"
        },
        {
          "internalType": "address",
          "name": "asset",
          "type": "address"
        },
        {
          "internalType": "uint256",
          "name": "assetId",
          "type": "uint256"
        }
      ],
      "name": "createEscrow",
      "outputs": [
        {
          "internalType": "uint256",
          "name": "escrowId",
          "type": "uint256"
        }
      ],
      "stateMutability": "nonpayable",
      "type": "function"
    },
    {
      "inputs": [
        {
          "internalType": "uint256",
          "name": "escrowId",
          "type": "uint256"
        }
      ],
      "name": "depositFunds",
      "outputs": [],
      "stateMutability": "payable",
      "type": "function"
    },
    {
      "inputs": [
        {
          "internalType": "uint256",
          "name": "escrowId",
          "type": "uint256"
        }
      ],
      "name": "getEscrow",
      "outputs": [
        {
          "components": [
            {
              "internalType": "address",
              "name": "buyer",
              "type": "address"
            },
            {
              "internalType": "address",
              "name": "seller",
              "type": "address"
            },
            {
              "internalType": "address",
              "name": "asset",
              "type": "address"
            },
            {
              "internalType": "uint256",
              "name": "assetId",
              "type": "uint256"
            },
            {
              "internalType": "address",
              "name": "paymentToken",
              "type": "address"
            },
            {
              "internalType": "uint256",
              "name": "amount",
              "type": "uint256"
            },
            {
              "internalType": "enum DataTypes.EscrowStatus",
              "name": "status",
              "type": "uint8"
            },
            {
              "internalType": "uint64",
              "name": "createdAt",
              "type": "uint64"
            },
            {
              "internalType": "uint64",
              "name": "fundedAt",
              "type": "uint64"
            },
            {
              "internalType": "uint64",
              "name": "releasedAt",
              "type": "uint64"
            },
            {
              "components": [
                {
                  "internalType": "bytes32",
                  "name": "id",
                  "type": "bytes32"
                },
                {
                  "internalType": "string",
                  "name": "description",
                  "type": "string"
                },
                {
                  "internalType": "bool",
                  "name": "satisfied",
                  "type": "bool"
                },
                {
                  "internalType": "uint64",
                  "name": "satisfiedAt",
                  "type": "uint64"
                }
              ],
              "internalType": "struct DataTypes.EscrowCondition[]",
              "name": "conditions",
              "type": "tuple[]"
            }
          ],
          "internalType": "struct DataTypes.Escrow",
          "name": "",
          "type": "tuple"
        }
      ],
      "stateMutability": "view",
      "type": "function"
    },
    {
      "inputs": [
        {
          "internalType": "bytes32",
          "name": "role",
          "type": "bytes32"
        }
      ],
      "name": "getRoleAdmin",
      "outputs": [
        {
          "internalType": "bytes32",
          "name": "",
          "type": "bytes32"
        }
      ],
      "stateMutability": "view",
      "type": "function"
    },
    {
      "inputs": [
        {
          "internalType": "bytes32",
          "name": "role",
          "type": "bytes32"
        },
        {
          "internalType": "address",
          "name": "account",
          "type": "address"
        }
      ],
      "name": "grantRole",
      "outputs": [],
      "stateMutability": "nonpayable",
      "type": "function"
    },
    {
      "inputs": [
        {
          "internalType": "bytes32",
          "name": "role",
          "type": "bytes32"
        },
        {
          "internalType": "address",
          "name": "account",
          "type": "address"
        }
      ],
      "name": "hasRole",
      "outputs": [
        {
          "internalType": "bool",
          "name": "",
          "type": "bool"
        }
      ],
      "stateMutability": "view",
      "type": "function"
    },
    {
      "inputs": [
        {
          "internalType": "uint256",
          "name": "escrowId",
          "type": "uint256"
        },
        {
          "internalType": "bytes32",
          "name": "conditionId",
          "type": "bytes32"
        },
        {
          "internalType": "bool",
          "name": "satisfied",
          "type": "bool"
        }
      ],
      "name": "markCondition",
      "outputs": [],
      "stateMutability": "nonpayable",
      "type": "function"
    },
    {
      "inputs": [
        {
          "internalType": "uint256",
          "name": "escrowId",
          "type": "uint256"
        }
      ],
      "name": "refundBuyer",
      "outputs": [],
      "stateMutability": "nonpayable",
      "type": "function"
    },
    {
      "inputs": [
        {
          "internalType": "uint256",
          "name": "escrowId",
          "type": "uint256"
        }
      ],
      "name": "releaseFunds",
      "outputs": [],
      "stateMutability": "nonpayable",
      "type": "function"
    },
    {
      "inputs": [
        {
          "internalType": "bytes32",
          "name": "role",
          "type": "bytes32"
        },
        {
          "internalType": "address",
          "name": "account",
          "type": "address"
        }
      ],
      "name": "renounceRole",
      "outputs": [],
      "stateMutability": "nonpayable",
      "type": "function"
    },
    {
      "inputs": [
        {
          "internalType": "bytes32",
          "name": "role",
          "type": "bytes32"
        },
        {
          "internalType": "address",
          "name": "account",
          "type": "address"
        }
      ],
      "name": "revokeRole",
      "outputs": [],
      "stateMutability": "nonpayable",
      "type": "function"
    },
    {
      "inputs": [
        {
          "internalType": "uint256",
          "name": "escrowId",
          "type": "uint256"
        },
        {
          "components": [
            {
              "internalType": "bytes32",
              "name": "id",
              "type": "bytes32"
            },
            {
              "internalType": "string",
              "name": "description",
              "type": "string"
            },
            {
              "internalType": "bool",
              "name": "satisfied",
              "type": "bool"
            },
            {
              "internalType": "uint64",
              "name": "satisfiedAt",
              "type": "uint64"
            }
          ],
          "internalType": "struct DataTypes.EscrowCondition[]",
          "name": "conditions",
          "type": "tuple[]"
        }
      ],
      "name": "setConditions",
      "outputs": [],
      "stateMutability": "nonpayable",
      "type": "function"
    },
    {
      "inputs": [
        {
          "internalType": "bytes4",
          "name": "interfaceId",
          "type": "bytes4"
        }
      ],
      "name": "supportsInterface",
      "outputs": [
        {
          "internalType": "bool",
          "name": "",
          "type": "bool"
        }
      ],
      "stateMutability": "view",
      "type": "function"
    },
    {
      "stateMutability": "payable",
      "type": "receive"
    }
  ],
  "bytecode": {
    "object": "60a0346102f757601f6120d438819003918201601f19168301916001600160401b038311848410176102fb5780849260409485528339810103126102f757610052602061004b8361030f565b920161030f565b6001600160a01b0382165f9081525f805160206120b4833981519152602052604090205490919060ff161561029d575b507f97667070c54ef182b0f5858b034beac1b6f3089aa2d3188bb1e8929f4fa9b9295f81815260208190527fee57cd81e84075558e8fcc182a1f4393f91fc97f963a136e66b7f949a62f31a080549082905590915f805160206120948339815191528380a47f2fdac322ee704ce09f0773f7f3f92eb98d5e7c836ee9c056cccd5f61041e5e3f5f81815260208190527fe3c558b62678382104a32eca8acfc9cd319238c371fe623afa6ac48f9723f7b180549082905590915f805160206120948339815191528380a47f68e79a7bf1e0bc45d0a330c573bc367f9cf464fd326078812f301165fbda4ef15f81815260208190527fa629f6981c2f6895a67dc766e8e03ff72d04a413d0d8773a3ca56e9e474032c280549082905590915f805160206120948339815191528380a47f114e74f6ea3bd819998f78687bfcb11b140da08e9b7d222fa9c1f1ba1f2aa1225f81815260208190527ff9c002f57bb53b4d861ae1ef1369a8087d06c8210e4846f897918d0e534663cf80549082905590915f805160206120948339815191528380a47f71840dc4906352362b0cdaf79870196c8e42acafade72d5d5a6d59291253ceb15f81815260208190527f316a51056d8b2401ab04c48d9973add294eadde229c785c6d19cde93785467f080549082905590915f805160206120948339815191528380a460018055608052604051611d7090816103248239608051818181610a860152610fa60152f35b6001600160a01b03165f8181525f805160206120b483398151915260205260408120805460ff191660011790553391907f2f8788117e7eff1d82e926ec794901d17c78024a50270940304540a733656f0d8180a45f610082565b5f80fd5b634e487b7160e01b5f52604160045260245ffd5b51906001600160a01b03821682036102f75756fe608080604052600436101561001c575b50361561001a575f80fd5b005b5f3560e01c90816301ffc9a7146115135750806307e2cea5146114d9578063248a9ca3146114a75780632f2ff15d146113f057806336568abe1461135e578063392927631461129c5780633b76594d14610f075780633c7fcfb214610ab5578063410239bf14610a715780634d68282f1461090f5780636ce76f30146108d55780637d19e5961461053a57806382aefa241461050057806391d14854146104b8578063a217fddf1461049e578063b796d96614610404578063cd3fc814146101be578063d547741f1461017c578063f36c8f5c146101425763f5b541a614610104575f61000f565b3461013e575f36600319011261013e5760206040517f97667070c54ef182b0f5858b034beac1b6f3089aa2d3188bb1e8929f4fa9b9298152f35b5f80fd5b3461013e575f36600319011261013e5760206040517f71840dc4906352362b0cdaf79870196c8e42acafade72d5d5a6d59291253ceb18152f35b3461013e57604036600319011261013e5761001a60043561019b611566565b906101b96101b4825f525f602052600160405f20015490565b61186c565b611ab3565b3461013e5760c036600319011261013e576004356001600160a01b0381169081900361013e576101ec611566565b6064356001600160a01b038116926044359184900361013e576084356001600160a01b038116810361013e57335f9081525f80516020611d1b833981519152602052604090205461023f9060ff166115a0565b811515806103f2575b156103b657821561037c57600254945f1986146103685760406006957f23a81bcf12a8fbe4340112bd2726d5f873da36f74fa1837b946d61e596589e309261034c600160209a0198899687600255875f5260038c52855f2090896001600160601b0360a01b8354161782556001820160018060a01b0387166001600160601b0360a01b8254161790558a600583015560048201856001600160601b0360a01b825416179055600282019060018060a01b03166001600160601b0360a01b82541617905560a435600382015501600160ff198254161781556001600160401b03421668ffffffffffffffff0082549160081b169068ffffffffffffffff001916179055565b8251968752888701526001600160a01b031694a4604051908152f35b634e487b7160e01b5f52601160045260245ffd5b60405162461bcd60e51b8152602060048201526012602482015271455343524f573a414d4f554e545f5a45524f60701b6044820152606490fd5b60405162461bcd60e51b8152602060048201526014602482015273455343524f573a494e56414c49445f504152545960601b6044820152606490fd5b506001600160a01b0384161515610248565b3461013e57606036600319011261013e57604435801515810361013e57335f9081527fa629f6981c2f6895a67dc766e8e03ff72d04a413d0d8773a3ca56e9e474032c1602052604090205460ff16156104665761001a90602435600435611750565b60405162461bcd60e51b815260206004820152601060248201526f524f4c453a4f5241434c455f4f4e4c5960801b6044820152606490fd5b3461013e575f36600319011261013e5760206040515f8152f35b3461013e57604036600319011261013e576104d1611566565b6004355f525f60205260405f209060018060a01b03165f52602052602060ff60405f2054166040519015158152f35b3461013e575f36600319011261013e5760206040517f114e74f6ea3bd819998f78687bfcb11b140da08e9b7d222fa9c1f1ba1f2aa1228152f35b3461013e57602036600319011261013e57606061014060405161055c81611636565b5f81525f60208201525f60408201525f838201525f60808201525f60a08201525f60c08201525f60e08201525f6101008201525f61012082015201526004355f52600360205260405f206040516105b281611636565b81546001600160a01b0390811682526001830154811660208301908152600284015482166040840190815260038501546060850190815260048601549093166080850190815260058087015460a087019081526006880154949793959394939260c088019260ff8616908110156107cb57835260e08801936001600160401b038660081c16855260076101008a01976001600160401b038860481c1689526001600160401b036101208c019860881c16885201978854986001600160401b038a116108c1576040519961068b60208260051b018c611652565b808b5260208b01915f5260205f205f925b8284106107df57505050506101408a019889526040805160208082529b516001600160a01b039081169c82019c909c529b518b16908c015251891660608b01525160808a01525190961660a0880152945160c08701529351610180860194909260058410156107cb576001600160401b039291908380928998979660e08a015251166101008801525116610120860152511661014084015251906101608084015281518091526101a083019060206101a08260051b8601019301915f905b82821061076957505050500390f35b91936001919395506020809161019f198982030185528751908151815260606001600160401b03816107a886860151608088870152608086019061157c565b94604081015115156040860152015116910152960192019201859493919261075a565b634e487b7160e01b5f52602160045260245ffd5b6040516107eb8161161b565b825481526040516001840180545f916108038261168b565b808552916001811690811561089c5750600114610865575b505092600392826108326020946001970382611652565b838201526001600160401b03600287015460ff81161515604084015260081c16606082015281520192019301929061069c565b5f908152602081209092505b8183106108865750508101602001828261081b565b6001816020925483868801015201920191610871565b60ff191660208087019190915292151560051b8501909201925084915083905061081b565b634e487b7160e01b5f52604160045260245ffd5b3461013e575f36600319011261013e5760206040517f2fdac322ee704ce09f0773f7f3f92eb98d5e7c836ee9c056cccd5f61041e5e3f8152f35b3461013e57602036600319011261013e5760043561092b611b33565b335f9081525f80516020611d1b83398151915260205260409020546109529060ff166115a0565b61095b81611b89565b906006820160ff81541660058110156107cb57600261097a91146115df565b61098383611ccd565b15610a2c57805478ffffffffffffffff00000000000000000000000000000000ff19164260881b67ffffffffffffffff60881b1617600317905560018201805460048401546005909401805490947f6e3c6096795c8298a218b2cfb8bde42726ff7c9a3d27b4d3ba41ab7f74feb5fb936020939092610a109290916001600160a01b039182169116611bdf565b5493546040519081526001600160a01b0390941693a360018055005b60405162461bcd60e51b815260206004820152601960248201527f455343524f573a434f4e444954494f4e535f50454e44494e47000000000000006044820152606490fd5b3461013e575f36600319011261013e576040517f00000000000000000000000000000000000000000000000000000000000000006001600160a01b03168152602090f35b3461013e57604036600319011261013e576024356004356001600160401b03821161013e573660238301121561013e578160040135906001600160401b03821161013e576024830192602436918460051b01011161013e57335f9081525f80516020611d1b8339815191526020526040902054610b349060ff166115a0565b610b3d81611b89565b60ff6006820154169060058210156107cb57610b6782600160079414908115610efc575b506115df565b019283545f855580610e69575b505f5b838110610b8057005b610b8b8185846116d9565b35610b978286856116d9565b602081013590601e198136030182121561013e57018035916001600160401b03831161013e576020820191833603831361013e57610be16040610bdb878b8a6116d9565b0161170f565b93610bf26040610bdb888c8b6116d9565b15610e62576001600160401b034216935b60405193610c108561161b565b8452610c1b8261171c565b92610c296040519485611652565b828452602083369201011161013e57815f926020928386013783010152602082019081526040820193151584526001600160401b0360608301931683528854680100000000000000008110156108c157806001610c8992018b558a611737565b929092610e4f5751825551805160018301916001600160401b0382116108c157610cb3835461168b565b601f8111610e14575b50602090601f8311600114610d9b5760019796946001600160401b039484610d3b9895610d17956002955f92610d90575b50505f19600383901b1c1916908b1b1790555b0193511515849060ff801983541691151516179055565b51825468ffffffffffffffff001916911660081b68ffffffffffffffff0016179055565b837f074e72693a9aff338fc0dcb1e8076061524f6514c79709cc4441afc23a414f77610d688388876116d9565b35610d796040610bdb868b8a6116d9565b60408051928352901515602083015290a201610b77565b015190505f80610ced565b90601f19831691845f52815f20925f5b818110610dfc575094600185610d1795600295839d9c9a95610d3b9c996001600160401b039b10610de4575b505050811b019055610d00565b01515f1960f88460031b161c191690555f8080610dd7565b92936020600181928786015181550195019301610dab565b610e3f90845f5260205f20601f850160051c81019160208610610e45575b601f0160051c01906116c3565b8b610cbc565b9091508190610e32565b634e487b7160e01b5f525f60045260245ffd5b5f93610c03565b8060030290600382040361036857845f5260205f20908101905b818110610e905750610b74565b6003905f815560018101610ea4815461168b565b9081610eb9575b50505f600282015501610e83565b81601f5f9311600114610ed05750555b8780610eab565b81835260208320610eec91601f0160051c8101906001016116c3565b8082528160208120915555610ec9565b600291501487610b61565b602036600319011261013e57600435610f1e611b33565b610f2781611b89565b600681019060ff82541660058110156107cb576001610f4691146115df565b80546001600160a01b031633036112645760048101546001600160a01b0316806111ba57506005810154340361117e575b8054600382015460405163094ddcf360e31b81526001600160a01b0392831660048201526024810182905290917f00000000000000000000000000000000000000000000000000000000000000001690602081604481855afa90811561110f575f9161115f575b501561111a57600183015460405163094ddcf360e31b81526001600160a01b0390911660048201526024810192909252602090829060449082905afa90811561110f575f916110e0575b501561109b57815470ffffffffffffffff0000000000000000ff19164260481b70ffffffffffffffff0000000000000000001617600217909155600501546040519081523391907fe030e47e27825a2ad1b19e4cf2e70bfbfb3124af275c7727a82b114ba7b29a8590602090a360018055005b60405162461bcd60e51b815260206004820152601b60248201527f455343524f573a53454c4c45525f4e4f4e5f434f4d504c49414e5400000000006044820152606490fd5b611102915060203d602011611108575b6110fa8183611652565b810190611673565b84611028565b503d6110f0565b6040513d5f823e3d90fd5b60405162461bcd60e51b815260206004820152601a60248201527f455343524f573a42555945525f4e4f4e5f434f4d504c49414e540000000000006044820152606490fd5b611178915060203d602011611108576110fa8183611652565b86610fde565b60405162461bcd60e51b8152602060048201526014602482015273455343524f573a494e56414c49445f56414c554560601b6044820152606490fd5b3461121f5760205f916064600585015460405194859384926323b872dd60e01b845233600485015230602485015260448401525af1801561110f57611200575b50610f77565b6112189060203d602011611108576110fa8183611652565b50836111fa565b60405162461bcd60e51b815260206004820152601760248201527f455343524f573a484241525f4e4f545f414c4c4f5745440000000000000000006044820152606490fd5b60405162461bcd60e51b815260206004820152601060248201526f22a9a1a927ab9d2727aa2fa12aaca2a960811b6044820152606490fd5b3461013e57602036600319011261013e576004356112b8611b33565b335f9081525f80516020611d1b83398151915260205260409020546112df9060ff166115a0565b6112e881611b89565b906006820160ff81541660058110156107cb57600261130791146115df565b600460ff198254161790557f7ca5472b7ea78c2c0141c5a12ee6d170cf4ce8ed06be3d22c8252ddfc7a6a2c4602060018060a01b0384541693610a1060018060a01b03600483015416956005830196875491611bdf565b3461013e57604036600319011261013e57611377611566565b336001600160a01b038216036113935761001a90600435611ab3565b60405162461bcd60e51b815260206004820152602f60248201527f416363657373436f6e74726f6c3a2063616e206f6e6c792072656e6f756e636560448201526e103937b632b9903337b91039b2b63360891b6064820152608490fd5b3461013e57604036600319011261013e5760043561140c611566565b906114256101b4825f525f602052600160405f20015490565b5f818152602081815260408083206001600160a01b038616845290915290205460ff161561144f57005b5f818152602081815260408083206001600160a01b0395909516808452949091528120805460ff19166001179055339291907f2f8788117e7eff1d82e926ec794901d17c78024a50270940304540a733656f0d9080a4005b3461013e57602036600319011261013e5760206114d16004355f525f602052600160405f20015490565b604051908152f35b3461013e575f36600319011261013e5760206040517f68e79a7bf1e0bc45d0a330c573bc367f9cf464fd326078812f301165fbda4ef18152f35b3461013e57602036600319011261013e576004359063ffffffff60e01b821680920361013e57602091637965db0b60e01b8114908115611555575b5015158152f35b6301ffc9a760e01b1490508361154e565b602435906001600160a01b038216820361013e57565b805180835260209291819084018484015e5f828201840152601f01601f1916010190565b156115a757565b60405162461bcd60e51b815260206004820152601060248201526f524f4c453a455343524f575f4f4e4c5960801b6044820152606490fd5b156115e657565b60405162461bcd60e51b815260206004820152600d60248201526c455343524f573a53544154555360981b6044820152606490fd5b608081019081106001600160401b038211176108c157604052565b61016081019081106001600160401b038211176108c157604052565b90601f801991011681019081106001600160401b038211176108c157604052565b9081602091031261013e5751801515810361013e5790565b90600182811c921680156116b9575b60208310146116a557565b634e487b7160e01b5f52602260045260245ffd5b91607f169161169a565b8181106116ce575050565b5f81556001016116c3565b91908110156116fb5760051b81013590607e198136030182121561013e570190565b634e487b7160e01b5f52603260045260245ffd5b35801515810361013e5790565b6001600160401b0381116108c157601f01601f191660200190565b80548210156116fb575f52600360205f20910201905f90565b909161175b82611b89565b600701925f5b845481101561182757816117758287611737565b50541461178457600101611761565b8460026117e8836117d287846117bf61180e987f074e72693a9aff338fc0dcb1e8076061524f6514c79709cc4441afc23a414f779c9d611737565b50019060ff801983541691151516179055565b8615611820576001600160401b03421693611737565b50019068ffffffffffffffff0082549160081b169068ffffffffffffffff001916179055565b604080519182529115156020820152a2565b5f93611737565b60405162461bcd60e51b815260206004820152601860248201527f455343524f573a554e4b4e4f574e5f434f4e444954494f4e00000000000000006044820152606490fd5b5f8181526020818152604080832033845290915290205460ff161561188e5750565b33611899602a61171c565b916118a76040519384611652565b602a83526118b5602a61171c565b602084019290601f19013684378351156116fb57603083538351600110156116fb576078602185015360295b60018111611a7257506119ed576118f8604261171c565b906119066040519283611652565b60428252611914604261171c565b602083019190601f19013683378251156116fb57603082538251600110156116fb576078602184015360415b60018111611a3157506119ed576119e9936037601192846119c995506040519687947f416363657373436f6e74726f6c3a206163636f756e742000000000000000000060208701525180918587015e8401907001034b99036b4b9b9b4b733903937b6329607d1b84830152518092604883015e01015f838201520301601f198101835282611652565b60405162461bcd60e51b815260206004820152918291602483019061157c565b0390fd5b606460405162461bcd60e51b815260206004820152602060248201527f537472696e67733a20686578206c656e67746820696e73756666696369656e746044820152fd5b90600f811660108110156116fb576f181899199a1a9b1b9c1cb0b131b232b360811b901a611a5f8386611d09565b5360041c908015610368575f1901611940565b90600f811660108110156116fb576f181899199a1a9b1b9c1cb0b131b232b360811b901a611aa08387611d09565b5360041c908015610368575f19016118e1565b5f818152602081815260408083206001600160a01b038616845290915290205460ff16611ade575050565b5f818152602081815260408083206001600160a01b0395909516808452949091528120805460ff19169055339291907ff6391f5c32d9c69d2a47ea670b442974b53935d1edc7fd64eb21e047a839171b9080a4565b600260015414611b44576002600155565b60405162461bcd60e51b815260206004820152601f60248201527f5265656e7472616e637947756172643a207265656e7472616e742063616c6c006044820152606490fd5b5f90815260036020526040902080546001600160a01b031615611ba95790565b60405162461bcd60e51b815260206004820152600e60248201526d22a9a1a927ab9d2aa725a727aba760911b6044820152606490fd5b906001600160a01b031680611c7057505f80809381935af13d15611c6b573d611c078161171c565b90611c156040519283611652565b81525f60203d92013e5b15611c2657565b60405162461bcd60e51b815260206004820152601960248201527f455343524f573a484241525f5452414e534645525f4641494c000000000000006044820152606490fd5b611c1f565b60405163a9059cbb60e01b81526001600160a01b03929092166004830152602482019290925290602090829060449082905f905af1801561110f57611cb25750565b611cca9060203d602011611108576110fa8183611652565b50565b5f5b600782018054821015611d01576002611cea8360ff93611737565b5001541615611cfb57600101611ccf565b50505f90565b505050600190565b9081518110156116fb57016020019056fee3c558b62678382104a32eca8acfc9cd319238c371fe623afa6ac48f9723f7b0a26469706673582212203c690e7ca60401b5719590a16c0e9f659f1b5cf75fca180f15c0da686b33ea0364736f6c634300081a0033bd79b86ffe0ab8e8776151514217cd7cacd52c909f66475c3af44e129f0b00ffad3228b676f7d3cd4284a5443f17f1962b36e491b30a40b2405849e597ba5fb5"
  }
}