{"contracts/offering/InvestmentOffering.sol":{"InvestmentOffering":{"abi":[{"inputs":[{"internalType":"address","name":"admin","type":"address"},{"internalType":"address","name":"_paymentToken","type":"address"},{"internalType":"address","name":"_escrowManager","type":"address"},{"internalType":"address","name":"_propertyToken","type":"address"},{"internalType":"address","name":"_complianceOracle","type":"address"}],"stateMutability":"nonpayable","type":"constructor"},{"anonymous":false,"inputs":[{"indexed":true,"internalType":"uint256","name":"offeringId","type":"uint256"},{"indexed":true,"internalType":"address","name":"investor","type":"address"},{"indexed":false,"internalType":"uint256","name":"amount","type":"uint256"}],"name":"InvestmentMade","type":"event"},{"anonymous":false,"inputs":[{"indexed":true,"internalType":"uint256","name":"offeringId","type":"uint256"},{"indexed":false,"internalType":"uint256","name":"totalRaised","type":"uint256"}],"name":"OfferingClosed","type":"event"},{"anonymous":false,"inputs":[{"indexed":true,"internalType":"uint256","name":"offeringId","type":"uint256"},{"indexed":false,"internalType":"uint256","name":"targetAmount","type":"uint256"},{"indexed":false,"internalType":"uint256","name":"minInvestment","type":"uint256"},{"indexed":false,"internalType":"uint256","name":"maxInvestment","type":"uint256"},{"indexed":false,"internalType":"address","name":"propertyToken","type":"address"}],"name":"OfferingCreated","type":"event"},{"anonymous":false,"inputs":[{"indexed":true,"internalType":"uint256","name":"offeringId","type":"uint256"}],"name":"OfferingFailed","type":"event"},{"anonymous":false,"inputs":[{"indexed":true,"internalType":"uint256","name":"offeringId","type":"uint256"},{"indexed":true,"internalType":"address","name":"investor","type":"address"},{"indexed":false,"internalType":"uint256","name":"amount","type":"uint256"}],"name":"Refunded","type":"event"},{"anonymous":false,"inputs":[{"indexed":true,"internalType":"bytes32","name":"role","type":"bytes32"},{"indexed":true,"internalType":"bytes32","name":"previousAdminRole","type":"bytes32"},{"indexed":true,"internalType":"bytes32","name":"newAdminRole","type":"bytes32"}],"name":"RoleAdminChanged","type":"event"},{"anonymous":false,"inputs":[{"indexed":true,"internalType":"bytes32","name":"role","type":"bytes32"},{"indexed":true,"internalType":"address","name":"account","type":"address"},{"indexed":true,"internalType":"address","name":"sender","type":"address"}],"name":"RoleGranted","type":"event"},{"anonymous":false,"inputs":[{"indexed":true,"internalType":"bytes32","name":"role","type":"bytes32"},{"indexed":true,"internalType":"address","name":"account","type":"address"},{"indexed":true,"internalType":"address","name":"sender","type":"address"}],"name":"RoleRevoked","type":"event"},{"inputs":[],"name":"DEFAULT_ADMIN_ROLE","outputs":[{"internalType":"bytes32","name":"","type":"bytes32"}],"stateMutability":"view","type":"function"},{"inputs":[],"name":"ESCROW_ROLE","outputs":[{"internalType":"bytes32","name":"","type":"bytes32"}],"stateMutability":"view","type":"function"},{"inputs":[],"name":"GOVERNANCE_ROLE","outputs":[{"internalType":"bytes32","name":"","type":"bytes32"}],"stateMutability":"view","type":"function"},{"inputs":[],"name":"ISSUER_ROLE","outputs":[{"internalType":"bytes32","name":"","type":"bytes32"}],"stateMutability":"view","type":"function"},{"inputs":[],"name":"OPERATOR_ROLE","outputs":[{"internalType":"bytes32","name":"","type":"bytes32"}],"stateMutability":"view","type":"function"},{"inputs":[],"name":"ORACLE_ROLE","outputs":[{"internalType":"bytes32","name":"","type":"bytes32"}],"stateMutability":"view","type":"function"},{"inputs":[{"internalType":"uint256","name":"offeringId","type":"uint256"}],"name":"closeOffering","outputs":[],"stateMutability":"nonpayable","type":"function"},{"inputs":[],"name":"complianceOracle","outputs":[{"internalType":"address","name":"","type":"address"}],"stateMutability":"view","type":"function"},{"inputs":[{"internalType":"uint256","name":"targetAmount","type":"uint256"},{"internalType":"uint256","name":"minInvestment","type":"uint256"},{"internalType":"uint256","name":"maxInvestment","type":"uint256"},{"internalType":"uint64","name":"closesAt","type":"uint64"},{"internalType":"uint256","name":"propertyTokenId","type":"uint256"}],"name":"createOffering","outputs":[{"internalType":"uint256","name":"offeringId","type":"uint256"}],"stateMutability":"nonpayable","type":"function"},{"inputs":[],"name":"escrowManager","outputs":[{"internalType":"address","name":"","type":"address"}],"stateMutability":"view","type":"function"},{"inputs":[{"internalType":"uint256","name":"offeringId","type":"uint256"}],"name":"getOffering","outputs":[{"components":[{"internalType":"uint256","name":"targetAmount","type":"uint256"},{"internalType":"uint256","name":"minInvestment","type":"uint256"},{"internalType":"uint256","name":"maxInvestment","type":"uint256"},{"internalType":"uint256","name":"totalRaised","type":"uint256"},{"internalType":"uint64","name":"opensAt","type":"uint64"},{"internalType":"uint64","name":"closesAt","type":"uint64"},{"internalType":"enum DataTypes.OfferingStatus","name":"status","type":"uint8"},{"internalType":"uint256","name":"escrowId","type":"uint256"},{"internalType":"address","name":"propertyToken","type":"address"},{"internalType":"uint256","name":"propertyTokenId","type":"uint256"}],"internalType":"struct DataTypes.Offering","name":"","type":"tuple"}],"stateMutability":"view","type":"function"},{"inputs":[{"internalType":"bytes32","name":"role","type":"bytes32"}],"name":"getRoleAdmin","outputs":[{"internalType":"bytes32","name":"","type":"bytes32"}],"stateMutability":"view","type":"function"},{"inputs":[{"internalType":"bytes32","name":"role","type":"bytes32"},{"internalType":"address","name":"account","type":"address"}],"name":"grantRole","outputs":[],"stateMutability":"nonpayable","type":"function"},{"inputs":[{"internalType":"bytes32","name":"role","type":"bytes32"},{"internalType":"address","name":"account","type":"address"}],"name":"hasRole","outputs":[{"internalType":"bool","name":"","type":"bool"}],"stateMutability":"view","type":"function"},{"inputs":[{"internalType":"uint256","name":"offeringId","type":"uint256"},{"internalType":"uint256","name":"amount","type":"uint256"}],"name":"invest","outputs":[],"stateMutability":"nonpayable","type":"function"},{"inputs":[],"name":"paymentToken","outputs":[{"internalType":"address","name":"","type":"address"}],"stateMutability":"view","type":"function"},{"inputs":[],"name":"propertyToken","outputs":[{"internalType":"address","name":"","type":"address"}],"stateMutability":"view","type":"function"},{"inputs":[{"internalType":"uint256","name":"offeringId","type":"uint256"}],"name":"refundInvestors","outputs":[],"stateMutability":"nonpayable","type":"function"},{"inputs":[{"internalType":"bytes32","name":"role","type":"bytes32"},{"internalType":"address","name":"account","type":"address"}],"name":"renounceRole","outputs":[],"stateMutability":"nonpayable","type":"function"},{"inputs":[{"internalType":"bytes32","name":"role","type":"bytes32"},{"internalType":"address","name":"account","type":"address"}],"name":"revokeRole","outputs":[],"stateMutability":"nonpayable","type":"function"},{"inputs":[{"internalType":"bytes4","name":"interfaceId","type":"bytes4"}],"name":"supportsInterface","outputs":[{"internalType":"bool","name":"","type":"bool"}],"stateMutability":"view","type":"function"}],"evm":{"bytecode":{"linkReferences":{},"object":"61010034620002ec57601f6200208a38819003918201601f191683019291906001600160401b03841183851017620002f1578160a09284926040968752833981010312620002ec57620000528162000307565b9060206200006281830162000307565b6200006f85840162000307565b916200008c6080620000846060870162000307565b950162000307565b60008080528083528781206001600160a01b03909716808252968352878120549196909160ff1615620002a2575b50807f97667070c54ef182b0f5858b034beac1b6f3089aa2d3188bb1e8929f4fa9b929928382525260019181838982200181815491557fbd79b86ffe0ab8e8776151514217cd7cacd52c909f66475c3af44e129f0b00ff92838380a4817f2fdac322ee704ce09f0773f7f3f92eb98d5e7c836ee9c056cccd5f61041e5e3f808252848a832001908282549255838380a4817f68e79a7bf1e0bc45d0a330c573bc367f9cf464fd326078812f301165fbda4ef1808252848a832001908282549255838380a4817f114e74f6ea3bd819998f78687bfcb11b140da08e9b7d222fa9c1f1ba1f2aa122808252848a832001908282549255838380a47f71840dc4906352362b0cdaf79870196c8e42acafade72d5d5a6d59291253ceb180835283898420019183835493558380a4805560805260a05260c05260e05251611d6d90816200031d82396080518181816102740152818161098401528181610d2201528181611687015281816118b90152611a16015260a051818181610518015281816116cb015281816118ed0152818161193c015281816119dc01528181611a4e0152611a99015260c05181818161066e01528181610c130152818161172c015281816117d00152818161183301528181611b3f0152611b91015260e0518181816102150152610c580152f35b8180528183528782208183528352878220805460ff191660011790553390827f2f8788117e7eff1d82e926ec794901d17c78024a50270940304540a733656f0d8180a438620000ba565b600080fd5b634e487b7160e01b600052604160045260246000fd5b51906001600160a01b0382168203620002ec5756fe60808060405260048036101561001457600080fd5b60003560e01c91826301ffc9a7146110165750816307e2cea514610fdb578163248a9ca314610fae5781632b13203014610df65781632f2ff15d14610d515781633013ce2914610d0c57816336568abe14610c87578163410239bf14610c4257816343ae269514610bfd5781636ce76f3014610bc257816382aefa2414610b8757816391d1485414610b475781639ee987b2146108e3578163a1d4646f146107c2578163a217fddf146107a6578163a9cec53414610547578163c12255c414610502578163d547741f146104cf578163d87aa6431461018357508063f36c8f5c146101485763f5b541a61461010857600080fd5b346101435760003660031901126101435760206040517f97667070c54ef182b0f5858b034beac1b6f3089aa2d3188bb1e8929f4fa9b9298152f35b600080fd5b346101435760003660031901126101435760206040517f71840dc4906352362b0cdaf79870196c8e42acafade72d5d5a6d59291253ceb18152f35b346101435760403660031901126101435780359060249081356101a4611559565b6101ad84611cbb565b9267ffffffffffffffff92838186015460401c16421161049b5760018501548310158061048d575b156104535760078501546040805163094ddcf360e31b8152338482019081526020808201949094529294926001600160a01b0392869183919082900301817f000000000000000000000000000000000000000000000000000000000000000086165afa9081156103f257600091610436575b50156103fe576040516323b872dd60e01b81523384820152308382015260448101869052848160648160007f000000000000000000000000000000000000000000000000000000000000000087165af180156103f2576103c5575b50600387019586548681018091116103b157875588600052600385526040600020926040519160408301908382109082111761039d57604052338252858201938785528054906801000000000000000082101561038957906103099160018201815561153d565b9590956103775750505183546001600160a01b031916911617825551600190910155604051918252339185917f89728d542d77fad9fe42c7d1f032c2b85f64cf938d754183b0e95359fbfac8a191a35490541115610368575b60018055005b610371906115f0565b80610362565b600090634e487b7160e01b8252526000fd5b82604188634e487b7160e01b600052526000fd5b50634e487b7160e01b600090815260418652fd5b83601186634e487b7160e01b600052526000fd5b6103e490853d87116103eb575b6103dc8183611443565b810190611525565b50886102a2565b503d6103d2565b6040513d6000823e3d90fd5b506013906064936040519362461bcd60e51b8552840152820152724f46464552494e473a434f4d504c49414e434560681b6044820152fd5b61044d9150853d87116103eb576103dc8183611443565b89610247565b601560649260206040519362461bcd60e51b8552840152820152744f46464552494e473a414d4f554e545f52414e474560581b6044820152fd5b5060028501548311156101d5565b600f60649260206040519362461bcd60e51b85528401528201526e13d1919154925391ce90d313d4d151608a1b6044820152fd5b34610143576105006104e036611068565b908060005260006020526104fb60016040600020015461108e565b611465565b005b34610143576000366003190112610143576040517f00000000000000000000000000000000000000000000000000000000000000006001600160a01b03168152602090f35b346101435760a03660031901126101435760643567ffffffffffffffff81811692803590604435602435868603610143573360009081527ff9c002f57bb53b4d861ae1ef1369a8087d06c8210e4846f897918d0e534663ce602090815260409091205490979060ff161561076f57841561073957828211610703574210156106cb57917f3cdc031a952a16b829d9a532801bfbef171618aa3eda64a07811445b4668ca7693916080936105fa8354611500565b9788978885558860005260028b52604060002094868655836001870155846002870155600060038701558501916fffffffffffffffff0000000000000000835460018a1b9342169070ffffffffffffffffffffffffffffffffff1916179160401b1617179055600683019260018060a01b037f00000000000000000000000000000000000000000000000000000000000000001693846bffffffffffffffffffffffff60a01b82541617905560076084359101556040519384528884015260408301526060820152a2604051908152f35b60405162461bcd60e51b815280840188905260116024820152704f46464552494e473a444541444c494e4560781b6044820152606490fd5b60405162461bcd60e51b8152808501899052600f60248201526e4f46464552494e473a4c494d49545360881b6044820152606490fd5b60405162461bcd60e51b8152808501899052600f60248201526e13d1919154925391ce95105491d155608a1b6044820152606490fd5b60405162461bcd60e51b8152808501899052601060248201526f524f4c453a4953535545525f4f4e4c5960801b6044820152606490fd5b3461014357600036600319011261014357602060405160008152f35b34610143576020366003190112610143573360009081527fee57cd81e84075558e8fcc182a1f4393f91fc97f963a136e66b7f949a62f319f6020526040902054813591906108129060ff166115af565b61081b82611cbb565b67ffffffffffffffff8282015460401c1642108015906108d4575b1561089a5760038101549054116108515750610500906115f0565b600082815260026020526040812091909101805460ff60801b1916600160821b1790557f219277becdfe34da60667fba55be656eaad5448b30203fb7d68e493132afd6649080a2005b60405162461bcd60e51b8152602081840152601360248201527227a32322a924a7239d29aa24a6262fa7a822a760691b6044820152606490fd5b50600381015481541115610836565b34610143576020806003193601126101435781357f97667070c54ef182b0f5858b034beac1b6f3089aa2d3188bb1e8929f4fa9b92960005260008252604060002033600052825261093b60ff604060002054166115af565b610943611559565b8060005260029081835260ff846040600020015460801c166005811015610b32578403610af8576000818152600384526040812092936001600160a01b03917f00000000000000000000000000000000000000000000000000000000000000008316905b8554811015610a8357836109bb828861153d565b505416906109c9818861153d565b506001908101546040805163a9059cbb60e01b81526001600160a01b03909516858d0190815260208101929092528691859182910103816000885af19283156103f257610a6193610a66575b50867f7ca5472b7ea78c2c0141c5a12ee6d170cf4ce8ed06be3d22c8252ddfc7a6a2c48688610a44868d61153d565b50541693610a52868d61153d565b500154604051908152a3611500565b6109a7565b610a7c90863d88116103eb576103dc8183611443565b508a610a15565b868884876000526003815260406000208054926000825583610aa55760018055005b6001600160ff1b0384168403610ae3575060005260002090600190811b8201915b828110610ad35780610362565b6000808255828201558301610ac6565b601190634e487b7160e01b6000525260246000fd5b60405162461bcd60e51b8152808501849052601360248201527213d1919154925391ce9393d517d19052531151606a1b6044820152606490fd5b602185634e487b7160e01b6000525260246000fd5b3461014357610b5536611068565b90600052600060205260406000209060018060a01b0316600052602052602060ff604060002054166040519015158152f35b346101435760003660031901126101435760206040517f114e74f6ea3bd819998f78687bfcb11b140da08e9b7d222fa9c1f1ba1f2aa1228152f35b346101435760003660031901126101435760206040517f2fdac322ee704ce09f0773f7f3f92eb98d5e7c836ee9c056cccd5f61041e5e3f8152f35b34610143576000366003190112610143576040517f00000000000000000000000000000000000000000000000000000000000000006001600160a01b03168152602090f35b34610143576000366003190112610143576040517f00000000000000000000000000000000000000000000000000000000000000006001600160a01b03168152602090f35b3461014357610c9536611068565b90336001600160a01b03831603610cb0576105009250611465565b60405162461bcd60e51b8152602081850152602f60248201527f416363657373436f6e74726f6c3a2063616e206f6e6c792072656e6f756e636560448201526e103937b632b9903337b91039b2b63360891b6064820152608490fd5b34610143576000366003190112610143576040517f00000000000000000000000000000000000000000000000000000000000000006001600160a01b03168152602090f35b3461014357610d5f36611068565b816000526000602052610d7960016040600020015461108e565b81600052600060205260406000209060018060a01b0316908160005260205260ff6040600020541615610da857005b8160005260006020526040600020816000526020526040600020600160ff1982541617905533917f2f8788117e7eff1d82e926ec794901d17c78024a50270940304540a733656f0d600080a4005b34610143576020366003190112610143576000610120604051610e18816113fc565b8281528260208201528260408201528260608201528260808201528260a08201528260c08201528260e08201528261010082015201528035600052600260205260406000209060405191610e6b836113fc565b8054835260018101546020840152600281015460408401526003810154606084015260ff8282015467ffffffffffffffff8116608086015267ffffffffffffffff8160401c1660a086015260801c166005811015610f99579060079160c0850152600581015460e085015260018060a01b036006820154166101008501520154610120830152604051908251825260208301516020830152604083015160408301526060830151606083015267ffffffffffffffff608084015116608083015267ffffffffffffffff60a08401511660a083015260c0830151906005821015610f845750610140926101209160c084015260e081015160e084015260018060a01b03610100820151166101008401520151610120820152f35b602190634e487b7160e01b6000525260246000fd5b602183634e487b7160e01b6000525260246000fd5b34610143576020366003190112610143573560005260006020526020600160406000200154604051908152f35b346101435760003660031901126101435760206040517f68e79a7bf1e0bc45d0a330c573bc367f9cf464fd326078812f301165fbda4ef18152f35b903461014357602036600319011261014357359063ffffffff60e01b821680920361014357602091637965db0b60e01b8114908115611057575b5015158152f35b6301ffc9a760e01b14905083611050565b604090600319011261014357600435906024356001600160a01b03811681036101435790565b600090808252602090828252604090818420338552835260ff8285205416156110b75750505050565b81519367ffffffffffffffff3360608701828111888210176113c5578552602a875285870193853686378751156113b1576030855387519160019283101561139d57607860218a015360295b83811161133357506112f157908551926080840190848210908211176112dd578652604283528683019360603686378351156112c9576030855383518210156112c95790607860218501536041915b81831161125b5750505061121957926111e760486111d8979461120b946044989785519a8b936111af8b86019a7f416363657373436f6e74726f6c3a206163636f756e74200000000000000000008c5251809260378801906113d9565b8401917001034b99036b4b9b9b4b733903937b6329607d1b6037840152518093868401906113d9565b01036028810189520187611443565b5194859362461bcd60e51b85526004850152518092816024860152858501906113d9565b601f01601f19168101030190fd5b60648585519062461bcd60e51b825280600483015260248201527f537472696e67733a20686578206c656e67746820696e73756666696369656e746044820152fd5b909192600f811660108110156112b5576f181899199a1a9b1b9c1cb0b131b232b360811b901a61128b85876114d9565b5360041c9280156112a157600019019190611152565b634e487b7160e01b82526011600452602482fd5b634e487b7160e01b83526032600452602483fd5b634e487b7160e01b81526032600452602490fd5b634e487b7160e01b85526041600452602485fd5b60648787519062461bcd60e51b825280600483015260248201527f537472696e67733a20686578206c656e67746820696e73756666696369656e746044820152fd5b90600f81166010811015611389576f181899199a1a9b1b9c1cb0b131b232b360811b901a611361838c6114d9565b5360041c9080156113755760001901611103565b634e487b7160e01b86526011600452602486fd5b634e487b7160e01b87526032600452602487fd5b634e487b7160e01b85526032600452602485fd5b634e487b7160e01b84526032600452602484fd5b634e487b7160e01b84526041600452602484fd5b60005b8381106113ec5750506000910152565b81810151838201526020016113dc565b610140810190811067ffffffffffffffff82111761141957604052565b634e487b7160e01b600052604160045260246000fd5b67ffffffffffffffff811161141957604052565b90601f8019910116810190811067ffffffffffffffff82111761141957604052565b9060009180835282602052604083209160018060a01b03169182845260205260ff60408420541661149557505050565b80835282602052604083208284526020526040832060ff1981541690557ff6391f5c32d9c69d2a47ea670b442974b53935d1edc7fd64eb21e047a839171b339380a4565b9081518110156114ea570160200190565b634e487b7160e01b600052603260045260246000fd5b600019811461150f5760010190565b634e487b7160e01b600052601160045260246000fd5b90816020910312610143575180151581036101435790565b80548210156114ea5760005260206000209060011b0190600090565b60026001541461156a576002600155565b60405162461bcd60e51b815260206004820152601f60248201527f5265656e7472616e637947756172643a207265656e7472616e742063616c6c006044820152606490fd5b156115b657565b60405162461bcd60e51b8152602060048201526012602482015271524f4c453a4f50455241544f525f4f4e4c5960701b6044820152606490fd5b9060009180835260026020526040832060048101600160811b60ff60801b1982541617905560018060a01b0360068201541692600782015490604051916331a9108f60e11b8352806004840152602083602481895afa928315611cb0578793611c68575b50600384015460405163334ff20560e21b81523060048201526001600160a01b03858116602483015260448201929092527f000000000000000000000000000000000000000000000000000000000000000082166064820152608481019790975260a4870191909152602090869060c49082908a907f0000000000000000000000000000000000000000000000000000000000000000165af1948515611c5d578695611c25575b50600583018590556003830154600784015460405163013f2dad60e41b8152600481018290529192916020816024817f00000000000000000000000000000000000000000000000000000000000000006001600160a01b03165afa908115611c1a578991611be8575b5015611b3d575b5084875260036020526040872094875b86548110156118ab576001611790828961153d565b500154848181020481148515171561150f576003870154801561189757908a916007890154916117c0858c61153d565b50546001600160a01b03908116907f0000000000000000000000000000000000000000000000000000000000000000163b1561189357604051936317aecef160e11b8552600485015260018060a01b038a1660248501526044840152870204606482015281816084818360018060a01b037f0000000000000000000000000000000000000000000000000000000000000000165af1801561188857611870575b505061186b90611500565b61177b565b6118799061142f565b611884578838611860565b8880fd5b6040513d84823e3d90fd5b8480fd5b634e487b7160e01b8b52601260045260248bfd5b5090969095939450929150507f00000000000000000000000000000000000000000000000000000000000000006001600160a01b03166119c0576003830154907f00000000000000000000000000000000000000000000000000000000000000006001600160a01b03163b156119bc57604051633b76594d60e01b81526004810191909152908290829060249082907f00000000000000000000000000000000000000000000000000000000000000006001600160a01b03165af18015611888576119a5575b5050602060037fc566557ce4cb9ae8e7b1ebb1215c266fb3ef7b87e5a726107e9188fd256423fb925b0154604051908152a2565b6119af829161142f565b6119b95780611971565b80fd5b8280fd5b600383015460405163095ea7b360e01b81526001600160a01b037f0000000000000000000000000000000000000000000000000000000000000000166004820152602481019190915260208180604481010381867f00000000000000000000000000000000000000000000000000000000000000006001600160a01b03165af18015611b3257611b13575b507f00000000000000000000000000000000000000000000000000000000000000006001600160a01b03163b15611b0f57604051633b76594d60e01b815260048101919091528181602481837f00000000000000000000000000000000000000000000000000000000000000006001600160a01b03165af1801561188857611afb575b5050602060037fc566557ce4cb9ae8e7b1ebb1215c266fb3ef7b87e5a726107e9188fd256423fb9261199a565b611b05829161142f565b6119b95780611ace565b5080fd5b611b2b9060203d6020116103eb576103dc8183611443565b5038611a4b565b6040513d85823e3d90fd5b7f00000000000000000000000000000000000000000000000000000000000000006001600160a01b03163b15611be45760405163061c37ed60e11b81526004810191909152602481018390528781604481837f00000000000000000000000000000000000000000000000000000000000000006001600160a01b03165af18015611bd9571561176b57611bd29097919761142f565b953861176b565b6040513d8a823e3d90fd5b8780fd5b90506020813d602011611c12575b81611c0360209383611443565b81010312611884575138611764565b3d9150611bf6565b6040513d8b823e3d90fd5b9094506020813d602011611c55575b81611c4160209383611443565b81010312611c51575193386116fb565b8580fd5b3d9150611c34565b6040513d88823e3d90fd5b9092506020813d602011611ca8575b81611c8460209383611443565b81010312611ca457516001600160a01b0381168103611ca4579138611654565b8680fd5b3d9150611c77565b6040513d89823e3d90fd5b6000526002602052604060002060ff600482015460801c166005811015611d2157600103611ce65790565b60405162461bcd60e51b81526020600482015260136024820152724f46464552494e473a4e4f545f41435449564560681b6044820152606490fd5b634e487b7160e01b600052602160045260246000fdfea2646970667358221220e9a51e5e274c819d581ef591a5c27a7b48410bafeb3b66e2597040d2fa6b1c8e64736f6c63430008140033","opcodes":"PUSH2 0x100 CALLVALUE PUSH3 0x2EC JUMPI PUSH1 0x1F PUSH3 0x208A CODESIZE DUP2 SWAP1 SUB SWAP2 DUP3 ADD PUSH1 0x1F NOT AND DUP4 ADD SWAP3 SWAP2 SWAP1 PUSH1 0x1 PUSH1 0x1 PUSH1 0x40 SHL SUB DUP5 GT DUP4 DUP6 LT OR PUSH3 0x2F1 JUMPI DUP2 PUSH1 0xA0 SWAP3 DUP5 SWAP3 PUSH1 0x40 SWAP7 DUP8 MSTORE DUP4 CODECOPY DUP2 ADD SUB SLT PUSH3 0x2EC JUMPI PUSH3 0x52 DUP2 PUSH3 0x307 JUMP JUMPDEST SWAP1 PUSH1 0x20 PUSH3 0x62 DUP2 DUP4 ADD PUSH3 0x307 JUMP JUMPDEST PUSH3 0x6F DUP6 DUP5 ADD PUSH3 0x307 JUMP JUMPDEST SWAP2 PUSH3 0x8C PUSH1 0x80 PUSH3 0x84 PUSH1 0x60 DUP8 ADD PUSH3 0x307 JUMP JUMPDEST SWAP6 ADD PUSH3 0x307 JUMP JUMPDEST PUSH1 0x0 DUP1 DUP1 MSTORE DUP1 DUP4 MSTORE DUP8 DUP2 KECCAK256 PUSH1 0x1 PUSH1 0x1 PUSH1 0xA0 SHL SUB SWAP1 SWAP8 AND DUP1 DUP3 MSTORE SWAP7 DUP4 MSTORE DUP8 DUP2 KECCAK256 SLOAD SWAP2 SWAP7 SWAP1 SWAP2 PUSH1 0xFF AND ISZERO PUSH3 0x2A2 JUMPI JUMPDEST POP DUP1 PUSH32 0x97667070C54EF182B0F5858B034BEAC1B6F3089AA2D3188BB1E8929F4FA9B929 SWAP3 DUP4 DUP3 MSTORE MSTORE PUSH1 0x1 SWAP2 DUP2 DUP4 DUP10 DUP3 KECCAK256 ADD DUP2 DUP2 SLOAD SWAP2 SSTORE PUSH32 0xBD79B86FFE0AB8E8776151514217CD7CACD52C909F66475C3AF44E129F0B00FF SWAP3 DUP4 DUP4 DUP1 LOG4 DUP2 PUSH32 0x2FDAC322EE704CE09F0773F7F3F92EB98D5E7C836EE9C056CCCD5F61041E5E3F DUP1 DUP3 MSTORE DUP5 DUP11 DUP4 KECCAK256 ADD SWAP1 DUP3 DUP3 SLOAD SWAP3 SSTORE DUP4 DUP4 DUP1 LOG4 DUP2 PUSH32 0x68E79A7BF1E0BC45D0A330C573BC367F9CF464FD326078812F301165FBDA4EF1 DUP1 DUP3 MSTORE DUP5 DUP11 DUP4 KECCAK256 ADD SWAP1 DUP3 DUP3 SLOAD SWAP3 SSTORE DUP4 DUP4 DUP1 LOG4 DUP2 PUSH32 0x114E74F6EA3BD819998F78687BFCB11B140DA08E9B7D222FA9C1F1BA1F2AA122 DUP1 DUP3 MSTORE DUP5 DUP11 DUP4 KECCAK256 ADD SWAP1 DUP3 DUP3 SLOAD SWAP3 SSTORE DUP4 DUP4 DUP1 LOG4 PUSH32 0x71840DC4906352362B0CDAF79870196C8E42ACAFADE72D5D5A6D59291253CEB1 DUP1 DUP4 MSTORE DUP4 DUP10 DUP5 KECCAK256 ADD SWAP2 DUP4 DUP4 SLOAD SWAP4 SSTORE DUP4 DUP1 LOG4 DUP1 SSTORE PUSH1 0x80 MSTORE PUSH1 0xA0 MSTORE PUSH1 0xC0 MSTORE PUSH1 0xE0 MSTORE MLOAD PUSH2 0x1D6D SWAP1 DUP2 PUSH3 0x31D DUP3 CODECOPY PUSH1 0x80 MLOAD DUP2 DUP2 DUP2 PUSH2 0x274 ADD MSTORE DUP2 DUP2 PUSH2 0x984 ADD MSTORE DUP2 DUP2 PUSH2 0xD22 ADD MSTORE DUP2 DUP2 PUSH2 0x1687 ADD MSTORE DUP2 DUP2 PUSH2 0x18B9 ADD MSTORE PUSH2 0x1A16 ADD MSTORE PUSH1 0xA0 MLOAD DUP2 DUP2 DUP2 PUSH2 0x518 ADD MSTORE DUP2 DUP2 PUSH2 0x16CB ADD MSTORE DUP2 DUP2 PUSH2 0x18ED ADD MSTORE DUP2 DUP2 PUSH2 0x193C ADD MSTORE DUP2 DUP2 PUSH2 0x19DC ADD MSTORE DUP2 DUP2 PUSH2 0x1A4E ADD MSTORE PUSH2 0x1A99 ADD MSTORE PUSH1 0xC0 MLOAD DUP2 DUP2 DUP2 PUSH2 0x66E ADD MSTORE DUP2 DUP2 PUSH2 0xC13 ADD MSTORE DUP2 DUP2 PUSH2 0x172C ADD MSTORE DUP2 DUP2 PUSH2 0x17D0 ADD MSTORE DUP2 DUP2 PUSH2 0x1833 ADD MSTORE DUP2 DUP2 PUSH2 0x1B3F ADD MSTORE PUSH2 0x1B91 ADD MSTORE PUSH1 0xE0 MLOAD DUP2 DUP2 DUP2 PUSH2 0x215 ADD MSTORE PUSH2 0xC58 ADD MSTORE RETURN JUMPDEST DUP2 DUP1 MSTORE DUP2 DUP4 MSTORE DUP8 DUP3 KECCAK256 DUP2 DUP4 MSTORE DUP4 MSTORE DUP8 DUP3 KECCAK256 DUP1 SLOAD PUSH1 0xFF NOT AND PUSH1 0x1 OR SWAP1 SSTORE CALLER SWAP1 DUP3 PUSH32 0x2F8788117E7EFF1D82E926EC794901D17C78024A50270940304540A733656F0D DUP2 DUP1 LOG4 CODESIZE PUSH3 0xBA JUMP JUMPDEST PUSH1 0x0 DUP1 REVERT JUMPDEST PUSH4 0x4E487B71 PUSH1 0xE0 SHL PUSH1 0x0 MSTORE PUSH1 0x41 PUSH1 0x4 MSTORE PUSH1 0x24 PUSH1 0x0 REVERT JUMPDEST MLOAD SWAP1 PUSH1 0x1 PUSH1 0x1 PUSH1 0xA0 SHL SUB DUP3 AND DUP3 SUB PUSH3 0x2EC JUMPI JUMP INVALID PUSH1 0x80 DUP1 PUSH1 0x40 MSTORE PUSH1 0x4 DUP1 CALLDATASIZE LT ISZERO PUSH2 0x14 JUMPI PUSH1 0x0 DUP1 REVERT JUMPDEST PUSH1 0x0 CALLDATALOAD PUSH1 0xE0 SHR SWAP2 DUP3 PUSH4 0x1FFC9A7 EQ PUSH2 0x1016 JUMPI POP DUP2 PUSH4 0x7E2CEA5 EQ PUSH2 0xFDB JUMPI DUP2 PUSH4 0x248A9CA3 EQ PUSH2 0xFAE JUMPI DUP2 PUSH4 0x2B132030 EQ PUSH2 0xDF6 JUMPI DUP2 PUSH4 0x2F2FF15D EQ PUSH2 0xD51 JUMPI DUP2 PUSH4 0x3013CE29 EQ PUSH2 0xD0C JUMPI DUP2 PUSH4 0x36568ABE EQ PUSH2 0xC87 JUMPI DUP2 PUSH4 0x410239BF EQ PUSH2 0xC42 JUMPI DUP2 PUSH4 0x43AE2695 EQ PUSH2 0xBFD JUMPI DUP2 PUSH4 0x6CE76F30 EQ PUSH2 0xBC2 JUMPI DUP2 PUSH4 0x82AEFA24 EQ PUSH2 0xB87 JUMPI DUP2 PUSH4 0x91D14854 EQ PUSH2 0xB47 JUMPI DUP2 PUSH4 0x9EE987B2 EQ PUSH2 0x8E3 JUMPI DUP2 PUSH4 0xA1D4646F EQ PUSH2 0x7C2 JUMPI DUP2 PUSH4 0xA217FDDF EQ PUSH2 0x7A6 JUMPI DUP2 PUSH4 0xA9CEC534 EQ PUSH2 0x547 JUMPI DUP2 PUSH4 0xC12255C4 EQ PUSH2 0x502 JUMPI DUP2 PUSH4 0xD547741F EQ PUSH2 0x4CF JUMPI DUP2 PUSH4 0xD87AA643 EQ PUSH2 0x183 JUMPI POP DUP1 PUSH4 0xF36C8F5C EQ PUSH2 0x148 JUMPI PUSH4 0xF5B541A6 EQ PUSH2 0x108 JUMPI PUSH1 0x0 DUP1 REVERT JUMPDEST CALLVALUE PUSH2 0x143 JUMPI PUSH1 0x0 CALLDATASIZE PUSH1 0x3 NOT ADD SLT PUSH2 0x143 JUMPI PUSH1 0x20 PUSH1 0x40 MLOAD PUSH32 0x97667070C54EF182B0F5858B034BEAC1B6F3089AA2D3188BB1E8929F4FA9B929 DUP2 MSTORE RETURN JUMPDEST PUSH1 0x0 DUP1 REVERT JUMPDEST CALLVALUE PUSH2 0x143 JUMPI PUSH1 0x0 CALLDATASIZE PUSH1 0x3 NOT ADD SLT PUSH2 0x143 JUMPI PUSH1 0x20 PUSH1 0x40 MLOAD PUSH32 0x71840DC4906352362B0CDAF79870196C8E42ACAFADE72D5D5A6D59291253CEB1 DUP2 MSTORE RETURN JUMPDEST CALLVALUE PUSH2 0x143 JUMPI PUSH1 0x40 CALLDATASIZE PUSH1 0x3 NOT ADD SLT PUSH2 0x143 JUMPI DUP1 CALLDATALOAD SWAP1 PUSH1 0x24 SWAP1 DUP2 CALLDATALOAD PUSH2 0x1A4 PUSH2 0x1559 JUMP JUMPDEST PUSH2 0x1AD DUP5 PUSH2 0x1CBB JUMP JUMPDEST SWAP3 PUSH8 0xFFFFFFFFFFFFFFFF SWAP3 DUP4 DUP2 DUP7 ADD SLOAD PUSH1 0x40 SHR AND TIMESTAMP GT PUSH2 0x49B JUMPI PUSH1 0x1 DUP6 ADD SLOAD DUP4 LT ISZERO DUP1 PUSH2 0x48D JUMPI JUMPDEST ISZERO PUSH2 0x453 JUMPI PUSH1 0x7 DUP6 ADD SLOAD PUSH1 0x40 DUP1 MLOAD PUSH4 0x94DDCF3 PUSH1 0xE3 SHL DUP2 MSTORE CALLER DUP5 DUP3 ADD SWAP1 DUP2 MSTORE PUSH1 0x20 DUP1 DUP3 ADD SWAP5 SWAP1 SWAP5 MSTORE SWAP3 SWAP5 SWAP3 PUSH1 0x1 PUSH1 0x1 PUSH1 0xA0 SHL SUB SWAP3 DUP7 SWAP2 DUP4 SWAP2 SWAP1 DUP3 SWAP1 SUB ADD DUP2 PUSH32 0x0 DUP7 AND GAS STATICCALL SWAP1 DUP2 ISZERO PUSH2 0x3F2 JUMPI PUSH1 0x0 SWAP2 PUSH2 0x436 JUMPI JUMPDEST POP ISZERO PUSH2 0x3FE JUMPI PUSH1 0x40 MLOAD PUSH4 0x23B872DD PUSH1 0xE0 SHL DUP2 MSTORE CALLER DUP5 DUP3 ADD MSTORE ADDRESS DUP4 DUP3 ADD MSTORE PUSH1 0x44 DUP2 ADD DUP7 SWAP1 MSTORE DUP5 DUP2 PUSH1 0x64 DUP2 PUSH1 0x0 PUSH32 0x0 DUP8 AND GAS CALL DUP1 ISZERO PUSH2 0x3F2 JUMPI PUSH2 0x3C5 JUMPI JUMPDEST POP PUSH1 0x3 DUP8 ADD SWAP6 DUP7 SLOAD DUP7 DUP2 ADD DUP1 SWAP2 GT PUSH2 0x3B1 JUMPI DUP8 SSTORE DUP9 PUSH1 0x0 MSTORE PUSH1 0x3 DUP6 MSTORE PUSH1 0x40 PUSH1 0x0 KECCAK256 SWAP3 PUSH1 0x40 MLOAD SWAP2 PUSH1 0x40 DUP4 ADD SWAP1 DUP4 DUP3 LT SWAP1 DUP3 GT OR PUSH2 0x39D JUMPI PUSH1 0x40 MSTORE CALLER DUP3 MSTORE DUP6 DUP3 ADD SWAP4 DUP8 DUP6 MSTORE DUP1 SLOAD SWAP1 PUSH9 0x10000000000000000 DUP3 LT ISZERO PUSH2 0x389 JUMPI SWAP1 PUSH2 0x309 SWAP2 PUSH1 0x1 DUP3 ADD DUP2 SSTORE PUSH2 0x153D JUMP JUMPDEST SWAP6 SWAP1 SWAP6 PUSH2 0x377 JUMPI POP POP MLOAD DUP4 SLOAD PUSH1 0x1 PUSH1 0x1 PUSH1 0xA0 SHL SUB NOT AND SWAP2 AND OR DUP3 SSTORE MLOAD PUSH1 0x1 SWAP1 SWAP2 ADD SSTORE PUSH1 0x40 MLOAD SWAP2 DUP3 MSTORE CALLER SWAP2 DUP6 SWAP2 PUSH32 0x89728D542D77FAD9FE42C7D1F032C2B85F64CF938D754183B0E95359FBFAC8A1 SWAP2 LOG3 SLOAD SWAP1 SLOAD GT ISZERO PUSH2 0x368 JUMPI JUMPDEST PUSH1 0x1 DUP1 SSTORE STOP JUMPDEST PUSH2 0x371 SWAP1 PUSH2 0x15F0 JUMP JUMPDEST DUP1 PUSH2 0x362 JUMP JUMPDEST PUSH1 0x0 SWAP1 PUSH4 0x4E487B71 PUSH1 0xE0 SHL DUP3 MSTORE MSTORE PUSH1 0x0 REVERT JUMPDEST DUP3 PUSH1 0x41 DUP9 PUSH4 0x4E487B71 PUSH1 0xE0 SHL PUSH1 0x0 MSTORE MSTORE PUSH1 0x0 REVERT JUMPDEST POP PUSH4 0x4E487B71 PUSH1 0xE0 SHL PUSH1 0x0 SWAP1 DUP2 MSTORE PUSH1 0x41 DUP7 MSTORE REVERT JUMPDEST DUP4 PUSH1 0x11 DUP7 PUSH4 0x4E487B71 PUSH1 0xE0 SHL PUSH1 0x0 MSTORE MSTORE PUSH1 0x0 REVERT JUMPDEST PUSH2 0x3E4 SWAP1 DUP6 RETURNDATASIZE DUP8 GT PUSH2 0x3EB JUMPI JUMPDEST PUSH2 0x3DC DUP2 DUP4 PUSH2 0x1443 JUMP JUMPDEST DUP2 ADD SWAP1 PUSH2 0x1525 JUMP JUMPDEST POP DUP9 PUSH2 0x2A2 JUMP JUMPDEST POP RETURNDATASIZE PUSH2 0x3D2 JUMP JUMPDEST PUSH1 0x40 MLOAD RETURNDATASIZE PUSH1 0x0 DUP3 RETURNDATACOPY RETURNDATASIZE SWAP1 REVERT JUMPDEST POP PUSH1 0x13 SWAP1 PUSH1 0x64 SWAP4 PUSH1 0x40 MLOAD SWAP4 PUSH3 0x461BCD PUSH1 0xE5 SHL DUP6 MSTORE DUP5 ADD MSTORE DUP3 ADD MSTORE PUSH19 0x4F46464552494E473A434F4D504C49414E4345 PUSH1 0x68 SHL PUSH1 0x44 DUP3 ADD MSTORE REVERT JUMPDEST PUSH2 0x44D SWAP2 POP DUP6 RETURNDATASIZE DUP8 GT PUSH2 0x3EB JUMPI PUSH2 0x3DC DUP2 DUP4 PUSH2 0x1443 JUMP JUMPDEST DUP10 PUSH2 0x247 JUMP JUMPDEST PUSH1 0x15 PUSH1 0x64 SWAP3 PUSH1 0x20 PUSH1 0x40 MLOAD SWAP4 PUSH3 0x461BCD PUSH1 0xE5 SHL DUP6 MSTORE DUP5 ADD MSTORE DUP3 ADD MSTORE PUSH21 0x4F46464552494E473A414D4F554E545F52414E4745 PUSH1 0x58 SHL PUSH1 0x44 DUP3 ADD MSTORE REVERT JUMPDEST POP PUSH1 0x2 DUP6 ADD SLOAD DUP4 GT ISZERO PUSH2 0x1D5 JUMP JUMPDEST PUSH1 0xF PUSH1 0x64 SWAP3 PUSH1 0x20 PUSH1 0x40 MLOAD SWAP4 PUSH3 0x461BCD PUSH1 0xE5 SHL DUP6 MSTORE DUP5 ADD MSTORE DUP3 ADD MSTORE PUSH15 0x13D1919154925391CE90D313D4D151 PUSH1 0x8A SHL PUSH1 0x44 DUP3 ADD MSTORE REVERT JUMPDEST CALLVALUE PUSH2 0x143 JUMPI PUSH2 0x500 PUSH2 0x4E0 CALLDATASIZE PUSH2 0x1068 JUMP JUMPDEST SWAP1 DUP1 PUSH1 0x0 MSTORE PUSH1 0x0 PUSH1 0x20 MSTORE PUSH2 0x4FB PUSH1 0x1 PUSH1 0x40 PUSH1 0x0 KECCAK256 ADD SLOAD PUSH2 0x108E JUMP JUMPDEST PUSH2 0x1465 JUMP JUMPDEST STOP JUMPDEST CALLVALUE PUSH2 0x143 JUMPI PUSH1 0x0 CALLDATASIZE PUSH1 0x3 NOT ADD SLT PUSH2 0x143 JUMPI PUSH1 0x40 MLOAD PUSH32 0x0 PUSH1 0x1 PUSH1 0x1 PUSH1 0xA0 SHL SUB AND DUP2 MSTORE PUSH1 0x20 SWAP1 RETURN JUMPDEST CALLVALUE PUSH2 0x143 JUMPI PUSH1 0xA0 CALLDATASIZE PUSH1 0x3 NOT ADD SLT PUSH2 0x143 JUMPI PUSH1 0x64 CALLDATALOAD PUSH8 0xFFFFFFFFFFFFFFFF DUP2 DUP2 AND SWAP3 DUP1 CALLDATALOAD SWAP1 PUSH1 0x44 CALLDATALOAD PUSH1 0x24 CALLDATALOAD DUP7 DUP7 SUB PUSH2 0x143 JUMPI CALLER PUSH1 0x0 SWAP1 DUP2 MSTORE PUSH32 0xF9C002F57BB53B4D861AE1EF1369A8087D06C8210E4846F897918D0E534663CE PUSH1 0x20 SWAP1 DUP2 MSTORE PUSH1 0x40 SWAP1 SWAP2 KECCAK256 SLOAD SWAP1 SWAP8 SWAP1 PUSH1 0xFF AND ISZERO PUSH2 0x76F JUMPI DUP5 ISZERO PUSH2 0x739 JUMPI DUP3 DUP3 GT PUSH2 0x703 JUMPI TIMESTAMP LT ISZERO PUSH2 0x6CB JUMPI SWAP2 PUSH32 0x3CDC031A952A16B829D9A532801BFBEF171618AA3EDA64A07811445B4668CA76 SWAP4 SWAP2 PUSH1 0x80 SWAP4 PUSH2 0x5FA DUP4 SLOAD PUSH2 0x1500 JUMP JUMPDEST SWAP8 DUP9 SWAP8 DUP9 DUP6 SSTORE DUP9 PUSH1 0x0 MSTORE PUSH1 0x2 DUP12 MSTORE PUSH1 0x40 PUSH1 0x0 KECCAK256 SWAP5 DUP7 DUP7 SSTORE DUP4 PUSH1 0x1 DUP8 ADD SSTORE DUP5 PUSH1 0x2 DUP8 ADD SSTORE PUSH1 0x0 PUSH1 0x3 DUP8 ADD SSTORE DUP6 ADD SWAP2 PUSH16 0xFFFFFFFFFFFFFFFF0000000000000000 DUP4 SLOAD PUSH1 0x1 DUP11 SHL SWAP4 TIMESTAMP AND SWAP1 PUSH17 0xFFFFFFFFFFFFFFFFFFFFFFFFFFFFFFFFFF NOT AND OR SWAP2 PUSH1 0x40 SHL AND OR OR SWAP1 SSTORE PUSH1 0x6 DUP4 ADD SWAP3 PUSH1 0x1 DUP1 PUSH1 0xA0 SHL SUB PUSH32 0x0 AND SWAP4 DUP5 PUSH12 0xFFFFFFFFFFFFFFFFFFFFFFFF PUSH1 0xA0 SHL DUP3 SLOAD AND OR SWAP1 SSTORE PUSH1 0x7 PUSH1 0x84 CALLDATALOAD SWAP2 ADD SSTORE PUSH1 0x40 MLOAD SWAP4 DUP5 MSTORE DUP9 DUP5 ADD MSTORE PUSH1 0x40 DUP4 ADD MSTORE PUSH1 0x60 DUP3 ADD MSTORE LOG2 PUSH1 0x40 MLOAD SWAP1 DUP2 MSTORE RETURN JUMPDEST PUSH1 0x40 MLOAD PUSH3 0x461BCD PUSH1 0xE5 SHL DUP2 MSTORE DUP1 DUP5 ADD DUP9 SWAP1 MSTORE PUSH1 0x11 PUSH1 0x24 DUP3 ADD MSTORE PUSH17 0x4F46464552494E473A444541444C494E45 PUSH1 0x78 SHL PUSH1 0x44 DUP3 ADD MSTORE PUSH1 0x64 SWAP1 REVERT JUMPDEST PUSH1 0x40 MLOAD PUSH3 0x461BCD PUSH1 0xE5 SHL DUP2 MSTORE DUP1 DUP6 ADD DUP10 SWAP1 MSTORE PUSH1 0xF PUSH1 0x24 DUP3 ADD MSTORE PUSH15 0x4F46464552494E473A4C494D495453 PUSH1 0x88 SHL PUSH1 0x44 DUP3 ADD MSTORE PUSH1 0x64 SWAP1 REVERT JUMPDEST PUSH1 0x40 MLOAD PUSH3 0x461BCD PUSH1 0xE5 SHL DUP2 MSTORE DUP1 DUP6 ADD DUP10 SWAP1 MSTORE PUSH1 0xF PUSH1 0x24 DUP3 ADD MSTORE PUSH15 0x13D1919154925391CE95105491D155 PUSH1 0x8A SHL PUSH1 0x44 DUP3 ADD MSTORE PUSH1 0x64 SWAP1 REVERT JUMPDEST PUSH1 0x40 MLOAD PUSH3 0x461BCD PUSH1 0xE5 SHL DUP2 MSTORE DUP1 DUP6 ADD DUP10 SWAP1 MSTORE PUSH1 0x10 PUSH1 0x24 DUP3 ADD MSTORE PUSH16 0x524F4C453A4953535545525F4F4E4C59 PUSH1 0x80 SHL PUSH1 0x44 DUP3 ADD MSTORE PUSH1 0x64 SWAP1 REVERT JUMPDEST CALLVALUE PUSH2 0x143 JUMPI PUSH1 0x0 CALLDATASIZE PUSH1 0x3 NOT ADD SLT PUSH2 0x143 JUMPI PUSH1 0x20 PUSH1 0x40 MLOAD PUSH1 0x0 DUP2 MSTORE RETURN JUMPDEST CALLVALUE PUSH2 0x143 JUMPI PUSH1 0x20 CALLDATASIZE PUSH1 0x3 NOT ADD SLT PUSH2 0x143 JUMPI CALLER PUSH1 0x0 SWAP1 DUP2 MSTORE PUSH32 0xEE57CD81E84075558E8FCC182A1F4393F91FC97F963A136E66B7F949A62F319F PUSH1 0x20 MSTORE PUSH1 0x40 SWAP1 KECCAK256 SLOAD DUP2 CALLDATALOAD SWAP2 SWAP1 PUSH2 0x812 SWAP1 PUSH1 0xFF AND PUSH2 0x15AF JUMP JUMPDEST PUSH2 0x81B DUP3 PUSH2 0x1CBB JUMP JUMPDEST PUSH8 0xFFFFFFFFFFFFFFFF DUP3 DUP3 ADD SLOAD PUSH1 0x40 SHR AND TIMESTAMP LT DUP1 ISZERO SWAP1 PUSH2 0x8D4 JUMPI JUMPDEST ISZERO PUSH2 0x89A JUMPI PUSH1 0x3 DUP2 ADD SLOAD SWAP1 SLOAD GT PUSH2 0x851 JUMPI POP PUSH2 0x500 SWAP1 PUSH2 0x15F0 JUMP JUMPDEST PUSH1 0x0 DUP3 DUP2 MSTORE PUSH1 0x2 PUSH1 0x20 MSTORE PUSH1 0x40 DUP2 KECCAK256 SWAP2 SWAP1 SWAP2 ADD DUP1 SLOAD PUSH1 0xFF PUSH1 0x80 SHL NOT AND PUSH1 0x1 PUSH1 0x82 SHL OR SWAP1 SSTORE PUSH32 0x219277BECDFE34DA60667FBA55BE656EAAD5448B30203FB7D68E493132AFD664 SWAP1 DUP1 LOG2 STOP JUMPDEST PUSH1 0x40 MLOAD PUSH3 0x461BCD PUSH1 0xE5 SHL DUP2 MSTORE PUSH1 0x20 DUP2 DUP5 ADD MSTORE PUSH1 0x13 PUSH1 0x24 DUP3 ADD MSTORE PUSH19 0x27A32322A924A7239D29AA24A6262FA7A822A7 PUSH1 0x69 SHL PUSH1 0x44 DUP3 ADD MSTORE PUSH1 0x64 SWAP1 REVERT JUMPDEST POP PUSH1 0x3 DUP2 ADD SLOAD DUP2 SLOAD GT ISZERO PUSH2 0x836 JUMP JUMPDEST CALLVALUE PUSH2 0x143 JUMPI PUSH1 0x20 DUP1 PUSH1 0x3 NOT CALLDATASIZE ADD SLT PUSH2 0x143 JUMPI DUP2 CALLDATALOAD PUSH32 0x97667070C54EF182B0F5858B034BEAC1B6F3089AA2D3188BB1E8929F4FA9B929 PUSH1 0x0 MSTORE PUSH1 0x0 DUP3 MSTORE PUSH1 0x40 PUSH1 0x0 KECCAK256 CALLER PUSH1 0x0 MSTORE DUP3 MSTORE PUSH2 0x93B PUSH1 0xFF PUSH1 0x40 PUSH1 0x0 KECCAK256 SLOAD AND PUSH2 0x15AF JUMP JUMPDEST PUSH2 0x943 PUSH2 0x1559 JUMP JUMPDEST DUP1 PUSH1 0x0 MSTORE PUSH1 0x2 SWAP1 DUP2 DUP4 MSTORE PUSH1 0xFF DUP5 PUSH1 0x40 PUSH1 0x0 KECCAK256 ADD SLOAD PUSH1 0x80 SHR AND PUSH1 0x5 DUP2 LT ISZERO PUSH2 0xB32 JUMPI DUP5 SUB PUSH2 0xAF8 JUMPI PUSH1 0x0 DUP2 DUP2 MSTORE PUSH1 0x3 DUP5 MSTORE PUSH1 0x40 DUP2 KECCAK256 SWAP3 SWAP4 PUSH1 0x1 PUSH1 0x1 PUSH1 0xA0 SHL SUB SWAP2 PUSH32 0x0 DUP4 AND SWAP1 JUMPDEST DUP6 SLOAD DUP2 LT ISZERO PUSH2 0xA83 JUMPI DUP4 PUSH2 0x9BB DUP3 DUP9 PUSH2 0x153D JUMP JUMPDEST POP SLOAD AND SWAP1 PUSH2 0x9C9 DUP2 DUP9 PUSH2 0x153D JUMP JUMPDEST POP PUSH1 0x1 SWAP1 DUP2 ADD SLOAD PUSH1 0x40 DUP1 MLOAD PUSH4 0xA9059CBB PUSH1 0xE0 SHL DUP2 MSTORE PUSH1 0x1 PUSH1 0x1 PUSH1 0xA0 SHL SUB SWAP1 SWAP6 AND DUP6 DUP14 ADD SWAP1 DUP2 MSTORE PUSH1 0x20 DUP2 ADD SWAP3 SWAP1 SWAP3 MSTORE DUP7 SWAP2 DUP6 SWAP2 DUP3 SWAP2 ADD SUB DUP2 PUSH1 0x0 DUP9 GAS CALL SWAP3 DUP4 ISZERO PUSH2 0x3F2 JUMPI PUSH2 0xA61 SWAP4 PUSH2 0xA66 JUMPI JUMPDEST POP DUP7 PUSH32 0x7CA5472B7EA78C2C0141C5A12EE6D170CF4CE8ED06BE3D22C8252DDFC7A6A2C4 DUP7 DUP9 PUSH2 0xA44 DUP7 DUP14 PUSH2 0x153D JUMP JUMPDEST POP SLOAD AND SWAP4 PUSH2 0xA52 DUP7 DUP14 PUSH2 0x153D JUMP JUMPDEST POP ADD SLOAD PUSH1 0x40 MLOAD SWAP1 DUP2 MSTORE LOG3 PUSH2 0x1500 JUMP JUMPDEST PUSH2 0x9A7 JUMP JUMPDEST PUSH2 0xA7C SWAP1 DUP7 RETURNDATASIZE DUP9 GT PUSH2 0x3EB JUMPI PUSH2 0x3DC DUP2 DUP4 PUSH2 0x1443 JUMP JUMPDEST POP DUP11 PUSH2 0xA15 JUMP JUMPDEST DUP7 DUP9 DUP5 DUP8 PUSH1 0x0 MSTORE PUSH1 0x3 DUP2 MSTORE PUSH1 0x40 PUSH1 0x0 KECCAK256 DUP1 SLOAD SWAP3 PUSH1 0x0 DUP3 SSTORE DUP4 PUSH2 0xAA5 JUMPI PUSH1 0x1 DUP1 SSTORE STOP JUMPDEST PUSH1 0x1 PUSH1 0x1 PUSH1 0xFF SHL SUB DUP5 AND DUP5 SUB PUSH2 0xAE3 JUMPI POP PUSH1 0x0 MSTORE PUSH1 0x0 KECCAK256 SWAP1 PUSH1 0x1 SWAP1 DUP2 SHL DUP3 ADD SWAP2 JUMPDEST DUP3 DUP2 LT PUSH2 0xAD3 JUMPI DUP1 PUSH2 0x362 JUMP JUMPDEST PUSH1 0x0 DUP1 DUP3 SSTORE DUP3 DUP3 ADD SSTORE DUP4 ADD PUSH2 0xAC6 JUMP JUMPDEST PUSH1 0x11 SWAP1 PUSH4 0x4E487B71 PUSH1 0xE0 SHL PUSH1 0x0 MSTORE MSTORE PUSH1 0x24 PUSH1 0x0 REVERT JUMPDEST PUSH1 0x40 MLOAD PUSH3 0x461BCD PUSH1 0xE5 SHL DUP2 MSTORE DUP1 DUP6 ADD DUP5 SWAP1 MSTORE PUSH1 0x13 PUSH1 0x24 DUP3 ADD MSTORE PUSH19 0x13D1919154925391CE9393D517D19052531151 PUSH1 0x6A SHL PUSH1 0x44 DUP3 ADD MSTORE PUSH1 0x64 SWAP1 REVERT JUMPDEST PUSH1 0x21 DUP6 PUSH4 0x4E487B71 PUSH1 0xE0 SHL PUSH1 0x0 MSTORE MSTORE PUSH1 0x24 PUSH1 0x0 REVERT JUMPDEST CALLVALUE PUSH2 0x143 JUMPI PUSH2 0xB55 CALLDATASIZE PUSH2 0x1068 JUMP JUMPDEST SWAP1 PUSH1 0x0 MSTORE PUSH1 0x0 PUSH1 0x20 MSTORE PUSH1 0x40 PUSH1 0x0 KECCAK256 SWAP1 PUSH1 0x1 DUP1 PUSH1 0xA0 SHL SUB AND PUSH1 0x0 MSTORE PUSH1 0x20 MSTORE PUSH1 0x20 PUSH1 0xFF PUSH1 0x40 PUSH1 0x0 KECCAK256 SLOAD AND PUSH1 0x40 MLOAD SWAP1 ISZERO ISZERO DUP2 MSTORE RETURN JUMPDEST CALLVALUE PUSH2 0x143 JUMPI PUSH1 0x0 CALLDATASIZE PUSH1 0x3 NOT ADD SLT PUSH2 0x143 JUMPI PUSH1 0x20 PUSH1 0x40 MLOAD PUSH32 0x114E74F6EA3BD819998F78687BFCB11B140DA08E9B7D222FA9C1F1BA1F2AA122 DUP2 MSTORE RETURN JUMPDEST CALLVALUE PUSH2 0x143 JUMPI PUSH1 0x0 CALLDATASIZE PUSH1 0x3 NOT ADD SLT PUSH2 0x143 JUMPI PUSH1 0x20 PUSH1 0x40 MLOAD PUSH32 0x2FDAC322EE704CE09F0773F7F3F92EB98D5E7C836EE9C056CCCD5F61041E5E3F DUP2 MSTORE RETURN JUMPDEST CALLVALUE PUSH2 0x143 JUMPI PUSH1 0x0 CALLDATASIZE PUSH1 0x3 NOT ADD SLT PUSH2 0x143 JUMPI PUSH1 0x40 MLOAD PUSH32 0x0 PUSH1 0x1 PUSH1 0x1 PUSH1 0xA0 SHL SUB AND DUP2 MSTORE PUSH1 0x20 SWAP1 RETURN JUMPDEST CALLVALUE PUSH2 0x143 JUMPI PUSH1 0x0 CALLDATASIZE PUSH1 0x3 NOT ADD SLT PUSH2 0x143 JUMPI PUSH1 0x40 MLOAD PUSH32 0x0 PUSH1 0x1 PUSH1 0x1 PUSH1 0xA0 SHL SUB AND DUP2 MSTORE PUSH1 0x20 SWAP1 RETURN JUMPDEST CALLVALUE PUSH2 0x143 JUMPI PUSH2 0xC95 CALLDATASIZE PUSH2 0x1068 JUMP JUMPDEST SWAP1 CALLER PUSH1 0x1 PUSH1 0x1 PUSH1 0xA0 SHL SUB DUP4 AND SUB PUSH2 0xCB0 JUMPI PUSH2 0x500 SWAP3 POP PUSH2 0x1465 JUMP JUMPDEST PUSH1 0x40 MLOAD PUSH3 0x461BCD PUSH1 0xE5 SHL DUP2 MSTORE PUSH1 0x20 DUP2 DUP6 ADD MSTORE PUSH1 0x2F PUSH1 0x24 DUP3 ADD MSTORE PUSH32 0x416363657373436F6E74726F6C3A2063616E206F6E6C792072656E6F756E6365 PUSH1 0x44 DUP3 ADD MSTORE PUSH15 0x103937B632B9903337B91039B2B633 PUSH1 0x89 SHL PUSH1 0x64 DUP3 ADD MSTORE PUSH1 0x84 SWAP1 REVERT JUMPDEST CALLVALUE PUSH2 0x143 JUMPI PUSH1 0x0 CALLDATASIZE PUSH1 0x3 NOT ADD SLT PUSH2 0x143 JUMPI PUSH1 0x40 MLOAD PUSH32 0x0 PUSH1 0x1 PUSH1 0x1 PUSH1 0xA0 SHL SUB AND DUP2 MSTORE PUSH1 0x20 SWAP1 RETURN JUMPDEST CALLVALUE PUSH2 0x143 JUMPI PUSH2 0xD5F CALLDATASIZE PUSH2 0x1068 JUMP JUMPDEST DUP2 PUSH1 0x0 MSTORE PUSH1 0x0 PUSH1 0x20 MSTORE PUSH2 0xD79 PUSH1 0x1 PUSH1 0x40 PUSH1 0x0 KECCAK256 ADD SLOAD PUSH2 0x108E JUMP JUMPDEST DUP2 PUSH1 0x0 MSTORE PUSH1 0x0 PUSH1 0x20 MSTORE PUSH1 0x40 PUSH1 0x0 KECCAK256 SWAP1 PUSH1 0x1 DUP1 PUSH1 0xA0 SHL SUB AND SWAP1 DUP2 PUSH1 0x0 MSTORE PUSH1 0x20 MSTORE PUSH1 0xFF PUSH1 0x40 PUSH1 0x0 KECCAK256 SLOAD AND ISZERO PUSH2 0xDA8 JUMPI STOP JUMPDEST DUP2 PUSH1 0x0 MSTORE PUSH1 0x0 PUSH1 0x20 MSTORE PUSH1 0x40 PUSH1 0x0 KECCAK256 DUP2 PUSH1 0x0 MSTORE PUSH1 0x20 MSTORE PUSH1 0x40 PUSH1 0x0 KECCAK256 PUSH1 0x1 PUSH1 0xFF NOT DUP3 SLOAD AND OR SWAP1 SSTORE CALLER SWAP2 PUSH32 0x2F8788117E7EFF1D82E926EC794901D17C78024A50270940304540A733656F0D PUSH1 0x0 DUP1 LOG4 STOP JUMPDEST CALLVALUE PUSH2 0x143 JUMPI PUSH1 0x20 CALLDATASIZE PUSH1 0x3 NOT ADD SLT PUSH2 0x143 JUMPI PUSH1 0x0 PUSH2 0x120 PUSH1 0x40 MLOAD PUSH2 0xE18 DUP2 PUSH2 0x13FC JUMP JUMPDEST DUP3 DUP2 MSTORE DUP3 PUSH1 0x20 DUP3 ADD MSTORE DUP3 PUSH1 0x40 DUP3 ADD MSTORE DUP3 PUSH1 0x60 DUP3 ADD MSTORE DUP3 PUSH1 0x80 DUP3 ADD MSTORE DUP3 PUSH1 0xA0 DUP3 ADD MSTORE DUP3 PUSH1 0xC0 DUP3 ADD MSTORE DUP3 PUSH1 0xE0 DUP3 ADD MSTORE DUP3 PUSH2 0x100 DUP3 ADD MSTORE ADD MSTORE DUP1 CALLDATALOAD PUSH1 0x0 MSTORE PUSH1 0x2 PUSH1 0x20 MSTORE PUSH1 0x40 PUSH1 0x0 KECCAK256 SWAP1 PUSH1 0x40 MLOAD SWAP2 PUSH2 0xE6B DUP4 PUSH2 0x13FC JUMP JUMPDEST DUP1 SLOAD DUP4 MSTORE PUSH1 0x1 DUP2 ADD SLOAD PUSH1 0x20 DUP5 ADD MSTORE PUSH1 0x2 DUP2 ADD SLOAD PUSH1 0x40 DUP5 ADD MSTORE PUSH1 0x3 DUP2 ADD SLOAD PUSH1 0x60 DUP5 ADD MSTORE PUSH1 0xFF DUP3 DUP3 ADD SLOAD PUSH8 0xFFFFFFFFFFFFFFFF DUP2 AND PUSH1 0x80 DUP7 ADD MSTORE PUSH8 0xFFFFFFFFFFFFFFFF DUP2 PUSH1 0x40 SHR AND PUSH1 0xA0 DUP7 ADD MSTORE PUSH1 0x80 SHR AND PUSH1 0x5 DUP2 LT ISZERO PUSH2 0xF99 JUMPI SWAP1 PUSH1 0x7 SWAP2 PUSH1 0xC0 DUP6 ADD MSTORE PUSH1 0x5 DUP2 ADD SLOAD PUSH1 0xE0 DUP6 ADD MSTORE PUSH1 0x1 DUP1 PUSH1 0xA0 SHL SUB PUSH1 0x6 DUP3 ADD SLOAD AND PUSH2 0x100 DUP6 ADD MSTORE ADD SLOAD PUSH2 0x120 DUP4 ADD MSTORE PUSH1 0x40 MLOAD SWAP1 DUP3 MLOAD DUP3 MSTORE PUSH1 0x20 DUP4 ADD MLOAD PUSH1 0x20 DUP4 ADD MSTORE PUSH1 0x40 DUP4 ADD MLOAD PUSH1 0x40 DUP4 ADD MSTORE PUSH1 0x60 DUP4 ADD MLOAD PUSH1 0x60 DUP4 ADD MSTORE PUSH8 0xFFFFFFFFFFFFFFFF PUSH1 0x80 DUP5 ADD MLOAD AND PUSH1 0x80 DUP4 ADD MSTORE PUSH8 0xFFFFFFFFFFFFFFFF PUSH1 0xA0 DUP5 ADD MLOAD AND PUSH1 0xA0 DUP4 ADD MSTORE PUSH1 0xC0 DUP4 ADD MLOAD SWAP1 PUSH1 0x5 DUP3 LT ISZERO PUSH2 0xF84 JUMPI POP PUSH2 0x140 SWAP3 PUSH2 0x120 SWAP2 PUSH1 0xC0 DUP5 ADD MSTORE PUSH1 0xE0 DUP2 ADD MLOAD PUSH1 0xE0 DUP5 ADD MSTORE PUSH1 0x1 DUP1 PUSH1 0xA0 SHL SUB PUSH2 0x100 DUP3 ADD MLOAD AND PUSH2 0x100 DUP5 ADD MSTORE ADD MLOAD PUSH2 0x120 DUP3 ADD MSTORE RETURN JUMPDEST PUSH1 0x21 SWAP1 PUSH4 0x4E487B71 PUSH1 0xE0 SHL PUSH1 0x0 MSTORE MSTORE PUSH1 0x24 PUSH1 0x0 REVERT JUMPDEST PUSH1 0x21 DUP4 PUSH4 0x4E487B71 PUSH1 0xE0 SHL PUSH1 0x0 MSTORE MSTORE PUSH1 0x24 PUSH1 0x0 REVERT JUMPDEST CALLVALUE PUSH2 0x143 JUMPI PUSH1 0x20 CALLDATASIZE PUSH1 0x3 NOT ADD SLT PUSH2 0x143 JUMPI CALLDATALOAD PUSH1 0x0 MSTORE PUSH1 0x0 PUSH1 0x20 MSTORE PUSH1 0x20 PUSH1 0x1 PUSH1 0x40 PUSH1 0x0 KECCAK256 ADD SLOAD PUSH1 0x40 MLOAD SWAP1 DUP2 MSTORE RETURN JUMPDEST CALLVALUE PUSH2 0x143 JUMPI PUSH1 0x0 CALLDATASIZE PUSH1 0x3 NOT ADD SLT PUSH2 0x143 JUMPI PUSH1 0x20 PUSH1 0x40 MLOAD PUSH32 0x68E79A7BF1E0BC45D0A330C573BC367F9CF464FD326078812F301165FBDA4EF1 DUP2 MSTORE RETURN JUMPDEST SWAP1 CALLVALUE PUSH2 0x143 JUMPI PUSH1 0x20 CALLDATASIZE PUSH1 0x3 NOT ADD SLT PUSH2 0x143 JUMPI CALLDATALOAD SWAP1 PUSH4 0xFFFFFFFF PUSH1 0xE0 SHL DUP3 AND DUP1 SWAP3 SUB PUSH2 0x143 JUMPI PUSH1 0x20 SWAP2 PUSH4 0x7965DB0B PUSH1 0xE0 SHL DUP2 EQ SWAP1 DUP2 ISZERO PUSH2 0x1057 JUMPI JUMPDEST POP ISZERO ISZERO DUP2 MSTORE RETURN JUMPDEST PUSH4 0x1FFC9A7 PUSH1 0xE0 SHL EQ SWAP1 POP DUP4 PUSH2 0x1050 JUMP JUMPDEST PUSH1 0x40 SWAP1 PUSH1 0x3 NOT ADD SLT PUSH2 0x143 JUMPI PUSH1 0x4 CALLDATALOAD SWAP1 PUSH1 0x24 CALLDATALOAD PUSH1 0x1 PUSH1 0x1 PUSH1 0xA0 SHL SUB DUP2 AND DUP2 SUB PUSH2 0x143 JUMPI SWAP1 JUMP JUMPDEST PUSH1 0x0 SWAP1 DUP1 DUP3 MSTORE PUSH1 0x20 SWAP1 DUP3 DUP3 MSTORE PUSH1 0x40 SWAP1 DUP2 DUP5 KECCAK256 CALLER DUP6 MSTORE DUP4 MSTORE PUSH1 0xFF DUP3 DUP6 KECCAK256 SLOAD AND ISZERO PUSH2 0x10B7 JUMPI POP POP POP POP JUMP JUMPDEST DUP2 MLOAD SWAP4 PUSH8 0xFFFFFFFFFFFFFFFF CALLER PUSH1 0x60 DUP8 ADD DUP3 DUP2 GT DUP9 DUP3 LT OR PUSH2 0x13C5 JUMPI DUP6 MSTORE PUSH1 0x2A DUP8 MSTORE DUP6 DUP8 ADD SWAP4 DUP6 CALLDATASIZE DUP7 CALLDATACOPY DUP8 MLOAD ISZERO PUSH2 0x13B1 JUMPI PUSH1 0x30 DUP6 MSTORE8 DUP8 MLOAD SWAP2 PUSH1 0x1 SWAP3 DUP4 LT ISZERO PUSH2 0x139D JUMPI PUSH1 0x78 PUSH1 0x21 DUP11 ADD MSTORE8 PUSH1 0x29 JUMPDEST DUP4 DUP2 GT PUSH2 0x1333 JUMPI POP PUSH2 0x12F1 JUMPI SWAP1 DUP6 MLOAD SWAP3 PUSH1 0x80 DUP5 ADD SWAP1 DUP5 DUP3 LT SWAP1 DUP3 GT OR PUSH2 0x12DD JUMPI DUP7 MSTORE PUSH1 0x42 DUP4 MSTORE DUP7 DUP4 ADD SWAP4 PUSH1 0x60 CALLDATASIZE DUP7 CALLDATACOPY DUP4 MLOAD ISZERO PUSH2 0x12C9 JUMPI PUSH1 0x30 DUP6 MSTORE8 DUP4 MLOAD DUP3 LT ISZERO PUSH2 0x12C9 JUMPI SWAP1 PUSH1 0x78 PUSH1 0x21 DUP6 ADD MSTORE8 PUSH1 0x41 SWAP2 JUMPDEST DUP2 DUP4 GT PUSH2 0x125B JUMPI POP POP POP PUSH2 0x1219 JUMPI SWAP3 PUSH2 0x11E7 PUSH1 0x48 PUSH2 0x11D8 SWAP8 SWAP5 PUSH2 0x120B SWAP5 PUSH1 0x44 SWAP9 SWAP8 DUP6 MLOAD SWAP11 DUP12 SWAP4 PUSH2 0x11AF DUP12 DUP7 ADD SWAP11 PUSH32 0x416363657373436F6E74726F6C3A206163636F756E7420000000000000000000 DUP13 MSTORE MLOAD DUP1 SWAP3 PUSH1 0x37 DUP9 ADD SWAP1 PUSH2 0x13D9 JUMP JUMPDEST DUP5 ADD SWAP2 PUSH17 0x1034B99036B4B9B9B4B733903937B6329 PUSH1 0x7D SHL PUSH1 0x37 DUP5 ADD MSTORE MLOAD DUP1 SWAP4 DUP7 DUP5 ADD SWAP1 PUSH2 0x13D9 JUMP JUMPDEST ADD SUB PUSH1 0x28 DUP2 ADD DUP10 MSTORE ADD DUP8 PUSH2 0x1443 JUMP JUMPDEST MLOAD SWAP5 DUP6 SWAP4 PUSH3 0x461BCD PUSH1 0xE5 SHL DUP6 MSTORE PUSH1 0x4 DUP6 ADD MSTORE MLOAD DUP1 SWAP3 DUP2 PUSH1 0x24 DUP7 ADD MSTORE DUP6 DUP6 ADD SWAP1 PUSH2 0x13D9 JUMP JUMPDEST PUSH1 0x1F ADD PUSH1 0x1F NOT AND DUP2 ADD SUB ADD SWAP1 REVERT JUMPDEST PUSH1 0x64 DUP6 DUP6 MLOAD SWAP1 PUSH3 0x461BCD PUSH1 0xE5 SHL DUP3 MSTORE DUP1 PUSH1 0x4 DUP4 ADD MSTORE PUSH1 0x24 DUP3 ADD MSTORE PUSH32 0x537472696E67733A20686578206C656E67746820696E73756666696369656E74 PUSH1 0x44 DUP3 ADD MSTORE REVERT JUMPDEST SWAP1 SWAP2 SWAP3 PUSH1 0xF DUP2 AND PUSH1 0x10 DUP2 LT ISZERO PUSH2 0x12B5 JUMPI PUSH16 0x181899199A1A9B1B9C1CB0B131B232B3 PUSH1 0x81 SHL SWAP1 BYTE PUSH2 0x128B DUP6 DUP8 PUSH2 0x14D9 JUMP JUMPDEST MSTORE8 PUSH1 0x4 SHR SWAP3 DUP1 ISZERO PUSH2 0x12A1 JUMPI PUSH1 0x0 NOT ADD SWAP2 SWAP1 PUSH2 0x1152 JUMP JUMPDEST PUSH4 0x4E487B71 PUSH1 0xE0 SHL DUP3 MSTORE PUSH1 0x11 PUSH1 0x4 MSTORE PUSH1 0x24 DUP3 REVERT JUMPDEST PUSH4 0x4E487B71 PUSH1 0xE0 SHL DUP4 MSTORE PUSH1 0x32 PUSH1 0x4 MSTORE PUSH1 0x24 DUP4 REVERT JUMPDEST PUSH4 0x4E487B71 PUSH1 0xE0 SHL DUP2 MSTORE PUSH1 0x32 PUSH1 0x4 MSTORE PUSH1 0x24 SWAP1 REVERT JUMPDEST PUSH4 0x4E487B71 PUSH1 0xE0 SHL DUP6 MSTORE PUSH1 0x41 PUSH1 0x4 MSTORE PUSH1 0x24 DUP6 REVERT JUMPDEST PUSH1 0x64 DUP8 DUP8 MLOAD SWAP1 PUSH3 0x461BCD PUSH1 0xE5 SHL DUP3 MSTORE DUP1 PUSH1 0x4 DUP4 ADD MSTORE PUSH1 0x24 DUP3 ADD MSTORE PUSH32 0x537472696E67733A20686578206C656E67746820696E73756666696369656E74 PUSH1 0x44 DUP3 ADD MSTORE REVERT JUMPDEST SWAP1 PUSH1 0xF DUP2 AND PUSH1 0x10 DUP2 LT ISZERO PUSH2 0x1389 JUMPI PUSH16 0x181899199A1A9B1B9C1CB0B131B232B3 PUSH1 0x81 SHL SWAP1 BYTE PUSH2 0x1361 DUP4 DUP13 PUSH2 0x14D9 JUMP JUMPDEST MSTORE8 PUSH1 0x4 SHR SWAP1 DUP1 ISZERO PUSH2 0x1375 JUMPI PUSH1 0x0 NOT ADD PUSH2 0x1103 JUMP JUMPDEST PUSH4 0x4E487B71 PUSH1 0xE0 SHL DUP7 MSTORE PUSH1 0x11 PUSH1 0x4 MSTORE PUSH1 0x24 DUP7 REVERT JUMPDEST PUSH4 0x4E487B71 PUSH1 0xE0 SHL DUP8 MSTORE PUSH1 0x32 PUSH1 0x4 MSTORE PUSH1 0x24 DUP8 REVERT JUMPDEST PUSH4 0x4E487B71 PUSH1 0xE0 SHL DUP6 MSTORE PUSH1 0x32 PUSH1 0x4 MSTORE PUSH1 0x24 DUP6 REVERT JUMPDEST PUSH4 0x4E487B71 PUSH1 0xE0 SHL DUP5 MSTORE PUSH1 0x32 PUSH1 0x4 MSTORE PUSH1 0x24 DUP5 REVERT JUMPDEST PUSH4 0x4E487B71 PUSH1 0xE0 SHL DUP5 MSTORE PUSH1 0x41 PUSH1 0x4 MSTORE PUSH1 0x24 DUP5 REVERT JUMPDEST PUSH1 0x0 JUMPDEST DUP4 DUP2 LT PUSH2 0x13EC JUMPI POP POP PUSH1 0x0 SWAP2 ADD MSTORE JUMP JUMPDEST DUP2 DUP2 ADD MLOAD DUP4 DUP3 ADD MSTORE PUSH1 0x20 ADD PUSH2 0x13DC JUMP JUMPDEST PUSH2 0x140 DUP2 ADD SWAP1 DUP2 LT PUSH8 0xFFFFFFFFFFFFFFFF DUP3 GT OR PUSH2 0x1419 JUMPI PUSH1 0x40 MSTORE JUMP JUMPDEST PUSH4 0x4E487B71 PUSH1 0xE0 SHL PUSH1 0x0 MSTORE PUSH1 0x41 PUSH1 0x4 MSTORE PUSH1 0x24 PUSH1 0x0 REVERT JUMPDEST PUSH8 0xFFFFFFFFFFFFFFFF DUP2 GT PUSH2 0x1419 JUMPI PUSH1 0x40 MSTORE JUMP JUMPDEST SWAP1 PUSH1 0x1F DUP1 NOT SWAP2 ADD AND DUP2 ADD SWAP1 DUP2 LT PUSH8 0xFFFFFFFFFFFFFFFF DUP3 GT OR PUSH2 0x1419 JUMPI PUSH1 0x40 MSTORE JUMP JUMPDEST SWAP1 PUSH1 0x0 SWAP2 DUP1 DUP4 MSTORE DUP3 PUSH1 0x20 MSTORE PUSH1 0x40 DUP4 KECCAK256 SWAP2 PUSH1 0x1 DUP1 PUSH1 0xA0 SHL SUB AND SWAP2 DUP3 DUP5 MSTORE PUSH1 0x20 MSTORE PUSH1 0xFF PUSH1 0x40 DUP5 KECCAK256 SLOAD AND PUSH2 0x1495 JUMPI POP POP POP JUMP JUMPDEST DUP1 DUP4 MSTORE DUP3 PUSH1 0x20 MSTORE PUSH1 0x40 DUP4 KECCAK256 DUP3 DUP5 MSTORE PUSH1 0x20 MSTORE PUSH1 0x40 DUP4 KECCAK256 PUSH1 0xFF NOT DUP2 SLOAD AND SWAP1 SSTORE PUSH32 0xF6391F5C32D9C69D2A47EA670B442974B53935D1EDC7FD64EB21E047A839171B CALLER SWAP4 DUP1 LOG4 JUMP JUMPDEST SWAP1 DUP2 MLOAD DUP2 LT ISZERO PUSH2 0x14EA JUMPI ADD PUSH1 0x20 ADD SWAP1 JUMP JUMPDEST PUSH4 0x4E487B71 PUSH1 0xE0 SHL PUSH1 0x0 MSTORE PUSH1 0x32 PUSH1 0x4 MSTORE PUSH1 0x24 PUSH1 0x0 REVERT JUMPDEST PUSH1 0x0 NOT DUP2 EQ PUSH2 0x150F JUMPI PUSH1 0x1 ADD SWAP1 JUMP JUMPDEST PUSH4 0x4E487B71 PUSH1 0xE0 SHL PUSH1 0x0 MSTORE PUSH1 0x11 PUSH1 0x4 MSTORE PUSH1 0x24 PUSH1 0x0 REVERT JUMPDEST SWAP1 DUP2 PUSH1 0x20 SWAP2 SUB SLT PUSH2 0x143 JUMPI MLOAD DUP1 ISZERO ISZERO DUP2 SUB PUSH2 0x143 JUMPI SWAP1 JUMP JUMPDEST DUP1 SLOAD DUP3 LT ISZERO PUSH2 0x14EA JUMPI PUSH1 0x0 MSTORE PUSH1 0x20 PUSH1 0x0 KECCAK256 SWAP1 PUSH1 0x1 SHL ADD SWAP1 PUSH1 0x0 SWAP1 JUMP JUMPDEST PUSH1 0x2 PUSH1 0x1 SLOAD EQ PUSH2 0x156A JUMPI PUSH1 0x2 PUSH1 0x1 SSTORE JUMP JUMPDEST PUSH1 0x40 MLOAD PUSH3 0x461BCD PUSH1 0xE5 SHL DUP2 MSTORE PUSH1 0x20 PUSH1 0x4 DUP3 ADD MSTORE PUSH1 0x1F PUSH1 0x24 DUP3 ADD MSTORE PUSH32 0x5265656E7472616E637947756172643A207265656E7472616E742063616C6C00 PUSH1 0x44 DUP3 ADD MSTORE PUSH1 0x64 SWAP1 REVERT JUMPDEST ISZERO PUSH2 0x15B6 JUMPI JUMP JUMPDEST PUSH1 0x40 MLOAD PUSH3 0x461BCD PUSH1 0xE5 SHL DUP2 MSTORE PUSH1 0x20 PUSH1 0x4 DUP3 ADD MSTORE PUSH1 0x12 PUSH1 0x24 DUP3 ADD MSTORE PUSH18 0x524F4C453A4F50455241544F525F4F4E4C59 PUSH1 0x70 SHL PUSH1 0x44 DUP3 ADD MSTORE PUSH1 0x64 SWAP1 REVERT JUMPDEST SWAP1 PUSH1 0x0 SWAP2 DUP1 DUP4 MSTORE PUSH1 0x2 PUSH1 0x20 MSTORE PUSH1 0x40 DUP4 KECCAK256 PUSH1 0x4 DUP2 ADD PUSH1 0x1 PUSH1 0x81 SHL PUSH1 0xFF PUSH1 0x80 SHL NOT DUP3 SLOAD AND OR SWAP1 SSTORE PUSH1 0x1 DUP1 PUSH1 0xA0 SHL SUB PUSH1 0x6 DUP3 ADD SLOAD AND SWAP3 PUSH1 0x7 DUP3 ADD SLOAD SWAP1 PUSH1 0x40 MLOAD SWAP2 PUSH4 0x31A9108F PUSH1 0xE1 SHL DUP4 MSTORE DUP1 PUSH1 0x4 DUP5 ADD MSTORE PUSH1 0x20 DUP4 PUSH1 0x24 DUP2 DUP10 GAS STATICCALL SWAP3 DUP4 ISZERO PUSH2 0x1CB0 JUMPI DUP8 SWAP4 PUSH2 0x1C68 JUMPI JUMPDEST POP PUSH1 0x3 DUP5 ADD SLOAD PUSH1 0x40 MLOAD PUSH4 0x334FF205 PUSH1 0xE2 SHL DUP2 MSTORE ADDRESS PUSH1 0x4 DUP3 ADD MSTORE PUSH1 0x1 PUSH1 0x1 PUSH1 0xA0 SHL SUB DUP6 DUP2 AND PUSH1 0x24 DUP4 ADD MSTORE PUSH1 0x44 DUP3 ADD SWAP3 SWAP1 SWAP3 MSTORE PUSH32 0x0 DUP3 AND PUSH1 0x64 DUP3 ADD MSTORE PUSH1 0x84 DUP2 ADD SWAP8 SWAP1 SWAP8 MSTORE PUSH1 0xA4 DUP8 ADD SWAP2 SWAP1 SWAP2 MSTORE PUSH1 0x20 SWAP1 DUP7 SWAP1 PUSH1 0xC4 SWAP1 DUP3 SWAP1 DUP11 SWAP1 PUSH32 0x0 AND GAS CALL SWAP5 DUP6 ISZERO PUSH2 0x1C5D JUMPI DUP7 SWAP6 PUSH2 0x1C25 JUMPI JUMPDEST POP PUSH1 0x5 DUP4 ADD DUP6 SWAP1 SSTORE PUSH1 0x3 DUP4 ADD SLOAD PUSH1 0x7 DUP5 ADD SLOAD PUSH1 0x40 MLOAD PUSH4 0x13F2DAD PUSH1 0xE4 SHL DUP2 MSTORE PUSH1 0x4 DUP2 ADD DUP3 SWAP1 MSTORE SWAP2 SWAP3 SWAP2 PUSH1 0x20 DUP2 PUSH1 0x24 DUP2 PUSH32 0x0 PUSH1 0x1 PUSH1 0x1 PUSH1 0xA0 SHL SUB AND GAS STATICCALL SWAP1 DUP2 ISZERO PUSH2 0x1C1A JUMPI DUP10 SWAP2 PUSH2 0x1BE8 JUMPI JUMPDEST POP ISZERO PUSH2 0x1B3D JUMPI JUMPDEST POP DUP5 DUP8 MSTORE PUSH1 0x3 PUSH1 0x20 MSTORE PUSH1 0x40 DUP8 KECCAK256 SWAP5 DUP8 JUMPDEST DUP7 SLOAD DUP2 LT ISZERO PUSH2 0x18AB JUMPI PUSH1 0x1 PUSH2 0x1790 DUP3 DUP10 PUSH2 0x153D JUMP JUMPDEST POP ADD SLOAD DUP5 DUP2 DUP2 MUL DIV DUP2 EQ DUP6 ISZERO OR ISZERO PUSH2 0x150F JUMPI PUSH1 0x3 DUP8 ADD SLOAD DUP1 ISZERO PUSH2 0x1897 JUMPI SWAP1 DUP11 SWAP2 PUSH1 0x7 DUP10 ADD SLOAD SWAP2 PUSH2 0x17C0 DUP6 DUP13 PUSH2 0x153D JUMP JUMPDEST POP SLOAD PUSH1 0x1 PUSH1 0x1 PUSH1 0xA0 SHL SUB SWAP1 DUP2 AND SWAP1 PUSH32 0x0 AND EXTCODESIZE ISZERO PUSH2 0x1893 JUMPI PUSH1 0x40 MLOAD SWAP4 PUSH4 0x17AECEF1 PUSH1 0xE1 SHL DUP6 MSTORE PUSH1 0x4 DUP6 ADD MSTORE PUSH1 0x1 DUP1 PUSH1 0xA0 SHL SUB DUP11 AND PUSH1 0x24 DUP6 ADD MSTORE PUSH1 0x44 DUP5 ADD MSTORE DUP8 MUL DIV PUSH1 0x64 DUP3 ADD MSTORE DUP2 DUP2 PUSH1 0x84 DUP2 DUP4 PUSH1 0x1 DUP1 PUSH1 0xA0 SHL SUB PUSH32 0x0 AND GAS CALL DUP1 ISZERO PUSH2 0x1888 JUMPI PUSH2 0x1870 JUMPI JUMPDEST POP POP PUSH2 0x186B SWAP1 PUSH2 0x1500 JUMP JUMPDEST PUSH2 0x177B JUMP JUMPDEST PUSH2 0x1879 SWAP1 PUSH2 0x142F JUMP JUMPDEST PUSH2 0x1884 JUMPI DUP9 CODESIZE PUSH2 0x1860 JUMP JUMPDEST DUP9 DUP1 REVERT JUMPDEST PUSH1 0x40 MLOAD RETURNDATASIZE DUP5 DUP3 RETURNDATACOPY RETURNDATASIZE SWAP1 REVERT JUMPDEST DUP5 DUP1 REVERT JUMPDEST PUSH4 0x4E487B71 PUSH1 0xE0 SHL DUP12 MSTORE PUSH1 0x12 PUSH1 0x4 MSTORE PUSH1 0x24 DUP12 REVERT JUMPDEST POP SWAP1 SWAP7 SWAP1 SWAP6 SWAP4 SWAP5 POP SWAP3 SWAP2 POP POP PUSH32 0x0 PUSH1 0x1 PUSH1 0x1 PUSH1 0xA0 SHL SUB AND PUSH2 0x19C0 JUMPI PUSH1 0x3 DUP4 ADD SLOAD SWAP1 PUSH32 0x0 PUSH1 0x1 PUSH1 0x1 PUSH1 0xA0 SHL SUB AND EXTCODESIZE ISZERO PUSH2 0x19BC JUMPI PUSH1 0x40 MLOAD PUSH4 0x3B76594D PUSH1 0xE0 SHL DUP2 MSTORE PUSH1 0x4 DUP2 ADD SWAP2 SWAP1 SWAP2 MSTORE SWAP1 DUP3 SWAP1 DUP3 SWAP1 PUSH1 0x24 SWAP1 DUP3 SWAP1 PUSH32 0x0 PUSH1 0x1 PUSH1 0x1 PUSH1 0xA0 SHL SUB AND GAS CALL DUP1 ISZERO PUSH2 0x1888 JUMPI PUSH2 0x19A5 JUMPI JUMPDEST POP POP PUSH1 0x20 PUSH1 0x3 PUSH32 0xC566557CE4CB9AE8E7B1EBB1215C266FB3EF7B87E5A726107E9188FD256423FB SWAP3 JUMPDEST ADD SLOAD PUSH1 0x40 MLOAD SWAP1 DUP2 MSTORE LOG2 JUMP JUMPDEST PUSH2 0x19AF DUP3 SWAP2 PUSH2 0x142F JUMP JUMPDEST PUSH2 0x19B9 JUMPI DUP1 PUSH2 0x1971 JUMP JUMPDEST DUP1 REVERT JUMPDEST DUP3 DUP1 REVERT JUMPDEST PUSH1 0x3 DUP4 ADD SLOAD PUSH1 0x40 MLOAD PUSH4 0x95EA7B3 PUSH1 0xE0 SHL DUP2 MSTORE PUSH1 0x1 PUSH1 0x1 PUSH1 0xA0 SHL SUB PUSH32 0x0 AND PUSH1 0x4 DUP3 ADD MSTORE PUSH1 0x24 DUP2 ADD SWAP2 SWAP1 SWAP2 MSTORE PUSH1 0x20 DUP2 DUP1 PUSH1 0x44 DUP2 ADD SUB DUP2 DUP7 PUSH32 0x0 PUSH1 0x1 PUSH1 0x1 PUSH1 0xA0 SHL SUB AND GAS CALL DUP1 ISZERO PUSH2 0x1B32 JUMPI PUSH2 0x1B13 JUMPI JUMPDEST POP PUSH32 0x0 PUSH1 0x1 PUSH1 0x1 PUSH1 0xA0 SHL SUB AND EXTCODESIZE ISZERO PUSH2 0x1B0F JUMPI PUSH1 0x40 MLOAD PUSH4 0x3B76594D PUSH1 0xE0 SHL DUP2 MSTORE PUSH1 0x4 DUP2 ADD SWAP2 SWAP1 SWAP2 MSTORE DUP2 DUP2 PUSH1 0x24 DUP2 DUP4 PUSH32 0x0 PUSH1 0x1 PUSH1 0x1 PUSH1 0xA0 SHL SUB AND GAS CALL DUP1 ISZERO PUSH2 0x1888 JUMPI PUSH2 0x1AFB JUMPI JUMPDEST POP POP PUSH1 0x20 PUSH1 0x3 PUSH32 0xC566557CE4CB9AE8E7B1EBB1215C266FB3EF7B87E5A726107E9188FD256423FB SWAP3 PUSH2 0x199A JUMP JUMPDEST PUSH2 0x1B05 DUP3 SWAP2 PUSH2 0x142F JUMP JUMPDEST PUSH2 0x19B9 JUMPI DUP1 PUSH2 0x1ACE JUMP JUMPDEST POP DUP1 REVERT JUMPDEST PUSH2 0x1B2B SWAP1 PUSH1 0x20 RETURNDATASIZE PUSH1 0x20 GT PUSH2 0x3EB JUMPI PUSH2 0x3DC DUP2 DUP4 PUSH2 0x1443 JUMP JUMPDEST POP CODESIZE PUSH2 0x1A4B JUMP JUMPDEST PUSH1 0x40 MLOAD RETURNDATASIZE DUP6 DUP3 RETURNDATACOPY RETURNDATASIZE SWAP1 REVERT JUMPDEST PUSH32 0x0 PUSH1 0x1 PUSH1 0x1 PUSH1 0xA0 SHL SUB AND EXTCODESIZE ISZERO PUSH2 0x1BE4 JUMPI PUSH1 0x40 MLOAD PUSH4 0x61C37ED PUSH1 0xE1 SHL DUP2 MSTORE PUSH1 0x4 DUP2 ADD SWAP2 SWAP1 SWAP2 MSTORE PUSH1 0x24 DUP2 ADD DUP4 SWAP1 MSTORE DUP8 DUP2 PUSH1 0x44 DUP2 DUP4 PUSH32 0x0 PUSH1 0x1 PUSH1 0x1 PUSH1 0xA0 SHL SUB AND GAS CALL DUP1 ISZERO PUSH2 0x1BD9 JUMPI ISZERO PUSH2 0x176B JUMPI PUSH2 0x1BD2 SWAP1 SWAP8 SWAP2 SWAP8 PUSH2 0x142F JUMP JUMPDEST SWAP6 CODESIZE PUSH2 0x176B JUMP JUMPDEST PUSH1 0x40 MLOAD RETURNDATASIZE DUP11 DUP3 RETURNDATACOPY RETURNDATASIZE SWAP1 REVERT JUMPDEST DUP8 DUP1 REVERT JUMPDEST SWAP1 POP PUSH1 0x20 DUP2 RETURNDATASIZE PUSH1 0x20 GT PUSH2 0x1C12 JUMPI JUMPDEST DUP2 PUSH2 0x1C03 PUSH1 0x20 SWAP4 DUP4 PUSH2 0x1443 JUMP JUMPDEST DUP2 ADD SUB SLT PUSH2 0x1884 JUMPI MLOAD CODESIZE PUSH2 0x1764 JUMP JUMPDEST RETURNDATASIZE SWAP2 POP PUSH2 0x1BF6 JUMP JUMPDEST PUSH1 0x40 MLOAD RETURNDATASIZE DUP12 DUP3 RETURNDATACOPY RETURNDATASIZE SWAP1 REVERT JUMPDEST SWAP1 SWAP5 POP PUSH1 0x20 DUP2 RETURNDATASIZE PUSH1 0x20 GT PUSH2 0x1C55 JUMPI JUMPDEST DUP2 PUSH2 0x1C41 PUSH1 0x20 SWAP4 DUP4 PUSH2 0x1443 JUMP JUMPDEST DUP2 ADD SUB SLT PUSH2 0x1C51 JUMPI MLOAD SWAP4 CODESIZE PUSH2 0x16FB JUMP JUMPDEST DUP6 DUP1 REVERT JUMPDEST RETURNDATASIZE SWAP2 POP PUSH2 0x1C34 JUMP JUMPDEST PUSH1 0x40 MLOAD RETURNDATASIZE DUP9 DUP3 RETURNDATACOPY RETURNDATASIZE SWAP1 REVERT JUMPDEST SWAP1 SWAP3 POP PUSH1 0x20 DUP2 RETURNDATASIZE PUSH1 0x20 GT PUSH2 0x1CA8 JUMPI JUMPDEST DUP2 PUSH2 0x1C84 PUSH1 0x20 SWAP4 DUP4 PUSH2 0x1443 JUMP JUMPDEST DUP2 ADD SUB SLT PUSH2 0x1CA4 JUMPI MLOAD PUSH1 0x1 PUSH1 0x1 PUSH1 0xA0 SHL SUB DUP2 AND DUP2 SUB PUSH2 0x1CA4 JUMPI SWAP2 CODESIZE PUSH2 0x1654 JUMP JUMPDEST DUP7 DUP1 REVERT JUMPDEST RETURNDATASIZE SWAP2 POP PUSH2 0x1C77 JUMP JUMPDEST PUSH1 0x40 MLOAD RETURNDATASIZE DUP10 DUP3 RETURNDATACOPY RETURNDATASIZE SWAP1 REVERT JUMPDEST PUSH1 0x0 MSTORE PUSH1 0x2 PUSH1 0x20 MSTORE PUSH1 0x40 PUSH1 0x0 KECCAK256 PUSH1 0xFF PUSH1 0x4 DUP3 ADD SLOAD PUSH1 0x80 SHR AND PUSH1 0x5 DUP2 LT ISZERO PUSH2 0x1D21 JUMPI PUSH1 0x1 SUB PUSH2 0x1CE6 JUMPI SWAP1 JUMP JUMPDEST PUSH1 0x40 MLOAD PUSH3 0x461BCD PUSH1 0xE5 SHL DUP2 MSTORE PUSH1 0x20 PUSH1 0x4 DUP3 ADD MSTORE PUSH1 0x13 PUSH1 0x24 DUP3 ADD MSTORE PUSH19 0x4F46464552494E473A4E4F545F414354495645 PUSH1 0x68 SHL PUSH1 0x44 DUP3 ADD MSTORE PUSH1 0x64 SWAP1 REVERT JUMPDEST PUSH4 0x4E487B71 PUSH1 0xE0 SHL PUSH1 0x0 MSTORE PUSH1 0x21 PUSH1 0x4 MSTORE PUSH1 0x24 PUSH1 0x0 REVERT INVALID LOG2 PUSH5 0x6970667358 0x22 SLT KECCAK256 0xE9 0xA5 0x1E 0x5E 0x27 0x4C DUP2 SWAP14 PC 0x1E CREATE2 SWAP2 0xA5 0xC2 PUSH27 0x7B48410BAFEB3B66E2597040D2FA6B1C8E64736F6C634300081400 CALLER "},"methodIdentifiers":{"DEFAULT_ADMIN_ROLE()":"a217fddf","ESCROW_ROLE()":"6ce76f30","GOVERNANCE_ROLE()":"f36c8f5c","ISSUER_ROLE()":"82aefa24","OPERATOR_ROLE()":"f5b541a6","ORACLE_ROLE()":"07e2cea5","closeOffering(uint256)":"a1d4646f","complianceOracle()":"410239bf","createOffering(uint256,uint256,uint256,uint64,uint256)":"a9cec534","escrowManager()":"c12255c4","getOffering(uint256)":"2b132030","getRoleAdmin(bytes32)":"248a9ca3","grantRole(bytes32,address)":"2f2ff15d","hasRole(bytes32,address)":"91d14854","invest(uint256,uint256)":"d87aa643","paymentToken()":"3013ce29","propertyToken()":"43ae2695","refundInvestors(uint256)":"9ee987b2","renounceRole(bytes32,address)":"36568abe","revokeRole(bytes32,address)":"d547741f","supportsInterface(bytes4)":"01ffc9a7"}}}}}