{"contracts/oracle/ComplianceOracle.sol":{"ComplianceOracle":{"abi":[{"inputs":[{"internalType":"address","name":"admin","type":"address"}],"stateMutability":"nonpayable","type":"constructor"},{"anonymous":false,"inputs":[{"indexed":true,"internalType":"address","name":"user","type":"address"},{"indexed":false,"internalType":"bool","name":"passed","type":"bool"},{"indexed":false,"internalType":"uint64","name":"timestamp","type":"uint64"}],"name":"KYCVerified","type":"event"},{"anonymous":false,"inputs":[{"indexed":true,"internalType":"uint256","name":"propertyId","type":"uint256"},{"indexed":false,"internalType":"bool","name":"cleared","type":"bool"},{"indexed":false,"internalType":"uint64","name":"timestamp","type":"uint64"}],"name":"MunicipalCleared","type":"event"},{"anonymous":false,"inputs":[{"indexed":true,"internalType":"bytes32","name":"role","type":"bytes32"},{"indexed":true,"internalType":"bytes32","name":"previousAdminRole","type":"bytes32"},{"indexed":true,"internalType":"bytes32","name":"newAdminRole","type":"bytes32"}],"name":"RoleAdminChanged","type":"event"},{"anonymous":false,"inputs":[{"indexed":true,"internalType":"bytes32","name":"role","type":"bytes32"},{"indexed":true,"internalType":"address","name":"account","type":"address"},{"indexed":true,"internalType":"address","name":"sender","type":"address"}],"name":"RoleGranted","type":"event"},{"anonymous":false,"inputs":[{"indexed":true,"internalType":"bytes32","name":"role","type":"bytes32"},{"indexed":true,"internalType":"address","name":"account","type":"address"},{"indexed":true,"internalType":"address","name":"sender","type":"address"}],"name":"RoleRevoked","type":"event"},{"inputs":[],"name":"DEFAULT_ADMIN_ROLE","outputs":[{"internalType":"bytes32","name":"","type":"bytes32"}],"stateMutability":"view","type":"function"},{"inputs":[],"name":"ESCROW_ROLE","outputs":[{"internalType":"bytes32","name":"","type":"bytes32"}],"stateMutability":"view","type":"function"},{"inputs":[],"name":"GOVERNANCE_ROLE","outputs":[{"internalType":"bytes32","name":"","type":"bytes32"}],"stateMutability":"view","type":"function"},{"inputs":[],"name":"ISSUER_ROLE","outputs":[{"internalType":"bytes32","name":"","type":"bytes32"}],"stateMutability":"view","type":"function"},{"inputs":[],"name":"OPERATOR_ROLE","outputs":[{"internalType":"bytes32","name":"","type":"bytes32"}],"stateMutability":"view","type":"function"},{"inputs":[],"name":"ORACLE_ROLE","outputs":[{"internalType":"bytes32","name":"","type":"bytes32"}],"stateMutability":"view","type":"function"},{"inputs":[{"internalType":"address","name":"user","type":"address"}],"name":"getComplianceStatus","outputs":[{"internalType":"bool","name":"passed","type":"bool"},{"internalType":"uint64","name":"updatedAt","type":"uint64"}],"stateMutability":"view","type":"function"},{"inputs":[{"internalType":"uint256","name":"propertyId","type":"uint256"}],"name":"getMunicipalStatus","outputs":[{"internalType":"bool","name":"cleared","type":"bool"},{"internalType":"uint64","name":"updatedAt","type":"uint64"}],"stateMutability":"view","type":"function"},{"inputs":[{"internalType":"bytes32","name":"role","type":"bytes32"}],"name":"getRoleAdmin","outputs":[{"internalType":"bytes32","name":"","type":"bytes32"}],"stateMutability":"view","type":"function"},{"inputs":[{"internalType":"bytes32","name":"role","type":"bytes32"},{"internalType":"address","name":"account","type":"address"}],"name":"grantRole","outputs":[],"stateMutability":"nonpayable","type":"function"},{"inputs":[{"internalType":"bytes32","name":"role","type":"bytes32"},{"internalType":"address","name":"account","type":"address"}],"name":"hasRole","outputs":[{"internalType":"bool","name":"","type":"bool"}],"stateMutability":"view","type":"function"},{"inputs":[{"internalType":"address","name":"user","type":"address"},{"internalType":"uint256","name":"propertyId","type":"uint256"}],"name":"isCompliant","outputs":[{"internalType":"bool","name":"","type":"bool"}],"stateMutability":"view","type":"function"},{"inputs":[{"internalType":"bytes32","name":"role","type":"bytes32"},{"internalType":"address","name":"account","type":"address"}],"name":"renounceRole","outputs":[],"stateMutability":"nonpayable","type":"function"},{"inputs":[{"internalType":"bytes32","name":"role","type":"bytes32"},{"internalType":"address","name":"account","type":"address"}],"name":"revokeRole","outputs":[],"stateMutability":"nonpayable","type":"function"},{"inputs":[{"internalType":"address","name":"user","type":"address"},{"internalType":"bool","name":"passed","type":"bool"}],"name":"setComplianceStatus","outputs":[],"stateMutability":"nonpayable","type":"function"},{"inputs":[{"internalType":"bytes4","name":"interfaceId","type":"bytes4"}],"name":"supportsInterface","outputs":[{"internalType":"bool","name":"","type":"bool"}],"stateMutability":"view","type":"function"},{"inputs":[{"internalType":"uint256","name":"propertyId","type":"uint256"},{"internalType":"bool","name":"cleared","type":"bool"}],"name":"updateMunicipalClearance","outputs":[],"stateMutability":"nonpayable","type":"function"}],"evm":{"bytecode":{"linkReferences":{},"object":"6080346101f757601f610e7738819003918201601f1916830192916001600160401b038411838510176101fc57808392604095865283396020928391810103126101f757516001600160a01b03811691908290036101f757600091828052828252838320818452825260ff8484205416156101ae575b50817f97667070c54ef182b0f5858b034beac1b6f3089aa2d3188bb1e8929f4fa9b92991828252528160018482200181815491557fbd79b86ffe0ab8e8776151514217cd7cacd52c909f66475c3af44e129f0b00ff92838380a4817f2fdac322ee704ce09f0773f7f3f92eb98d5e7c836ee9c056cccd5f61041e5e3f808252600185832001908282549255838380a4817f68e79a7bf1e0bc45d0a330c573bc367f9cf464fd326078812f301165fbda4ef1808252600185832001908282549255838380a4817f114e74f6ea3bd819998f78687bfcb11b140da08e9b7d222fa9c1f1ba1f2aa122808252600185832001908282549255838380a47f71840dc4906352362b0cdaf79870196c8e42acafade72d5d5a6d59291253ceb18083526001848420019183835493558380a451610c6490816102138239f35b8280528282528383208184528252838320805460ff191660011790553390837f2f8788117e7eff1d82e926ec794901d17c78024a50270940304540a733656f0d8180a438610075565b600080fd5b634e487b7160e01b600052604160045260246000fdfe608060408181526004918236101561001657600080fd5b600092833560e01c91826301ffc9a7146106d25750816307e2cea5146106975781630d4476b51461059a578163248a9ca3146105705781632f2ff15d146104c757816336568abe146104355781634a6ee798146104035781636ce76f30146103c85781636f780093146103a05781637c8fd2181461034257816382aefa241461030757816391d14854146102c1578163a217fddf146102a6578163c87e184714610199578163d547741f1461015757508063f36c8f5c1461011d5763f5b541a6146100e057600080fd5b34610119578160031936011261011957602090517f97667070c54ef182b0f5858b034beac1b6f3089aa2d3188bb1e8929f4fa9b9298152f35b5080fd5b5034610119578160031936011261011957602090517f71840dc4906352362b0cdaf79870196c8e42acafade72d5d5a6d59291253ceb18152f35b91905034610195578060031936011261019557610192913561018d600161017c610740565b938387528660205286200154610765565b610ae2565b80f35b8280fd5b9050346101955781600319360112610195577fe75e9f4df5ce851531ff8701aa8d8fffc4ecb3beb55c23c8102794690402eca79035916101d7610756565b7f68e79a7bf1e0bc45d0a330c573bc367f9cf464fd326078812f301165fbda4ef185528460205281852033865260205261021660ff8387205416610b7d565b6102a067ffffffffffffffff42169261027f815161023381610ab0565b84151581526020808201878152898b526002909152838a2091518254915168ffffffffffffffffff1990921660ff911515919091161760089190911b68ffffffffffffffff0016179055565b51911515825267ffffffffffffffff90921660208201529081906040820190565b0390a280f35b50503461011957816003193601126101195751908152602090f35b9050346101955781600319360112610195578160209360ff926102e2610740565b903582528186528282206001600160a01b039091168252855220549151911615158152f35b505034610119578160031936011261011957602090517f114e74f6ea3bd819998f78687bfcb11b140da08e9b7d222fa9c1f1ba1f2aa1228152f35b82843461039d57602036600319011261039d576103799082906001600160a01b0361036b610725565b168152600160205220610bbc565b80516020918201519251901515815267ffffffffffffffff90921690820152604090f35b80fd5b8391503461011957602036600319011261011957610379918391358152600260205220610bbc565b505034610119578160031936011261011957602090517f2fdac322ee704ce09f0773f7f3f92eb98d5e7c836ee9c056cccd5f61041e5e3f8152f35b50503461011957806003193601126101195760209061042c610423610725565b60243590610be7565b90519015158152f35b83915034610119578260031936011261011957610450610740565b90336001600160a01b0383160361046c57906101929135610ae2565b608490602085519162461bcd60e51b8352820152602f60248201527f416363657373436f6e74726f6c3a2063616e206f6e6c792072656e6f756e636560448201526e103937b632b9903337b91039b2b63360891b6064820152fd5b90503461019557816003193601126101955735906104e3610740565b90828452836020526104fa60018286200154610765565b82845260208481528185206001600160a01b039093168086529290528084205460ff1615610526578380f35b828452836020528084208285526020528320600160ff1982541617905533917f2f8788117e7eff1d82e926ec794901d17c78024a50270940304540a733656f0d8480a43880808380f35b90503461019557602036600319011261019557816020936001923581528085522001549051908152f35b5050346101195780600319360112610119577fdb51f377c9aadcc83cba9588fb4ce58ba8b491943472b040c116b09b3c93108a6105d5610725565b916105de610756565b7f68e79a7bf1e0bc45d0a330c573bc367f9cf464fd326078812f301165fbda4ef185528460205281852033865260205261061d60ff8387205416610b7d565b6102a067ffffffffffffffff42169261027f81519661063b88610ab0565b841515885260208089018781526001600160a01b0392909216808b526001909152838a2098518954925168ffffffffffffffffff1990931660ff911515919091161760089290921b68ffffffffffffffff001691909117909755565b505034610119578160031936011261011957602090517f68e79a7bf1e0bc45d0a330c573bc367f9cf464fd326078812f301165fbda4ef18152f35b849134610195576020366003190112610195573563ffffffff60e01b81168091036101955760209250637965db0b60e01b8114908115610714575b5015158152f35b6301ffc9a760e01b1490508361070d565b600435906001600160a01b038216820361073b57565b600080fd5b602435906001600160a01b038216820361073b57565b60243590811515820361073b57565b6000818152602091818352604092838320338452815260ff84842054161561078d5750505050565b835167ffffffffffffffff939092336060850186811186821017610a79578752602a85528385019187368437855115610a655760308353855191600192831015610a51576078602188015360295b8381116109e757506109115787519060808201828110898211176109d3578952604282528582019260603685378251156109bf576030845382518110156109bf57607860218401536041905b80821161095357505061091157916108a69493918893606798995196879361087c8886019a7f416363657373436f6e74726f6c3a206163636f756e74200000000000000000008c525180926037880190610a8d565b8401917001034b99036b4b9b9b4b733903937b6329607d1b60378401525180936048840190610a8d565b0103602881018552601f199687910116840196848810908811176108fd5750926108f460449593601f938880975262461bcd60e51b8752600487015251809281602488015287870190610a8d565b01168101030190fd5b634e487b7160e01b81526041600452602490fd5b60648589519062461bcd60e51b825280600483015260248201527f537472696e67733a20686578206c656e67746820696e73756666696369656e746044820152fd5b9091600f811660108110156109ab576f181899199a1a9b1b9c1cb0b131b232b360811b901a6109828486610b56565b5360041c918015610997576000190190610827565b634e487b7160e01b87526011600452602487fd5b634e487b7160e01b88526032600452602488fd5b634e487b7160e01b86526032600452602486fd5b634e487b7160e01b86526041600452602486fd5b90600f81166010811015610a3d576f181899199a1a9b1b9c1cb0b131b232b360811b901a610a15838a610b56565b5360041c908015610a2957600019016107db565b634e487b7160e01b86526011600452602486fd5b634e487b7160e01b87526032600452602487fd5b634e487b7160e01b85526032600452602485fd5b634e487b7160e01b84526032600452602484fd5b634e487b7160e01b84526041600452602484fd5b60005b838110610aa05750506000910152565b8181015183820152602001610a90565b6040810190811067ffffffffffffffff821117610acc57604052565b634e487b7160e01b600052604160045260246000fd5b9060009180835282602052604083209160018060a01b03169182845260205260ff604084205416610b1257505050565b80835282602052604083208284526020526040832060ff1981541690557ff6391f5c32d9c69d2a47ea670b442974b53935d1edc7fd64eb21e047a839171b339380a4565b908151811015610b67570160200190565b634e487b7160e01b600052603260045260246000fd5b15610b8457565b60405162461bcd60e51b815260206004820152601060248201526f524f4c453a4f5241434c455f4f4e4c5960801b6044820152606490fd5b90604051610bc981610ab0565b915460ff81161515835260081c67ffffffffffffffff166020830152565b6001600160a01b03166000908152600160205260409020610c0790610bbc565b5115610c28576000526002602052610c226040600020610bbc565b51151590565b5060009056fea2646970667358221220687d27256d9365b063f27f2b55470d6b9dc4896c87dbbd43e13707e83657c0b364736f6c63430008140033","opcodes":"PUSH1 0x80 CALLVALUE PUSH2 0x1F7 JUMPI PUSH1 0x1F PUSH2 0xE77 CODESIZE DUP2 SWAP1 SUB SWAP2 DUP3 ADD PUSH1 0x1F NOT AND DUP4 ADD SWAP3 SWAP2 PUSH1 0x1 PUSH1 0x1 PUSH1 0x40 SHL SUB DUP5 GT DUP4 DUP6 LT OR PUSH2 0x1FC JUMPI DUP1 DUP4 SWAP3 PUSH1 0x40 SWAP6 DUP7 MSTORE DUP4 CODECOPY PUSH1 0x20 SWAP3 DUP4 SWAP2 DUP2 ADD SUB SLT PUSH2 0x1F7 JUMPI MLOAD PUSH1 0x1 PUSH1 0x1 PUSH1 0xA0 SHL SUB DUP2 AND SWAP2 SWAP1 DUP3 SWAP1 SUB PUSH2 0x1F7 JUMPI PUSH1 0x0 SWAP2 DUP3 DUP1 MSTORE DUP3 DUP3 MSTORE DUP4 DUP4 KECCAK256 DUP2 DUP5 MSTORE DUP3 MSTORE PUSH1 0xFF DUP5 DUP5 KECCAK256 SLOAD AND ISZERO PUSH2 0x1AE JUMPI JUMPDEST POP DUP2 PUSH32 0x97667070C54EF182B0F5858B034BEAC1B6F3089AA2D3188BB1E8929F4FA9B929 SWAP2 DUP3 DUP3 MSTORE MSTORE DUP2 PUSH1 0x1 DUP5 DUP3 KECCAK256 ADD DUP2 DUP2 SLOAD SWAP2 SSTORE PUSH32 0xBD79B86FFE0AB8E8776151514217CD7CACD52C909F66475C3AF44E129F0B00FF SWAP3 DUP4 DUP4 DUP1 LOG4 DUP2 PUSH32 0x2FDAC322EE704CE09F0773F7F3F92EB98D5E7C836EE9C056CCCD5F61041E5E3F DUP1 DUP3 MSTORE PUSH1 0x1 DUP6 DUP4 KECCAK256 ADD SWAP1 DUP3 DUP3 SLOAD SWAP3 SSTORE DUP4 DUP4 DUP1 LOG4 DUP2 PUSH32 0x68E79A7BF1E0BC45D0A330C573BC367F9CF464FD326078812F301165FBDA4EF1 DUP1 DUP3 MSTORE PUSH1 0x1 DUP6 DUP4 KECCAK256 ADD SWAP1 DUP3 DUP3 SLOAD SWAP3 SSTORE DUP4 DUP4 DUP1 LOG4 DUP2 PUSH32 0x114E74F6EA3BD819998F78687BFCB11B140DA08E9B7D222FA9C1F1BA1F2AA122 DUP1 DUP3 MSTORE PUSH1 0x1 DUP6 DUP4 KECCAK256 ADD SWAP1 DUP3 DUP3 SLOAD SWAP3 SSTORE DUP4 DUP4 DUP1 LOG4 PUSH32 0x71840DC4906352362B0CDAF79870196C8E42ACAFADE72D5D5A6D59291253CEB1 DUP1 DUP4 MSTORE PUSH1 0x1 DUP5 DUP5 KECCAK256 ADD SWAP2 DUP4 DUP4 SLOAD SWAP4 SSTORE DUP4 DUP1 LOG4 MLOAD PUSH2 0xC64 SWAP1 DUP2 PUSH2 0x213 DUP3 CODECOPY RETURN JUMPDEST DUP3 DUP1 MSTORE DUP3 DUP3 MSTORE DUP4 DUP4 KECCAK256 DUP2 DUP5 MSTORE DUP3 MSTORE DUP4 DUP4 KECCAK256 DUP1 SLOAD PUSH1 0xFF NOT AND PUSH1 0x1 OR SWAP1 SSTORE CALLER SWAP1 DUP4 PUSH32 0x2F8788117E7EFF1D82E926EC794901D17C78024A50270940304540A733656F0D DUP2 DUP1 LOG4 CODESIZE PUSH2 0x75 JUMP JUMPDEST PUSH1 0x0 DUP1 REVERT JUMPDEST PUSH4 0x4E487B71 PUSH1 0xE0 SHL PUSH1 0x0 MSTORE PUSH1 0x41 PUSH1 0x4 MSTORE PUSH1 0x24 PUSH1 0x0 REVERT INVALID PUSH1 0x80 PUSH1 0x40 DUP2 DUP2 MSTORE PUSH1 0x4 SWAP2 DUP3 CALLDATASIZE LT ISZERO PUSH2 0x16 JUMPI PUSH1 0x0 DUP1 REVERT JUMPDEST PUSH1 0x0 SWAP3 DUP4 CALLDATALOAD PUSH1 0xE0 SHR SWAP2 DUP3 PUSH4 0x1FFC9A7 EQ PUSH2 0x6D2 JUMPI POP DUP2 PUSH4 0x7E2CEA5 EQ PUSH2 0x697 JUMPI DUP2 PUSH4 0xD4476B5 EQ PUSH2 0x59A JUMPI DUP2 PUSH4 0x248A9CA3 EQ PUSH2 0x570 JUMPI DUP2 PUSH4 0x2F2FF15D EQ PUSH2 0x4C7 JUMPI DUP2 PUSH4 0x36568ABE EQ PUSH2 0x435 JUMPI DUP2 PUSH4 0x4A6EE798 EQ PUSH2 0x403 JUMPI DUP2 PUSH4 0x6CE76F30 EQ PUSH2 0x3C8 JUMPI DUP2 PUSH4 0x6F780093 EQ PUSH2 0x3A0 JUMPI DUP2 PUSH4 0x7C8FD218 EQ PUSH2 0x342 JUMPI DUP2 PUSH4 0x82AEFA24 EQ PUSH2 0x307 JUMPI DUP2 PUSH4 0x91D14854 EQ PUSH2 0x2C1 JUMPI DUP2 PUSH4 0xA217FDDF EQ PUSH2 0x2A6 JUMPI DUP2 PUSH4 0xC87E1847 EQ PUSH2 0x199 JUMPI DUP2 PUSH4 0xD547741F EQ PUSH2 0x157 JUMPI POP DUP1 PUSH4 0xF36C8F5C EQ PUSH2 0x11D JUMPI PUSH4 0xF5B541A6 EQ PUSH2 0xE0 JUMPI PUSH1 0x0 DUP1 REVERT JUMPDEST CALLVALUE PUSH2 0x119 JUMPI DUP2 PUSH1 0x3 NOT CALLDATASIZE ADD SLT PUSH2 0x119 JUMPI PUSH1 0x20 SWAP1 MLOAD PUSH32 0x97667070C54EF182B0F5858B034BEAC1B6F3089AA2D3188BB1E8929F4FA9B929 DUP2 MSTORE RETURN JUMPDEST POP DUP1 REVERT JUMPDEST POP CALLVALUE PUSH2 0x119 JUMPI DUP2 PUSH1 0x3 NOT CALLDATASIZE ADD SLT PUSH2 0x119 JUMPI PUSH1 0x20 SWAP1 MLOAD PUSH32 0x71840DC4906352362B0CDAF79870196C8E42ACAFADE72D5D5A6D59291253CEB1 DUP2 MSTORE RETURN JUMPDEST SWAP2 SWAP1 POP CALLVALUE PUSH2 0x195 JUMPI DUP1 PUSH1 0x3 NOT CALLDATASIZE ADD SLT PUSH2 0x195 JUMPI PUSH2 0x192 SWAP2 CALLDATALOAD PUSH2 0x18D PUSH1 0x1 PUSH2 0x17C PUSH2 0x740 JUMP JUMPDEST SWAP4 DUP4 DUP8 MSTORE DUP7 PUSH1 0x20 MSTORE DUP7 KECCAK256 ADD SLOAD PUSH2 0x765 JUMP JUMPDEST PUSH2 0xAE2 JUMP JUMPDEST DUP1 RETURN JUMPDEST DUP3 DUP1 REVERT JUMPDEST SWAP1 POP CALLVALUE PUSH2 0x195 JUMPI DUP2 PUSH1 0x3 NOT CALLDATASIZE ADD SLT PUSH2 0x195 JUMPI PUSH32 0xE75E9F4DF5CE851531FF8701AA8D8FFFC4ECB3BEB55C23C8102794690402ECA7 SWAP1 CALLDATALOAD SWAP2 PUSH2 0x1D7 PUSH2 0x756 JUMP JUMPDEST PUSH32 0x68E79A7BF1E0BC45D0A330C573BC367F9CF464FD326078812F301165FBDA4EF1 DUP6 MSTORE DUP5 PUSH1 0x20 MSTORE DUP2 DUP6 KECCAK256 CALLER DUP7 MSTORE PUSH1 0x20 MSTORE PUSH2 0x216 PUSH1 0xFF DUP4 DUP8 KECCAK256 SLOAD AND PUSH2 0xB7D JUMP JUMPDEST PUSH2 0x2A0 PUSH8 0xFFFFFFFFFFFFFFFF TIMESTAMP AND SWAP3 PUSH2 0x27F DUP2 MLOAD PUSH2 0x233 DUP2 PUSH2 0xAB0 JUMP JUMPDEST DUP5 ISZERO ISZERO DUP2 MSTORE PUSH1 0x20 DUP1 DUP3 ADD DUP8 DUP2 MSTORE DUP10 DUP12 MSTORE PUSH1 0x2 SWAP1 SWAP2 MSTORE DUP4 DUP11 KECCAK256 SWAP2 MLOAD DUP3 SLOAD SWAP2 MLOAD PUSH9 0xFFFFFFFFFFFFFFFFFF NOT SWAP1 SWAP3 AND PUSH1 0xFF SWAP2 ISZERO ISZERO SWAP2 SWAP1 SWAP2 AND OR PUSH1 0x8 SWAP2 SWAP1 SWAP2 SHL PUSH9 0xFFFFFFFFFFFFFFFF00 AND OR SWAP1 SSTORE JUMP JUMPDEST MLOAD SWAP2 ISZERO ISZERO DUP3 MSTORE PUSH8 0xFFFFFFFFFFFFFFFF SWAP1 SWAP3 AND PUSH1 0x20 DUP3 ADD MSTORE SWAP1 DUP2 SWAP1 PUSH1 0x40 DUP3 ADD SWAP1 JUMP JUMPDEST SUB SWAP1 LOG2 DUP1 RETURN JUMPDEST POP POP CALLVALUE PUSH2 0x119 JUMPI DUP2 PUSH1 0x3 NOT CALLDATASIZE ADD SLT PUSH2 0x119 JUMPI MLOAD SWAP1 DUP2 MSTORE PUSH1 0x20 SWAP1 RETURN JUMPDEST SWAP1 POP CALLVALUE PUSH2 0x195 JUMPI DUP2 PUSH1 0x3 NOT CALLDATASIZE ADD SLT PUSH2 0x195 JUMPI DUP2 PUSH1 0x20 SWAP4 PUSH1 0xFF SWAP3 PUSH2 0x2E2 PUSH2 0x740 JUMP JUMPDEST SWAP1 CALLDATALOAD DUP3 MSTORE DUP2 DUP7 MSTORE DUP3 DUP3 KECCAK256 PUSH1 0x1 PUSH1 0x1 PUSH1 0xA0 SHL SUB SWAP1 SWAP2 AND DUP3 MSTORE DUP6 MSTORE KECCAK256 SLOAD SWAP2 MLOAD SWAP2 AND ISZERO ISZERO DUP2 MSTORE RETURN JUMPDEST POP POP CALLVALUE PUSH2 0x119 JUMPI DUP2 PUSH1 0x3 NOT CALLDATASIZE ADD SLT PUSH2 0x119 JUMPI PUSH1 0x20 SWAP1 MLOAD PUSH32 0x114E74F6EA3BD819998F78687BFCB11B140DA08E9B7D222FA9C1F1BA1F2AA122 DUP2 MSTORE RETURN JUMPDEST DUP3 DUP5 CALLVALUE PUSH2 0x39D JUMPI PUSH1 0x20 CALLDATASIZE PUSH1 0x3 NOT ADD SLT PUSH2 0x39D JUMPI PUSH2 0x379 SWAP1 DUP3 SWAP1 PUSH1 0x1 PUSH1 0x1 PUSH1 0xA0 SHL SUB PUSH2 0x36B PUSH2 0x725 JUMP JUMPDEST AND DUP2 MSTORE PUSH1 0x1 PUSH1 0x20 MSTORE KECCAK256 PUSH2 0xBBC JUMP JUMPDEST DUP1 MLOAD PUSH1 0x20 SWAP2 DUP3 ADD MLOAD SWAP3 MLOAD SWAP1 ISZERO ISZERO DUP2 MSTORE PUSH8 0xFFFFFFFFFFFFFFFF SWAP1 SWAP3 AND SWAP1 DUP3 ADD MSTORE PUSH1 0x40 SWAP1 RETURN JUMPDEST DUP1 REVERT JUMPDEST DUP4 SWAP2 POP CALLVALUE PUSH2 0x119 JUMPI PUSH1 0x20 CALLDATASIZE PUSH1 0x3 NOT ADD SLT PUSH2 0x119 JUMPI PUSH2 0x379 SWAP2 DUP4 SWAP2 CALLDATALOAD DUP2 MSTORE PUSH1 0x2 PUSH1 0x20 MSTORE KECCAK256 PUSH2 0xBBC JUMP JUMPDEST POP POP CALLVALUE PUSH2 0x119 JUMPI DUP2 PUSH1 0x3 NOT CALLDATASIZE ADD SLT PUSH2 0x119 JUMPI PUSH1 0x20 SWAP1 MLOAD PUSH32 0x2FDAC322EE704CE09F0773F7F3F92EB98D5E7C836EE9C056CCCD5F61041E5E3F DUP2 MSTORE RETURN JUMPDEST POP POP CALLVALUE PUSH2 0x119 JUMPI DUP1 PUSH1 0x3 NOT CALLDATASIZE ADD SLT PUSH2 0x119 JUMPI PUSH1 0x20 SWAP1 PUSH2 0x42C PUSH2 0x423 PUSH2 0x725 JUMP JUMPDEST PUSH1 0x24 CALLDATALOAD SWAP1 PUSH2 0xBE7 JUMP JUMPDEST SWAP1 MLOAD SWAP1 ISZERO ISZERO DUP2 MSTORE RETURN JUMPDEST DUP4 SWAP2 POP CALLVALUE PUSH2 0x119 JUMPI DUP3 PUSH1 0x3 NOT CALLDATASIZE ADD SLT PUSH2 0x119 JUMPI PUSH2 0x450 PUSH2 0x740 JUMP JUMPDEST SWAP1 CALLER PUSH1 0x1 PUSH1 0x1 PUSH1 0xA0 SHL SUB DUP4 AND SUB PUSH2 0x46C JUMPI SWAP1 PUSH2 0x192 SWAP2 CALLDATALOAD PUSH2 0xAE2 JUMP JUMPDEST PUSH1 0x84 SWAP1 PUSH1 0x20 DUP6 MLOAD SWAP2 PUSH3 0x461BCD PUSH1 0xE5 SHL DUP4 MSTORE DUP3 ADD MSTORE PUSH1 0x2F PUSH1 0x24 DUP3 ADD MSTORE PUSH32 0x416363657373436F6E74726F6C3A2063616E206F6E6C792072656E6F756E6365 PUSH1 0x44 DUP3 ADD MSTORE PUSH15 0x103937B632B9903337B91039B2B633 PUSH1 0x89 SHL PUSH1 0x64 DUP3 ADD MSTORE REVERT JUMPDEST SWAP1 POP CALLVALUE PUSH2 0x195 JUMPI DUP2 PUSH1 0x3 NOT CALLDATASIZE ADD SLT PUSH2 0x195 JUMPI CALLDATALOAD SWAP1 PUSH2 0x4E3 PUSH2 0x740 JUMP JUMPDEST SWAP1 DUP3 DUP5 MSTORE DUP4 PUSH1 0x20 MSTORE PUSH2 0x4FA PUSH1 0x1 DUP3 DUP7 KECCAK256 ADD SLOAD PUSH2 0x765 JUMP JUMPDEST DUP3 DUP5 MSTORE PUSH1 0x20 DUP5 DUP2 MSTORE DUP2 DUP6 KECCAK256 PUSH1 0x1 PUSH1 0x1 PUSH1 0xA0 SHL SUB SWAP1 SWAP4 AND DUP1 DUP7 MSTORE SWAP3 SWAP1 MSTORE DUP1 DUP5 KECCAK256 SLOAD PUSH1 0xFF AND ISZERO PUSH2 0x526 JUMPI DUP4 DUP1 RETURN JUMPDEST DUP3 DUP5 MSTORE DUP4 PUSH1 0x20 MSTORE DUP1 DUP5 KECCAK256 DUP3 DUP6 MSTORE PUSH1 0x20 MSTORE DUP4 KECCAK256 PUSH1 0x1 PUSH1 0xFF NOT DUP3 SLOAD AND OR SWAP1 SSTORE CALLER SWAP2 PUSH32 0x2F8788117E7EFF1D82E926EC794901D17C78024A50270940304540A733656F0D DUP5 DUP1 LOG4 CODESIZE DUP1 DUP1 DUP4 DUP1 RETURN JUMPDEST SWAP1 POP CALLVALUE PUSH2 0x195 JUMPI PUSH1 0x20 CALLDATASIZE PUSH1 0x3 NOT ADD SLT PUSH2 0x195 JUMPI DUP2 PUSH1 0x20 SWAP4 PUSH1 0x1 SWAP3 CALLDATALOAD DUP2 MSTORE DUP1 DUP6 MSTORE KECCAK256 ADD SLOAD SWAP1 MLOAD SWAP1 DUP2 MSTORE RETURN JUMPDEST POP POP CALLVALUE PUSH2 0x119 JUMPI DUP1 PUSH1 0x3 NOT CALLDATASIZE ADD SLT PUSH2 0x119 JUMPI PUSH32 0xDB51F377C9AADCC83CBA9588FB4CE58BA8B491943472B040C116B09B3C93108A PUSH2 0x5D5 PUSH2 0x725 JUMP JUMPDEST SWAP2 PUSH2 0x5DE PUSH2 0x756 JUMP JUMPDEST PUSH32 0x68E79A7BF1E0BC45D0A330C573BC367F9CF464FD326078812F301165FBDA4EF1 DUP6 MSTORE DUP5 PUSH1 0x20 MSTORE DUP2 DUP6 KECCAK256 CALLER DUP7 MSTORE PUSH1 0x20 MSTORE PUSH2 0x61D PUSH1 0xFF DUP4 DUP8 KECCAK256 SLOAD AND PUSH2 0xB7D JUMP JUMPDEST PUSH2 0x2A0 PUSH8 0xFFFFFFFFFFFFFFFF TIMESTAMP AND SWAP3 PUSH2 0x27F DUP2 MLOAD SWAP7 PUSH2 0x63B DUP9 PUSH2 0xAB0 JUMP JUMPDEST DUP5 ISZERO ISZERO DUP9 MSTORE PUSH1 0x20 DUP1 DUP10 ADD DUP8 DUP2 MSTORE PUSH1 0x1 PUSH1 0x1 PUSH1 0xA0 SHL SUB SWAP3 SWAP1 SWAP3 AND DUP1 DUP12 MSTORE PUSH1 0x1 SWAP1 SWAP2 MSTORE DUP4 DUP11 KECCAK256 SWAP9 MLOAD DUP10 SLOAD SWAP3 MLOAD PUSH9 0xFFFFFFFFFFFFFFFFFF NOT SWAP1 SWAP4 AND PUSH1 0xFF SWAP2 ISZERO ISZERO SWAP2 SWAP1 SWAP2 AND OR PUSH1 0x8 SWAP3 SWAP1 SWAP3 SHL PUSH9 0xFFFFFFFFFFFFFFFF00 AND SWAP2 SWAP1 SWAP2 OR SWAP1 SWAP8 SSTORE JUMP JUMPDEST POP POP CALLVALUE PUSH2 0x119 JUMPI DUP2 PUSH1 0x3 NOT CALLDATASIZE ADD SLT PUSH2 0x119 JUMPI PUSH1 0x20 SWAP1 MLOAD PUSH32 0x68E79A7BF1E0BC45D0A330C573BC367F9CF464FD326078812F301165FBDA4EF1 DUP2 MSTORE RETURN JUMPDEST DUP5 SWAP2 CALLVALUE PUSH2 0x195 JUMPI PUSH1 0x20 CALLDATASIZE PUSH1 0x3 NOT ADD SLT PUSH2 0x195 JUMPI CALLDATALOAD PUSH4 0xFFFFFFFF PUSH1 0xE0 SHL DUP2 AND DUP1 SWAP2 SUB PUSH2 0x195 JUMPI PUSH1 0x20 SWAP3 POP PUSH4 0x7965DB0B PUSH1 0xE0 SHL DUP2 EQ SWAP1 DUP2 ISZERO PUSH2 0x714 JUMPI JUMPDEST POP ISZERO ISZERO DUP2 MSTORE RETURN JUMPDEST PUSH4 0x1FFC9A7 PUSH1 0xE0 SHL EQ SWAP1 POP DUP4 PUSH2 0x70D JUMP JUMPDEST PUSH1 0x4 CALLDATALOAD SWAP1 PUSH1 0x1 PUSH1 0x1 PUSH1 0xA0 SHL SUB DUP3 AND DUP3 SUB PUSH2 0x73B JUMPI JUMP JUMPDEST PUSH1 0x0 DUP1 REVERT JUMPDEST PUSH1 0x24 CALLDATALOAD SWAP1 PUSH1 0x1 PUSH1 0x1 PUSH1 0xA0 SHL SUB DUP3 AND DUP3 SUB PUSH2 0x73B JUMPI JUMP JUMPDEST PUSH1 0x24 CALLDATALOAD SWAP1 DUP2 ISZERO ISZERO DUP3 SUB PUSH2 0x73B JUMPI JUMP JUMPDEST PUSH1 0x0 DUP2 DUP2 MSTORE PUSH1 0x20 SWAP2 DUP2 DUP4 MSTORE PUSH1 0x40 SWAP3 DUP4 DUP4 KECCAK256 CALLER DUP5 MSTORE DUP2 MSTORE PUSH1 0xFF DUP5 DUP5 KECCAK256 SLOAD AND ISZERO PUSH2 0x78D JUMPI POP POP POP POP JUMP JUMPDEST DUP4 MLOAD PUSH8 0xFFFFFFFFFFFFFFFF SWAP4 SWAP1 SWAP3 CALLER PUSH1 0x60 DUP6 ADD DUP7 DUP2 GT DUP7 DUP3 LT OR PUSH2 0xA79 JUMPI DUP8 MSTORE PUSH1 0x2A DUP6 MSTORE DUP4 DUP6 ADD SWAP2 DUP8 CALLDATASIZE DUP5 CALLDATACOPY DUP6 MLOAD ISZERO PUSH2 0xA65 JUMPI PUSH1 0x30 DUP4 MSTORE8 DUP6 MLOAD SWAP2 PUSH1 0x1 SWAP3 DUP4 LT ISZERO PUSH2 0xA51 JUMPI PUSH1 0x78 PUSH1 0x21 DUP9 ADD MSTORE8 PUSH1 0x29 JUMPDEST DUP4 DUP2 GT PUSH2 0x9E7 JUMPI POP PUSH2 0x911 JUMPI DUP8 MLOAD SWAP1 PUSH1 0x80 DUP3 ADD DUP3 DUP2 LT DUP10 DUP3 GT OR PUSH2 0x9D3 JUMPI DUP10 MSTORE PUSH1 0x42 DUP3 MSTORE DUP6 DUP3 ADD SWAP3 PUSH1 0x60 CALLDATASIZE DUP6 CALLDATACOPY DUP3 MLOAD ISZERO PUSH2 0x9BF JUMPI PUSH1 0x30 DUP5 MSTORE8 DUP3 MLOAD DUP2 LT ISZERO PUSH2 0x9BF JUMPI PUSH1 0x78 PUSH1 0x21 DUP5 ADD MSTORE8 PUSH1 0x41 SWAP1 JUMPDEST DUP1 DUP3 GT PUSH2 0x953 JUMPI POP POP PUSH2 0x911 JUMPI SWAP2 PUSH2 0x8A6 SWAP5 SWAP4 SWAP2 DUP9 SWAP4 PUSH1 0x67 SWAP9 SWAP10 MLOAD SWAP7 DUP8 SWAP4 PUSH2 0x87C DUP9 DUP7 ADD SWAP11 PUSH32 0x416363657373436F6E74726F6C3A206163636F756E7420000000000000000000 DUP13 MSTORE MLOAD DUP1 SWAP3 PUSH1 0x37 DUP9 ADD SWAP1 PUSH2 0xA8D JUMP JUMPDEST DUP5 ADD SWAP2 PUSH17 0x1034B99036B4B9B9B4B733903937B6329 PUSH1 0x7D SHL PUSH1 0x37 DUP5 ADD MSTORE MLOAD DUP1 SWAP4 PUSH1 0x48 DUP5 ADD SWAP1 PUSH2 0xA8D JUMP JUMPDEST ADD SUB PUSH1 0x28 DUP2 ADD DUP6 MSTORE PUSH1 0x1F NOT SWAP7 DUP8 SWAP2 ADD AND DUP5 ADD SWAP7 DUP5 DUP9 LT SWAP1 DUP9 GT OR PUSH2 0x8FD JUMPI POP SWAP3 PUSH2 0x8F4 PUSH1 0x44 SWAP6 SWAP4 PUSH1 0x1F SWAP4 DUP9 DUP1 SWAP8 MSTORE PUSH3 0x461BCD PUSH1 0xE5 SHL DUP8 MSTORE PUSH1 0x4 DUP8 ADD MSTORE MLOAD DUP1 SWAP3 DUP2 PUSH1 0x24 DUP9 ADD MSTORE DUP8 DUP8 ADD SWAP1 PUSH2 0xA8D JUMP JUMPDEST ADD AND DUP2 ADD SUB ADD SWAP1 REVERT JUMPDEST PUSH4 0x4E487B71 PUSH1 0xE0 SHL DUP2 MSTORE PUSH1 0x41 PUSH1 0x4 MSTORE PUSH1 0x24 SWAP1 REVERT JUMPDEST PUSH1 0x64 DUP6 DUP10 MLOAD SWAP1 PUSH3 0x461BCD PUSH1 0xE5 SHL DUP3 MSTORE DUP1 PUSH1 0x4 DUP4 ADD MSTORE PUSH1 0x24 DUP3 ADD MSTORE PUSH32 0x537472696E67733A20686578206C656E67746820696E73756666696369656E74 PUSH1 0x44 DUP3 ADD MSTORE REVERT JUMPDEST SWAP1 SWAP2 PUSH1 0xF DUP2 AND PUSH1 0x10 DUP2 LT ISZERO PUSH2 0x9AB JUMPI PUSH16 0x181899199A1A9B1B9C1CB0B131B232B3 PUSH1 0x81 SHL SWAP1 BYTE PUSH2 0x982 DUP5 DUP7 PUSH2 0xB56 JUMP JUMPDEST MSTORE8 PUSH1 0x4 SHR SWAP2 DUP1 ISZERO PUSH2 0x997 JUMPI PUSH1 0x0 NOT ADD SWAP1 PUSH2 0x827 JUMP JUMPDEST PUSH4 0x4E487B71 PUSH1 0xE0 SHL DUP8 MSTORE PUSH1 0x11 PUSH1 0x4 MSTORE PUSH1 0x24 DUP8 REVERT JUMPDEST PUSH4 0x4E487B71 PUSH1 0xE0 SHL DUP9 MSTORE PUSH1 0x32 PUSH1 0x4 MSTORE PUSH1 0x24 DUP9 REVERT JUMPDEST PUSH4 0x4E487B71 PUSH1 0xE0 SHL DUP7 MSTORE PUSH1 0x32 PUSH1 0x4 MSTORE PUSH1 0x24 DUP7 REVERT JUMPDEST PUSH4 0x4E487B71 PUSH1 0xE0 SHL DUP7 MSTORE PUSH1 0x41 PUSH1 0x4 MSTORE PUSH1 0x24 DUP7 REVERT JUMPDEST SWAP1 PUSH1 0xF DUP2 AND PUSH1 0x10 DUP2 LT ISZERO PUSH2 0xA3D JUMPI PUSH16 0x181899199A1A9B1B9C1CB0B131B232B3 PUSH1 0x81 SHL SWAP1 BYTE PUSH2 0xA15 DUP4 DUP11 PUSH2 0xB56 JUMP JUMPDEST MSTORE8 PUSH1 0x4 SHR SWAP1 DUP1 ISZERO PUSH2 0xA29 JUMPI PUSH1 0x0 NOT ADD PUSH2 0x7DB JUMP JUMPDEST PUSH4 0x4E487B71 PUSH1 0xE0 SHL DUP7 MSTORE PUSH1 0x11 PUSH1 0x4 MSTORE PUSH1 0x24 DUP7 REVERT JUMPDEST PUSH4 0x4E487B71 PUSH1 0xE0 SHL DUP8 MSTORE PUSH1 0x32 PUSH1 0x4 MSTORE PUSH1 0x24 DUP8 REVERT JUMPDEST PUSH4 0x4E487B71 PUSH1 0xE0 SHL DUP6 MSTORE PUSH1 0x32 PUSH1 0x4 MSTORE PUSH1 0x24 DUP6 REVERT JUMPDEST PUSH4 0x4E487B71 PUSH1 0xE0 SHL DUP5 MSTORE PUSH1 0x32 PUSH1 0x4 MSTORE PUSH1 0x24 DUP5 REVERT JUMPDEST PUSH4 0x4E487B71 PUSH1 0xE0 SHL DUP5 MSTORE PUSH1 0x41 PUSH1 0x4 MSTORE PUSH1 0x24 DUP5 REVERT JUMPDEST PUSH1 0x0 JUMPDEST DUP4 DUP2 LT PUSH2 0xAA0 JUMPI POP POP PUSH1 0x0 SWAP2 ADD MSTORE JUMP JUMPDEST DUP2 DUP2 ADD MLOAD DUP4 DUP3 ADD MSTORE PUSH1 0x20 ADD PUSH2 0xA90 JUMP JUMPDEST PUSH1 0x40 DUP2 ADD SWAP1 DUP2 LT PUSH8 0xFFFFFFFFFFFFFFFF DUP3 GT OR PUSH2 0xACC JUMPI PUSH1 0x40 MSTORE JUMP JUMPDEST PUSH4 0x4E487B71 PUSH1 0xE0 SHL PUSH1 0x0 MSTORE PUSH1 0x41 PUSH1 0x4 MSTORE PUSH1 0x24 PUSH1 0x0 REVERT JUMPDEST SWAP1 PUSH1 0x0 SWAP2 DUP1 DUP4 MSTORE DUP3 PUSH1 0x20 MSTORE PUSH1 0x40 DUP4 KECCAK256 SWAP2 PUSH1 0x1 DUP1 PUSH1 0xA0 SHL SUB AND SWAP2 DUP3 DUP5 MSTORE PUSH1 0x20 MSTORE PUSH1 0xFF PUSH1 0x40 DUP5 KECCAK256 SLOAD AND PUSH2 0xB12 JUMPI POP POP POP JUMP JUMPDEST DUP1 DUP4 MSTORE DUP3 PUSH1 0x20 MSTORE PUSH1 0x40 DUP4 KECCAK256 DUP3 DUP5 MSTORE PUSH1 0x20 MSTORE PUSH1 0x40 DUP4 KECCAK256 PUSH1 0xFF NOT DUP2 SLOAD AND SWAP1 SSTORE PUSH32 0xF6391F5C32D9C69D2A47EA670B442974B53935D1EDC7FD64EB21E047A839171B CALLER SWAP4 DUP1 LOG4 JUMP JUMPDEST SWAP1 DUP2 MLOAD DUP2 LT ISZERO PUSH2 0xB67 JUMPI ADD PUSH1 0x20 ADD SWAP1 JUMP JUMPDEST PUSH4 0x4E487B71 PUSH1 0xE0 SHL PUSH1 0x0 MSTORE PUSH1 0x32 PUSH1 0x4 MSTORE PUSH1 0x24 PUSH1 0x0 REVERT JUMPDEST ISZERO PUSH2 0xB84 JUMPI JUMP JUMPDEST PUSH1 0x40 MLOAD PUSH3 0x461BCD PUSH1 0xE5 SHL DUP2 MSTORE PUSH1 0x20 PUSH1 0x4 DUP3 ADD MSTORE PUSH1 0x10 PUSH1 0x24 DUP3 ADD MSTORE PUSH16 0x524F4C453A4F5241434C455F4F4E4C59 PUSH1 0x80 SHL PUSH1 0x44 DUP3 ADD MSTORE PUSH1 0x64 SWAP1 REVERT JUMPDEST SWAP1 PUSH1 0x40 MLOAD PUSH2 0xBC9 DUP2 PUSH2 0xAB0 JUMP JUMPDEST SWAP2 SLOAD PUSH1 0xFF DUP2 AND ISZERO ISZERO DUP4 MSTORE PUSH1 0x8 SHR PUSH8 0xFFFFFFFFFFFFFFFF AND PUSH1 0x20 DUP4 ADD MSTORE JUMP JUMPDEST PUSH1 0x1 PUSH1 0x1 PUSH1 0xA0 SHL SUB AND PUSH1 0x0 SWAP1 DUP2 MSTORE PUSH1 0x1 PUSH1 0x20 MSTORE PUSH1 0x40 SWAP1 KECCAK256 PUSH2 0xC07 SWAP1 PUSH2 0xBBC JUMP JUMPDEST MLOAD ISZERO PUSH2 0xC28 JUMPI PUSH1 0x0 MSTORE PUSH1 0x2 PUSH1 0x20 MSTORE PUSH2 0xC22 PUSH1 0x40 PUSH1 0x0 KECCAK256 PUSH2 0xBBC JUMP JUMPDEST MLOAD ISZERO ISZERO SWAP1 JUMP JUMPDEST POP PUSH1 0x0 SWAP1 JUMP INVALID LOG2 PUSH5 0x6970667358 0x22 SLT KECCAK256 PUSH9 0x7D27256D9365B063F2 PUSH32 0x2B55470D6B9DC4896C87DBBD43E13707E83657C0B364736F6C63430008140033 "},"methodIdentifiers":{"DEFAULT_ADMIN_ROLE()":"a217fddf","ESCROW_ROLE()":"6ce76f30","GOVERNANCE_ROLE()":"f36c8f5c","ISSUER_ROLE()":"82aefa24","OPERATOR_ROLE()":"f5b541a6","ORACLE_ROLE()":"07e2cea5","getComplianceStatus(address)":"7c8fd218","getMunicipalStatus(uint256)":"6f780093","getRoleAdmin(bytes32)":"248a9ca3","grantRole(bytes32,address)":"2f2ff15d","hasRole(bytes32,address)":"91d14854","isCompliant(address,uint256)":"4a6ee798","renounceRole(bytes32,address)":"36568abe","revokeRole(bytes32,address)":"d547741f","setComplianceStatus(address,bool)":"0d4476b5","supportsInterface(bytes4)":"01ffc9a7","updateMunicipalClearance(uint256,bool)":"c87e1847"}}}}}