{"contracts/common/ContractRegistry.sol":{"ContractRegistry":{"abi":[{"inputs":[{"internalType":"address","name":"admin","type":"address"}],"stateMutability":"nonpayable","type":"constructor"},{"anonymous":false,"inputs":[{"indexed":true,"internalType":"bytes32","name":"key","type":"bytes32"},{"indexed":true,"internalType":"address","name":"value","type":"address"}],"name":"AddressRegistered","type":"event"},{"anonymous":false,"inputs":[{"indexed":true,"internalType":"bytes32","name":"role","type":"bytes32"},{"indexed":true,"internalType":"bytes32","name":"previousAdminRole","type":"bytes32"},{"indexed":true,"internalType":"bytes32","name":"newAdminRole","type":"bytes32"}],"name":"RoleAdminChanged","type":"event"},{"anonymous":false,"inputs":[{"indexed":true,"internalType":"bytes32","name":"role","type":"bytes32"},{"indexed":true,"internalType":"address","name":"account","type":"address"},{"indexed":true,"internalType":"address","name":"sender","type":"address"}],"name":"RoleGranted","type":"event"},{"anonymous":false,"inputs":[{"indexed":true,"internalType":"bytes32","name":"role","type":"bytes32"},{"indexed":true,"internalType":"address","name":"account","type":"address"},{"indexed":true,"internalType":"address","name":"sender","type":"address"}],"name":"RoleRevoked","type":"event"},{"inputs":[],"name":"DEFAULT_ADMIN_ROLE","outputs":[{"internalType":"bytes32","name":"","type":"bytes32"}],"stateMutability":"view","type":"function"},{"inputs":[],"name":"ESCROW_ROLE","outputs":[{"internalType":"bytes32","name":"","type":"bytes32"}],"stateMutability":"view","type":"function"},{"inputs":[],"name":"GOVERNANCE_ROLE","outputs":[{"internalType":"bytes32","name":"","type":"bytes32"}],"stateMutability":"view","type":"function"},{"inputs":[],"name":"ISSUER_ROLE","outputs":[{"internalType":"bytes32","name":"","type":"bytes32"}],"stateMutability":"view","type":"function"},{"inputs":[],"name":"OPERATOR_ROLE","outputs":[{"internalType":"bytes32","name":"","type":"bytes32"}],"stateMutability":"view","type":"function"},{"inputs":[],"name":"ORACLE_ROLE","outputs":[{"internalType":"bytes32","name":"","type":"bytes32"}],"stateMutability":"view","type":"function"},{"inputs":[{"internalType":"bytes32","name":"key","type":"bytes32"}],"name":"getAddress","outputs":[{"internalType":"address","name":"","type":"address"}],"stateMutability":"view","type":"function"},{"inputs":[{"internalType":"bytes32","name":"role","type":"bytes32"}],"name":"getRoleAdmin","outputs":[{"internalType":"bytes32","name":"","type":"bytes32"}],"stateMutability":"view","type":"function"},{"inputs":[{"internalType":"bytes32","name":"role","type":"bytes32"},{"internalType":"address","name":"account","type":"address"}],"name":"grantRole","outputs":[],"stateMutability":"nonpayable","type":"function"},{"inputs":[{"internalType":"bytes32","name":"role","type":"bytes32"},{"internalType":"address","name":"account","type":"address"}],"name":"hasRole","outputs":[{"internalType":"bool","name":"","type":"bool"}],"stateMutability":"view","type":"function"},{"inputs":[{"internalType":"bytes32","name":"role","type":"bytes32"},{"internalType":"address","name":"account","type":"address"}],"name":"renounceRole","outputs":[],"stateMutability":"nonpayable","type":"function"},{"inputs":[{"internalType":"bytes32","name":"role","type":"bytes32"},{"internalType":"address","name":"account","type":"address"}],"name":"revokeRole","outputs":[],"stateMutability":"nonpayable","type":"function"},{"inputs":[{"internalType":"bytes32","name":"key","type":"bytes32"},{"internalType":"address","name":"value","type":"address"}],"name":"setAddress","outputs":[],"stateMutability":"nonpayable","type":"function"},{"inputs":[{"internalType":"bytes4","name":"interfaceId","type":"bytes4"}],"name":"supportsInterface","outputs":[{"internalType":"bool","name":"","type":"bool"}],"stateMutability":"view","type":"function"}],"evm":{"bytecode":{"linkReferences":{},"object":"6080346101f757601f610b5438819003918201601f1916830192916001600160401b038411838510176101fc57808392604095865283396020928391810103126101f757516001600160a01b03811691908290036101f757600091828052828252838320818452825260ff8484205416156101ae575b50817f97667070c54ef182b0f5858b034beac1b6f3089aa2d3188bb1e8929f4fa9b92991828252528160018482200181815491557fbd79b86ffe0ab8e8776151514217cd7cacd52c909f66475c3af44e129f0b00ff92838380a4817f2fdac322ee704ce09f0773f7f3f92eb98d5e7c836ee9c056cccd5f61041e5e3f808252600185832001908282549255838380a4817f68e79a7bf1e0bc45d0a330c573bc367f9cf464fd326078812f301165fbda4ef1808252600185832001908282549255838380a4817f114e74f6ea3bd819998f78687bfcb11b140da08e9b7d222fa9c1f1ba1f2aa122808252600185832001908282549255838380a47f71840dc4906352362b0cdaf79870196c8e42acafade72d5d5a6d59291253ceb18083526001848420019183835493558380a45161094190816102138239f35b8280528282528383208184528252838320805460ff191660011790553390837f2f8788117e7eff1d82e926ec794901d17c78024a50270940304540a733656f0d8180a438610075565b600080fd5b634e487b7160e01b600052604160045260246000fdfe608060408181526004918236101561001657600080fd5b600092833560e01c91826301ffc9a7146104a75750816307e2cea51461046c57816321f8a72114610439578163248a9ca31461040f5781632f2ff15d1461037157816336568abe146102e95781636ce76f30146102ae57816382aefa241461027357816391d1485414610239578163a217fddf1461021e578163ca446dd91461016957508063d547741f14610136578063f36c8f5c146100fc5763f5b541a6146100bf57600080fd5b346100f857816003193601126100f857602090517f97667070c54ef182b0f5858b034beac1b6f3089aa2d3188bb1e8929f4fa9b9298152f35b5080fd5b50346100f857816003193601126100f857602090517f71840dc4906352362b0cdaf79870196c8e42acafade72d5d5a6d59291253ceb18152f35b50346100f85760016101669161016161014e366104fa565b9390928387528660205286200154610525565b610870565b80f35b90503461021a57610179366104fa565b9290918480528460205281852033865260205260ff8286205416156101e657508184526001602052832080546001600160a01b0319166001600160a01b0390931692831790557f2cda763a9d7ae9241f22e221947f65e31e7cf58d79ff18e3badd72acf4be14898380a380f35b6020606492519162461bcd60e51b8352820152600f60248201526e524f4c453a41444d494e5f4f4e4c5960881b6044820152fd5b8280fd5b5050346100f857816003193601126100f85751908152602090f35b5050346100f85760ff8160209361024f366104fa565b9082528186528282206001600160a01b039091168252855220549151911615158152f35b5050346100f857816003193601126100f857602090517f114e74f6ea3bd819998f78687bfcb11b140da08e9b7d222fa9c1f1ba1f2aa1228152f35b5050346100f857816003193601126100f857602090517f2fdac322ee704ce09f0773f7f3f92eb98d5e7c836ee9c056cccd5f61041e5e3f8152f35b839150346100f8576102fa366104fa565b91336001600160a01b0384160361031657509061016691610870565b608490602086519162461bcd60e51b8352820152602f60248201527f416363657373436f6e74726f6c3a2063616e206f6e6c792072656e6f756e636560448201526e103937b632b9903337b91039b2b63360891b6064820152fd5b5050346100f857610381366104fa565b90918284528360205261039960018286200154610525565b82845260208481528185206001600160a01b039093168086529290528084205460ff16156103c5578380f35b828452836020528084208285526020528320600160ff1982541617905533917f2f8788117e7eff1d82e926ec794901d17c78024a50270940304540a733656f0d8480a43880808380f35b90503461021a57602036600319011261021a57816020936001923581528085522001549051908152f35b90503461021a57602036600319011261021a5735825260016020908152918190205490516001600160a01b039091168152f35b5050346100f857816003193601126100f857602090517f68e79a7bf1e0bc45d0a330c573bc367f9cf464fd326078812f301165fbda4ef18152f35b84913461021a57602036600319011261021a573563ffffffff60e01b811680910361021a5760209250637965db0b60e01b81149081156104e9575b5015158152f35b6301ffc9a760e01b149050836104e2565b604090600319011261052057600435906024356001600160a01b03811681036105205790565b600080fd5b6000818152602091818352604092838320338452815260ff84842054161561054d5750505050565b835167ffffffffffffffff939092336060850186811186821017610839578752602a855283850191873684378551156108255760308353855191600192831015610811576078602188015360295b8381116107a757506106d15787519060808201828110898211176107935789526042825285820192606036853782511561077f5760308453825181101561077f57607860218401536041905b8082116107135750506106d157916106669493918893606798995196879361063c8886019a7f416363657373436f6e74726f6c3a206163636f756e74200000000000000000008c52518092603788019061084d565b8401917001034b99036b4b9b9b4b733903937b6329607d1b6037840152518093604884019061084d565b0103602881018552601f199687910116840196848810908811176106bd5750926106b460449593601f938880975262461bcd60e51b875260048701525180928160248801528787019061084d565b01168101030190fd5b634e487b7160e01b81526041600452602490fd5b60648589519062461bcd60e51b825280600483015260248201527f537472696e67733a20686578206c656e67746820696e73756666696369656e746044820152fd5b9091600f8116601081101561076b576f181899199a1a9b1b9c1cb0b131b232b360811b901a61074284866108e4565b5360041c9180156107575760001901906105e7565b634e487b7160e01b87526011600452602487fd5b634e487b7160e01b88526032600452602488fd5b634e487b7160e01b86526032600452602486fd5b634e487b7160e01b86526041600452602486fd5b90600f811660108110156107fd576f181899199a1a9b1b9c1cb0b131b232b360811b901a6107d5838a6108e4565b5360041c9080156107e9576000190161059b565b634e487b7160e01b86526011600452602486fd5b634e487b7160e01b87526032600452602487fd5b634e487b7160e01b85526032600452602485fd5b634e487b7160e01b84526032600452602484fd5b634e487b7160e01b84526041600452602484fd5b60005b8381106108605750506000910152565b8181015183820152602001610850565b9060009180835282602052604083209160018060a01b03169182845260205260ff6040842054166108a057505050565b80835282602052604083208284526020526040832060ff1981541690557ff6391f5c32d9c69d2a47ea670b442974b53935d1edc7fd64eb21e047a839171b339380a4565b9081518110156108f5570160200190565b634e487b7160e01b600052603260045260246000fdfea264697066735822122039b8a64e1ea2916c73a7f962c43f21f8d05b2934aafbbe110de339a57dda92be64736f6c63430008140033","opcodes":"PUSH1 0x80 CALLVALUE PUSH2 0x1F7 JUMPI PUSH1 0x1F PUSH2 0xB54 CODESIZE DUP2 SWAP1 SUB SWAP2 DUP3 ADD PUSH1 0x1F NOT AND DUP4 ADD SWAP3 SWAP2 PUSH1 0x1 PUSH1 0x1 PUSH1 0x40 SHL SUB DUP5 GT DUP4 DUP6 LT OR PUSH2 0x1FC JUMPI DUP1 DUP4 SWAP3 PUSH1 0x40 SWAP6 DUP7 MSTORE DUP4 CODECOPY PUSH1 0x20 SWAP3 DUP4 SWAP2 DUP2 ADD SUB SLT PUSH2 0x1F7 JUMPI MLOAD PUSH1 0x1 PUSH1 0x1 PUSH1 0xA0 SHL SUB DUP2 AND SWAP2 SWAP1 DUP3 SWAP1 SUB PUSH2 0x1F7 JUMPI PUSH1 0x0 SWAP2 DUP3 DUP1 MSTORE DUP3 DUP3 MSTORE DUP4 DUP4 KECCAK256 DUP2 DUP5 MSTORE DUP3 MSTORE PUSH1 0xFF DUP5 DUP5 KECCAK256 SLOAD AND ISZERO PUSH2 0x1AE JUMPI JUMPDEST POP DUP2 PUSH32 0x97667070C54EF182B0F5858B034BEAC1B6F3089AA2D3188BB1E8929F4FA9B929 SWAP2 DUP3 DUP3 MSTORE MSTORE DUP2 PUSH1 0x1 DUP5 DUP3 KECCAK256 ADD DUP2 DUP2 SLOAD SWAP2 SSTORE PUSH32 0xBD79B86FFE0AB8E8776151514217CD7CACD52C909F66475C3AF44E129F0B00FF SWAP3 DUP4 DUP4 DUP1 LOG4 DUP2 PUSH32 0x2FDAC322EE704CE09F0773F7F3F92EB98D5E7C836EE9C056CCCD5F61041E5E3F DUP1 DUP3 MSTORE PUSH1 0x1 DUP6 DUP4 KECCAK256 ADD SWAP1 DUP3 DUP3 SLOAD SWAP3 SSTORE DUP4 DUP4 DUP1 LOG4 DUP2 PUSH32 0x68E79A7BF1E0BC45D0A330C573BC367F9CF464FD326078812F301165FBDA4EF1 DUP1 DUP3 MSTORE PUSH1 0x1 DUP6 DUP4 KECCAK256 ADD SWAP1 DUP3 DUP3 SLOAD SWAP3 SSTORE DUP4 DUP4 DUP1 LOG4 DUP2 PUSH32 0x114E74F6EA3BD819998F78687BFCB11B140DA08E9B7D222FA9C1F1BA1F2AA122 DUP1 DUP3 MSTORE PUSH1 0x1 DUP6 DUP4 KECCAK256 ADD SWAP1 DUP3 DUP3 SLOAD SWAP3 SSTORE DUP4 DUP4 DUP1 LOG4 PUSH32 0x71840DC4906352362B0CDAF79870196C8E42ACAFADE72D5D5A6D59291253CEB1 DUP1 DUP4 MSTORE PUSH1 0x1 DUP5 DUP5 KECCAK256 ADD SWAP2 DUP4 DUP4 SLOAD SWAP4 SSTORE DUP4 DUP1 LOG4 MLOAD PUSH2 0x941 SWAP1 DUP2 PUSH2 0x213 DUP3 CODECOPY RETURN JUMPDEST DUP3 DUP1 MSTORE DUP3 DUP3 MSTORE DUP4 DUP4 KECCAK256 DUP2 DUP5 MSTORE DUP3 MSTORE DUP4 DUP4 KECCAK256 DUP1 SLOAD PUSH1 0xFF NOT AND PUSH1 0x1 OR SWAP1 SSTORE CALLER SWAP1 DUP4 PUSH32 0x2F8788117E7EFF1D82E926EC794901D17C78024A50270940304540A733656F0D DUP2 DUP1 LOG4 CODESIZE PUSH2 0x75 JUMP JUMPDEST PUSH1 0x0 DUP1 REVERT JUMPDEST PUSH4 0x4E487B71 PUSH1 0xE0 SHL PUSH1 0x0 MSTORE PUSH1 0x41 PUSH1 0x4 MSTORE PUSH1 0x24 PUSH1 0x0 REVERT INVALID PUSH1 0x80 PUSH1 0x40 DUP2 DUP2 MSTORE PUSH1 0x4 SWAP2 DUP3 CALLDATASIZE LT ISZERO PUSH2 0x16 JUMPI PUSH1 0x0 DUP1 REVERT JUMPDEST PUSH1 0x0 SWAP3 DUP4 CALLDATALOAD PUSH1 0xE0 SHR SWAP2 DUP3 PUSH4 0x1FFC9A7 EQ PUSH2 0x4A7 JUMPI POP DUP2 PUSH4 0x7E2CEA5 EQ PUSH2 0x46C JUMPI DUP2 PUSH4 0x21F8A721 EQ PUSH2 0x439 JUMPI DUP2 PUSH4 0x248A9CA3 EQ PUSH2 0x40F JUMPI DUP2 PUSH4 0x2F2FF15D EQ PUSH2 0x371 JUMPI DUP2 PUSH4 0x36568ABE EQ PUSH2 0x2E9 JUMPI DUP2 PUSH4 0x6CE76F30 EQ PUSH2 0x2AE JUMPI DUP2 PUSH4 0x82AEFA24 EQ PUSH2 0x273 JUMPI DUP2 PUSH4 0x91D14854 EQ PUSH2 0x239 JUMPI DUP2 PUSH4 0xA217FDDF EQ PUSH2 0x21E JUMPI DUP2 PUSH4 0xCA446DD9 EQ PUSH2 0x169 JUMPI POP DUP1 PUSH4 0xD547741F EQ PUSH2 0x136 JUMPI DUP1 PUSH4 0xF36C8F5C EQ PUSH2 0xFC JUMPI PUSH4 0xF5B541A6 EQ PUSH2 0xBF JUMPI PUSH1 0x0 DUP1 REVERT JUMPDEST CALLVALUE PUSH2 0xF8 JUMPI DUP2 PUSH1 0x3 NOT CALLDATASIZE ADD SLT PUSH2 0xF8 JUMPI PUSH1 0x20 SWAP1 MLOAD PUSH32 0x97667070C54EF182B0F5858B034BEAC1B6F3089AA2D3188BB1E8929F4FA9B929 DUP2 MSTORE RETURN JUMPDEST POP DUP1 REVERT JUMPDEST POP CALLVALUE PUSH2 0xF8 JUMPI DUP2 PUSH1 0x3 NOT CALLDATASIZE ADD SLT PUSH2 0xF8 JUMPI PUSH1 0x20 SWAP1 MLOAD PUSH32 0x71840DC4906352362B0CDAF79870196C8E42ACAFADE72D5D5A6D59291253CEB1 DUP2 MSTORE RETURN JUMPDEST POP CALLVALUE PUSH2 0xF8 JUMPI PUSH1 0x1 PUSH2 0x166 SWAP2 PUSH2 0x161 PUSH2 0x14E CALLDATASIZE PUSH2 0x4FA JUMP JUMPDEST SWAP4 SWAP1 SWAP3 DUP4 DUP8 MSTORE DUP7 PUSH1 0x20 MSTORE DUP7 KECCAK256 ADD SLOAD PUSH2 0x525 JUMP JUMPDEST PUSH2 0x870 JUMP JUMPDEST DUP1 RETURN JUMPDEST SWAP1 POP CALLVALUE PUSH2 0x21A JUMPI PUSH2 0x179 CALLDATASIZE PUSH2 0x4FA JUMP JUMPDEST SWAP3 SWAP1 SWAP2 DUP5 DUP1 MSTORE DUP5 PUSH1 0x20 MSTORE DUP2 DUP6 KECCAK256 CALLER DUP7 MSTORE PUSH1 0x20 MSTORE PUSH1 0xFF DUP3 DUP7 KECCAK256 SLOAD AND ISZERO PUSH2 0x1E6 JUMPI POP DUP2 DUP5 MSTORE PUSH1 0x1 PUSH1 0x20 MSTORE DUP4 KECCAK256 DUP1 SLOAD PUSH1 0x1 PUSH1 0x1 PUSH1 0xA0 SHL SUB NOT AND PUSH1 0x1 PUSH1 0x1 PUSH1 0xA0 SHL SUB SWAP1 SWAP4 AND SWAP3 DUP4 OR SWAP1 SSTORE PUSH32 0x2CDA763A9D7AE9241F22E221947F65E31E7CF58D79FF18E3BADD72ACF4BE1489 DUP4 DUP1 LOG3 DUP1 RETURN JUMPDEST PUSH1 0x20 PUSH1 0x64 SWAP3 MLOAD SWAP2 PUSH3 0x461BCD PUSH1 0xE5 SHL DUP4 MSTORE DUP3 ADD MSTORE PUSH1 0xF PUSH1 0x24 DUP3 ADD MSTORE PUSH15 0x524F4C453A41444D494E5F4F4E4C59 PUSH1 0x88 SHL PUSH1 0x44 DUP3 ADD MSTORE REVERT JUMPDEST DUP3 DUP1 REVERT JUMPDEST POP POP CALLVALUE PUSH2 0xF8 JUMPI DUP2 PUSH1 0x3 NOT CALLDATASIZE ADD SLT PUSH2 0xF8 JUMPI MLOAD SWAP1 DUP2 MSTORE PUSH1 0x20 SWAP1 RETURN JUMPDEST POP POP CALLVALUE PUSH2 0xF8 JUMPI PUSH1 0xFF DUP2 PUSH1 0x20 SWAP4 PUSH2 0x24F CALLDATASIZE PUSH2 0x4FA JUMP JUMPDEST SWAP1 DUP3 MSTORE DUP2 DUP7 MSTORE DUP3 DUP3 KECCAK256 PUSH1 0x1 PUSH1 0x1 PUSH1 0xA0 SHL SUB SWAP1 SWAP2 AND DUP3 MSTORE DUP6 MSTORE KECCAK256 SLOAD SWAP2 MLOAD SWAP2 AND ISZERO ISZERO DUP2 MSTORE RETURN JUMPDEST POP POP CALLVALUE PUSH2 0xF8 JUMPI DUP2 PUSH1 0x3 NOT CALLDATASIZE ADD SLT PUSH2 0xF8 JUMPI PUSH1 0x20 SWAP1 MLOAD PUSH32 0x114E74F6EA3BD819998F78687BFCB11B140DA08E9B7D222FA9C1F1BA1F2AA122 DUP2 MSTORE RETURN JUMPDEST POP POP CALLVALUE PUSH2 0xF8 JUMPI DUP2 PUSH1 0x3 NOT CALLDATASIZE ADD SLT PUSH2 0xF8 JUMPI PUSH1 0x20 SWAP1 MLOAD PUSH32 0x2FDAC322EE704CE09F0773F7F3F92EB98D5E7C836EE9C056CCCD5F61041E5E3F DUP2 MSTORE RETURN JUMPDEST DUP4 SWAP2 POP CALLVALUE PUSH2 0xF8 JUMPI PUSH2 0x2FA CALLDATASIZE PUSH2 0x4FA JUMP JUMPDEST SWAP2 CALLER PUSH1 0x1 PUSH1 0x1 PUSH1 0xA0 SHL SUB DUP5 AND SUB PUSH2 0x316 JUMPI POP SWAP1 PUSH2 0x166 SWAP2 PUSH2 0x870 JUMP JUMPDEST PUSH1 0x84 SWAP1 PUSH1 0x20 DUP7 MLOAD SWAP2 PUSH3 0x461BCD PUSH1 0xE5 SHL DUP4 MSTORE DUP3 ADD MSTORE PUSH1 0x2F PUSH1 0x24 DUP3 ADD MSTORE PUSH32 0x416363657373436F6E74726F6C3A2063616E206F6E6C792072656E6F756E6365 PUSH1 0x44 DUP3 ADD MSTORE PUSH15 0x103937B632B9903337B91039B2B633 PUSH1 0x89 SHL PUSH1 0x64 DUP3 ADD MSTORE REVERT JUMPDEST POP POP CALLVALUE PUSH2 0xF8 JUMPI PUSH2 0x381 CALLDATASIZE PUSH2 0x4FA JUMP JUMPDEST SWAP1 SWAP2 DUP3 DUP5 MSTORE DUP4 PUSH1 0x20 MSTORE PUSH2 0x399 PUSH1 0x1 DUP3 DUP7 KECCAK256 ADD SLOAD PUSH2 0x525 JUMP JUMPDEST DUP3 DUP5 MSTORE PUSH1 0x20 DUP5 DUP2 MSTORE DUP2 DUP6 KECCAK256 PUSH1 0x1 PUSH1 0x1 PUSH1 0xA0 SHL SUB SWAP1 SWAP4 AND DUP1 DUP7 MSTORE SWAP3 SWAP1 MSTORE DUP1 DUP5 KECCAK256 SLOAD PUSH1 0xFF AND ISZERO PUSH2 0x3C5 JUMPI DUP4 DUP1 RETURN JUMPDEST DUP3 DUP5 MSTORE DUP4 PUSH1 0x20 MSTORE DUP1 DUP5 KECCAK256 DUP3 DUP6 MSTORE PUSH1 0x20 MSTORE DUP4 KECCAK256 PUSH1 0x1 PUSH1 0xFF NOT DUP3 SLOAD AND OR SWAP1 SSTORE CALLER SWAP2 PUSH32 0x2F8788117E7EFF1D82E926EC794901D17C78024A50270940304540A733656F0D DUP5 DUP1 LOG4 CODESIZE DUP1 DUP1 DUP4 DUP1 RETURN JUMPDEST SWAP1 POP CALLVALUE PUSH2 0x21A JUMPI PUSH1 0x20 CALLDATASIZE PUSH1 0x3 NOT ADD SLT PUSH2 0x21A JUMPI DUP2 PUSH1 0x20 SWAP4 PUSH1 0x1 SWAP3 CALLDATALOAD DUP2 MSTORE DUP1 DUP6 MSTORE KECCAK256 ADD SLOAD SWAP1 MLOAD SWAP1 DUP2 MSTORE RETURN JUMPDEST SWAP1 POP CALLVALUE PUSH2 0x21A JUMPI PUSH1 0x20 CALLDATASIZE PUSH1 0x3 NOT ADD SLT PUSH2 0x21A JUMPI CALLDATALOAD DUP3 MSTORE PUSH1 0x1 PUSH1 0x20 SWAP1 DUP2 MSTORE SWAP2 DUP2 SWAP1 KECCAK256 SLOAD SWAP1 MLOAD PUSH1 0x1 PUSH1 0x1 PUSH1 0xA0 SHL SUB SWAP1 SWAP2 AND DUP2 MSTORE RETURN JUMPDEST POP POP CALLVALUE PUSH2 0xF8 JUMPI DUP2 PUSH1 0x3 NOT CALLDATASIZE ADD SLT PUSH2 0xF8 JUMPI PUSH1 0x20 SWAP1 MLOAD PUSH32 0x68E79A7BF1E0BC45D0A330C573BC367F9CF464FD326078812F301165FBDA4EF1 DUP2 MSTORE RETURN JUMPDEST DUP5 SWAP2 CALLVALUE PUSH2 0x21A JUMPI PUSH1 0x20 CALLDATASIZE PUSH1 0x3 NOT ADD SLT PUSH2 0x21A JUMPI CALLDATALOAD PUSH4 0xFFFFFFFF PUSH1 0xE0 SHL DUP2 AND DUP1 SWAP2 SUB PUSH2 0x21A JUMPI PUSH1 0x20 SWAP3 POP PUSH4 0x7965DB0B PUSH1 0xE0 SHL DUP2 EQ SWAP1 DUP2 ISZERO PUSH2 0x4E9 JUMPI JUMPDEST POP ISZERO ISZERO DUP2 MSTORE RETURN JUMPDEST PUSH4 0x1FFC9A7 PUSH1 0xE0 SHL EQ SWAP1 POP DUP4 PUSH2 0x4E2 JUMP JUMPDEST PUSH1 0x40 SWAP1 PUSH1 0x3 NOT ADD SLT PUSH2 0x520 JUMPI PUSH1 0x4 CALLDATALOAD SWAP1 PUSH1 0x24 CALLDATALOAD PUSH1 0x1 PUSH1 0x1 PUSH1 0xA0 SHL SUB DUP2 AND DUP2 SUB PUSH2 0x520 JUMPI SWAP1 JUMP JUMPDEST PUSH1 0x0 DUP1 REVERT JUMPDEST PUSH1 0x0 DUP2 DUP2 MSTORE PUSH1 0x20 SWAP2 DUP2 DUP4 MSTORE PUSH1 0x40 SWAP3 DUP4 DUP4 KECCAK256 CALLER DUP5 MSTORE DUP2 MSTORE PUSH1 0xFF DUP5 DUP5 KECCAK256 SLOAD AND ISZERO PUSH2 0x54D JUMPI POP POP POP POP JUMP JUMPDEST DUP4 MLOAD PUSH8 0xFFFFFFFFFFFFFFFF SWAP4 SWAP1 SWAP3 CALLER PUSH1 0x60 DUP6 ADD DUP7 DUP2 GT DUP7 DUP3 LT OR PUSH2 0x839 JUMPI DUP8 MSTORE PUSH1 0x2A DUP6 MSTORE DUP4 DUP6 ADD SWAP2 DUP8 CALLDATASIZE DUP5 CALLDATACOPY DUP6 MLOAD ISZERO PUSH2 0x825 JUMPI PUSH1 0x30 DUP4 MSTORE8 DUP6 MLOAD SWAP2 PUSH1 0x1 SWAP3 DUP4 LT ISZERO PUSH2 0x811 JUMPI PUSH1 0x78 PUSH1 0x21 DUP9 ADD MSTORE8 PUSH1 0x29 JUMPDEST DUP4 DUP2 GT PUSH2 0x7A7 JUMPI POP PUSH2 0x6D1 JUMPI DUP8 MLOAD SWAP1 PUSH1 0x80 DUP3 ADD DUP3 DUP2 LT DUP10 DUP3 GT OR PUSH2 0x793 JUMPI DUP10 MSTORE PUSH1 0x42 DUP3 MSTORE DUP6 DUP3 ADD SWAP3 PUSH1 0x60 CALLDATASIZE DUP6 CALLDATACOPY DUP3 MLOAD ISZERO PUSH2 0x77F JUMPI PUSH1 0x30 DUP5 MSTORE8 DUP3 MLOAD DUP2 LT ISZERO PUSH2 0x77F JUMPI PUSH1 0x78 PUSH1 0x21 DUP5 ADD MSTORE8 PUSH1 0x41 SWAP1 JUMPDEST DUP1 DUP3 GT PUSH2 0x713 JUMPI POP POP PUSH2 0x6D1 JUMPI SWAP2 PUSH2 0x666 SWAP5 SWAP4 SWAP2 DUP9 SWAP4 PUSH1 0x67 SWAP9 SWAP10 MLOAD SWAP7 DUP8 SWAP4 PUSH2 0x63C DUP9 DUP7 ADD SWAP11 PUSH32 0x416363657373436F6E74726F6C3A206163636F756E7420000000000000000000 DUP13 MSTORE MLOAD DUP1 SWAP3 PUSH1 0x37 DUP9 ADD SWAP1 PUSH2 0x84D JUMP JUMPDEST DUP5 ADD SWAP2 PUSH17 0x1034B99036B4B9B9B4B733903937B6329 PUSH1 0x7D SHL PUSH1 0x37 DUP5 ADD MSTORE MLOAD DUP1 SWAP4 PUSH1 0x48 DUP5 ADD SWAP1 PUSH2 0x84D JUMP JUMPDEST ADD SUB PUSH1 0x28 DUP2 ADD DUP6 MSTORE PUSH1 0x1F NOT SWAP7 DUP8 SWAP2 ADD AND DUP5 ADD SWAP7 DUP5 DUP9 LT SWAP1 DUP9 GT OR PUSH2 0x6BD JUMPI POP SWAP3 PUSH2 0x6B4 PUSH1 0x44 SWAP6 SWAP4 PUSH1 0x1F SWAP4 DUP9 DUP1 SWAP8 MSTORE PUSH3 0x461BCD PUSH1 0xE5 SHL DUP8 MSTORE PUSH1 0x4 DUP8 ADD MSTORE MLOAD DUP1 SWAP3 DUP2 PUSH1 0x24 DUP9 ADD MSTORE DUP8 DUP8 ADD SWAP1 PUSH2 0x84D JUMP JUMPDEST ADD AND DUP2 ADD SUB ADD SWAP1 REVERT JUMPDEST PUSH4 0x4E487B71 PUSH1 0xE0 SHL DUP2 MSTORE PUSH1 0x41 PUSH1 0x4 MSTORE PUSH1 0x24 SWAP1 REVERT JUMPDEST PUSH1 0x64 DUP6 DUP10 MLOAD SWAP1 PUSH3 0x461BCD PUSH1 0xE5 SHL DUP3 MSTORE DUP1 PUSH1 0x4 DUP4 ADD MSTORE PUSH1 0x24 DUP3 ADD MSTORE PUSH32 0x537472696E67733A20686578206C656E67746820696E73756666696369656E74 PUSH1 0x44 DUP3 ADD MSTORE REVERT JUMPDEST SWAP1 SWAP2 PUSH1 0xF DUP2 AND PUSH1 0x10 DUP2 LT ISZERO PUSH2 0x76B JUMPI PUSH16 0x181899199A1A9B1B9C1CB0B131B232B3 PUSH1 0x81 SHL SWAP1 BYTE PUSH2 0x742 DUP5 DUP7 PUSH2 0x8E4 JUMP JUMPDEST MSTORE8 PUSH1 0x4 SHR SWAP2 DUP1 ISZERO PUSH2 0x757 JUMPI PUSH1 0x0 NOT ADD SWAP1 PUSH2 0x5E7 JUMP JUMPDEST PUSH4 0x4E487B71 PUSH1 0xE0 SHL DUP8 MSTORE PUSH1 0x11 PUSH1 0x4 MSTORE PUSH1 0x24 DUP8 REVERT JUMPDEST PUSH4 0x4E487B71 PUSH1 0xE0 SHL DUP9 MSTORE PUSH1 0x32 PUSH1 0x4 MSTORE PUSH1 0x24 DUP9 REVERT JUMPDEST PUSH4 0x4E487B71 PUSH1 0xE0 SHL DUP7 MSTORE PUSH1 0x32 PUSH1 0x4 MSTORE PUSH1 0x24 DUP7 REVERT JUMPDEST PUSH4 0x4E487B71 PUSH1 0xE0 SHL DUP7 MSTORE PUSH1 0x41 PUSH1 0x4 MSTORE PUSH1 0x24 DUP7 REVERT JUMPDEST SWAP1 PUSH1 0xF DUP2 AND PUSH1 0x10 DUP2 LT ISZERO PUSH2 0x7FD JUMPI PUSH16 0x181899199A1A9B1B9C1CB0B131B232B3 PUSH1 0x81 SHL SWAP1 BYTE PUSH2 0x7D5 DUP4 DUP11 PUSH2 0x8E4 JUMP JUMPDEST MSTORE8 PUSH1 0x4 SHR SWAP1 DUP1 ISZERO PUSH2 0x7E9 JUMPI PUSH1 0x0 NOT ADD PUSH2 0x59B JUMP JUMPDEST PUSH4 0x4E487B71 PUSH1 0xE0 SHL DUP7 MSTORE PUSH1 0x11 PUSH1 0x4 MSTORE PUSH1 0x24 DUP7 REVERT JUMPDEST PUSH4 0x4E487B71 PUSH1 0xE0 SHL DUP8 MSTORE PUSH1 0x32 PUSH1 0x4 MSTORE PUSH1 0x24 DUP8 REVERT JUMPDEST PUSH4 0x4E487B71 PUSH1 0xE0 SHL DUP6 MSTORE PUSH1 0x32 PUSH1 0x4 MSTORE PUSH1 0x24 DUP6 REVERT JUMPDEST PUSH4 0x4E487B71 PUSH1 0xE0 SHL DUP5 MSTORE PUSH1 0x32 PUSH1 0x4 MSTORE PUSH1 0x24 DUP5 REVERT JUMPDEST PUSH4 0x4E487B71 PUSH1 0xE0 SHL DUP5 MSTORE PUSH1 0x41 PUSH1 0x4 MSTORE PUSH1 0x24 DUP5 REVERT JUMPDEST PUSH1 0x0 JUMPDEST DUP4 DUP2 LT PUSH2 0x860 JUMPI POP POP PUSH1 0x0 SWAP2 ADD MSTORE JUMP JUMPDEST DUP2 DUP2 ADD MLOAD DUP4 DUP3 ADD MSTORE PUSH1 0x20 ADD PUSH2 0x850 JUMP JUMPDEST SWAP1 PUSH1 0x0 SWAP2 DUP1 DUP4 MSTORE DUP3 PUSH1 0x20 MSTORE PUSH1 0x40 DUP4 KECCAK256 SWAP2 PUSH1 0x1 DUP1 PUSH1 0xA0 SHL SUB AND SWAP2 DUP3 DUP5 MSTORE PUSH1 0x20 MSTORE PUSH1 0xFF PUSH1 0x40 DUP5 KECCAK256 SLOAD AND PUSH2 0x8A0 JUMPI POP POP POP JUMP JUMPDEST DUP1 DUP4 MSTORE DUP3 PUSH1 0x20 MSTORE PUSH1 0x40 DUP4 KECCAK256 DUP3 DUP5 MSTORE PUSH1 0x20 MSTORE PUSH1 0x40 DUP4 KECCAK256 PUSH1 0xFF NOT DUP2 SLOAD AND SWAP1 SSTORE PUSH32 0xF6391F5C32D9C69D2A47EA670B442974B53935D1EDC7FD64EB21E047A839171B CALLER SWAP4 DUP1 LOG4 JUMP JUMPDEST SWAP1 DUP2 MLOAD DUP2 LT ISZERO PUSH2 0x8F5 JUMPI ADD PUSH1 0x20 ADD SWAP1 JUMP JUMPDEST PUSH4 0x4E487B71 PUSH1 0xE0 SHL PUSH1 0x0 MSTORE PUSH1 0x32 PUSH1 0x4 MSTORE PUSH1 0x24 PUSH1 0x0 REVERT INVALID LOG2 PUSH5 0x6970667358 0x22 SLT KECCAK256 CODECOPY 0xB8 0xA6 0x4E 0x1E LOG2 SWAP2 PUSH13 0x73A7F962C43F21F8D05B2934AA 0xFB 0xBE GT 0xD 0xE3 CODECOPY 0xA5 PUSH30 0xDA92BE64736F6C6343000814003300000000000000000000000000000000 "},"methodIdentifiers":{"DEFAULT_ADMIN_ROLE()":"a217fddf","ESCROW_ROLE()":"6ce76f30","GOVERNANCE_ROLE()":"f36c8f5c","ISSUER_ROLE()":"82aefa24","OPERATOR_ROLE()":"f5b541a6","ORACLE_ROLE()":"07e2cea5","getAddress(bytes32)":"21f8a721","getRoleAdmin(bytes32)":"248a9ca3","grantRole(bytes32,address)":"2f2ff15d","hasRole(bytes32,address)":"91d14854","renounceRole(bytes32,address)":"36568abe","revokeRole(bytes32,address)":"d547741f","setAddress(bytes32,address)":"ca446dd9","supportsInterface(bytes4)":"01ffc9a7"}}}}}