{"contracts/stablecoin/StablecoinBridge.sol":{"StablecoinBridge":{"abi":[{"inputs":[{"internalType":"address","name":"admin","type":"address"},{"internalType":"contract IERC20","name":"_stablecoin","type":"address"},{"internalType":"uint256","name":"initialRate","type":"uint256"}],"stateMutability":"nonpayable","type":"constructor"},{"anonymous":false,"inputs":[{"indexed":false,"internalType":"uint256","name":"newRate","type":"uint256"}],"name":"ExchangeRateUpdated","type":"event"},{"anonymous":false,"inputs":[{"indexed":true,"internalType":"address","name":"user","type":"address"},{"indexed":false,"internalType":"uint256","name":"amountFiat","type":"uint256"},{"indexed":false,"internalType":"uint256","name":"amountMinted","type":"uint256"},{"indexed":false,"internalType":"bytes","name":"proofHash","type":"bytes"}],"name":"FiatDeposited","type":"event"},{"anonymous":false,"inputs":[{"indexed":true,"internalType":"bytes32","name":"role","type":"bytes32"},{"indexed":true,"internalType":"bytes32","name":"previousAdminRole","type":"bytes32"},{"indexed":true,"internalType":"bytes32","name":"newAdminRole","type":"bytes32"}],"name":"RoleAdminChanged","type":"event"},{"anonymous":false,"inputs":[{"indexed":true,"internalType":"bytes32","name":"role","type":"bytes32"},{"indexed":true,"internalType":"address","name":"account","type":"address"},{"indexed":true,"internalType":"address","name":"sender","type":"address"}],"name":"RoleGranted","type":"event"},{"anonymous":false,"inputs":[{"indexed":true,"internalType":"bytes32","name":"role","type":"bytes32"},{"indexed":true,"internalType":"address","name":"account","type":"address"},{"indexed":true,"internalType":"address","name":"sender","type":"address"}],"name":"RoleRevoked","type":"event"},{"anonymous":false,"inputs":[{"indexed":true,"internalType":"address","name":"user","type":"address"},{"indexed":false,"internalType":"uint256","name":"amountStable","type":"uint256"},{"indexed":false,"internalType":"uint256","name":"amountFiat","type":"uint256"},{"indexed":false,"internalType":"bytes","name":"proofHash","type":"bytes"}],"name":"StableWithdrawn","type":"event"},{"inputs":[],"name":"DEFAULT_ADMIN_ROLE","outputs":[{"internalType":"bytes32","name":"","type":"bytes32"}],"stateMutability":"view","type":"function"},{"inputs":[],"name":"ESCROW_ROLE","outputs":[{"internalType":"bytes32","name":"","type":"bytes32"}],"stateMutability":"view","type":"function"},{"inputs":[],"name":"GOVERNANCE_ROLE","outputs":[{"internalType":"bytes32","name":"","type":"bytes32"}],"stateMutability":"view","type":"function"},{"inputs":[],"name":"ISSUER_ROLE","outputs":[{"internalType":"bytes32","name":"","type":"bytes32"}],"stateMutability":"view","type":"function"},{"inputs":[],"name":"OPERATOR_ROLE","outputs":[{"internalType":"bytes32","name":"","type":"bytes32"}],"stateMutability":"view","type":"function"},{"inputs":[],"name":"ORACLE_ROLE","outputs":[{"internalType":"bytes32","name":"","type":"bytes32"}],"stateMutability":"view","type":"function"},{"inputs":[{"internalType":"address","name":"to","type":"address"},{"internalType":"uint256","name":"amountFiat","type":"uint256"},{"internalType":"bytes","name":"proof","type":"bytes"}],"name":"depositFiatProof","outputs":[],"stateMutability":"nonpayable","type":"function"},{"inputs":[],"name":"exchangeRate","outputs":[{"internalType":"uint256","name":"","type":"uint256"}],"stateMutability":"view","type":"function"},{"inputs":[{"internalType":"bytes32","name":"role","type":"bytes32"}],"name":"getRoleAdmin","outputs":[{"internalType":"bytes32","name":"","type":"bytes32"}],"stateMutability":"view","type":"function"},{"inputs":[{"internalType":"bytes32","name":"role","type":"bytes32"},{"internalType":"address","name":"account","type":"address"}],"name":"grantRole","outputs":[],"stateMutability":"nonpayable","type":"function"},{"inputs":[{"internalType":"bytes32","name":"role","type":"bytes32"},{"internalType":"address","name":"account","type":"address"}],"name":"hasRole","outputs":[{"internalType":"bool","name":"","type":"bool"}],"stateMutability":"view","type":"function"},{"inputs":[{"internalType":"bytes32","name":"role","type":"bytes32"},{"internalType":"address","name":"account","type":"address"}],"name":"renounceRole","outputs":[],"stateMutability":"nonpayable","type":"function"},{"inputs":[{"internalType":"bytes32","name":"role","type":"bytes32"},{"internalType":"address","name":"account","type":"address"}],"name":"revokeRole","outputs":[],"stateMutability":"nonpayable","type":"function"},{"inputs":[{"internalType":"uint256","name":"newRate","type":"uint256"}],"name":"setExchangeRate","outputs":[],"stateMutability":"nonpayable","type":"function"},{"inputs":[],"name":"stablecoin","outputs":[{"internalType":"contract IERC20","name":"","type":"address"}],"stateMutability":"view","type":"function"},{"inputs":[{"internalType":"bytes4","name":"interfaceId","type":"bytes4"}],"name":"supportsInterface","outputs":[{"internalType":"bool","name":"","type":"bool"}],"stateMutability":"view","type":"function"},{"inputs":[{"internalType":"address","name":"from","type":"address"},{"internalType":"uint256","name":"amountStable","type":"uint256"},{"internalType":"bytes","name":"proof","type":"bytes"}],"name":"withdrawStable","outputs":[],"stateMutability":"nonpayable","type":"function"}],"evm":{"bytecode":{"linkReferences":{},"object":"60a03461022557601f61102838819003918201601f191683019291906001600160401b0384118385101761022a5781606092849260409687528339810103126102255780516001600160a01b038082169291839003610225576020918281015191821682036102255784015192600090818052818452858220818352845260ff8683205416156101dc575b50807f97667070c54ef182b0f5858b034beac1b6f3089aa2d3188bb1e8929f4fa9b929938482525260019281848782200181815491557fbd79b86ffe0ab8e8776151514217cd7cacd52c909f66475c3af44e129f0b00ff92838380a4817f2fdac322ee704ce09f0773f7f3f92eb98d5e7c836ee9c056cccd5f61041e5e3f8082528588832001908282549255838380a4817f68e79a7bf1e0bc45d0a330c573bc367f9cf464fd326078812f301165fbda4ef18082528588832001908282549255838380a4817f114e74f6ea3bd819998f78687bfcb11b140da08e9b7d222fa9c1f1ba1f2aa1228082528588832001908282549255838380a47f71840dc4906352362b0cdaf79870196c8e42acafade72d5d5a6d59291253ceb180835284878420019183835493558380a46080525551610de7908161024182396080518181816101590152818161033301526105150152f35b8180528184528582208183528452858220805460ff191660011790553390827f2f8788117e7eff1d82e926ec794901d17c78024a50270940304540a733656f0d8180a43861008a565b600080fd5b634e487b7160e01b600052604160045260246000fdfe608060408181526004918236101561001657600080fd5b600092833560e01c91826301ffc9a7146107b85750816307e2cea51461077d578163248a9ca3146107535781632f2ff15d146106aa57816336568abe146106185781633ba0b9a9146105f95781636ce76f30146105be5781637822de861461047a57816382aefa241461043f57816391d14854146103f957816398195e4f14610291578163a217fddf14610276578163d547741f14610238578163db068e0e1461018857508063e9cbd82214610145578063f36c8f5c1461010b5763f5b541a6146100e057600080fd5b3461010757816003193601126101075760209051600080516020610d928339815191528152f35b5080fd5b5034610107578160031936011261010757602090517f71840dc4906352362b0cdaf79870196c8e42acafade72d5d5a6d59291253ceb18152f35b5034610107578160031936011261010757517f00000000000000000000000000000000000000000000000000000000000000006001600160a01b03168152602090f35b9190503461023457602036600319011261023457813591600080516020610d928339815191528452836020528184203385526020526101cc60ff8386205416610cc9565b82156102045750816020917f388f446e9526fe5c9af20a5919b342370c8a7c0cb05245afe1e545658fa3cdba9360015551908152a180f35b6020606492519162461bcd60e51b8352820152600b60248201526a4252494447453a5241544560a81b6044820152fd5b8280fd5b91905034610234578060031936011261023457610273913561026e600161025d61080b565b938387528660205286200154610888565b610c2e565b80f35b50503461010757816003193601126101075751908152602090f35b905034610234576102a136610826565b90600080516020610d928339815191528752866020528587203388526020526102cf60ff8789205416610cc9565b82156102db8115610d0a565b670de0b6b3a764000090818502918583041417156103e6576001549081156103d357875163a9059cbb60e01b81526001600160a01b039687169781018890529190046024820181905294602090829060449082908c907f0000000000000000000000000000000000000000000000000000000000000000165af180156103c957966103959392917fce9d5cba49cf569985d4cd5e93ff106b44d6d2ad14af71bb9588971e8cfee404979861039b575b505194859485610d5e565b0390a280f35b6103bb9060203d81116103c2575b6103b38183610bf6565b810190610d46565b503861038a565b503d6103a9565b87513d8a823e3d90fd5b634e487b7160e01b895260128752602489fd5b634e487b7160e01b885260118652602488fd5b9050346102345781600319360112610234578160209360ff9261041a61080b565b903582528186528282206001600160a01b039091168252855220549151911615158152f35b505034610107578160031936011261010757602090517f114e74f6ea3bd819998f78687bfcb11b140da08e9b7d222fa9c1f1ba1f2aa1228152f35b919050346102345761048b36610826565b9293600080516020610d928339815191528793929352866020528087203388526020526104bd60ff8289205416610cc9565b8115946104ca8615610d0a565b60015495868402968488041417156105ab5781516323b872dd60e01b81526001600160a01b039182169781018890523060248201526044810184905290602090829060649082908c907f0000000000000000000000000000000000000000000000000000000000000000165af180156105a15792670de0b6b3a764000095927f197fd69c14165d2e29d23c649dd074b01ef6401307fbbd7459a3807bc6a761a297959261039595610583575b5051958695049085610d5e565b61059a9060203d81116103c2576103b38183610bf6565b5038610576565b82513d8a823e3d90fd5b634e487b7160e01b885260118752602488fd5b505034610107578160031936011261010757602090517f2fdac322ee704ce09f0773f7f3f92eb98d5e7c836ee9c056cccd5f61041e5e3f8152f35b5050346101075781600319360112610107576020906001549051908152f35b8391503461010757826003193601126101075761063361080b565b90336001600160a01b0383160361064f57906102739135610c2e565b608490602085519162461bcd60e51b8352820152602f60248201527f416363657373436f6e74726f6c3a2063616e206f6e6c792072656e6f756e636560448201526e103937b632b9903337b91039b2b63360891b6064820152fd5b90503461023457816003193601126102345735906106c661080b565b90828452836020526106dd60018286200154610888565b82845260208481528185206001600160a01b039093168086529290528084205460ff1615610709578380f35b828452836020528084208285526020528320600160ff1982541617905533917f2f8788117e7eff1d82e926ec794901d17c78024a50270940304540a733656f0d8480a43880808380f35b90503461023457602036600319011261023457816020936001923581528085522001549051908152f35b505034610107578160031936011261010757602090517f68e79a7bf1e0bc45d0a330c573bc367f9cf464fd326078812f301165fbda4ef18152f35b849134610234576020366003190112610234573563ffffffff60e01b81168091036102345760209250637965db0b60e01b81149081156107fa575b5015158152f35b6301ffc9a760e01b149050836107f3565b602435906001600160a01b038216820361082157565b600080fd5b906060600319830112610821576004356001600160a01b038116810361082157916024359160443567ffffffffffffffff9283821161082157806023830112156108215781600401359384116108215760248483010111610821576024019190565b600090808252602090828252604090818420338552835260ff8285205416156108b15750505050565b81519367ffffffffffffffff336060870182811188821017610bbf578552602a87528587019385368637875115610bab5760308553875191600192831015610b9757607860218a015360295b838111610b2d5750610aeb5790855192608084019084821090821117610ad757865260428352868301936060368637835115610ac357603085538351821015610ac35790607860218501536041915b818311610a5557505050610a1357926109e160486109d29794610a05946044989785519a8b936109a98b86019a7f416363657373436f6e74726f6c3a206163636f756e74200000000000000000008c525180926037880190610bd3565b8401917001034b99036b4b9b9b4b733903937b6329607d1b603784015251809386840190610bd3565b01036028810189520187610bf6565b5194859362461bcd60e51b8552600485015251809281602486015285850190610bd3565b601f01601f19168101030190fd5b60648585519062461bcd60e51b825280600483015260248201527f537472696e67733a20686578206c656e67746820696e73756666696369656e746044820152fd5b909192600f81166010811015610aaf576f181899199a1a9b1b9c1cb0b131b232b360811b901a610a858587610ca2565b5360041c928015610a9b5760001901919061094c565b634e487b7160e01b82526011600452602482fd5b634e487b7160e01b83526032600452602483fd5b634e487b7160e01b81526032600452602490fd5b634e487b7160e01b85526041600452602485fd5b60648787519062461bcd60e51b825280600483015260248201527f537472696e67733a20686578206c656e67746820696e73756666696369656e746044820152fd5b90600f81166010811015610b83576f181899199a1a9b1b9c1cb0b131b232b360811b901a610b5b838c610ca2565b5360041c908015610b6f57600019016108fd565b634e487b7160e01b86526011600452602486fd5b634e487b7160e01b87526032600452602487fd5b634e487b7160e01b85526032600452602485fd5b634e487b7160e01b84526032600452602484fd5b634e487b7160e01b84526041600452602484fd5b60005b838110610be65750506000910152565b8181015183820152602001610bd6565b90601f8019910116810190811067ffffffffffffffff821117610c1857604052565b634e487b7160e01b600052604160045260246000fd5b9060009180835282602052604083209160018060a01b03169182845260205260ff604084205416610c5e57505050565b80835282602052604083208284526020526040832060ff1981541690557ff6391f5c32d9c69d2a47ea670b442974b53935d1edc7fd64eb21e047a839171b339380a4565b908151811015610cb3570160200190565b634e487b7160e01b600052603260045260246000fd5b15610cd057565b60405162461bcd60e51b8152602060048201526012602482015271524f4c453a4f50455241544f525f4f4e4c5960701b6044820152606490fd5b15610d1157565b60405162461bcd60e51b815260206004820152600d60248201526c1094925111d14e905353d55395609a1b6044820152606490fd5b90816020910312610821575180151581036108215790565b928492608095928552602085015260606040850152816060850152848401376000828201840152601f01601f191601019056fe97667070c54ef182b0f5858b034beac1b6f3089aa2d3188bb1e8929f4fa9b929a26469706673582212204b6ef361b8045594fe2d5a13e6c25e09a71802f37a1d12ff695ee46b226533b864736f6c63430008140033","opcodes":"PUSH1 0xA0 CALLVALUE PUSH2 0x225 JUMPI PUSH1 0x1F PUSH2 0x1028 CODESIZE DUP2 SWAP1 SUB SWAP2 DUP3 ADD PUSH1 0x1F NOT AND DUP4 ADD SWAP3 SWAP2 SWAP1 PUSH1 0x1 PUSH1 0x1 PUSH1 0x40 SHL SUB DUP5 GT DUP4 DUP6 LT OR PUSH2 0x22A JUMPI DUP2 PUSH1 0x60 SWAP3 DUP5 SWAP3 PUSH1 0x40 SWAP7 DUP8 MSTORE DUP4 CODECOPY DUP2 ADD SUB SLT PUSH2 0x225 JUMPI DUP1 MLOAD PUSH1 0x1 PUSH1 0x1 PUSH1 0xA0 SHL SUB DUP1 DUP3 AND SWAP3 SWAP2 DUP4 SWAP1 SUB PUSH2 0x225 JUMPI PUSH1 0x20 SWAP2 DUP3 DUP2 ADD MLOAD SWAP2 DUP3 AND DUP3 SUB PUSH2 0x225 JUMPI DUP5 ADD MLOAD SWAP3 PUSH1 0x0 SWAP1 DUP2 DUP1 MSTORE DUP2 DUP5 MSTORE DUP6 DUP3 KECCAK256 DUP2 DUP4 MSTORE DUP5 MSTORE PUSH1 0xFF DUP7 DUP4 KECCAK256 SLOAD AND ISZERO PUSH2 0x1DC JUMPI JUMPDEST POP DUP1 PUSH32 0x97667070C54EF182B0F5858B034BEAC1B6F3089AA2D3188BB1E8929F4FA9B929 SWAP4 DUP5 DUP3 MSTORE MSTORE PUSH1 0x1 SWAP3 DUP2 DUP5 DUP8 DUP3 KECCAK256 ADD DUP2 DUP2 SLOAD SWAP2 SSTORE PUSH32 0xBD79B86FFE0AB8E8776151514217CD7CACD52C909F66475C3AF44E129F0B00FF SWAP3 DUP4 DUP4 DUP1 LOG4 DUP2 PUSH32 0x2FDAC322EE704CE09F0773F7F3F92EB98D5E7C836EE9C056CCCD5F61041E5E3F DUP1 DUP3 MSTORE DUP6 DUP9 DUP4 KECCAK256 ADD SWAP1 DUP3 DUP3 SLOAD SWAP3 SSTORE DUP4 DUP4 DUP1 LOG4 DUP2 PUSH32 0x68E79A7BF1E0BC45D0A330C573BC367F9CF464FD326078812F301165FBDA4EF1 DUP1 DUP3 MSTORE DUP6 DUP9 DUP4 KECCAK256 ADD SWAP1 DUP3 DUP3 SLOAD SWAP3 SSTORE DUP4 DUP4 DUP1 LOG4 DUP2 PUSH32 0x114E74F6EA3BD819998F78687BFCB11B140DA08E9B7D222FA9C1F1BA1F2AA122 DUP1 DUP3 MSTORE DUP6 DUP9 DUP4 KECCAK256 ADD SWAP1 DUP3 DUP3 SLOAD SWAP3 SSTORE DUP4 DUP4 DUP1 LOG4 PUSH32 0x71840DC4906352362B0CDAF79870196C8E42ACAFADE72D5D5A6D59291253CEB1 DUP1 DUP4 MSTORE DUP5 DUP8 DUP5 KECCAK256 ADD SWAP2 DUP4 DUP4 SLOAD SWAP4 SSTORE DUP4 DUP1 LOG4 PUSH1 0x80 MSTORE SSTORE MLOAD PUSH2 0xDE7 SWAP1 DUP2 PUSH2 0x241 DUP3 CODECOPY PUSH1 0x80 MLOAD DUP2 DUP2 DUP2 PUSH2 0x159 ADD MSTORE DUP2 DUP2 PUSH2 0x333 ADD MSTORE PUSH2 0x515 ADD MSTORE RETURN JUMPDEST DUP2 DUP1 MSTORE DUP2 DUP5 MSTORE DUP6 DUP3 KECCAK256 DUP2 DUP4 MSTORE DUP5 MSTORE DUP6 DUP3 KECCAK256 DUP1 SLOAD PUSH1 0xFF NOT AND PUSH1 0x1 OR SWAP1 SSTORE CALLER SWAP1 DUP3 PUSH32 0x2F8788117E7EFF1D82E926EC794901D17C78024A50270940304540A733656F0D DUP2 DUP1 LOG4 CODESIZE PUSH2 0x8A JUMP JUMPDEST PUSH1 0x0 DUP1 REVERT JUMPDEST PUSH4 0x4E487B71 PUSH1 0xE0 SHL PUSH1 0x0 MSTORE PUSH1 0x41 PUSH1 0x4 MSTORE PUSH1 0x24 PUSH1 0x0 REVERT INVALID PUSH1 0x80 PUSH1 0x40 DUP2 DUP2 MSTORE PUSH1 0x4 SWAP2 DUP3 CALLDATASIZE LT ISZERO PUSH2 0x16 JUMPI PUSH1 0x0 DUP1 REVERT JUMPDEST PUSH1 0x0 SWAP3 DUP4 CALLDATALOAD PUSH1 0xE0 SHR SWAP2 DUP3 PUSH4 0x1FFC9A7 EQ PUSH2 0x7B8 JUMPI POP DUP2 PUSH4 0x7E2CEA5 EQ PUSH2 0x77D JUMPI DUP2 PUSH4 0x248A9CA3 EQ PUSH2 0x753 JUMPI DUP2 PUSH4 0x2F2FF15D EQ PUSH2 0x6AA JUMPI DUP2 PUSH4 0x36568ABE EQ PUSH2 0x618 JUMPI DUP2 PUSH4 0x3BA0B9A9 EQ PUSH2 0x5F9 JUMPI DUP2 PUSH4 0x6CE76F30 EQ PUSH2 0x5BE JUMPI DUP2 PUSH4 0x7822DE86 EQ PUSH2 0x47A JUMPI DUP2 PUSH4 0x82AEFA24 EQ PUSH2 0x43F JUMPI DUP2 PUSH4 0x91D14854 EQ PUSH2 0x3F9 JUMPI DUP2 PUSH4 0x98195E4F EQ PUSH2 0x291 JUMPI DUP2 PUSH4 0xA217FDDF EQ PUSH2 0x276 JUMPI DUP2 PUSH4 0xD547741F EQ PUSH2 0x238 JUMPI DUP2 PUSH4 0xDB068E0E EQ PUSH2 0x188 JUMPI POP DUP1 PUSH4 0xE9CBD822 EQ PUSH2 0x145 JUMPI DUP1 PUSH4 0xF36C8F5C EQ PUSH2 0x10B JUMPI PUSH4 0xF5B541A6 EQ PUSH2 0xE0 JUMPI PUSH1 0x0 DUP1 REVERT JUMPDEST CALLVALUE PUSH2 0x107 JUMPI DUP2 PUSH1 0x3 NOT CALLDATASIZE ADD SLT PUSH2 0x107 JUMPI PUSH1 0x20 SWAP1 MLOAD PUSH1 0x0 DUP1 MLOAD PUSH1 0x20 PUSH2 0xD92 DUP4 CODECOPY DUP2 MLOAD SWAP2 MSTORE DUP2 MSTORE RETURN JUMPDEST POP DUP1 REVERT JUMPDEST POP CALLVALUE PUSH2 0x107 JUMPI DUP2 PUSH1 0x3 NOT CALLDATASIZE ADD SLT PUSH2 0x107 JUMPI PUSH1 0x20 SWAP1 MLOAD PUSH32 0x71840DC4906352362B0CDAF79870196C8E42ACAFADE72D5D5A6D59291253CEB1 DUP2 MSTORE RETURN JUMPDEST POP CALLVALUE PUSH2 0x107 JUMPI DUP2 PUSH1 0x3 NOT CALLDATASIZE ADD SLT PUSH2 0x107 JUMPI MLOAD PUSH32 0x0 PUSH1 0x1 PUSH1 0x1 PUSH1 0xA0 SHL SUB AND DUP2 MSTORE PUSH1 0x20 SWAP1 RETURN JUMPDEST SWAP2 SWAP1 POP CALLVALUE PUSH2 0x234 JUMPI PUSH1 0x20 CALLDATASIZE PUSH1 0x3 NOT ADD SLT PUSH2 0x234 JUMPI DUP2 CALLDATALOAD SWAP2 PUSH1 0x0 DUP1 MLOAD PUSH1 0x20 PUSH2 0xD92 DUP4 CODECOPY DUP2 MLOAD SWAP2 MSTORE DUP5 MSTORE DUP4 PUSH1 0x20 MSTORE DUP2 DUP5 KECCAK256 CALLER DUP6 MSTORE PUSH1 0x20 MSTORE PUSH2 0x1CC PUSH1 0xFF DUP4 DUP7 KECCAK256 SLOAD AND PUSH2 0xCC9 JUMP JUMPDEST DUP3 ISZERO PUSH2 0x204 JUMPI POP DUP2 PUSH1 0x20 SWAP2 PUSH32 0x388F446E9526FE5C9AF20A5919B342370C8A7C0CB05245AFE1E545658FA3CDBA SWAP4 PUSH1 0x1 SSTORE MLOAD SWAP1 DUP2 MSTORE LOG1 DUP1 RETURN JUMPDEST PUSH1 0x20 PUSH1 0x64 SWAP3 MLOAD SWAP2 PUSH3 0x461BCD PUSH1 0xE5 SHL DUP4 MSTORE DUP3 ADD MSTORE PUSH1 0xB PUSH1 0x24 DUP3 ADD MSTORE PUSH11 0x4252494447453A52415445 PUSH1 0xA8 SHL PUSH1 0x44 DUP3 ADD MSTORE REVERT JUMPDEST DUP3 DUP1 REVERT JUMPDEST SWAP2 SWAP1 POP CALLVALUE PUSH2 0x234 JUMPI DUP1 PUSH1 0x3 NOT CALLDATASIZE ADD SLT PUSH2 0x234 JUMPI PUSH2 0x273 SWAP2 CALLDATALOAD PUSH2 0x26E PUSH1 0x1 PUSH2 0x25D PUSH2 0x80B JUMP JUMPDEST SWAP4 DUP4 DUP8 MSTORE DUP7 PUSH1 0x20 MSTORE DUP7 KECCAK256 ADD SLOAD PUSH2 0x888 JUMP JUMPDEST PUSH2 0xC2E JUMP JUMPDEST DUP1 RETURN JUMPDEST POP POP CALLVALUE PUSH2 0x107 JUMPI DUP2 PUSH1 0x3 NOT CALLDATASIZE ADD SLT PUSH2 0x107 JUMPI MLOAD SWAP1 DUP2 MSTORE PUSH1 0x20 SWAP1 RETURN JUMPDEST SWAP1 POP CALLVALUE PUSH2 0x234 JUMPI PUSH2 0x2A1 CALLDATASIZE PUSH2 0x826 JUMP JUMPDEST SWAP1 PUSH1 0x0 DUP1 MLOAD PUSH1 0x20 PUSH2 0xD92 DUP4 CODECOPY DUP2 MLOAD SWAP2 MSTORE DUP8 MSTORE DUP7 PUSH1 0x20 MSTORE DUP6 DUP8 KECCAK256 CALLER DUP9 MSTORE PUSH1 0x20 MSTORE PUSH2 0x2CF PUSH1 0xFF DUP8 DUP10 KECCAK256 SLOAD AND PUSH2 0xCC9 JUMP JUMPDEST DUP3 ISZERO PUSH2 0x2DB DUP2 ISZERO PUSH2 0xD0A JUMP JUMPDEST PUSH8 0xDE0B6B3A7640000 SWAP1 DUP2 DUP6 MUL SWAP2 DUP6 DUP4 DIV EQ OR ISZERO PUSH2 0x3E6 JUMPI PUSH1 0x1 SLOAD SWAP1 DUP2 ISZERO PUSH2 0x3D3 JUMPI DUP8 MLOAD PUSH4 0xA9059CBB PUSH1 0xE0 SHL DUP2 MSTORE PUSH1 0x1 PUSH1 0x1 PUSH1 0xA0 SHL SUB SWAP7 DUP8 AND SWAP8 DUP2 ADD DUP9 SWAP1 MSTORE SWAP2 SWAP1 DIV PUSH1 0x24 DUP3 ADD DUP2 SWAP1 MSTORE SWAP5 PUSH1 0x20 SWAP1 DUP3 SWAP1 PUSH1 0x44 SWAP1 DUP3 SWAP1 DUP13 SWAP1 PUSH32 0x0 AND GAS CALL DUP1 ISZERO PUSH2 0x3C9 JUMPI SWAP7 PUSH2 0x395 SWAP4 SWAP3 SWAP2 PUSH32 0xCE9D5CBA49CF569985D4CD5E93FF106B44D6D2AD14AF71BB9588971E8CFEE404 SWAP8 SWAP9 PUSH2 0x39B JUMPI JUMPDEST POP MLOAD SWAP5 DUP6 SWAP5 DUP6 PUSH2 0xD5E JUMP JUMPDEST SUB SWAP1 LOG2 DUP1 RETURN JUMPDEST PUSH2 0x3BB SWAP1 PUSH1 0x20 RETURNDATASIZE DUP2 GT PUSH2 0x3C2 JUMPI JUMPDEST PUSH2 0x3B3 DUP2 DUP4 PUSH2 0xBF6 JUMP JUMPDEST DUP2 ADD SWAP1 PUSH2 0xD46 JUMP JUMPDEST POP CODESIZE PUSH2 0x38A JUMP JUMPDEST POP RETURNDATASIZE PUSH2 0x3A9 JUMP JUMPDEST DUP8 MLOAD RETURNDATASIZE DUP11 DUP3 RETURNDATACOPY RETURNDATASIZE SWAP1 REVERT JUMPDEST PUSH4 0x4E487B71 PUSH1 0xE0 SHL DUP10 MSTORE PUSH1 0x12 DUP8 MSTORE PUSH1 0x24 DUP10 REVERT JUMPDEST PUSH4 0x4E487B71 PUSH1 0xE0 SHL DUP9 MSTORE PUSH1 0x11 DUP7 MSTORE PUSH1 0x24 DUP9 REVERT JUMPDEST SWAP1 POP CALLVALUE PUSH2 0x234 JUMPI DUP2 PUSH1 0x3 NOT CALLDATASIZE ADD SLT PUSH2 0x234 JUMPI DUP2 PUSH1 0x20 SWAP4 PUSH1 0xFF SWAP3 PUSH2 0x41A PUSH2 0x80B JUMP JUMPDEST SWAP1 CALLDATALOAD DUP3 MSTORE DUP2 DUP7 MSTORE DUP3 DUP3 KECCAK256 PUSH1 0x1 PUSH1 0x1 PUSH1 0xA0 SHL SUB SWAP1 SWAP2 AND DUP3 MSTORE DUP6 MSTORE KECCAK256 SLOAD SWAP2 MLOAD SWAP2 AND ISZERO ISZERO DUP2 MSTORE RETURN JUMPDEST POP POP CALLVALUE PUSH2 0x107 JUMPI DUP2 PUSH1 0x3 NOT CALLDATASIZE ADD SLT PUSH2 0x107 JUMPI PUSH1 0x20 SWAP1 MLOAD PUSH32 0x114E74F6EA3BD819998F78687BFCB11B140DA08E9B7D222FA9C1F1BA1F2AA122 DUP2 MSTORE RETURN JUMPDEST SWAP2 SWAP1 POP CALLVALUE PUSH2 0x234 JUMPI PUSH2 0x48B CALLDATASIZE PUSH2 0x826 JUMP JUMPDEST SWAP3 SWAP4 PUSH1 0x0 DUP1 MLOAD PUSH1 0x20 PUSH2 0xD92 DUP4 CODECOPY DUP2 MLOAD SWAP2 MSTORE DUP8 SWAP4 SWAP3 SWAP4 MSTORE DUP7 PUSH1 0x20 MSTORE DUP1 DUP8 KECCAK256 CALLER DUP9 MSTORE PUSH1 0x20 MSTORE PUSH2 0x4BD PUSH1 0xFF DUP3 DUP10 KECCAK256 SLOAD AND PUSH2 0xCC9 JUMP JUMPDEST DUP2 ISZERO SWAP5 PUSH2 0x4CA DUP7 ISZERO PUSH2 0xD0A JUMP JUMPDEST PUSH1 0x1 SLOAD SWAP6 DUP7 DUP5 MUL SWAP7 DUP5 DUP9 DIV EQ OR ISZERO PUSH2 0x5AB JUMPI DUP2 MLOAD PUSH4 0x23B872DD PUSH1 0xE0 SHL DUP2 MSTORE PUSH1 0x1 PUSH1 0x1 PUSH1 0xA0 SHL SUB SWAP2 DUP3 AND SWAP8 DUP2 ADD DUP9 SWAP1 MSTORE ADDRESS PUSH1 0x24 DUP3 ADD MSTORE PUSH1 0x44 DUP2 ADD DUP5 SWAP1 MSTORE SWAP1 PUSH1 0x20 SWAP1 DUP3 SWAP1 PUSH1 0x64 SWAP1 DUP3 SWAP1 DUP13 SWAP1 PUSH32 0x0 AND GAS CALL DUP1 ISZERO PUSH2 0x5A1 JUMPI SWAP3 PUSH8 0xDE0B6B3A7640000 SWAP6 SWAP3 PUSH32 0x197FD69C14165D2E29D23C649DD074B01EF6401307FBBD7459A3807BC6A761A2 SWAP8 SWAP6 SWAP3 PUSH2 0x395 SWAP6 PUSH2 0x583 JUMPI JUMPDEST POP MLOAD SWAP6 DUP7 SWAP6 DIV SWAP1 DUP6 PUSH2 0xD5E JUMP JUMPDEST PUSH2 0x59A SWAP1 PUSH1 0x20 RETURNDATASIZE DUP2 GT PUSH2 0x3C2 JUMPI PUSH2 0x3B3 DUP2 DUP4 PUSH2 0xBF6 JUMP JUMPDEST POP CODESIZE PUSH2 0x576 JUMP JUMPDEST DUP3 MLOAD RETURNDATASIZE DUP11 DUP3 RETURNDATACOPY RETURNDATASIZE SWAP1 REVERT JUMPDEST PUSH4 0x4E487B71 PUSH1 0xE0 SHL DUP9 MSTORE PUSH1 0x11 DUP8 MSTORE PUSH1 0x24 DUP9 REVERT JUMPDEST POP POP CALLVALUE PUSH2 0x107 JUMPI DUP2 PUSH1 0x3 NOT CALLDATASIZE ADD SLT PUSH2 0x107 JUMPI PUSH1 0x20 SWAP1 MLOAD PUSH32 0x2FDAC322EE704CE09F0773F7F3F92EB98D5E7C836EE9C056CCCD5F61041E5E3F DUP2 MSTORE RETURN JUMPDEST POP POP CALLVALUE PUSH2 0x107 JUMPI DUP2 PUSH1 0x3 NOT CALLDATASIZE ADD SLT PUSH2 0x107 JUMPI PUSH1 0x20 SWAP1 PUSH1 0x1 SLOAD SWAP1 MLOAD SWAP1 DUP2 MSTORE RETURN JUMPDEST DUP4 SWAP2 POP CALLVALUE PUSH2 0x107 JUMPI DUP3 PUSH1 0x3 NOT CALLDATASIZE ADD SLT PUSH2 0x107 JUMPI PUSH2 0x633 PUSH2 0x80B JUMP JUMPDEST SWAP1 CALLER PUSH1 0x1 PUSH1 0x1 PUSH1 0xA0 SHL SUB DUP4 AND SUB PUSH2 0x64F JUMPI SWAP1 PUSH2 0x273 SWAP2 CALLDATALOAD PUSH2 0xC2E JUMP JUMPDEST PUSH1 0x84 SWAP1 PUSH1 0x20 DUP6 MLOAD SWAP2 PUSH3 0x461BCD PUSH1 0xE5 SHL DUP4 MSTORE DUP3 ADD MSTORE PUSH1 0x2F PUSH1 0x24 DUP3 ADD MSTORE PUSH32 0x416363657373436F6E74726F6C3A2063616E206F6E6C792072656E6F756E6365 PUSH1 0x44 DUP3 ADD MSTORE PUSH15 0x103937B632B9903337B91039B2B633 PUSH1 0x89 SHL PUSH1 0x64 DUP3 ADD MSTORE REVERT JUMPDEST SWAP1 POP CALLVALUE PUSH2 0x234 JUMPI DUP2 PUSH1 0x3 NOT CALLDATASIZE ADD SLT PUSH2 0x234 JUMPI CALLDATALOAD SWAP1 PUSH2 0x6C6 PUSH2 0x80B JUMP JUMPDEST SWAP1 DUP3 DUP5 MSTORE DUP4 PUSH1 0x20 MSTORE PUSH2 0x6DD PUSH1 0x1 DUP3 DUP7 KECCAK256 ADD SLOAD PUSH2 0x888 JUMP JUMPDEST DUP3 DUP5 MSTORE PUSH1 0x20 DUP5 DUP2 MSTORE DUP2 DUP6 KECCAK256 PUSH1 0x1 PUSH1 0x1 PUSH1 0xA0 SHL SUB SWAP1 SWAP4 AND DUP1 DUP7 MSTORE SWAP3 SWAP1 MSTORE DUP1 DUP5 KECCAK256 SLOAD PUSH1 0xFF AND ISZERO PUSH2 0x709 JUMPI DUP4 DUP1 RETURN JUMPDEST DUP3 DUP5 MSTORE DUP4 PUSH1 0x20 MSTORE DUP1 DUP5 KECCAK256 DUP3 DUP6 MSTORE PUSH1 0x20 MSTORE DUP4 KECCAK256 PUSH1 0x1 PUSH1 0xFF NOT DUP3 SLOAD AND OR SWAP1 SSTORE CALLER SWAP2 PUSH32 0x2F8788117E7EFF1D82E926EC794901D17C78024A50270940304540A733656F0D DUP5 DUP1 LOG4 CODESIZE DUP1 DUP1 DUP4 DUP1 RETURN JUMPDEST SWAP1 POP CALLVALUE PUSH2 0x234 JUMPI PUSH1 0x20 CALLDATASIZE PUSH1 0x3 NOT ADD SLT PUSH2 0x234 JUMPI DUP2 PUSH1 0x20 SWAP4 PUSH1 0x1 SWAP3 CALLDATALOAD DUP2 MSTORE DUP1 DUP6 MSTORE KECCAK256 ADD SLOAD SWAP1 MLOAD SWAP1 DUP2 MSTORE RETURN JUMPDEST POP POP CALLVALUE PUSH2 0x107 JUMPI DUP2 PUSH1 0x3 NOT CALLDATASIZE ADD SLT PUSH2 0x107 JUMPI PUSH1 0x20 SWAP1 MLOAD PUSH32 0x68E79A7BF1E0BC45D0A330C573BC367F9CF464FD326078812F301165FBDA4EF1 DUP2 MSTORE RETURN JUMPDEST DUP5 SWAP2 CALLVALUE PUSH2 0x234 JUMPI PUSH1 0x20 CALLDATASIZE PUSH1 0x3 NOT ADD SLT PUSH2 0x234 JUMPI CALLDATALOAD PUSH4 0xFFFFFFFF PUSH1 0xE0 SHL DUP2 AND DUP1 SWAP2 SUB PUSH2 0x234 JUMPI PUSH1 0x20 SWAP3 POP PUSH4 0x7965DB0B PUSH1 0xE0 SHL DUP2 EQ SWAP1 DUP2 ISZERO PUSH2 0x7FA JUMPI JUMPDEST POP ISZERO ISZERO DUP2 MSTORE RETURN JUMPDEST PUSH4 0x1FFC9A7 PUSH1 0xE0 SHL EQ SWAP1 POP DUP4 PUSH2 0x7F3 JUMP JUMPDEST PUSH1 0x24 CALLDATALOAD SWAP1 PUSH1 0x1 PUSH1 0x1 PUSH1 0xA0 SHL SUB DUP3 AND DUP3 SUB PUSH2 0x821 JUMPI JUMP JUMPDEST PUSH1 0x0 DUP1 REVERT JUMPDEST SWAP1 PUSH1 0x60 PUSH1 0x3 NOT DUP4 ADD SLT PUSH2 0x821 JUMPI PUSH1 0x4 CALLDATALOAD PUSH1 0x1 PUSH1 0x1 PUSH1 0xA0 SHL SUB DUP2 AND DUP2 SUB PUSH2 0x821 JUMPI SWAP2 PUSH1 0x24 CALLDATALOAD SWAP2 PUSH1 0x44 CALLDATALOAD PUSH8 0xFFFFFFFFFFFFFFFF SWAP3 DUP4 DUP3 GT PUSH2 0x821 JUMPI DUP1 PUSH1 0x23 DUP4 ADD SLT ISZERO PUSH2 0x821 JUMPI DUP2 PUSH1 0x4 ADD CALLDATALOAD SWAP4 DUP5 GT PUSH2 0x821 JUMPI PUSH1 0x24 DUP5 DUP4 ADD ADD GT PUSH2 0x821 JUMPI PUSH1 0x24 ADD SWAP2 SWAP1 JUMP JUMPDEST PUSH1 0x0 SWAP1 DUP1 DUP3 MSTORE PUSH1 0x20 SWAP1 DUP3 DUP3 MSTORE PUSH1 0x40 SWAP1 DUP2 DUP5 KECCAK256 CALLER DUP6 MSTORE DUP4 MSTORE PUSH1 0xFF DUP3 DUP6 KECCAK256 SLOAD AND ISZERO PUSH2 0x8B1 JUMPI POP POP POP POP JUMP JUMPDEST DUP2 MLOAD SWAP4 PUSH8 0xFFFFFFFFFFFFFFFF CALLER PUSH1 0x60 DUP8 ADD DUP3 DUP2 GT DUP9 DUP3 LT OR PUSH2 0xBBF JUMPI DUP6 MSTORE PUSH1 0x2A DUP8 MSTORE DUP6 DUP8 ADD SWAP4 DUP6 CALLDATASIZE DUP7 CALLDATACOPY DUP8 MLOAD ISZERO PUSH2 0xBAB JUMPI PUSH1 0x30 DUP6 MSTORE8 DUP8 MLOAD SWAP2 PUSH1 0x1 SWAP3 DUP4 LT ISZERO PUSH2 0xB97 JUMPI PUSH1 0x78 PUSH1 0x21 DUP11 ADD MSTORE8 PUSH1 0x29 JUMPDEST DUP4 DUP2 GT PUSH2 0xB2D JUMPI POP PUSH2 0xAEB JUMPI SWAP1 DUP6 MLOAD SWAP3 PUSH1 0x80 DUP5 ADD SWAP1 DUP5 DUP3 LT SWAP1 DUP3 GT OR PUSH2 0xAD7 JUMPI DUP7 MSTORE PUSH1 0x42 DUP4 MSTORE DUP7 DUP4 ADD SWAP4 PUSH1 0x60 CALLDATASIZE DUP7 CALLDATACOPY DUP4 MLOAD ISZERO PUSH2 0xAC3 JUMPI PUSH1 0x30 DUP6 MSTORE8 DUP4 MLOAD DUP3 LT ISZERO PUSH2 0xAC3 JUMPI SWAP1 PUSH1 0x78 PUSH1 0x21 DUP6 ADD MSTORE8 PUSH1 0x41 SWAP2 JUMPDEST DUP2 DUP4 GT PUSH2 0xA55 JUMPI POP POP POP PUSH2 0xA13 JUMPI SWAP3 PUSH2 0x9E1 PUSH1 0x48 PUSH2 0x9D2 SWAP8 SWAP5 PUSH2 0xA05 SWAP5 PUSH1 0x44 SWAP9 SWAP8 DUP6 MLOAD SWAP11 DUP12 SWAP4 PUSH2 0x9A9 DUP12 DUP7 ADD SWAP11 PUSH32 0x416363657373436F6E74726F6C3A206163636F756E7420000000000000000000 DUP13 MSTORE MLOAD DUP1 SWAP3 PUSH1 0x37 DUP9 ADD SWAP1 PUSH2 0xBD3 JUMP JUMPDEST DUP5 ADD SWAP2 PUSH17 0x1034B99036B4B9B9B4B733903937B6329 PUSH1 0x7D SHL PUSH1 0x37 DUP5 ADD MSTORE MLOAD DUP1 SWAP4 DUP7 DUP5 ADD SWAP1 PUSH2 0xBD3 JUMP JUMPDEST ADD SUB PUSH1 0x28 DUP2 ADD DUP10 MSTORE ADD DUP8 PUSH2 0xBF6 JUMP JUMPDEST MLOAD SWAP5 DUP6 SWAP4 PUSH3 0x461BCD PUSH1 0xE5 SHL DUP6 MSTORE PUSH1 0x4 DUP6 ADD MSTORE MLOAD DUP1 SWAP3 DUP2 PUSH1 0x24 DUP7 ADD MSTORE DUP6 DUP6 ADD SWAP1 PUSH2 0xBD3 JUMP JUMPDEST PUSH1 0x1F ADD PUSH1 0x1F NOT AND DUP2 ADD SUB ADD SWAP1 REVERT JUMPDEST PUSH1 0x64 DUP6 DUP6 MLOAD SWAP1 PUSH3 0x461BCD PUSH1 0xE5 SHL DUP3 MSTORE DUP1 PUSH1 0x4 DUP4 ADD MSTORE PUSH1 0x24 DUP3 ADD MSTORE PUSH32 0x537472696E67733A20686578206C656E67746820696E73756666696369656E74 PUSH1 0x44 DUP3 ADD MSTORE REVERT JUMPDEST SWAP1 SWAP2 SWAP3 PUSH1 0xF DUP2 AND PUSH1 0x10 DUP2 LT ISZERO PUSH2 0xAAF JUMPI PUSH16 0x181899199A1A9B1B9C1CB0B131B232B3 PUSH1 0x81 SHL SWAP1 BYTE PUSH2 0xA85 DUP6 DUP8 PUSH2 0xCA2 JUMP JUMPDEST MSTORE8 PUSH1 0x4 SHR SWAP3 DUP1 ISZERO PUSH2 0xA9B JUMPI PUSH1 0x0 NOT ADD SWAP2 SWAP1 PUSH2 0x94C JUMP JUMPDEST PUSH4 0x4E487B71 PUSH1 0xE0 SHL DUP3 MSTORE PUSH1 0x11 PUSH1 0x4 MSTORE PUSH1 0x24 DUP3 REVERT JUMPDEST PUSH4 0x4E487B71 PUSH1 0xE0 SHL DUP4 MSTORE PUSH1 0x32 PUSH1 0x4 MSTORE PUSH1 0x24 DUP4 REVERT JUMPDEST PUSH4 0x4E487B71 PUSH1 0xE0 SHL DUP2 MSTORE PUSH1 0x32 PUSH1 0x4 MSTORE PUSH1 0x24 SWAP1 REVERT JUMPDEST PUSH4 0x4E487B71 PUSH1 0xE0 SHL DUP6 MSTORE PUSH1 0x41 PUSH1 0x4 MSTORE PUSH1 0x24 DUP6 REVERT JUMPDEST PUSH1 0x64 DUP8 DUP8 MLOAD SWAP1 PUSH3 0x461BCD PUSH1 0xE5 SHL DUP3 MSTORE DUP1 PUSH1 0x4 DUP4 ADD MSTORE PUSH1 0x24 DUP3 ADD MSTORE PUSH32 0x537472696E67733A20686578206C656E67746820696E73756666696369656E74 PUSH1 0x44 DUP3 ADD MSTORE REVERT JUMPDEST SWAP1 PUSH1 0xF DUP2 AND PUSH1 0x10 DUP2 LT ISZERO PUSH2 0xB83 JUMPI PUSH16 0x181899199A1A9B1B9C1CB0B131B232B3 PUSH1 0x81 SHL SWAP1 BYTE PUSH2 0xB5B DUP4 DUP13 PUSH2 0xCA2 JUMP JUMPDEST MSTORE8 PUSH1 0x4 SHR SWAP1 DUP1 ISZERO PUSH2 0xB6F JUMPI PUSH1 0x0 NOT ADD PUSH2 0x8FD JUMP JUMPDEST PUSH4 0x4E487B71 PUSH1 0xE0 SHL DUP7 MSTORE PUSH1 0x11 PUSH1 0x4 MSTORE PUSH1 0x24 DUP7 REVERT JUMPDEST PUSH4 0x4E487B71 PUSH1 0xE0 SHL DUP8 MSTORE PUSH1 0x32 PUSH1 0x4 MSTORE PUSH1 0x24 DUP8 REVERT JUMPDEST PUSH4 0x4E487B71 PUSH1 0xE0 SHL DUP6 MSTORE PUSH1 0x32 PUSH1 0x4 MSTORE PUSH1 0x24 DUP6 REVERT JUMPDEST PUSH4 0x4E487B71 PUSH1 0xE0 SHL DUP5 MSTORE PUSH1 0x32 PUSH1 0x4 MSTORE PUSH1 0x24 DUP5 REVERT JUMPDEST PUSH4 0x4E487B71 PUSH1 0xE0 SHL DUP5 MSTORE PUSH1 0x41 PUSH1 0x4 MSTORE PUSH1 0x24 DUP5 REVERT JUMPDEST PUSH1 0x0 JUMPDEST DUP4 DUP2 LT PUSH2 0xBE6 JUMPI POP POP PUSH1 0x0 SWAP2 ADD MSTORE JUMP JUMPDEST DUP2 DUP2 ADD MLOAD DUP4 DUP3 ADD MSTORE PUSH1 0x20 ADD PUSH2 0xBD6 JUMP JUMPDEST SWAP1 PUSH1 0x1F DUP1 NOT SWAP2 ADD AND DUP2 ADD SWAP1 DUP2 LT PUSH8 0xFFFFFFFFFFFFFFFF DUP3 GT OR PUSH2 0xC18 JUMPI PUSH1 0x40 MSTORE JUMP JUMPDEST PUSH4 0x4E487B71 PUSH1 0xE0 SHL PUSH1 0x0 MSTORE PUSH1 0x41 PUSH1 0x4 MSTORE PUSH1 0x24 PUSH1 0x0 REVERT JUMPDEST SWAP1 PUSH1 0x0 SWAP2 DUP1 DUP4 MSTORE DUP3 PUSH1 0x20 MSTORE PUSH1 0x40 DUP4 KECCAK256 SWAP2 PUSH1 0x1 DUP1 PUSH1 0xA0 SHL SUB AND SWAP2 DUP3 DUP5 MSTORE PUSH1 0x20 MSTORE PUSH1 0xFF PUSH1 0x40 DUP5 KECCAK256 SLOAD AND PUSH2 0xC5E JUMPI POP POP POP JUMP JUMPDEST DUP1 DUP4 MSTORE DUP3 PUSH1 0x20 MSTORE PUSH1 0x40 DUP4 KECCAK256 DUP3 DUP5 MSTORE PUSH1 0x20 MSTORE PUSH1 0x40 DUP4 KECCAK256 PUSH1 0xFF NOT DUP2 SLOAD AND SWAP1 SSTORE PUSH32 0xF6391F5C32D9C69D2A47EA670B442974B53935D1EDC7FD64EB21E047A839171B CALLER SWAP4 DUP1 LOG4 JUMP JUMPDEST SWAP1 DUP2 MLOAD DUP2 LT ISZERO PUSH2 0xCB3 JUMPI ADD PUSH1 0x20 ADD SWAP1 JUMP JUMPDEST PUSH4 0x4E487B71 PUSH1 0xE0 SHL PUSH1 0x0 MSTORE PUSH1 0x32 PUSH1 0x4 MSTORE PUSH1 0x24 PUSH1 0x0 REVERT JUMPDEST ISZERO PUSH2 0xCD0 JUMPI JUMP JUMPDEST PUSH1 0x40 MLOAD PUSH3 0x461BCD PUSH1 0xE5 SHL DUP2 MSTORE PUSH1 0x20 PUSH1 0x4 DUP3 ADD MSTORE PUSH1 0x12 PUSH1 0x24 DUP3 ADD MSTORE PUSH18 0x524F4C453A4F50455241544F525F4F4E4C59 PUSH1 0x70 SHL PUSH1 0x44 DUP3 ADD MSTORE PUSH1 0x64 SWAP1 REVERT JUMPDEST ISZERO PUSH2 0xD11 JUMPI JUMP JUMPDEST PUSH1 0x40 MLOAD PUSH3 0x461BCD PUSH1 0xE5 SHL DUP2 MSTORE PUSH1 0x20 PUSH1 0x4 DUP3 ADD MSTORE PUSH1 0xD PUSH1 0x24 DUP3 ADD MSTORE PUSH13 0x1094925111D14E905353D55395 PUSH1 0x9A SHL PUSH1 0x44 DUP3 ADD MSTORE PUSH1 0x64 SWAP1 REVERT JUMPDEST SWAP1 DUP2 PUSH1 0x20 SWAP2 SUB SLT PUSH2 0x821 JUMPI MLOAD DUP1 ISZERO ISZERO DUP2 SUB PUSH2 0x821 JUMPI SWAP1 JUMP JUMPDEST SWAP3 DUP5 SWAP3 PUSH1 0x80 SWAP6 SWAP3 DUP6 MSTORE PUSH1 0x20 DUP6 ADD MSTORE PUSH1 0x60 PUSH1 0x40 DUP6 ADD MSTORE DUP2 PUSH1 0x60 DUP6 ADD MSTORE DUP5 DUP5 ADD CALLDATACOPY PUSH1 0x0 DUP3 DUP3 ADD DUP5 ADD MSTORE PUSH1 0x1F ADD PUSH1 0x1F NOT AND ADD ADD SWAP1 JUMP INVALID SWAP8 PUSH7 0x7070C54EF182B0 CREATE2 DUP6 DUP12 SUB 0x4B 0xEA 0xC1 0xB6 RETURN ADDMOD SWAP11 LOG2 0xD3 XOR DUP12 0xB1 0xE8 SWAP3 SWAP16 0x4F 0xA9 0xB9 0x29 LOG2 PUSH5 0x6970667358 0x22 SLT KECCAK256 0x4B PUSH15 0xF361B8045594FE2D5A13E6C25E09A7 XOR MUL RETURN PUSH27 0x1D12FF695EE46B226533B864736F6C634300081400330000000000 "},"methodIdentifiers":{"DEFAULT_ADMIN_ROLE()":"a217fddf","ESCROW_ROLE()":"6ce76f30","GOVERNANCE_ROLE()":"f36c8f5c","ISSUER_ROLE()":"82aefa24","OPERATOR_ROLE()":"f5b541a6","ORACLE_ROLE()":"07e2cea5","depositFiatProof(address,uint256,bytes)":"98195e4f","exchangeRate()":"3ba0b9a9","getRoleAdmin(bytes32)":"248a9ca3","grantRole(bytes32,address)":"2f2ff15d","hasRole(bytes32,address)":"91d14854","renounceRole(bytes32,address)":"36568abe","revokeRole(bytes32,address)":"d547741f","setExchangeRate(uint256)":"db068e0e","stablecoin()":"e9cbd822","supportsInterface(bytes4)":"01ffc9a7","withdrawStable(address,uint256,bytes)":"7822de86"}}}}}