{"contracts/escrow/EscrowManager.sol":{"EscrowManager":{"abi":[{"inputs":[{"internalType":"address","name":"admin","type":"address"},{"internalType":"address","name":"_complianceOracle","type":"address"}],"stateMutability":"nonpayable","type":"constructor"},{"anonymous":false,"inputs":[{"indexed":true,"internalType":"uint256","name":"escrowId","type":"uint256"},{"indexed":false,"internalType":"bytes32","name":"conditionId","type":"bytes32"},{"indexed":false,"internalType":"bool","name":"satisfied","type":"bool"}],"name":"ConditionUpdated","type":"event"},{"anonymous":false,"inputs":[{"indexed":true,"internalType":"uint256","name":"escrowId","type":"uint256"},{"indexed":true,"internalType":"address","name":"buyer","type":"address"},{"indexed":true,"internalType":"address","name":"seller","type":"address"},{"indexed":false,"internalType":"uint256","name":"amount","type":"uint256"},{"indexed":false,"internalType":"address","name":"paymentToken","type":"address"}],"name":"EscrowCreated","type":"event"},{"anonymous":false,"inputs":[{"indexed":true,"internalType":"uint256","name":"escrowId","type":"uint256"},{"indexed":true,"internalType":"address","name":"payer","type":"address"},{"indexed":false,"internalType":"uint256","name":"amount","type":"uint256"}],"name":"FundsDeposited","type":"event"},{"anonymous":false,"inputs":[{"indexed":true,"internalType":"uint256","name":"escrowId","type":"uint256"},{"indexed":true,"internalType":"address","name":"to","type":"address"},{"indexed":false,"internalType":"uint256","name":"amount","type":"uint256"}],"name":"FundsReleased","type":"event"},{"anonymous":false,"inputs":[{"indexed":true,"internalType":"uint256","name":"escrowId","type":"uint256"},{"indexed":true,"internalType":"address","name":"to","type":"address"},{"indexed":false,"internalType":"uint256","name":"amount","type":"uint256"}],"name":"Refunded","type":"event"},{"anonymous":false,"inputs":[{"indexed":true,"internalType":"bytes32","name":"role","type":"bytes32"},{"indexed":true,"internalType":"bytes32","name":"previousAdminRole","type":"bytes32"},{"indexed":true,"internalType":"bytes32","name":"newAdminRole","type":"bytes32"}],"name":"RoleAdminChanged","type":"event"},{"anonymous":false,"inputs":[{"indexed":true,"internalType":"bytes32","name":"role","type":"bytes32"},{"indexed":true,"internalType":"address","name":"account","type":"address"},{"indexed":true,"internalType":"address","name":"sender","type":"address"}],"name":"RoleGranted","type":"event"},{"anonymous":false,"inputs":[{"indexed":true,"internalType":"bytes32","name":"role","type":"bytes32"},{"indexed":true,"internalType":"address","name":"account","type":"address"},{"indexed":true,"internalType":"address","name":"sender","type":"address"}],"name":"RoleRevoked","type":"event"},{"inputs":[],"name":"DEFAULT_ADMIN_ROLE","outputs":[{"internalType":"bytes32","name":"","type":"bytes32"}],"stateMutability":"view","type":"function"},{"inputs":[],"name":"ESCROW_ROLE","outputs":[{"internalType":"bytes32","name":"","type":"bytes32"}],"stateMutability":"view","type":"function"},{"inputs":[],"name":"GOVERNANCE_ROLE","outputs":[{"internalType":"bytes32","name":"","type":"bytes32"}],"stateMutability":"view","type":"function"},{"inputs":[],"name":"ISSUER_ROLE","outputs":[{"internalType":"bytes32","name":"","type":"bytes32"}],"stateMutability":"view","type":"function"},{"inputs":[],"name":"OPERATOR_ROLE","outputs":[{"internalType":"bytes32","name":"","type":"bytes32"}],"stateMutability":"view","type":"function"},{"inputs":[],"name":"ORACLE_ROLE","outputs":[{"internalType":"bytes32","name":"","type":"bytes32"}],"stateMutability":"view","type":"function"},{"inputs":[],"name":"complianceOracle","outputs":[{"internalType":"address","name":"","type":"address"}],"stateMutability":"view","type":"function"},{"inputs":[{"internalType":"address","name":"buyer","type":"address"},{"internalType":"address","name":"seller","type":"address"},{"internalType":"uint256","name":"amount","type":"uint256"},{"internalType":"address","name":"paymentToken","type":"address"},{"internalType":"address","name":"asset","type":"address"},{"internalType":"uint256","name":"assetId","type":"uint256"}],"name":"createEscrow","outputs":[{"internalType":"uint256","name":"escrowId","type":"uint256"}],"stateMutability":"nonpayable","type":"function"},{"inputs":[{"internalType":"uint256","name":"escrowId","type":"uint256"}],"name":"depositFunds","outputs":[],"stateMutability":"payable","type":"function"},{"inputs":[{"internalType":"uint256","name":"escrowId","type":"uint256"}],"name":"getEscrow","outputs":[{"components":[{"internalType":"address","name":"buyer","type":"address"},{"internalType":"address","name":"seller","type":"address"},{"internalType":"address","name":"asset","type":"address"},{"internalType":"uint256","name":"assetId","type":"uint256"},{"internalType":"address","name":"paymentToken","type":"address"},{"internalType":"uint256","name":"amount","type":"uint256"},{"internalType":"enum DataTypes.EscrowStatus","name":"status","type":"uint8"},{"internalType":"uint64","name":"createdAt","type":"uint64"},{"internalType":"uint64","name":"fundedAt","type":"uint64"},{"internalType":"uint64","name":"releasedAt","type":"uint64"},{"components":[{"internalType":"bytes32","name":"id","type":"bytes32"},{"internalType":"string","name":"description","type":"string"},{"internalType":"bool","name":"satisfied","type":"bool"},{"internalType":"uint64","name":"satisfiedAt","type":"uint64"}],"internalType":"struct DataTypes.EscrowCondition[]","name":"conditions","type":"tuple[]"}],"internalType":"struct DataTypes.Escrow","name":"","type":"tuple"}],"stateMutability":"view","type":"function"},{"inputs":[{"internalType":"bytes32","name":"role","type":"bytes32"}],"name":"getRoleAdmin","outputs":[{"internalType":"bytes32","name":"","type":"bytes32"}],"stateMutability":"view","type":"function"},{"inputs":[{"internalType":"bytes32","name":"role","type":"bytes32"},{"internalType":"address","name":"account","type":"address"}],"name":"grantRole","outputs":[],"stateMutability":"nonpayable","type":"function"},{"inputs":[{"internalType":"bytes32","name":"role","type":"bytes32"},{"internalType":"address","name":"account","type":"address"}],"name":"hasRole","outputs":[{"internalType":"bool","name":"","type":"bool"}],"stateMutability":"view","type":"function"},{"inputs":[{"internalType":"uint256","name":"escrowId","type":"uint256"},{"internalType":"bytes32","name":"conditionId","type":"bytes32"},{"internalType":"bool","name":"satisfied","type":"bool"}],"name":"markCondition","outputs":[],"stateMutability":"nonpayable","type":"function"},{"inputs":[{"internalType":"uint256","name":"escrowId","type":"uint256"}],"name":"refundBuyer","outputs":[],"stateMutability":"nonpayable","type":"function"},{"inputs":[{"internalType":"uint256","name":"escrowId","type":"uint256"}],"name":"releaseFunds","outputs":[],"stateMutability":"nonpayable","type":"function"},{"inputs":[{"internalType":"bytes32","name":"role","type":"bytes32"},{"internalType":"address","name":"account","type":"address"}],"name":"renounceRole","outputs":[],"stateMutability":"nonpayable","type":"function"},{"inputs":[{"internalType":"bytes32","name":"role","type":"bytes32"},{"internalType":"address","name":"account","type":"address"}],"name":"revokeRole","outputs":[],"stateMutability":"nonpayable","type":"function"},{"inputs":[{"internalType":"uint256","name":"escrowId","type":"uint256"},{"components":[{"internalType":"bytes32","name":"id","type":"bytes32"},{"internalType":"string","name":"description","type":"string"},{"internalType":"bool","name":"satisfied","type":"bool"},{"internalType":"uint64","name":"satisfiedAt","type":"uint64"}],"internalType":"struct DataTypes.EscrowCondition[]","name":"conditions","type":"tuple[]"}],"name":"setConditions","outputs":[],"stateMutability":"nonpayable","type":"function"},{"inputs":[{"internalType":"bytes4","name":"interfaceId","type":"bytes4"}],"name":"supportsInterface","outputs":[{"internalType":"bool","name":"","type":"bool"}],"stateMutability":"view","type":"function"},{"stateMutability":"payable","type":"receive"}],"evm":{"bytecode":{"linkReferences":{},"object":"60a03462000224576200211590601f38839003908101601f19168201906001600160401b0382118383101762000229578083916040958694855283398101031262000224576200004f816200023f565b906200005f60208092016200023f565b60008080528083528481206001600160a01b03909416808252938352848120549193909160ff1615620001da575b50807f97667070c54ef182b0f5858b034beac1b6f3089aa2d3188bb1e8929f4fa9b929928382525260019181838682200181815491557fbd79b86ffe0ab8e8776151514217cd7cacd52c909f66475c3af44e129f0b00ff92838380a4817f2fdac322ee704ce09f0773f7f3f92eb98d5e7c836ee9c056cccd5f61041e5e3f8082528487832001908282549255838380a4817f68e79a7bf1e0bc45d0a330c573bc367f9cf464fd326078812f301165fbda4ef18082528487832001908282549255838380a4817f114e74f6ea3bd819998f78687bfcb11b140da08e9b7d222fa9c1f1ba1f2aa1228082528487832001908282549255838380a47f71840dc4906352362b0cdaf79870196c8e42acafade72d5d5a6d59291253ceb180835283868420019183835493558380a4805560805251611ec09081620002558239608051818181610a540152610ff80152f35b8180528183528482208183528352848220805460ff191660011790553390827f2f8788117e7eff1d82e926ec794901d17c78024a50270940304540a733656f0d8180a4386200008d565b600080fd5b634e487b7160e01b600052604160045260246000fd5b51906001600160a01b0382168203620002245756fe608080604052600436101561001d575b50361561001b57600080fd5b005b60003560e01c90816301ffc9a71461154c5750806307e2cea514611511578063248a9ca3146114e25780632f2ff15d1461142f57806336568abe1461139d57806339292763146112de5780633b76594d14610f5c5780633c7fcfb214610a83578063410239bf14610a3e5780634d68282f146108ee5780636ce76f30146108b35780637d19e596146104f357806382aefa24146104b857806391d148541461046b578063a217fddf1461044f578063b796d966146103b4578063cd3fc814146101c0578063d547741f14610181578063f36c8f5c146101465763f5b541a614610106573861000f565b346101415760003660031901126101415760206040517f97667070c54ef182b0f5858b034beac1b6f3089aa2d3188bb1e8929f4fa9b9298152f35b600080fd5b346101415760003660031901126101415760206040517f71840dc4906352362b0cdaf79870196c8e42acafade72d5d5a6d59291253ceb18152f35b346101415760403660031901126101415761001b6004356101a061159f565b908060005260006020526101bb6001604060002001546115fd565b611969565b346101415760c0366003190112610141576001600160a01b0360043581811690819003610141576101ef61159f565b6044359160643593808516809503610141576084359381851680950361014157336000908152600080516020611e6b833981519152602090815260409091205490969061023e9060ff16611a59565b831515806103a9575b1561036d578115610333577f23a81bcf12a8fbe4340112bd2726d5f873da36f74fa1837b946d61e596589e30916040916103216006610287600254611a98565b998a97886002558860005260038d5286600020916bffffffffffffffffffffffff60a01b918b83855416178455600184019c169b8c83825416179055866005840155600483018683825416179055600283019182541617905560a435600382015501600160ff198254161781556001600160401b03421668ffffffffffffffff0082549160081b169068ffffffffffffffff001916179055565b825191825288820152a4604051908152f35b60405162461bcd60e51b8152600481018890526012602482015271455343524f573a414d4f554e545f5a45524f60701b6044820152606490fd5b60405162461bcd60e51b8152600481018890526014602482015273455343524f573a494e56414c49445f504152545960601b6044820152606490fd5b508285161515610247565b34610141576060366003190112610141576044358015158103610141573360009081527fa629f6981c2f6895a67dc766e8e03ff72d04a413d0d8773a3ca56e9e474032c1602052604090205460ff16156104175761001b90602435600435611b45565b60405162461bcd60e51b815260206004820152601060248201526f524f4c453a4f5241434c455f4f4e4c5960801b6044820152606490fd5b3461014157600036600319011261014157602060405160008152f35b346101415760403660031901126101415761048461159f565b600435600052600060205260406000209060018060a01b0316600052602052602060ff604060002054166040519015158152f35b346101415760003660031901126101415760206040517f114e74f6ea3bd819998f78687bfcb11b140da08e9b7d222fa9c1f1ba1f2aa1228152f35b346101415760203660031901126101415760606101406040516105158161192c565b60008152600060208201526000604082015260008382015260006080820152600060a0820152600060c0820152600060e082015260006101008201526000610120820152015260043560005260036020526040600020604051906105788261192c565b80546001600160a01b03908116835260018201548116602084015260028201548116604084015260038201546060840152600482015416608083015260058082015460a084015260068201549060ff821610156107a3578060ff6001600160401b03921660c0850152818160081c1660e0850152818160481c1661010085015260881c166101208301526007810154906001600160401b03821161089d576040519161062a60208260051b0184611948565b808352600760208401920160005260206000206000925b8284106107b9578585610140820152604051906020825260018060a01b03815116602083015260018060a01b03602082015116604083015260018060a01b0360408201511660608301526060810151608083015260018060a01b0360808201511660a083015260a081015160c083015260c08101519060058210156107a35761014090839260e08401526001600160401b0360e0820151166101008401526001600160401b03610100820151166101208401526001600160401b036101208201511682840152015161016080830152610180820181518091526101a0906020828501928260051b8601019301916000905b82821061074157505050500390f35b91936001919395506020809161019f198982030185528751908151815260606001600160401b03816107808686015160808887015260808601906115d8565b946040810151151560408601520151169101529601920192018594939192610732565b634e487b7160e01b600052602160045260246000fd5b6040516107c581611911565b825481526040516001840180546000916107de82611a1f565b80855291600181169081156108785750600114610840575b5050926003928261080d6020946001970382611948565b838201526001600160401b03600287015460ff81161515604084015260081c166060820152815201920193019290610641565b6000908152602081209092505b818310610862575050810160200182826107f6565b600181602092548386880101520192019161084d565b60ff191660208087019190915292151560051b850190920192508491508390506107f6565b634e487b7160e01b600052604160045260246000fd5b346101415760003660031901126101415760206040517f2fdac322ee704ce09f0773f7f3f92eb98d5e7c836ee9c056cccd5f61041e5e3f8152f35b346101415760203660031901126101415760043561090a611c84565b336000908152600080516020611e6b83398151915260205260409020546109339060ff16611a59565b61093c81611e13565b9060068201805460ff811660058110156107a357600261095c9114611aa7565b61096584611dca565b156109f9576003906001600160401b0360881b4260881b169078ffffffffffffffff00000000000000000000000000000000ff1916171790557f6e3c6096795c8298a218b2cfb8bde42726ff7c9a3d27b4d3ba41ab7f74feb5fb60206001840160018060a01b03906109e88282541660058460048a015416980197885491611cda565b54169354604051908152a360018055005b60405162461bcd60e51b815260206004820152601960248201527f455343524f573a434f4e444954494f4e535f50454e44494e47000000000000006044820152606490fd5b34610141576000366003190112610141576040517f00000000000000000000000000000000000000000000000000000000000000006001600160a01b03168152602090f35b34610141576040366003190112610141576024356001600160401b0381116101415736602382011215610141576001600160401b0381600401351161014157366024826004013560051b8301011161014157336000908152600080516020611e6b8339815191526020526040902054610afe9060ff16611a59565b610b09600435611e13565b9060ff60068301541660058110156107a357806001610b319214908115610f51575b50611aa7565b60078201546000600784015580610ea4575b50906000915b80600401358310610b5657005b610b6883826004013560248401611afa565b3592610b7c81836004013560248501611afa565b602081013590601e1981360301821215610141570180356001600160401b038111610141576020820190803603821361014157610bcc6040610bc686886004013560248a01611afa565b01611b1c565b610be36040610bc687896004013560248b01611afa565b15610e9c576001600160401b034216915b60405198610c018a611911565b8952610c0c816119dd565b94610c1a6040519687611948565b8186526020823692010111610141576020816000926001600160401b03968389013786010152602088019384521515604088015216606086015260078401546801000000000000000081101561089d57806001610c809201600787015560078601611b29565b919091610e865785518255518051906001600160401b03821161089d57610caa6001840154611a1f565b90601f91828111610e49575b506020918311600114610dc3576002610d409484610db198999a956001600160401b0395606095600092610db8575b50508160011b916000199060031b1c19161760018201555b0192610d1b60408201511515859060ff801983541691151516179055565b0151825468ffffffffffffffff001916911660081b68ffffffffffffffff0016179055565b610d5281846004013560248601611afa565b357f074e72693a9aff338fc0dcb1e8076061524f6514c79709cc4441afc23a414f77610da9610d8e6040610bc686896004013560248b01611afa565b60408051948552901515602085015260043593918291820190565b0390a2611a98565b9190610b49565b015190508c80610ce5565b906001840160005260206000209160005b601f1985168110610e315750610d40946001856001600160401b0395606095600295610db19c9d9e99601f19811610610e18575b505050811b016001820155610cfd565b015160001960f88460031b161c191690558c8080610e08565b91926020600181928685015181550194019201610dd4565b610e77906001860160005260206000208480870160051c82019260208810610e7d575b0160051c0190611ae3565b88610cb6565b92508192610e6c565b634e487b7160e01b600052600060045260246000fd5b600091610bf4565b6003908082029082820403610f3b57600784016000526020600020908101905b818110610ed2575050610b43565b80600084925560018101610ee68154611a1f565b9081610efc575b50506000600282015501610ec4565b600091601f808211600114610f16575050555b8680610eed565b91610f3484929382845260208420940160051c840160018501611ae3565b5555610f0f565b634e487b7160e01b600052601160045260246000fd5b600291501484610b2b565b60208060031936011261014157600435610f74611c84565b610f7d81611e13565b6006810160ff81541660058110156107a3576001610f9b9114611aa7565b81546001600160a01b0390811633036112a65760048301548116806111fe5750600583015434036111c2575b8254600384015460405163094ddcf360e31b8082529284166001600160a01b031660048201526024810182905290927f0000000000000000000000000000000000000000000000000000000000000000811692918881604481875afa908115611154576000916111a5575b5015611160576001860154604051928352166001600160a01b0316600482015260248101929092528590829060449082905afa90811561115457600091611127575b50156110e257805470ffffffffffffffff0000000000000000ff19164260481b70ffffffffffffffff000000000000000000161760021790556005015460405190815233927fe030e47e27825a2ad1b19e4cf2e70bfbfb3124af275c7727a82b114ba7b29a8591a360018055005b60405162461bcd60e51b815260048101859052601b60248201527f455343524f573a53454c4c45525f4e4f4e5f434f4d504c49414e5400000000006044820152606490fd5b6111479150853d871161114d575b61113f8183611948565b810190611c6c565b85611074565b503d611135565b6040513d6000823e3d90fd5b60405162461bcd60e51b815260048101899052601a60248201527f455343524f573a42555945525f4e4f4e5f434f4d504c49414e540000000000006044820152606490fd5b6111bc9150893d8b1161114d5761113f8183611948565b89611032565b60405162461bcd60e51b8152600481018690526014602482015273455343524f573a494e56414c49445f56414c554560601b6044820152606490fd5b3461126157856000916064600587015460405194859384926323b872dd60e01b845233600485015230602485015260448401525af1801561115457611244575b50610fc7565b61125a90863d881161114d5761113f8183611948565b508561123e565b60405162461bcd60e51b815260048101879052601760248201527f455343524f573a484241525f4e4f545f414c4c4f5745440000000000000000006044820152606490fd5b60405162461bcd60e51b815260048101869052601060248201526f22a9a1a927ab9d2727aa2fa12aaca2a960811b6044820152606490fd5b34610141576020366003190112610141576004356112fa611c84565b336000908152600080516020611e6b83398151915260205260409020546113239060ff16611a59565b61132c81611e13565b9060068201805460ff81169060058210156107a35761134f600260049314611aa7565b60ff19161790557f7ca5472b7ea78c2c0141c5a12ee6d170cf4ce8ed06be3d22c8252ddfc7a6a2c4602060018060a01b0380855416946109e882600483015416966005830197885491611cda565b34610141576040366003190112610141576113b661159f565b336001600160a01b038216036113d25761001b90600435611969565b60405162461bcd60e51b815260206004820152602f60248201527f416363657373436f6e74726f6c3a2063616e206f6e6c792072656e6f756e636560448201526e103937b632b9903337b91039b2b63360891b6064820152608490fd5b346101415760403660031901126101415760043561144b61159f565b8160005260006020526114656001604060002001546115fd565b81600052600060205260406000209060018060a01b0316908160005260205260ff604060002054161561149457005b8160005260006020526040600020816000526020526040600020600160ff1982541617905533917f2f8788117e7eff1d82e926ec794901d17c78024a50270940304540a733656f0d600080a4005b346101415760203660031901126101415760043560005260006020526020600160406000200154604051908152f35b346101415760003660031901126101415760206040517f68e79a7bf1e0bc45d0a330c573bc367f9cf464fd326078812f301165fbda4ef18152f35b34610141576020366003190112610141576004359063ffffffff60e01b821680920361014157602091637965db0b60e01b811490811561158e575b5015158152f35b6301ffc9a760e01b14905083611587565b602435906001600160a01b038216820361014157565b60005b8381106115c85750506000910152565b81810151838201526020016115b8565b906020916115f1815180928185528580860191016115b5565b601f01601f1916010190565b600090808252602090828252604092838120338252835260ff8482205416156116265750505050565b33845192606084018481106001600160401b038211176118fd578652602a845284840190863683378451156118e957603082538451926001938410156118d5576078602187015360295b84811161186b57506118295786519261168884611911565b60428452868401946060368737845115611815576030865384518210156118155790607860218601536041915b8183116117a757505050611765576117619386936117459361173660489461170d9a519a8b957f416363657373436f6e74726f6c3a206163636f756e74200000000000000000008c88015251809260378801906115b5565b8401917001034b99036b4b9b9b4b733903937b6329607d1b6037840152518093868401906115b5565b01036028810187520185611948565b5192839262461bcd60e51b8452600484015260248301906115d8565b0390fd5b60648587519062461bcd60e51b825280600483015260248201527f537472696e67733a20686578206c656e67746820696e73756666696369656e746044820152fd5b909192600f81166010811015611801576f181899199a1a9b1b9c1cb0b131b232b360811b901a6117d785886119f8565b5360041c9280156117ed576000190191906116b5565b634e487b7160e01b82526011600452602482fd5b634e487b7160e01b83526032600452602483fd5b634e487b7160e01b81526032600452602490fd5b60648688519062461bcd60e51b825280600483015260248201527f537472696e67733a20686578206c656e67746820696e73756666696369656e746044820152fd5b90600f811660108110156118c1576f181899199a1a9b1b9c1cb0b131b232b360811b901a61189983896119f8565b5360041c9080156118ad5760001901611670565b634e487b7160e01b86526011600452602486fd5b634e487b7160e01b87526032600452602487fd5b634e487b7160e01b85526032600452602485fd5b634e487b7160e01b84526032600452602484fd5b634e487b7160e01b84526041600452602484fd5b608081019081106001600160401b0382111761089d57604052565b61016081019081106001600160401b0382111761089d57604052565b90601f801991011681019081106001600160401b0382111761089d57604052565b9060009180835282602052604083209160018060a01b03169182845260205260ff60408420541661199957505050565b80835282602052604083208284526020526040832060ff1981541690557ff6391f5c32d9c69d2a47ea670b442974b53935d1edc7fd64eb21e047a839171b339380a4565b6001600160401b03811161089d57601f01601f191660200190565b908151811015611a09570160200190565b634e487b7160e01b600052603260045260246000fd5b90600182811c92168015611a4f575b6020831014611a3957565b634e487b7160e01b600052602260045260246000fd5b91607f1691611a2e565b15611a6057565b60405162461bcd60e51b815260206004820152601060248201526f524f4c453a455343524f575f4f4e4c5960801b6044820152606490fd5b6000198114610f3b5760010190565b15611aae57565b60405162461bcd60e51b815260206004820152600d60248201526c455343524f573a53544154555360981b6044820152606490fd5b818110611aee575050565b60008155600101611ae3565b9190811015611a095760051b81013590607e1981360301821215610141570190565b3580151581036101415790565b8054821015611a09576000526003602060002091020190600090565b9091611b5082611e13565b6007019260005b8454811015611c275781611b6b8287611b29565b505414611b8057611b7b90611a98565b611b57565b8481611be9611bb4611c0f947f074e72693a9aff338fc0dcb1e8076061524f6514c79709cc4441afc23a414f779899611b29565b5091611bd08760028095019060ff801983541691151516179055565b60008715611c2157506001600160401b03421693611b29565b50019068ffffffffffffffff0082549160081b169068ffffffffffffffff001916179055565b604080519182529115156020820152a2565b93611b29565b60405162461bcd60e51b815260206004820152601860248201527f455343524f573a554e4b4e4f574e5f434f4e444954494f4e00000000000000006044820152606490fd5b90816020910312610141575180151581036101415790565b600260015414611c95576002600155565b60405162461bcd60e51b815260206004820152601f60248201527f5265656e7472616e637947756172643a207265656e7472616e742063616c6c006044820152606490fd5b906001600160a01b031680611d6d5750600080809381935af13d15611d68573d611d03816119dd565b90611d116040519283611948565b8152600060203d92013e5b15611d2357565b60405162461bcd60e51b815260206004820152601960248201527f455343524f573a484241525f5452414e534645525f4641494c000000000000006044820152606490fd5b611d1c565b60405163a9059cbb60e01b81526001600160a01b03929092166004830152602482019290925290602090829060449082906000905af1801561115457611db05750565b611dc79060203d811161114d5761113f8183611948565b50565b6000805b600783018054821015611e0a576002611de98360ff93611b29565b5001541615611e0457611dfd600791611a98565b9050611dce565b50905090565b50505050600190565b600090815260036020526040902080546001600160a01b031615611e345790565b60405162461bcd60e51b815260206004820152600e60248201526d22a9a1a927ab9d2aa725a727aba760911b6044820152606490fdfee3c558b62678382104a32eca8acfc9cd319238c371fe623afa6ac48f9723f7b0a264697066735822122046a898ecb41c30da7f19967990b55f0c009a3c329fe384379822ece0d232c12264736f6c63430008140033","opcodes":"PUSH1 0xA0 CALLVALUE PUSH3 0x224 JUMPI PUSH3 0x2115 SWAP1 PUSH1 0x1F CODESIZE DUP4 SWAP1 SUB SWAP1 DUP2 ADD PUSH1 0x1F NOT AND DUP3 ADD SWAP1 PUSH1 0x1 PUSH1 0x1 PUSH1 0x40 SHL SUB DUP3 GT DUP4 DUP4 LT OR PUSH3 0x229 JUMPI DUP1 DUP4 SWAP2 PUSH1 0x40 SWAP6 DUP7 SWAP5 DUP6 MSTORE DUP4 CODECOPY DUP2 ADD SUB SLT PUSH3 0x224 JUMPI PUSH3 0x4F DUP2 PUSH3 0x23F JUMP JUMPDEST SWAP1 PUSH3 0x5F PUSH1 0x20 DUP1 SWAP3 ADD PUSH3 0x23F JUMP JUMPDEST PUSH1 0x0 DUP1 DUP1 MSTORE DUP1 DUP4 MSTORE DUP5 DUP2 KECCAK256 PUSH1 0x1 PUSH1 0x1 PUSH1 0xA0 SHL SUB SWAP1 SWAP5 AND DUP1 DUP3 MSTORE SWAP4 DUP4 MSTORE DUP5 DUP2 KECCAK256 SLOAD SWAP2 SWAP4 SWAP1 SWAP2 PUSH1 0xFF AND ISZERO PUSH3 0x1DA JUMPI JUMPDEST POP DUP1 PUSH32 0x97667070C54EF182B0F5858B034BEAC1B6F3089AA2D3188BB1E8929F4FA9B929 SWAP3 DUP4 DUP3 MSTORE MSTORE PUSH1 0x1 SWAP2 DUP2 DUP4 DUP7 DUP3 KECCAK256 ADD DUP2 DUP2 SLOAD SWAP2 SSTORE PUSH32 0xBD79B86FFE0AB8E8776151514217CD7CACD52C909F66475C3AF44E129F0B00FF SWAP3 DUP4 DUP4 DUP1 LOG4 DUP2 PUSH32 0x2FDAC322EE704CE09F0773F7F3F92EB98D5E7C836EE9C056CCCD5F61041E5E3F DUP1 DUP3 MSTORE DUP5 DUP8 DUP4 KECCAK256 ADD SWAP1 DUP3 DUP3 SLOAD SWAP3 SSTORE DUP4 DUP4 DUP1 LOG4 DUP2 PUSH32 0x68E79A7BF1E0BC45D0A330C573BC367F9CF464FD326078812F301165FBDA4EF1 DUP1 DUP3 MSTORE DUP5 DUP8 DUP4 KECCAK256 ADD SWAP1 DUP3 DUP3 SLOAD SWAP3 SSTORE DUP4 DUP4 DUP1 LOG4 DUP2 PUSH32 0x114E74F6EA3BD819998F78687BFCB11B140DA08E9B7D222FA9C1F1BA1F2AA122 DUP1 DUP3 MSTORE DUP5 DUP8 DUP4 KECCAK256 ADD SWAP1 DUP3 DUP3 SLOAD SWAP3 SSTORE DUP4 DUP4 DUP1 LOG4 PUSH32 0x71840DC4906352362B0CDAF79870196C8E42ACAFADE72D5D5A6D59291253CEB1 DUP1 DUP4 MSTORE DUP4 DUP7 DUP5 KECCAK256 ADD SWAP2 DUP4 DUP4 SLOAD SWAP4 SSTORE DUP4 DUP1 LOG4 DUP1 SSTORE PUSH1 0x80 MSTORE MLOAD PUSH2 0x1EC0 SWAP1 DUP2 PUSH3 0x255 DUP3 CODECOPY PUSH1 0x80 MLOAD DUP2 DUP2 DUP2 PUSH2 0xA54 ADD MSTORE PUSH2 0xFF8 ADD MSTORE RETURN JUMPDEST DUP2 DUP1 MSTORE DUP2 DUP4 MSTORE DUP5 DUP3 KECCAK256 DUP2 DUP4 MSTORE DUP4 MSTORE DUP5 DUP3 KECCAK256 DUP1 SLOAD PUSH1 0xFF NOT AND PUSH1 0x1 OR SWAP1 SSTORE CALLER SWAP1 DUP3 PUSH32 0x2F8788117E7EFF1D82E926EC794901D17C78024A50270940304540A733656F0D DUP2 DUP1 LOG4 CODESIZE PUSH3 0x8D JUMP JUMPDEST PUSH1 0x0 DUP1 REVERT JUMPDEST PUSH4 0x4E487B71 PUSH1 0xE0 SHL PUSH1 0x0 MSTORE PUSH1 0x41 PUSH1 0x4 MSTORE PUSH1 0x24 PUSH1 0x0 REVERT JUMPDEST MLOAD SWAP1 PUSH1 0x1 PUSH1 0x1 PUSH1 0xA0 SHL SUB DUP3 AND DUP3 SUB PUSH3 0x224 JUMPI JUMP INVALID PUSH1 0x80 DUP1 PUSH1 0x40 MSTORE PUSH1 0x4 CALLDATASIZE LT ISZERO PUSH2 0x1D JUMPI JUMPDEST POP CALLDATASIZE ISZERO PUSH2 0x1B JUMPI PUSH1 0x0 DUP1 REVERT JUMPDEST STOP JUMPDEST PUSH1 0x0 CALLDATALOAD PUSH1 0xE0 SHR SWAP1 DUP2 PUSH4 0x1FFC9A7 EQ PUSH2 0x154C JUMPI POP DUP1 PUSH4 0x7E2CEA5 EQ PUSH2 0x1511 JUMPI DUP1 PUSH4 0x248A9CA3 EQ PUSH2 0x14E2 JUMPI DUP1 PUSH4 0x2F2FF15D EQ PUSH2 0x142F JUMPI DUP1 PUSH4 0x36568ABE EQ PUSH2 0x139D JUMPI DUP1 PUSH4 0x39292763 EQ PUSH2 0x12DE JUMPI DUP1 PUSH4 0x3B76594D EQ PUSH2 0xF5C JUMPI DUP1 PUSH4 0x3C7FCFB2 EQ PUSH2 0xA83 JUMPI DUP1 PUSH4 0x410239BF EQ PUSH2 0xA3E JUMPI DUP1 PUSH4 0x4D68282F EQ PUSH2 0x8EE JUMPI DUP1 PUSH4 0x6CE76F30 EQ PUSH2 0x8B3 JUMPI DUP1 PUSH4 0x7D19E596 EQ PUSH2 0x4F3 JUMPI DUP1 PUSH4 0x82AEFA24 EQ PUSH2 0x4B8 JUMPI DUP1 PUSH4 0x91D14854 EQ PUSH2 0x46B JUMPI DUP1 PUSH4 0xA217FDDF EQ PUSH2 0x44F JUMPI DUP1 PUSH4 0xB796D966 EQ PUSH2 0x3B4 JUMPI DUP1 PUSH4 0xCD3FC814 EQ PUSH2 0x1C0 JUMPI DUP1 PUSH4 0xD547741F EQ PUSH2 0x181 JUMPI DUP1 PUSH4 0xF36C8F5C EQ PUSH2 0x146 JUMPI PUSH4 0xF5B541A6 EQ PUSH2 0x106 JUMPI CODESIZE PUSH2 0xF JUMP JUMPDEST CALLVALUE PUSH2 0x141 JUMPI PUSH1 0x0 CALLDATASIZE PUSH1 0x3 NOT ADD SLT PUSH2 0x141 JUMPI PUSH1 0x20 PUSH1 0x40 MLOAD PUSH32 0x97667070C54EF182B0F5858B034BEAC1B6F3089AA2D3188BB1E8929F4FA9B929 DUP2 MSTORE RETURN JUMPDEST PUSH1 0x0 DUP1 REVERT JUMPDEST CALLVALUE PUSH2 0x141 JUMPI PUSH1 0x0 CALLDATASIZE PUSH1 0x3 NOT ADD SLT PUSH2 0x141 JUMPI PUSH1 0x20 PUSH1 0x40 MLOAD PUSH32 0x71840DC4906352362B0CDAF79870196C8E42ACAFADE72D5D5A6D59291253CEB1 DUP2 MSTORE RETURN JUMPDEST CALLVALUE PUSH2 0x141 JUMPI PUSH1 0x40 CALLDATASIZE PUSH1 0x3 NOT ADD SLT PUSH2 0x141 JUMPI PUSH2 0x1B PUSH1 0x4 CALLDATALOAD PUSH2 0x1A0 PUSH2 0x159F JUMP JUMPDEST SWAP1 DUP1 PUSH1 0x0 MSTORE PUSH1 0x0 PUSH1 0x20 MSTORE PUSH2 0x1BB PUSH1 0x1 PUSH1 0x40 PUSH1 0x0 KECCAK256 ADD SLOAD PUSH2 0x15FD JUMP JUMPDEST PUSH2 0x1969 JUMP JUMPDEST CALLVALUE PUSH2 0x141 JUMPI PUSH1 0xC0 CALLDATASIZE PUSH1 0x3 NOT ADD SLT PUSH2 0x141 JUMPI PUSH1 0x1 PUSH1 0x1 PUSH1 0xA0 SHL SUB PUSH1 0x4 CALLDATALOAD DUP2 DUP2 AND SWAP1 DUP2 SWAP1 SUB PUSH2 0x141 JUMPI PUSH2 0x1EF PUSH2 0x159F JUMP JUMPDEST PUSH1 0x44 CALLDATALOAD SWAP2 PUSH1 0x64 CALLDATALOAD SWAP4 DUP1 DUP6 AND DUP1 SWAP6 SUB PUSH2 0x141 JUMPI PUSH1 0x84 CALLDATALOAD SWAP4 DUP2 DUP6 AND DUP1 SWAP6 SUB PUSH2 0x141 JUMPI CALLER PUSH1 0x0 SWAP1 DUP2 MSTORE PUSH1 0x0 DUP1 MLOAD PUSH1 0x20 PUSH2 0x1E6B DUP4 CODECOPY DUP2 MLOAD SWAP2 MSTORE PUSH1 0x20 SWAP1 DUP2 MSTORE PUSH1 0x40 SWAP1 SWAP2 KECCAK256 SLOAD SWAP1 SWAP7 SWAP1 PUSH2 0x23E SWAP1 PUSH1 0xFF AND PUSH2 0x1A59 JUMP JUMPDEST DUP4 ISZERO ISZERO DUP1 PUSH2 0x3A9 JUMPI JUMPDEST ISZERO PUSH2 0x36D JUMPI DUP2 ISZERO PUSH2 0x333 JUMPI PUSH32 0x23A81BCF12A8FBE4340112BD2726D5F873DA36F74FA1837B946D61E596589E30 SWAP2 PUSH1 0x40 SWAP2 PUSH2 0x321 PUSH1 0x6 PUSH2 0x287 PUSH1 0x2 SLOAD PUSH2 0x1A98 JUMP JUMPDEST SWAP10 DUP11 SWAP8 DUP9 PUSH1 0x2 SSTORE DUP9 PUSH1 0x0 MSTORE PUSH1 0x3 DUP14 MSTORE DUP7 PUSH1 0x0 KECCAK256 SWAP2 PUSH12 0xFFFFFFFFFFFFFFFFFFFFFFFF PUSH1 0xA0 SHL SWAP2 DUP12 DUP4 DUP6 SLOAD AND OR DUP5 SSTORE PUSH1 0x1 DUP5 ADD SWAP13 AND SWAP12 DUP13 DUP4 DUP3 SLOAD AND OR SWAP1 SSTORE DUP7 PUSH1 0x5 DUP5 ADD SSTORE PUSH1 0x4 DUP4 ADD DUP7 DUP4 DUP3 SLOAD AND OR SWAP1 SSTORE PUSH1 0x2 DUP4 ADD SWAP2 DUP3 SLOAD AND OR SWAP1 SSTORE PUSH1 0xA4 CALLDATALOAD PUSH1 0x3 DUP3 ADD SSTORE ADD PUSH1 0x1 PUSH1 0xFF NOT DUP3 SLOAD AND OR DUP2 SSTORE PUSH1 0x1 PUSH1 0x1 PUSH1 0x40 SHL SUB TIMESTAMP AND PUSH9 0xFFFFFFFFFFFFFFFF00 DUP3 SLOAD SWAP2 PUSH1 0x8 SHL AND SWAP1 PUSH9 0xFFFFFFFFFFFFFFFF00 NOT AND OR SWAP1 SSTORE JUMP JUMPDEST DUP3 MLOAD SWAP2 DUP3 MSTORE DUP9 DUP3 ADD MSTORE LOG4 PUSH1 0x40 MLOAD SWAP1 DUP2 MSTORE RETURN JUMPDEST PUSH1 0x40 MLOAD PUSH3 0x461BCD PUSH1 0xE5 SHL DUP2 MSTORE PUSH1 0x4 DUP2 ADD DUP9 SWAP1 MSTORE PUSH1 0x12 PUSH1 0x24 DUP3 ADD MSTORE PUSH18 0x455343524F573A414D4F554E545F5A45524F PUSH1 0x70 SHL PUSH1 0x44 DUP3 ADD MSTORE PUSH1 0x64 SWAP1 REVERT JUMPDEST PUSH1 0x40 MLOAD PUSH3 0x461BCD PUSH1 0xE5 SHL DUP2 MSTORE PUSH1 0x4 DUP2 ADD DUP9 SWAP1 MSTORE PUSH1 0x14 PUSH1 0x24 DUP3 ADD MSTORE PUSH20 0x455343524F573A494E56414C49445F5041525459 PUSH1 0x60 SHL PUSH1 0x44 DUP3 ADD MSTORE PUSH1 0x64 SWAP1 REVERT JUMPDEST POP DUP3 DUP6 AND ISZERO ISZERO PUSH2 0x247 JUMP JUMPDEST CALLVALUE PUSH2 0x141 JUMPI PUSH1 0x60 CALLDATASIZE PUSH1 0x3 NOT ADD SLT PUSH2 0x141 JUMPI PUSH1 0x44 CALLDATALOAD DUP1 ISZERO ISZERO DUP2 SUB PUSH2 0x141 JUMPI CALLER PUSH1 0x0 SWAP1 DUP2 MSTORE PUSH32 0xA629F6981C2F6895A67DC766E8E03FF72D04A413D0D8773A3CA56E9E474032C1 PUSH1 0x20 MSTORE PUSH1 0x40 SWAP1 KECCAK256 SLOAD PUSH1 0xFF AND ISZERO PUSH2 0x417 JUMPI PUSH2 0x1B SWAP1 PUSH1 0x24 CALLDATALOAD PUSH1 0x4 CALLDATALOAD PUSH2 0x1B45 JUMP JUMPDEST PUSH1 0x40 MLOAD PUSH3 0x461BCD PUSH1 0xE5 SHL DUP2 MSTORE PUSH1 0x20 PUSH1 0x4 DUP3 ADD MSTORE PUSH1 0x10 PUSH1 0x24 DUP3 ADD MSTORE PUSH16 0x524F4C453A4F5241434C455F4F4E4C59 PUSH1 0x80 SHL PUSH1 0x44 DUP3 ADD MSTORE PUSH1 0x64 SWAP1 REVERT JUMPDEST CALLVALUE PUSH2 0x141 JUMPI PUSH1 0x0 CALLDATASIZE PUSH1 0x3 NOT ADD SLT PUSH2 0x141 JUMPI PUSH1 0x20 PUSH1 0x40 MLOAD PUSH1 0x0 DUP2 MSTORE RETURN JUMPDEST CALLVALUE PUSH2 0x141 JUMPI PUSH1 0x40 CALLDATASIZE PUSH1 0x3 NOT ADD SLT PUSH2 0x141 JUMPI PUSH2 0x484 PUSH2 0x159F JUMP JUMPDEST PUSH1 0x4 CALLDATALOAD PUSH1 0x0 MSTORE PUSH1 0x0 PUSH1 0x20 MSTORE PUSH1 0x40 PUSH1 0x0 KECCAK256 SWAP1 PUSH1 0x1 DUP1 PUSH1 0xA0 SHL SUB AND PUSH1 0x0 MSTORE PUSH1 0x20 MSTORE PUSH1 0x20 PUSH1 0xFF PUSH1 0x40 PUSH1 0x0 KECCAK256 SLOAD AND PUSH1 0x40 MLOAD SWAP1 ISZERO ISZERO DUP2 MSTORE RETURN JUMPDEST CALLVALUE PUSH2 0x141 JUMPI PUSH1 0x0 CALLDATASIZE PUSH1 0x3 NOT ADD SLT PUSH2 0x141 JUMPI PUSH1 0x20 PUSH1 0x40 MLOAD PUSH32 0x114E74F6EA3BD819998F78687BFCB11B140DA08E9B7D222FA9C1F1BA1F2AA122 DUP2 MSTORE RETURN JUMPDEST CALLVALUE PUSH2 0x141 JUMPI PUSH1 0x20 CALLDATASIZE PUSH1 0x3 NOT ADD SLT PUSH2 0x141 JUMPI PUSH1 0x60 PUSH2 0x140 PUSH1 0x40 MLOAD PUSH2 0x515 DUP2 PUSH2 0x192C JUMP JUMPDEST PUSH1 0x0 DUP2 MSTORE PUSH1 0x0 PUSH1 0x20 DUP3 ADD MSTORE PUSH1 0x0 PUSH1 0x40 DUP3 ADD MSTORE PUSH1 0x0 DUP4 DUP3 ADD MSTORE PUSH1 0x0 PUSH1 0x80 DUP3 ADD MSTORE PUSH1 0x0 PUSH1 0xA0 DUP3 ADD MSTORE PUSH1 0x0 PUSH1 0xC0 DUP3 ADD MSTORE PUSH1 0x0 PUSH1 0xE0 DUP3 ADD MSTORE PUSH1 0x0 PUSH2 0x100 DUP3 ADD MSTORE PUSH1 0x0 PUSH2 0x120 DUP3 ADD MSTORE ADD MSTORE PUSH1 0x4 CALLDATALOAD PUSH1 0x0 MSTORE PUSH1 0x3 PUSH1 0x20 MSTORE PUSH1 0x40 PUSH1 0x0 KECCAK256 PUSH1 0x40 MLOAD SWAP1 PUSH2 0x578 DUP3 PUSH2 0x192C JUMP JUMPDEST DUP1 SLOAD PUSH1 0x1 PUSH1 0x1 PUSH1 0xA0 SHL SUB SWAP1 DUP2 AND DUP4 MSTORE PUSH1 0x1 DUP3 ADD SLOAD DUP2 AND PUSH1 0x20 DUP5 ADD MSTORE PUSH1 0x2 DUP3 ADD SLOAD DUP2 AND PUSH1 0x40 DUP5 ADD MSTORE PUSH1 0x3 DUP3 ADD SLOAD PUSH1 0x60 DUP5 ADD MSTORE PUSH1 0x4 DUP3 ADD SLOAD AND PUSH1 0x80 DUP4 ADD MSTORE PUSH1 0x5 DUP1 DUP3 ADD SLOAD PUSH1 0xA0 DUP5 ADD MSTORE PUSH1 0x6 DUP3 ADD SLOAD SWAP1 PUSH1 0xFF DUP3 AND LT ISZERO PUSH2 0x7A3 JUMPI DUP1 PUSH1 0xFF PUSH1 0x1 PUSH1 0x1 PUSH1 0x40 SHL SUB SWAP3 AND PUSH1 0xC0 DUP6 ADD MSTORE DUP2 DUP2 PUSH1 0x8 SHR AND PUSH1 0xE0 DUP6 ADD MSTORE DUP2 DUP2 PUSH1 0x48 SHR AND PUSH2 0x100 DUP6 ADD MSTORE PUSH1 0x88 SHR AND PUSH2 0x120 DUP4 ADD MSTORE PUSH1 0x7 DUP2 ADD SLOAD SWAP1 PUSH1 0x1 PUSH1 0x1 PUSH1 0x40 SHL SUB DUP3 GT PUSH2 0x89D JUMPI PUSH1 0x40 MLOAD SWAP2 PUSH2 0x62A PUSH1 0x20 DUP3 PUSH1 0x5 SHL ADD DUP5 PUSH2 0x1948 JUMP JUMPDEST DUP1 DUP4 MSTORE PUSH1 0x7 PUSH1 0x20 DUP5 ADD SWAP3 ADD PUSH1 0x0 MSTORE PUSH1 0x20 PUSH1 0x0 KECCAK256 PUSH1 0x0 SWAP3 JUMPDEST DUP3 DUP5 LT PUSH2 0x7B9 JUMPI DUP6 DUP6 PUSH2 0x140 DUP3 ADD MSTORE PUSH1 0x40 MLOAD SWAP1 PUSH1 0x20 DUP3 MSTORE PUSH1 0x1 DUP1 PUSH1 0xA0 SHL SUB DUP2 MLOAD AND PUSH1 0x20 DUP4 ADD MSTORE PUSH1 0x1 DUP1 PUSH1 0xA0 SHL SUB PUSH1 0x20 DUP3 ADD MLOAD AND PUSH1 0x40 DUP4 ADD MSTORE PUSH1 0x1 DUP1 PUSH1 0xA0 SHL SUB PUSH1 0x40 DUP3 ADD MLOAD AND PUSH1 0x60 DUP4 ADD MSTORE PUSH1 0x60 DUP2 ADD MLOAD PUSH1 0x80 DUP4 ADD MSTORE PUSH1 0x1 DUP1 PUSH1 0xA0 SHL SUB PUSH1 0x80 DUP3 ADD MLOAD AND PUSH1 0xA0 DUP4 ADD MSTORE PUSH1 0xA0 DUP2 ADD MLOAD PUSH1 0xC0 DUP4 ADD MSTORE PUSH1 0xC0 DUP2 ADD MLOAD SWAP1 PUSH1 0x5 DUP3 LT ISZERO PUSH2 0x7A3 JUMPI PUSH2 0x140 SWAP1 DUP4 SWAP3 PUSH1 0xE0 DUP5 ADD MSTORE PUSH1 0x1 PUSH1 0x1 PUSH1 0x40 SHL SUB PUSH1 0xE0 DUP3 ADD MLOAD AND PUSH2 0x100 DUP5 ADD MSTORE PUSH1 0x1 PUSH1 0x1 PUSH1 0x40 SHL SUB PUSH2 0x100 DUP3 ADD MLOAD AND PUSH2 0x120 DUP5 ADD MSTORE PUSH1 0x1 PUSH1 0x1 PUSH1 0x40 SHL SUB PUSH2 0x120 DUP3 ADD MLOAD AND DUP3 DUP5 ADD MSTORE ADD MLOAD PUSH2 0x160 DUP1 DUP4 ADD MSTORE PUSH2 0x180 DUP3 ADD DUP2 MLOAD DUP1 SWAP2 MSTORE PUSH2 0x1A0 SWAP1 PUSH1 0x20 DUP3 DUP6 ADD SWAP3 DUP3 PUSH1 0x5 SHL DUP7 ADD ADD SWAP4 ADD SWAP2 PUSH1 0x0 SWAP1 JUMPDEST DUP3 DUP3 LT PUSH2 0x741 JUMPI POP POP POP POP SUB SWAP1 RETURN JUMPDEST SWAP2 SWAP4 PUSH1 0x1 SWAP2 SWAP4 SWAP6 POP PUSH1 0x20 DUP1 SWAP2 PUSH2 0x19F NOT DUP10 DUP3 SUB ADD DUP6 MSTORE DUP8 MLOAD SWAP1 DUP2 MLOAD DUP2 MSTORE PUSH1 0x60 PUSH1 0x1 PUSH1 0x1 PUSH1 0x40 SHL SUB DUP2 PUSH2 0x780 DUP7 DUP7 ADD MLOAD PUSH1 0x80 DUP9 DUP8 ADD MSTORE PUSH1 0x80 DUP7 ADD SWAP1 PUSH2 0x15D8 JUMP JUMPDEST SWAP5 PUSH1 0x40 DUP2 ADD MLOAD ISZERO ISZERO PUSH1 0x40 DUP7 ADD MSTORE ADD MLOAD AND SWAP2 ADD MSTORE SWAP7 ADD SWAP3 ADD SWAP3 ADD DUP6 SWAP5 SWAP4 SWAP2 SWAP3 PUSH2 0x732 JUMP JUMPDEST PUSH4 0x4E487B71 PUSH1 0xE0 SHL PUSH1 0x0 MSTORE PUSH1 0x21 PUSH1 0x4 MSTORE PUSH1 0x24 PUSH1 0x0 REVERT JUMPDEST PUSH1 0x40 MLOAD PUSH2 0x7C5 DUP2 PUSH2 0x1911 JUMP JUMPDEST DUP3 SLOAD DUP2 MSTORE PUSH1 0x40 MLOAD PUSH1 0x1 DUP5 ADD DUP1 SLOAD PUSH1 0x0 SWAP2 PUSH2 0x7DE DUP3 PUSH2 0x1A1F JUMP JUMPDEST DUP1 DUP6 MSTORE SWAP2 PUSH1 0x1 DUP2 AND SWAP1 DUP2 ISZERO PUSH2 0x878 JUMPI POP PUSH1 0x1 EQ PUSH2 0x840 JUMPI JUMPDEST POP POP SWAP3 PUSH1 0x3 SWAP3 DUP3 PUSH2 0x80D PUSH1 0x20 SWAP5 PUSH1 0x1 SWAP8 SUB DUP3 PUSH2 0x1948 JUMP JUMPDEST DUP4 DUP3 ADD MSTORE PUSH1 0x1 PUSH1 0x1 PUSH1 0x40 SHL SUB PUSH1 0x2 DUP8 ADD SLOAD PUSH1 0xFF DUP2 AND ISZERO ISZERO PUSH1 0x40 DUP5 ADD MSTORE PUSH1 0x8 SHR AND PUSH1 0x60 DUP3 ADD MSTORE DUP2 MSTORE ADD SWAP3 ADD SWAP4 ADD SWAP3 SWAP1 PUSH2 0x641 JUMP JUMPDEST PUSH1 0x0 SWAP1 DUP2 MSTORE PUSH1 0x20 DUP2 KECCAK256 SWAP1 SWAP3 POP JUMPDEST DUP2 DUP4 LT PUSH2 0x862 JUMPI POP POP DUP2 ADD PUSH1 0x20 ADD DUP3 DUP3 PUSH2 0x7F6 JUMP JUMPDEST PUSH1 0x1 DUP2 PUSH1 0x20 SWAP3 SLOAD DUP4 DUP7 DUP9 ADD ADD MSTORE ADD SWAP3 ADD SWAP2 PUSH2 0x84D JUMP JUMPDEST PUSH1 0xFF NOT AND PUSH1 0x20 DUP1 DUP8 ADD SWAP2 SWAP1 SWAP2 MSTORE SWAP3 ISZERO ISZERO PUSH1 0x5 SHL DUP6 ADD SWAP1 SWAP3 ADD SWAP3 POP DUP5 SWAP2 POP DUP4 SWAP1 POP PUSH2 0x7F6 JUMP JUMPDEST PUSH4 0x4E487B71 PUSH1 0xE0 SHL PUSH1 0x0 MSTORE PUSH1 0x41 PUSH1 0x4 MSTORE PUSH1 0x24 PUSH1 0x0 REVERT JUMPDEST CALLVALUE PUSH2 0x141 JUMPI PUSH1 0x0 CALLDATASIZE PUSH1 0x3 NOT ADD SLT PUSH2 0x141 JUMPI PUSH1 0x20 PUSH1 0x40 MLOAD PUSH32 0x2FDAC322EE704CE09F0773F7F3F92EB98D5E7C836EE9C056CCCD5F61041E5E3F DUP2 MSTORE RETURN JUMPDEST CALLVALUE PUSH2 0x141 JUMPI PUSH1 0x20 CALLDATASIZE PUSH1 0x3 NOT ADD SLT PUSH2 0x141 JUMPI PUSH1 0x4 CALLDATALOAD PUSH2 0x90A PUSH2 0x1C84 JUMP JUMPDEST CALLER PUSH1 0x0 SWAP1 DUP2 MSTORE PUSH1 0x0 DUP1 MLOAD PUSH1 0x20 PUSH2 0x1E6B DUP4 CODECOPY DUP2 MLOAD SWAP2 MSTORE PUSH1 0x20 MSTORE PUSH1 0x40 SWAP1 KECCAK256 SLOAD PUSH2 0x933 SWAP1 PUSH1 0xFF AND PUSH2 0x1A59 JUMP JUMPDEST PUSH2 0x93C DUP2 PUSH2 0x1E13 JUMP JUMPDEST SWAP1 PUSH1 0x6 DUP3 ADD DUP1 SLOAD PUSH1 0xFF DUP2 AND PUSH1 0x5 DUP2 LT ISZERO PUSH2 0x7A3 JUMPI PUSH1 0x2 PUSH2 0x95C SWAP2 EQ PUSH2 0x1AA7 JUMP JUMPDEST PUSH2 0x965 DUP5 PUSH2 0x1DCA JUMP JUMPDEST ISZERO PUSH2 0x9F9 JUMPI PUSH1 0x3 SWAP1 PUSH1 0x1 PUSH1 0x1 PUSH1 0x40 SHL SUB PUSH1 0x88 SHL TIMESTAMP PUSH1 0x88 SHL AND SWAP1 PUSH25 0xFFFFFFFFFFFFFFFF00000000000000000000000000000000FF NOT AND OR OR SWAP1 SSTORE PUSH32 0x6E3C6096795C8298A218B2CFB8BDE42726FF7C9A3D27B4D3BA41AB7F74FEB5FB PUSH1 0x20 PUSH1 0x1 DUP5 ADD PUSH1 0x1 DUP1 PUSH1 0xA0 SHL SUB SWAP1 PUSH2 0x9E8 DUP3 DUP3 SLOAD AND PUSH1 0x5 DUP5 PUSH1 0x4 DUP11 ADD SLOAD AND SWAP9 ADD SWAP8 DUP9 SLOAD SWAP2 PUSH2 0x1CDA JUMP JUMPDEST SLOAD AND SWAP4 SLOAD PUSH1 0x40 MLOAD SWAP1 DUP2 MSTORE LOG3 PUSH1 0x1 DUP1 SSTORE STOP JUMPDEST PUSH1 0x40 MLOAD PUSH3 0x461BCD PUSH1 0xE5 SHL DUP2 MSTORE PUSH1 0x20 PUSH1 0x4 DUP3 ADD MSTORE PUSH1 0x19 PUSH1 0x24 DUP3 ADD MSTORE PUSH32 0x455343524F573A434F4E444954494F4E535F50454E44494E4700000000000000 PUSH1 0x44 DUP3 ADD MSTORE PUSH1 0x64 SWAP1 REVERT JUMPDEST CALLVALUE PUSH2 0x141 JUMPI PUSH1 0x0 CALLDATASIZE PUSH1 0x3 NOT ADD SLT PUSH2 0x141 JUMPI PUSH1 0x40 MLOAD PUSH32 0x0 PUSH1 0x1 PUSH1 0x1 PUSH1 0xA0 SHL SUB AND DUP2 MSTORE PUSH1 0x20 SWAP1 RETURN JUMPDEST CALLVALUE PUSH2 0x141 JUMPI PUSH1 0x40 CALLDATASIZE PUSH1 0x3 NOT ADD SLT PUSH2 0x141 JUMPI PUSH1 0x24 CALLDATALOAD PUSH1 0x1 PUSH1 0x1 PUSH1 0x40 SHL SUB DUP2 GT PUSH2 0x141 JUMPI CALLDATASIZE PUSH1 0x23 DUP3 ADD SLT ISZERO PUSH2 0x141 JUMPI PUSH1 0x1 PUSH1 0x1 PUSH1 0x40 SHL SUB DUP2 PUSH1 0x4 ADD CALLDATALOAD GT PUSH2 0x141 JUMPI CALLDATASIZE PUSH1 0x24 DUP3 PUSH1 0x4 ADD CALLDATALOAD PUSH1 0x5 SHL DUP4 ADD ADD GT PUSH2 0x141 JUMPI CALLER PUSH1 0x0 SWAP1 DUP2 MSTORE PUSH1 0x0 DUP1 MLOAD PUSH1 0x20 PUSH2 0x1E6B DUP4 CODECOPY DUP2 MLOAD SWAP2 MSTORE PUSH1 0x20 MSTORE PUSH1 0x40 SWAP1 KECCAK256 SLOAD PUSH2 0xAFE SWAP1 PUSH1 0xFF AND PUSH2 0x1A59 JUMP JUMPDEST PUSH2 0xB09 PUSH1 0x4 CALLDATALOAD PUSH2 0x1E13 JUMP JUMPDEST SWAP1 PUSH1 0xFF PUSH1 0x6 DUP4 ADD SLOAD AND PUSH1 0x5 DUP2 LT ISZERO PUSH2 0x7A3 JUMPI DUP1 PUSH1 0x1 PUSH2 0xB31 SWAP3 EQ SWAP1 DUP2 ISZERO PUSH2 0xF51 JUMPI JUMPDEST POP PUSH2 0x1AA7 JUMP JUMPDEST PUSH1 0x7 DUP3 ADD SLOAD PUSH1 0x0 PUSH1 0x7 DUP5 ADD SSTORE DUP1 PUSH2 0xEA4 JUMPI JUMPDEST POP SWAP1 PUSH1 0x0 SWAP2 JUMPDEST DUP1 PUSH1 0x4 ADD CALLDATALOAD DUP4 LT PUSH2 0xB56 JUMPI STOP JUMPDEST PUSH2 0xB68 DUP4 DUP3 PUSH1 0x4 ADD CALLDATALOAD PUSH1 0x24 DUP5 ADD PUSH2 0x1AFA JUMP JUMPDEST CALLDATALOAD SWAP3 PUSH2 0xB7C DUP2 DUP4 PUSH1 0x4 ADD CALLDATALOAD PUSH1 0x24 DUP6 ADD PUSH2 0x1AFA JUMP JUMPDEST PUSH1 0x20 DUP2 ADD CALLDATALOAD SWAP1 PUSH1 0x1E NOT DUP2 CALLDATASIZE SUB ADD DUP3 SLT ISZERO PUSH2 0x141 JUMPI ADD DUP1 CALLDATALOAD PUSH1 0x1 PUSH1 0x1 PUSH1 0x40 SHL SUB DUP2 GT PUSH2 0x141 JUMPI PUSH1 0x20 DUP3 ADD SWAP1 DUP1 CALLDATASIZE SUB DUP3 SGT PUSH2 0x141 JUMPI PUSH2 0xBCC PUSH1 0x40 PUSH2 0xBC6 DUP7 DUP9 PUSH1 0x4 ADD CALLDATALOAD PUSH1 0x24 DUP11 ADD PUSH2 0x1AFA JUMP JUMPDEST ADD PUSH2 0x1B1C JUMP JUMPDEST PUSH2 0xBE3 PUSH1 0x40 PUSH2 0xBC6 DUP8 DUP10 PUSH1 0x4 ADD CALLDATALOAD PUSH1 0x24 DUP12 ADD PUSH2 0x1AFA JUMP JUMPDEST ISZERO PUSH2 0xE9C JUMPI PUSH1 0x1 PUSH1 0x1 PUSH1 0x40 SHL SUB TIMESTAMP AND SWAP2 JUMPDEST PUSH1 0x40 MLOAD SWAP9 PUSH2 0xC01 DUP11 PUSH2 0x1911 JUMP JUMPDEST DUP10 MSTORE PUSH2 0xC0C DUP2 PUSH2 0x19DD JUMP JUMPDEST SWAP5 PUSH2 0xC1A PUSH1 0x40 MLOAD SWAP7 DUP8 PUSH2 0x1948 JUMP JUMPDEST DUP2 DUP7 MSTORE PUSH1 0x20 DUP3 CALLDATASIZE SWAP3 ADD ADD GT PUSH2 0x141 JUMPI PUSH1 0x20 DUP2 PUSH1 0x0 SWAP3 PUSH1 0x1 PUSH1 0x1 PUSH1 0x40 SHL SUB SWAP7 DUP4 DUP10 ADD CALLDATACOPY DUP7 ADD ADD MSTORE PUSH1 0x20 DUP9 ADD SWAP4 DUP5 MSTORE ISZERO ISZERO PUSH1 0x40 DUP9 ADD MSTORE AND PUSH1 0x60 DUP7 ADD MSTORE PUSH1 0x7 DUP5 ADD SLOAD PUSH9 0x10000000000000000 DUP2 LT ISZERO PUSH2 0x89D JUMPI DUP1 PUSH1 0x1 PUSH2 0xC80 SWAP3 ADD PUSH1 0x7 DUP8 ADD SSTORE PUSH1 0x7 DUP7 ADD PUSH2 0x1B29 JUMP JUMPDEST SWAP2 SWAP1 SWAP2 PUSH2 0xE86 JUMPI DUP6 MLOAD DUP3 SSTORE MLOAD DUP1 MLOAD SWAP1 PUSH1 0x1 PUSH1 0x1 PUSH1 0x40 SHL SUB DUP3 GT PUSH2 0x89D JUMPI PUSH2 0xCAA PUSH1 0x1 DUP5 ADD SLOAD PUSH2 0x1A1F JUMP JUMPDEST SWAP1 PUSH1 0x1F SWAP2 DUP3 DUP2 GT PUSH2 0xE49 JUMPI JUMPDEST POP PUSH1 0x20 SWAP2 DUP4 GT PUSH1 0x1 EQ PUSH2 0xDC3 JUMPI PUSH1 0x2 PUSH2 0xD40 SWAP5 DUP5 PUSH2 0xDB1 SWAP9 SWAP10 SWAP11 SWAP6 PUSH1 0x1 PUSH1 0x1 PUSH1 0x40 SHL SUB SWAP6 PUSH1 0x60 SWAP6 PUSH1 0x0 SWAP3 PUSH2 0xDB8 JUMPI JUMPDEST POP POP DUP2 PUSH1 0x1 SHL SWAP2 PUSH1 0x0 NOT SWAP1 PUSH1 0x3 SHL SHR NOT AND OR PUSH1 0x1 DUP3 ADD SSTORE JUMPDEST ADD SWAP3 PUSH2 0xD1B PUSH1 0x40 DUP3 ADD MLOAD ISZERO ISZERO DUP6 SWAP1 PUSH1 0xFF DUP1 NOT DUP4 SLOAD AND SWAP2 ISZERO ISZERO AND OR SWAP1 SSTORE JUMP JUMPDEST ADD MLOAD DUP3 SLOAD PUSH9 0xFFFFFFFFFFFFFFFF00 NOT AND SWAP2 AND PUSH1 0x8 SHL PUSH9 0xFFFFFFFFFFFFFFFF00 AND OR SWAP1 SSTORE JUMP JUMPDEST PUSH2 0xD52 DUP2 DUP5 PUSH1 0x4 ADD CALLDATALOAD PUSH1 0x24 DUP7 ADD PUSH2 0x1AFA JUMP JUMPDEST CALLDATALOAD PUSH32 0x74E72693A9AFF338FC0DCB1E8076061524F6514C79709CC4441AFC23A414F77 PUSH2 0xDA9 PUSH2 0xD8E PUSH1 0x40 PUSH2 0xBC6 DUP7 DUP10 PUSH1 0x4 ADD CALLDATALOAD PUSH1 0x24 DUP12 ADD PUSH2 0x1AFA JUMP JUMPDEST PUSH1 0x40 DUP1 MLOAD SWAP5 DUP6 MSTORE SWAP1 ISZERO ISZERO PUSH1 0x20 DUP6 ADD MSTORE PUSH1 0x4 CALLDATALOAD SWAP4 SWAP2 DUP3 SWAP2 DUP3 ADD SWAP1 JUMP JUMPDEST SUB SWAP1 LOG2 PUSH2 0x1A98 JUMP JUMPDEST SWAP2 SWAP1 PUSH2 0xB49 JUMP JUMPDEST ADD MLOAD SWAP1 POP DUP13 DUP1 PUSH2 0xCE5 JUMP JUMPDEST SWAP1 PUSH1 0x1 DUP5 ADD PUSH1 0x0 MSTORE PUSH1 0x20 PUSH1 0x0 KECCAK256 SWAP2 PUSH1 0x0 JUMPDEST PUSH1 0x1F NOT DUP6 AND DUP2 LT PUSH2 0xE31 JUMPI POP PUSH2 0xD40 SWAP5 PUSH1 0x1 DUP6 PUSH1 0x1 PUSH1 0x1 PUSH1 0x40 SHL SUB SWAP6 PUSH1 0x60 SWAP6 PUSH1 0x2 SWAP6 PUSH2 0xDB1 SWAP13 SWAP14 SWAP15 SWAP10 PUSH1 0x1F NOT DUP2 AND LT PUSH2 0xE18 JUMPI JUMPDEST POP POP POP DUP2 SHL ADD PUSH1 0x1 DUP3 ADD SSTORE PUSH2 0xCFD JUMP JUMPDEST ADD MLOAD PUSH1 0x0 NOT PUSH1 0xF8 DUP5 PUSH1 0x3 SHL AND SHR NOT AND SWAP1 SSTORE DUP13 DUP1 DUP1 PUSH2 0xE08 JUMP JUMPDEST SWAP2 SWAP3 PUSH1 0x20 PUSH1 0x1 DUP2 SWAP3 DUP7 DUP6 ADD MLOAD DUP2 SSTORE ADD SWAP5 ADD SWAP3 ADD PUSH2 0xDD4 JUMP JUMPDEST PUSH2 0xE77 SWAP1 PUSH1 0x1 DUP7 ADD PUSH1 0x0 MSTORE PUSH1 0x20 PUSH1 0x0 KECCAK256 DUP5 DUP1 DUP8 ADD PUSH1 0x5 SHR DUP3 ADD SWAP3 PUSH1 0x20 DUP9 LT PUSH2 0xE7D JUMPI JUMPDEST ADD PUSH1 0x5 SHR ADD SWAP1 PUSH2 0x1AE3 JUMP JUMPDEST DUP9 PUSH2 0xCB6 JUMP JUMPDEST SWAP3 POP DUP2 SWAP3 PUSH2 0xE6C JUMP JUMPDEST PUSH4 0x4E487B71 PUSH1 0xE0 SHL PUSH1 0x0 MSTORE PUSH1 0x0 PUSH1 0x4 MSTORE PUSH1 0x24 PUSH1 0x0 REVERT JUMPDEST PUSH1 0x0 SWAP2 PUSH2 0xBF4 JUMP JUMPDEST PUSH1 0x3 SWAP1 DUP1 DUP3 MUL SWAP1 DUP3 DUP3 DIV SUB PUSH2 0xF3B JUMPI PUSH1 0x7 DUP5 ADD PUSH1 0x0 MSTORE PUSH1 0x20 PUSH1 0x0 KECCAK256 SWAP1 DUP2 ADD SWAP1 JUMPDEST DUP2 DUP2 LT PUSH2 0xED2 JUMPI POP POP PUSH2 0xB43 JUMP JUMPDEST DUP1 PUSH1 0x0 DUP5 SWAP3 SSTORE PUSH1 0x1 DUP2 ADD PUSH2 0xEE6 DUP2 SLOAD PUSH2 0x1A1F JUMP JUMPDEST SWAP1 DUP2 PUSH2 0xEFC JUMPI JUMPDEST POP POP PUSH1 0x0 PUSH1 0x2 DUP3 ADD SSTORE ADD PUSH2 0xEC4 JUMP JUMPDEST PUSH1 0x0 SWAP2 PUSH1 0x1F DUP1 DUP3 GT PUSH1 0x1 EQ PUSH2 0xF16 JUMPI POP POP SSTORE JUMPDEST DUP7 DUP1 PUSH2 0xEED JUMP JUMPDEST SWAP2 PUSH2 0xF34 DUP5 SWAP3 SWAP4 DUP3 DUP5 MSTORE PUSH1 0x20 DUP5 KECCAK256 SWAP5 ADD PUSH1 0x5 SHR DUP5 ADD PUSH1 0x1 DUP6 ADD PUSH2 0x1AE3 JUMP JUMPDEST SSTORE SSTORE PUSH2 0xF0F JUMP JUMPDEST PUSH4 0x4E487B71 PUSH1 0xE0 SHL PUSH1 0x0 MSTORE PUSH1 0x11 PUSH1 0x4 MSTORE PUSH1 0x24 PUSH1 0x0 REVERT JUMPDEST PUSH1 0x2 SWAP2 POP EQ DUP5 PUSH2 0xB2B JUMP JUMPDEST PUSH1 0x20 DUP1 PUSH1 0x3 NOT CALLDATASIZE ADD SLT PUSH2 0x141 JUMPI PUSH1 0x4 CALLDATALOAD PUSH2 0xF74 PUSH2 0x1C84 JUMP JUMPDEST PUSH2 0xF7D DUP2 PUSH2 0x1E13 JUMP JUMPDEST PUSH1 0x6 DUP2 ADD PUSH1 0xFF DUP2 SLOAD AND PUSH1 0x5 DUP2 LT ISZERO PUSH2 0x7A3 JUMPI PUSH1 0x1 PUSH2 0xF9B SWAP2 EQ PUSH2 0x1AA7 JUMP JUMPDEST DUP2 SLOAD PUSH1 0x1 PUSH1 0x1 PUSH1 0xA0 SHL SUB SWAP1 DUP2 AND CALLER SUB PUSH2 0x12A6 JUMPI PUSH1 0x4 DUP4 ADD SLOAD DUP2 AND DUP1 PUSH2 0x11FE JUMPI POP PUSH1 0x5 DUP4 ADD SLOAD CALLVALUE SUB PUSH2 0x11C2 JUMPI JUMPDEST DUP3 SLOAD PUSH1 0x3 DUP5 ADD SLOAD PUSH1 0x40 MLOAD PUSH4 0x94DDCF3 PUSH1 0xE3 SHL DUP1 DUP3 MSTORE SWAP3 DUP5 AND PUSH1 0x1 PUSH1 0x1 PUSH1 0xA0 SHL SUB AND PUSH1 0x4 DUP3 ADD MSTORE PUSH1 0x24 DUP2 ADD DUP3 SWAP1 MSTORE SWAP1 SWAP3 PUSH32 0x0 DUP2 AND SWAP3 SWAP2 DUP9 DUP2 PUSH1 0x44 DUP2 DUP8 GAS STATICCALL SWAP1 DUP2 ISZERO PUSH2 0x1154 JUMPI PUSH1 0x0 SWAP2 PUSH2 0x11A5 JUMPI JUMPDEST POP ISZERO PUSH2 0x1160 JUMPI PUSH1 0x1 DUP7 ADD SLOAD PUSH1 0x40 MLOAD SWAP3 DUP4 MSTORE AND PUSH1 0x1 PUSH1 0x1 PUSH1 0xA0 SHL SUB AND PUSH1 0x4 DUP3 ADD MSTORE PUSH1 0x24 DUP2 ADD SWAP3 SWAP1 SWAP3 MSTORE DUP6 SWAP1 DUP3 SWAP1 PUSH1 0x44 SWAP1 DUP3 SWAP1 GAS STATICCALL SWAP1 DUP2 ISZERO PUSH2 0x1154 JUMPI PUSH1 0x0 SWAP2 PUSH2 0x1127 JUMPI JUMPDEST POP ISZERO PUSH2 0x10E2 JUMPI DUP1 SLOAD PUSH17 0xFFFFFFFFFFFFFFFF0000000000000000FF NOT AND TIMESTAMP PUSH1 0x48 SHL PUSH17 0xFFFFFFFFFFFFFFFF000000000000000000 AND OR PUSH1 0x2 OR SWAP1 SSTORE PUSH1 0x5 ADD SLOAD PUSH1 0x40 MLOAD SWAP1 DUP2 MSTORE CALLER SWAP3 PUSH32 0xE030E47E27825A2AD1B19E4CF2E70BFBFB3124AF275C7727A82B114BA7B29A85 SWAP2 LOG3 PUSH1 0x1 DUP1 SSTORE STOP JUMPDEST PUSH1 0x40 MLOAD PUSH3 0x461BCD PUSH1 0xE5 SHL DUP2 MSTORE PUSH1 0x4 DUP2 ADD DUP6 SWAP1 MSTORE PUSH1 0x1B PUSH1 0x24 DUP3 ADD MSTORE PUSH32 0x455343524F573A53454C4C45525F4E4F4E5F434F4D504C49414E540000000000 PUSH1 0x44 DUP3 ADD MSTORE PUSH1 0x64 SWAP1 REVERT JUMPDEST PUSH2 0x1147 SWAP2 POP DUP6 RETURNDATASIZE DUP8 GT PUSH2 0x114D JUMPI JUMPDEST PUSH2 0x113F DUP2 DUP4 PUSH2 0x1948 JUMP JUMPDEST DUP2 ADD SWAP1 PUSH2 0x1C6C JUMP JUMPDEST DUP6 PUSH2 0x1074 JUMP JUMPDEST POP RETURNDATASIZE PUSH2 0x1135 JUMP JUMPDEST PUSH1 0x40 MLOAD RETURNDATASIZE PUSH1 0x0 DUP3 RETURNDATACOPY RETURNDATASIZE SWAP1 REVERT JUMPDEST PUSH1 0x40 MLOAD PUSH3 0x461BCD PUSH1 0xE5 SHL DUP2 MSTORE PUSH1 0x4 DUP2 ADD DUP10 SWAP1 MSTORE PUSH1 0x1A PUSH1 0x24 DUP3 ADD MSTORE PUSH32 0x455343524F573A42555945525F4E4F4E5F434F4D504C49414E54000000000000 PUSH1 0x44 DUP3 ADD MSTORE PUSH1 0x64 SWAP1 REVERT JUMPDEST PUSH2 0x11BC SWAP2 POP DUP10 RETURNDATASIZE DUP12 GT PUSH2 0x114D JUMPI PUSH2 0x113F DUP2 DUP4 PUSH2 0x1948 JUMP JUMPDEST DUP10 PUSH2 0x1032 JUMP JUMPDEST PUSH1 0x40 MLOAD PUSH3 0x461BCD PUSH1 0xE5 SHL DUP2 MSTORE PUSH1 0x4 DUP2 ADD DUP7 SWAP1 MSTORE PUSH1 0x14 PUSH1 0x24 DUP3 ADD MSTORE PUSH20 0x455343524F573A494E56414C49445F56414C5545 PUSH1 0x60 SHL PUSH1 0x44 DUP3 ADD MSTORE PUSH1 0x64 SWAP1 REVERT JUMPDEST CALLVALUE PUSH2 0x1261 JUMPI DUP6 PUSH1 0x0 SWAP2 PUSH1 0x64 PUSH1 0x5 DUP8 ADD SLOAD PUSH1 0x40 MLOAD SWAP5 DUP6 SWAP4 DUP5 SWAP3 PUSH4 0x23B872DD PUSH1 0xE0 SHL DUP5 MSTORE CALLER PUSH1 0x4 DUP6 ADD MSTORE ADDRESS PUSH1 0x24 DUP6 ADD MSTORE PUSH1 0x44 DUP5 ADD MSTORE GAS CALL DUP1 ISZERO PUSH2 0x1154 JUMPI PUSH2 0x1244 JUMPI JUMPDEST POP PUSH2 0xFC7 JUMP JUMPDEST PUSH2 0x125A SWAP1 DUP7 RETURNDATASIZE DUP9 GT PUSH2 0x114D JUMPI PUSH2 0x113F DUP2 DUP4 PUSH2 0x1948 JUMP JUMPDEST POP DUP6 PUSH2 0x123E JUMP JUMPDEST PUSH1 0x40 MLOAD PUSH3 0x461BCD PUSH1 0xE5 SHL DUP2 MSTORE PUSH1 0x4 DUP2 ADD DUP8 SWAP1 MSTORE PUSH1 0x17 PUSH1 0x24 DUP3 ADD MSTORE PUSH32 0x455343524F573A484241525F4E4F545F414C4C4F574544000000000000000000 PUSH1 0x44 DUP3 ADD MSTORE PUSH1 0x64 SWAP1 REVERT JUMPDEST PUSH1 0x40 MLOAD PUSH3 0x461BCD PUSH1 0xE5 SHL DUP2 MSTORE PUSH1 0x4 DUP2 ADD DUP7 SWAP1 MSTORE PUSH1 0x10 PUSH1 0x24 DUP3 ADD MSTORE PUSH16 0x22A9A1A927AB9D2727AA2FA12AACA2A9 PUSH1 0x81 SHL PUSH1 0x44 DUP3 ADD MSTORE PUSH1 0x64 SWAP1 REVERT JUMPDEST CALLVALUE PUSH2 0x141 JUMPI PUSH1 0x20 CALLDATASIZE PUSH1 0x3 NOT ADD SLT PUSH2 0x141 JUMPI PUSH1 0x4 CALLDATALOAD PUSH2 0x12FA PUSH2 0x1C84 JUMP JUMPDEST CALLER PUSH1 0x0 SWAP1 DUP2 MSTORE PUSH1 0x0 DUP1 MLOAD PUSH1 0x20 PUSH2 0x1E6B DUP4 CODECOPY DUP2 MLOAD SWAP2 MSTORE PUSH1 0x20 MSTORE PUSH1 0x40 SWAP1 KECCAK256 SLOAD PUSH2 0x1323 SWAP1 PUSH1 0xFF AND PUSH2 0x1A59 JUMP JUMPDEST PUSH2 0x132C DUP2 PUSH2 0x1E13 JUMP JUMPDEST SWAP1 PUSH1 0x6 DUP3 ADD DUP1 SLOAD PUSH1 0xFF DUP2 AND SWAP1 PUSH1 0x5 DUP3 LT ISZERO PUSH2 0x7A3 JUMPI PUSH2 0x134F PUSH1 0x2 PUSH1 0x4 SWAP4 EQ PUSH2 0x1AA7 JUMP JUMPDEST PUSH1 0xFF NOT AND OR SWAP1 SSTORE PUSH32 0x7CA5472B7EA78C2C0141C5A12EE6D170CF4CE8ED06BE3D22C8252DDFC7A6A2C4 PUSH1 0x20 PUSH1 0x1 DUP1 PUSH1 0xA0 SHL SUB DUP1 DUP6 SLOAD AND SWAP5 PUSH2 0x9E8 DUP3 PUSH1 0x4 DUP4 ADD SLOAD AND SWAP7 PUSH1 0x5 DUP4 ADD SWAP8 DUP9 SLOAD SWAP2 PUSH2 0x1CDA JUMP JUMPDEST CALLVALUE PUSH2 0x141 JUMPI PUSH1 0x40 CALLDATASIZE PUSH1 0x3 NOT ADD SLT PUSH2 0x141 JUMPI PUSH2 0x13B6 PUSH2 0x159F JUMP JUMPDEST CALLER PUSH1 0x1 PUSH1 0x1 PUSH1 0xA0 SHL SUB DUP3 AND SUB PUSH2 0x13D2 JUMPI PUSH2 0x1B SWAP1 PUSH1 0x4 CALLDATALOAD PUSH2 0x1969 JUMP JUMPDEST PUSH1 0x40 MLOAD PUSH3 0x461BCD PUSH1 0xE5 SHL DUP2 MSTORE PUSH1 0x20 PUSH1 0x4 DUP3 ADD MSTORE PUSH1 0x2F PUSH1 0x24 DUP3 ADD MSTORE PUSH32 0x416363657373436F6E74726F6C3A2063616E206F6E6C792072656E6F756E6365 PUSH1 0x44 DUP3 ADD MSTORE PUSH15 0x103937B632B9903337B91039B2B633 PUSH1 0x89 SHL PUSH1 0x64 DUP3 ADD MSTORE PUSH1 0x84 SWAP1 REVERT JUMPDEST CALLVALUE PUSH2 0x141 JUMPI PUSH1 0x40 CALLDATASIZE PUSH1 0x3 NOT ADD SLT PUSH2 0x141 JUMPI PUSH1 0x4 CALLDATALOAD PUSH2 0x144B PUSH2 0x159F JUMP JUMPDEST DUP2 PUSH1 0x0 MSTORE PUSH1 0x0 PUSH1 0x20 MSTORE PUSH2 0x1465 PUSH1 0x1 PUSH1 0x40 PUSH1 0x0 KECCAK256 ADD SLOAD PUSH2 0x15FD JUMP JUMPDEST DUP2 PUSH1 0x0 MSTORE PUSH1 0x0 PUSH1 0x20 MSTORE PUSH1 0x40 PUSH1 0x0 KECCAK256 SWAP1 PUSH1 0x1 DUP1 PUSH1 0xA0 SHL SUB AND SWAP1 DUP2 PUSH1 0x0 MSTORE PUSH1 0x20 MSTORE PUSH1 0xFF PUSH1 0x40 PUSH1 0x0 KECCAK256 SLOAD AND ISZERO PUSH2 0x1494 JUMPI STOP JUMPDEST DUP2 PUSH1 0x0 MSTORE PUSH1 0x0 PUSH1 0x20 MSTORE PUSH1 0x40 PUSH1 0x0 KECCAK256 DUP2 PUSH1 0x0 MSTORE PUSH1 0x20 MSTORE PUSH1 0x40 PUSH1 0x0 KECCAK256 PUSH1 0x1 PUSH1 0xFF NOT DUP3 SLOAD AND OR SWAP1 SSTORE CALLER SWAP2 PUSH32 0x2F8788117E7EFF1D82E926EC794901D17C78024A50270940304540A733656F0D PUSH1 0x0 DUP1 LOG4 STOP JUMPDEST CALLVALUE PUSH2 0x141 JUMPI PUSH1 0x20 CALLDATASIZE PUSH1 0x3 NOT ADD SLT PUSH2 0x141 JUMPI PUSH1 0x4 CALLDATALOAD PUSH1 0x0 MSTORE PUSH1 0x0 PUSH1 0x20 MSTORE PUSH1 0x20 PUSH1 0x1 PUSH1 0x40 PUSH1 0x0 KECCAK256 ADD SLOAD PUSH1 0x40 MLOAD SWAP1 DUP2 MSTORE RETURN JUMPDEST CALLVALUE PUSH2 0x141 JUMPI PUSH1 0x0 CALLDATASIZE PUSH1 0x3 NOT ADD SLT PUSH2 0x141 JUMPI PUSH1 0x20 PUSH1 0x40 MLOAD PUSH32 0x68E79A7BF1E0BC45D0A330C573BC367F9CF464FD326078812F301165FBDA4EF1 DUP2 MSTORE RETURN JUMPDEST CALLVALUE PUSH2 0x141 JUMPI PUSH1 0x20 CALLDATASIZE PUSH1 0x3 NOT ADD SLT PUSH2 0x141 JUMPI PUSH1 0x4 CALLDATALOAD SWAP1 PUSH4 0xFFFFFFFF PUSH1 0xE0 SHL DUP3 AND DUP1 SWAP3 SUB PUSH2 0x141 JUMPI PUSH1 0x20 SWAP2 PUSH4 0x7965DB0B PUSH1 0xE0 SHL DUP2 EQ SWAP1 DUP2 ISZERO PUSH2 0x158E JUMPI JUMPDEST POP ISZERO ISZERO DUP2 MSTORE RETURN JUMPDEST PUSH4 0x1FFC9A7 PUSH1 0xE0 SHL EQ SWAP1 POP DUP4 PUSH2 0x1587 JUMP JUMPDEST PUSH1 0x24 CALLDATALOAD SWAP1 PUSH1 0x1 PUSH1 0x1 PUSH1 0xA0 SHL SUB DUP3 AND DUP3 SUB PUSH2 0x141 JUMPI JUMP JUMPDEST PUSH1 0x0 JUMPDEST DUP4 DUP2 LT PUSH2 0x15C8 JUMPI POP POP PUSH1 0x0 SWAP2 ADD MSTORE JUMP JUMPDEST DUP2 DUP2 ADD MLOAD DUP4 DUP3 ADD MSTORE PUSH1 0x20 ADD PUSH2 0x15B8 JUMP JUMPDEST SWAP1 PUSH1 0x20 SWAP2 PUSH2 0x15F1 DUP2 MLOAD DUP1 SWAP3 DUP2 DUP6 MSTORE DUP6 DUP1 DUP7 ADD SWAP2 ADD PUSH2 0x15B5 JUMP JUMPDEST PUSH1 0x1F ADD PUSH1 0x1F NOT AND ADD ADD SWAP1 JUMP JUMPDEST PUSH1 0x0 SWAP1 DUP1 DUP3 MSTORE PUSH1 0x20 SWAP1 DUP3 DUP3 MSTORE PUSH1 0x40 SWAP3 DUP4 DUP2 KECCAK256 CALLER DUP3 MSTORE DUP4 MSTORE PUSH1 0xFF DUP5 DUP3 KECCAK256 SLOAD AND ISZERO PUSH2 0x1626 JUMPI POP POP POP POP JUMP JUMPDEST CALLER DUP5 MLOAD SWAP3 PUSH1 0x60 DUP5 ADD DUP5 DUP2 LT PUSH1 0x1 PUSH1 0x1 PUSH1 0x40 SHL SUB DUP3 GT OR PUSH2 0x18FD JUMPI DUP7 MSTORE PUSH1 0x2A DUP5 MSTORE DUP5 DUP5 ADD SWAP1 DUP7 CALLDATASIZE DUP4 CALLDATACOPY DUP5 MLOAD ISZERO PUSH2 0x18E9 JUMPI PUSH1 0x30 DUP3 MSTORE8 DUP5 MLOAD SWAP3 PUSH1 0x1 SWAP4 DUP5 LT ISZERO PUSH2 0x18D5 JUMPI PUSH1 0x78 PUSH1 0x21 DUP8 ADD MSTORE8 PUSH1 0x29 JUMPDEST DUP5 DUP2 GT PUSH2 0x186B JUMPI POP PUSH2 0x1829 JUMPI DUP7 MLOAD SWAP3 PUSH2 0x1688 DUP5 PUSH2 0x1911 JUMP JUMPDEST PUSH1 0x42 DUP5 MSTORE DUP7 DUP5 ADD SWAP5 PUSH1 0x60 CALLDATASIZE DUP8 CALLDATACOPY DUP5 MLOAD ISZERO PUSH2 0x1815 JUMPI PUSH1 0x30 DUP7 MSTORE8 DUP5 MLOAD DUP3 LT ISZERO PUSH2 0x1815 JUMPI SWAP1 PUSH1 0x78 PUSH1 0x21 DUP7 ADD MSTORE8 PUSH1 0x41 SWAP2 JUMPDEST DUP2 DUP4 GT PUSH2 0x17A7 JUMPI POP POP POP PUSH2 0x1765 JUMPI PUSH2 0x1761 SWAP4 DUP7 SWAP4 PUSH2 0x1745 SWAP4 PUSH2 0x1736 PUSH1 0x48 SWAP5 PUSH2 0x170D SWAP11 MLOAD SWAP11 DUP12 SWAP6 PUSH32 0x416363657373436F6E74726F6C3A206163636F756E7420000000000000000000 DUP13 DUP9 ADD MSTORE MLOAD DUP1 SWAP3 PUSH1 0x37 DUP9 ADD SWAP1 PUSH2 0x15B5 JUMP JUMPDEST DUP5 ADD SWAP2 PUSH17 0x1034B99036B4B9B9B4B733903937B6329 PUSH1 0x7D SHL PUSH1 0x37 DUP5 ADD MSTORE MLOAD DUP1 SWAP4 DUP7 DUP5 ADD SWAP1 PUSH2 0x15B5 JUMP JUMPDEST ADD SUB PUSH1 0x28 DUP2 ADD DUP8 MSTORE ADD DUP6 PUSH2 0x1948 JUMP JUMPDEST MLOAD SWAP3 DUP4 SWAP3 PUSH3 0x461BCD PUSH1 0xE5 SHL DUP5 MSTORE PUSH1 0x4 DUP5 ADD MSTORE PUSH1 0x24 DUP4 ADD SWAP1 PUSH2 0x15D8 JUMP JUMPDEST SUB SWAP1 REVERT JUMPDEST PUSH1 0x64 DUP6 DUP8 MLOAD SWAP1 PUSH3 0x461BCD PUSH1 0xE5 SHL DUP3 MSTORE DUP1 PUSH1 0x4 DUP4 ADD MSTORE PUSH1 0x24 DUP3 ADD MSTORE PUSH32 0x537472696E67733A20686578206C656E67746820696E73756666696369656E74 PUSH1 0x44 DUP3 ADD MSTORE REVERT JUMPDEST SWAP1 SWAP2 SWAP3 PUSH1 0xF DUP2 AND PUSH1 0x10 DUP2 LT ISZERO PUSH2 0x1801 JUMPI PUSH16 0x181899199A1A9B1B9C1CB0B131B232B3 PUSH1 0x81 SHL SWAP1 BYTE PUSH2 0x17D7 DUP6 DUP9 PUSH2 0x19F8 JUMP JUMPDEST MSTORE8 PUSH1 0x4 SHR SWAP3 DUP1 ISZERO PUSH2 0x17ED JUMPI PUSH1 0x0 NOT ADD SWAP2 SWAP1 PUSH2 0x16B5 JUMP JUMPDEST PUSH4 0x4E487B71 PUSH1 0xE0 SHL DUP3 MSTORE PUSH1 0x11 PUSH1 0x4 MSTORE PUSH1 0x24 DUP3 REVERT JUMPDEST PUSH4 0x4E487B71 PUSH1 0xE0 SHL DUP4 MSTORE PUSH1 0x32 PUSH1 0x4 MSTORE PUSH1 0x24 DUP4 REVERT JUMPDEST PUSH4 0x4E487B71 PUSH1 0xE0 SHL DUP2 MSTORE PUSH1 0x32 PUSH1 0x4 MSTORE PUSH1 0x24 SWAP1 REVERT JUMPDEST PUSH1 0x64 DUP7 DUP9 MLOAD SWAP1 PUSH3 0x461BCD PUSH1 0xE5 SHL DUP3 MSTORE DUP1 PUSH1 0x4 DUP4 ADD MSTORE PUSH1 0x24 DUP3 ADD MSTORE PUSH32 0x537472696E67733A20686578206C656E67746820696E73756666696369656E74 PUSH1 0x44 DUP3 ADD MSTORE REVERT JUMPDEST SWAP1 PUSH1 0xF DUP2 AND PUSH1 0x10 DUP2 LT ISZERO PUSH2 0x18C1 JUMPI PUSH16 0x181899199A1A9B1B9C1CB0B131B232B3 PUSH1 0x81 SHL SWAP1 BYTE PUSH2 0x1899 DUP4 DUP10 PUSH2 0x19F8 JUMP JUMPDEST MSTORE8 PUSH1 0x4 SHR SWAP1 DUP1 ISZERO PUSH2 0x18AD JUMPI PUSH1 0x0 NOT ADD PUSH2 0x1670 JUMP JUMPDEST PUSH4 0x4E487B71 PUSH1 0xE0 SHL DUP7 MSTORE PUSH1 0x11 PUSH1 0x4 MSTORE PUSH1 0x24 DUP7 REVERT JUMPDEST PUSH4 0x4E487B71 PUSH1 0xE0 SHL DUP8 MSTORE PUSH1 0x32 PUSH1 0x4 MSTORE PUSH1 0x24 DUP8 REVERT JUMPDEST PUSH4 0x4E487B71 PUSH1 0xE0 SHL DUP6 MSTORE PUSH1 0x32 PUSH1 0x4 MSTORE PUSH1 0x24 DUP6 REVERT JUMPDEST PUSH4 0x4E487B71 PUSH1 0xE0 SHL DUP5 MSTORE PUSH1 0x32 PUSH1 0x4 MSTORE PUSH1 0x24 DUP5 REVERT JUMPDEST PUSH4 0x4E487B71 PUSH1 0xE0 SHL DUP5 MSTORE PUSH1 0x41 PUSH1 0x4 MSTORE PUSH1 0x24 DUP5 REVERT JUMPDEST PUSH1 0x80 DUP2 ADD SWAP1 DUP2 LT PUSH1 0x1 PUSH1 0x1 PUSH1 0x40 SHL SUB DUP3 GT OR PUSH2 0x89D JUMPI PUSH1 0x40 MSTORE JUMP JUMPDEST PUSH2 0x160 DUP2 ADD SWAP1 DUP2 LT PUSH1 0x1 PUSH1 0x1 PUSH1 0x40 SHL SUB DUP3 GT OR PUSH2 0x89D JUMPI PUSH1 0x40 MSTORE JUMP JUMPDEST SWAP1 PUSH1 0x1F DUP1 NOT SWAP2 ADD AND DUP2 ADD SWAP1 DUP2 LT PUSH1 0x1 PUSH1 0x1 PUSH1 0x40 SHL SUB DUP3 GT OR PUSH2 0x89D JUMPI PUSH1 0x40 MSTORE JUMP JUMPDEST SWAP1 PUSH1 0x0 SWAP2 DUP1 DUP4 MSTORE DUP3 PUSH1 0x20 MSTORE PUSH1 0x40 DUP4 KECCAK256 SWAP2 PUSH1 0x1 DUP1 PUSH1 0xA0 SHL SUB AND SWAP2 DUP3 DUP5 MSTORE PUSH1 0x20 MSTORE PUSH1 0xFF PUSH1 0x40 DUP5 KECCAK256 SLOAD AND PUSH2 0x1999 JUMPI POP POP POP JUMP JUMPDEST DUP1 DUP4 MSTORE DUP3 PUSH1 0x20 MSTORE PUSH1 0x40 DUP4 KECCAK256 DUP3 DUP5 MSTORE PUSH1 0x20 MSTORE PUSH1 0x40 DUP4 KECCAK256 PUSH1 0xFF NOT DUP2 SLOAD AND SWAP1 SSTORE PUSH32 0xF6391F5C32D9C69D2A47EA670B442974B53935D1EDC7FD64EB21E047A839171B CALLER SWAP4 DUP1 LOG4 JUMP JUMPDEST PUSH1 0x1 PUSH1 0x1 PUSH1 0x40 SHL SUB DUP2 GT PUSH2 0x89D JUMPI PUSH1 0x1F ADD PUSH1 0x1F NOT AND PUSH1 0x20 ADD SWAP1 JUMP JUMPDEST SWAP1 DUP2 MLOAD DUP2 LT ISZERO PUSH2 0x1A09 JUMPI ADD PUSH1 0x20 ADD SWAP1 JUMP JUMPDEST PUSH4 0x4E487B71 PUSH1 0xE0 SHL PUSH1 0x0 MSTORE PUSH1 0x32 PUSH1 0x4 MSTORE PUSH1 0x24 PUSH1 0x0 REVERT JUMPDEST SWAP1 PUSH1 0x1 DUP3 DUP2 SHR SWAP3 AND DUP1 ISZERO PUSH2 0x1A4F JUMPI JUMPDEST PUSH1 0x20 DUP4 LT EQ PUSH2 0x1A39 JUMPI JUMP JUMPDEST PUSH4 0x4E487B71 PUSH1 0xE0 SHL PUSH1 0x0 MSTORE PUSH1 0x22 PUSH1 0x4 MSTORE PUSH1 0x24 PUSH1 0x0 REVERT JUMPDEST SWAP2 PUSH1 0x7F AND SWAP2 PUSH2 0x1A2E JUMP JUMPDEST ISZERO PUSH2 0x1A60 JUMPI JUMP JUMPDEST PUSH1 0x40 MLOAD PUSH3 0x461BCD PUSH1 0xE5 SHL DUP2 MSTORE PUSH1 0x20 PUSH1 0x4 DUP3 ADD MSTORE PUSH1 0x10 PUSH1 0x24 DUP3 ADD MSTORE PUSH16 0x524F4C453A455343524F575F4F4E4C59 PUSH1 0x80 SHL PUSH1 0x44 DUP3 ADD MSTORE PUSH1 0x64 SWAP1 REVERT JUMPDEST PUSH1 0x0 NOT DUP2 EQ PUSH2 0xF3B JUMPI PUSH1 0x1 ADD SWAP1 JUMP JUMPDEST ISZERO PUSH2 0x1AAE JUMPI JUMP JUMPDEST PUSH1 0x40 MLOAD PUSH3 0x461BCD PUSH1 0xE5 SHL DUP2 MSTORE PUSH1 0x20 PUSH1 0x4 DUP3 ADD MSTORE PUSH1 0xD PUSH1 0x24 DUP3 ADD MSTORE PUSH13 0x455343524F573A535441545553 PUSH1 0x98 SHL PUSH1 0x44 DUP3 ADD MSTORE PUSH1 0x64 SWAP1 REVERT JUMPDEST DUP2 DUP2 LT PUSH2 0x1AEE JUMPI POP POP JUMP JUMPDEST PUSH1 0x0 DUP2 SSTORE PUSH1 0x1 ADD PUSH2 0x1AE3 JUMP JUMPDEST SWAP2 SWAP1 DUP2 LT ISZERO PUSH2 0x1A09 JUMPI PUSH1 0x5 SHL DUP2 ADD CALLDATALOAD SWAP1 PUSH1 0x7E NOT DUP2 CALLDATASIZE SUB ADD DUP3 SLT ISZERO PUSH2 0x141 JUMPI ADD SWAP1 JUMP JUMPDEST CALLDATALOAD DUP1 ISZERO ISZERO DUP2 SUB PUSH2 0x141 JUMPI SWAP1 JUMP JUMPDEST DUP1 SLOAD DUP3 LT ISZERO PUSH2 0x1A09 JUMPI PUSH1 0x0 MSTORE PUSH1 0x3 PUSH1 0x20 PUSH1 0x0 KECCAK256 SWAP2 MUL ADD SWAP1 PUSH1 0x0 SWAP1 JUMP JUMPDEST SWAP1 SWAP2 PUSH2 0x1B50 DUP3 PUSH2 0x1E13 JUMP JUMPDEST PUSH1 0x7 ADD SWAP3 PUSH1 0x0 JUMPDEST DUP5 SLOAD DUP2 LT ISZERO PUSH2 0x1C27 JUMPI DUP2 PUSH2 0x1B6B DUP3 DUP8 PUSH2 0x1B29 JUMP JUMPDEST POP SLOAD EQ PUSH2 0x1B80 JUMPI PUSH2 0x1B7B SWAP1 PUSH2 0x1A98 JUMP JUMPDEST PUSH2 0x1B57 JUMP JUMPDEST DUP5 DUP2 PUSH2 0x1BE9 PUSH2 0x1BB4 PUSH2 0x1C0F SWAP5 PUSH32 0x74E72693A9AFF338FC0DCB1E8076061524F6514C79709CC4441AFC23A414F77 SWAP9 SWAP10 PUSH2 0x1B29 JUMP JUMPDEST POP SWAP2 PUSH2 0x1BD0 DUP8 PUSH1 0x2 DUP1 SWAP6 ADD SWAP1 PUSH1 0xFF DUP1 NOT DUP4 SLOAD AND SWAP2 ISZERO ISZERO AND OR SWAP1 SSTORE JUMP JUMPDEST PUSH1 0x0 DUP8 ISZERO PUSH2 0x1C21 JUMPI POP PUSH1 0x1 PUSH1 0x1 PUSH1 0x40 SHL SUB TIMESTAMP AND SWAP4 PUSH2 0x1B29 JUMP JUMPDEST POP ADD SWAP1 PUSH9 0xFFFFFFFFFFFFFFFF00 DUP3 SLOAD SWAP2 PUSH1 0x8 SHL AND SWAP1 PUSH9 0xFFFFFFFFFFFFFFFF00 NOT AND OR SWAP1 SSTORE JUMP JUMPDEST PUSH1 0x40 DUP1 MLOAD SWAP2 DUP3 MSTORE SWAP2 ISZERO ISZERO PUSH1 0x20 DUP3 ADD MSTORE LOG2 JUMP JUMPDEST SWAP4 PUSH2 0x1B29 JUMP JUMPDEST PUSH1 0x40 MLOAD PUSH3 0x461BCD PUSH1 0xE5 SHL DUP2 MSTORE PUSH1 0x20 PUSH1 0x4 DUP3 ADD MSTORE PUSH1 0x18 PUSH1 0x24 DUP3 ADD MSTORE PUSH32 0x455343524F573A554E4B4E4F574E5F434F4E444954494F4E0000000000000000 PUSH1 0x44 DUP3 ADD MSTORE PUSH1 0x64 SWAP1 REVERT JUMPDEST SWAP1 DUP2 PUSH1 0x20 SWAP2 SUB SLT PUSH2 0x141 JUMPI MLOAD DUP1 ISZERO ISZERO DUP2 SUB PUSH2 0x141 JUMPI SWAP1 JUMP JUMPDEST PUSH1 0x2 PUSH1 0x1 SLOAD EQ PUSH2 0x1C95 JUMPI PUSH1 0x2 PUSH1 0x1 SSTORE JUMP JUMPDEST PUSH1 0x40 MLOAD PUSH3 0x461BCD PUSH1 0xE5 SHL DUP2 MSTORE PUSH1 0x20 PUSH1 0x4 DUP3 ADD MSTORE PUSH1 0x1F PUSH1 0x24 DUP3 ADD MSTORE PUSH32 0x5265656E7472616E637947756172643A207265656E7472616E742063616C6C00 PUSH1 0x44 DUP3 ADD MSTORE PUSH1 0x64 SWAP1 REVERT JUMPDEST SWAP1 PUSH1 0x1 PUSH1 0x1 PUSH1 0xA0 SHL SUB AND DUP1 PUSH2 0x1D6D JUMPI POP PUSH1 0x0 DUP1 DUP1 SWAP4 DUP2 SWAP4 GAS CALL RETURNDATASIZE ISZERO PUSH2 0x1D68 JUMPI RETURNDATASIZE PUSH2 0x1D03 DUP2 PUSH2 0x19DD JUMP JUMPDEST SWAP1 PUSH2 0x1D11 PUSH1 0x40 MLOAD SWAP3 DUP4 PUSH2 0x1948 JUMP JUMPDEST DUP2 MSTORE PUSH1 0x0 PUSH1 0x20 RETURNDATASIZE SWAP3 ADD RETURNDATACOPY JUMPDEST ISZERO PUSH2 0x1D23 JUMPI JUMP JUMPDEST PUSH1 0x40 MLOAD PUSH3 0x461BCD PUSH1 0xE5 SHL DUP2 MSTORE PUSH1 0x20 PUSH1 0x4 DUP3 ADD MSTORE PUSH1 0x19 PUSH1 0x24 DUP3 ADD MSTORE PUSH32 0x455343524F573A484241525F5452414E534645525F4641494C00000000000000 PUSH1 0x44 DUP3 ADD MSTORE PUSH1 0x64 SWAP1 REVERT JUMPDEST PUSH2 0x1D1C JUMP JUMPDEST PUSH1 0x40 MLOAD PUSH4 0xA9059CBB PUSH1 0xE0 SHL DUP2 MSTORE PUSH1 0x1 PUSH1 0x1 PUSH1 0xA0 SHL SUB SWAP3 SWAP1 SWAP3 AND PUSH1 0x4 DUP4 ADD MSTORE PUSH1 0x24 DUP3 ADD SWAP3 SWAP1 SWAP3 MSTORE SWAP1 PUSH1 0x20 SWAP1 DUP3 SWAP1 PUSH1 0x44 SWAP1 DUP3 SWAP1 PUSH1 0x0 SWAP1 GAS CALL DUP1 ISZERO PUSH2 0x1154 JUMPI PUSH2 0x1DB0 JUMPI POP JUMP JUMPDEST PUSH2 0x1DC7 SWAP1 PUSH1 0x20 RETURNDATASIZE DUP2 GT PUSH2 0x114D JUMPI PUSH2 0x113F DUP2 DUP4 PUSH2 0x1948 JUMP JUMPDEST POP JUMP JUMPDEST PUSH1 0x0 DUP1 JUMPDEST PUSH1 0x7 DUP4 ADD DUP1 SLOAD DUP3 LT ISZERO PUSH2 0x1E0A JUMPI PUSH1 0x2 PUSH2 0x1DE9 DUP4 PUSH1 0xFF SWAP4 PUSH2 0x1B29 JUMP JUMPDEST POP ADD SLOAD AND ISZERO PUSH2 0x1E04 JUMPI PUSH2 0x1DFD PUSH1 0x7 SWAP2 PUSH2 0x1A98 JUMP JUMPDEST SWAP1 POP PUSH2 0x1DCE JUMP JUMPDEST POP SWAP1 POP SWAP1 JUMP JUMPDEST POP POP POP POP PUSH1 0x1 SWAP1 JUMP JUMPDEST PUSH1 0x0 SWAP1 DUP2 MSTORE PUSH1 0x3 PUSH1 0x20 MSTORE PUSH1 0x40 SWAP1 KECCAK256 DUP1 SLOAD PUSH1 0x1 PUSH1 0x1 PUSH1 0xA0 SHL SUB AND ISZERO PUSH2 0x1E34 JUMPI SWAP1 JUMP JUMPDEST PUSH1 0x40 MLOAD PUSH3 0x461BCD PUSH1 0xE5 SHL DUP2 MSTORE PUSH1 0x20 PUSH1 0x4 DUP3 ADD MSTORE PUSH1 0xE PUSH1 0x24 DUP3 ADD MSTORE PUSH14 0x22A9A1A927AB9D2AA725A727ABA7 PUSH1 0x91 SHL PUSH1 0x44 DUP3 ADD MSTORE PUSH1 0x64 SWAP1 REVERT INVALID 0xE3 0xC5 PC 0xB6 0x26 PUSH25 0x382104A32ECA8ACFC9CD319238C371FE623AFA6AC48F9723F7 0xB0 LOG2 PUSH5 0x6970667358 0x22 SLT KECCAK256 CHAINID 0xA8 SWAP9 0xEC 0xB4 SHR ADDRESS 0xDA PUSH32 0x19967990B55F0C009A3C329FE384379822ECE0D232C12264736F6C6343000814 STOP CALLER "},"methodIdentifiers":{"DEFAULT_ADMIN_ROLE()":"a217fddf","ESCROW_ROLE()":"6ce76f30","GOVERNANCE_ROLE()":"f36c8f5c","ISSUER_ROLE()":"82aefa24","OPERATOR_ROLE()":"f5b541a6","ORACLE_ROLE()":"07e2cea5","complianceOracle()":"410239bf","createEscrow(address,address,uint256,address,address,uint256)":"cd3fc814","depositFunds(uint256)":"3b76594d","getEscrow(uint256)":"7d19e596","getRoleAdmin(bytes32)":"248a9ca3","grantRole(bytes32,address)":"2f2ff15d","hasRole(bytes32,address)":"91d14854","markCondition(uint256,bytes32,bool)":"b796d966","refundBuyer(uint256)":"39292763","releaseFunds(uint256)":"4d68282f","renounceRole(bytes32,address)":"36568abe","revokeRole(bytes32,address)":"d547741f","setConditions(uint256,(bytes32,string,bool,uint64)[])":"3c7fcfb2","supportsInterface(bytes4)":"01ffc9a7"}}}}}