{"contracts/property/PropertyToken.sol":{"PropertyToken":{"abi":[{"inputs":[{"internalType":"address","name":"admin","type":"address"}],"stateMutability":"nonpayable","type":"constructor"},{"anonymous":false,"inputs":[{"indexed":true,"internalType":"address","name":"owner","type":"address"},{"indexed":true,"internalType":"address","name":"approved","type":"address"},{"indexed":true,"internalType":"uint256","name":"tokenId","type":"uint256"}],"name":"Approval","type":"event"},{"anonymous":false,"inputs":[{"indexed":true,"internalType":"address","name":"owner","type":"address"},{"indexed":true,"internalType":"address","name":"operator","type":"address"},{"indexed":false,"internalType":"bool","name":"approved","type":"bool"}],"name":"ApprovalForAll","type":"event"},{"anonymous":false,"inputs":[{"indexed":false,"internalType":"uint256","name":"_fromTokenId","type":"uint256"},{"indexed":false,"internalType":"uint256","name":"_toTokenId","type":"uint256"}],"name":"BatchMetadataUpdate","type":"event"},{"anonymous":false,"inputs":[{"indexed":true,"internalType":"uint256","name":"tokenId","type":"uint256"},{"indexed":true,"internalType":"address","name":"from","type":"address"},{"indexed":true,"internalType":"address","name":"to","type":"address"},{"indexed":false,"internalType":"uint256","name":"amount","type":"uint256"}],"name":"FractionTransferred","type":"event"},{"anonymous":false,"inputs":[{"indexed":true,"internalType":"uint256","name":"tokenId","type":"uint256"},{"indexed":false,"internalType":"uint256","name":"shareSupply","type":"uint256"}],"name":"Fractionalized","type":"event"},{"anonymous":false,"inputs":[{"indexed":false,"internalType":"uint256","name":"_tokenId","type":"uint256"}],"name":"MetadataUpdate","type":"event"},{"anonymous":false,"inputs":[{"indexed":true,"internalType":"uint256","name":"tokenId","type":"uint256"},{"indexed":true,"internalType":"address","name":"owner","type":"address"},{"indexed":false,"internalType":"string","name":"metadataURI","type":"string"}],"name":"PropertyMinted","type":"event"},{"anonymous":false,"inputs":[{"indexed":true,"internalType":"bytes32","name":"role","type":"bytes32"},{"indexed":true,"internalType":"bytes32","name":"previousAdminRole","type":"bytes32"},{"indexed":true,"internalType":"bytes32","name":"newAdminRole","type":"bytes32"}],"name":"RoleAdminChanged","type":"event"},{"anonymous":false,"inputs":[{"indexed":true,"internalType":"bytes32","name":"role","type":"bytes32"},{"indexed":true,"internalType":"address","name":"account","type":"address"},{"indexed":true,"internalType":"address","name":"sender","type":"address"}],"name":"RoleGranted","type":"event"},{"anonymous":false,"inputs":[{"indexed":true,"internalType":"bytes32","name":"role","type":"bytes32"},{"indexed":true,"internalType":"address","name":"account","type":"address"},{"indexed":true,"internalType":"address","name":"sender","type":"address"}],"name":"RoleRevoked","type":"event"},{"anonymous":false,"inputs":[{"indexed":true,"internalType":"uint256","name":"tokenId","type":"uint256"},{"indexed":false,"internalType":"bool","name":"locked","type":"bool"}],"name":"TitleLocked","type":"event"},{"anonymous":false,"inputs":[{"indexed":true,"internalType":"address","name":"from","type":"address"},{"indexed":true,"internalType":"address","name":"to","type":"address"},{"indexed":true,"internalType":"uint256","name":"tokenId","type":"uint256"}],"name":"Transfer","type":"event"},{"inputs":[],"name":"DEFAULT_ADMIN_ROLE","outputs":[{"internalType":"bytes32","name":"","type":"bytes32"}],"stateMutability":"view","type":"function"},{"inputs":[],"name":"ESCROW_ROLE","outputs":[{"internalType":"bytes32","name":"","type":"bytes32"}],"stateMutability":"view","type":"function"},{"inputs":[],"name":"GOVERNANCE_ROLE","outputs":[{"internalType":"bytes32","name":"","type":"bytes32"}],"stateMutability":"view","type":"function"},{"inputs":[],"name":"ISSUER_ROLE","outputs":[{"internalType":"bytes32","name":"","type":"bytes32"}],"stateMutability":"view","type":"function"},{"inputs":[],"name":"OPERATOR_ROLE","outputs":[{"internalType":"bytes32","name":"","type":"bytes32"}],"stateMutability":"view","type":"function"},{"inputs":[],"name":"ORACLE_ROLE","outputs":[{"internalType":"bytes32","name":"","type":"bytes32"}],"stateMutability":"view","type":"function"},{"inputs":[{"internalType":"address","name":"to","type":"address"},{"internalType":"uint256","name":"tokenId","type":"uint256"}],"name":"approve","outputs":[],"stateMutability":"nonpayable","type":"function"},{"inputs":[{"internalType":"address","name":"owner","type":"address"}],"name":"balanceOf","outputs":[{"internalType":"uint256","name":"","type":"uint256"}],"stateMutability":"view","type":"function"},{"inputs":[{"internalType":"uint256","name":"tokenId","type":"uint256"},{"internalType":"address","name":"account","type":"address"}],"name":"fractionBalanceOf","outputs":[{"internalType":"uint256","name":"","type":"uint256"}],"stateMutability":"view","type":"function"},{"inputs":[{"internalType":"uint256","name":"tokenId","type":"uint256"},{"internalType":"uint256","name":"totalShareSupply","type":"uint256"}],"name":"fractionalize","outputs":[],"stateMutability":"nonpayable","type":"function"},{"inputs":[{"internalType":"uint256","name":"tokenId","type":"uint256"}],"name":"getApproved","outputs":[{"internalType":"address","name":"","type":"address"}],"stateMutability":"view","type":"function"},{"inputs":[{"internalType":"uint256","name":"tokenId","type":"uint256"}],"name":"getFractionHolders","outputs":[{"internalType":"address[]","name":"holders","type":"address[]"},{"internalType":"uint256[]","name":"balances","type":"uint256[]"}],"stateMutability":"view","type":"function"},{"inputs":[{"internalType":"bytes32","name":"role","type":"bytes32"}],"name":"getRoleAdmin","outputs":[{"internalType":"bytes32","name":"","type":"bytes32"}],"stateMutability":"view","type":"function"},{"inputs":[{"internalType":"bytes32","name":"role","type":"bytes32"},{"internalType":"address","name":"account","type":"address"}],"name":"grantRole","outputs":[],"stateMutability":"nonpayable","type":"function"},{"inputs":[{"internalType":"bytes32","name":"role","type":"bytes32"},{"internalType":"address","name":"account","type":"address"}],"name":"hasRole","outputs":[{"internalType":"bool","name":"","type":"bool"}],"stateMutability":"view","type":"function"},{"inputs":[{"internalType":"address","name":"owner","type":"address"},{"internalType":"address","name":"operator","type":"address"}],"name":"isApprovedForAll","outputs":[{"internalType":"bool","name":"","type":"bool"}],"stateMutability":"view","type":"function"},{"inputs":[{"internalType":"uint256","name":"","type":"uint256"}],"name":"isLocked","outputs":[{"internalType":"bool","name":"","type":"bool"}],"stateMutability":"view","type":"function"},{"inputs":[{"internalType":"uint256","name":"tokenId","type":"uint256"}],"name":"lockTitle","outputs":[],"stateMutability":"nonpayable","type":"function"},{"inputs":[{"internalType":"string","name":"metadataURI","type":"string"},{"internalType":"address","name":"to","type":"address"}],"name":"mintPropertyNFT","outputs":[{"internalType":"uint256","name":"tokenId","type":"uint256"}],"stateMutability":"nonpayable","type":"function"},{"inputs":[],"name":"name","outputs":[{"internalType":"string","name":"","type":"string"}],"stateMutability":"view","type":"function"},{"inputs":[{"internalType":"uint256","name":"tokenId","type":"uint256"}],"name":"ownerOf","outputs":[{"internalType":"address","name":"","type":"address"}],"stateMutability":"view","type":"function"},{"inputs":[{"internalType":"bytes32","name":"role","type":"bytes32"},{"internalType":"address","name":"account","type":"address"}],"name":"renounceRole","outputs":[],"stateMutability":"nonpayable","type":"function"},{"inputs":[{"internalType":"bytes32","name":"role","type":"bytes32"},{"internalType":"address","name":"account","type":"address"}],"name":"revokeRole","outputs":[],"stateMutability":"nonpayable","type":"function"},{"inputs":[{"internalType":"address","name":"from","type":"address"},{"internalType":"address","name":"to","type":"address"},{"internalType":"uint256","name":"tokenId","type":"uint256"}],"name":"safeTransferFrom","outputs":[],"stateMutability":"nonpayable","type":"function"},{"inputs":[{"internalType":"address","name":"from","type":"address"},{"internalType":"address","name":"to","type":"address"},{"internalType":"uint256","name":"tokenId","type":"uint256"},{"internalType":"bytes","name":"data","type":"bytes"}],"name":"safeTransferFrom","outputs":[],"stateMutability":"nonpayable","type":"function"},{"inputs":[{"internalType":"address","name":"operator","type":"address"},{"internalType":"bool","name":"approved","type":"bool"}],"name":"setApprovalForAll","outputs":[],"stateMutability":"nonpayable","type":"function"},{"inputs":[{"internalType":"bytes4","name":"interfaceId","type":"bytes4"}],"name":"supportsInterface","outputs":[{"internalType":"bool","name":"","type":"bool"}],"stateMutability":"view","type":"function"},{"inputs":[],"name":"symbol","outputs":[{"internalType":"string","name":"","type":"string"}],"stateMutability":"view","type":"function"},{"inputs":[{"internalType":"uint256","name":"tokenId","type":"uint256"}],"name":"tokenURI","outputs":[{"internalType":"string","name":"","type":"string"}],"stateMutability":"view","type":"function"},{"inputs":[{"internalType":"uint256","name":"tokenId","type":"uint256"}],"name":"totalShares","outputs":[{"internalType":"uint256","name":"","type":"uint256"}],"stateMutability":"view","type":"function"},{"inputs":[{"internalType":"uint256","name":"tokenId","type":"uint256"},{"internalType":"address","name":"to","type":"address"},{"internalType":"uint256","name":"amount","type":"uint256"}],"name":"transferFraction","outputs":[],"stateMutability":"nonpayable","type":"function"},{"inputs":[{"internalType":"uint256","name":"tokenId","type":"uint256"},{"internalType":"address","name":"from","type":"address"},{"internalType":"address","name":"to","type":"address"},{"internalType":"uint256","name":"amount","type":"uint256"}],"name":"transferFractionFrom","outputs":[],"stateMutability":"nonpayable","type":"function"},{"inputs":[{"internalType":"address","name":"from","type":"address"},{"internalType":"address","name":"to","type":"address"},{"internalType":"uint256","name":"tokenId","type":"uint256"}],"name":"transferFrom","outputs":[],"stateMutability":"nonpayable","type":"function"},{"inputs":[{"internalType":"uint256","name":"tokenId","type":"uint256"}],"name":"unlockTitle","outputs":[],"stateMutability":"nonpayable","type":"function"}],"evm":{"bytecode":{"linkReferences":{},"object":"608034620004e75762002e5e9081380390601f1991601f90838282011683019460018060401b039184871083881117620004d15780859260409889528339602094859181010312620004e757516001600160a01b0381169190829003620004e7576200006a620004ec565b92600e84526d45717569582050726f706572747960901b858501526200008f620004ec565b6007815266045515850524f560cc1b86820152845196838811620004d1576000978854966001978881811c91168015620004c6575b8a821014620004b2579081868493116200045f575b508990868311600114620003fe578b92620003f2575b5050600019600383901b1c191690871b1788555b8151938411620003de5785548681811c91168015620003d3575b88821014620003bf57908184869594931162000368575b50879284116001146200030757508792620002fb575b5050600019600383901b1c191690831b1782555b83805260078352848420818552835260ff858520541615620002b1575b5060077f97667070c54ef182b0f5858b034beac1b6f3089aa2d3188bb1e8929f4fa9b929928385525282818582200181815491557fbd79b86ffe0ab8e8776151514217cd7cacd52c909f66475c3af44e129f0b00ff93848380a4827f2fdac322ee704ce09f0773f7f3f92eb98d5e7c836ee9c056cccd5f61041e5e3f8082528286832001908282549255848380a4827f68e79a7bf1e0bc45d0a330c573bc367f9cf464fd326078812f301165fbda4ef18082528286832001908282549255848380a4827f114e74f6ea3bd819998f78687bfcb11b140da08e9b7d222fa9c1f1ba1f2aa1228082528286832001908282549255848380a47f71840dc4906352362b0cdaf79870196c8e42acafade72d5d5a6d59291253ceb190818452848420019183835493558380a45161295190816200050d8239f35b838052600783528484208185528352848420805460ff1916831790553390847f2f8788117e7eff1d82e926ec794901d17c78024a50270940304540a733656f0d8180a4386200017b565b0151905038806200014a565b86895287892087959093929116895b8982821062000351575050841162000337575b505050811b0182556200015e565b015160001960f88460031b161c1916905538808062000329565b838501518655899790950194938401930162000316565b90919293508689528789208480870160051c8201928a8810620003b5575b9187968a92969594930160051c01915b828110620003a657505062000134565b8b815587965089910162000396565b9250819262000386565b634e487b7160e01b89526022600452602489fd5b90607f16906200011d565b634e487b7160e01b88526041600452602488fd5b015190503880620000ef565b90848a9416918c80528b8d20928d5b8d8282106200044857505084116200042e575b505050811b01885562000103565b015160001960f88460031b161c1916905538808062000420565b8385015186558d979095019493840193016200040d565b9091508a8052898b208680850160051c8201928c8610620004a8575b918b91869594930160051c01915b82811062000499575050620000d9565b8d81558594508b910162000489565b925081926200047b565b634e487b7160e01b8b52602260045260248bfd5b90607f1690620000c4565b634e487b7160e01b600052604160045260246000fd5b600080fd5b60408051919082016001600160401b03811183821017620004d15760405256fe6080604081815260048036101561001557600080fd5b600092833560e01c90816301ffc9a71461194f5750806306fdde03146118a757806307e2cea51461186c578063081812fc1461184c578063095ea7b3146116df5780630c386fda1461152257806313f2dad0146114fb57806323b872dd146114d6578063248a9ca3146114ac5780632f2ff15d146114005780632f5d9de21461122357806336568abe1461119157806342842e0e1461115d5780636352211e1461112c5780636ce76f30146110f15780636f2e895c1461105057806370a0823114610fba578063823a3bf414610f1557806382aefa2414610eda57806387c2eab5146109ef57806391d14854146109a957806394e53ea7146107c757806395d89b41146106e4578063a217fddf146106c9578063a22cb465146105fa578063b88d4fde1461056f578063c6ef551e1461040b578063c87b56dd146102fd578063d547741f146102bf578063e985e9c514610271578063eb47974014610230578063f36c8f5c146101f5578063f5b541a6146101c85763f6aacfb11461019957600080fd5b346101c45760203660031901126101c4578160209360ff92358152600b855220541690519015158152f35b8280fd5b5050346101f157816003193601126101f157602090516000805160206128fc8339815191528152f35b5080fd5b5050346101f157816003193601126101f157602090517f71840dc4906352362b0cdaf79870196c8e42acafade72d5d5a6d59291253ceb18152f35b50346101c457816003193601126101c457602092829161024e611a52565b90358252600a85528282206001600160a01b039091168252845220549051908152f35b5050346101f157806003193601126101f15760ff81602093610291611a37565b610299611a52565b6001600160a01b0391821683526005875283832091168252855220549151911615158152f35b5090346101c457806003193601126101c4576102fa91356102f560016102e3611a52565b93838752600760205286200154611b44565b611e7a565b80f35b5090346101c457602091826003193601126104075735600081815260026020526040902054610336906001600160a01b03161515611ef0565b83526006825280832092815180948290805461035181611f62565b918285526001918883821691826000146103e05750506001146103a2575b50505061039e939291610383910386611acf565b815161038e81611a9d565b5251928284938452830190611a12565b0390f35b8552868520879350859291905b8284106103c8575050508201018161038361039e61036f565b8054848b0186015289955088949093019281016103af565b60ff19168782015293151560051b86019093019350849250610383915061039e905061036f565b8380fd5b50913461056c57602092836003193601126101f15735908181526009845260019182848320019485549561043e876127f3565b9561044b81519788611acf565b878752610457886127f3565b9783880194601f19809a0136873761046e826127f3565b9361047b84519586611acf565b828552610487836127f3565b8587019b01368c37875b838110610508575050505080519681880191885251809152606087019390855b8181106104ec57505050858303868301525180835291810195925b8281106104d95785870386f35b83518752958101959281019284016104cc565b82516001600160a01b03168652948401949184019187016104b1565b80808c61053c9c9e9c61052261056095879e9c9d9e612727565b905460039190911b1c6001600160a01b031692839261280b565b52848952600a8a5286892090895289528588205461055a828961280b565b5261268b565b9a989a97969597610491565b80fd5b8382346101f15760803660031901126101f15761058a611a37565b90610593611a52565b916044356064359367ffffffffffffffff85116105f657366023860112156105f6576105ce6105f1948660246102fa98369301359101611b0d565b926105e16105dc84336120af565b611fda565b6105ec838383612177565b612576565b61208f565b8580fd5b5090346101c457806003193601126101c457610614611a37565b90602435918215158093036106c5576001600160a01b0316923384146106835750338452600560205280842083855260205280842060ff1981541660ff8416179055519081527f17307eab39ab6107e8899845ad3d59bd9653f200f220920489ca2b5937696c3160203392a380f35b6020606492519162461bcd60e51b8352820152601960248201527f4552433732313a20617070726f766520746f2063616c6c6572000000000000006044820152fd5b8480fd5b5050346101f157816003193601126101f15751908152602090f35b5050346101f157816003193601126101f15780519082600180549161070883611f62565b8086529282811690811561079f5750600114610743575b5050506107318261039e940383611acf565b51918291602083526020830190611a12565b94508085527fb10e2d527612073b26eecdfd717e6a320cf44b4afac2b0732d9fcbe2b7fa0cf65b8286106107875750505061073182602061039e958201019461071f565b8054602087870181019190915290950194810161076a565b61039e97508693506020925061073194915060ff191682840152151560051b8201019461071f565b5090346101c45760603660031901126101c45781356107e4611a52565b6044359282865260209160098352818720541561096c57838752600b835260ff828820541661093b576001600160a01b031694610822861515612647565b838752600a8352818720338852835281872054908582101580610932575b156108f4575090847f7ff67dbbdeb398bca52908d00dd27b952f03cbe7657eb5dac8138dacf2b52b3f9392858952600a8452828920338a5284520381882055838752600a8252808720338852825280872054156108d8575b838752600a825280872086885282528087206108b58682546125fd565b9055838752600982526108cd866001838a200161273f565b50519384523393a480f35b838752600982526108ee336001838a200161281f565b50610898565b825162461bcd60e51b8152908101849052601860248201527750524f503a494e53554646494349454e545f53484152455360401b6044820152606490fd5b50851515610840565b815162461bcd60e51b8152808701849052600b60248201526a141493d40e9313d0d2d15160aa1b6044820152606490fd5b815162461bcd60e51b81528087018490526017602482015276141493d40e9393d517d1949050d51253d390531254d151604a1b6044820152606490fd5b50346101c457816003193601126101c4578160209360ff926109c9611a52565b90358252600786528282206001600160a01b039091168252855220549151911615158152f35b509190346101f157806003193601126101f15767ffffffffffffffff8335818111610407573660238201121561040757808501358281116106c55760249182810190838336920101116105f657610a44611a52565b957f114e74f6ea3bd819998f78687bfcb11b140da08e9b7d222fa9c1f1ba1f2aa122815260209760078952868220338352895260ff878320541615610ea5578315610e6f576001600160a01b038816958615610aa08115612647565b610aab60085461268b565b998a600855895191610abc83611a9d565b858352610e2f5760008b815260026020526040902054610ae8906001600160a01b031615155b1561269a565b8a8552600b8c5260ff8a86205416610df6576105f18c928c610b809360028e8e610b2a610ae286600052600260205260018060a01b0360406000205416151590565b8b52600388528a2080546001908101909155838b5296528d892080546001600160a01b0319168e179055818d8a7fddf252ad1be2c89b69c2b068fc378daa952ba7f163c4a11628f55a4df523b3ef8180a461245c565b610b8b368787611b0d565b60008b8152600260205260409020549097906001600160a01b031615610d9e578a855260068c52898520938851938411610d8d575050918893918a969593610bd38354611f62565b601f8111610d2f575b508c98601f8311600114610c8b57918080927f0d6a75679ec9091a61a3192722f7073bfdf34a0e67c61c08484adef28bfa375a9a9b8796958b9894610c80575b50501b916000199060031b1c19161790555b7ff8e1a15aba9398e019f0b49df1a4fde98ee17ae345cb5f6b5e2c27f5033e8ce78b8551898152a183519485938c8552818d86015285850137828201840152601f01601f19168101030190a351908152f35b015192503880610c1c565b8d90601f9392931983168587528287209287905b828210610d005750509a8392918a979695947f0d6a75679ec9091a61a3192722f7073bfdf34a0e67c61c08484adef28bfa375a9c9d10610ce7575b505050811b019055610c2e565b015160001960f88460031b161c19169055388080610cda565b9294979a9c96995094979a5091818881928887015181550196019401918d9895928f9b98959c9a979492610c9f565b91938395979850809650929092528b8520601f840160051c8101918d8510610d83575b918c9897959391601f8d9896940160051c01905b818110610d735750610bdc565b8581558d99508c97508201610d66565b9091508190610d52565b634e487b7160e01b86526041905284fd5b83602e6084928e8d519362461bcd60e51b85528401528201527f45524337323155524953746f726167653a2055524920736574206f66206e6f6e60448201526d32bc34b9ba32b73a103a37b5b2b760911b6064820152fd5b895162461bcd60e51b81528085018d90526014818a015273282927a81d2627a1a5a2a22faa2920a729a322a960611b6044820152606490fd5b6064848d8a818e519362461bcd60e51b85528401528201527f4552433732313a206d696e7420746f20746865207a65726f20616464726573736044820152fd5b865162461bcd60e51b815290810189905260118186015270141493d40e95549257d491545552549151607a1b6044820152606490fd5b865162461bcd60e51b81529081018990526010818601526f524f4c453a4953535545525f4f4e4c5960801b6044820152606490fd5b5050346101f157816003193601126101f157602090517f114e74f6ea3bd819998f78687bfcb11b140da08e9b7d222fa9c1f1ba1f2aa1228152f35b50346101c45760203660031901126101c45760207f50ce0855adefa9cc610b1c7b5dd5c76f5e2c39de3de9f8eddc24150eb580cd9c9135926000805160206128fc8339815191528552600782528085203386528252610f7960ff82872054166127b2565b600084815260026020526040902054610f9c906001600160a01b031615156126e6565b838552600b8252808520600160ff198254161790555160018152a280f35b508290346101f15760203660031901126101f1576001600160a01b03610fde611a37565b16908115610ffb5760208480858581526003845220549051908152f35b608490602085519162461bcd60e51b8352820152602960248201527f4552433732313a2061646472657373207a65726f206973206e6f7420612076616044820152683634b21037bbb732b960b91b6064820152fd5b50346101c45760203660031901126101c45760207f50ce0855adefa9cc610b1c7b5dd5c76f5e2c39de3de9f8eddc24150eb580cd9c9135926000805160206128fc83398151915285526007825280852033865282526110b460ff82872054166127b2565b6000848152600260205260409020546110d7906001600160a01b031615156126e6565b838552600b8252808520805460ff1916905551848152a280f35b5050346101f157816003193601126101f157602090517f2fdac322ee704ce09f0773f7f3f92eb98d5e7c836ee9c056cccd5f61041e5e3f8152f35b50913461056c57602036600319011261056c575061114c60209235611f3c565b90516001600160a01b039091168152f35b5050346101f1576105f16102fa9161117436611a68565b9192519261118184611a9d565b8684526105e16105dc84336120af565b508290346101f157826003193601126101f1576111ac611a52565b90336001600160a01b038316036111c857906102fa9135611e7a565b608490602085519162461bcd60e51b8352820152602f60248201527f416363657373436f6e74726f6c3a2063616e206f6e6c792072656e6f756e636560448201526e103937b632b9903337b91039b2b63360891b6064820152fd5b5090346101c45760803660031901126101c4578135611240611a52565b916044359360018060a01b03918286168096036113fc57606435916000805160206128fc833981519152885260209360078552828920338a52855261128a60ff848b2054166127b2565b8589526009855282892054156113c0576112a5881515612647565b858952600a85528289209616958689528452818820549083821015806113b7575b15611379575090827f7ff67dbbdeb398bca52908d00dd27b952f03cbe7657eb5dac8138dacf2b52b3f949392868a52600a8552828a20888b5285520381892055848852600a83528088208689528352808820541561135d575b848852600a8352808820878952835280882061133c8382546125fd565b905584885260098352611354876001838b200161273f565b5051908152a480f35b84885260098352611373866001838b200161281f565b5061131f565b825162461bcd60e51b8152908101859052601860248201527750524f503a494e53554646494349454e545f53484152455360401b6044820152606490fd5b508315156112c6565b5083606492519162461bcd60e51b83528201526017602482015276141493d40e9393d517d1949050d51253d390531254d151604a1b6044820152fd5b8680fd5b50346101c457816003193601126101c457359061141b611a52565b90828452600760205261143360018286200154611b44565b828452600760209081528185206001600160a01b039093168086529290528084205460ff1615611461578380f35b82845260076020528084208285526020528320600160ff1982541617905533917f2f8788117e7eff1d82e926ec794901d17c78024a50270940304540a733656f0d8480a43880808380f35b50346101c45760203660031901126101c45781602093600192358152600785522001549051908152f35b833461056c576102fa6114e836611a68565b916114f66105dc84336120af565b612177565b50346101c45760203660031901126101c45760209282913581526009845220549051908152f35b50346101c457816003193601126101c457803560008181526002602052604090205490926024359161155e906001600160a01b031615156126e6565b81156116a45783855260209260098452818620546116635761158085336120af565b8015611639575b156116025750907f181f959d4259996b36f4b32b6047e6599e2a1d6331d89d0f76024b072a79680d92916115f96115bd86611f3c565b8688526009808652838920859055600a86528389206001600160a01b03909216808a52918652838920859055878952855282882060010161273f565b5051908152a280f35b83606492519162461bcd60e51b83528201526013602482015272141493d40e9393d517d055551213d49254d151606a1b6044820152fd5b506000805160206128fc833981519152865260078452818620338752845260ff8287205416611587565b83606492519162461bcd60e51b8352820152601b60248201527f50524f503a414c52454144595f4652414354494f4e414c4953454400000000006044820152fd5b5162461bcd60e51b8152602081840152601660248201527550524f503a544f54414c5f5348415245535f5a45524f60501b6044820152606490fd5b50346101c457816003193601126101c4576116f8611a37565b6024359290916001600160a01b039190828061171387611f3c565b169416938085146117ff578033149081156117e0575b501561177857848652602052842080546001600160a01b0319168317905561175083611f3c565b167f8c5be1e5ebec7d5bd14f71427d1e84f3dd0314c0f7b2291e5b200ac8c7c3b9258480a480f35b6020608492519162461bcd60e51b8352820152603d60248201527f4552433732313a20617070726f76652063616c6c6572206973206e6f7420746f60448201527f6b656e206f776e6572206f7220617070726f76656420666f7220616c6c0000006064820152fd5b90508652600560205281862033875260205260ff828720541638611729565b506020608492519162461bcd60e51b8352820152602160248201527f4552433732313a20617070726f76616c20746f2063757272656e74206f776e656044820152603960f91b6064820152fd5b50913461056c57602036600319011261056c575061114c60209235611f9c565b5050346101f157816003193601126101f157602090517f68e79a7bf1e0bc45d0a330c573bc367f9cf464fd326078812f301165fbda4ef18152f35b5050346101f157816003193601126101f1578051908280546118c881611f62565b8085529160019180831690811561079f57506001146118f3575050506107318261039e940383611acf565b80809650527f290decd9548b62a8d60345a988386fc84ba6bc95484008f6362f93160ef3e5635b8286106119375750505061073182602061039e958201019461071f565b8054602087870181019190915290950194810161191a565b925050346101c45760203660031901126101c4573563ffffffff60e01b81168091036101c45760209250637965db0b60e01b8114908115611992575b5015158152f35b632483248360e11b8114915081156119ac575b503861198b565b6380ac58cd60e01b8114915081156119de575b81156119cd575b50386119a5565b6301ffc9a760e01b149050386119c6565b635b5e139f60e01b811491506119bf565b60005b838110611a025750506000910152565b81810151838201526020016119f2565b90602091611a2b815180928185528580860191016119ef565b601f01601f1916010190565b600435906001600160a01b0382168203611a4d57565b600080fd5b602435906001600160a01b0382168203611a4d57565b6060906003190112611a4d576001600160a01b03906004358281168103611a4d57916024359081168103611a4d579060443590565b6020810190811067ffffffffffffffff821117611ab957604052565b634e487b7160e01b600052604160045260246000fd5b90601f8019910116810190811067ffffffffffffffff821117611ab957604052565b67ffffffffffffffff8111611ab957601f01601f191660200190565b929192611b1982611af1565b91611b276040519384611acf565b829481845281830111611a4d578281602093846000960137010152565b60009080825260209060078252604092838120338252835260ff848220541615611b6e5750505050565b83519167ffffffffffffffff90336060850183811186821017611e66578752602a85528585019187368437855115611e525760308353855191600192831015611e3e576078602188015360295b838111611dd45750611d925790875193608085019085821090821117611d7e57885260428452868401946060368737845115611d6a57603086538451821015611d6a5790607860218601536041915b818311611cfc57505050611cba57611cb6938693611c9a93611c8b604894611c629a519a8b957f416363657373436f6e74726f6c3a206163636f756e74200000000000000000008c88015251809260378801906119ef565b8401917001034b99036b4b9b9b4b733903937b6329607d1b6037840152518093868401906119ef565b01036028810187520185611acf565b5192839262461bcd60e51b845260048401526024830190611a12565b0390fd5b60648587519062461bcd60e51b825280600483015260248201527f537472696e67733a20686578206c656e67746820696e73756666696369656e746044820152fd5b909192600f81166010811015611d56576f181899199a1a9b1b9c1cb0b131b232b360811b901a611d2c8588612620565b5360041c928015611d4257600019019190611c0a565b634e487b7160e01b82526011600452602482fd5b634e487b7160e01b83526032600452602483fd5b634e487b7160e01b81526032600452602490fd5b634e487b7160e01b86526041600452602486fd5b60648789519062461bcd60e51b825280600483015260248201527f537472696e67733a20686578206c656e67746820696e73756666696369656e746044820152fd5b90600f81166010811015611e2a576f181899199a1a9b1b9c1cb0b131b232b360811b901a611e02838a612620565b5360041c908015611e165760001901611bbb565b634e487b7160e01b87526011600452602487fd5b634e487b7160e01b88526032600452602488fd5b634e487b7160e01b86526032600452602486fd5b634e487b7160e01b85526032600452602485fd5b634e487b7160e01b85526041600452602485fd5b906000918083526007602052604083209160018060a01b03169182845260205260ff604084205416611eab57505050565b8083526007602052604083208284526020526040832060ff1981541690557ff6391f5c32d9c69d2a47ea670b442974b53935d1edc7fd64eb21e047a839171b339380a4565b15611ef757565b60405162461bcd60e51b815260206004820152601860248201527f4552433732313a20696e76616c696420746f6b656e20494400000000000000006044820152606490fd5b6000908152600260205260409020546001600160a01b0316611f5f811515611ef0565b90565b90600182811c92168015611f92575b6020831014611f7c57565b634e487b7160e01b600052602260045260246000fd5b91607f1691611f71565b600081815260026020526040902054611fbf906001600160a01b03161515611ef0565b6000908152600460205260409020546001600160a01b031690565b15611fe157565b60405162461bcd60e51b815260206004820152602d60248201527f4552433732313a2063616c6c6572206973206e6f7420746f6b656e206f776e6560448201526c1c881bdc88185c1c1c9bdd9959609a1b6064820152608490fd5b60809060208152603260208201527f4552433732313a207472616e7366657220746f206e6f6e20455243373231526560408201527131b2b4bb32b91034b6b83632b6b2b73a32b960711b60608201520190565b1561209657565b60405162461bcd60e51b815280611cb66004820161203c565b906001600160a01b0380806120c384611f3c565b169316918383149384156120f6575b5083156120e0575b50505090565b6120ec91929350611f9c565b16143880806120da565b909350600052600560205260406000208260005260205260ff6040600020541692386120d2565b1561212457565b60405162461bcd60e51b815260206004820152602560248201527f4552433732313a207472616e736665722066726f6d20696e636f72726563742060448201526437bbb732b960d91b6064820152608490fd5b9061219f9161218584611f3c565b6001600160a01b039391841692849290918316841461211d565b1691821561240b57600090848252602090600b825260409060ff82852054166123d057849392918691851515806123bd575b612260575b7fddf252ad1be2c89b69c2b068fc378daa952ba7f163c4a11628f55a4df523b3ef9561220c916122058b611f3c565b161461211d565b878452600483526002818520936bffffffffffffffffffffffff60a01b94858154169055878652600381528286206000198154019055838652828620600181540190558986525283209182541617905580a4565b91509192935086845260098352600182852001856001825414918261239c575b50501561235857868452600a83528184208585528352818420548785526009845282852054036123145783929161220c8688938a7fddf252ad1be2c89b69c2b068fc378daa952ba7f163c4a11628f55a4df523b3ef9852600a8652838720828852865286848120558a8752600986526122fe826001868a200161281f565b508a8752600986528684812055915095506121d6565b815162461bcd60e51b815260048101849052601960248201527f50524f503a5348415245535f4e4f545f5245434c41494d4544000000000000006044820152606490fd5b815162461bcd60e51b815260048101849052601a60248201527f50524f503a5348415245535f494e5f43495243554c4154494f4e0000000000006044820152606490fd5b6123b6925060019160005201602052604060002054151590565b8538612280565b50888552600984528185205415156121d1565b815162461bcd60e51b8152600481018490526014602482015273282927a81d2627a1a5a2a22faa2920a729a322a960611b6044820152606490fd5b60405162461bcd60e51b8152602060048201526024808201527f4552433732313a207472616e7366657220746f20746865207a65726f206164646044820152637265737360e01b6064820152608490fd5b91929091803b1561256d576124a9936040519081630a85bd0160e11b9384825233600483015260009687602484015260448301526080606483015281878160209a8b966084830190611a12565b03926001600160a01b03165af184918161252d575b5061251c575050503d600014612514573d6124d881611af1565b906124e66040519283611acf565b81528091833d92013e5b805191826125115760405162461bcd60e51b815280611cb66004820161203c565b01fd5b5060606124f0565b6001600160e01b0319161492509050565b9091508581813d8311612566575b6125458183611acf565b810103126106c557516001600160e01b0319811681036106c55790386124be565b503d61253b565b50915050600190565b92939190803b156125f3576125c8946040518092630a85bd0160e11b9485835233600484015260018060a01b03809816602484015260448301526080606483015281806020998a956084830190611a12565b03916000988991165af184918161252d575061251c575050503d600014612514573d6124d881611af1565b5050915050600190565b9190820180921161260a57565b634e487b7160e01b600052601160045260246000fd5b908151811015612631570160200190565b634e487b7160e01b600052603260045260246000fd5b1561264e57565b60405162461bcd60e51b8152602060048201526015602482015274282927a81d24a72b20a624a22fa922a1a2a4ab22a960591b6044820152606490fd5b600019811461260a5760010190565b156126a157565b60405162461bcd60e51b815260206004820152601c60248201527f4552433732313a20746f6b656e20616c7265616479206d696e746564000000006044820152606490fd5b156126ed57565b60405162461bcd60e51b8152602060048201526012602482015271282927a81d2aa725a727aba72faa27a5a2a760711b6044820152606490fd5b80548210156126315760005260206000200190600090565b60008281526001820160205260409020546127ab5780549068010000000000000000821015611ab9578261279461277d846001809601855584612727565b819391549060031b91821b91600019901b19161790565b905580549260005201602052604060002055600190565b5050600090565b156127b957565b60405162461bcd60e51b8152602060048201526012602482015271524f4c453a4f50455241544f525f4f4e4c5960701b6044820152606490fd5b67ffffffffffffffff8111611ab95760051b60200190565b80518210156126315760209160051b010190565b906001820190600092818452826020526040842054908115156000146128f45760001991808301818111611e16578254908482019182116128e0578082036128ab575b505050805480156128975782019161287a8383612727565b909182549160031b1b191690555582526020526040812055600190565b634e487b7160e01b86526031600452602486fd5b6128cb6128bb61277d9386612727565b90549060031b1c92839286612727565b90558652846020526040862055388080612862565b634e487b7160e01b88526011600452602488fd5b505050509056fe97667070c54ef182b0f5858b034beac1b6f3089aa2d3188bb1e8929f4fa9b929a26469706673582212202b58ce218c5a1d5458a7f529fcb87872e06aec6c7869252b248ce0ae8c95eefd64736f6c63430008140033","opcodes":"PUSH1 0x80 CALLVALUE PUSH3 0x4E7 JUMPI PUSH3 0x2E5E SWAP1 DUP2 CODESIZE SUB SWAP1 PUSH1 0x1F NOT SWAP2 PUSH1 0x1F SWAP1 DUP4 DUP3 DUP3 ADD AND DUP4 ADD SWAP5 PUSH1 0x1 DUP1 PUSH1 0x40 SHL SUB SWAP2 DUP5 DUP8 LT DUP4 DUP9 GT OR PUSH3 0x4D1 JUMPI DUP1 DUP6 SWAP3 PUSH1 0x40 SWAP9 DUP10 MSTORE DUP4 CODECOPY PUSH1 0x20 SWAP5 DUP6 SWAP2 DUP2 ADD SUB SLT PUSH3 0x4E7 JUMPI MLOAD PUSH1 0x1 PUSH1 0x1 PUSH1 0xA0 SHL SUB DUP2 AND SWAP2 SWAP1 DUP3 SWAP1 SUB PUSH3 0x4E7 JUMPI PUSH3 0x6A PUSH3 0x4EC JUMP JUMPDEST SWAP3 PUSH1 0xE DUP5 MSTORE PUSH14 0x45717569582050726F7065727479 PUSH1 0x90 SHL DUP6 DUP6 ADD MSTORE PUSH3 0x8F PUSH3 0x4EC JUMP JUMPDEST PUSH1 0x7 DUP2 MSTORE PUSH7 0x45515850524F5 PUSH1 0xCC SHL DUP7 DUP3 ADD MSTORE DUP5 MLOAD SWAP7 DUP4 DUP9 GT PUSH3 0x4D1 JUMPI PUSH1 0x0 SWAP8 DUP9 SLOAD SWAP7 PUSH1 0x1 SWAP8 DUP9 DUP2 DUP2 SHR SWAP2 AND DUP1 ISZERO PUSH3 0x4C6 JUMPI JUMPDEST DUP11 DUP3 LT EQ PUSH3 0x4B2 JUMPI SWAP1 DUP2 DUP7 DUP5 SWAP4 GT PUSH3 0x45F JUMPI JUMPDEST POP DUP10 SWAP1 DUP7 DUP4 GT PUSH1 0x1 EQ PUSH3 0x3FE JUMPI DUP12 SWAP3 PUSH3 0x3F2 JUMPI JUMPDEST POP POP PUSH1 0x0 NOT PUSH1 0x3 DUP4 SWAP1 SHL SHR NOT AND SWAP1 DUP8 SHL OR DUP9 SSTORE JUMPDEST DUP2 MLOAD SWAP4 DUP5 GT PUSH3 0x3DE JUMPI DUP6 SLOAD DUP7 DUP2 DUP2 SHR SWAP2 AND DUP1 ISZERO PUSH3 0x3D3 JUMPI JUMPDEST DUP9 DUP3 LT EQ PUSH3 0x3BF JUMPI SWAP1 DUP2 DUP5 DUP7 SWAP6 SWAP5 SWAP4 GT PUSH3 0x368 JUMPI JUMPDEST POP DUP8 SWAP3 DUP5 GT PUSH1 0x1 EQ PUSH3 0x307 JUMPI POP DUP8 SWAP3 PUSH3 0x2FB JUMPI JUMPDEST POP POP PUSH1 0x0 NOT PUSH1 0x3 DUP4 SWAP1 SHL SHR NOT AND SWAP1 DUP4 SHL OR DUP3 SSTORE JUMPDEST DUP4 DUP1 MSTORE PUSH1 0x7 DUP4 MSTORE DUP5 DUP5 KECCAK256 DUP2 DUP6 MSTORE DUP4 MSTORE PUSH1 0xFF DUP6 DUP6 KECCAK256 SLOAD AND ISZERO PUSH3 0x2B1 JUMPI JUMPDEST POP PUSH1 0x7 PUSH32 0x97667070C54EF182B0F5858B034BEAC1B6F3089AA2D3188BB1E8929F4FA9B929 SWAP3 DUP4 DUP6 MSTORE MSTORE DUP3 DUP2 DUP6 DUP3 KECCAK256 ADD DUP2 DUP2 SLOAD SWAP2 SSTORE PUSH32 0xBD79B86FFE0AB8E8776151514217CD7CACD52C909F66475C3AF44E129F0B00FF SWAP4 DUP5 DUP4 DUP1 LOG4 DUP3 PUSH32 0x2FDAC322EE704CE09F0773F7F3F92EB98D5E7C836EE9C056CCCD5F61041E5E3F DUP1 DUP3 MSTORE DUP3 DUP7 DUP4 KECCAK256 ADD SWAP1 DUP3 DUP3 SLOAD SWAP3 SSTORE DUP5 DUP4 DUP1 LOG4 DUP3 PUSH32 0x68E79A7BF1E0BC45D0A330C573BC367F9CF464FD326078812F301165FBDA4EF1 DUP1 DUP3 MSTORE DUP3 DUP7 DUP4 KECCAK256 ADD SWAP1 DUP3 DUP3 SLOAD SWAP3 SSTORE DUP5 DUP4 DUP1 LOG4 DUP3 PUSH32 0x114E74F6EA3BD819998F78687BFCB11B140DA08E9B7D222FA9C1F1BA1F2AA122 DUP1 DUP3 MSTORE DUP3 DUP7 DUP4 KECCAK256 ADD SWAP1 DUP3 DUP3 SLOAD SWAP3 SSTORE DUP5 DUP4 DUP1 LOG4 PUSH32 0x71840DC4906352362B0CDAF79870196C8E42ACAFADE72D5D5A6D59291253CEB1 SWAP1 DUP2 DUP5 MSTORE DUP5 DUP5 KECCAK256 ADD SWAP2 DUP4 DUP4 SLOAD SWAP4 SSTORE DUP4 DUP1 LOG4 MLOAD PUSH2 0x2951 SWAP1 DUP2 PUSH3 0x50D DUP3 CODECOPY RETURN JUMPDEST DUP4 DUP1 MSTORE PUSH1 0x7 DUP4 MSTORE DUP5 DUP5 KECCAK256 DUP2 DUP6 MSTORE DUP4 MSTORE DUP5 DUP5 KECCAK256 DUP1 SLOAD PUSH1 0xFF NOT AND DUP4 OR SWAP1 SSTORE CALLER SWAP1 DUP5 PUSH32 0x2F8788117E7EFF1D82E926EC794901D17C78024A50270940304540A733656F0D DUP2 DUP1 LOG4 CODESIZE PUSH3 0x17B JUMP JUMPDEST ADD MLOAD SWAP1 POP CODESIZE DUP1 PUSH3 0x14A JUMP JUMPDEST DUP7 DUP10 MSTORE DUP8 DUP10 KECCAK256 DUP8 SWAP6 SWAP1 SWAP4 SWAP3 SWAP2 AND DUP10 JUMPDEST DUP10 DUP3 DUP3 LT PUSH3 0x351 JUMPI POP POP DUP5 GT PUSH3 0x337 JUMPI JUMPDEST POP POP POP DUP2 SHL ADD DUP3 SSTORE PUSH3 0x15E JUMP JUMPDEST ADD MLOAD PUSH1 0x0 NOT PUSH1 0xF8 DUP5 PUSH1 0x3 SHL AND SHR NOT AND SWAP1 SSTORE CODESIZE DUP1 DUP1 PUSH3 0x329 JUMP JUMPDEST DUP4 DUP6 ADD MLOAD DUP7 SSTORE DUP10 SWAP8 SWAP1 SWAP6 ADD SWAP5 SWAP4 DUP5 ADD SWAP4 ADD PUSH3 0x316 JUMP JUMPDEST SWAP1 SWAP2 SWAP3 SWAP4 POP DUP7 DUP10 MSTORE DUP8 DUP10 KECCAK256 DUP5 DUP1 DUP8 ADD PUSH1 0x5 SHR DUP3 ADD SWAP3 DUP11 DUP9 LT PUSH3 0x3B5 JUMPI JUMPDEST SWAP2 DUP8 SWAP7 DUP11 SWAP3 SWAP7 SWAP6 SWAP5 SWAP4 ADD PUSH1 0x5 SHR ADD SWAP2 JUMPDEST DUP3 DUP2 LT PUSH3 0x3A6 JUMPI POP POP PUSH3 0x134 JUMP JUMPDEST DUP12 DUP2 SSTORE DUP8 SWAP7 POP DUP10 SWAP2 ADD PUSH3 0x396 JUMP JUMPDEST SWAP3 POP DUP2 SWAP3 PUSH3 0x386 JUMP JUMPDEST PUSH4 0x4E487B71 PUSH1 0xE0 SHL DUP10 MSTORE PUSH1 0x22 PUSH1 0x4 MSTORE PUSH1 0x24 DUP10 REVERT JUMPDEST SWAP1 PUSH1 0x7F AND SWAP1 PUSH3 0x11D JUMP JUMPDEST PUSH4 0x4E487B71 PUSH1 0xE0 SHL DUP9 MSTORE PUSH1 0x41 PUSH1 0x4 MSTORE PUSH1 0x24 DUP9 REVERT JUMPDEST ADD MLOAD SWAP1 POP CODESIZE DUP1 PUSH3 0xEF JUMP JUMPDEST SWAP1 DUP5 DUP11 SWAP5 AND SWAP2 DUP13 DUP1 MSTORE DUP12 DUP14 KECCAK256 SWAP3 DUP14 JUMPDEST DUP14 DUP3 DUP3 LT PUSH3 0x448 JUMPI POP POP DUP5 GT PUSH3 0x42E JUMPI JUMPDEST POP POP POP DUP2 SHL ADD DUP9 SSTORE PUSH3 0x103 JUMP JUMPDEST ADD MLOAD PUSH1 0x0 NOT PUSH1 0xF8 DUP5 PUSH1 0x3 SHL AND SHR NOT AND SWAP1 SSTORE CODESIZE DUP1 DUP1 PUSH3 0x420 JUMP JUMPDEST DUP4 DUP6 ADD MLOAD DUP7 SSTORE DUP14 SWAP8 SWAP1 SWAP6 ADD SWAP5 SWAP4 DUP5 ADD SWAP4 ADD PUSH3 0x40D JUMP JUMPDEST SWAP1 SWAP2 POP DUP11 DUP1 MSTORE DUP10 DUP12 KECCAK256 DUP7 DUP1 DUP6 ADD PUSH1 0x5 SHR DUP3 ADD SWAP3 DUP13 DUP7 LT PUSH3 0x4A8 JUMPI JUMPDEST SWAP2 DUP12 SWAP2 DUP7 SWAP6 SWAP5 SWAP4 ADD PUSH1 0x5 SHR ADD SWAP2 JUMPDEST DUP3 DUP2 LT PUSH3 0x499 JUMPI POP POP PUSH3 0xD9 JUMP JUMPDEST DUP14 DUP2 SSTORE DUP6 SWAP5 POP DUP12 SWAP2 ADD PUSH3 0x489 JUMP JUMPDEST SWAP3 POP DUP2 SWAP3 PUSH3 0x47B JUMP JUMPDEST PUSH4 0x4E487B71 PUSH1 0xE0 SHL DUP12 MSTORE PUSH1 0x22 PUSH1 0x4 MSTORE PUSH1 0x24 DUP12 REVERT JUMPDEST SWAP1 PUSH1 0x7F AND SWAP1 PUSH3 0xC4 JUMP JUMPDEST PUSH4 0x4E487B71 PUSH1 0xE0 SHL PUSH1 0x0 MSTORE PUSH1 0x41 PUSH1 0x4 MSTORE PUSH1 0x24 PUSH1 0x0 REVERT JUMPDEST PUSH1 0x0 DUP1 REVERT JUMPDEST PUSH1 0x40 DUP1 MLOAD SWAP2 SWAP1 DUP3 ADD PUSH1 0x1 PUSH1 0x1 PUSH1 0x40 SHL SUB DUP2 GT DUP4 DUP3 LT OR PUSH3 0x4D1 JUMPI PUSH1 0x40 MSTORE JUMP INVALID PUSH1 0x80 PUSH1 0x40 DUP2 DUP2 MSTORE PUSH1 0x4 DUP1 CALLDATASIZE LT ISZERO PUSH2 0x15 JUMPI PUSH1 0x0 DUP1 REVERT JUMPDEST PUSH1 0x0 SWAP3 DUP4 CALLDATALOAD PUSH1 0xE0 SHR SWAP1 DUP2 PUSH4 0x1FFC9A7 EQ PUSH2 0x194F JUMPI POP DUP1 PUSH4 0x6FDDE03 EQ PUSH2 0x18A7 JUMPI DUP1 PUSH4 0x7E2CEA5 EQ PUSH2 0x186C JUMPI DUP1 PUSH4 0x81812FC EQ PUSH2 0x184C JUMPI DUP1 PUSH4 0x95EA7B3 EQ PUSH2 0x16DF JUMPI DUP1 PUSH4 0xC386FDA EQ PUSH2 0x1522 JUMPI DUP1 PUSH4 0x13F2DAD0 EQ PUSH2 0x14FB JUMPI DUP1 PUSH4 0x23B872DD EQ PUSH2 0x14D6 JUMPI DUP1 PUSH4 0x248A9CA3 EQ PUSH2 0x14AC JUMPI DUP1 PUSH4 0x2F2FF15D EQ PUSH2 0x1400 JUMPI DUP1 PUSH4 0x2F5D9DE2 EQ PUSH2 0x1223 JUMPI DUP1 PUSH4 0x36568ABE EQ PUSH2 0x1191 JUMPI DUP1 PUSH4 0x42842E0E EQ PUSH2 0x115D JUMPI DUP1 PUSH4 0x6352211E EQ PUSH2 0x112C JUMPI DUP1 PUSH4 0x6CE76F30 EQ PUSH2 0x10F1 JUMPI DUP1 PUSH4 0x6F2E895C EQ PUSH2 0x1050 JUMPI DUP1 PUSH4 0x70A08231 EQ PUSH2 0xFBA JUMPI DUP1 PUSH4 0x823A3BF4 EQ PUSH2 0xF15 JUMPI DUP1 PUSH4 0x82AEFA24 EQ PUSH2 0xEDA JUMPI DUP1 PUSH4 0x87C2EAB5 EQ PUSH2 0x9EF JUMPI DUP1 PUSH4 0x91D14854 EQ PUSH2 0x9A9 JUMPI DUP1 PUSH4 0x94E53EA7 EQ PUSH2 0x7C7 JUMPI DUP1 PUSH4 0x95D89B41 EQ PUSH2 0x6E4 JUMPI DUP1 PUSH4 0xA217FDDF EQ PUSH2 0x6C9 JUMPI DUP1 PUSH4 0xA22CB465 EQ PUSH2 0x5FA JUMPI DUP1 PUSH4 0xB88D4FDE EQ PUSH2 0x56F JUMPI DUP1 PUSH4 0xC6EF551E EQ PUSH2 0x40B JUMPI DUP1 PUSH4 0xC87B56DD EQ PUSH2 0x2FD JUMPI DUP1 PUSH4 0xD547741F EQ PUSH2 0x2BF JUMPI DUP1 PUSH4 0xE985E9C5 EQ PUSH2 0x271 JUMPI DUP1 PUSH4 0xEB479740 EQ PUSH2 0x230 JUMPI DUP1 PUSH4 0xF36C8F5C EQ PUSH2 0x1F5 JUMPI DUP1 PUSH4 0xF5B541A6 EQ PUSH2 0x1C8 JUMPI PUSH4 0xF6AACFB1 EQ PUSH2 0x199 JUMPI PUSH1 0x0 DUP1 REVERT JUMPDEST CALLVALUE PUSH2 0x1C4 JUMPI PUSH1 0x20 CALLDATASIZE PUSH1 0x3 NOT ADD SLT PUSH2 0x1C4 JUMPI DUP2 PUSH1 0x20 SWAP4 PUSH1 0xFF SWAP3 CALLDATALOAD DUP2 MSTORE PUSH1 0xB DUP6 MSTORE KECCAK256 SLOAD AND SWAP1 MLOAD SWAP1 ISZERO ISZERO DUP2 MSTORE RETURN JUMPDEST DUP3 DUP1 REVERT JUMPDEST POP POP CALLVALUE PUSH2 0x1F1 JUMPI DUP2 PUSH1 0x3 NOT CALLDATASIZE ADD SLT PUSH2 0x1F1 JUMPI PUSH1 0x20 SWAP1 MLOAD PUSH1 0x0 DUP1 MLOAD PUSH1 0x20 PUSH2 0x28FC DUP4 CODECOPY DUP2 MLOAD SWAP2 MSTORE DUP2 MSTORE RETURN JUMPDEST POP DUP1 REVERT JUMPDEST POP POP CALLVALUE PUSH2 0x1F1 JUMPI DUP2 PUSH1 0x3 NOT CALLDATASIZE ADD SLT PUSH2 0x1F1 JUMPI PUSH1 0x20 SWAP1 MLOAD PUSH32 0x71840DC4906352362B0CDAF79870196C8E42ACAFADE72D5D5A6D59291253CEB1 DUP2 MSTORE RETURN JUMPDEST POP CALLVALUE PUSH2 0x1C4 JUMPI DUP2 PUSH1 0x3 NOT CALLDATASIZE ADD SLT PUSH2 0x1C4 JUMPI PUSH1 0x20 SWAP3 DUP3 SWAP2 PUSH2 0x24E PUSH2 0x1A52 JUMP JUMPDEST SWAP1 CALLDATALOAD DUP3 MSTORE PUSH1 0xA DUP6 MSTORE DUP3 DUP3 KECCAK256 PUSH1 0x1 PUSH1 0x1 PUSH1 0xA0 SHL SUB SWAP1 SWAP2 AND DUP3 MSTORE DUP5 MSTORE KECCAK256 SLOAD SWAP1 MLOAD SWAP1 DUP2 MSTORE RETURN JUMPDEST POP POP CALLVALUE PUSH2 0x1F1 JUMPI DUP1 PUSH1 0x3 NOT CALLDATASIZE ADD SLT PUSH2 0x1F1 JUMPI PUSH1 0xFF DUP2 PUSH1 0x20 SWAP4 PUSH2 0x291 PUSH2 0x1A37 JUMP JUMPDEST PUSH2 0x299 PUSH2 0x1A52 JUMP JUMPDEST PUSH1 0x1 PUSH1 0x1 PUSH1 0xA0 SHL SUB SWAP2 DUP3 AND DUP4 MSTORE PUSH1 0x5 DUP8 MSTORE DUP4 DUP4 KECCAK256 SWAP2 AND DUP3 MSTORE DUP6 MSTORE KECCAK256 SLOAD SWAP2 MLOAD SWAP2 AND ISZERO ISZERO DUP2 MSTORE RETURN JUMPDEST POP SWAP1 CALLVALUE PUSH2 0x1C4 JUMPI DUP1 PUSH1 0x3 NOT CALLDATASIZE ADD SLT PUSH2 0x1C4 JUMPI PUSH2 0x2FA SWAP2 CALLDATALOAD PUSH2 0x2F5 PUSH1 0x1 PUSH2 0x2E3 PUSH2 0x1A52 JUMP JUMPDEST SWAP4 DUP4 DUP8 MSTORE PUSH1 0x7 PUSH1 0x20 MSTORE DUP7 KECCAK256 ADD SLOAD PUSH2 0x1B44 JUMP JUMPDEST PUSH2 0x1E7A JUMP JUMPDEST DUP1 RETURN JUMPDEST POP SWAP1 CALLVALUE PUSH2 0x1C4 JUMPI PUSH1 0x20 SWAP2 DUP3 PUSH1 0x3 NOT CALLDATASIZE ADD SLT PUSH2 0x407 JUMPI CALLDATALOAD PUSH1 0x0 DUP2 DUP2 MSTORE PUSH1 0x2 PUSH1 0x20 MSTORE PUSH1 0x40 SWAP1 KECCAK256 SLOAD PUSH2 0x336 SWAP1 PUSH1 0x1 PUSH1 0x1 PUSH1 0xA0 SHL SUB AND ISZERO ISZERO PUSH2 0x1EF0 JUMP JUMPDEST DUP4 MSTORE PUSH1 0x6 DUP3 MSTORE DUP1 DUP4 KECCAK256 SWAP3 DUP2 MLOAD DUP1 SWAP5 DUP3 SWAP1 DUP1 SLOAD PUSH2 0x351 DUP2 PUSH2 0x1F62 JUMP JUMPDEST SWAP2 DUP3 DUP6 MSTORE PUSH1 0x1 SWAP2 DUP9 DUP4 DUP3 AND SWAP2 DUP3 PUSH1 0x0 EQ PUSH2 0x3E0 JUMPI POP POP PUSH1 0x1 EQ PUSH2 0x3A2 JUMPI JUMPDEST POP POP POP PUSH2 0x39E SWAP4 SWAP3 SWAP2 PUSH2 0x383 SWAP2 SUB DUP7 PUSH2 0x1ACF JUMP JUMPDEST DUP2 MLOAD PUSH2 0x38E DUP2 PUSH2 0x1A9D JUMP JUMPDEST MSTORE MLOAD SWAP3 DUP3 DUP5 SWAP4 DUP5 MSTORE DUP4 ADD SWAP1 PUSH2 0x1A12 JUMP JUMPDEST SUB SWAP1 RETURN JUMPDEST DUP6 MSTORE DUP7 DUP6 KECCAK256 DUP8 SWAP4 POP DUP6 SWAP3 SWAP2 SWAP1 JUMPDEST DUP3 DUP5 LT PUSH2 0x3C8 JUMPI POP POP POP DUP3 ADD ADD DUP2 PUSH2 0x383 PUSH2 0x39E PUSH2 0x36F JUMP JUMPDEST DUP1 SLOAD DUP5 DUP12 ADD DUP7 ADD MSTORE DUP10 SWAP6 POP DUP9 SWAP5 SWAP1 SWAP4 ADD SWAP3 DUP2 ADD PUSH2 0x3AF JUMP JUMPDEST PUSH1 0xFF NOT AND DUP8 DUP3 ADD MSTORE SWAP4 ISZERO ISZERO PUSH1 0x5 SHL DUP7 ADD SWAP1 SWAP4 ADD SWAP4 POP DUP5 SWAP3 POP PUSH2 0x383 SWAP2 POP PUSH2 0x39E SWAP1 POP PUSH2 0x36F JUMP JUMPDEST DUP4 DUP1 REVERT JUMPDEST POP SWAP2 CALLVALUE PUSH2 0x56C JUMPI PUSH1 0x20 SWAP3 DUP4 PUSH1 0x3 NOT CALLDATASIZE ADD SLT PUSH2 0x1F1 JUMPI CALLDATALOAD SWAP1 DUP2 DUP2 MSTORE PUSH1 0x9 DUP5 MSTORE PUSH1 0x1 SWAP2 DUP3 DUP5 DUP4 KECCAK256 ADD SWAP5 DUP6 SLOAD SWAP6 PUSH2 0x43E DUP8 PUSH2 0x27F3 JUMP JUMPDEST SWAP6 PUSH2 0x44B DUP2 MLOAD SWAP8 DUP9 PUSH2 0x1ACF JUMP JUMPDEST DUP8 DUP8 MSTORE PUSH2 0x457 DUP9 PUSH2 0x27F3 JUMP JUMPDEST SWAP8 DUP4 DUP9 ADD SWAP5 PUSH1 0x1F NOT DUP1 SWAP11 ADD CALLDATASIZE DUP8 CALLDATACOPY PUSH2 0x46E DUP3 PUSH2 0x27F3 JUMP JUMPDEST SWAP4 PUSH2 0x47B DUP5 MLOAD SWAP6 DUP7 PUSH2 0x1ACF JUMP JUMPDEST DUP3 DUP6 MSTORE PUSH2 0x487 DUP4 PUSH2 0x27F3 JUMP JUMPDEST DUP6 DUP8 ADD SWAP12 ADD CALLDATASIZE DUP13 CALLDATACOPY DUP8 JUMPDEST DUP4 DUP2 LT PUSH2 0x508 JUMPI POP POP POP POP DUP1 MLOAD SWAP7 DUP2 DUP9 ADD SWAP2 DUP9 MSTORE MLOAD DUP1 SWAP2 MSTORE PUSH1 0x60 DUP8 ADD SWAP4 SWAP1 DUP6 JUMPDEST DUP2 DUP2 LT PUSH2 0x4EC JUMPI POP POP POP DUP6 DUP4 SUB DUP7 DUP4 ADD MSTORE MLOAD DUP1 DUP4 MSTORE SWAP2 DUP2 ADD SWAP6 SWAP3 JUMPDEST DUP3 DUP2 LT PUSH2 0x4D9 JUMPI DUP6 DUP8 SUB DUP7 RETURN JUMPDEST DUP4 MLOAD DUP8 MSTORE SWAP6 DUP2 ADD SWAP6 SWAP3 DUP2 ADD SWAP3 DUP5 ADD PUSH2 0x4CC JUMP JUMPDEST DUP3 MLOAD PUSH1 0x1 PUSH1 0x1 PUSH1 0xA0 SHL SUB AND DUP7 MSTORE SWAP5 DUP5 ADD SWAP5 SWAP2 DUP5 ADD SWAP2 DUP8 ADD PUSH2 0x4B1 JUMP JUMPDEST DUP1 DUP1 DUP13 PUSH2 0x53C SWAP13 SWAP15 SWAP13 PUSH2 0x522 PUSH2 0x560 SWAP6 DUP8 SWAP15 SWAP13 SWAP14 SWAP15 PUSH2 0x2727 JUMP JUMPDEST SWAP1 SLOAD PUSH1 0x3 SWAP2 SWAP1 SWAP2 SHL SHR PUSH1 0x1 PUSH1 0x1 PUSH1 0xA0 SHL SUB AND SWAP3 DUP4 SWAP3 PUSH2 0x280B JUMP JUMPDEST MSTORE DUP5 DUP10 MSTORE PUSH1 0xA DUP11 MSTORE DUP7 DUP10 KECCAK256 SWAP1 DUP10 MSTORE DUP10 MSTORE DUP6 DUP9 KECCAK256 SLOAD PUSH2 0x55A DUP3 DUP10 PUSH2 0x280B JUMP JUMPDEST MSTORE PUSH2 0x268B JUMP JUMPDEST SWAP11 SWAP9 SWAP11 SWAP8 SWAP7 SWAP6 SWAP8 PUSH2 0x491 JUMP JUMPDEST DUP1 REVERT JUMPDEST DUP4 DUP3 CALLVALUE PUSH2 0x1F1 JUMPI PUSH1 0x80 CALLDATASIZE PUSH1 0x3 NOT ADD SLT PUSH2 0x1F1 JUMPI PUSH2 0x58A PUSH2 0x1A37 JUMP JUMPDEST SWAP1 PUSH2 0x593 PUSH2 0x1A52 JUMP JUMPDEST SWAP2 PUSH1 0x44 CALLDATALOAD PUSH1 0x64 CALLDATALOAD SWAP4 PUSH8 0xFFFFFFFFFFFFFFFF DUP6 GT PUSH2 0x5F6 JUMPI CALLDATASIZE PUSH1 0x23 DUP7 ADD SLT ISZERO PUSH2 0x5F6 JUMPI PUSH2 0x5CE PUSH2 0x5F1 SWAP5 DUP7 PUSH1 0x24 PUSH2 0x2FA SWAP9 CALLDATASIZE SWAP4 ADD CALLDATALOAD SWAP2 ADD PUSH2 0x1B0D JUMP JUMPDEST SWAP3 PUSH2 0x5E1 PUSH2 0x5DC DUP5 CALLER PUSH2 0x20AF JUMP JUMPDEST PUSH2 0x1FDA JUMP JUMPDEST PUSH2 0x5EC DUP4 DUP4 DUP4 PUSH2 0x2177 JUMP JUMPDEST PUSH2 0x2576 JUMP JUMPDEST PUSH2 0x208F JUMP JUMPDEST DUP6 DUP1 REVERT JUMPDEST POP SWAP1 CALLVALUE PUSH2 0x1C4 JUMPI DUP1 PUSH1 0x3 NOT CALLDATASIZE ADD SLT PUSH2 0x1C4 JUMPI PUSH2 0x614 PUSH2 0x1A37 JUMP JUMPDEST SWAP1 PUSH1 0x24 CALLDATALOAD SWAP2 DUP3 ISZERO ISZERO DUP1 SWAP4 SUB PUSH2 0x6C5 JUMPI PUSH1 0x1 PUSH1 0x1 PUSH1 0xA0 SHL SUB AND SWAP3 CALLER DUP5 EQ PUSH2 0x683 JUMPI POP CALLER DUP5 MSTORE PUSH1 0x5 PUSH1 0x20 MSTORE DUP1 DUP5 KECCAK256 DUP4 DUP6 MSTORE PUSH1 0x20 MSTORE DUP1 DUP5 KECCAK256 PUSH1 0xFF NOT DUP2 SLOAD AND PUSH1 0xFF DUP5 AND OR SWAP1 SSTORE MLOAD SWAP1 DUP2 MSTORE PUSH32 0x17307EAB39AB6107E8899845AD3D59BD9653F200F220920489CA2B5937696C31 PUSH1 0x20 CALLER SWAP3 LOG3 DUP1 RETURN JUMPDEST PUSH1 0x20 PUSH1 0x64 SWAP3 MLOAD SWAP2 PUSH3 0x461BCD PUSH1 0xE5 SHL DUP4 MSTORE DUP3 ADD MSTORE PUSH1 0x19 PUSH1 0x24 DUP3 ADD MSTORE PUSH32 0x4552433732313A20617070726F766520746F2063616C6C657200000000000000 PUSH1 0x44 DUP3 ADD MSTORE REVERT JUMPDEST DUP5 DUP1 REVERT JUMPDEST POP POP CALLVALUE PUSH2 0x1F1 JUMPI DUP2 PUSH1 0x3 NOT CALLDATASIZE ADD SLT PUSH2 0x1F1 JUMPI MLOAD SWAP1 DUP2 MSTORE PUSH1 0x20 SWAP1 RETURN JUMPDEST POP POP CALLVALUE PUSH2 0x1F1 JUMPI DUP2 PUSH1 0x3 NOT CALLDATASIZE ADD SLT PUSH2 0x1F1 JUMPI DUP1 MLOAD SWAP1 DUP3 PUSH1 0x1 DUP1 SLOAD SWAP2 PUSH2 0x708 DUP4 PUSH2 0x1F62 JUMP JUMPDEST DUP1 DUP7 MSTORE SWAP3 DUP3 DUP2 AND SWAP1 DUP2 ISZERO PUSH2 0x79F JUMPI POP PUSH1 0x1 EQ PUSH2 0x743 JUMPI JUMPDEST POP POP POP PUSH2 0x731 DUP3 PUSH2 0x39E SWAP5 SUB DUP4 PUSH2 0x1ACF JUMP JUMPDEST MLOAD SWAP2 DUP3 SWAP2 PUSH1 0x20 DUP4 MSTORE PUSH1 0x20 DUP4 ADD SWAP1 PUSH2 0x1A12 JUMP JUMPDEST SWAP5 POP DUP1 DUP6 MSTORE PUSH32 0xB10E2D527612073B26EECDFD717E6A320CF44B4AFAC2B0732D9FCBE2B7FA0CF6 JUMPDEST DUP3 DUP7 LT PUSH2 0x787 JUMPI POP POP POP PUSH2 0x731 DUP3 PUSH1 0x20 PUSH2 0x39E SWAP6 DUP3 ADD ADD SWAP5 PUSH2 0x71F JUMP JUMPDEST DUP1 SLOAD PUSH1 0x20 DUP8 DUP8 ADD DUP2 ADD SWAP2 SWAP1 SWAP2 MSTORE SWAP1 SWAP6 ADD SWAP5 DUP2 ADD PUSH2 0x76A JUMP JUMPDEST PUSH2 0x39E SWAP8 POP DUP7 SWAP4 POP PUSH1 0x20 SWAP3 POP PUSH2 0x731 SWAP5 SWAP2 POP PUSH1 0xFF NOT AND DUP3 DUP5 ADD MSTORE ISZERO ISZERO PUSH1 0x5 SHL DUP3 ADD ADD SWAP5 PUSH2 0x71F JUMP JUMPDEST POP SWAP1 CALLVALUE PUSH2 0x1C4 JUMPI PUSH1 0x60 CALLDATASIZE PUSH1 0x3 NOT ADD SLT PUSH2 0x1C4 JUMPI DUP2 CALLDATALOAD PUSH2 0x7E4 PUSH2 0x1A52 JUMP JUMPDEST PUSH1 0x44 CALLDATALOAD SWAP3 DUP3 DUP7 MSTORE PUSH1 0x20 SWAP2 PUSH1 0x9 DUP4 MSTORE DUP2 DUP8 KECCAK256 SLOAD ISZERO PUSH2 0x96C JUMPI DUP4 DUP8 MSTORE PUSH1 0xB DUP4 MSTORE PUSH1 0xFF DUP3 DUP9 KECCAK256 SLOAD AND PUSH2 0x93B JUMPI PUSH1 0x1 PUSH1 0x1 PUSH1 0xA0 SHL SUB AND SWAP5 PUSH2 0x822 DUP7 ISZERO ISZERO PUSH2 0x2647 JUMP JUMPDEST DUP4 DUP8 MSTORE PUSH1 0xA DUP4 MSTORE DUP2 DUP8 KECCAK256 CALLER DUP9 MSTORE DUP4 MSTORE DUP2 DUP8 KECCAK256 SLOAD SWAP1 DUP6 DUP3 LT ISZERO DUP1 PUSH2 0x932 JUMPI JUMPDEST ISZERO PUSH2 0x8F4 JUMPI POP SWAP1 DUP5 PUSH32 0x7FF67DBBDEB398BCA52908D00DD27B952F03CBE7657EB5DAC8138DACF2B52B3F SWAP4 SWAP3 DUP6 DUP10 MSTORE PUSH1 0xA DUP5 MSTORE DUP3 DUP10 KECCAK256 CALLER DUP11 MSTORE DUP5 MSTORE SUB DUP2 DUP9 KECCAK256 SSTORE DUP4 DUP8 MSTORE PUSH1 0xA DUP3 MSTORE DUP1 DUP8 KECCAK256 CALLER DUP9 MSTORE DUP3 MSTORE DUP1 DUP8 KECCAK256 SLOAD ISZERO PUSH2 0x8D8 JUMPI JUMPDEST DUP4 DUP8 MSTORE PUSH1 0xA DUP3 MSTORE DUP1 DUP8 KECCAK256 DUP7 DUP9 MSTORE DUP3 MSTORE DUP1 DUP8 KECCAK256 PUSH2 0x8B5 DUP7 DUP3 SLOAD PUSH2 0x25FD JUMP JUMPDEST SWAP1 SSTORE DUP4 DUP8 MSTORE PUSH1 0x9 DUP3 MSTORE PUSH2 0x8CD DUP7 PUSH1 0x1 DUP4 DUP11 KECCAK256 ADD PUSH2 0x273F JUMP JUMPDEST POP MLOAD SWAP4 DUP5 MSTORE CALLER SWAP4 LOG4 DUP1 RETURN JUMPDEST DUP4 DUP8 MSTORE PUSH1 0x9 DUP3 MSTORE PUSH2 0x8EE CALLER PUSH1 0x1 DUP4 DUP11 KECCAK256 ADD PUSH2 0x281F JUMP JUMPDEST POP PUSH2 0x898 JUMP JUMPDEST DUP3 MLOAD PUSH3 0x461BCD PUSH1 0xE5 SHL DUP2 MSTORE SWAP1 DUP2 ADD DUP5 SWAP1 MSTORE PUSH1 0x18 PUSH1 0x24 DUP3 ADD MSTORE PUSH24 0x50524F503A494E53554646494349454E545F534841524553 PUSH1 0x40 SHL PUSH1 0x44 DUP3 ADD MSTORE PUSH1 0x64 SWAP1 REVERT JUMPDEST POP DUP6 ISZERO ISZERO PUSH2 0x840 JUMP JUMPDEST DUP2 MLOAD PUSH3 0x461BCD PUSH1 0xE5 SHL DUP2 MSTORE DUP1 DUP8 ADD DUP5 SWAP1 MSTORE PUSH1 0xB PUSH1 0x24 DUP3 ADD MSTORE PUSH11 0x141493D40E9313D0D2D151 PUSH1 0xAA SHL PUSH1 0x44 DUP3 ADD MSTORE PUSH1 0x64 SWAP1 REVERT JUMPDEST DUP2 MLOAD PUSH3 0x461BCD PUSH1 0xE5 SHL DUP2 MSTORE DUP1 DUP8 ADD DUP5 SWAP1 MSTORE PUSH1 0x17 PUSH1 0x24 DUP3 ADD MSTORE PUSH23 0x141493D40E9393D517D1949050D51253D390531254D151 PUSH1 0x4A SHL PUSH1 0x44 DUP3 ADD MSTORE PUSH1 0x64 SWAP1 REVERT JUMPDEST POP CALLVALUE PUSH2 0x1C4 JUMPI DUP2 PUSH1 0x3 NOT CALLDATASIZE ADD SLT PUSH2 0x1C4 JUMPI DUP2 PUSH1 0x20 SWAP4 PUSH1 0xFF SWAP3 PUSH2 0x9C9 PUSH2 0x1A52 JUMP JUMPDEST SWAP1 CALLDATALOAD DUP3 MSTORE PUSH1 0x7 DUP7 MSTORE DUP3 DUP3 KECCAK256 PUSH1 0x1 PUSH1 0x1 PUSH1 0xA0 SHL SUB SWAP1 SWAP2 AND DUP3 MSTORE DUP6 MSTORE KECCAK256 SLOAD SWAP2 MLOAD SWAP2 AND ISZERO ISZERO DUP2 MSTORE RETURN JUMPDEST POP SWAP2 SWAP1 CALLVALUE PUSH2 0x1F1 JUMPI DUP1 PUSH1 0x3 NOT CALLDATASIZE ADD SLT PUSH2 0x1F1 JUMPI PUSH8 0xFFFFFFFFFFFFFFFF DUP4 CALLDATALOAD DUP2 DUP2 GT PUSH2 0x407 JUMPI CALLDATASIZE PUSH1 0x23 DUP3 ADD SLT ISZERO PUSH2 0x407 JUMPI DUP1 DUP6 ADD CALLDATALOAD DUP3 DUP2 GT PUSH2 0x6C5 JUMPI PUSH1 0x24 SWAP2 DUP3 DUP2 ADD SWAP1 DUP4 DUP4 CALLDATASIZE SWAP3 ADD ADD GT PUSH2 0x5F6 JUMPI PUSH2 0xA44 PUSH2 0x1A52 JUMP JUMPDEST SWAP6 PUSH32 0x114E74F6EA3BD819998F78687BFCB11B140DA08E9B7D222FA9C1F1BA1F2AA122 DUP2 MSTORE PUSH1 0x20 SWAP8 PUSH1 0x7 DUP10 MSTORE DUP7 DUP3 KECCAK256 CALLER DUP4 MSTORE DUP10 MSTORE PUSH1 0xFF DUP8 DUP4 KECCAK256 SLOAD AND ISZERO PUSH2 0xEA5 JUMPI DUP4 ISZERO PUSH2 0xE6F JUMPI PUSH1 0x1 PUSH1 0x1 PUSH1 0xA0 SHL SUB DUP9 AND SWAP6 DUP7 ISZERO PUSH2 0xAA0 DUP2 ISZERO PUSH2 0x2647 JUMP JUMPDEST PUSH2 0xAAB PUSH1 0x8 SLOAD PUSH2 0x268B JUMP JUMPDEST SWAP10 DUP11 PUSH1 0x8 SSTORE DUP10 MLOAD SWAP2 PUSH2 0xABC DUP4 PUSH2 0x1A9D JUMP JUMPDEST DUP6 DUP4 MSTORE PUSH2 0xE2F JUMPI PUSH1 0x0 DUP12 DUP2 MSTORE PUSH1 0x2 PUSH1 0x20 MSTORE PUSH1 0x40 SWAP1 KECCAK256 SLOAD PUSH2 0xAE8 SWAP1 PUSH1 0x1 PUSH1 0x1 PUSH1 0xA0 SHL SUB AND ISZERO ISZERO JUMPDEST ISZERO PUSH2 0x269A JUMP JUMPDEST DUP11 DUP6 MSTORE PUSH1 0xB DUP13 MSTORE PUSH1 0xFF DUP11 DUP7 KECCAK256 SLOAD AND PUSH2 0xDF6 JUMPI PUSH2 0x5F1 DUP13 SWAP3 DUP13 PUSH2 0xB80 SWAP4 PUSH1 0x2 DUP15 DUP15 PUSH2 0xB2A PUSH2 0xAE2 DUP7 PUSH1 0x0 MSTORE PUSH1 0x2 PUSH1 0x20 MSTORE PUSH1 0x1 DUP1 PUSH1 0xA0 SHL SUB PUSH1 0x40 PUSH1 0x0 KECCAK256 SLOAD AND ISZERO ISZERO SWAP1 JUMP JUMPDEST DUP12 MSTORE PUSH1 0x3 DUP9 MSTORE DUP11 KECCAK256 DUP1 SLOAD PUSH1 0x1 SWAP1 DUP2 ADD SWAP1 SWAP2 SSTORE DUP4 DUP12 MSTORE SWAP7 MSTORE DUP14 DUP10 KECCAK256 DUP1 SLOAD PUSH1 0x1 PUSH1 0x1 PUSH1 0xA0 SHL SUB NOT AND DUP15 OR SWAP1 SSTORE DUP2 DUP14 DUP11 PUSH32 0xDDF252AD1BE2C89B69C2B068FC378DAA952BA7F163C4A11628F55A4DF523B3EF DUP2 DUP1 LOG4 PUSH2 0x245C JUMP JUMPDEST PUSH2 0xB8B CALLDATASIZE DUP8 DUP8 PUSH2 0x1B0D JUMP JUMPDEST PUSH1 0x0 DUP12 DUP2 MSTORE PUSH1 0x2 PUSH1 0x20 MSTORE PUSH1 0x40 SWAP1 KECCAK256 SLOAD SWAP1 SWAP8 SWAP1 PUSH1 0x1 PUSH1 0x1 PUSH1 0xA0 SHL SUB AND ISZERO PUSH2 0xD9E JUMPI DUP11 DUP6 MSTORE PUSH1 0x6 DUP13 MSTORE DUP10 DUP6 KECCAK256 SWAP4 DUP9 MLOAD SWAP4 DUP5 GT PUSH2 0xD8D JUMPI POP POP SWAP2 DUP9 SWAP4 SWAP2 DUP11 SWAP7 SWAP6 SWAP4 PUSH2 0xBD3 DUP4 SLOAD PUSH2 0x1F62 JUMP JUMPDEST PUSH1 0x1F DUP2 GT PUSH2 0xD2F JUMPI JUMPDEST POP DUP13 SWAP9 PUSH1 0x1F DUP4 GT PUSH1 0x1 EQ PUSH2 0xC8B JUMPI SWAP2 DUP1 DUP1 SWAP3 PUSH32 0xD6A75679EC9091A61A3192722F7073BFDF34A0E67C61C08484ADEF28BFA375A SWAP11 SWAP12 DUP8 SWAP7 SWAP6 DUP12 SWAP9 SWAP5 PUSH2 0xC80 JUMPI JUMPDEST POP POP SHL SWAP2 PUSH1 0x0 NOT SWAP1 PUSH1 0x3 SHL SHR NOT AND OR SWAP1 SSTORE JUMPDEST PUSH32 0xF8E1A15ABA9398E019F0B49DF1A4FDE98EE17AE345CB5F6B5E2C27F5033E8CE7 DUP12 DUP6 MLOAD DUP10 DUP2 MSTORE LOG1 DUP4 MLOAD SWAP5 DUP6 SWAP4 DUP13 DUP6 MSTORE DUP2 DUP14 DUP7 ADD MSTORE DUP6 DUP6 ADD CALLDATACOPY DUP3 DUP3 ADD DUP5 ADD MSTORE PUSH1 0x1F ADD PUSH1 0x1F NOT AND DUP2 ADD SUB ADD SWAP1 LOG3 MLOAD SWAP1 DUP2 MSTORE RETURN JUMPDEST ADD MLOAD SWAP3 POP CODESIZE DUP1 PUSH2 0xC1C JUMP JUMPDEST DUP14 SWAP1 PUSH1 0x1F SWAP4 SWAP3 SWAP4 NOT DUP4 AND DUP6 DUP8 MSTORE DUP3 DUP8 KECCAK256 SWAP3 DUP8 SWAP1 JUMPDEST DUP3 DUP3 LT PUSH2 0xD00 JUMPI POP POP SWAP11 DUP4 SWAP3 SWAP2 DUP11 SWAP8 SWAP7 SWAP6 SWAP5 PUSH32 0xD6A75679EC9091A61A3192722F7073BFDF34A0E67C61C08484ADEF28BFA375A SWAP13 SWAP14 LT PUSH2 0xCE7 JUMPI JUMPDEST POP POP POP DUP2 SHL ADD SWAP1 SSTORE PUSH2 0xC2E JUMP JUMPDEST ADD MLOAD PUSH1 0x0 NOT PUSH1 0xF8 DUP5 PUSH1 0x3 SHL AND SHR NOT AND SWAP1 SSTORE CODESIZE DUP1 DUP1 PUSH2 0xCDA JUMP JUMPDEST SWAP3 SWAP5 SWAP8 SWAP11 SWAP13 SWAP7 SWAP10 POP SWAP5 SWAP8 SWAP11 POP SWAP2 DUP2 DUP9 DUP2 SWAP3 DUP9 DUP8 ADD MLOAD DUP2 SSTORE ADD SWAP7 ADD SWAP5 ADD SWAP2 DUP14 SWAP9 SWAP6 SWAP3 DUP16 SWAP12 SWAP9 SWAP6 SWAP13 SWAP11 SWAP8 SWAP5 SWAP3 PUSH2 0xC9F JUMP JUMPDEST SWAP2 SWAP4 DUP4 SWAP6 SWAP8 SWAP9 POP DUP1 SWAP7 POP SWAP3 SWAP1 SWAP3 MSTORE DUP12 DUP6 KECCAK256 PUSH1 0x1F DUP5 ADD PUSH1 0x5 SHR DUP2 ADD SWAP2 DUP14 DUP6 LT PUSH2 0xD83 JUMPI JUMPDEST SWAP2 DUP13 SWAP9 SWAP8 SWAP6 SWAP4 SWAP2 PUSH1 0x1F DUP14 SWAP9 SWAP7 SWAP5 ADD PUSH1 0x5 SHR ADD SWAP1 JUMPDEST DUP2 DUP2 LT PUSH2 0xD73 JUMPI POP PUSH2 0xBDC JUMP JUMPDEST DUP6 DUP2 SSTORE DUP14 SWAP10 POP DUP13 SWAP8 POP DUP3 ADD PUSH2 0xD66 JUMP JUMPDEST SWAP1 SWAP2 POP DUP2 SWAP1 PUSH2 0xD52 JUMP JUMPDEST PUSH4 0x4E487B71 PUSH1 0xE0 SHL DUP7 MSTORE PUSH1 0x41 SWAP1 MSTORE DUP5 REVERT JUMPDEST DUP4 PUSH1 0x2E PUSH1 0x84 SWAP3 DUP15 DUP14 MLOAD SWAP4 PUSH3 0x461BCD PUSH1 0xE5 SHL DUP6 MSTORE DUP5 ADD MSTORE DUP3 ADD MSTORE PUSH32 0x45524337323155524953746F726167653A2055524920736574206F66206E6F6E PUSH1 0x44 DUP3 ADD MSTORE PUSH14 0x32BC34B9BA32B73A103A37B5B2B7 PUSH1 0x91 SHL PUSH1 0x64 DUP3 ADD MSTORE REVERT JUMPDEST DUP10 MLOAD PUSH3 0x461BCD PUSH1 0xE5 SHL DUP2 MSTORE DUP1 DUP6 ADD DUP14 SWAP1 MSTORE PUSH1 0x14 DUP2 DUP11 ADD MSTORE PUSH20 0x282927A81D2627A1A5A2A22FAA2920A729A322A9 PUSH1 0x61 SHL PUSH1 0x44 DUP3 ADD MSTORE PUSH1 0x64 SWAP1 REVERT JUMPDEST PUSH1 0x64 DUP5 DUP14 DUP11 DUP2 DUP15 MLOAD SWAP4 PUSH3 0x461BCD PUSH1 0xE5 SHL DUP6 MSTORE DUP5 ADD MSTORE DUP3 ADD MSTORE PUSH32 0x4552433732313A206D696E7420746F20746865207A65726F2061646472657373 PUSH1 0x44 DUP3 ADD MSTORE REVERT JUMPDEST DUP7 MLOAD PUSH3 0x461BCD PUSH1 0xE5 SHL DUP2 MSTORE SWAP1 DUP2 ADD DUP10 SWAP1 MSTORE PUSH1 0x11 DUP2 DUP7 ADD MSTORE PUSH17 0x141493D40E95549257D491545552549151 PUSH1 0x7A SHL PUSH1 0x44 DUP3 ADD MSTORE PUSH1 0x64 SWAP1 REVERT JUMPDEST DUP7 MLOAD PUSH3 0x461BCD PUSH1 0xE5 SHL DUP2 MSTORE SWAP1 DUP2 ADD DUP10 SWAP1 MSTORE PUSH1 0x10 DUP2 DUP7 ADD MSTORE PUSH16 0x524F4C453A4953535545525F4F4E4C59 PUSH1 0x80 SHL PUSH1 0x44 DUP3 ADD MSTORE PUSH1 0x64 SWAP1 REVERT JUMPDEST POP POP CALLVALUE PUSH2 0x1F1 JUMPI DUP2 PUSH1 0x3 NOT CALLDATASIZE ADD SLT PUSH2 0x1F1 JUMPI PUSH1 0x20 SWAP1 MLOAD PUSH32 0x114E74F6EA3BD819998F78687BFCB11B140DA08E9B7D222FA9C1F1BA1F2AA122 DUP2 MSTORE RETURN JUMPDEST POP CALLVALUE PUSH2 0x1C4 JUMPI PUSH1 0x20 CALLDATASIZE PUSH1 0x3 NOT ADD SLT PUSH2 0x1C4 JUMPI PUSH1 0x20 PUSH32 0x50CE0855ADEFA9CC610B1C7B5DD5C76F5E2C39DE3DE9F8EDDC24150EB580CD9C SWAP2 CALLDATALOAD SWAP3 PUSH1 0x0 DUP1 MLOAD PUSH1 0x20 PUSH2 0x28FC DUP4 CODECOPY DUP2 MLOAD SWAP2 MSTORE DUP6 MSTORE PUSH1 0x7 DUP3 MSTORE DUP1 DUP6 KECCAK256 CALLER DUP7 MSTORE DUP3 MSTORE PUSH2 0xF79 PUSH1 0xFF DUP3 DUP8 KECCAK256 SLOAD AND PUSH2 0x27B2 JUMP JUMPDEST PUSH1 0x0 DUP5 DUP2 MSTORE PUSH1 0x2 PUSH1 0x20 MSTORE PUSH1 0x40 SWAP1 KECCAK256 SLOAD PUSH2 0xF9C SWAP1 PUSH1 0x1 PUSH1 0x1 PUSH1 0xA0 SHL SUB AND ISZERO ISZERO PUSH2 0x26E6 JUMP JUMPDEST DUP4 DUP6 MSTORE PUSH1 0xB DUP3 MSTORE DUP1 DUP6 KECCAK256 PUSH1 0x1 PUSH1 0xFF NOT DUP3 SLOAD AND OR SWAP1 SSTORE MLOAD PUSH1 0x1 DUP2 MSTORE LOG2 DUP1 RETURN JUMPDEST POP DUP3 SWAP1 CALLVALUE PUSH2 0x1F1 JUMPI PUSH1 0x20 CALLDATASIZE PUSH1 0x3 NOT ADD SLT PUSH2 0x1F1 JUMPI PUSH1 0x1 PUSH1 0x1 PUSH1 0xA0 SHL SUB PUSH2 0xFDE PUSH2 0x1A37 JUMP JUMPDEST AND SWAP1 DUP2 ISZERO PUSH2 0xFFB JUMPI PUSH1 0x20 DUP5 DUP1 DUP6 DUP6 DUP2 MSTORE PUSH1 0x3 DUP5 MSTORE KECCAK256 SLOAD SWAP1 MLOAD SWAP1 DUP2 MSTORE RETURN JUMPDEST PUSH1 0x84 SWAP1 PUSH1 0x20 DUP6 MLOAD SWAP2 PUSH3 0x461BCD PUSH1 0xE5 SHL DUP4 MSTORE DUP3 ADD MSTORE PUSH1 0x29 PUSH1 0x24 DUP3 ADD MSTORE PUSH32 0x4552433732313A2061646472657373207A65726F206973206E6F742061207661 PUSH1 0x44 DUP3 ADD MSTORE PUSH9 0x3634B21037BBB732B9 PUSH1 0xB9 SHL PUSH1 0x64 DUP3 ADD MSTORE REVERT JUMPDEST POP CALLVALUE PUSH2 0x1C4 JUMPI PUSH1 0x20 CALLDATASIZE PUSH1 0x3 NOT ADD SLT PUSH2 0x1C4 JUMPI PUSH1 0x20 PUSH32 0x50CE0855ADEFA9CC610B1C7B5DD5C76F5E2C39DE3DE9F8EDDC24150EB580CD9C SWAP2 CALLDATALOAD SWAP3 PUSH1 0x0 DUP1 MLOAD PUSH1 0x20 PUSH2 0x28FC DUP4 CODECOPY DUP2 MLOAD SWAP2 MSTORE DUP6 MSTORE PUSH1 0x7 DUP3 MSTORE DUP1 DUP6 KECCAK256 CALLER DUP7 MSTORE DUP3 MSTORE PUSH2 0x10B4 PUSH1 0xFF DUP3 DUP8 KECCAK256 SLOAD AND PUSH2 0x27B2 JUMP JUMPDEST PUSH1 0x0 DUP5 DUP2 MSTORE PUSH1 0x2 PUSH1 0x20 MSTORE PUSH1 0x40 SWAP1 KECCAK256 SLOAD PUSH2 0x10D7 SWAP1 PUSH1 0x1 PUSH1 0x1 PUSH1 0xA0 SHL SUB AND ISZERO ISZERO PUSH2 0x26E6 JUMP JUMPDEST DUP4 DUP6 MSTORE PUSH1 0xB DUP3 MSTORE DUP1 DUP6 KECCAK256 DUP1 SLOAD PUSH1 0xFF NOT AND SWAP1 SSTORE MLOAD DUP5 DUP2 MSTORE LOG2 DUP1 RETURN JUMPDEST POP POP CALLVALUE PUSH2 0x1F1 JUMPI DUP2 PUSH1 0x3 NOT CALLDATASIZE ADD SLT PUSH2 0x1F1 JUMPI PUSH1 0x20 SWAP1 MLOAD PUSH32 0x2FDAC322EE704CE09F0773F7F3F92EB98D5E7C836EE9C056CCCD5F61041E5E3F DUP2 MSTORE RETURN JUMPDEST POP SWAP2 CALLVALUE PUSH2 0x56C JUMPI PUSH1 0x20 CALLDATASIZE PUSH1 0x3 NOT ADD SLT PUSH2 0x56C JUMPI POP PUSH2 0x114C PUSH1 0x20 SWAP3 CALLDATALOAD PUSH2 0x1F3C JUMP JUMPDEST SWAP1 MLOAD PUSH1 0x1 PUSH1 0x1 PUSH1 0xA0 SHL SUB SWAP1 SWAP2 AND DUP2 MSTORE RETURN JUMPDEST POP POP CALLVALUE PUSH2 0x1F1 JUMPI PUSH2 0x5F1 PUSH2 0x2FA SWAP2 PUSH2 0x1174 CALLDATASIZE PUSH2 0x1A68 JUMP JUMPDEST SWAP2 SWAP3 MLOAD SWAP3 PUSH2 0x1181 DUP5 PUSH2 0x1A9D JUMP JUMPDEST DUP7 DUP5 MSTORE PUSH2 0x5E1 PUSH2 0x5DC DUP5 CALLER PUSH2 0x20AF JUMP JUMPDEST POP DUP3 SWAP1 CALLVALUE PUSH2 0x1F1 JUMPI DUP3 PUSH1 0x3 NOT CALLDATASIZE ADD SLT PUSH2 0x1F1 JUMPI PUSH2 0x11AC PUSH2 0x1A52 JUMP JUMPDEST SWAP1 CALLER PUSH1 0x1 PUSH1 0x1 PUSH1 0xA0 SHL SUB DUP4 AND SUB PUSH2 0x11C8 JUMPI SWAP1 PUSH2 0x2FA SWAP2 CALLDATALOAD PUSH2 0x1E7A JUMP JUMPDEST PUSH1 0x84 SWAP1 PUSH1 0x20 DUP6 MLOAD SWAP2 PUSH3 0x461BCD PUSH1 0xE5 SHL DUP4 MSTORE DUP3 ADD MSTORE PUSH1 0x2F PUSH1 0x24 DUP3 ADD MSTORE PUSH32 0x416363657373436F6E74726F6C3A2063616E206F6E6C792072656E6F756E6365 PUSH1 0x44 DUP3 ADD MSTORE PUSH15 0x103937B632B9903337B91039B2B633 PUSH1 0x89 SHL PUSH1 0x64 DUP3 ADD MSTORE REVERT JUMPDEST POP SWAP1 CALLVALUE PUSH2 0x1C4 JUMPI PUSH1 0x80 CALLDATASIZE PUSH1 0x3 NOT ADD SLT PUSH2 0x1C4 JUMPI DUP2 CALLDATALOAD PUSH2 0x1240 PUSH2 0x1A52 JUMP JUMPDEST SWAP2 PUSH1 0x44 CALLDATALOAD SWAP4 PUSH1 0x1 DUP1 PUSH1 0xA0 SHL SUB SWAP2 DUP3 DUP7 AND DUP1 SWAP7 SUB PUSH2 0x13FC JUMPI PUSH1 0x64 CALLDATALOAD SWAP2 PUSH1 0x0 DUP1 MLOAD PUSH1 0x20 PUSH2 0x28FC DUP4 CODECOPY DUP2 MLOAD SWAP2 MSTORE DUP9 MSTORE PUSH1 0x20 SWAP4 PUSH1 0x7 DUP6 MSTORE DUP3 DUP10 KECCAK256 CALLER DUP11 MSTORE DUP6 MSTORE PUSH2 0x128A PUSH1 0xFF DUP5 DUP12 KECCAK256 SLOAD AND PUSH2 0x27B2 JUMP JUMPDEST DUP6 DUP10 MSTORE PUSH1 0x9 DUP6 MSTORE DUP3 DUP10 KECCAK256 SLOAD ISZERO PUSH2 0x13C0 JUMPI PUSH2 0x12A5 DUP9 ISZERO ISZERO PUSH2 0x2647 JUMP JUMPDEST DUP6 DUP10 MSTORE PUSH1 0xA DUP6 MSTORE DUP3 DUP10 KECCAK256 SWAP7 AND SWAP6 DUP7 DUP10 MSTORE DUP5 MSTORE DUP2 DUP9 KECCAK256 SLOAD SWAP1 DUP4 DUP3 LT ISZERO DUP1 PUSH2 0x13B7 JUMPI JUMPDEST ISZERO PUSH2 0x1379 JUMPI POP SWAP1 DUP3 PUSH32 0x7FF67DBBDEB398BCA52908D00DD27B952F03CBE7657EB5DAC8138DACF2B52B3F SWAP5 SWAP4 SWAP3 DUP7 DUP11 MSTORE PUSH1 0xA DUP6 MSTORE DUP3 DUP11 KECCAK256 DUP9 DUP12 MSTORE DUP6 MSTORE SUB DUP2 DUP10 KECCAK256 SSTORE DUP5 DUP9 MSTORE PUSH1 0xA DUP4 MSTORE DUP1 DUP9 KECCAK256 DUP7 DUP10 MSTORE DUP4 MSTORE DUP1 DUP9 KECCAK256 SLOAD ISZERO PUSH2 0x135D JUMPI JUMPDEST DUP5 DUP9 MSTORE PUSH1 0xA DUP4 MSTORE DUP1 DUP9 KECCAK256 DUP8 DUP10 MSTORE DUP4 MSTORE DUP1 DUP9 KECCAK256 PUSH2 0x133C DUP4 DUP3 SLOAD PUSH2 0x25FD JUMP JUMPDEST SWAP1 SSTORE DUP5 DUP9 MSTORE PUSH1 0x9 DUP4 MSTORE PUSH2 0x1354 DUP8 PUSH1 0x1 DUP4 DUP12 KECCAK256 ADD PUSH2 0x273F JUMP JUMPDEST POP MLOAD SWAP1 DUP2 MSTORE LOG4 DUP1 RETURN JUMPDEST DUP5 DUP9 MSTORE PUSH1 0x9 DUP4 MSTORE PUSH2 0x1373 DUP7 PUSH1 0x1 DUP4 DUP12 KECCAK256 ADD PUSH2 0x281F JUMP JUMPDEST POP PUSH2 0x131F JUMP JUMPDEST DUP3 MLOAD PUSH3 0x461BCD PUSH1 0xE5 SHL DUP2 MSTORE SWAP1 DUP2 ADD DUP6 SWAP1 MSTORE PUSH1 0x18 PUSH1 0x24 DUP3 ADD MSTORE PUSH24 0x50524F503A494E53554646494349454E545F534841524553 PUSH1 0x40 SHL PUSH1 0x44 DUP3 ADD MSTORE PUSH1 0x64 SWAP1 REVERT JUMPDEST POP DUP4 ISZERO ISZERO PUSH2 0x12C6 JUMP JUMPDEST POP DUP4 PUSH1 0x64 SWAP3 MLOAD SWAP2 PUSH3 0x461BCD PUSH1 0xE5 SHL DUP4 MSTORE DUP3 ADD MSTORE PUSH1 0x17 PUSH1 0x24 DUP3 ADD MSTORE PUSH23 0x141493D40E9393D517D1949050D51253D390531254D151 PUSH1 0x4A SHL PUSH1 0x44 DUP3 ADD MSTORE REVERT JUMPDEST DUP7 DUP1 REVERT JUMPDEST POP CALLVALUE PUSH2 0x1C4 JUMPI DUP2 PUSH1 0x3 NOT CALLDATASIZE ADD SLT PUSH2 0x1C4 JUMPI CALLDATALOAD SWAP1 PUSH2 0x141B PUSH2 0x1A52 JUMP JUMPDEST SWAP1 DUP3 DUP5 MSTORE PUSH1 0x7 PUSH1 0x20 MSTORE PUSH2 0x1433 PUSH1 0x1 DUP3 DUP7 KECCAK256 ADD SLOAD PUSH2 0x1B44 JUMP JUMPDEST DUP3 DUP5 MSTORE PUSH1 0x7 PUSH1 0x20 SWAP1 DUP2 MSTORE DUP2 DUP6 KECCAK256 PUSH1 0x1 PUSH1 0x1 PUSH1 0xA0 SHL SUB SWAP1 SWAP4 AND DUP1 DUP7 MSTORE SWAP3 SWAP1 MSTORE DUP1 DUP5 KECCAK256 SLOAD PUSH1 0xFF AND ISZERO PUSH2 0x1461 JUMPI DUP4 DUP1 RETURN JUMPDEST DUP3 DUP5 MSTORE PUSH1 0x7 PUSH1 0x20 MSTORE DUP1 DUP5 KECCAK256 DUP3 DUP6 MSTORE PUSH1 0x20 MSTORE DUP4 KECCAK256 PUSH1 0x1 PUSH1 0xFF NOT DUP3 SLOAD AND OR SWAP1 SSTORE CALLER SWAP2 PUSH32 0x2F8788117E7EFF1D82E926EC794901D17C78024A50270940304540A733656F0D DUP5 DUP1 LOG4 CODESIZE DUP1 DUP1 DUP4 DUP1 RETURN JUMPDEST POP CALLVALUE PUSH2 0x1C4 JUMPI PUSH1 0x20 CALLDATASIZE PUSH1 0x3 NOT ADD SLT PUSH2 0x1C4 JUMPI DUP2 PUSH1 0x20 SWAP4 PUSH1 0x1 SWAP3 CALLDATALOAD DUP2 MSTORE PUSH1 0x7 DUP6 MSTORE KECCAK256 ADD SLOAD SWAP1 MLOAD SWAP1 DUP2 MSTORE RETURN JUMPDEST DUP4 CALLVALUE PUSH2 0x56C JUMPI PUSH2 0x2FA PUSH2 0x14E8 CALLDATASIZE PUSH2 0x1A68 JUMP JUMPDEST SWAP2 PUSH2 0x14F6 PUSH2 0x5DC DUP5 CALLER PUSH2 0x20AF JUMP JUMPDEST PUSH2 0x2177 JUMP JUMPDEST POP CALLVALUE PUSH2 0x1C4 JUMPI PUSH1 0x20 CALLDATASIZE PUSH1 0x3 NOT ADD SLT PUSH2 0x1C4 JUMPI PUSH1 0x20 SWAP3 DUP3 SWAP2 CALLDATALOAD DUP2 MSTORE PUSH1 0x9 DUP5 MSTORE KECCAK256 SLOAD SWAP1 MLOAD SWAP1 DUP2 MSTORE RETURN JUMPDEST POP CALLVALUE PUSH2 0x1C4 JUMPI DUP2 PUSH1 0x3 NOT CALLDATASIZE ADD SLT PUSH2 0x1C4 JUMPI DUP1 CALLDATALOAD PUSH1 0x0 DUP2 DUP2 MSTORE PUSH1 0x2 PUSH1 0x20 MSTORE PUSH1 0x40 SWAP1 KECCAK256 SLOAD SWAP1 SWAP3 PUSH1 0x24 CALLDATALOAD SWAP2 PUSH2 0x155E SWAP1 PUSH1 0x1 PUSH1 0x1 PUSH1 0xA0 SHL SUB AND ISZERO ISZERO PUSH2 0x26E6 JUMP JUMPDEST DUP2 ISZERO PUSH2 0x16A4 JUMPI DUP4 DUP6 MSTORE PUSH1 0x20 SWAP3 PUSH1 0x9 DUP5 MSTORE DUP2 DUP7 KECCAK256 SLOAD PUSH2 0x1663 JUMPI PUSH2 0x1580 DUP6 CALLER PUSH2 0x20AF JUMP JUMPDEST DUP1 ISZERO PUSH2 0x1639 JUMPI JUMPDEST ISZERO PUSH2 0x1602 JUMPI POP SWAP1 PUSH32 0x181F959D4259996B36F4B32B6047E6599E2A1D6331D89D0F76024B072A79680D SWAP3 SWAP2 PUSH2 0x15F9 PUSH2 0x15BD DUP7 PUSH2 0x1F3C JUMP JUMPDEST DUP7 DUP9 MSTORE PUSH1 0x9 DUP1 DUP7 MSTORE DUP4 DUP10 KECCAK256 DUP6 SWAP1 SSTORE PUSH1 0xA DUP7 MSTORE DUP4 DUP10 KECCAK256 PUSH1 0x1 PUSH1 0x1 PUSH1 0xA0 SHL SUB SWAP1 SWAP3 AND DUP1 DUP11 MSTORE SWAP2 DUP7 MSTORE DUP4 DUP10 KECCAK256 DUP6 SWAP1 SSTORE DUP8 DUP10 MSTORE DUP6 MSTORE DUP3 DUP9 KECCAK256 PUSH1 0x1 ADD PUSH2 0x273F JUMP JUMPDEST POP MLOAD SWAP1 DUP2 MSTORE LOG2 DUP1 RETURN JUMPDEST DUP4 PUSH1 0x64 SWAP3 MLOAD SWAP2 PUSH3 0x461BCD PUSH1 0xE5 SHL DUP4 MSTORE DUP3 ADD MSTORE PUSH1 0x13 PUSH1 0x24 DUP3 ADD MSTORE PUSH19 0x141493D40E9393D517D055551213D49254D151 PUSH1 0x6A SHL PUSH1 0x44 DUP3 ADD MSTORE REVERT JUMPDEST POP PUSH1 0x0 DUP1 MLOAD PUSH1 0x20 PUSH2 0x28FC DUP4 CODECOPY DUP2 MLOAD SWAP2 MSTORE DUP7 MSTORE PUSH1 0x7 DUP5 MSTORE DUP2 DUP7 KECCAK256 CALLER DUP8 MSTORE DUP5 MSTORE PUSH1 0xFF DUP3 DUP8 KECCAK256 SLOAD AND PUSH2 0x1587 JUMP JUMPDEST DUP4 PUSH1 0x64 SWAP3 MLOAD SWAP2 PUSH3 0x461BCD PUSH1 0xE5 SHL DUP4 MSTORE DUP3 ADD MSTORE PUSH1 0x1B PUSH1 0x24 DUP3 ADD MSTORE PUSH32 0x50524F503A414C52454144595F4652414354494F4E414C495345440000000000 PUSH1 0x44 DUP3 ADD MSTORE REVERT JUMPDEST MLOAD PUSH3 0x461BCD PUSH1 0xE5 SHL DUP2 MSTORE PUSH1 0x20 DUP2 DUP5 ADD MSTORE PUSH1 0x16 PUSH1 0x24 DUP3 ADD MSTORE PUSH22 0x50524F503A544F54414C5F5348415245535F5A45524F PUSH1 0x50 SHL PUSH1 0x44 DUP3 ADD MSTORE PUSH1 0x64 SWAP1 REVERT JUMPDEST POP CALLVALUE PUSH2 0x1C4 JUMPI DUP2 PUSH1 0x3 NOT CALLDATASIZE ADD SLT PUSH2 0x1C4 JUMPI PUSH2 0x16F8 PUSH2 0x1A37 JUMP JUMPDEST PUSH1 0x24 CALLDATALOAD SWAP3 SWAP1 SWAP2 PUSH1 0x1 PUSH1 0x1 PUSH1 0xA0 SHL SUB SWAP2 SWAP1 DUP3 DUP1 PUSH2 0x1713 DUP8 PUSH2 0x1F3C JUMP JUMPDEST AND SWAP5 AND SWAP4 DUP1 DUP6 EQ PUSH2 0x17FF JUMPI DUP1 CALLER EQ SWAP1 DUP2 ISZERO PUSH2 0x17E0 JUMPI JUMPDEST POP ISZERO PUSH2 0x1778 JUMPI DUP5 DUP7 MSTORE PUSH1 0x20 MSTORE DUP5 KECCAK256 DUP1 SLOAD PUSH1 0x1 PUSH1 0x1 PUSH1 0xA0 SHL SUB NOT AND DUP4 OR SWAP1 SSTORE PUSH2 0x1750 DUP4 PUSH2 0x1F3C JUMP JUMPDEST AND PUSH32 0x8C5BE1E5EBEC7D5BD14F71427D1E84F3DD0314C0F7B2291E5B200AC8C7C3B925 DUP5 DUP1 LOG4 DUP1 RETURN JUMPDEST PUSH1 0x20 PUSH1 0x84 SWAP3 MLOAD SWAP2 PUSH3 0x461BCD PUSH1 0xE5 SHL DUP4 MSTORE DUP3 ADD MSTORE PUSH1 0x3D PUSH1 0x24 DUP3 ADD MSTORE PUSH32 0x4552433732313A20617070726F76652063616C6C6572206973206E6F7420746F PUSH1 0x44 DUP3 ADD MSTORE PUSH32 0x6B656E206F776E6572206F7220617070726F76656420666F7220616C6C000000 PUSH1 0x64 DUP3 ADD MSTORE REVERT JUMPDEST SWAP1 POP DUP7 MSTORE PUSH1 0x5 PUSH1 0x20 MSTORE DUP2 DUP7 KECCAK256 CALLER DUP8 MSTORE PUSH1 0x20 MSTORE PUSH1 0xFF DUP3 DUP8 KECCAK256 SLOAD AND CODESIZE PUSH2 0x1729 JUMP JUMPDEST POP PUSH1 0x20 PUSH1 0x84 SWAP3 MLOAD SWAP2 PUSH3 0x461BCD PUSH1 0xE5 SHL DUP4 MSTORE DUP3 ADD MSTORE PUSH1 0x21 PUSH1 0x24 DUP3 ADD MSTORE PUSH32 0x4552433732313A20617070726F76616C20746F2063757272656E74206F776E65 PUSH1 0x44 DUP3 ADD MSTORE PUSH1 0x39 PUSH1 0xF9 SHL PUSH1 0x64 DUP3 ADD MSTORE REVERT JUMPDEST POP SWAP2 CALLVALUE PUSH2 0x56C JUMPI PUSH1 0x20 CALLDATASIZE PUSH1 0x3 NOT ADD SLT PUSH2 0x56C JUMPI POP PUSH2 0x114C PUSH1 0x20 SWAP3 CALLDATALOAD PUSH2 0x1F9C JUMP JUMPDEST POP POP CALLVALUE PUSH2 0x1F1 JUMPI DUP2 PUSH1 0x3 NOT CALLDATASIZE ADD SLT PUSH2 0x1F1 JUMPI PUSH1 0x20 SWAP1 MLOAD PUSH32 0x68E79A7BF1E0BC45D0A330C573BC367F9CF464FD326078812F301165FBDA4EF1 DUP2 MSTORE RETURN JUMPDEST POP POP CALLVALUE PUSH2 0x1F1 JUMPI DUP2 PUSH1 0x3 NOT CALLDATASIZE ADD SLT PUSH2 0x1F1 JUMPI DUP1 MLOAD SWAP1 DUP3 DUP1 SLOAD PUSH2 0x18C8 DUP2 PUSH2 0x1F62 JUMP JUMPDEST DUP1 DUP6 MSTORE SWAP2 PUSH1 0x1 SWAP2 DUP1 DUP4 AND SWAP1 DUP2 ISZERO PUSH2 0x79F JUMPI POP PUSH1 0x1 EQ PUSH2 0x18F3 JUMPI POP POP POP PUSH2 0x731 DUP3 PUSH2 0x39E SWAP5 SUB DUP4 PUSH2 0x1ACF JUMP JUMPDEST DUP1 DUP1 SWAP7 POP MSTORE PUSH32 0x290DECD9548B62A8D60345A988386FC84BA6BC95484008F6362F93160EF3E563 JUMPDEST DUP3 DUP7 LT PUSH2 0x1937 JUMPI POP POP POP PUSH2 0x731 DUP3 PUSH1 0x20 PUSH2 0x39E SWAP6 DUP3 ADD ADD SWAP5 PUSH2 0x71F JUMP JUMPDEST DUP1 SLOAD PUSH1 0x20 DUP8 DUP8 ADD DUP2 ADD SWAP2 SWAP1 SWAP2 MSTORE SWAP1 SWAP6 ADD SWAP5 DUP2 ADD PUSH2 0x191A JUMP JUMPDEST SWAP3 POP POP CALLVALUE PUSH2 0x1C4 JUMPI PUSH1 0x20 CALLDATASIZE PUSH1 0x3 NOT ADD SLT PUSH2 0x1C4 JUMPI CALLDATALOAD PUSH4 0xFFFFFFFF PUSH1 0xE0 SHL DUP2 AND DUP1 SWAP2 SUB PUSH2 0x1C4 JUMPI PUSH1 0x20 SWAP3 POP PUSH4 0x7965DB0B PUSH1 0xE0 SHL DUP2 EQ SWAP1 DUP2 ISZERO PUSH2 0x1992 JUMPI JUMPDEST POP ISZERO ISZERO DUP2 MSTORE RETURN JUMPDEST PUSH4 0x24832483 PUSH1 0xE1 SHL DUP2 EQ SWAP2 POP DUP2 ISZERO PUSH2 0x19AC JUMPI JUMPDEST POP CODESIZE PUSH2 0x198B JUMP JUMPDEST PUSH4 0x80AC58CD PUSH1 0xE0 SHL DUP2 EQ SWAP2 POP DUP2 ISZERO PUSH2 0x19DE JUMPI JUMPDEST DUP2 ISZERO PUSH2 0x19CD JUMPI JUMPDEST POP CODESIZE PUSH2 0x19A5 JUMP JUMPDEST PUSH4 0x1FFC9A7 PUSH1 0xE0 SHL EQ SWAP1 POP CODESIZE PUSH2 0x19C6 JUMP JUMPDEST PUSH4 0x5B5E139F PUSH1 0xE0 SHL DUP2 EQ SWAP2 POP PUSH2 0x19BF JUMP JUMPDEST PUSH1 0x0 JUMPDEST DUP4 DUP2 LT PUSH2 0x1A02 JUMPI POP POP PUSH1 0x0 SWAP2 ADD MSTORE JUMP JUMPDEST DUP2 DUP2 ADD MLOAD DUP4 DUP3 ADD MSTORE PUSH1 0x20 ADD PUSH2 0x19F2 JUMP JUMPDEST SWAP1 PUSH1 0x20 SWAP2 PUSH2 0x1A2B DUP2 MLOAD DUP1 SWAP3 DUP2 DUP6 MSTORE DUP6 DUP1 DUP7 ADD SWAP2 ADD PUSH2 0x19EF JUMP JUMPDEST PUSH1 0x1F ADD PUSH1 0x1F NOT AND ADD ADD SWAP1 JUMP JUMPDEST PUSH1 0x4 CALLDATALOAD SWAP1 PUSH1 0x1 PUSH1 0x1 PUSH1 0xA0 SHL SUB DUP3 AND DUP3 SUB PUSH2 0x1A4D JUMPI JUMP JUMPDEST PUSH1 0x0 DUP1 REVERT JUMPDEST PUSH1 0x24 CALLDATALOAD SWAP1 PUSH1 0x1 PUSH1 0x1 PUSH1 0xA0 SHL SUB DUP3 AND DUP3 SUB PUSH2 0x1A4D JUMPI JUMP JUMPDEST PUSH1 0x60 SWAP1 PUSH1 0x3 NOT ADD SLT PUSH2 0x1A4D JUMPI PUSH1 0x1 PUSH1 0x1 PUSH1 0xA0 SHL SUB SWAP1 PUSH1 0x4 CALLDATALOAD DUP3 DUP2 AND DUP2 SUB PUSH2 0x1A4D JUMPI SWAP2 PUSH1 0x24 CALLDATALOAD SWAP1 DUP2 AND DUP2 SUB PUSH2 0x1A4D JUMPI SWAP1 PUSH1 0x44 CALLDATALOAD SWAP1 JUMP JUMPDEST PUSH1 0x20 DUP2 ADD SWAP1 DUP2 LT PUSH8 0xFFFFFFFFFFFFFFFF DUP3 GT OR PUSH2 0x1AB9 JUMPI PUSH1 0x40 MSTORE JUMP JUMPDEST PUSH4 0x4E487B71 PUSH1 0xE0 SHL PUSH1 0x0 MSTORE PUSH1 0x41 PUSH1 0x4 MSTORE PUSH1 0x24 PUSH1 0x0 REVERT JUMPDEST SWAP1 PUSH1 0x1F DUP1 NOT SWAP2 ADD AND DUP2 ADD SWAP1 DUP2 LT PUSH8 0xFFFFFFFFFFFFFFFF DUP3 GT OR PUSH2 0x1AB9 JUMPI PUSH1 0x40 MSTORE JUMP JUMPDEST PUSH8 0xFFFFFFFFFFFFFFFF DUP2 GT PUSH2 0x1AB9 JUMPI PUSH1 0x1F ADD PUSH1 0x1F NOT AND PUSH1 0x20 ADD SWAP1 JUMP JUMPDEST SWAP3 SWAP2 SWAP3 PUSH2 0x1B19 DUP3 PUSH2 0x1AF1 JUMP JUMPDEST SWAP2 PUSH2 0x1B27 PUSH1 0x40 MLOAD SWAP4 DUP5 PUSH2 0x1ACF JUMP JUMPDEST DUP3 SWAP5 DUP2 DUP5 MSTORE DUP2 DUP4 ADD GT PUSH2 0x1A4D JUMPI DUP3 DUP2 PUSH1 0x20 SWAP4 DUP5 PUSH1 0x0 SWAP7 ADD CALLDATACOPY ADD ADD MSTORE JUMP JUMPDEST PUSH1 0x0 SWAP1 DUP1 DUP3 MSTORE PUSH1 0x20 SWAP1 PUSH1 0x7 DUP3 MSTORE PUSH1 0x40 SWAP3 DUP4 DUP2 KECCAK256 CALLER DUP3 MSTORE DUP4 MSTORE PUSH1 0xFF DUP5 DUP3 KECCAK256 SLOAD AND ISZERO PUSH2 0x1B6E JUMPI POP POP POP POP JUMP JUMPDEST DUP4 MLOAD SWAP2 PUSH8 0xFFFFFFFFFFFFFFFF SWAP1 CALLER PUSH1 0x60 DUP6 ADD DUP4 DUP2 GT DUP7 DUP3 LT OR PUSH2 0x1E66 JUMPI DUP8 MSTORE PUSH1 0x2A DUP6 MSTORE DUP6 DUP6 ADD SWAP2 DUP8 CALLDATASIZE DUP5 CALLDATACOPY DUP6 MLOAD ISZERO PUSH2 0x1E52 JUMPI PUSH1 0x30 DUP4 MSTORE8 DUP6 MLOAD SWAP2 PUSH1 0x1 SWAP3 DUP4 LT ISZERO PUSH2 0x1E3E JUMPI PUSH1 0x78 PUSH1 0x21 DUP9 ADD MSTORE8 PUSH1 0x29 JUMPDEST DUP4 DUP2 GT PUSH2 0x1DD4 JUMPI POP PUSH2 0x1D92 JUMPI SWAP1 DUP8 MLOAD SWAP4 PUSH1 0x80 DUP6 ADD SWAP1 DUP6 DUP3 LT SWAP1 DUP3 GT OR PUSH2 0x1D7E JUMPI DUP9 MSTORE PUSH1 0x42 DUP5 MSTORE DUP7 DUP5 ADD SWAP5 PUSH1 0x60 CALLDATASIZE DUP8 CALLDATACOPY DUP5 MLOAD ISZERO PUSH2 0x1D6A JUMPI PUSH1 0x30 DUP7 MSTORE8 DUP5 MLOAD DUP3 LT ISZERO PUSH2 0x1D6A JUMPI SWAP1 PUSH1 0x78 PUSH1 0x21 DUP7 ADD MSTORE8 PUSH1 0x41 SWAP2 JUMPDEST DUP2 DUP4 GT PUSH2 0x1CFC JUMPI POP POP POP PUSH2 0x1CBA JUMPI PUSH2 0x1CB6 SWAP4 DUP7 SWAP4 PUSH2 0x1C9A SWAP4 PUSH2 0x1C8B PUSH1 0x48 SWAP5 PUSH2 0x1C62 SWAP11 MLOAD SWAP11 DUP12 SWAP6 PUSH32 0x416363657373436F6E74726F6C3A206163636F756E7420000000000000000000 DUP13 DUP9 ADD MSTORE MLOAD DUP1 SWAP3 PUSH1 0x37 DUP9 ADD SWAP1 PUSH2 0x19EF JUMP JUMPDEST DUP5 ADD SWAP2 PUSH17 0x1034B99036B4B9B9B4B733903937B6329 PUSH1 0x7D SHL PUSH1 0x37 DUP5 ADD MSTORE MLOAD DUP1 SWAP4 DUP7 DUP5 ADD SWAP1 PUSH2 0x19EF JUMP JUMPDEST ADD SUB PUSH1 0x28 DUP2 ADD DUP8 MSTORE ADD DUP6 PUSH2 0x1ACF JUMP JUMPDEST MLOAD SWAP3 DUP4 SWAP3 PUSH3 0x461BCD PUSH1 0xE5 SHL DUP5 MSTORE PUSH1 0x4 DUP5 ADD MSTORE PUSH1 0x24 DUP4 ADD SWAP1 PUSH2 0x1A12 JUMP JUMPDEST SUB SWAP1 REVERT JUMPDEST PUSH1 0x64 DUP6 DUP8 MLOAD SWAP1 PUSH3 0x461BCD PUSH1 0xE5 SHL DUP3 MSTORE DUP1 PUSH1 0x4 DUP4 ADD MSTORE PUSH1 0x24 DUP3 ADD MSTORE PUSH32 0x537472696E67733A20686578206C656E67746820696E73756666696369656E74 PUSH1 0x44 DUP3 ADD MSTORE REVERT JUMPDEST SWAP1 SWAP2 SWAP3 PUSH1 0xF DUP2 AND PUSH1 0x10 DUP2 LT ISZERO PUSH2 0x1D56 JUMPI PUSH16 0x181899199A1A9B1B9C1CB0B131B232B3 PUSH1 0x81 SHL SWAP1 BYTE PUSH2 0x1D2C DUP6 DUP9 PUSH2 0x2620 JUMP JUMPDEST MSTORE8 PUSH1 0x4 SHR SWAP3 DUP1 ISZERO PUSH2 0x1D42 JUMPI PUSH1 0x0 NOT ADD SWAP2 SWAP1 PUSH2 0x1C0A JUMP JUMPDEST PUSH4 0x4E487B71 PUSH1 0xE0 SHL DUP3 MSTORE PUSH1 0x11 PUSH1 0x4 MSTORE PUSH1 0x24 DUP3 REVERT JUMPDEST PUSH4 0x4E487B71 PUSH1 0xE0 SHL DUP4 MSTORE PUSH1 0x32 PUSH1 0x4 MSTORE PUSH1 0x24 DUP4 REVERT JUMPDEST PUSH4 0x4E487B71 PUSH1 0xE0 SHL DUP2 MSTORE PUSH1 0x32 PUSH1 0x4 MSTORE PUSH1 0x24 SWAP1 REVERT JUMPDEST PUSH4 0x4E487B71 PUSH1 0xE0 SHL DUP7 MSTORE PUSH1 0x41 PUSH1 0x4 MSTORE PUSH1 0x24 DUP7 REVERT JUMPDEST PUSH1 0x64 DUP8 DUP10 MLOAD SWAP1 PUSH3 0x461BCD PUSH1 0xE5 SHL DUP3 MSTORE DUP1 PUSH1 0x4 DUP4 ADD MSTORE PUSH1 0x24 DUP3 ADD MSTORE PUSH32 0x537472696E67733A20686578206C656E67746820696E73756666696369656E74 PUSH1 0x44 DUP3 ADD MSTORE REVERT JUMPDEST SWAP1 PUSH1 0xF DUP2 AND PUSH1 0x10 DUP2 LT ISZERO PUSH2 0x1E2A JUMPI PUSH16 0x181899199A1A9B1B9C1CB0B131B232B3 PUSH1 0x81 SHL SWAP1 BYTE PUSH2 0x1E02 DUP4 DUP11 PUSH2 0x2620 JUMP JUMPDEST MSTORE8 PUSH1 0x4 SHR SWAP1 DUP1 ISZERO PUSH2 0x1E16 JUMPI PUSH1 0x0 NOT ADD PUSH2 0x1BBB JUMP JUMPDEST PUSH4 0x4E487B71 PUSH1 0xE0 SHL DUP8 MSTORE PUSH1 0x11 PUSH1 0x4 MSTORE PUSH1 0x24 DUP8 REVERT JUMPDEST PUSH4 0x4E487B71 PUSH1 0xE0 SHL DUP9 MSTORE PUSH1 0x32 PUSH1 0x4 MSTORE PUSH1 0x24 DUP9 REVERT JUMPDEST PUSH4 0x4E487B71 PUSH1 0xE0 SHL DUP7 MSTORE PUSH1 0x32 PUSH1 0x4 MSTORE PUSH1 0x24 DUP7 REVERT JUMPDEST PUSH4 0x4E487B71 PUSH1 0xE0 SHL DUP6 MSTORE PUSH1 0x32 PUSH1 0x4 MSTORE PUSH1 0x24 DUP6 REVERT JUMPDEST PUSH4 0x4E487B71 PUSH1 0xE0 SHL DUP6 MSTORE PUSH1 0x41 PUSH1 0x4 MSTORE PUSH1 0x24 DUP6 REVERT JUMPDEST SWAP1 PUSH1 0x0 SWAP2 DUP1 DUP4 MSTORE PUSH1 0x7 PUSH1 0x20 MSTORE PUSH1 0x40 DUP4 KECCAK256 SWAP2 PUSH1 0x1 DUP1 PUSH1 0xA0 SHL SUB AND SWAP2 DUP3 DUP5 MSTORE PUSH1 0x20 MSTORE PUSH1 0xFF PUSH1 0x40 DUP5 KECCAK256 SLOAD AND PUSH2 0x1EAB JUMPI POP POP POP JUMP JUMPDEST DUP1 DUP4 MSTORE PUSH1 0x7 PUSH1 0x20 MSTORE PUSH1 0x40 DUP4 KECCAK256 DUP3 DUP5 MSTORE PUSH1 0x20 MSTORE PUSH1 0x40 DUP4 KECCAK256 PUSH1 0xFF NOT DUP2 SLOAD AND SWAP1 SSTORE PUSH32 0xF6391F5C32D9C69D2A47EA670B442974B53935D1EDC7FD64EB21E047A839171B CALLER SWAP4 DUP1 LOG4 JUMP JUMPDEST ISZERO PUSH2 0x1EF7 JUMPI JUMP JUMPDEST PUSH1 0x40 MLOAD PUSH3 0x461BCD PUSH1 0xE5 SHL DUP2 MSTORE PUSH1 0x20 PUSH1 0x4 DUP3 ADD MSTORE PUSH1 0x18 PUSH1 0x24 DUP3 ADD MSTORE PUSH32 0x4552433732313A20696E76616C696420746F6B656E2049440000000000000000 PUSH1 0x44 DUP3 ADD MSTORE PUSH1 0x64 SWAP1 REVERT JUMPDEST PUSH1 0x0 SWAP1 DUP2 MSTORE PUSH1 0x2 PUSH1 0x20 MSTORE PUSH1 0x40 SWAP1 KECCAK256 SLOAD PUSH1 0x1 PUSH1 0x1 PUSH1 0xA0 SHL SUB AND PUSH2 0x1F5F DUP2 ISZERO ISZERO PUSH2 0x1EF0 JUMP JUMPDEST SWAP1 JUMP JUMPDEST SWAP1 PUSH1 0x1 DUP3 DUP2 SHR SWAP3 AND DUP1 ISZERO PUSH2 0x1F92 JUMPI JUMPDEST PUSH1 0x20 DUP4 LT EQ PUSH2 0x1F7C JUMPI JUMP JUMPDEST PUSH4 0x4E487B71 PUSH1 0xE0 SHL PUSH1 0x0 MSTORE PUSH1 0x22 PUSH1 0x4 MSTORE PUSH1 0x24 PUSH1 0x0 REVERT JUMPDEST SWAP2 PUSH1 0x7F AND SWAP2 PUSH2 0x1F71 JUMP JUMPDEST PUSH1 0x0 DUP2 DUP2 MSTORE PUSH1 0x2 PUSH1 0x20 MSTORE PUSH1 0x40 SWAP1 KECCAK256 SLOAD PUSH2 0x1FBF SWAP1 PUSH1 0x1 PUSH1 0x1 PUSH1 0xA0 SHL SUB AND ISZERO ISZERO PUSH2 0x1EF0 JUMP JUMPDEST PUSH1 0x0 SWAP1 DUP2 MSTORE PUSH1 0x4 PUSH1 0x20 MSTORE PUSH1 0x40 SWAP1 KECCAK256 SLOAD PUSH1 0x1 PUSH1 0x1 PUSH1 0xA0 SHL SUB AND SWAP1 JUMP JUMPDEST ISZERO PUSH2 0x1FE1 JUMPI JUMP JUMPDEST PUSH1 0x40 MLOAD PUSH3 0x461BCD PUSH1 0xE5 SHL DUP2 MSTORE PUSH1 0x20 PUSH1 0x4 DUP3 ADD MSTORE PUSH1 0x2D PUSH1 0x24 DUP3 ADD MSTORE PUSH32 0x4552433732313A2063616C6C6572206973206E6F7420746F6B656E206F776E65 PUSH1 0x44 DUP3 ADD MSTORE PUSH13 0x1C881BDC88185C1C1C9BDD9959 PUSH1 0x9A SHL PUSH1 0x64 DUP3 ADD MSTORE PUSH1 0x84 SWAP1 REVERT JUMPDEST PUSH1 0x80 SWAP1 PUSH1 0x20 DUP2 MSTORE PUSH1 0x32 PUSH1 0x20 DUP3 ADD MSTORE PUSH32 0x4552433732313A207472616E7366657220746F206E6F6E204552433732315265 PUSH1 0x40 DUP3 ADD MSTORE PUSH18 0x31B2B4BB32B91034B6B83632B6B2B73A32B9 PUSH1 0x71 SHL PUSH1 0x60 DUP3 ADD MSTORE ADD SWAP1 JUMP JUMPDEST ISZERO PUSH2 0x2096 JUMPI JUMP JUMPDEST PUSH1 0x40 MLOAD PUSH3 0x461BCD PUSH1 0xE5 SHL DUP2 MSTORE DUP1 PUSH2 0x1CB6 PUSH1 0x4 DUP3 ADD PUSH2 0x203C JUMP JUMPDEST SWAP1 PUSH1 0x1 PUSH1 0x1 PUSH1 0xA0 SHL SUB DUP1 DUP1 PUSH2 0x20C3 DUP5 PUSH2 0x1F3C JUMP JUMPDEST AND SWAP4 AND SWAP2 DUP4 DUP4 EQ SWAP4 DUP5 ISZERO PUSH2 0x20F6 JUMPI JUMPDEST POP DUP4 ISZERO PUSH2 0x20E0 JUMPI JUMPDEST POP POP POP SWAP1 JUMP JUMPDEST PUSH2 0x20EC SWAP2 SWAP3 SWAP4 POP PUSH2 0x1F9C JUMP JUMPDEST AND EQ CODESIZE DUP1 DUP1 PUSH2 0x20DA JUMP JUMPDEST SWAP1 SWAP4 POP PUSH1 0x0 MSTORE PUSH1 0x5 PUSH1 0x20 MSTORE PUSH1 0x40 PUSH1 0x0 KECCAK256 DUP3 PUSH1 0x0 MSTORE PUSH1 0x20 MSTORE PUSH1 0xFF PUSH1 0x40 PUSH1 0x0 KECCAK256 SLOAD AND SWAP3 CODESIZE PUSH2 0x20D2 JUMP JUMPDEST ISZERO PUSH2 0x2124 JUMPI JUMP JUMPDEST PUSH1 0x40 MLOAD PUSH3 0x461BCD PUSH1 0xE5 SHL DUP2 MSTORE PUSH1 0x20 PUSH1 0x4 DUP3 ADD MSTORE PUSH1 0x25 PUSH1 0x24 DUP3 ADD MSTORE PUSH32 0x4552433732313A207472616E736665722066726F6D20696E636F727265637420 PUSH1 0x44 DUP3 ADD MSTORE PUSH5 0x37BBB732B9 PUSH1 0xD9 SHL PUSH1 0x64 DUP3 ADD MSTORE PUSH1 0x84 SWAP1 REVERT JUMPDEST SWAP1 PUSH2 0x219F SWAP2 PUSH2 0x2185 DUP5 PUSH2 0x1F3C JUMP JUMPDEST PUSH1 0x1 PUSH1 0x1 PUSH1 0xA0 SHL SUB SWAP4 SWAP2 DUP5 AND SWAP3 DUP5 SWAP3 SWAP1 SWAP2 DUP4 AND DUP5 EQ PUSH2 0x211D JUMP JUMPDEST AND SWAP2 DUP3 ISZERO PUSH2 0x240B JUMPI PUSH1 0x0 SWAP1 DUP5 DUP3 MSTORE PUSH1 0x20 SWAP1 PUSH1 0xB DUP3 MSTORE PUSH1 0x40 SWAP1 PUSH1 0xFF DUP3 DUP6 KECCAK256 SLOAD AND PUSH2 0x23D0 JUMPI DUP5 SWAP4 SWAP3 SWAP2 DUP7 SWAP2 DUP6 ISZERO ISZERO DUP1 PUSH2 0x23BD JUMPI JUMPDEST PUSH2 0x2260 JUMPI JUMPDEST PUSH32 0xDDF252AD1BE2C89B69C2B068FC378DAA952BA7F163C4A11628F55A4DF523B3EF SWAP6 PUSH2 0x220C SWAP2 PUSH2 0x2205 DUP12 PUSH2 0x1F3C JUMP JUMPDEST AND EQ PUSH2 0x211D JUMP JUMPDEST DUP8 DUP5 MSTORE PUSH1 0x4 DUP4 MSTORE PUSH1 0x2 DUP2 DUP6 KECCAK256 SWAP4 PUSH12 0xFFFFFFFFFFFFFFFFFFFFFFFF PUSH1 0xA0 SHL SWAP5 DUP6 DUP2 SLOAD AND SWAP1 SSTORE DUP8 DUP7 MSTORE PUSH1 0x3 DUP2 MSTORE DUP3 DUP7 KECCAK256 PUSH1 0x0 NOT DUP2 SLOAD ADD SWAP1 SSTORE DUP4 DUP7 MSTORE DUP3 DUP7 KECCAK256 PUSH1 0x1 DUP2 SLOAD ADD SWAP1 SSTORE DUP10 DUP7 MSTORE MSTORE DUP4 KECCAK256 SWAP2 DUP3 SLOAD AND OR SWAP1 SSTORE DUP1 LOG4 JUMP JUMPDEST SWAP2 POP SWAP2 SWAP3 SWAP4 POP DUP7 DUP5 MSTORE PUSH1 0x9 DUP4 MSTORE PUSH1 0x1 DUP3 DUP6 KECCAK256 ADD DUP6 PUSH1 0x1 DUP3 SLOAD EQ SWAP2 DUP3 PUSH2 0x239C JUMPI JUMPDEST POP POP ISZERO PUSH2 0x2358 JUMPI DUP7 DUP5 MSTORE PUSH1 0xA DUP4 MSTORE DUP2 DUP5 KECCAK256 DUP6 DUP6 MSTORE DUP4 MSTORE DUP2 DUP5 KECCAK256 SLOAD DUP8 DUP6 MSTORE PUSH1 0x9 DUP5 MSTORE DUP3 DUP6 KECCAK256 SLOAD SUB PUSH2 0x2314 JUMPI DUP4 SWAP3 SWAP2 PUSH2 0x220C DUP7 DUP9 SWAP4 DUP11 PUSH32 0xDDF252AD1BE2C89B69C2B068FC378DAA952BA7F163C4A11628F55A4DF523B3EF SWAP9 MSTORE PUSH1 0xA DUP7 MSTORE DUP4 DUP8 KECCAK256 DUP3 DUP9 MSTORE DUP7 MSTORE DUP7 DUP5 DUP2 KECCAK256 SSTORE DUP11 DUP8 MSTORE PUSH1 0x9 DUP7 MSTORE PUSH2 0x22FE DUP3 PUSH1 0x1 DUP7 DUP11 KECCAK256 ADD PUSH2 0x281F JUMP JUMPDEST POP DUP11 DUP8 MSTORE PUSH1 0x9 DUP7 MSTORE DUP7 DUP5 DUP2 KECCAK256 SSTORE SWAP2 POP SWAP6 POP PUSH2 0x21D6 JUMP JUMPDEST DUP2 MLOAD PUSH3 0x461BCD PUSH1 0xE5 SHL DUP2 MSTORE PUSH1 0x4 DUP2 ADD DUP5 SWAP1 MSTORE PUSH1 0x19 PUSH1 0x24 DUP3 ADD MSTORE PUSH32 0x50524F503A5348415245535F4E4F545F5245434C41494D454400000000000000 PUSH1 0x44 DUP3 ADD MSTORE PUSH1 0x64 SWAP1 REVERT JUMPDEST DUP2 MLOAD PUSH3 0x461BCD PUSH1 0xE5 SHL DUP2 MSTORE PUSH1 0x4 DUP2 ADD DUP5 SWAP1 MSTORE PUSH1 0x1A PUSH1 0x24 DUP3 ADD MSTORE PUSH32 0x50524F503A5348415245535F494E5F43495243554C4154494F4E000000000000 PUSH1 0x44 DUP3 ADD MSTORE PUSH1 0x64 SWAP1 REVERT JUMPDEST PUSH2 0x23B6 SWAP3 POP PUSH1 0x1 SWAP2 PUSH1 0x0 MSTORE ADD PUSH1 0x20 MSTORE PUSH1 0x40 PUSH1 0x0 KECCAK256 SLOAD ISZERO ISZERO SWAP1 JUMP JUMPDEST DUP6 CODESIZE PUSH2 0x2280 JUMP JUMPDEST POP DUP9 DUP6 MSTORE PUSH1 0x9 DUP5 MSTORE DUP2 DUP6 KECCAK256 SLOAD ISZERO ISZERO PUSH2 0x21D1 JUMP JUMPDEST DUP2 MLOAD PUSH3 0x461BCD PUSH1 0xE5 SHL DUP2 MSTORE PUSH1 0x4 DUP2 ADD DUP5 SWAP1 MSTORE PUSH1 0x14 PUSH1 0x24 DUP3 ADD MSTORE PUSH20 0x282927A81D2627A1A5A2A22FAA2920A729A322A9 PUSH1 0x61 SHL PUSH1 0x44 DUP3 ADD MSTORE PUSH1 0x64 SWAP1 REVERT JUMPDEST PUSH1 0x40 MLOAD PUSH3 0x461BCD PUSH1 0xE5 SHL DUP2 MSTORE PUSH1 0x20 PUSH1 0x4 DUP3 ADD MSTORE PUSH1 0x24 DUP1 DUP3 ADD MSTORE PUSH32 0x4552433732313A207472616E7366657220746F20746865207A65726F20616464 PUSH1 0x44 DUP3 ADD MSTORE PUSH4 0x72657373 PUSH1 0xE0 SHL PUSH1 0x64 DUP3 ADD MSTORE PUSH1 0x84 SWAP1 REVERT JUMPDEST SWAP2 SWAP3 SWAP1 SWAP2 DUP1 EXTCODESIZE ISZERO PUSH2 0x256D JUMPI PUSH2 0x24A9 SWAP4 PUSH1 0x40 MLOAD SWAP1 DUP2 PUSH4 0xA85BD01 PUSH1 0xE1 SHL SWAP4 DUP5 DUP3 MSTORE CALLER PUSH1 0x4 DUP4 ADD MSTORE PUSH1 0x0 SWAP7 DUP8 PUSH1 0x24 DUP5 ADD MSTORE PUSH1 0x44 DUP4 ADD MSTORE PUSH1 0x80 PUSH1 0x64 DUP4 ADD MSTORE DUP2 DUP8 DUP2 PUSH1 0x20 SWAP11 DUP12 SWAP7 PUSH1 0x84 DUP4 ADD SWAP1 PUSH2 0x1A12 JUMP JUMPDEST SUB SWAP3 PUSH1 0x1 PUSH1 0x1 PUSH1 0xA0 SHL SUB AND GAS CALL DUP5 SWAP2 DUP2 PUSH2 0x252D JUMPI JUMPDEST POP PUSH2 0x251C JUMPI POP POP POP RETURNDATASIZE PUSH1 0x0 EQ PUSH2 0x2514 JUMPI RETURNDATASIZE PUSH2 0x24D8 DUP2 PUSH2 0x1AF1 JUMP JUMPDEST SWAP1 PUSH2 0x24E6 PUSH1 0x40 MLOAD SWAP3 DUP4 PUSH2 0x1ACF JUMP JUMPDEST DUP2 MSTORE DUP1 SWAP2 DUP4 RETURNDATASIZE SWAP3 ADD RETURNDATACOPY JUMPDEST DUP1 MLOAD SWAP2 DUP3 PUSH2 0x2511 JUMPI PUSH1 0x40 MLOAD PUSH3 0x461BCD PUSH1 0xE5 SHL DUP2 MSTORE DUP1 PUSH2 0x1CB6 PUSH1 0x4 DUP3 ADD PUSH2 0x203C JUMP JUMPDEST ADD REVERT JUMPDEST POP PUSH1 0x60 PUSH2 0x24F0 JUMP JUMPDEST PUSH1 0x1 PUSH1 0x1 PUSH1 0xE0 SHL SUB NOT AND EQ SWAP3 POP SWAP1 POP JUMP JUMPDEST SWAP1 SWAP2 POP DUP6 DUP2 DUP2 RETURNDATASIZE DUP4 GT PUSH2 0x2566 JUMPI JUMPDEST PUSH2 0x2545 DUP2 DUP4 PUSH2 0x1ACF JUMP JUMPDEST DUP2 ADD SUB SLT PUSH2 0x6C5 JUMPI MLOAD PUSH1 0x1 PUSH1 0x1 PUSH1 0xE0 SHL SUB NOT DUP2 AND DUP2 SUB PUSH2 0x6C5 JUMPI SWAP1 CODESIZE PUSH2 0x24BE JUMP JUMPDEST POP RETURNDATASIZE PUSH2 0x253B JUMP JUMPDEST POP SWAP2 POP POP PUSH1 0x1 SWAP1 JUMP JUMPDEST SWAP3 SWAP4 SWAP2 SWAP1 DUP1 EXTCODESIZE ISZERO PUSH2 0x25F3 JUMPI PUSH2 0x25C8 SWAP5 PUSH1 0x40 MLOAD DUP1 SWAP3 PUSH4 0xA85BD01 PUSH1 0xE1 SHL SWAP5 DUP6 DUP4 MSTORE CALLER PUSH1 0x4 DUP5 ADD MSTORE PUSH1 0x1 DUP1 PUSH1 0xA0 SHL SUB DUP1 SWAP9 AND PUSH1 0x24 DUP5 ADD MSTORE PUSH1 0x44 DUP4 ADD MSTORE PUSH1 0x80 PUSH1 0x64 DUP4 ADD MSTORE DUP2 DUP1 PUSH1 0x20 SWAP10 DUP11 SWAP6 PUSH1 0x84 DUP4 ADD SWAP1 PUSH2 0x1A12 JUMP JUMPDEST SUB SWAP2 PUSH1 0x0 SWAP9 DUP10 SWAP2 AND GAS CALL DUP5 SWAP2 DUP2 PUSH2 0x252D JUMPI POP PUSH2 0x251C JUMPI POP POP POP RETURNDATASIZE PUSH1 0x0 EQ PUSH2 0x2514 JUMPI RETURNDATASIZE PUSH2 0x24D8 DUP2 PUSH2 0x1AF1 JUMP JUMPDEST POP POP SWAP2 POP POP PUSH1 0x1 SWAP1 JUMP JUMPDEST SWAP2 SWAP1 DUP3 ADD DUP1 SWAP3 GT PUSH2 0x260A JUMPI JUMP JUMPDEST PUSH4 0x4E487B71 PUSH1 0xE0 SHL PUSH1 0x0 MSTORE PUSH1 0x11 PUSH1 0x4 MSTORE PUSH1 0x24 PUSH1 0x0 REVERT JUMPDEST SWAP1 DUP2 MLOAD DUP2 LT ISZERO PUSH2 0x2631 JUMPI ADD PUSH1 0x20 ADD SWAP1 JUMP JUMPDEST PUSH4 0x4E487B71 PUSH1 0xE0 SHL PUSH1 0x0 MSTORE PUSH1 0x32 PUSH1 0x4 MSTORE PUSH1 0x24 PUSH1 0x0 REVERT JUMPDEST ISZERO PUSH2 0x264E JUMPI JUMP JUMPDEST PUSH1 0x40 MLOAD PUSH3 0x461BCD PUSH1 0xE5 SHL DUP2 MSTORE PUSH1 0x20 PUSH1 0x4 DUP3 ADD MSTORE PUSH1 0x15 PUSH1 0x24 DUP3 ADD MSTORE PUSH21 0x282927A81D24A72B20A624A22FA922A1A2A4AB22A9 PUSH1 0x59 SHL PUSH1 0x44 DUP3 ADD MSTORE PUSH1 0x64 SWAP1 REVERT JUMPDEST PUSH1 0x0 NOT DUP2 EQ PUSH2 0x260A JUMPI PUSH1 0x1 ADD SWAP1 JUMP JUMPDEST ISZERO PUSH2 0x26A1 JUMPI JUMP JUMPDEST PUSH1 0x40 MLOAD PUSH3 0x461BCD PUSH1 0xE5 SHL DUP2 MSTORE PUSH1 0x20 PUSH1 0x4 DUP3 ADD MSTORE PUSH1 0x1C PUSH1 0x24 DUP3 ADD MSTORE PUSH32 0x4552433732313A20746F6B656E20616C7265616479206D696E74656400000000 PUSH1 0x44 DUP3 ADD MSTORE PUSH1 0x64 SWAP1 REVERT JUMPDEST ISZERO PUSH2 0x26ED JUMPI JUMP JUMPDEST PUSH1 0x40 MLOAD PUSH3 0x461BCD PUSH1 0xE5 SHL DUP2 MSTORE PUSH1 0x20 PUSH1 0x4 DUP3 ADD MSTORE PUSH1 0x12 PUSH1 0x24 DUP3 ADD MSTORE PUSH18 0x282927A81D2AA725A727ABA72FAA27A5A2A7 PUSH1 0x71 SHL PUSH1 0x44 DUP3 ADD MSTORE PUSH1 0x64 SWAP1 REVERT JUMPDEST DUP1 SLOAD DUP3 LT ISZERO PUSH2 0x2631 JUMPI PUSH1 0x0 MSTORE PUSH1 0x20 PUSH1 0x0 KECCAK256 ADD SWAP1 PUSH1 0x0 SWAP1 JUMP JUMPDEST PUSH1 0x0 DUP3 DUP2 MSTORE PUSH1 0x1 DUP3 ADD PUSH1 0x20 MSTORE PUSH1 0x40 SWAP1 KECCAK256 SLOAD PUSH2 0x27AB JUMPI DUP1 SLOAD SWAP1 PUSH9 0x10000000000000000 DUP3 LT ISZERO PUSH2 0x1AB9 JUMPI DUP3 PUSH2 0x2794 PUSH2 0x277D DUP5 PUSH1 0x1 DUP1 SWAP7 ADD DUP6 SSTORE DUP5 PUSH2 0x2727 JUMP JUMPDEST DUP2 SWAP4 SWAP2 SLOAD SWAP1 PUSH1 0x3 SHL SWAP2 DUP3 SHL SWAP2 PUSH1 0x0 NOT SWAP1 SHL NOT AND OR SWAP1 JUMP JUMPDEST SWAP1 SSTORE DUP1 SLOAD SWAP3 PUSH1 0x0 MSTORE ADD PUSH1 0x20 MSTORE PUSH1 0x40 PUSH1 0x0 KECCAK256 SSTORE PUSH1 0x1 SWAP1 JUMP JUMPDEST POP POP PUSH1 0x0 SWAP1 JUMP JUMPDEST ISZERO PUSH2 0x27B9 JUMPI JUMP JUMPDEST PUSH1 0x40 MLOAD PUSH3 0x461BCD PUSH1 0xE5 SHL DUP2 MSTORE PUSH1 0x20 PUSH1 0x4 DUP3 ADD MSTORE PUSH1 0x12 PUSH1 0x24 DUP3 ADD MSTORE PUSH18 0x524F4C453A4F50455241544F525F4F4E4C59 PUSH1 0x70 SHL PUSH1 0x44 DUP3 ADD MSTORE PUSH1 0x64 SWAP1 REVERT JUMPDEST PUSH8 0xFFFFFFFFFFFFFFFF DUP2 GT PUSH2 0x1AB9 JUMPI PUSH1 0x5 SHL PUSH1 0x20 ADD SWAP1 JUMP JUMPDEST DUP1 MLOAD DUP3 LT ISZERO PUSH2 0x2631 JUMPI PUSH1 0x20 SWAP2 PUSH1 0x5 SHL ADD ADD SWAP1 JUMP JUMPDEST SWAP1 PUSH1 0x1 DUP3 ADD SWAP1 PUSH1 0x0 SWAP3 DUP2 DUP5 MSTORE DUP3 PUSH1 0x20 MSTORE PUSH1 0x40 DUP5 KECCAK256 SLOAD SWAP1 DUP2 ISZERO ISZERO PUSH1 0x0 EQ PUSH2 0x28F4 JUMPI PUSH1 0x0 NOT SWAP2 DUP1 DUP4 ADD DUP2 DUP2 GT PUSH2 0x1E16 JUMPI DUP3 SLOAD SWAP1 DUP5 DUP3 ADD SWAP2 DUP3 GT PUSH2 0x28E0 JUMPI DUP1 DUP3 SUB PUSH2 0x28AB JUMPI JUMPDEST POP POP POP DUP1 SLOAD DUP1 ISZERO PUSH2 0x2897 JUMPI DUP3 ADD SWAP2 PUSH2 0x287A DUP4 DUP4 PUSH2 0x2727 JUMP JUMPDEST SWAP1 SWAP2 DUP3 SLOAD SWAP2 PUSH1 0x3 SHL SHL NOT AND SWAP1 SSTORE SSTORE DUP3 MSTORE PUSH1 0x20 MSTORE PUSH1 0x40 DUP2 KECCAK256 SSTORE PUSH1 0x1 SWAP1 JUMP JUMPDEST PUSH4 0x4E487B71 PUSH1 0xE0 SHL DUP7 MSTORE PUSH1 0x31 PUSH1 0x4 MSTORE PUSH1 0x24 DUP7 REVERT JUMPDEST PUSH2 0x28CB PUSH2 0x28BB PUSH2 0x277D SWAP4 DUP7 PUSH2 0x2727 JUMP JUMPDEST SWAP1 SLOAD SWAP1 PUSH1 0x3 SHL SHR SWAP3 DUP4 SWAP3 DUP7 PUSH2 0x2727 JUMP JUMPDEST SWAP1 SSTORE DUP7 MSTORE DUP5 PUSH1 0x20 MSTORE PUSH1 0x40 DUP7 KECCAK256 SSTORE CODESIZE DUP1 DUP1 PUSH2 0x2862 JUMP JUMPDEST PUSH4 0x4E487B71 PUSH1 0xE0 SHL DUP9 MSTORE PUSH1 0x11 PUSH1 0x4 MSTORE PUSH1 0x24 DUP9 REVERT JUMPDEST POP POP POP POP SWAP1 JUMP INVALID SWAP8 PUSH7 0x7070C54EF182B0 CREATE2 DUP6 DUP12 SUB 0x4B 0xEA 0xC1 0xB6 RETURN ADDMOD SWAP11 LOG2 0xD3 XOR DUP12 0xB1 0xE8 SWAP3 SWAP16 0x4F 0xA9 0xB9 0x29 LOG2 PUSH5 0x6970667358 0x22 SLT KECCAK256 0x2B PC 0xCE 0x21 DUP13 GAS SAR SLOAD PC 0xA7 CREATE2 0x29 0xFC 0xB8 PUSH25 0x72E06AEC6C7869252B248CE0AE8C95EEFD64736F6C63430008 EQ STOP CALLER "},"methodIdentifiers":{"DEFAULT_ADMIN_ROLE()":"a217fddf","ESCROW_ROLE()":"6ce76f30","GOVERNANCE_ROLE()":"f36c8f5c","ISSUER_ROLE()":"82aefa24","OPERATOR_ROLE()":"f5b541a6","ORACLE_ROLE()":"07e2cea5","approve(address,uint256)":"095ea7b3","balanceOf(address)":"70a08231","fractionBalanceOf(uint256,address)":"eb479740","fractionalize(uint256,uint256)":"0c386fda","getApproved(uint256)":"081812fc","getFractionHolders(uint256)":"c6ef551e","getRoleAdmin(bytes32)":"248a9ca3","grantRole(bytes32,address)":"2f2ff15d","hasRole(bytes32,address)":"91d14854","isApprovedForAll(address,address)":"e985e9c5","isLocked(uint256)":"f6aacfb1","lockTitle(uint256)":"823a3bf4","mintPropertyNFT(string,address)":"87c2eab5","name()":"06fdde03","ownerOf(uint256)":"6352211e","renounceRole(bytes32,address)":"36568abe","revokeRole(bytes32,address)":"d547741f","safeTransferFrom(address,address,uint256)":"42842e0e","safeTransferFrom(address,address,uint256,bytes)":"b88d4fde","setApprovalForAll(address,bool)":"a22cb465","supportsInterface(bytes4)":"01ffc9a7","symbol()":"95d89b41","tokenURI(uint256)":"c87b56dd","totalShares(uint256)":"13f2dad0","transferFraction(uint256,address,uint256)":"94e53ea7","transferFractionFrom(uint256,address,address,uint256)":"2f5d9de2","transferFrom(address,address,uint256)":"23b872dd","unlockTitle(uint256)":"6f2e895c"}}}}}