{"contracts/revenue/RevenueDistribution.sol":{"RevenueDistribution":{"abi":[{"inputs":[{"internalType":"address","name":"admin","type":"address"},{"internalType":"address","name":"_propertyToken","type":"address"},{"internalType":"address","name":"_payoutToken","type":"address"}],"stateMutability":"nonpayable","type":"constructor"},{"anonymous":false,"inputs":[{"indexed":true,"internalType":"uint256","name":"propertyTokenId","type":"uint256"},{"indexed":false,"internalType":"uint256","name":"amount","type":"uint256"},{"indexed":true,"internalType":"address","name":"depositor","type":"address"}],"name":"RevenueDeposited","type":"event"},{"anonymous":false,"inputs":[{"indexed":true,"internalType":"uint256","name":"propertyTokenId","type":"uint256"},{"indexed":false,"internalType":"uint256","name":"totalAmount","type":"uint256"}],"name":"RevenueDistributed","type":"event"},{"anonymous":false,"inputs":[{"indexed":true,"internalType":"bytes32","name":"role","type":"bytes32"},{"indexed":true,"internalType":"bytes32","name":"previousAdminRole","type":"bytes32"},{"indexed":true,"internalType":"bytes32","name":"newAdminRole","type":"bytes32"}],"name":"RoleAdminChanged","type":"event"},{"anonymous":false,"inputs":[{"indexed":true,"internalType":"bytes32","name":"role","type":"bytes32"},{"indexed":true,"internalType":"address","name":"account","type":"address"},{"indexed":true,"internalType":"address","name":"sender","type":"address"}],"name":"RoleGranted","type":"event"},{"anonymous":false,"inputs":[{"indexed":true,"internalType":"bytes32","name":"role","type":"bytes32"},{"indexed":true,"internalType":"address","name":"account","type":"address"},{"indexed":true,"internalType":"address","name":"sender","type":"address"}],"name":"RoleRevoked","type":"event"},{"inputs":[],"name":"DEFAULT_ADMIN_ROLE","outputs":[{"internalType":"bytes32","name":"","type":"bytes32"}],"stateMutability":"view","type":"function"},{"inputs":[],"name":"ESCROW_ROLE","outputs":[{"internalType":"bytes32","name":"","type":"bytes32"}],"stateMutability":"view","type":"function"},{"inputs":[],"name":"GOVERNANCE_ROLE","outputs":[{"internalType":"bytes32","name":"","type":"bytes32"}],"stateMutability":"view","type":"function"},{"inputs":[],"name":"ISSUER_ROLE","outputs":[{"internalType":"bytes32","name":"","type":"bytes32"}],"stateMutability":"view","type":"function"},{"inputs":[],"name":"OPERATOR_ROLE","outputs":[{"internalType":"bytes32","name":"","type":"bytes32"}],"stateMutability":"view","type":"function"},{"inputs":[],"name":"ORACLE_ROLE","outputs":[{"internalType":"bytes32","name":"","type":"bytes32"}],"stateMutability":"view","type":"function"},{"inputs":[{"internalType":"uint256","name":"propertyTokenId","type":"uint256"},{"internalType":"uint256","name":"amount","type":"uint256"}],"name":"depositRevenue","outputs":[],"stateMutability":"payable","type":"function"},{"inputs":[{"internalType":"uint256","name":"propertyTokenId","type":"uint256"}],"name":"distribute","outputs":[],"stateMutability":"nonpayable","type":"function"},{"inputs":[{"internalType":"bytes32","name":"role","type":"bytes32"}],"name":"getRoleAdmin","outputs":[{"internalType":"bytes32","name":"","type":"bytes32"}],"stateMutability":"view","type":"function"},{"inputs":[{"internalType":"bytes32","name":"role","type":"bytes32"},{"internalType":"address","name":"account","type":"address"}],"name":"grantRole","outputs":[],"stateMutability":"nonpayable","type":"function"},{"inputs":[{"internalType":"bytes32","name":"role","type":"bytes32"},{"internalType":"address","name":"account","type":"address"}],"name":"hasRole","outputs":[{"internalType":"bool","name":"","type":"bool"}],"stateMutability":"view","type":"function"},{"inputs":[],"name":"payoutToken","outputs":[{"internalType":"address","name":"","type":"address"}],"stateMutability":"view","type":"function"},{"inputs":[],"name":"propertyToken","outputs":[{"internalType":"address","name":"","type":"address"}],"stateMutability":"view","type":"function"},{"inputs":[{"internalType":"bytes32","name":"role","type":"bytes32"},{"internalType":"address","name":"account","type":"address"}],"name":"renounceRole","outputs":[],"stateMutability":"nonpayable","type":"function"},{"inputs":[{"internalType":"bytes32","name":"role","type":"bytes32"},{"internalType":"address","name":"account","type":"address"}],"name":"revokeRole","outputs":[],"stateMutability":"nonpayable","type":"function"},{"inputs":[{"internalType":"bytes4","name":"interfaceId","type":"bytes4"}],"name":"supportsInterface","outputs":[{"internalType":"bool","name":"","type":"bool"}],"stateMutability":"view","type":"function"},{"stateMutability":"payable","type":"receive"}],"evm":{"bytecode":{"linkReferences":{},"object":"60c03461024757601f6113da38819003918201601f191683019291906001600160401b0384118385101761024c5781606092849260409687528339810103126102475761004b81610262565b9060206100648461005d838501610262565b9301610262565b60008080528083528581206001600160a01b03909516808252948352858120549194909160ff16156101fe575b50807f97667070c54ef182b0f5858b034beac1b6f3089aa2d3188bb1e8929f4fa9b929928382525260019181838782200181815491557fbd79b86ffe0ab8e8776151514217cd7cacd52c909f66475c3af44e129f0b00ff92838380a4817f2fdac322ee704ce09f0773f7f3f92eb98d5e7c836ee9c056cccd5f61041e5e3f8082528488832001908282549255838380a4817f68e79a7bf1e0bc45d0a330c573bc367f9cf464fd326078812f301165fbda4ef18082528488832001908282549255838380a4817f114e74f6ea3bd819998f78687bfcb11b140da08e9b7d222fa9c1f1ba1f2aa1228082528488832001908282549255838380a47f71840dc4906352362b0cdaf79870196c8e42acafade72d5d5a6d59291253ceb180835283878420019183835493558380a4805560805260a052516111639081610277823960805181818161025f01526107c8015260a0518181816103930152818161078401528181610999015261108d0152f35b8180528183528582208183528352858220805460ff191660011790553390827f2f8788117e7eff1d82e926ec794901d17c78024a50270940304540a733656f0d8180a438610091565b600080fd5b634e487b7160e01b600052604160045260246000fd5b51906001600160a01b03821682036102475756fe6080604081815260049182361015610022575b505050361561002057600080fd5b005b600092833560e01c91826301ffc9a714610b475750816307e2cea514610b0c5781630cae7afc14610947578163248a9ca31461091d5781632f2ff15d1461087f57816336568abe146107f757816343ae2695146107b35781634efa82b61461076f5781636ce76f301461073457816382aefa24146106f957816391c05b0b146101df5750806391d14854146101a6578063a217fddf1461018c578063d547741f14610159578063f36c8f5c1461011f5763f5b541a6146100e25780610012565b3461011b578160031936011261011b57602090517f97667070c54ef182b0f5858b034beac1b6f3089aa2d3188bb1e8929f4fa9b9298152f35b5080fd5b503461011b578160031936011261011b57602090517f71840dc4906352362b0cdaf79870196c8e42acafade72d5d5a6d59291253ceb18152f35b503461011b5760016101899161018461017136610b9a565b9390928387528660205286200154610bc5565b610f6b565b80f35b503461011b578160031936011261011b5751908152602090f35b503461011b5760ff816020936101bb36610b9a565b9082528186528282206001600160a01b039091168252855220549151911615158152f35b9050346106f5576020806003193601126106f15781359160019360028554146106b057600285557f97667070c54ef182b0f5858b034beac1b6f3089aa2d3188bb1e8929f4fa9b9298652858352808620338752835261024360ff8288205416611006565b8051636377aa8f60e11b81528281018590526001600160a01b037f000000000000000000000000000000000000000000000000000000000000000081169360249290919089818581895afa9586156106a65787908b928c98610586575b5090859187519283809263013f2dad60e41b82528d898301525afa90811561057c578b9161054b575b50801580610519576102d961108b565b9788156104e857918b99979593918d9b999795938c9d5b610326575b8c8c8c7ff2838e4b541f90d41a1076a560d75e948f7d1008e72118a655568626a30b451f8d8d8d51908152a2805580f35b8d845111156104e3576103398e82611077565b51808a02908a8204036104d157826104bf578e868f928690049182610382575b505050508d60001914610370579c8b019c8b6102f0565b634e487b7160e01b8d5260118652868dfd5b61038c9088611077565b5116898d8a7f00000000000000000000000000000000000000000000000000000000000000008b168e8161045557505050505082809281925af13d15610450573d67ffffffffffffffff811161043e578951908f906103f4601f8201601f19168f0184610f33565b82528c3d92013e5b1561040c575b8c8f8f8790610359565b875162461bcd60e51b81528087018b9052600d818901526c1491558e9210905497d1905253609a1b6044820152606490fd5b634e487b7160e01b8f5260418852888ffd5b6103fc565b956044949792939651978896879563a9059cbb60e01b87528601528401525af180156104b357610486575b50610402565b6104a5908b3d8d116104ac575b61049d8183610f33565b810190611047565b508e610480565b503d610493565b8e8a51903d90823e3d90fd5b634e487b7160e01b8e5260128752878efd5b634e487b7160e01b8e5260118752878efd5b6102f5565b875162461bcd60e51b81528087018b9052600c818901526b5245563a4e4f5f46554e445360a01b6044820152606490fd5b865162461bcd60e51b81528086018a9052600d818801526c5245563a4e4f5f53484152455360981b6044820152606490fd5b90508781813d8311610575575b6105628183610f33565b810103126105715751386102c9565b8a80fd5b503d610558565b86513d8d823e3d90fd5b92509650503d808b833e61059a8183610f33565b810190858183031261057157805167ffffffffffffffff908181116106815782019183601f84011215610681578251926105d38461105f565b936105e08a519586610f33565b8085528b8086019160051b830101918683116106a2578c01905b828210610685575050508981015191821161068157019180601f8401121561067d5782516106278161105f565b9361063489519586610f33565b8185528a8086019260051b82010192831161067957918793918b809401905b82821061066657505050929790916102a0565b815181528995508c949182019101610653565b8d80fd5b8b80fd5b8c80fd5b8151888116810361069d578152908c01908c016105fa565b508f80fd5b8f80fd5b85513d8c823e3d90fd5b91606492519162461bcd60e51b8352820152601f60248201527f5265656e7472616e637947756172643a207265656e7472616e742063616c6c006044820152fd5b8380fd5b8280fd5b50503461011b578160031936011261011b57602090517f114e74f6ea3bd819998f78687bfcb11b140da08e9b7d222fa9c1f1ba1f2aa1228152f35b50503461011b578160031936011261011b57602090517f2fdac322ee704ce09f0773f7f3f92eb98d5e7c836ee9c056cccd5f61041e5e3f8152f35b50503461011b578160031936011261011b57517f00000000000000000000000000000000000000000000000000000000000000006001600160a01b03168152602090f35b50503461011b578160031936011261011b57517f00000000000000000000000000000000000000000000000000000000000000006001600160a01b03168152602090f35b8391503461011b5761080836610b9a565b91336001600160a01b0384160361082457509061018991610f6b565b608490602086519162461bcd60e51b8352820152602f60248201527f416363657373436f6e74726f6c3a2063616e206f6e6c792072656e6f756e636560448201526e103937b632b9903337b91039b2b63360891b6064820152fd5b50503461011b5761088f36610b9a565b9091828452836020526108a760018286200154610bc5565b82845260208481528185206001600160a01b039093168086529290528084205460ff16156108d3578380f35b828452836020528084208285526020528320600160ff1982541617905533917f2f8788117e7eff1d82e926ec794901d17c78024a50270940304540a733656f0d8480a43880808380f35b9050346106f55760203660031901126106f557816020936001923581528085522001549051908152f35b8391508260031936011261011b576024357f97667070c54ef182b0f5858b034beac1b6f3089aa2d3188bb1e8929f4fa9b92983526020838152848420338552815261099760ff8686205416611006565b7f00000000000000000000000000000000000000000000000000000000000000006001600160a01b031680610a4757509091929382341480610a3e575b15610a0957907f7b7e4768e4ea555662a1f0ae63ea56391e03419109492d0b44735d40af3e591b915b5192835233933592a380f35b5162461bcd60e51b8152928301525060116024820152705245563a494e56414c49445f56414c554560781b6044820152606490fd5b508215156109d4565b34610ad2579481859660648351809881936323b872dd60e01b8352338a8401523060248401528860448401525af1948515610ac8577f7b7e4768e4ea555662a1f0ae63ea56391e03419109492d0b44735d40af3e591b939495610aab575b506109fd565b610ac190833d85116104ac5761049d8183610f33565b5086610aa5565b81513d88823e3d90fd5b855162461bcd60e51b815280850183905260146024820152731491558e9210905497d393d517d0531313d5d15160621b6044820152606490fd5b50503461011b578160031936011261011b57602090517f68e79a7bf1e0bc45d0a330c573bc367f9cf464fd326078812f301165fbda4ef18152f35b8491346106f55760203660031901126106f5573563ffffffff60e01b81168091036106f55760209250637965db0b60e01b8114908115610b89575b5015158152f35b6301ffc9a760e01b14905083610b82565b6040906003190112610bc057600435906024356001600160a01b0381168103610bc05790565b600080fd5b600090808252602090828252604090818420338552835260ff828520541615610bee5750505050565b81519367ffffffffffffffff336060870182811188821017610efc578552602a87528587019385368637875115610ee85760308553875191600192831015610ed457607860218a015360295b838111610e6a5750610e285790855192608084019084821090821117610e1457865260428352868301936060368637835115610e0057603085538351821015610e005790607860218501536041915b818311610d9257505050610d505792610d1e6048610d0f9794610d42946044989785519a8b93610ce68b86019a7f416363657373436f6e74726f6c3a206163636f756e74200000000000000000008c525180926037880190610f10565b8401917001034b99036b4b9b9b4b733903937b6329607d1b603784015251809386840190610f10565b01036028810189520187610f33565b5194859362461bcd60e51b8552600485015251809281602486015285850190610f10565b601f01601f19168101030190fd5b60648585519062461bcd60e51b825280600483015260248201527f537472696e67733a20686578206c656e67746820696e73756666696369656e746044820152fd5b909192600f81166010811015610dec576f181899199a1a9b1b9c1cb0b131b232b360811b901a610dc28587610fdf565b5360041c928015610dd857600019019190610c89565b634e487b7160e01b82526011600452602482fd5b634e487b7160e01b83526032600452602483fd5b634e487b7160e01b81526032600452602490fd5b634e487b7160e01b85526041600452602485fd5b60648787519062461bcd60e51b825280600483015260248201527f537472696e67733a20686578206c656e67746820696e73756666696369656e746044820152fd5b90600f81166010811015610ec0576f181899199a1a9b1b9c1cb0b131b232b360811b901a610e98838c610fdf565b5360041c908015610eac5760001901610c3a565b634e487b7160e01b86526011600452602486fd5b634e487b7160e01b87526032600452602487fd5b634e487b7160e01b85526032600452602485fd5b634e487b7160e01b84526032600452602484fd5b634e487b7160e01b84526041600452602484fd5b60005b838110610f235750506000910152565b8181015183820152602001610f13565b90601f8019910116810190811067ffffffffffffffff821117610f5557604052565b634e487b7160e01b600052604160045260246000fd5b9060009180835282602052604083209160018060a01b03169182845260205260ff604084205416610f9b57505050565b80835282602052604083208284526020526040832060ff1981541690557ff6391f5c32d9c69d2a47ea670b442974b53935d1edc7fd64eb21e047a839171b339380a4565b908151811015610ff0570160200190565b634e487b7160e01b600052603260045260246000fd5b1561100d57565b60405162461bcd60e51b8152602060048201526012602482015271524f4c453a4f50455241544f525f4f4e4c5960701b6044820152606490fd5b90816020910312610bc057518015158103610bc05790565b67ffffffffffffffff8111610f555760051b60200190565b8051821015610ff05760209160051b010190565b7f00000000000000000000000000000000000000000000000000000000000000006001600160a01b03168015611128576020602491604051928380926370a0823160e01b82523060048301525afa90811561111c576000916110eb575090565b906020823d8211611114575b8161110460209383610f33565b8101031261111157505190565b80fd5b3d91506110f7565b6040513d6000823e3d90fd5b50479056fea2646970667358221220821dff68371116bc9744d06e43b3717c92414dae806dbe1c7743eb9a5454537f64736f6c63430008140033","opcodes":"PUSH1 0xC0 CALLVALUE PUSH2 0x247 JUMPI PUSH1 0x1F PUSH2 0x13DA CODESIZE DUP2 SWAP1 SUB SWAP2 DUP3 ADD PUSH1 0x1F NOT AND DUP4 ADD SWAP3 SWAP2 SWAP1 PUSH1 0x1 PUSH1 0x1 PUSH1 0x40 SHL SUB DUP5 GT DUP4 DUP6 LT OR PUSH2 0x24C JUMPI DUP2 PUSH1 0x60 SWAP3 DUP5 SWAP3 PUSH1 0x40 SWAP7 DUP8 MSTORE DUP4 CODECOPY DUP2 ADD SUB SLT PUSH2 0x247 JUMPI PUSH2 0x4B DUP2 PUSH2 0x262 JUMP JUMPDEST SWAP1 PUSH1 0x20 PUSH2 0x64 DUP5 PUSH2 0x5D DUP4 DUP6 ADD PUSH2 0x262 JUMP JUMPDEST SWAP4 ADD PUSH2 0x262 JUMP JUMPDEST PUSH1 0x0 DUP1 DUP1 MSTORE DUP1 DUP4 MSTORE DUP6 DUP2 KECCAK256 PUSH1 0x1 PUSH1 0x1 PUSH1 0xA0 SHL SUB SWAP1 SWAP6 AND DUP1 DUP3 MSTORE SWAP5 DUP4 MSTORE DUP6 DUP2 KECCAK256 SLOAD SWAP2 SWAP5 SWAP1 SWAP2 PUSH1 0xFF AND ISZERO PUSH2 0x1FE JUMPI JUMPDEST POP DUP1 PUSH32 0x97667070C54EF182B0F5858B034BEAC1B6F3089AA2D3188BB1E8929F4FA9B929 SWAP3 DUP4 DUP3 MSTORE MSTORE PUSH1 0x1 SWAP2 DUP2 DUP4 DUP8 DUP3 KECCAK256 ADD DUP2 DUP2 SLOAD SWAP2 SSTORE PUSH32 0xBD79B86FFE0AB8E8776151514217CD7CACD52C909F66475C3AF44E129F0B00FF SWAP3 DUP4 DUP4 DUP1 LOG4 DUP2 PUSH32 0x2FDAC322EE704CE09F0773F7F3F92EB98D5E7C836EE9C056CCCD5F61041E5E3F DUP1 DUP3 MSTORE DUP5 DUP9 DUP4 KECCAK256 ADD SWAP1 DUP3 DUP3 SLOAD SWAP3 SSTORE DUP4 DUP4 DUP1 LOG4 DUP2 PUSH32 0x68E79A7BF1E0BC45D0A330C573BC367F9CF464FD326078812F301165FBDA4EF1 DUP1 DUP3 MSTORE DUP5 DUP9 DUP4 KECCAK256 ADD SWAP1 DUP3 DUP3 SLOAD SWAP3 SSTORE DUP4 DUP4 DUP1 LOG4 DUP2 PUSH32 0x114E74F6EA3BD819998F78687BFCB11B140DA08E9B7D222FA9C1F1BA1F2AA122 DUP1 DUP3 MSTORE DUP5 DUP9 DUP4 KECCAK256 ADD SWAP1 DUP3 DUP3 SLOAD SWAP3 SSTORE DUP4 DUP4 DUP1 LOG4 PUSH32 0x71840DC4906352362B0CDAF79870196C8E42ACAFADE72D5D5A6D59291253CEB1 DUP1 DUP4 MSTORE DUP4 DUP8 DUP5 KECCAK256 ADD SWAP2 DUP4 DUP4 SLOAD SWAP4 SSTORE DUP4 DUP1 LOG4 DUP1 SSTORE PUSH1 0x80 MSTORE PUSH1 0xA0 MSTORE MLOAD PUSH2 0x1163 SWAP1 DUP2 PUSH2 0x277 DUP3 CODECOPY PUSH1 0x80 MLOAD DUP2 DUP2 DUP2 PUSH2 0x25F ADD MSTORE PUSH2 0x7C8 ADD MSTORE PUSH1 0xA0 MLOAD DUP2 DUP2 DUP2 PUSH2 0x393 ADD MSTORE DUP2 DUP2 PUSH2 0x784 ADD MSTORE DUP2 DUP2 PUSH2 0x999 ADD MSTORE PUSH2 0x108D ADD MSTORE RETURN JUMPDEST DUP2 DUP1 MSTORE DUP2 DUP4 MSTORE DUP6 DUP3 KECCAK256 DUP2 DUP4 MSTORE DUP4 MSTORE DUP6 DUP3 KECCAK256 DUP1 SLOAD PUSH1 0xFF NOT AND PUSH1 0x1 OR SWAP1 SSTORE CALLER SWAP1 DUP3 PUSH32 0x2F8788117E7EFF1D82E926EC794901D17C78024A50270940304540A733656F0D DUP2 DUP1 LOG4 CODESIZE PUSH2 0x91 JUMP JUMPDEST PUSH1 0x0 DUP1 REVERT JUMPDEST PUSH4 0x4E487B71 PUSH1 0xE0 SHL PUSH1 0x0 MSTORE PUSH1 0x41 PUSH1 0x4 MSTORE PUSH1 0x24 PUSH1 0x0 REVERT JUMPDEST MLOAD SWAP1 PUSH1 0x1 PUSH1 0x1 PUSH1 0xA0 SHL SUB DUP3 AND DUP3 SUB PUSH2 0x247 JUMPI JUMP INVALID PUSH1 0x80 PUSH1 0x40 DUP2 DUP2 MSTORE PUSH1 0x4 SWAP2 DUP3 CALLDATASIZE LT ISZERO PUSH2 0x22 JUMPI JUMPDEST POP POP POP CALLDATASIZE ISZERO PUSH2 0x20 JUMPI PUSH1 0x0 DUP1 REVERT JUMPDEST STOP JUMPDEST PUSH1 0x0 SWAP3 DUP4 CALLDATALOAD PUSH1 0xE0 SHR SWAP2 DUP3 PUSH4 0x1FFC9A7 EQ PUSH2 0xB47 JUMPI POP DUP2 PUSH4 0x7E2CEA5 EQ PUSH2 0xB0C JUMPI DUP2 PUSH4 0xCAE7AFC EQ PUSH2 0x947 JUMPI DUP2 PUSH4 0x248A9CA3 EQ PUSH2 0x91D JUMPI DUP2 PUSH4 0x2F2FF15D EQ PUSH2 0x87F JUMPI DUP2 PUSH4 0x36568ABE EQ PUSH2 0x7F7 JUMPI DUP2 PUSH4 0x43AE2695 EQ PUSH2 0x7B3 JUMPI DUP2 PUSH4 0x4EFA82B6 EQ PUSH2 0x76F JUMPI DUP2 PUSH4 0x6CE76F30 EQ PUSH2 0x734 JUMPI DUP2 PUSH4 0x82AEFA24 EQ PUSH2 0x6F9 JUMPI DUP2 PUSH4 0x91C05B0B EQ PUSH2 0x1DF JUMPI POP DUP1 PUSH4 0x91D14854 EQ PUSH2 0x1A6 JUMPI DUP1 PUSH4 0xA217FDDF EQ PUSH2 0x18C JUMPI DUP1 PUSH4 0xD547741F EQ PUSH2 0x159 JUMPI DUP1 PUSH4 0xF36C8F5C EQ PUSH2 0x11F JUMPI PUSH4 0xF5B541A6 EQ PUSH2 0xE2 JUMPI DUP1 PUSH2 0x12 JUMP JUMPDEST CALLVALUE PUSH2 0x11B JUMPI DUP2 PUSH1 0x3 NOT CALLDATASIZE ADD SLT PUSH2 0x11B JUMPI PUSH1 0x20 SWAP1 MLOAD PUSH32 0x97667070C54EF182B0F5858B034BEAC1B6F3089AA2D3188BB1E8929F4FA9B929 DUP2 MSTORE RETURN JUMPDEST POP DUP1 REVERT JUMPDEST POP CALLVALUE PUSH2 0x11B JUMPI DUP2 PUSH1 0x3 NOT CALLDATASIZE ADD SLT PUSH2 0x11B JUMPI PUSH1 0x20 SWAP1 MLOAD PUSH32 0x71840DC4906352362B0CDAF79870196C8E42ACAFADE72D5D5A6D59291253CEB1 DUP2 MSTORE RETURN JUMPDEST POP CALLVALUE PUSH2 0x11B JUMPI PUSH1 0x1 PUSH2 0x189 SWAP2 PUSH2 0x184 PUSH2 0x171 CALLDATASIZE PUSH2 0xB9A JUMP JUMPDEST SWAP4 SWAP1 SWAP3 DUP4 DUP8 MSTORE DUP7 PUSH1 0x20 MSTORE DUP7 KECCAK256 ADD SLOAD PUSH2 0xBC5 JUMP JUMPDEST PUSH2 0xF6B JUMP JUMPDEST DUP1 RETURN JUMPDEST POP CALLVALUE PUSH2 0x11B JUMPI DUP2 PUSH1 0x3 NOT CALLDATASIZE ADD SLT PUSH2 0x11B JUMPI MLOAD SWAP1 DUP2 MSTORE PUSH1 0x20 SWAP1 RETURN JUMPDEST POP CALLVALUE PUSH2 0x11B JUMPI PUSH1 0xFF DUP2 PUSH1 0x20 SWAP4 PUSH2 0x1BB CALLDATASIZE PUSH2 0xB9A JUMP JUMPDEST SWAP1 DUP3 MSTORE DUP2 DUP7 MSTORE DUP3 DUP3 KECCAK256 PUSH1 0x1 PUSH1 0x1 PUSH1 0xA0 SHL SUB SWAP1 SWAP2 AND DUP3 MSTORE DUP6 MSTORE KECCAK256 SLOAD SWAP2 MLOAD SWAP2 AND ISZERO ISZERO DUP2 MSTORE RETURN JUMPDEST SWAP1 POP CALLVALUE PUSH2 0x6F5 JUMPI PUSH1 0x20 DUP1 PUSH1 0x3 NOT CALLDATASIZE ADD SLT PUSH2 0x6F1 JUMPI DUP2 CALLDATALOAD SWAP2 PUSH1 0x1 SWAP4 PUSH1 0x2 DUP6 SLOAD EQ PUSH2 0x6B0 JUMPI PUSH1 0x2 DUP6 SSTORE PUSH32 0x97667070C54EF182B0F5858B034BEAC1B6F3089AA2D3188BB1E8929F4FA9B929 DUP7 MSTORE DUP6 DUP4 MSTORE DUP1 DUP7 KECCAK256 CALLER DUP8 MSTORE DUP4 MSTORE PUSH2 0x243 PUSH1 0xFF DUP3 DUP9 KECCAK256 SLOAD AND PUSH2 0x1006 JUMP JUMPDEST DUP1 MLOAD PUSH4 0x6377AA8F PUSH1 0xE1 SHL DUP2 MSTORE DUP3 DUP2 ADD DUP6 SWAP1 MSTORE PUSH1 0x1 PUSH1 0x1 PUSH1 0xA0 SHL SUB PUSH32 0x0 DUP2 AND SWAP4 PUSH1 0x24 SWAP3 SWAP1 SWAP2 SWAP1 DUP10 DUP2 DUP6 DUP2 DUP10 GAS STATICCALL SWAP6 DUP7 ISZERO PUSH2 0x6A6 JUMPI DUP8 SWAP1 DUP12 SWAP3 DUP13 SWAP9 PUSH2 0x586 JUMPI JUMPDEST POP SWAP1 DUP6 SWAP2 DUP8 MLOAD SWAP3 DUP4 DUP1 SWAP3 PUSH4 0x13F2DAD PUSH1 0xE4 SHL DUP3 MSTORE DUP14 DUP10 DUP4 ADD MSTORE GAS STATICCALL SWAP1 DUP2 ISZERO PUSH2 0x57C JUMPI DUP12 SWAP2 PUSH2 0x54B JUMPI JUMPDEST POP DUP1 ISZERO DUP1 PUSH2 0x519 JUMPI PUSH2 0x2D9 PUSH2 0x108B JUMP JUMPDEST SWAP8 DUP9 ISZERO PUSH2 0x4E8 JUMPI SWAP2 DUP12 SWAP10 SWAP8 SWAP6 SWAP4 SWAP2 DUP14 SWAP12 SWAP10 SWAP8 SWAP6 SWAP4 DUP13 SWAP14 JUMPDEST PUSH2 0x326 JUMPI JUMPDEST DUP13 DUP13 DUP13 PUSH32 0xF2838E4B541F90D41A1076A560D75E948F7D1008E72118A655568626A30B451F DUP14 DUP14 DUP14 MLOAD SWAP1 DUP2 MSTORE LOG2 DUP1 SSTORE DUP1 RETURN JUMPDEST DUP14 DUP5 MLOAD GT ISZERO PUSH2 0x4E3 JUMPI PUSH2 0x339 DUP15 DUP3 PUSH2 0x1077 JUMP JUMPDEST MLOAD DUP1 DUP11 MUL SWAP1 DUP11 DUP3 DIV SUB PUSH2 0x4D1 JUMPI DUP3 PUSH2 0x4BF JUMPI DUP15 DUP7 DUP16 SWAP3 DUP7 SWAP1 DIV SWAP2 DUP3 PUSH2 0x382 JUMPI JUMPDEST POP POP POP POP DUP14 PUSH1 0x0 NOT EQ PUSH2 0x370 JUMPI SWAP13 DUP12 ADD SWAP13 DUP12 PUSH2 0x2F0 JUMP JUMPDEST PUSH4 0x4E487B71 PUSH1 0xE0 SHL DUP14 MSTORE PUSH1 0x11 DUP7 MSTORE DUP7 DUP14 REVERT JUMPDEST PUSH2 0x38C SWAP1 DUP9 PUSH2 0x1077 JUMP JUMPDEST MLOAD AND DUP10 DUP14 DUP11 PUSH32 0x0 DUP12 AND DUP15 DUP2 PUSH2 0x455 JUMPI POP POP POP POP POP DUP3 DUP1 SWAP3 DUP2 SWAP3 GAS CALL RETURNDATASIZE ISZERO PUSH2 0x450 JUMPI RETURNDATASIZE PUSH8 0xFFFFFFFFFFFFFFFF DUP2 GT PUSH2 0x43E JUMPI DUP10 MLOAD SWAP1 DUP16 SWAP1 PUSH2 0x3F4 PUSH1 0x1F DUP3 ADD PUSH1 0x1F NOT AND DUP16 ADD DUP5 PUSH2 0xF33 JUMP JUMPDEST DUP3 MSTORE DUP13 RETURNDATASIZE SWAP3 ADD RETURNDATACOPY JUMPDEST ISZERO PUSH2 0x40C JUMPI JUMPDEST DUP13 DUP16 DUP16 DUP8 SWAP1 PUSH2 0x359 JUMP JUMPDEST DUP8 MLOAD PUSH3 0x461BCD PUSH1 0xE5 SHL DUP2 MSTORE DUP1 DUP8 ADD DUP12 SWAP1 MSTORE PUSH1 0xD DUP2 DUP10 ADD MSTORE PUSH13 0x1491558E9210905497D1905253 PUSH1 0x9A SHL PUSH1 0x44 DUP3 ADD MSTORE PUSH1 0x64 SWAP1 REVERT JUMPDEST PUSH4 0x4E487B71 PUSH1 0xE0 SHL DUP16 MSTORE PUSH1 0x41 DUP9 MSTORE DUP9 DUP16 REVERT JUMPDEST PUSH2 0x3FC JUMP JUMPDEST SWAP6 PUSH1 0x44 SWAP5 SWAP8 SWAP3 SWAP4 SWAP7 MLOAD SWAP8 DUP9 SWAP7 DUP8 SWAP6 PUSH4 0xA9059CBB PUSH1 0xE0 SHL DUP8 MSTORE DUP7 ADD MSTORE DUP5 ADD MSTORE GAS CALL DUP1 ISZERO PUSH2 0x4B3 JUMPI PUSH2 0x486 JUMPI JUMPDEST POP PUSH2 0x402 JUMP JUMPDEST PUSH2 0x4A5 SWAP1 DUP12 RETURNDATASIZE DUP14 GT PUSH2 0x4AC JUMPI JUMPDEST PUSH2 0x49D DUP2 DUP4 PUSH2 0xF33 JUMP JUMPDEST DUP2 ADD SWAP1 PUSH2 0x1047 JUMP JUMPDEST POP DUP15 PUSH2 0x480 JUMP JUMPDEST POP RETURNDATASIZE PUSH2 0x493 JUMP JUMPDEST DUP15 DUP11 MLOAD SWAP1 RETURNDATASIZE SWAP1 DUP3 RETURNDATACOPY RETURNDATASIZE SWAP1 REVERT JUMPDEST PUSH4 0x4E487B71 PUSH1 0xE0 SHL DUP15 MSTORE PUSH1 0x12 DUP8 MSTORE DUP8 DUP15 REVERT JUMPDEST PUSH4 0x4E487B71 PUSH1 0xE0 SHL DUP15 MSTORE PUSH1 0x11 DUP8 MSTORE DUP8 DUP15 REVERT JUMPDEST PUSH2 0x2F5 JUMP JUMPDEST DUP8 MLOAD PUSH3 0x461BCD PUSH1 0xE5 SHL DUP2 MSTORE DUP1 DUP8 ADD DUP12 SWAP1 MSTORE PUSH1 0xC DUP2 DUP10 ADD MSTORE PUSH12 0x5245563A4E4F5F46554E4453 PUSH1 0xA0 SHL PUSH1 0x44 DUP3 ADD MSTORE PUSH1 0x64 SWAP1 REVERT JUMPDEST DUP7 MLOAD PUSH3 0x461BCD PUSH1 0xE5 SHL DUP2 MSTORE DUP1 DUP7 ADD DUP11 SWAP1 MSTORE PUSH1 0xD DUP2 DUP9 ADD MSTORE PUSH13 0x5245563A4E4F5F534841524553 PUSH1 0x98 SHL PUSH1 0x44 DUP3 ADD MSTORE PUSH1 0x64 SWAP1 REVERT JUMPDEST SWAP1 POP DUP8 DUP2 DUP2 RETURNDATASIZE DUP4 GT PUSH2 0x575 JUMPI JUMPDEST PUSH2 0x562 DUP2 DUP4 PUSH2 0xF33 JUMP JUMPDEST DUP2 ADD SUB SLT PUSH2 0x571 JUMPI MLOAD CODESIZE PUSH2 0x2C9 JUMP JUMPDEST DUP11 DUP1 REVERT JUMPDEST POP RETURNDATASIZE PUSH2 0x558 JUMP JUMPDEST DUP7 MLOAD RETURNDATASIZE DUP14 DUP3 RETURNDATACOPY RETURNDATASIZE SWAP1 REVERT JUMPDEST SWAP3 POP SWAP7 POP POP RETURNDATASIZE DUP1 DUP12 DUP4 RETURNDATACOPY PUSH2 0x59A DUP2 DUP4 PUSH2 0xF33 JUMP JUMPDEST DUP2 ADD SWAP1 DUP6 DUP2 DUP4 SUB SLT PUSH2 0x571 JUMPI DUP1 MLOAD PUSH8 0xFFFFFFFFFFFFFFFF SWAP1 DUP2 DUP2 GT PUSH2 0x681 JUMPI DUP3 ADD SWAP2 DUP4 PUSH1 0x1F DUP5 ADD SLT ISZERO PUSH2 0x681 JUMPI DUP3 MLOAD SWAP3 PUSH2 0x5D3 DUP5 PUSH2 0x105F JUMP JUMPDEST SWAP4 PUSH2 0x5E0 DUP11 MLOAD SWAP6 DUP7 PUSH2 0xF33 JUMP JUMPDEST DUP1 DUP6 MSTORE DUP12 DUP1 DUP7 ADD SWAP2 PUSH1 0x5 SHL DUP4 ADD ADD SWAP2 DUP7 DUP4 GT PUSH2 0x6A2 JUMPI DUP13 ADD SWAP1 JUMPDEST DUP3 DUP3 LT PUSH2 0x685 JUMPI POP POP POP DUP10 DUP2 ADD MLOAD SWAP2 DUP3 GT PUSH2 0x681 JUMPI ADD SWAP2 DUP1 PUSH1 0x1F DUP5 ADD SLT ISZERO PUSH2 0x67D JUMPI DUP3 MLOAD PUSH2 0x627 DUP2 PUSH2 0x105F JUMP JUMPDEST SWAP4 PUSH2 0x634 DUP10 MLOAD SWAP6 DUP7 PUSH2 0xF33 JUMP JUMPDEST DUP2 DUP6 MSTORE DUP11 DUP1 DUP7 ADD SWAP3 PUSH1 0x5 SHL DUP3 ADD ADD SWAP3 DUP4 GT PUSH2 0x679 JUMPI SWAP2 DUP8 SWAP4 SWAP2 DUP12 DUP1 SWAP5 ADD SWAP1 JUMPDEST DUP3 DUP3 LT PUSH2 0x666 JUMPI POP POP POP SWAP3 SWAP8 SWAP1 SWAP2 PUSH2 0x2A0 JUMP JUMPDEST DUP2 MLOAD DUP2 MSTORE DUP10 SWAP6 POP DUP13 SWAP5 SWAP2 DUP3 ADD SWAP2 ADD PUSH2 0x653 JUMP JUMPDEST DUP14 DUP1 REVERT JUMPDEST DUP12 DUP1 REVERT JUMPDEST DUP13 DUP1 REVERT JUMPDEST DUP2 MLOAD DUP9 DUP2 AND DUP2 SUB PUSH2 0x69D JUMPI DUP2 MSTORE SWAP1 DUP13 ADD SWAP1 DUP13 ADD PUSH2 0x5FA JUMP JUMPDEST POP DUP16 DUP1 REVERT JUMPDEST DUP16 DUP1 REVERT JUMPDEST DUP6 MLOAD RETURNDATASIZE DUP13 DUP3 RETURNDATACOPY RETURNDATASIZE SWAP1 REVERT JUMPDEST SWAP2 PUSH1 0x64 SWAP3 MLOAD SWAP2 PUSH3 0x461BCD PUSH1 0xE5 SHL DUP4 MSTORE DUP3 ADD MSTORE PUSH1 0x1F PUSH1 0x24 DUP3 ADD MSTORE PUSH32 0x5265656E7472616E637947756172643A207265656E7472616E742063616C6C00 PUSH1 0x44 DUP3 ADD MSTORE REVERT JUMPDEST DUP4 DUP1 REVERT JUMPDEST DUP3 DUP1 REVERT JUMPDEST POP POP CALLVALUE PUSH2 0x11B JUMPI DUP2 PUSH1 0x3 NOT CALLDATASIZE ADD SLT PUSH2 0x11B JUMPI PUSH1 0x20 SWAP1 MLOAD PUSH32 0x114E74F6EA3BD819998F78687BFCB11B140DA08E9B7D222FA9C1F1BA1F2AA122 DUP2 MSTORE RETURN JUMPDEST POP POP CALLVALUE PUSH2 0x11B JUMPI DUP2 PUSH1 0x3 NOT CALLDATASIZE ADD SLT PUSH2 0x11B JUMPI PUSH1 0x20 SWAP1 MLOAD PUSH32 0x2FDAC322EE704CE09F0773F7F3F92EB98D5E7C836EE9C056CCCD5F61041E5E3F DUP2 MSTORE RETURN JUMPDEST POP POP CALLVALUE PUSH2 0x11B JUMPI DUP2 PUSH1 0x3 NOT CALLDATASIZE ADD SLT PUSH2 0x11B JUMPI MLOAD PUSH32 0x0 PUSH1 0x1 PUSH1 0x1 PUSH1 0xA0 SHL SUB AND DUP2 MSTORE PUSH1 0x20 SWAP1 RETURN JUMPDEST POP POP CALLVALUE PUSH2 0x11B JUMPI DUP2 PUSH1 0x3 NOT CALLDATASIZE ADD SLT PUSH2 0x11B JUMPI MLOAD PUSH32 0x0 PUSH1 0x1 PUSH1 0x1 PUSH1 0xA0 SHL SUB AND DUP2 MSTORE PUSH1 0x20 SWAP1 RETURN JUMPDEST DUP4 SWAP2 POP CALLVALUE PUSH2 0x11B JUMPI PUSH2 0x808 CALLDATASIZE PUSH2 0xB9A JUMP JUMPDEST SWAP2 CALLER PUSH1 0x1 PUSH1 0x1 PUSH1 0xA0 SHL SUB DUP5 AND SUB PUSH2 0x824 JUMPI POP SWAP1 PUSH2 0x189 SWAP2 PUSH2 0xF6B JUMP JUMPDEST PUSH1 0x84 SWAP1 PUSH1 0x20 DUP7 MLOAD SWAP2 PUSH3 0x461BCD PUSH1 0xE5 SHL DUP4 MSTORE DUP3 ADD MSTORE PUSH1 0x2F PUSH1 0x24 DUP3 ADD MSTORE PUSH32 0x416363657373436F6E74726F6C3A2063616E206F6E6C792072656E6F756E6365 PUSH1 0x44 DUP3 ADD MSTORE PUSH15 0x103937B632B9903337B91039B2B633 PUSH1 0x89 SHL PUSH1 0x64 DUP3 ADD MSTORE REVERT JUMPDEST POP POP CALLVALUE PUSH2 0x11B JUMPI PUSH2 0x88F CALLDATASIZE PUSH2 0xB9A JUMP JUMPDEST SWAP1 SWAP2 DUP3 DUP5 MSTORE DUP4 PUSH1 0x20 MSTORE PUSH2 0x8A7 PUSH1 0x1 DUP3 DUP7 KECCAK256 ADD SLOAD PUSH2 0xBC5 JUMP JUMPDEST DUP3 DUP5 MSTORE PUSH1 0x20 DUP5 DUP2 MSTORE DUP2 DUP6 KECCAK256 PUSH1 0x1 PUSH1 0x1 PUSH1 0xA0 SHL SUB SWAP1 SWAP4 AND DUP1 DUP7 MSTORE SWAP3 SWAP1 MSTORE DUP1 DUP5 KECCAK256 SLOAD PUSH1 0xFF AND ISZERO PUSH2 0x8D3 JUMPI DUP4 DUP1 RETURN JUMPDEST DUP3 DUP5 MSTORE DUP4 PUSH1 0x20 MSTORE DUP1 DUP5 KECCAK256 DUP3 DUP6 MSTORE PUSH1 0x20 MSTORE DUP4 KECCAK256 PUSH1 0x1 PUSH1 0xFF NOT DUP3 SLOAD AND OR SWAP1 SSTORE CALLER SWAP2 PUSH32 0x2F8788117E7EFF1D82E926EC794901D17C78024A50270940304540A733656F0D DUP5 DUP1 LOG4 CODESIZE DUP1 DUP1 DUP4 DUP1 RETURN JUMPDEST SWAP1 POP CALLVALUE PUSH2 0x6F5 JUMPI PUSH1 0x20 CALLDATASIZE PUSH1 0x3 NOT ADD SLT PUSH2 0x6F5 JUMPI DUP2 PUSH1 0x20 SWAP4 PUSH1 0x1 SWAP3 CALLDATALOAD DUP2 MSTORE DUP1 DUP6 MSTORE KECCAK256 ADD SLOAD SWAP1 MLOAD SWAP1 DUP2 MSTORE RETURN JUMPDEST DUP4 SWAP2 POP DUP3 PUSH1 0x3 NOT CALLDATASIZE ADD SLT PUSH2 0x11B JUMPI PUSH1 0x24 CALLDATALOAD PUSH32 0x97667070C54EF182B0F5858B034BEAC1B6F3089AA2D3188BB1E8929F4FA9B929 DUP4 MSTORE PUSH1 0x20 DUP4 DUP2 MSTORE DUP5 DUP5 KECCAK256 CALLER DUP6 MSTORE DUP2 MSTORE PUSH2 0x997 PUSH1 0xFF DUP7 DUP7 KECCAK256 SLOAD AND PUSH2 0x1006 JUMP JUMPDEST PUSH32 0x0 PUSH1 0x1 PUSH1 0x1 PUSH1 0xA0 SHL SUB AND DUP1 PUSH2 0xA47 JUMPI POP SWAP1 SWAP2 SWAP3 SWAP4 DUP3 CALLVALUE EQ DUP1 PUSH2 0xA3E JUMPI JUMPDEST ISZERO PUSH2 0xA09 JUMPI SWAP1 PUSH32 0x7B7E4768E4EA555662A1F0AE63EA56391E03419109492D0B44735D40AF3E591B SWAP2 JUMPDEST MLOAD SWAP3 DUP4 MSTORE CALLER SWAP4 CALLDATALOAD SWAP3 LOG3 DUP1 RETURN JUMPDEST MLOAD PUSH3 0x461BCD PUSH1 0xE5 SHL DUP2 MSTORE SWAP3 DUP4 ADD MSTORE POP PUSH1 0x11 PUSH1 0x24 DUP3 ADD MSTORE PUSH17 0x5245563A494E56414C49445F56414C5545 PUSH1 0x78 SHL PUSH1 0x44 DUP3 ADD MSTORE PUSH1 0x64 SWAP1 REVERT JUMPDEST POP DUP3 ISZERO ISZERO PUSH2 0x9D4 JUMP JUMPDEST CALLVALUE PUSH2 0xAD2 JUMPI SWAP5 DUP2 DUP6 SWAP7 PUSH1 0x64 DUP4 MLOAD DUP1 SWAP9 DUP2 SWAP4 PUSH4 0x23B872DD PUSH1 0xE0 SHL DUP4 MSTORE CALLER DUP11 DUP5 ADD MSTORE ADDRESS PUSH1 0x24 DUP5 ADD MSTORE DUP9 PUSH1 0x44 DUP5 ADD MSTORE GAS CALL SWAP5 DUP6 ISZERO PUSH2 0xAC8 JUMPI PUSH32 0x7B7E4768E4EA555662A1F0AE63EA56391E03419109492D0B44735D40AF3E591B SWAP4 SWAP5 SWAP6 PUSH2 0xAAB JUMPI JUMPDEST POP PUSH2 0x9FD JUMP JUMPDEST PUSH2 0xAC1 SWAP1 DUP4 RETURNDATASIZE DUP6 GT PUSH2 0x4AC JUMPI PUSH2 0x49D DUP2 DUP4 PUSH2 0xF33 JUMP JUMPDEST POP DUP7 PUSH2 0xAA5 JUMP JUMPDEST DUP2 MLOAD RETURNDATASIZE DUP9 DUP3 RETURNDATACOPY RETURNDATASIZE SWAP1 REVERT JUMPDEST DUP6 MLOAD PUSH3 0x461BCD PUSH1 0xE5 SHL DUP2 MSTORE DUP1 DUP6 ADD DUP4 SWAP1 MSTORE PUSH1 0x14 PUSH1 0x24 DUP3 ADD MSTORE PUSH20 0x1491558E9210905497D393D517D0531313D5D151 PUSH1 0x62 SHL PUSH1 0x44 DUP3 ADD MSTORE PUSH1 0x64 SWAP1 REVERT JUMPDEST POP POP CALLVALUE PUSH2 0x11B JUMPI DUP2 PUSH1 0x3 NOT CALLDATASIZE ADD SLT PUSH2 0x11B JUMPI PUSH1 0x20 SWAP1 MLOAD PUSH32 0x68E79A7BF1E0BC45D0A330C573BC367F9CF464FD326078812F301165FBDA4EF1 DUP2 MSTORE RETURN JUMPDEST DUP5 SWAP2 CALLVALUE PUSH2 0x6F5 JUMPI PUSH1 0x20 CALLDATASIZE PUSH1 0x3 NOT ADD SLT PUSH2 0x6F5 JUMPI CALLDATALOAD PUSH4 0xFFFFFFFF PUSH1 0xE0 SHL DUP2 AND DUP1 SWAP2 SUB PUSH2 0x6F5 JUMPI PUSH1 0x20 SWAP3 POP PUSH4 0x7965DB0B PUSH1 0xE0 SHL DUP2 EQ SWAP1 DUP2 ISZERO PUSH2 0xB89 JUMPI JUMPDEST POP ISZERO ISZERO DUP2 MSTORE RETURN JUMPDEST PUSH4 0x1FFC9A7 PUSH1 0xE0 SHL EQ SWAP1 POP DUP4 PUSH2 0xB82 JUMP JUMPDEST PUSH1 0x40 SWAP1 PUSH1 0x3 NOT ADD SLT PUSH2 0xBC0 JUMPI PUSH1 0x4 CALLDATALOAD SWAP1 PUSH1 0x24 CALLDATALOAD PUSH1 0x1 PUSH1 0x1 PUSH1 0xA0 SHL SUB DUP2 AND DUP2 SUB PUSH2 0xBC0 JUMPI SWAP1 JUMP JUMPDEST PUSH1 0x0 DUP1 REVERT JUMPDEST PUSH1 0x0 SWAP1 DUP1 DUP3 MSTORE PUSH1 0x20 SWAP1 DUP3 DUP3 MSTORE PUSH1 0x40 SWAP1 DUP2 DUP5 KECCAK256 CALLER DUP6 MSTORE DUP4 MSTORE PUSH1 0xFF DUP3 DUP6 KECCAK256 SLOAD AND ISZERO PUSH2 0xBEE JUMPI POP POP POP POP JUMP JUMPDEST DUP2 MLOAD SWAP4 PUSH8 0xFFFFFFFFFFFFFFFF CALLER PUSH1 0x60 DUP8 ADD DUP3 DUP2 GT DUP9 DUP3 LT OR PUSH2 0xEFC JUMPI DUP6 MSTORE PUSH1 0x2A DUP8 MSTORE DUP6 DUP8 ADD SWAP4 DUP6 CALLDATASIZE DUP7 CALLDATACOPY DUP8 MLOAD ISZERO PUSH2 0xEE8 JUMPI PUSH1 0x30 DUP6 MSTORE8 DUP8 MLOAD SWAP2 PUSH1 0x1 SWAP3 DUP4 LT ISZERO PUSH2 0xED4 JUMPI PUSH1 0x78 PUSH1 0x21 DUP11 ADD MSTORE8 PUSH1 0x29 JUMPDEST DUP4 DUP2 GT PUSH2 0xE6A JUMPI POP PUSH2 0xE28 JUMPI SWAP1 DUP6 MLOAD SWAP3 PUSH1 0x80 DUP5 ADD SWAP1 DUP5 DUP3 LT SWAP1 DUP3 GT OR PUSH2 0xE14 JUMPI DUP7 MSTORE PUSH1 0x42 DUP4 MSTORE DUP7 DUP4 ADD SWAP4 PUSH1 0x60 CALLDATASIZE DUP7 CALLDATACOPY DUP4 MLOAD ISZERO PUSH2 0xE00 JUMPI PUSH1 0x30 DUP6 MSTORE8 DUP4 MLOAD DUP3 LT ISZERO PUSH2 0xE00 JUMPI SWAP1 PUSH1 0x78 PUSH1 0x21 DUP6 ADD MSTORE8 PUSH1 0x41 SWAP2 JUMPDEST DUP2 DUP4 GT PUSH2 0xD92 JUMPI POP POP POP PUSH2 0xD50 JUMPI SWAP3 PUSH2 0xD1E PUSH1 0x48 PUSH2 0xD0F SWAP8 SWAP5 PUSH2 0xD42 SWAP5 PUSH1 0x44 SWAP9 SWAP8 DUP6 MLOAD SWAP11 DUP12 SWAP4 PUSH2 0xCE6 DUP12 DUP7 ADD SWAP11 PUSH32 0x416363657373436F6E74726F6C3A206163636F756E7420000000000000000000 DUP13 MSTORE MLOAD DUP1 SWAP3 PUSH1 0x37 DUP9 ADD SWAP1 PUSH2 0xF10 JUMP JUMPDEST DUP5 ADD SWAP2 PUSH17 0x1034B99036B4B9B9B4B733903937B6329 PUSH1 0x7D SHL PUSH1 0x37 DUP5 ADD MSTORE MLOAD DUP1 SWAP4 DUP7 DUP5 ADD SWAP1 PUSH2 0xF10 JUMP JUMPDEST ADD SUB PUSH1 0x28 DUP2 ADD DUP10 MSTORE ADD DUP8 PUSH2 0xF33 JUMP JUMPDEST MLOAD SWAP5 DUP6 SWAP4 PUSH3 0x461BCD PUSH1 0xE5 SHL DUP6 MSTORE PUSH1 0x4 DUP6 ADD MSTORE MLOAD DUP1 SWAP3 DUP2 PUSH1 0x24 DUP7 ADD MSTORE DUP6 DUP6 ADD SWAP1 PUSH2 0xF10 JUMP JUMPDEST PUSH1 0x1F ADD PUSH1 0x1F NOT AND DUP2 ADD SUB ADD SWAP1 REVERT JUMPDEST PUSH1 0x64 DUP6 DUP6 MLOAD SWAP1 PUSH3 0x461BCD PUSH1 0xE5 SHL DUP3 MSTORE DUP1 PUSH1 0x4 DUP4 ADD MSTORE PUSH1 0x24 DUP3 ADD MSTORE PUSH32 0x537472696E67733A20686578206C656E67746820696E73756666696369656E74 PUSH1 0x44 DUP3 ADD MSTORE REVERT JUMPDEST SWAP1 SWAP2 SWAP3 PUSH1 0xF DUP2 AND PUSH1 0x10 DUP2 LT ISZERO PUSH2 0xDEC JUMPI PUSH16 0x181899199A1A9B1B9C1CB0B131B232B3 PUSH1 0x81 SHL SWAP1 BYTE PUSH2 0xDC2 DUP6 DUP8 PUSH2 0xFDF JUMP JUMPDEST MSTORE8 PUSH1 0x4 SHR SWAP3 DUP1 ISZERO PUSH2 0xDD8 JUMPI PUSH1 0x0 NOT ADD SWAP2 SWAP1 PUSH2 0xC89 JUMP JUMPDEST PUSH4 0x4E487B71 PUSH1 0xE0 SHL DUP3 MSTORE PUSH1 0x11 PUSH1 0x4 MSTORE PUSH1 0x24 DUP3 REVERT JUMPDEST PUSH4 0x4E487B71 PUSH1 0xE0 SHL DUP4 MSTORE PUSH1 0x32 PUSH1 0x4 MSTORE PUSH1 0x24 DUP4 REVERT JUMPDEST PUSH4 0x4E487B71 PUSH1 0xE0 SHL DUP2 MSTORE PUSH1 0x32 PUSH1 0x4 MSTORE PUSH1 0x24 SWAP1 REVERT JUMPDEST PUSH4 0x4E487B71 PUSH1 0xE0 SHL DUP6 MSTORE PUSH1 0x41 PUSH1 0x4 MSTORE PUSH1 0x24 DUP6 REVERT JUMPDEST PUSH1 0x64 DUP8 DUP8 MLOAD SWAP1 PUSH3 0x461BCD PUSH1 0xE5 SHL DUP3 MSTORE DUP1 PUSH1 0x4 DUP4 ADD MSTORE PUSH1 0x24 DUP3 ADD MSTORE PUSH32 0x537472696E67733A20686578206C656E67746820696E73756666696369656E74 PUSH1 0x44 DUP3 ADD MSTORE REVERT JUMPDEST SWAP1 PUSH1 0xF DUP2 AND PUSH1 0x10 DUP2 LT ISZERO PUSH2 0xEC0 JUMPI PUSH16 0x181899199A1A9B1B9C1CB0B131B232B3 PUSH1 0x81 SHL SWAP1 BYTE PUSH2 0xE98 DUP4 DUP13 PUSH2 0xFDF JUMP JUMPDEST MSTORE8 PUSH1 0x4 SHR SWAP1 DUP1 ISZERO PUSH2 0xEAC JUMPI PUSH1 0x0 NOT ADD PUSH2 0xC3A JUMP JUMPDEST PUSH4 0x4E487B71 PUSH1 0xE0 SHL DUP7 MSTORE PUSH1 0x11 PUSH1 0x4 MSTORE PUSH1 0x24 DUP7 REVERT JUMPDEST PUSH4 0x4E487B71 PUSH1 0xE0 SHL DUP8 MSTORE PUSH1 0x32 PUSH1 0x4 MSTORE PUSH1 0x24 DUP8 REVERT JUMPDEST PUSH4 0x4E487B71 PUSH1 0xE0 SHL DUP6 MSTORE PUSH1 0x32 PUSH1 0x4 MSTORE PUSH1 0x24 DUP6 REVERT JUMPDEST PUSH4 0x4E487B71 PUSH1 0xE0 SHL DUP5 MSTORE PUSH1 0x32 PUSH1 0x4 MSTORE PUSH1 0x24 DUP5 REVERT JUMPDEST PUSH4 0x4E487B71 PUSH1 0xE0 SHL DUP5 MSTORE PUSH1 0x41 PUSH1 0x4 MSTORE PUSH1 0x24 DUP5 REVERT JUMPDEST PUSH1 0x0 JUMPDEST DUP4 DUP2 LT PUSH2 0xF23 JUMPI POP POP PUSH1 0x0 SWAP2 ADD MSTORE JUMP JUMPDEST DUP2 DUP2 ADD MLOAD DUP4 DUP3 ADD MSTORE PUSH1 0x20 ADD PUSH2 0xF13 JUMP JUMPDEST SWAP1 PUSH1 0x1F DUP1 NOT SWAP2 ADD AND DUP2 ADD SWAP1 DUP2 LT PUSH8 0xFFFFFFFFFFFFFFFF DUP3 GT OR PUSH2 0xF55 JUMPI PUSH1 0x40 MSTORE JUMP JUMPDEST PUSH4 0x4E487B71 PUSH1 0xE0 SHL PUSH1 0x0 MSTORE PUSH1 0x41 PUSH1 0x4 MSTORE PUSH1 0x24 PUSH1 0x0 REVERT JUMPDEST SWAP1 PUSH1 0x0 SWAP2 DUP1 DUP4 MSTORE DUP3 PUSH1 0x20 MSTORE PUSH1 0x40 DUP4 KECCAK256 SWAP2 PUSH1 0x1 DUP1 PUSH1 0xA0 SHL SUB AND SWAP2 DUP3 DUP5 MSTORE PUSH1 0x20 MSTORE PUSH1 0xFF PUSH1 0x40 DUP5 KECCAK256 SLOAD AND PUSH2 0xF9B JUMPI POP POP POP JUMP JUMPDEST DUP1 DUP4 MSTORE DUP3 PUSH1 0x20 MSTORE PUSH1 0x40 DUP4 KECCAK256 DUP3 DUP5 MSTORE PUSH1 0x20 MSTORE PUSH1 0x40 DUP4 KECCAK256 PUSH1 0xFF NOT DUP2 SLOAD AND SWAP1 SSTORE PUSH32 0xF6391F5C32D9C69D2A47EA670B442974B53935D1EDC7FD64EB21E047A839171B CALLER SWAP4 DUP1 LOG4 JUMP JUMPDEST SWAP1 DUP2 MLOAD DUP2 LT ISZERO PUSH2 0xFF0 JUMPI ADD PUSH1 0x20 ADD SWAP1 JUMP JUMPDEST PUSH4 0x4E487B71 PUSH1 0xE0 SHL PUSH1 0x0 MSTORE PUSH1 0x32 PUSH1 0x4 MSTORE PUSH1 0x24 PUSH1 0x0 REVERT JUMPDEST ISZERO PUSH2 0x100D JUMPI JUMP JUMPDEST PUSH1 0x40 MLOAD PUSH3 0x461BCD PUSH1 0xE5 SHL DUP2 MSTORE PUSH1 0x20 PUSH1 0x4 DUP3 ADD MSTORE PUSH1 0x12 PUSH1 0x24 DUP3 ADD MSTORE PUSH18 0x524F4C453A4F50455241544F525F4F4E4C59 PUSH1 0x70 SHL PUSH1 0x44 DUP3 ADD MSTORE PUSH1 0x64 SWAP1 REVERT JUMPDEST SWAP1 DUP2 PUSH1 0x20 SWAP2 SUB SLT PUSH2 0xBC0 JUMPI MLOAD DUP1 ISZERO ISZERO DUP2 SUB PUSH2 0xBC0 JUMPI SWAP1 JUMP JUMPDEST PUSH8 0xFFFFFFFFFFFFFFFF DUP2 GT PUSH2 0xF55 JUMPI PUSH1 0x5 SHL PUSH1 0x20 ADD SWAP1 JUMP JUMPDEST DUP1 MLOAD DUP3 LT ISZERO PUSH2 0xFF0 JUMPI PUSH1 0x20 SWAP2 PUSH1 0x5 SHL ADD ADD SWAP1 JUMP JUMPDEST PUSH32 0x0 PUSH1 0x1 PUSH1 0x1 PUSH1 0xA0 SHL SUB AND DUP1 ISZERO PUSH2 0x1128 JUMPI PUSH1 0x20 PUSH1 0x24 SWAP2 PUSH1 0x40 MLOAD SWAP3 DUP4 DUP1 SWAP3 PUSH4 0x70A08231 PUSH1 0xE0 SHL DUP3 MSTORE ADDRESS PUSH1 0x4 DUP4 ADD MSTORE GAS STATICCALL SWAP1 DUP2 ISZERO PUSH2 0x111C JUMPI PUSH1 0x0 SWAP2 PUSH2 0x10EB JUMPI POP SWAP1 JUMP JUMPDEST SWAP1 PUSH1 0x20 DUP3 RETURNDATASIZE DUP3 GT PUSH2 0x1114 JUMPI JUMPDEST DUP2 PUSH2 0x1104 PUSH1 0x20 SWAP4 DUP4 PUSH2 0xF33 JUMP JUMPDEST DUP2 ADD SUB SLT PUSH2 0x1111 JUMPI POP MLOAD SWAP1 JUMP JUMPDEST DUP1 REVERT JUMPDEST RETURNDATASIZE SWAP2 POP PUSH2 0x10F7 JUMP JUMPDEST PUSH1 0x40 MLOAD RETURNDATASIZE PUSH1 0x0 DUP3 RETURNDATACOPY RETURNDATASIZE SWAP1 REVERT JUMPDEST POP SELFBALANCE SWAP1 JUMP INVALID LOG2 PUSH5 0x6970667358 0x22 SLT KECCAK256 DUP3 SAR SELFDESTRUCT PUSH9 0x371116BC9744D06E43 0xB3 PUSH18 0x7C92414DAE806DBE1C7743EB9A5454537F64 PUSH20 0x6F6C634300081400330000000000000000000000 "},"methodIdentifiers":{"DEFAULT_ADMIN_ROLE()":"a217fddf","ESCROW_ROLE()":"6ce76f30","GOVERNANCE_ROLE()":"f36c8f5c","ISSUER_ROLE()":"82aefa24","OPERATOR_ROLE()":"f5b541a6","ORACLE_ROLE()":"07e2cea5","depositRevenue(uint256,uint256)":"0cae7afc","distribute(uint256)":"91c05b0b","getRoleAdmin(bytes32)":"248a9ca3","grantRole(bytes32,address)":"2f2ff15d","hasRole(bytes32,address)":"91d14854","payoutToken()":"4efa82b6","propertyToken()":"43ae2695","renounceRole(bytes32,address)":"36568abe","revokeRole(bytes32,address)":"d547741f","supportsInterface(bytes4)":"01ffc9a7"}}}}}