{"contracts/identity/IdentityRegistry.sol":{"IdentityRegistry":{"abi":[{"inputs":[{"internalType":"address","name":"admin","type":"address"}],"stateMutability":"nonpayable","type":"constructor"},{"anonymous":false,"inputs":[{"indexed":true,"internalType":"address","name":"user","type":"address"},{"indexed":false,"internalType":"string","name":"didHash","type":"string"}],"name":"IdentityRegistered","type":"event"},{"anonymous":false,"inputs":[{"indexed":true,"internalType":"address","name":"user","type":"address"},{"indexed":false,"internalType":"bool","name":"verified","type":"bool"}],"name":"IdentityVerified","type":"event"},{"anonymous":false,"inputs":[{"indexed":true,"internalType":"bytes32","name":"role","type":"bytes32"},{"indexed":true,"internalType":"bytes32","name":"previousAdminRole","type":"bytes32"},{"indexed":true,"internalType":"bytes32","name":"newAdminRole","type":"bytes32"}],"name":"RoleAdminChanged","type":"event"},{"anonymous":false,"inputs":[{"indexed":true,"internalType":"bytes32","name":"role","type":"bytes32"},{"indexed":true,"internalType":"address","name":"account","type":"address"},{"indexed":true,"internalType":"address","name":"sender","type":"address"}],"name":"RoleGranted","type":"event"},{"anonymous":false,"inputs":[{"indexed":true,"internalType":"bytes32","name":"role","type":"bytes32"},{"indexed":true,"internalType":"address","name":"account","type":"address"},{"indexed":true,"internalType":"address","name":"sender","type":"address"}],"name":"RoleRevoked","type":"event"},{"inputs":[],"name":"DEFAULT_ADMIN_ROLE","outputs":[{"internalType":"bytes32","name":"","type":"bytes32"}],"stateMutability":"view","type":"function"},{"inputs":[],"name":"ESCROW_ROLE","outputs":[{"internalType":"bytes32","name":"","type":"bytes32"}],"stateMutability":"view","type":"function"},{"inputs":[],"name":"GOVERNANCE_ROLE","outputs":[{"internalType":"bytes32","name":"","type":"bytes32"}],"stateMutability":"view","type":"function"},{"inputs":[],"name":"ISSUER_ROLE","outputs":[{"internalType":"bytes32","name":"","type":"bytes32"}],"stateMutability":"view","type":"function"},{"inputs":[],"name":"OPERATOR_ROLE","outputs":[{"internalType":"bytes32","name":"","type":"bytes32"}],"stateMutability":"view","type":"function"},{"inputs":[],"name":"ORACLE_ROLE","outputs":[{"internalType":"bytes32","name":"","type":"bytes32"}],"stateMutability":"view","type":"function"},{"inputs":[{"internalType":"address","name":"user","type":"address"}],"name":"getIdentity","outputs":[{"internalType":"string","name":"didHash","type":"string"},{"internalType":"bool","name":"verified","type":"bool"},{"internalType":"uint64","name":"updatedAt","type":"uint64"}],"stateMutability":"view","type":"function"},{"inputs":[{"internalType":"bytes32","name":"role","type":"bytes32"}],"name":"getRoleAdmin","outputs":[{"internalType":"bytes32","name":"","type":"bytes32"}],"stateMutability":"view","type":"function"},{"inputs":[{"internalType":"bytes32","name":"role","type":"bytes32"},{"internalType":"address","name":"account","type":"address"}],"name":"grantRole","outputs":[],"stateMutability":"nonpayable","type":"function"},{"inputs":[{"internalType":"bytes32","name":"role","type":"bytes32"},{"internalType":"address","name":"account","type":"address"}],"name":"hasRole","outputs":[{"internalType":"bool","name":"","type":"bool"}],"stateMutability":"view","type":"function"},{"inputs":[{"internalType":"address","name":"user","type":"address"},{"internalType":"string","name":"didHash","type":"string"}],"name":"registerIdentity","outputs":[],"stateMutability":"nonpayable","type":"function"},{"inputs":[{"internalType":"bytes32","name":"role","type":"bytes32"},{"internalType":"address","name":"account","type":"address"}],"name":"renounceRole","outputs":[],"stateMutability":"nonpayable","type":"function"},{"inputs":[{"internalType":"bytes32","name":"role","type":"bytes32"},{"internalType":"address","name":"account","type":"address"}],"name":"revokeRole","outputs":[],"stateMutability":"nonpayable","type":"function"},{"inputs":[{"internalType":"bytes4","name":"interfaceId","type":"bytes4"}],"name":"supportsInterface","outputs":[{"internalType":"bool","name":"","type":"bool"}],"stateMutability":"view","type":"function"},{"inputs":[{"internalType":"address","name":"user","type":"address"},{"internalType":"bool","name":"verified","type":"bool"}],"name":"verifyIdentity","outputs":[],"stateMutability":"nonpayable","type":"function"}],"evm":{"bytecode":{"linkReferences":{},"object":"6080346101f757601f6110f238819003918201601f1916830192916001600160401b038411838510176101fc57808392604095865283396020928391810103126101f757516001600160a01b03811691908290036101f757600091828052828252838320818452825260ff8484205416156101ae575b50817f97667070c54ef182b0f5858b034beac1b6f3089aa2d3188bb1e8929f4fa9b92991828252528160018482200181815491557fbd79b86ffe0ab8e8776151514217cd7cacd52c909f66475c3af44e129f0b00ff92838380a4817f2fdac322ee704ce09f0773f7f3f92eb98d5e7c836ee9c056cccd5f61041e5e3f808252600185832001908282549255838380a4817f68e79a7bf1e0bc45d0a330c573bc367f9cf464fd326078812f301165fbda4ef1808252600185832001908282549255838380a4817f114e74f6ea3bd819998f78687bfcb11b140da08e9b7d222fa9c1f1ba1f2aa122808252600185832001908282549255838380a47f71840dc4906352362b0cdaf79870196c8e42acafade72d5d5a6d59291253ceb18083526001848420019183835493558380a451610edf90816102138239f35b8280528282528383208184528252838320805460ff191660011790553390837f2f8788117e7eff1d82e926ec794901d17c78024a50270940304540a733656f0d8180a438610075565b600080fd5b634e487b7160e01b600052604160045260246000fdfe608060408181526004918236101561001657600080fd5b600092833560e01c91826301ffc9a71461099b5750816307e2cea514610960578163248a9ca3146109365781632f2ff15d1461088d5781632fea7b811461075657816336568abe146106c45781636ce76f301461068957816382aefa241461064e578163912d3c331461034c57816391d1485414610306578163a217fddf146102eb578163d386c3ad14610183578163d547741f1461014157508063f36c8f5c146101075763f5b541a6146100ca57600080fd5b34610103578160031936011261010357602090517f97667070c54ef182b0f5858b034beac1b6f3089aa2d3188bb1e8929f4fa9b9298152f35b5080fd5b5034610103578160031936011261010357602090517f71840dc4906352362b0cdaf79870196c8e42acafade72d5d5a6d59291253ceb18152f35b9190503461017f578060031936011261017f5761017c913561017760016101666109ee565b938387528660205286200154610a67565b610dd4565b80f35b8280fd5b9190503461017f578060031936011261017f5761019e610a09565b90602435908115158092036102e7577f68e79a7bf1e0bc45d0a330c573bc367f9cf464fd326078812f301165fbda4ef18552602092858452818620338752845260ff8287205416156102b1576001600160a01b031680865260018085528287200154909467ffffffffffffffff9160081c82161561027a5750848652600180855282872001805468ffffffffffffffffff191660ff8516174290921660081b68ffffffffffffffff00169190911790557f61864590ac01b95e445535ed8623c869a900dad8074ee5e303f700ec878817c292919051908152a280f35b825162461bcd60e51b8152908101859052601160248201527012510e9393d517d49151d254d511549151607a1b6044820152606490fd5b815162461bcd60e51b8152808601859052601060248201526f524f4c453a4f5241434c455f4f4e4c5960801b6044820152606490fd5b8480fd5b50503461010357816003193601126101035751908152602090f35b90503461017f578160031936011261017f578160209360ff926103276109ee565b903582528186528282206001600160a01b039091168252855220549151911615158152f35b83915034610103578260031936011261010357610367610a09565b60249384359167ffffffffffffffff9586841161064a573660238501121561064a5783850135938785116106465736828683010111610646577f97667070c54ef182b0f5858b034beac1b6f3089aa2d3188bb1e8929f4fa9b9298752602092878452848820338952845260ff85892054161561060f576001600160a01b03169586156105db5785156105a6575085875260018084528488209861040a8a54610e6f565b601f8111610560575b5088601f88116001146104d25784928895928b9c8780979561049d957f9b6805eb7a1bee8a797c79c5f2a39a182f3d37f8b8cce5ec42371000c8115dfd9e9f926104c5575b5050600019600389901b1c191687841b1790555b8b8d52818852421690888d20019068ffffffffffffffff0082549160081b169068ffffffffffffffff001916179055565b855196858896875286015201848401378181018301879052601f01601f19168101030190a280f35b8701013590508638610458565b8a8a52858a2090601f1989168b5b8181106105495750927f9b6805eb7a1bee8a797c79c5f2a39a182f3d37f8b8cce5ec42371000c8115dfd9a9b9c61049d938b989693898099971061052d575b50508287811b01905561046c565b860187013560001960038a901b60f8161c191690558e8061051f565b8683018801358455928501929188019188016104e0565b8a8a52858a20601f890160051c810191878a1061059c575b601f0160051c019083905b828110610591575050610413565b8b8155018390610583565b9091508190610578565b845162461bcd60e51b81529081018490526010818401526f12510e921054d217d49154555254915160821b6044820152606490fd5b845162461bcd60e51b8152908101849052600f818401526e24a21d24a72b20a624a22faaa9a2a960891b6044820152606490fd5b845162461bcd60e51b815280880185905260128185015271524f4c453a4f50455241544f525f4f4e4c5960701b6044820152606490fd5b8680fd5b8580fd5b505034610103578160031936011261010357602090517f114e74f6ea3bd819998f78687bfcb11b140da08e9b7d222fa9c1f1ba1f2aa1228152f35b505034610103578160031936011261010357602090517f2fdac322ee704ce09f0773f7f3f92eb98d5e7c836ee9c056cccd5f61041e5e3f8152f35b839150346101035782600319360112610103576106df6109ee565b90336001600160a01b038316036106fb579061017c9135610dd4565b608490602085519162461bcd60e51b8352820152602f60248201527f416363657373436f6e74726f6c3a2063616e206f6e6c792072656e6f756e636560448201526e103937b632b9903337b91039b2b63360891b6064820152fd5b838334610103576020908160031936011261017f576001600160a01b0361077b610a09565b168352600180835281842090825191606083019567ffffffffffffffff978488108989111761087a57508685528154816107b482610e6f565b808a5291858116908115610853575060011461081f575b50509183916107e661081499948796605f1991030189610d9c565b87835201549160ff8316151592838784015260081c1693849101528151958695606087526060870190610a42565b938501528301520390f35b91508282528682205b81831061083f5750508301608001816107e66107cb565b805486840160800152918701918401610828565b60ff191660808881019190915292151560051b870190920192508391506107e690506107cb565b634e487b7160e01b825260419052602490fd5b90503461017f578160031936011261017f5735906108a96109ee565b90828452836020526108c060018286200154610a67565b82845260208481528185206001600160a01b039093168086529290528084205460ff16156108ec578380f35b828452836020528084208285526020528320600160ff1982541617905533917f2f8788117e7eff1d82e926ec794901d17c78024a50270940304540a733656f0d8480a43880808380f35b90503461017f57602036600319011261017f57816020936001923581528085522001549051908152f35b505034610103578160031936011261010357602090517f68e79a7bf1e0bc45d0a330c573bc367f9cf464fd326078812f301165fbda4ef18152f35b84913461017f57602036600319011261017f573563ffffffff60e01b811680910361017f5760209250637965db0b60e01b81149081156109dd575b5015158152f35b6301ffc9a760e01b149050836109d6565b602435906001600160a01b0382168203610a0457565b600080fd5b600435906001600160a01b0382168203610a0457565b60005b838110610a325750506000910152565b8181015183820152602001610a22565b90602091610a5b81518092818552858086019101610a1f565b601f01601f1916010190565b600090808252602090828252604092838120338252835260ff848220541615610a905750505050565b83519167ffffffffffffffff90336060850183811186821017610d88578752602a85528585019187368437855115610d745760308353855191600192831015610d60576078602188015360295b838111610cf65750610cb45790875193608085019085821090821117610ca057885260428452868401946060368737845115610c8c57603086538451821015610c8c5790607860218601536041915b818311610c1e57505050610bdc57610bd8938693610bbc93610bad604894610b849a519a8b957f416363657373436f6e74726f6c3a206163636f756e74200000000000000000008c8801525180926037880190610a1f565b8401917001034b99036b4b9b9b4b733903937b6329607d1b603784015251809386840190610a1f565b01036028810187520185610d9c565b5192839262461bcd60e51b845260048401526024830190610a42565b0390fd5b60648587519062461bcd60e51b825280600483015260248201527f537472696e67733a20686578206c656e67746820696e73756666696369656e746044820152fd5b909192600f81166010811015610c78576f181899199a1a9b1b9c1cb0b131b232b360811b901a610c4e8588610e48565b5360041c928015610c6457600019019190610b2c565b634e487b7160e01b82526011600452602482fd5b634e487b7160e01b83526032600452602483fd5b634e487b7160e01b81526032600452602490fd5b634e487b7160e01b86526041600452602486fd5b60648789519062461bcd60e51b825280600483015260248201527f537472696e67733a20686578206c656e67746820696e73756666696369656e746044820152fd5b90600f81166010811015610d4c576f181899199a1a9b1b9c1cb0b131b232b360811b901a610d24838a610e48565b5360041c908015610d385760001901610add565b634e487b7160e01b87526011600452602487fd5b634e487b7160e01b88526032600452602488fd5b634e487b7160e01b86526032600452602486fd5b634e487b7160e01b85526032600452602485fd5b634e487b7160e01b85526041600452602485fd5b90601f8019910116810190811067ffffffffffffffff821117610dbe57604052565b634e487b7160e01b600052604160045260246000fd5b9060009180835282602052604083209160018060a01b03169182845260205260ff604084205416610e0457505050565b80835282602052604083208284526020526040832060ff1981541690557ff6391f5c32d9c69d2a47ea670b442974b53935d1edc7fd64eb21e047a839171b339380a4565b908151811015610e59570160200190565b634e487b7160e01b600052603260045260246000fd5b90600182811c92168015610e9f575b6020831014610e8957565b634e487b7160e01b600052602260045260246000fd5b91607f1691610e7e56fea2646970667358221220569be128da6f3f7bc0c267ecfac1f32d68fdcd01d3e5d8fb6de0485e802afba664736f6c63430008140033","opcodes":"PUSH1 0x80 CALLVALUE PUSH2 0x1F7 JUMPI PUSH1 0x1F PUSH2 0x10F2 CODESIZE DUP2 SWAP1 SUB SWAP2 DUP3 ADD PUSH1 0x1F NOT AND DUP4 ADD SWAP3 SWAP2 PUSH1 0x1 PUSH1 0x1 PUSH1 0x40 SHL SUB DUP5 GT DUP4 DUP6 LT OR PUSH2 0x1FC JUMPI DUP1 DUP4 SWAP3 PUSH1 0x40 SWAP6 DUP7 MSTORE DUP4 CODECOPY PUSH1 0x20 SWAP3 DUP4 SWAP2 DUP2 ADD SUB SLT PUSH2 0x1F7 JUMPI MLOAD PUSH1 0x1 PUSH1 0x1 PUSH1 0xA0 SHL SUB DUP2 AND SWAP2 SWAP1 DUP3 SWAP1 SUB PUSH2 0x1F7 JUMPI PUSH1 0x0 SWAP2 DUP3 DUP1 MSTORE DUP3 DUP3 MSTORE DUP4 DUP4 KECCAK256 DUP2 DUP5 MSTORE DUP3 MSTORE PUSH1 0xFF DUP5 DUP5 KECCAK256 SLOAD AND ISZERO PUSH2 0x1AE JUMPI JUMPDEST POP DUP2 PUSH32 0x97667070C54EF182B0F5858B034BEAC1B6F3089AA2D3188BB1E8929F4FA9B929 SWAP2 DUP3 DUP3 MSTORE MSTORE DUP2 PUSH1 0x1 DUP5 DUP3 KECCAK256 ADD DUP2 DUP2 SLOAD SWAP2 SSTORE PUSH32 0xBD79B86FFE0AB8E8776151514217CD7CACD52C909F66475C3AF44E129F0B00FF SWAP3 DUP4 DUP4 DUP1 LOG4 DUP2 PUSH32 0x2FDAC322EE704CE09F0773F7F3F92EB98D5E7C836EE9C056CCCD5F61041E5E3F DUP1 DUP3 MSTORE PUSH1 0x1 DUP6 DUP4 KECCAK256 ADD SWAP1 DUP3 DUP3 SLOAD SWAP3 SSTORE DUP4 DUP4 DUP1 LOG4 DUP2 PUSH32 0x68E79A7BF1E0BC45D0A330C573BC367F9CF464FD326078812F301165FBDA4EF1 DUP1 DUP3 MSTORE PUSH1 0x1 DUP6 DUP4 KECCAK256 ADD SWAP1 DUP3 DUP3 SLOAD SWAP3 SSTORE DUP4 DUP4 DUP1 LOG4 DUP2 PUSH32 0x114E74F6EA3BD819998F78687BFCB11B140DA08E9B7D222FA9C1F1BA1F2AA122 DUP1 DUP3 MSTORE PUSH1 0x1 DUP6 DUP4 KECCAK256 ADD SWAP1 DUP3 DUP3 SLOAD SWAP3 SSTORE DUP4 DUP4 DUP1 LOG4 PUSH32 0x71840DC4906352362B0CDAF79870196C8E42ACAFADE72D5D5A6D59291253CEB1 DUP1 DUP4 MSTORE PUSH1 0x1 DUP5 DUP5 KECCAK256 ADD SWAP2 DUP4 DUP4 SLOAD SWAP4 SSTORE DUP4 DUP1 LOG4 MLOAD PUSH2 0xEDF SWAP1 DUP2 PUSH2 0x213 DUP3 CODECOPY RETURN JUMPDEST DUP3 DUP1 MSTORE DUP3 DUP3 MSTORE DUP4 DUP4 KECCAK256 DUP2 DUP5 MSTORE DUP3 MSTORE DUP4 DUP4 KECCAK256 DUP1 SLOAD PUSH1 0xFF NOT AND PUSH1 0x1 OR SWAP1 SSTORE CALLER SWAP1 DUP4 PUSH32 0x2F8788117E7EFF1D82E926EC794901D17C78024A50270940304540A733656F0D DUP2 DUP1 LOG4 CODESIZE PUSH2 0x75 JUMP JUMPDEST PUSH1 0x0 DUP1 REVERT JUMPDEST PUSH4 0x4E487B71 PUSH1 0xE0 SHL PUSH1 0x0 MSTORE PUSH1 0x41 PUSH1 0x4 MSTORE PUSH1 0x24 PUSH1 0x0 REVERT INVALID PUSH1 0x80 PUSH1 0x40 DUP2 DUP2 MSTORE PUSH1 0x4 SWAP2 DUP3 CALLDATASIZE LT ISZERO PUSH2 0x16 JUMPI PUSH1 0x0 DUP1 REVERT JUMPDEST PUSH1 0x0 SWAP3 DUP4 CALLDATALOAD PUSH1 0xE0 SHR SWAP2 DUP3 PUSH4 0x1FFC9A7 EQ PUSH2 0x99B JUMPI POP DUP2 PUSH4 0x7E2CEA5 EQ PUSH2 0x960 JUMPI DUP2 PUSH4 0x248A9CA3 EQ PUSH2 0x936 JUMPI DUP2 PUSH4 0x2F2FF15D EQ PUSH2 0x88D JUMPI DUP2 PUSH4 0x2FEA7B81 EQ PUSH2 0x756 JUMPI DUP2 PUSH4 0x36568ABE EQ PUSH2 0x6C4 JUMPI DUP2 PUSH4 0x6CE76F30 EQ PUSH2 0x689 JUMPI DUP2 PUSH4 0x82AEFA24 EQ PUSH2 0x64E JUMPI DUP2 PUSH4 0x912D3C33 EQ PUSH2 0x34C JUMPI DUP2 PUSH4 0x91D14854 EQ PUSH2 0x306 JUMPI DUP2 PUSH4 0xA217FDDF EQ PUSH2 0x2EB JUMPI DUP2 PUSH4 0xD386C3AD EQ PUSH2 0x183 JUMPI DUP2 PUSH4 0xD547741F EQ PUSH2 0x141 JUMPI POP DUP1 PUSH4 0xF36C8F5C EQ PUSH2 0x107 JUMPI PUSH4 0xF5B541A6 EQ PUSH2 0xCA JUMPI PUSH1 0x0 DUP1 REVERT JUMPDEST CALLVALUE PUSH2 0x103 JUMPI DUP2 PUSH1 0x3 NOT CALLDATASIZE ADD SLT PUSH2 0x103 JUMPI PUSH1 0x20 SWAP1 MLOAD PUSH32 0x97667070C54EF182B0F5858B034BEAC1B6F3089AA2D3188BB1E8929F4FA9B929 DUP2 MSTORE RETURN JUMPDEST POP DUP1 REVERT JUMPDEST POP CALLVALUE PUSH2 0x103 JUMPI DUP2 PUSH1 0x3 NOT CALLDATASIZE ADD SLT PUSH2 0x103 JUMPI PUSH1 0x20 SWAP1 MLOAD PUSH32 0x71840DC4906352362B0CDAF79870196C8E42ACAFADE72D5D5A6D59291253CEB1 DUP2 MSTORE RETURN JUMPDEST SWAP2 SWAP1 POP CALLVALUE PUSH2 0x17F JUMPI DUP1 PUSH1 0x3 NOT CALLDATASIZE ADD SLT PUSH2 0x17F JUMPI PUSH2 0x17C SWAP2 CALLDATALOAD PUSH2 0x177 PUSH1 0x1 PUSH2 0x166 PUSH2 0x9EE JUMP JUMPDEST SWAP4 DUP4 DUP8 MSTORE DUP7 PUSH1 0x20 MSTORE DUP7 KECCAK256 ADD SLOAD PUSH2 0xA67 JUMP JUMPDEST PUSH2 0xDD4 JUMP JUMPDEST DUP1 RETURN JUMPDEST DUP3 DUP1 REVERT JUMPDEST SWAP2 SWAP1 POP CALLVALUE PUSH2 0x17F JUMPI DUP1 PUSH1 0x3 NOT CALLDATASIZE ADD SLT PUSH2 0x17F JUMPI PUSH2 0x19E PUSH2 0xA09 JUMP JUMPDEST SWAP1 PUSH1 0x24 CALLDATALOAD SWAP1 DUP2 ISZERO ISZERO DUP1 SWAP3 SUB PUSH2 0x2E7 JUMPI PUSH32 0x68E79A7BF1E0BC45D0A330C573BC367F9CF464FD326078812F301165FBDA4EF1 DUP6 MSTORE PUSH1 0x20 SWAP3 DUP6 DUP5 MSTORE DUP2 DUP7 KECCAK256 CALLER DUP8 MSTORE DUP5 MSTORE PUSH1 0xFF DUP3 DUP8 KECCAK256 SLOAD AND ISZERO PUSH2 0x2B1 JUMPI PUSH1 0x1 PUSH1 0x1 PUSH1 0xA0 SHL SUB AND DUP1 DUP7 MSTORE PUSH1 0x1 DUP1 DUP6 MSTORE DUP3 DUP8 KECCAK256 ADD SLOAD SWAP1 SWAP5 PUSH8 0xFFFFFFFFFFFFFFFF SWAP2 PUSH1 0x8 SHR DUP3 AND ISZERO PUSH2 0x27A JUMPI POP DUP5 DUP7 MSTORE PUSH1 0x1 DUP1 DUP6 MSTORE DUP3 DUP8 KECCAK256 ADD DUP1 SLOAD PUSH9 0xFFFFFFFFFFFFFFFFFF NOT AND PUSH1 0xFF DUP6 AND OR TIMESTAMP SWAP1 SWAP3 AND PUSH1 0x8 SHL PUSH9 0xFFFFFFFFFFFFFFFF00 AND SWAP2 SWAP1 SWAP2 OR SWAP1 SSTORE PUSH32 0x61864590AC01B95E445535ED8623C869A900DAD8074EE5E303F700EC878817C2 SWAP3 SWAP2 SWAP1 MLOAD SWAP1 DUP2 MSTORE LOG2 DUP1 RETURN JUMPDEST DUP3 MLOAD PUSH3 0x461BCD PUSH1 0xE5 SHL DUP2 MSTORE SWAP1 DUP2 ADD DUP6 SWAP1 MSTORE PUSH1 0x11 PUSH1 0x24 DUP3 ADD MSTORE PUSH17 0x12510E9393D517D49151D254D511549151 PUSH1 0x7A SHL PUSH1 0x44 DUP3 ADD MSTORE PUSH1 0x64 SWAP1 REVERT JUMPDEST DUP2 MLOAD PUSH3 0x461BCD PUSH1 0xE5 SHL DUP2 MSTORE DUP1 DUP7 ADD DUP6 SWAP1 MSTORE PUSH1 0x10 PUSH1 0x24 DUP3 ADD MSTORE PUSH16 0x524F4C453A4F5241434C455F4F4E4C59 PUSH1 0x80 SHL PUSH1 0x44 DUP3 ADD MSTORE PUSH1 0x64 SWAP1 REVERT JUMPDEST DUP5 DUP1 REVERT JUMPDEST POP POP CALLVALUE PUSH2 0x103 JUMPI DUP2 PUSH1 0x3 NOT CALLDATASIZE ADD SLT PUSH2 0x103 JUMPI MLOAD SWAP1 DUP2 MSTORE PUSH1 0x20 SWAP1 RETURN JUMPDEST SWAP1 POP CALLVALUE PUSH2 0x17F JUMPI DUP2 PUSH1 0x3 NOT CALLDATASIZE ADD SLT PUSH2 0x17F JUMPI DUP2 PUSH1 0x20 SWAP4 PUSH1 0xFF SWAP3 PUSH2 0x327 PUSH2 0x9EE JUMP JUMPDEST SWAP1 CALLDATALOAD DUP3 MSTORE DUP2 DUP7 MSTORE DUP3 DUP3 KECCAK256 PUSH1 0x1 PUSH1 0x1 PUSH1 0xA0 SHL SUB SWAP1 SWAP2 AND DUP3 MSTORE DUP6 MSTORE KECCAK256 SLOAD SWAP2 MLOAD SWAP2 AND ISZERO ISZERO DUP2 MSTORE RETURN JUMPDEST DUP4 SWAP2 POP CALLVALUE PUSH2 0x103 JUMPI DUP3 PUSH1 0x3 NOT CALLDATASIZE ADD SLT PUSH2 0x103 JUMPI PUSH2 0x367 PUSH2 0xA09 JUMP JUMPDEST PUSH1 0x24 SWAP4 DUP5 CALLDATALOAD SWAP2 PUSH8 0xFFFFFFFFFFFFFFFF SWAP6 DUP7 DUP5 GT PUSH2 0x64A JUMPI CALLDATASIZE PUSH1 0x23 DUP6 ADD SLT ISZERO PUSH2 0x64A JUMPI DUP4 DUP6 ADD CALLDATALOAD SWAP4 DUP8 DUP6 GT PUSH2 0x646 JUMPI CALLDATASIZE DUP3 DUP7 DUP4 ADD ADD GT PUSH2 0x646 JUMPI PUSH32 0x97667070C54EF182B0F5858B034BEAC1B6F3089AA2D3188BB1E8929F4FA9B929 DUP8 MSTORE PUSH1 0x20 SWAP3 DUP8 DUP5 MSTORE DUP5 DUP9 KECCAK256 CALLER DUP10 MSTORE DUP5 MSTORE PUSH1 0xFF DUP6 DUP10 KECCAK256 SLOAD AND ISZERO PUSH2 0x60F JUMPI PUSH1 0x1 PUSH1 0x1 PUSH1 0xA0 SHL SUB AND SWAP6 DUP7 ISZERO PUSH2 0x5DB JUMPI DUP6 ISZERO PUSH2 0x5A6 JUMPI POP DUP6 DUP8 MSTORE PUSH1 0x1 DUP1 DUP5 MSTORE DUP5 DUP9 KECCAK256 SWAP9 PUSH2 0x40A DUP11 SLOAD PUSH2 0xE6F JUMP JUMPDEST PUSH1 0x1F DUP2 GT PUSH2 0x560 JUMPI JUMPDEST POP DUP9 PUSH1 0x1F DUP9 GT PUSH1 0x1 EQ PUSH2 0x4D2 JUMPI DUP5 SWAP3 DUP9 SWAP6 SWAP3 DUP12 SWAP13 DUP8 DUP1 SWAP8 SWAP6 PUSH2 0x49D SWAP6 PUSH32 0x9B6805EB7A1BEE8A797C79C5F2A39A182F3D37F8B8CCE5EC42371000C8115DFD SWAP15 SWAP16 SWAP3 PUSH2 0x4C5 JUMPI JUMPDEST POP POP PUSH1 0x0 NOT PUSH1 0x3 DUP10 SWAP1 SHL SHR NOT AND DUP8 DUP5 SHL OR SWAP1 SSTORE JUMPDEST DUP12 DUP14 MSTORE DUP2 DUP9 MSTORE TIMESTAMP AND SWAP1 DUP9 DUP14 KECCAK256 ADD SWAP1 PUSH9 0xFFFFFFFFFFFFFFFF00 DUP3 SLOAD SWAP2 PUSH1 0x8 SHL AND SWAP1 PUSH9 0xFFFFFFFFFFFFFFFF00 NOT AND OR SWAP1 SSTORE JUMP JUMPDEST DUP6 MLOAD SWAP7 DUP6 DUP9 SWAP7 DUP8 MSTORE DUP7 ADD MSTORE ADD DUP5 DUP5 ADD CALLDATACOPY DUP2 DUP2 ADD DUP4 ADD DUP8 SWAP1 MSTORE PUSH1 0x1F ADD PUSH1 0x1F NOT AND DUP2 ADD SUB ADD SWAP1 LOG2 DUP1 RETURN JUMPDEST DUP8 ADD ADD CALLDATALOAD SWAP1 POP DUP7 CODESIZE PUSH2 0x458 JUMP JUMPDEST DUP11 DUP11 MSTORE DUP6 DUP11 KECCAK256 SWAP1 PUSH1 0x1F NOT DUP10 AND DUP12 JUMPDEST DUP2 DUP2 LT PUSH2 0x549 JUMPI POP SWAP3 PUSH32 0x9B6805EB7A1BEE8A797C79C5F2A39A182F3D37F8B8CCE5EC42371000C8115DFD SWAP11 SWAP12 SWAP13 PUSH2 0x49D SWAP4 DUP12 SWAP9 SWAP7 SWAP4 DUP10 DUP1 SWAP10 SWAP8 LT PUSH2 0x52D JUMPI JUMPDEST POP POP DUP3 DUP8 DUP2 SHL ADD SWAP1 SSTORE PUSH2 0x46C JUMP JUMPDEST DUP7 ADD DUP8 ADD CALLDATALOAD PUSH1 0x0 NOT PUSH1 0x3 DUP11 SWAP1 SHL PUSH1 0xF8 AND SHR NOT AND SWAP1 SSTORE DUP15 DUP1 PUSH2 0x51F JUMP JUMPDEST DUP7 DUP4 ADD DUP9 ADD CALLDATALOAD DUP5 SSTORE SWAP3 DUP6 ADD SWAP3 SWAP2 DUP9 ADD SWAP2 DUP9 ADD PUSH2 0x4E0 JUMP JUMPDEST DUP11 DUP11 MSTORE DUP6 DUP11 KECCAK256 PUSH1 0x1F DUP10 ADD PUSH1 0x5 SHR DUP2 ADD SWAP2 DUP8 DUP11 LT PUSH2 0x59C JUMPI JUMPDEST PUSH1 0x1F ADD PUSH1 0x5 SHR ADD SWAP1 DUP4 SWAP1 JUMPDEST DUP3 DUP2 LT PUSH2 0x591 JUMPI POP POP PUSH2 0x413 JUMP JUMPDEST DUP12 DUP2 SSTORE ADD DUP4 SWAP1 PUSH2 0x583 JUMP JUMPDEST SWAP1 SWAP2 POP DUP2 SWAP1 PUSH2 0x578 JUMP JUMPDEST DUP5 MLOAD PUSH3 0x461BCD PUSH1 0xE5 SHL DUP2 MSTORE SWAP1 DUP2 ADD DUP5 SWAP1 MSTORE PUSH1 0x10 DUP2 DUP5 ADD MSTORE PUSH16 0x12510E921054D217D491545552549151 PUSH1 0x82 SHL PUSH1 0x44 DUP3 ADD MSTORE PUSH1 0x64 SWAP1 REVERT JUMPDEST DUP5 MLOAD PUSH3 0x461BCD PUSH1 0xE5 SHL DUP2 MSTORE SWAP1 DUP2 ADD DUP5 SWAP1 MSTORE PUSH1 0xF DUP2 DUP5 ADD MSTORE PUSH15 0x24A21D24A72B20A624A22FAAA9A2A9 PUSH1 0x89 SHL PUSH1 0x44 DUP3 ADD MSTORE PUSH1 0x64 SWAP1 REVERT JUMPDEST DUP5 MLOAD PUSH3 0x461BCD PUSH1 0xE5 SHL DUP2 MSTORE DUP1 DUP9 ADD DUP6 SWAP1 MSTORE PUSH1 0x12 DUP2 DUP6 ADD MSTORE PUSH18 0x524F4C453A4F50455241544F525F4F4E4C59 PUSH1 0x70 SHL PUSH1 0x44 DUP3 ADD MSTORE PUSH1 0x64 SWAP1 REVERT JUMPDEST DUP7 DUP1 REVERT JUMPDEST DUP6 DUP1 REVERT JUMPDEST POP POP CALLVALUE PUSH2 0x103 JUMPI DUP2 PUSH1 0x3 NOT CALLDATASIZE ADD SLT PUSH2 0x103 JUMPI PUSH1 0x20 SWAP1 MLOAD PUSH32 0x114E74F6EA3BD819998F78687BFCB11B140DA08E9B7D222FA9C1F1BA1F2AA122 DUP2 MSTORE RETURN JUMPDEST POP POP CALLVALUE PUSH2 0x103 JUMPI DUP2 PUSH1 0x3 NOT CALLDATASIZE ADD SLT PUSH2 0x103 JUMPI PUSH1 0x20 SWAP1 MLOAD PUSH32 0x2FDAC322EE704CE09F0773F7F3F92EB98D5E7C836EE9C056CCCD5F61041E5E3F DUP2 MSTORE RETURN JUMPDEST DUP4 SWAP2 POP CALLVALUE PUSH2 0x103 JUMPI DUP3 PUSH1 0x3 NOT CALLDATASIZE ADD SLT PUSH2 0x103 JUMPI PUSH2 0x6DF PUSH2 0x9EE JUMP JUMPDEST SWAP1 CALLER PUSH1 0x1 PUSH1 0x1 PUSH1 0xA0 SHL SUB DUP4 AND SUB PUSH2 0x6FB JUMPI SWAP1 PUSH2 0x17C SWAP2 CALLDATALOAD PUSH2 0xDD4 JUMP JUMPDEST PUSH1 0x84 SWAP1 PUSH1 0x20 DUP6 MLOAD SWAP2 PUSH3 0x461BCD PUSH1 0xE5 SHL DUP4 MSTORE DUP3 ADD MSTORE PUSH1 0x2F PUSH1 0x24 DUP3 ADD MSTORE PUSH32 0x416363657373436F6E74726F6C3A2063616E206F6E6C792072656E6F756E6365 PUSH1 0x44 DUP3 ADD MSTORE PUSH15 0x103937B632B9903337B91039B2B633 PUSH1 0x89 SHL PUSH1 0x64 DUP3 ADD MSTORE REVERT JUMPDEST DUP4 DUP4 CALLVALUE PUSH2 0x103 JUMPI PUSH1 0x20 SWAP1 DUP2 PUSH1 0x3 NOT CALLDATASIZE ADD SLT PUSH2 0x17F JUMPI PUSH1 0x1 PUSH1 0x1 PUSH1 0xA0 SHL SUB PUSH2 0x77B PUSH2 0xA09 JUMP JUMPDEST AND DUP4 MSTORE PUSH1 0x1 DUP1 DUP4 MSTORE DUP2 DUP5 KECCAK256 SWAP1 DUP3 MLOAD SWAP2 PUSH1 0x60 DUP4 ADD SWAP6 PUSH8 0xFFFFFFFFFFFFFFFF SWAP8 DUP5 DUP9 LT DUP10 DUP10 GT OR PUSH2 0x87A JUMPI POP DUP7 DUP6 MSTORE DUP2 SLOAD DUP2 PUSH2 0x7B4 DUP3 PUSH2 0xE6F JUMP JUMPDEST DUP1 DUP11 MSTORE SWAP2 DUP6 DUP2 AND SWAP1 DUP2 ISZERO PUSH2 0x853 JUMPI POP PUSH1 0x1 EQ PUSH2 0x81F JUMPI JUMPDEST POP POP SWAP2 DUP4 SWAP2 PUSH2 0x7E6 PUSH2 0x814 SWAP10 SWAP5 DUP8 SWAP7 PUSH1 0x5F NOT SWAP2 SUB ADD DUP10 PUSH2 0xD9C JUMP JUMPDEST DUP8 DUP4 MSTORE ADD SLOAD SWAP2 PUSH1 0xFF DUP4 AND ISZERO ISZERO SWAP3 DUP4 DUP8 DUP5 ADD MSTORE PUSH1 0x8 SHR AND SWAP4 DUP5 SWAP2 ADD MSTORE DUP2 MLOAD SWAP6 DUP7 SWAP6 PUSH1 0x60 DUP8 MSTORE PUSH1 0x60 DUP8 ADD SWAP1 PUSH2 0xA42 JUMP JUMPDEST SWAP4 DUP6 ADD MSTORE DUP4 ADD MSTORE SUB SWAP1 RETURN JUMPDEST SWAP2 POP DUP3 DUP3 MSTORE DUP7 DUP3 KECCAK256 JUMPDEST DUP2 DUP4 LT PUSH2 0x83F JUMPI POP POP DUP4 ADD PUSH1 0x80 ADD DUP2 PUSH2 0x7E6 PUSH2 0x7CB JUMP JUMPDEST DUP1 SLOAD DUP7 DUP5 ADD PUSH1 0x80 ADD MSTORE SWAP2 DUP8 ADD SWAP2 DUP5 ADD PUSH2 0x828 JUMP JUMPDEST PUSH1 0xFF NOT AND PUSH1 0x80 DUP9 DUP2 ADD SWAP2 SWAP1 SWAP2 MSTORE SWAP3 ISZERO ISZERO PUSH1 0x5 SHL DUP8 ADD SWAP1 SWAP3 ADD SWAP3 POP DUP4 SWAP2 POP PUSH2 0x7E6 SWAP1 POP PUSH2 0x7CB JUMP JUMPDEST PUSH4 0x4E487B71 PUSH1 0xE0 SHL DUP3 MSTORE PUSH1 0x41 SWAP1 MSTORE PUSH1 0x24 SWAP1 REVERT JUMPDEST SWAP1 POP CALLVALUE PUSH2 0x17F JUMPI DUP2 PUSH1 0x3 NOT CALLDATASIZE ADD SLT PUSH2 0x17F JUMPI CALLDATALOAD SWAP1 PUSH2 0x8A9 PUSH2 0x9EE JUMP JUMPDEST SWAP1 DUP3 DUP5 MSTORE DUP4 PUSH1 0x20 MSTORE PUSH2 0x8C0 PUSH1 0x1 DUP3 DUP7 KECCAK256 ADD SLOAD PUSH2 0xA67 JUMP JUMPDEST DUP3 DUP5 MSTORE PUSH1 0x20 DUP5 DUP2 MSTORE DUP2 DUP6 KECCAK256 PUSH1 0x1 PUSH1 0x1 PUSH1 0xA0 SHL SUB SWAP1 SWAP4 AND DUP1 DUP7 MSTORE SWAP3 SWAP1 MSTORE DUP1 DUP5 KECCAK256 SLOAD PUSH1 0xFF AND ISZERO PUSH2 0x8EC JUMPI DUP4 DUP1 RETURN JUMPDEST DUP3 DUP5 MSTORE DUP4 PUSH1 0x20 MSTORE DUP1 DUP5 KECCAK256 DUP3 DUP6 MSTORE PUSH1 0x20 MSTORE DUP4 KECCAK256 PUSH1 0x1 PUSH1 0xFF NOT DUP3 SLOAD AND OR SWAP1 SSTORE CALLER SWAP2 PUSH32 0x2F8788117E7EFF1D82E926EC794901D17C78024A50270940304540A733656F0D DUP5 DUP1 LOG4 CODESIZE DUP1 DUP1 DUP4 DUP1 RETURN JUMPDEST SWAP1 POP CALLVALUE PUSH2 0x17F JUMPI PUSH1 0x20 CALLDATASIZE PUSH1 0x3 NOT ADD SLT PUSH2 0x17F JUMPI DUP2 PUSH1 0x20 SWAP4 PUSH1 0x1 SWAP3 CALLDATALOAD DUP2 MSTORE DUP1 DUP6 MSTORE KECCAK256 ADD SLOAD SWAP1 MLOAD SWAP1 DUP2 MSTORE RETURN JUMPDEST POP POP CALLVALUE PUSH2 0x103 JUMPI DUP2 PUSH1 0x3 NOT CALLDATASIZE ADD SLT PUSH2 0x103 JUMPI PUSH1 0x20 SWAP1 MLOAD PUSH32 0x68E79A7BF1E0BC45D0A330C573BC367F9CF464FD326078812F301165FBDA4EF1 DUP2 MSTORE RETURN JUMPDEST DUP5 SWAP2 CALLVALUE PUSH2 0x17F JUMPI PUSH1 0x20 CALLDATASIZE PUSH1 0x3 NOT ADD SLT PUSH2 0x17F JUMPI CALLDATALOAD PUSH4 0xFFFFFFFF PUSH1 0xE0 SHL DUP2 AND DUP1 SWAP2 SUB PUSH2 0x17F JUMPI PUSH1 0x20 SWAP3 POP PUSH4 0x7965DB0B PUSH1 0xE0 SHL DUP2 EQ SWAP1 DUP2 ISZERO PUSH2 0x9DD JUMPI JUMPDEST POP ISZERO ISZERO DUP2 MSTORE RETURN JUMPDEST PUSH4 0x1FFC9A7 PUSH1 0xE0 SHL EQ SWAP1 POP DUP4 PUSH2 0x9D6 JUMP JUMPDEST PUSH1 0x24 CALLDATALOAD SWAP1 PUSH1 0x1 PUSH1 0x1 PUSH1 0xA0 SHL SUB DUP3 AND DUP3 SUB PUSH2 0xA04 JUMPI JUMP JUMPDEST PUSH1 0x0 DUP1 REVERT JUMPDEST PUSH1 0x4 CALLDATALOAD SWAP1 PUSH1 0x1 PUSH1 0x1 PUSH1 0xA0 SHL SUB DUP3 AND DUP3 SUB PUSH2 0xA04 JUMPI JUMP JUMPDEST PUSH1 0x0 JUMPDEST DUP4 DUP2 LT PUSH2 0xA32 JUMPI POP POP PUSH1 0x0 SWAP2 ADD MSTORE JUMP JUMPDEST DUP2 DUP2 ADD MLOAD DUP4 DUP3 ADD MSTORE PUSH1 0x20 ADD PUSH2 0xA22 JUMP JUMPDEST SWAP1 PUSH1 0x20 SWAP2 PUSH2 0xA5B DUP2 MLOAD DUP1 SWAP3 DUP2 DUP6 MSTORE DUP6 DUP1 DUP7 ADD SWAP2 ADD PUSH2 0xA1F JUMP JUMPDEST PUSH1 0x1F ADD PUSH1 0x1F NOT AND ADD ADD SWAP1 JUMP JUMPDEST PUSH1 0x0 SWAP1 DUP1 DUP3 MSTORE PUSH1 0x20 SWAP1 DUP3 DUP3 MSTORE PUSH1 0x40 SWAP3 DUP4 DUP2 KECCAK256 CALLER DUP3 MSTORE DUP4 MSTORE PUSH1 0xFF DUP5 DUP3 KECCAK256 SLOAD AND ISZERO PUSH2 0xA90 JUMPI POP POP POP POP JUMP JUMPDEST DUP4 MLOAD SWAP2 PUSH8 0xFFFFFFFFFFFFFFFF SWAP1 CALLER PUSH1 0x60 DUP6 ADD DUP4 DUP2 GT DUP7 DUP3 LT OR PUSH2 0xD88 JUMPI DUP8 MSTORE PUSH1 0x2A DUP6 MSTORE DUP6 DUP6 ADD SWAP2 DUP8 CALLDATASIZE DUP5 CALLDATACOPY DUP6 MLOAD ISZERO PUSH2 0xD74 JUMPI PUSH1 0x30 DUP4 MSTORE8 DUP6 MLOAD SWAP2 PUSH1 0x1 SWAP3 DUP4 LT ISZERO PUSH2 0xD60 JUMPI PUSH1 0x78 PUSH1 0x21 DUP9 ADD MSTORE8 PUSH1 0x29 JUMPDEST DUP4 DUP2 GT PUSH2 0xCF6 JUMPI POP PUSH2 0xCB4 JUMPI SWAP1 DUP8 MLOAD SWAP4 PUSH1 0x80 DUP6 ADD SWAP1 DUP6 DUP3 LT SWAP1 DUP3 GT OR PUSH2 0xCA0 JUMPI DUP9 MSTORE PUSH1 0x42 DUP5 MSTORE DUP7 DUP5 ADD SWAP5 PUSH1 0x60 CALLDATASIZE DUP8 CALLDATACOPY DUP5 MLOAD ISZERO PUSH2 0xC8C JUMPI PUSH1 0x30 DUP7 MSTORE8 DUP5 MLOAD DUP3 LT ISZERO PUSH2 0xC8C JUMPI SWAP1 PUSH1 0x78 PUSH1 0x21 DUP7 ADD MSTORE8 PUSH1 0x41 SWAP2 JUMPDEST DUP2 DUP4 GT PUSH2 0xC1E JUMPI POP POP POP PUSH2 0xBDC JUMPI PUSH2 0xBD8 SWAP4 DUP7 SWAP4 PUSH2 0xBBC SWAP4 PUSH2 0xBAD PUSH1 0x48 SWAP5 PUSH2 0xB84 SWAP11 MLOAD SWAP11 DUP12 SWAP6 PUSH32 0x416363657373436F6E74726F6C3A206163636F756E7420000000000000000000 DUP13 DUP9 ADD MSTORE MLOAD DUP1 SWAP3 PUSH1 0x37 DUP9 ADD SWAP1 PUSH2 0xA1F JUMP JUMPDEST DUP5 ADD SWAP2 PUSH17 0x1034B99036B4B9B9B4B733903937B6329 PUSH1 0x7D SHL PUSH1 0x37 DUP5 ADD MSTORE MLOAD DUP1 SWAP4 DUP7 DUP5 ADD SWAP1 PUSH2 0xA1F JUMP JUMPDEST ADD SUB PUSH1 0x28 DUP2 ADD DUP8 MSTORE ADD DUP6 PUSH2 0xD9C JUMP JUMPDEST MLOAD SWAP3 DUP4 SWAP3 PUSH3 0x461BCD PUSH1 0xE5 SHL DUP5 MSTORE PUSH1 0x4 DUP5 ADD MSTORE PUSH1 0x24 DUP4 ADD SWAP1 PUSH2 0xA42 JUMP JUMPDEST SUB SWAP1 REVERT JUMPDEST PUSH1 0x64 DUP6 DUP8 MLOAD SWAP1 PUSH3 0x461BCD PUSH1 0xE5 SHL DUP3 MSTORE DUP1 PUSH1 0x4 DUP4 ADD MSTORE PUSH1 0x24 DUP3 ADD MSTORE PUSH32 0x537472696E67733A20686578206C656E67746820696E73756666696369656E74 PUSH1 0x44 DUP3 ADD MSTORE REVERT JUMPDEST SWAP1 SWAP2 SWAP3 PUSH1 0xF DUP2 AND PUSH1 0x10 DUP2 LT ISZERO PUSH2 0xC78 JUMPI PUSH16 0x181899199A1A9B1B9C1CB0B131B232B3 PUSH1 0x81 SHL SWAP1 BYTE PUSH2 0xC4E DUP6 DUP9 PUSH2 0xE48 JUMP JUMPDEST MSTORE8 PUSH1 0x4 SHR SWAP3 DUP1 ISZERO PUSH2 0xC64 JUMPI PUSH1 0x0 NOT ADD SWAP2 SWAP1 PUSH2 0xB2C JUMP JUMPDEST PUSH4 0x4E487B71 PUSH1 0xE0 SHL DUP3 MSTORE PUSH1 0x11 PUSH1 0x4 MSTORE PUSH1 0x24 DUP3 REVERT JUMPDEST PUSH4 0x4E487B71 PUSH1 0xE0 SHL DUP4 MSTORE PUSH1 0x32 PUSH1 0x4 MSTORE PUSH1 0x24 DUP4 REVERT JUMPDEST PUSH4 0x4E487B71 PUSH1 0xE0 SHL DUP2 MSTORE PUSH1 0x32 PUSH1 0x4 MSTORE PUSH1 0x24 SWAP1 REVERT JUMPDEST PUSH4 0x4E487B71 PUSH1 0xE0 SHL DUP7 MSTORE PUSH1 0x41 PUSH1 0x4 MSTORE PUSH1 0x24 DUP7 REVERT JUMPDEST PUSH1 0x64 DUP8 DUP10 MLOAD SWAP1 PUSH3 0x461BCD PUSH1 0xE5 SHL DUP3 MSTORE DUP1 PUSH1 0x4 DUP4 ADD MSTORE PUSH1 0x24 DUP3 ADD MSTORE PUSH32 0x537472696E67733A20686578206C656E67746820696E73756666696369656E74 PUSH1 0x44 DUP3 ADD MSTORE REVERT JUMPDEST SWAP1 PUSH1 0xF DUP2 AND PUSH1 0x10 DUP2 LT ISZERO PUSH2 0xD4C JUMPI PUSH16 0x181899199A1A9B1B9C1CB0B131B232B3 PUSH1 0x81 SHL SWAP1 BYTE PUSH2 0xD24 DUP4 DUP11 PUSH2 0xE48 JUMP JUMPDEST MSTORE8 PUSH1 0x4 SHR SWAP1 DUP1 ISZERO PUSH2 0xD38 JUMPI PUSH1 0x0 NOT ADD PUSH2 0xADD JUMP JUMPDEST PUSH4 0x4E487B71 PUSH1 0xE0 SHL DUP8 MSTORE PUSH1 0x11 PUSH1 0x4 MSTORE PUSH1 0x24 DUP8 REVERT JUMPDEST PUSH4 0x4E487B71 PUSH1 0xE0 SHL DUP9 MSTORE PUSH1 0x32 PUSH1 0x4 MSTORE PUSH1 0x24 DUP9 REVERT JUMPDEST PUSH4 0x4E487B71 PUSH1 0xE0 SHL DUP7 MSTORE PUSH1 0x32 PUSH1 0x4 MSTORE PUSH1 0x24 DUP7 REVERT JUMPDEST PUSH4 0x4E487B71 PUSH1 0xE0 SHL DUP6 MSTORE PUSH1 0x32 PUSH1 0x4 MSTORE PUSH1 0x24 DUP6 REVERT JUMPDEST PUSH4 0x4E487B71 PUSH1 0xE0 SHL DUP6 MSTORE PUSH1 0x41 PUSH1 0x4 MSTORE PUSH1 0x24 DUP6 REVERT JUMPDEST SWAP1 PUSH1 0x1F DUP1 NOT SWAP2 ADD AND DUP2 ADD SWAP1 DUP2 LT PUSH8 0xFFFFFFFFFFFFFFFF DUP3 GT OR PUSH2 0xDBE JUMPI PUSH1 0x40 MSTORE JUMP JUMPDEST PUSH4 0x4E487B71 PUSH1 0xE0 SHL PUSH1 0x0 MSTORE PUSH1 0x41 PUSH1 0x4 MSTORE PUSH1 0x24 PUSH1 0x0 REVERT JUMPDEST SWAP1 PUSH1 0x0 SWAP2 DUP1 DUP4 MSTORE DUP3 PUSH1 0x20 MSTORE PUSH1 0x40 DUP4 KECCAK256 SWAP2 PUSH1 0x1 DUP1 PUSH1 0xA0 SHL SUB AND SWAP2 DUP3 DUP5 MSTORE PUSH1 0x20 MSTORE PUSH1 0xFF PUSH1 0x40 DUP5 KECCAK256 SLOAD AND PUSH2 0xE04 JUMPI POP POP POP JUMP JUMPDEST DUP1 DUP4 MSTORE DUP3 PUSH1 0x20 MSTORE PUSH1 0x40 DUP4 KECCAK256 DUP3 DUP5 MSTORE PUSH1 0x20 MSTORE PUSH1 0x40 DUP4 KECCAK256 PUSH1 0xFF NOT DUP2 SLOAD AND SWAP1 SSTORE PUSH32 0xF6391F5C32D9C69D2A47EA670B442974B53935D1EDC7FD64EB21E047A839171B CALLER SWAP4 DUP1 LOG4 JUMP JUMPDEST SWAP1 DUP2 MLOAD DUP2 LT ISZERO PUSH2 0xE59 JUMPI ADD PUSH1 0x20 ADD SWAP1 JUMP JUMPDEST PUSH4 0x4E487B71 PUSH1 0xE0 SHL PUSH1 0x0 MSTORE PUSH1 0x32 PUSH1 0x4 MSTORE PUSH1 0x24 PUSH1 0x0 REVERT JUMPDEST SWAP1 PUSH1 0x1 DUP3 DUP2 SHR SWAP3 AND DUP1 ISZERO PUSH2 0xE9F JUMPI JUMPDEST PUSH1 0x20 DUP4 LT EQ PUSH2 0xE89 JUMPI JUMP JUMPDEST PUSH4 0x4E487B71 PUSH1 0xE0 SHL PUSH1 0x0 MSTORE PUSH1 0x22 PUSH1 0x4 MSTORE PUSH1 0x24 PUSH1 0x0 REVERT JUMPDEST SWAP2 PUSH1 0x7F AND SWAP2 PUSH2 0xE7E JUMP INVALID LOG2 PUSH5 0x6970667358 0x22 SLT KECCAK256 JUMP SWAP12 0xE1 0x28 0xDA PUSH16 0x3F7BC0C267ECFAC1F32D68FDCD01D3E5 0xD8 0xFB PUSH14 0xE0485E802AFBA664736F6C634300 ADDMOD EQ STOP CALLER "},"methodIdentifiers":{"DEFAULT_ADMIN_ROLE()":"a217fddf","ESCROW_ROLE()":"6ce76f30","GOVERNANCE_ROLE()":"f36c8f5c","ISSUER_ROLE()":"82aefa24","OPERATOR_ROLE()":"f5b541a6","ORACLE_ROLE()":"07e2cea5","getIdentity(address)":"2fea7b81","getRoleAdmin(bytes32)":"248a9ca3","grantRole(bytes32,address)":"2f2ff15d","hasRole(bytes32,address)":"91d14854","registerIdentity(address,string)":"912d3c33","renounceRole(bytes32,address)":"36568abe","revokeRole(bytes32,address)":"d547741f","supportsInterface(bytes4)":"01ffc9a7","verifyIdentity(address,bool)":"d386c3ad"}}}}}