{"contracts/governance/GovernanceDAO.sol":{"GovernanceDAO":{"abi":[{"inputs":[{"internalType":"address","name":"admin","type":"address"},{"internalType":"address","name":"_propertyToken","type":"address"}],"stateMutability":"nonpayable","type":"constructor"},{"anonymous":false,"inputs":[{"indexed":true,"internalType":"uint256","name":"proposalId","type":"uint256"},{"indexed":false,"internalType":"string","name":"description","type":"string"},{"indexed":false,"internalType":"uint64","name":"deadline","type":"uint64"}],"name":"ProposalCreated","type":"event"},{"anonymous":false,"inputs":[{"indexed":true,"internalType":"uint256","name":"proposalId","type":"uint256"}],"name":"ProposalExecuted","type":"event"},{"anonymous":false,"inputs":[{"indexed":true,"internalType":"bytes32","name":"role","type":"bytes32"},{"indexed":true,"internalType":"bytes32","name":"previousAdminRole","type":"bytes32"},{"indexed":true,"internalType":"bytes32","name":"newAdminRole","type":"bytes32"}],"name":"RoleAdminChanged","type":"event"},{"anonymous":false,"inputs":[{"indexed":true,"internalType":"bytes32","name":"role","type":"bytes32"},{"indexed":true,"internalType":"address","name":"account","type":"address"},{"indexed":true,"internalType":"address","name":"sender","type":"address"}],"name":"RoleGranted","type":"event"},{"anonymous":false,"inputs":[{"indexed":true,"internalType":"bytes32","name":"role","type":"bytes32"},{"indexed":true,"internalType":"address","name":"account","type":"address"},{"indexed":true,"internalType":"address","name":"sender","type":"address"}],"name":"RoleRevoked","type":"event"},{"anonymous":false,"inputs":[{"indexed":true,"internalType":"uint256","name":"proposalId","type":"uint256"},{"indexed":true,"internalType":"address","name":"voter","type":"address"},{"indexed":false,"internalType":"bool","name":"support","type":"bool"},{"indexed":false,"internalType":"uint256","name":"weight","type":"uint256"}],"name":"Voted","type":"event"},{"inputs":[],"name":"DEFAULT_ADMIN_ROLE","outputs":[{"internalType":"bytes32","name":"","type":"bytes32"}],"stateMutability":"view","type":"function"},{"inputs":[],"name":"ESCROW_ROLE","outputs":[{"internalType":"bytes32","name":"","type":"bytes32"}],"stateMutability":"view","type":"function"},{"inputs":[],"name":"GOVERNANCE_ROLE","outputs":[{"internalType":"bytes32","name":"","type":"bytes32"}],"stateMutability":"view","type":"function"},{"inputs":[],"name":"ISSUER_ROLE","outputs":[{"internalType":"bytes32","name":"","type":"bytes32"}],"stateMutability":"view","type":"function"},{"inputs":[],"name":"OPERATOR_ROLE","outputs":[{"internalType":"bytes32","name":"","type":"bytes32"}],"stateMutability":"view","type":"function"},{"inputs":[],"name":"ORACLE_ROLE","outputs":[{"internalType":"bytes32","name":"","type":"bytes32"}],"stateMutability":"view","type":"function"},{"inputs":[{"internalType":"string","name":"description","type":"string"},{"internalType":"uint64","name":"deadline","type":"uint64"},{"internalType":"address","name":"target","type":"address"},{"internalType":"bytes","name":"callData","type":"bytes"}],"name":"createProposal","outputs":[{"internalType":"uint256","name":"proposalId","type":"uint256"}],"stateMutability":"nonpayable","type":"function"},{"inputs":[{"internalType":"uint256","name":"proposalId","type":"uint256"}],"name":"executeProposal","outputs":[],"stateMutability":"nonpayable","type":"function"},{"inputs":[{"internalType":"uint256","name":"proposalId","type":"uint256"}],"name":"getProposal","outputs":[{"components":[{"internalType":"string","name":"description","type":"string"},{"internalType":"uint64","name":"createdAt","type":"uint64"},{"internalType":"uint64","name":"deadline","type":"uint64"},{"internalType":"uint256","name":"forVotes","type":"uint256"},{"internalType":"uint256","name":"againstVotes","type":"uint256"},{"internalType":"enum DataTypes.ProposalStatus","name":"status","type":"uint8"},{"internalType":"bytes","name":"callData","type":"bytes"},{"internalType":"address","name":"target","type":"address"}],"internalType":"struct DataTypes.Proposal","name":"","type":"tuple"}],"stateMutability":"view","type":"function"},{"inputs":[{"internalType":"bytes32","name":"role","type":"bytes32"}],"name":"getRoleAdmin","outputs":[{"internalType":"bytes32","name":"","type":"bytes32"}],"stateMutability":"view","type":"function"},{"inputs":[{"internalType":"bytes32","name":"role","type":"bytes32"},{"internalType":"address","name":"account","type":"address"}],"name":"grantRole","outputs":[],"stateMutability":"nonpayable","type":"function"},{"inputs":[{"internalType":"bytes32","name":"role","type":"bytes32"},{"internalType":"address","name":"account","type":"address"}],"name":"hasRole","outputs":[{"internalType":"bool","name":"","type":"bool"}],"stateMutability":"view","type":"function"},{"inputs":[],"name":"propertyToken","outputs":[{"internalType":"address","name":"","type":"address"}],"stateMutability":"view","type":"function"},{"inputs":[{"internalType":"bytes32","name":"role","type":"bytes32"},{"internalType":"address","name":"account","type":"address"}],"name":"renounceRole","outputs":[],"stateMutability":"nonpayable","type":"function"},{"inputs":[{"internalType":"bytes32","name":"role","type":"bytes32"},{"internalType":"address","name":"account","type":"address"}],"name":"revokeRole","outputs":[],"stateMutability":"nonpayable","type":"function"},{"inputs":[{"internalType":"bytes4","name":"interfaceId","type":"bytes4"}],"name":"supportsInterface","outputs":[{"internalType":"bool","name":"","type":"bool"}],"stateMutability":"view","type":"function"},{"inputs":[{"internalType":"uint256","name":"proposalId","type":"uint256"},{"internalType":"bool","name":"support","type":"bool"},{"internalType":"uint256","name":"propertyTokenId","type":"uint256"}],"name":"vote","outputs":[],"stateMutability":"nonpayable","type":"function"}],"evm":{"bytecode":{"linkReferences":{},"object":"60a03461021657620018ca90601f38839003908101601f19168201906001600160401b0382118383101761021b57808391604095869485528339810103126102165761004a81610231565b6100576020809301610231565b916000918280528282528483209060018060a01b031690818452825260ff8584205416156101cd575b50817f97667070c54ef182b0f5858b034beac1b6f3089aa2d3188bb1e8929f4fa9b92991828252528160018582200181815491557fbd79b86ffe0ab8e8776151514217cd7cacd52c909f66475c3af44e129f0b00ff92838380a4817f2fdac322ee704ce09f0773f7f3f92eb98d5e7c836ee9c056cccd5f61041e5e3f808252600186832001908282549255838380a4817f68e79a7bf1e0bc45d0a330c573bc367f9cf464fd326078812f301165fbda4ef1808252600186832001908282549255838380a4817f114e74f6ea3bd819998f78687bfcb11b140da08e9b7d222fa9c1f1ba1f2aa122808252600186832001908282549255838380a47f71840dc4906352362b0cdaf79870196c8e42acafade72d5d5a6d59291253ceb18083526001858420019183835493558380a46080525161168490816200024682396080518181816102220152610af10152f35b8280528282528483208184528252848320805460ff191660011790553390837f2f8788117e7eff1d82e926ec794901d17c78024a50270940304540a733656f0d8180a438610080565b600080fd5b634e487b7160e01b600052604160045260246000fd5b51906001600160a01b03821682036102165756fe608080604052600436101561001357600080fd5b60003560e01c90816301ffc9a714610f425750806307e2cea514610f075780630d61b51914610c94578063248a9ca314610c655780632f2ff15d14610bb257806336568abe14610b2057806343ae269514610adb5780636ce76f3014610aa057806382aefa2414610a655780638ea314cb146105c657806391d1485414610579578063a217fddf1461055d578063c7f758a8146103c5578063d46a5d7e14610196578063d547741f14610155578063f36c8f5c1461011a5763f5b541a6146100da57600080fd5b346101155760003660031901126101155760206040517f97667070c54ef182b0f5858b034beac1b6f3089aa2d3188bb1e8929f4fa9b9298152f35b600080fd5b346101155760003660031901126101155760206040517f71840dc4906352362b0cdaf79870196c8e42acafade72d5d5a6d59291253ceb18152f35b3461011557604036600319011261011557610194600435610174610f95565b9080600052600060205261018f600160406000200154611020565b611391565b005b34610115576060366003190112610115576004356024359081151591828103610115576101c2826115f0565b6001600160401b03600182015460401c16421161038a578260005260209060038252604060002033600052825260ff60406000205416610351576040516303ad1e5d60e61b815260448035600483015233602483015290939083908590817f00000000000000000000000000000000000000000000000000000000000000006001600160a01b03165afa93841561034557600094610316575b5083156102e157156102cc57600201610275838254611405565b90555b826000526003815260406000203360005281526040600020600160ff198254161790556040519384528301527f7c2de587c00d75474a0c6c6fa96fd3b45dc974cd4e8a75f712bb84c950dce1b560403393a3005b6003016102da838254611405565b9055610278565b60405162461bcd60e51b815260048101849052600d60248201526c111053ce9393d7d5d15251d215609a1b6044820152606490fd5b9093508281813d831161033e575b61032e8183611370565b810103126101155751928661025b565b503d610324565b6040513d6000823e3d90fd5b60405162461bcd60e51b8152600481018390526011602482015270111053ce9053149150511657d593d51151607a1b6044820152606490fd5b60405162461bcd60e51b8152602060048201526013602482015272111053ce911150511312539157d41054d4d151606a1b6044820152606490fd5b346101155760208060031936011261011557600060e06040516103e781611354565b6060815282848201528260408201528260608201528260808201528260a0820152606060c0820152015260043560005260028152604060002060405161042c81611354565b6040516104448161043d818661155a565b0382611370565b81526001820154928082016001600160401b0390818616815281604085019660401c1686526002850154916060850192835260038601546080860190815260ff6004880154169360a0870192600586101561054757610120996006968552816104f96040519b6104c38d806104bc816005860161155a565b0390611370565b60c08c019c8d5260018060a01b03998a910154169a60e081019b8c526040519d8e918c83525191610100809d8201520190610ffb565b96511660408c0152511660608a01525160808901525160a08801525190600582101561054757869561053c9260c088015251601f198783030160e0880152610ffb565b925116908301520390f35b634e487b7160e01b600052602160045260246000fd5b3461011557600036600319011261011557602060405160008152f35b3461011557604036600319011261011557610592610f95565b600435600052600060205260406000209060018060a01b0316600052602052602060ff604060002054166040519015158152f35b34610115576080366003190112610115576004356001600160401b038111610115576105f6903690600401610fab565b90602435916001600160401b038316830361011557604435916001600160a01b0383168303610115576064356001600160401b0381116101155761063e903690600401610fab565b3360009081527fee57cd81e84075558e8fcc182a1f4393f91fc97f963a136e66b7f949a62f319f6020526040902054909591949061067e9060ff16611454565b426001600160401b0383161115610a3157600154946000198614610a1b576106fb9060018701600155604051976106b489611354565b6106bf368888611495565b89526001600160401b03421660208a01526001600160401b03851660408a0152600060608a0152600060808a0152600160a08a01523691611495565b60c087015260018060a01b031660e086015260018401600052600260205260406000209480518051906001600160401b03821161098e578190610748826107428b546114cc565b8b611506565b602090601f83116001146109af576000926109a4575b50508160011b916000199060031b1c19161786555b600186016001600160401b036020830151168154906fffffffffffffffff0000000000000000604085015160401b16916fffffffffffffffffffffffffffffffff19161717905560608101516002870155608081015160038701556004860160a082015160058110156105475760ff8019835416911617905560c08101519586516001600160401b03811161098e5760209761081f8261081660058601546114cc565b60058601611506565b8890601f83116001146108f15792826001600160401b0395936006937fb743d85f809121e016ba3fc0c2319002171bc4a2a51d60bf64d7ef87b42b2a719998966000926108e6575b50508160011b916000199060031b1c19161760058201555b019060e060018060a01b03910151166bffffffffffffffffffffffff60a01b825416179055846040519360408552816040860152606085013760006060868501015216858201526060816001860194601f80199101168101030190a2600160405191018152f35b015190508c80610867565b9060058401600052896000209160005b601f19851681106109775750836006937fb743d85f809121e016ba3fc0c2319002171bc4a2a51d60bf64d7ef87b42b2a71999896936001936001600160401b039997601f1981161061095e575b505050811b01600582015561087f565b015160001960f88460031b161c191690558c808061094e565b91928b600181928685015181550194019201610901565b634e487b7160e01b600052604160045260246000fd5b01519050888061075e565b9250886000526020600020906000935b601f1984168510610a00576001945083601f198116106109e7575b505050811b018655610773565b015160001960f88460031b161c191690558880806109da565b818101518355602094850194600190930192909101906109bf565b634e487b7160e01b600052601160045260246000fd5b60405162461bcd60e51b815260206004820152600c60248201526b44414f3a444541444c494e4560a01b6044820152606490fd5b346101155760003660031901126101155760206040517f114e74f6ea3bd819998f78687bfcb11b140da08e9b7d222fa9c1f1ba1f2aa1228152f35b346101155760003660031901126101155760206040517f2fdac322ee704ce09f0773f7f3f92eb98d5e7c836ee9c056cccd5f61041e5e3f8152f35b34610115576000366003190112610115576040517f00000000000000000000000000000000000000000000000000000000000000006001600160a01b03168152602090f35b3461011557604036600319011261011557610b39610f95565b336001600160a01b03821603610b555761019490600435611391565b60405162461bcd60e51b815260206004820152602f60248201527f416363657373436f6e74726f6c3a2063616e206f6e6c792072656e6f756e636560448201526e103937b632b9903337b91039b2b63360891b6064820152608490fd5b3461011557604036600319011261011557600435610bce610f95565b816000526000602052610be8600160406000200154611020565b81600052600060205260406000209060018060a01b0316908160005260205260ff6040600020541615610c1757005b8160005260006020526040600020816000526020526040600020600160ff1982541617905533917f2f8788117e7eff1d82e926ec794901d17c78024a50270940304540a733656f0d600080a4005b346101155760203660031901126101155760043560005260006020526020600160406000200154604051908152f35b346101155760208060031936011261011557600435907f97667070c54ef182b0f5858b034beac1b6f3089aa2d3188bb1e8929f4fa9b929600052600081526040600020336000528152610cee60ff60406000205416611454565b610cf7826115f0565b60016001600160401b038183015460401c16421115610ec257600282015460038301541015610e8a5760048201805460ff1990811660021790915560068301546001600160a01b03169283151580610e75575b610d77575b857f712ae1383f79ac853f8d882153778e0260ef8f03b504e2866e0593e04d2b291f600080a2005b60050190604051926000928054610d8d816114cc565b93818416918215610e5e575050600114610e23575b50505091816000809493819403925af13d15610e1e573d610dc281611412565b90610dd06040519283611370565b81526000833d92013e5b15610de85780808080610d4f565b6064906040519062461bcd60e51b82526004820152600f60248201526e111053ce90d0531317d19052531151608a1b6044820152fd5b610dda565b909192506000528460002090856000925b848410610e4c57505050908201905081600080610da2565b80548685015292019186908201610e34565b168652505050801515028201905081600080610da2565b50610e8360058201546114cc565b1515610d4a565b60405162461bcd60e51b815260048101849052601060248201526f111053ce9393d517d054141493d5915160821b6044820152606490fd5b60405162461bcd60e51b815260048101849052601760248201527f44414f3a444541444c494e455f4e4f545f5041535345440000000000000000006044820152606490fd5b346101155760003660031901126101155760206040517f68e79a7bf1e0bc45d0a330c573bc367f9cf464fd326078812f301165fbda4ef18152f35b34610115576020366003190112610115576004359063ffffffff60e01b821680920361011557602091637965db0b60e01b8114908115610f84575b5015158152f35b6301ffc9a760e01b14905083610f7d565b602435906001600160a01b038216820361011557565b9181601f84011215610115578235916001600160401b038311610115576020838186019501011161011557565b60005b838110610feb5750506000910152565b8181015183820152602001610fdb565b9060209161101481518092818552858086019101610fd8565b601f01601f1916010190565b600090808252602090828252604092838120338252835260ff8482205416156110495750505050565b8351916001600160401b0390336060850183811186821017611340578752602a8552858501918736843785511561132c5760308353855191600192831015611318576078602188015360295b8381116112ae575061126c579087519360808501908582109082111761125857885260428452868401946060368737845115611244576030865384518210156112445790607860218601536041915b8183116111d657505050611194576111909386936111749361116560489461113c9a519a8b957f416363657373436f6e74726f6c3a206163636f756e74200000000000000000008c8801525180926037880190610fd8565b8401917001034b99036b4b9b9b4b733903937b6329607d1b603784015251809386840190610fd8565b01036028810187520185611370565b5192839262461bcd60e51b845260048401526024830190610ffb565b0390fd5b60648587519062461bcd60e51b825280600483015260248201527f537472696e67733a20686578206c656e67746820696e73756666696369656e746044820152fd5b909192600f81166010811015611230576f181899199a1a9b1b9c1cb0b131b232b360811b901a611206858861142d565b5360041c92801561121c576000190191906110e4565b634e487b7160e01b82526011600452602482fd5b634e487b7160e01b83526032600452602483fd5b634e487b7160e01b81526032600452602490fd5b634e487b7160e01b86526041600452602486fd5b60648789519062461bcd60e51b825280600483015260248201527f537472696e67733a20686578206c656e67746820696e73756666696369656e746044820152fd5b90600f81166010811015611304576f181899199a1a9b1b9c1cb0b131b232b360811b901a6112dc838a61142d565b5360041c9080156112f05760001901611095565b634e487b7160e01b87526011600452602487fd5b634e487b7160e01b88526032600452602488fd5b634e487b7160e01b86526032600452602486fd5b634e487b7160e01b85526032600452602485fd5b634e487b7160e01b85526041600452602485fd5b61010081019081106001600160401b0382111761098e57604052565b90601f801991011681019081106001600160401b0382111761098e57604052565b9060009180835282602052604083209160018060a01b03169182845260205260ff6040842054166113c157505050565b80835282602052604083208284526020526040832060ff1981541690557ff6391f5c32d9c69d2a47ea670b442974b53935d1edc7fd64eb21e047a839171b339380a4565b91908201809211610a1b57565b6001600160401b03811161098e57601f01601f191660200190565b90815181101561143e570160200190565b634e487b7160e01b600052603260045260246000fd5b1561145b57565b60405162461bcd60e51b8152602060048201526012602482015271524f4c453a4f50455241544f525f4f4e4c5960701b6044820152606490fd5b9291926114a182611412565b916114af6040519384611370565b829481845281830111610115578281602093846000960137010152565b90600182811c921680156114fc575b60208310146114e657565b634e487b7160e01b600052602260045260246000fd5b91607f16916114db565b90601f811161151457505050565b600091825260208220906020601f850160051c83019410611550575b601f0160051c01915b82811061154557505050565b818155600101611539565b9092508290611530565b906000929180549161156b836114cc565b9182825260019384811690816000146115cd575060011461158d575b50505050565b90919394506000526020928360002092846000945b8386106115b9575050505001019038808080611587565b8054858701830152940193859082016115a2565b9294505050602093945060ff191683830152151560051b01019038808080611587565b6000526002602052604060002060ff6004820154166005811015610547576001036116185790565b60405162461bcd60e51b815260206004820152600e60248201526d44414f3a4e4f545f41435449564560901b6044820152606490fdfea2646970667358221220cc0872cbb4cc634569b7e16342fb82658d1338fa83d2492ab2202b3102b457ee64736f6c63430008140033","opcodes":"PUSH1 0xA0 CALLVALUE PUSH2 0x216 JUMPI PUSH3 0x18CA SWAP1 PUSH1 0x1F CODESIZE DUP4 SWAP1 SUB SWAP1 DUP2 ADD PUSH1 0x1F NOT AND DUP3 ADD SWAP1 PUSH1 0x1 PUSH1 0x1 PUSH1 0x40 SHL SUB DUP3 GT DUP4 DUP4 LT OR PUSH2 0x21B JUMPI DUP1 DUP4 SWAP2 PUSH1 0x40 SWAP6 DUP7 SWAP5 DUP6 MSTORE DUP4 CODECOPY DUP2 ADD SUB SLT PUSH2 0x216 JUMPI PUSH2 0x4A DUP2 PUSH2 0x231 JUMP JUMPDEST PUSH2 0x57 PUSH1 0x20 DUP1 SWAP4 ADD PUSH2 0x231 JUMP JUMPDEST SWAP2 PUSH1 0x0 SWAP2 DUP3 DUP1 MSTORE DUP3 DUP3 MSTORE DUP5 DUP4 KECCAK256 SWAP1 PUSH1 0x1 DUP1 PUSH1 0xA0 SHL SUB AND SWAP1 DUP2 DUP5 MSTORE DUP3 MSTORE PUSH1 0xFF DUP6 DUP5 KECCAK256 SLOAD AND ISZERO PUSH2 0x1CD JUMPI JUMPDEST POP DUP2 PUSH32 0x97667070C54EF182B0F5858B034BEAC1B6F3089AA2D3188BB1E8929F4FA9B929 SWAP2 DUP3 DUP3 MSTORE MSTORE DUP2 PUSH1 0x1 DUP6 DUP3 KECCAK256 ADD DUP2 DUP2 SLOAD SWAP2 SSTORE PUSH32 0xBD79B86FFE0AB8E8776151514217CD7CACD52C909F66475C3AF44E129F0B00FF SWAP3 DUP4 DUP4 DUP1 LOG4 DUP2 PUSH32 0x2FDAC322EE704CE09F0773F7F3F92EB98D5E7C836EE9C056CCCD5F61041E5E3F DUP1 DUP3 MSTORE PUSH1 0x1 DUP7 DUP4 KECCAK256 ADD SWAP1 DUP3 DUP3 SLOAD SWAP3 SSTORE DUP4 DUP4 DUP1 LOG4 DUP2 PUSH32 0x68E79A7BF1E0BC45D0A330C573BC367F9CF464FD326078812F301165FBDA4EF1 DUP1 DUP3 MSTORE PUSH1 0x1 DUP7 DUP4 KECCAK256 ADD SWAP1 DUP3 DUP3 SLOAD SWAP3 SSTORE DUP4 DUP4 DUP1 LOG4 DUP2 PUSH32 0x114E74F6EA3BD819998F78687BFCB11B140DA08E9B7D222FA9C1F1BA1F2AA122 DUP1 DUP3 MSTORE PUSH1 0x1 DUP7 DUP4 KECCAK256 ADD SWAP1 DUP3 DUP3 SLOAD SWAP3 SSTORE DUP4 DUP4 DUP1 LOG4 PUSH32 0x71840DC4906352362B0CDAF79870196C8E42ACAFADE72D5D5A6D59291253CEB1 DUP1 DUP4 MSTORE PUSH1 0x1 DUP6 DUP5 KECCAK256 ADD SWAP2 DUP4 DUP4 SLOAD SWAP4 SSTORE DUP4 DUP1 LOG4 PUSH1 0x80 MSTORE MLOAD PUSH2 0x1684 SWAP1 DUP2 PUSH3 0x246 DUP3 CODECOPY PUSH1 0x80 MLOAD DUP2 DUP2 DUP2 PUSH2 0x222 ADD MSTORE PUSH2 0xAF1 ADD MSTORE RETURN JUMPDEST DUP3 DUP1 MSTORE DUP3 DUP3 MSTORE DUP5 DUP4 KECCAK256 DUP2 DUP5 MSTORE DUP3 MSTORE DUP5 DUP4 KECCAK256 DUP1 SLOAD PUSH1 0xFF NOT AND PUSH1 0x1 OR SWAP1 SSTORE CALLER SWAP1 DUP4 PUSH32 0x2F8788117E7EFF1D82E926EC794901D17C78024A50270940304540A733656F0D DUP2 DUP1 LOG4 CODESIZE PUSH2 0x80 JUMP JUMPDEST PUSH1 0x0 DUP1 REVERT JUMPDEST PUSH4 0x4E487B71 PUSH1 0xE0 SHL PUSH1 0x0 MSTORE PUSH1 0x41 PUSH1 0x4 MSTORE PUSH1 0x24 PUSH1 0x0 REVERT JUMPDEST MLOAD SWAP1 PUSH1 0x1 PUSH1 0x1 PUSH1 0xA0 SHL SUB DUP3 AND DUP3 SUB PUSH2 0x216 JUMPI JUMP INVALID PUSH1 0x80 DUP1 PUSH1 0x40 MSTORE PUSH1 0x4 CALLDATASIZE LT ISZERO PUSH2 0x13 JUMPI PUSH1 0x0 DUP1 REVERT JUMPDEST PUSH1 0x0 CALLDATALOAD PUSH1 0xE0 SHR SWAP1 DUP2 PUSH4 0x1FFC9A7 EQ PUSH2 0xF42 JUMPI POP DUP1 PUSH4 0x7E2CEA5 EQ PUSH2 0xF07 JUMPI DUP1 PUSH4 0xD61B519 EQ PUSH2 0xC94 JUMPI DUP1 PUSH4 0x248A9CA3 EQ PUSH2 0xC65 JUMPI DUP1 PUSH4 0x2F2FF15D EQ PUSH2 0xBB2 JUMPI DUP1 PUSH4 0x36568ABE EQ PUSH2 0xB20 JUMPI DUP1 PUSH4 0x43AE2695 EQ PUSH2 0xADB JUMPI DUP1 PUSH4 0x6CE76F30 EQ PUSH2 0xAA0 JUMPI DUP1 PUSH4 0x82AEFA24 EQ PUSH2 0xA65 JUMPI DUP1 PUSH4 0x8EA314CB EQ PUSH2 0x5C6 JUMPI DUP1 PUSH4 0x91D14854 EQ PUSH2 0x579 JUMPI DUP1 PUSH4 0xA217FDDF EQ PUSH2 0x55D JUMPI DUP1 PUSH4 0xC7F758A8 EQ PUSH2 0x3C5 JUMPI DUP1 PUSH4 0xD46A5D7E EQ PUSH2 0x196 JUMPI DUP1 PUSH4 0xD547741F EQ PUSH2 0x155 JUMPI DUP1 PUSH4 0xF36C8F5C EQ PUSH2 0x11A JUMPI PUSH4 0xF5B541A6 EQ PUSH2 0xDA JUMPI PUSH1 0x0 DUP1 REVERT JUMPDEST CALLVALUE PUSH2 0x115 JUMPI PUSH1 0x0 CALLDATASIZE PUSH1 0x3 NOT ADD SLT PUSH2 0x115 JUMPI PUSH1 0x20 PUSH1 0x40 MLOAD PUSH32 0x97667070C54EF182B0F5858B034BEAC1B6F3089AA2D3188BB1E8929F4FA9B929 DUP2 MSTORE RETURN JUMPDEST PUSH1 0x0 DUP1 REVERT JUMPDEST CALLVALUE PUSH2 0x115 JUMPI PUSH1 0x0 CALLDATASIZE PUSH1 0x3 NOT ADD SLT PUSH2 0x115 JUMPI PUSH1 0x20 PUSH1 0x40 MLOAD PUSH32 0x71840DC4906352362B0CDAF79870196C8E42ACAFADE72D5D5A6D59291253CEB1 DUP2 MSTORE RETURN JUMPDEST CALLVALUE PUSH2 0x115 JUMPI PUSH1 0x40 CALLDATASIZE PUSH1 0x3 NOT ADD SLT PUSH2 0x115 JUMPI PUSH2 0x194 PUSH1 0x4 CALLDATALOAD PUSH2 0x174 PUSH2 0xF95 JUMP JUMPDEST SWAP1 DUP1 PUSH1 0x0 MSTORE PUSH1 0x0 PUSH1 0x20 MSTORE PUSH2 0x18F PUSH1 0x1 PUSH1 0x40 PUSH1 0x0 KECCAK256 ADD SLOAD PUSH2 0x1020 JUMP JUMPDEST PUSH2 0x1391 JUMP JUMPDEST STOP JUMPDEST CALLVALUE PUSH2 0x115 JUMPI PUSH1 0x60 CALLDATASIZE PUSH1 0x3 NOT ADD SLT PUSH2 0x115 JUMPI PUSH1 0x4 CALLDATALOAD PUSH1 0x24 CALLDATALOAD SWAP1 DUP2 ISZERO ISZERO SWAP2 DUP3 DUP2 SUB PUSH2 0x115 JUMPI PUSH2 0x1C2 DUP3 PUSH2 0x15F0 JUMP JUMPDEST PUSH1 0x1 PUSH1 0x1 PUSH1 0x40 SHL SUB PUSH1 0x1 DUP3 ADD SLOAD PUSH1 0x40 SHR AND TIMESTAMP GT PUSH2 0x38A JUMPI DUP3 PUSH1 0x0 MSTORE PUSH1 0x20 SWAP1 PUSH1 0x3 DUP3 MSTORE PUSH1 0x40 PUSH1 0x0 KECCAK256 CALLER PUSH1 0x0 MSTORE DUP3 MSTORE PUSH1 0xFF PUSH1 0x40 PUSH1 0x0 KECCAK256 SLOAD AND PUSH2 0x351 JUMPI PUSH1 0x40 MLOAD PUSH4 0x3AD1E5D PUSH1 0xE6 SHL DUP2 MSTORE PUSH1 0x44 DUP1 CALLDATALOAD PUSH1 0x4 DUP4 ADD MSTORE CALLER PUSH1 0x24 DUP4 ADD MSTORE SWAP1 SWAP4 SWAP1 DUP4 SWAP1 DUP6 SWAP1 DUP2 PUSH32 0x0 PUSH1 0x1 PUSH1 0x1 PUSH1 0xA0 SHL SUB AND GAS STATICCALL SWAP4 DUP5 ISZERO PUSH2 0x345 JUMPI PUSH1 0x0 SWAP5 PUSH2 0x316 JUMPI JUMPDEST POP DUP4 ISZERO PUSH2 0x2E1 JUMPI ISZERO PUSH2 0x2CC JUMPI PUSH1 0x2 ADD PUSH2 0x275 DUP4 DUP3 SLOAD PUSH2 0x1405 JUMP JUMPDEST SWAP1 SSTORE JUMPDEST DUP3 PUSH1 0x0 MSTORE PUSH1 0x3 DUP2 MSTORE PUSH1 0x40 PUSH1 0x0 KECCAK256 CALLER PUSH1 0x0 MSTORE DUP2 MSTORE PUSH1 0x40 PUSH1 0x0 KECCAK256 PUSH1 0x1 PUSH1 0xFF NOT DUP3 SLOAD AND OR SWAP1 SSTORE PUSH1 0x40 MLOAD SWAP4 DUP5 MSTORE DUP4 ADD MSTORE PUSH32 0x7C2DE587C00D75474A0C6C6FA96FD3B45DC974CD4E8A75F712BB84C950DCE1B5 PUSH1 0x40 CALLER SWAP4 LOG3 STOP JUMPDEST PUSH1 0x3 ADD PUSH2 0x2DA DUP4 DUP3 SLOAD PUSH2 0x1405 JUMP JUMPDEST SWAP1 SSTORE PUSH2 0x278 JUMP JUMPDEST PUSH1 0x40 MLOAD PUSH3 0x461BCD PUSH1 0xE5 SHL DUP2 MSTORE PUSH1 0x4 DUP2 ADD DUP5 SWAP1 MSTORE PUSH1 0xD PUSH1 0x24 DUP3 ADD MSTORE PUSH13 0x111053CE9393D7D5D15251D215 PUSH1 0x9A SHL PUSH1 0x44 DUP3 ADD MSTORE PUSH1 0x64 SWAP1 REVERT JUMPDEST SWAP1 SWAP4 POP DUP3 DUP2 DUP2 RETURNDATASIZE DUP4 GT PUSH2 0x33E JUMPI JUMPDEST PUSH2 0x32E DUP2 DUP4 PUSH2 0x1370 JUMP JUMPDEST DUP2 ADD SUB SLT PUSH2 0x115 JUMPI MLOAD SWAP3 DUP7 PUSH2 0x25B JUMP JUMPDEST POP RETURNDATASIZE PUSH2 0x324 JUMP JUMPDEST PUSH1 0x40 MLOAD RETURNDATASIZE PUSH1 0x0 DUP3 RETURNDATACOPY RETURNDATASIZE SWAP1 REVERT JUMPDEST PUSH1 0x40 MLOAD PUSH3 0x461BCD PUSH1 0xE5 SHL DUP2 MSTORE PUSH1 0x4 DUP2 ADD DUP4 SWAP1 MSTORE PUSH1 0x11 PUSH1 0x24 DUP3 ADD MSTORE PUSH17 0x111053CE9053149150511657D593D51151 PUSH1 0x7A SHL PUSH1 0x44 DUP3 ADD MSTORE PUSH1 0x64 SWAP1 REVERT JUMPDEST PUSH1 0x40 MLOAD PUSH3 0x461BCD PUSH1 0xE5 SHL DUP2 MSTORE PUSH1 0x20 PUSH1 0x4 DUP3 ADD MSTORE PUSH1 0x13 PUSH1 0x24 DUP3 ADD MSTORE PUSH19 0x111053CE911150511312539157D41054D4D151 PUSH1 0x6A SHL PUSH1 0x44 DUP3 ADD MSTORE PUSH1 0x64 SWAP1 REVERT JUMPDEST CALLVALUE PUSH2 0x115 JUMPI PUSH1 0x20 DUP1 PUSH1 0x3 NOT CALLDATASIZE ADD SLT PUSH2 0x115 JUMPI PUSH1 0x0 PUSH1 0xE0 PUSH1 0x40 MLOAD PUSH2 0x3E7 DUP2 PUSH2 0x1354 JUMP JUMPDEST PUSH1 0x60 DUP2 MSTORE DUP3 DUP5 DUP3 ADD MSTORE DUP3 PUSH1 0x40 DUP3 ADD MSTORE DUP3 PUSH1 0x60 DUP3 ADD MSTORE DUP3 PUSH1 0x80 DUP3 ADD MSTORE DUP3 PUSH1 0xA0 DUP3 ADD MSTORE PUSH1 0x60 PUSH1 0xC0 DUP3 ADD MSTORE ADD MSTORE PUSH1 0x4 CALLDATALOAD PUSH1 0x0 MSTORE PUSH1 0x2 DUP2 MSTORE PUSH1 0x40 PUSH1 0x0 KECCAK256 PUSH1 0x40 MLOAD PUSH2 0x42C DUP2 PUSH2 0x1354 JUMP JUMPDEST PUSH1 0x40 MLOAD PUSH2 0x444 DUP2 PUSH2 0x43D DUP2 DUP7 PUSH2 0x155A JUMP JUMPDEST SUB DUP3 PUSH2 0x1370 JUMP JUMPDEST DUP2 MSTORE PUSH1 0x1 DUP3 ADD SLOAD SWAP3 DUP1 DUP3 ADD PUSH1 0x1 PUSH1 0x1 PUSH1 0x40 SHL SUB SWAP1 DUP2 DUP7 AND DUP2 MSTORE DUP2 PUSH1 0x40 DUP6 ADD SWAP7 PUSH1 0x40 SHR AND DUP7 MSTORE PUSH1 0x2 DUP6 ADD SLOAD SWAP2 PUSH1 0x60 DUP6 ADD SWAP3 DUP4 MSTORE PUSH1 0x3 DUP7 ADD SLOAD PUSH1 0x80 DUP7 ADD SWAP1 DUP2 MSTORE PUSH1 0xFF PUSH1 0x4 DUP9 ADD SLOAD AND SWAP4 PUSH1 0xA0 DUP8 ADD SWAP3 PUSH1 0x5 DUP7 LT ISZERO PUSH2 0x547 JUMPI PUSH2 0x120 SWAP10 PUSH1 0x6 SWAP7 DUP6 MSTORE DUP2 PUSH2 0x4F9 PUSH1 0x40 MLOAD SWAP12 PUSH2 0x4C3 DUP14 DUP1 PUSH2 0x4BC DUP2 PUSH1 0x5 DUP7 ADD PUSH2 0x155A JUMP JUMPDEST SUB SWAP1 PUSH2 0x1370 JUMP JUMPDEST PUSH1 0xC0 DUP13 ADD SWAP13 DUP14 MSTORE PUSH1 0x1 DUP1 PUSH1 0xA0 SHL SUB SWAP10 DUP11 SWAP2 ADD SLOAD AND SWAP11 PUSH1 0xE0 DUP2 ADD SWAP12 DUP13 MSTORE PUSH1 0x40 MLOAD SWAP14 DUP15 SWAP2 DUP13 DUP4 MSTORE MLOAD SWAP2 PUSH2 0x100 DUP1 SWAP14 DUP3 ADD MSTORE ADD SWAP1 PUSH2 0xFFB JUMP JUMPDEST SWAP7 MLOAD AND PUSH1 0x40 DUP13 ADD MSTORE MLOAD AND PUSH1 0x60 DUP11 ADD MSTORE MLOAD PUSH1 0x80 DUP10 ADD MSTORE MLOAD PUSH1 0xA0 DUP9 ADD MSTORE MLOAD SWAP1 PUSH1 0x5 DUP3 LT ISZERO PUSH2 0x547 JUMPI DUP7 SWAP6 PUSH2 0x53C SWAP3 PUSH1 0xC0 DUP9 ADD MSTORE MLOAD PUSH1 0x1F NOT DUP8 DUP4 SUB ADD PUSH1 0xE0 DUP9 ADD MSTORE PUSH2 0xFFB JUMP JUMPDEST SWAP3 MLOAD AND SWAP1 DUP4 ADD MSTORE SUB SWAP1 RETURN JUMPDEST PUSH4 0x4E487B71 PUSH1 0xE0 SHL PUSH1 0x0 MSTORE PUSH1 0x21 PUSH1 0x4 MSTORE PUSH1 0x24 PUSH1 0x0 REVERT JUMPDEST CALLVALUE PUSH2 0x115 JUMPI PUSH1 0x0 CALLDATASIZE PUSH1 0x3 NOT ADD SLT PUSH2 0x115 JUMPI PUSH1 0x20 PUSH1 0x40 MLOAD PUSH1 0x0 DUP2 MSTORE RETURN JUMPDEST CALLVALUE PUSH2 0x115 JUMPI PUSH1 0x40 CALLDATASIZE PUSH1 0x3 NOT ADD SLT PUSH2 0x115 JUMPI PUSH2 0x592 PUSH2 0xF95 JUMP JUMPDEST PUSH1 0x4 CALLDATALOAD PUSH1 0x0 MSTORE PUSH1 0x0 PUSH1 0x20 MSTORE PUSH1 0x40 PUSH1 0x0 KECCAK256 SWAP1 PUSH1 0x1 DUP1 PUSH1 0xA0 SHL SUB AND PUSH1 0x0 MSTORE PUSH1 0x20 MSTORE PUSH1 0x20 PUSH1 0xFF PUSH1 0x40 PUSH1 0x0 KECCAK256 SLOAD AND PUSH1 0x40 MLOAD SWAP1 ISZERO ISZERO DUP2 MSTORE RETURN JUMPDEST CALLVALUE PUSH2 0x115 JUMPI PUSH1 0x80 CALLDATASIZE PUSH1 0x3 NOT ADD SLT PUSH2 0x115 JUMPI PUSH1 0x4 CALLDATALOAD PUSH1 0x1 PUSH1 0x1 PUSH1 0x40 SHL SUB DUP2 GT PUSH2 0x115 JUMPI PUSH2 0x5F6 SWAP1 CALLDATASIZE SWAP1 PUSH1 0x4 ADD PUSH2 0xFAB JUMP JUMPDEST SWAP1 PUSH1 0x24 CALLDATALOAD SWAP2 PUSH1 0x1 PUSH1 0x1 PUSH1 0x40 SHL SUB DUP4 AND DUP4 SUB PUSH2 0x115 JUMPI PUSH1 0x44 CALLDATALOAD SWAP2 PUSH1 0x1 PUSH1 0x1 PUSH1 0xA0 SHL SUB DUP4 AND DUP4 SUB PUSH2 0x115 JUMPI PUSH1 0x64 CALLDATALOAD PUSH1 0x1 PUSH1 0x1 PUSH1 0x40 SHL SUB DUP2 GT PUSH2 0x115 JUMPI PUSH2 0x63E SWAP1 CALLDATASIZE SWAP1 PUSH1 0x4 ADD PUSH2 0xFAB JUMP JUMPDEST CALLER PUSH1 0x0 SWAP1 DUP2 MSTORE PUSH32 0xEE57CD81E84075558E8FCC182A1F4393F91FC97F963A136E66B7F949A62F319F PUSH1 0x20 MSTORE PUSH1 0x40 SWAP1 KECCAK256 SLOAD SWAP1 SWAP6 SWAP2 SWAP5 SWAP1 PUSH2 0x67E SWAP1 PUSH1 0xFF AND PUSH2 0x1454 JUMP JUMPDEST TIMESTAMP PUSH1 0x1 PUSH1 0x1 PUSH1 0x40 SHL SUB DUP4 AND GT ISZERO PUSH2 0xA31 JUMPI PUSH1 0x1 SLOAD SWAP5 PUSH1 0x0 NOT DUP7 EQ PUSH2 0xA1B JUMPI PUSH2 0x6FB SWAP1 PUSH1 0x1 DUP8 ADD PUSH1 0x1 SSTORE PUSH1 0x40 MLOAD SWAP8 PUSH2 0x6B4 DUP10 PUSH2 0x1354 JUMP JUMPDEST PUSH2 0x6BF CALLDATASIZE DUP9 DUP9 PUSH2 0x1495 JUMP JUMPDEST DUP10 MSTORE PUSH1 0x1 PUSH1 0x1 PUSH1 0x40 SHL SUB TIMESTAMP AND PUSH1 0x20 DUP11 ADD MSTORE PUSH1 0x1 PUSH1 0x1 PUSH1 0x40 SHL SUB DUP6 AND PUSH1 0x40 DUP11 ADD MSTORE PUSH1 0x0 PUSH1 0x60 DUP11 ADD MSTORE PUSH1 0x0 PUSH1 0x80 DUP11 ADD MSTORE PUSH1 0x1 PUSH1 0xA0 DUP11 ADD MSTORE CALLDATASIZE SWAP2 PUSH2 0x1495 JUMP JUMPDEST PUSH1 0xC0 DUP8 ADD MSTORE PUSH1 0x1 DUP1 PUSH1 0xA0 SHL SUB AND PUSH1 0xE0 DUP7 ADD MSTORE PUSH1 0x1 DUP5 ADD PUSH1 0x0 MSTORE PUSH1 0x2 PUSH1 0x20 MSTORE PUSH1 0x40 PUSH1 0x0 KECCAK256 SWAP5 DUP1 MLOAD DUP1 MLOAD SWAP1 PUSH1 0x1 PUSH1 0x1 PUSH1 0x40 SHL SUB DUP3 GT PUSH2 0x98E JUMPI DUP2 SWAP1 PUSH2 0x748 DUP3 PUSH2 0x742 DUP12 SLOAD PUSH2 0x14CC JUMP JUMPDEST DUP12 PUSH2 0x1506 JUMP JUMPDEST PUSH1 0x20 SWAP1 PUSH1 0x1F DUP4 GT PUSH1 0x1 EQ PUSH2 0x9AF JUMPI PUSH1 0x0 SWAP3 PUSH2 0x9A4 JUMPI JUMPDEST POP POP DUP2 PUSH1 0x1 SHL SWAP2 PUSH1 0x0 NOT SWAP1 PUSH1 0x3 SHL SHR NOT AND OR DUP7 SSTORE JUMPDEST PUSH1 0x1 DUP7 ADD PUSH1 0x1 PUSH1 0x1 PUSH1 0x40 SHL SUB PUSH1 0x20 DUP4 ADD MLOAD AND DUP2 SLOAD SWAP1 PUSH16 0xFFFFFFFFFFFFFFFF0000000000000000 PUSH1 0x40 DUP6 ADD MLOAD PUSH1 0x40 SHL AND SWAP2 PUSH16 0xFFFFFFFFFFFFFFFFFFFFFFFFFFFFFFFF NOT AND OR OR SWAP1 SSTORE PUSH1 0x60 DUP2 ADD MLOAD PUSH1 0x2 DUP8 ADD SSTORE PUSH1 0x80 DUP2 ADD MLOAD PUSH1 0x3 DUP8 ADD SSTORE PUSH1 0x4 DUP7 ADD PUSH1 0xA0 DUP3 ADD MLOAD PUSH1 0x5 DUP2 LT ISZERO PUSH2 0x547 JUMPI PUSH1 0xFF DUP1 NOT DUP4 SLOAD AND SWAP2 AND OR SWAP1 SSTORE PUSH1 0xC0 DUP2 ADD MLOAD SWAP6 DUP7 MLOAD PUSH1 0x1 PUSH1 0x1 PUSH1 0x40 SHL SUB DUP2 GT PUSH2 0x98E JUMPI PUSH1 0x20 SWAP8 PUSH2 0x81F DUP3 PUSH2 0x816 PUSH1 0x5 DUP7 ADD SLOAD PUSH2 0x14CC JUMP JUMPDEST PUSH1 0x5 DUP7 ADD PUSH2 0x1506 JUMP JUMPDEST DUP9 SWAP1 PUSH1 0x1F DUP4 GT PUSH1 0x1 EQ PUSH2 0x8F1 JUMPI SWAP3 DUP3 PUSH1 0x1 PUSH1 0x1 PUSH1 0x40 SHL SUB SWAP6 SWAP4 PUSH1 0x6 SWAP4 PUSH32 0xB743D85F809121E016BA3FC0C2319002171BC4A2A51D60BF64D7EF87B42B2A71 SWAP10 SWAP9 SWAP7 PUSH1 0x0 SWAP3 PUSH2 0x8E6 JUMPI JUMPDEST POP POP DUP2 PUSH1 0x1 SHL SWAP2 PUSH1 0x0 NOT SWAP1 PUSH1 0x3 SHL SHR NOT AND OR PUSH1 0x5 DUP3 ADD SSTORE JUMPDEST ADD SWAP1 PUSH1 0xE0 PUSH1 0x1 DUP1 PUSH1 0xA0 SHL SUB SWAP2 ADD MLOAD AND PUSH12 0xFFFFFFFFFFFFFFFFFFFFFFFF PUSH1 0xA0 SHL DUP3 SLOAD AND OR SWAP1 SSTORE DUP5 PUSH1 0x40 MLOAD SWAP4 PUSH1 0x40 DUP6 MSTORE DUP2 PUSH1 0x40 DUP7 ADD MSTORE PUSH1 0x60 DUP6 ADD CALLDATACOPY PUSH1 0x0 PUSH1 0x60 DUP7 DUP6 ADD ADD MSTORE AND DUP6 DUP3 ADD MSTORE PUSH1 0x60 DUP2 PUSH1 0x1 DUP7 ADD SWAP5 PUSH1 0x1F DUP1 NOT SWAP2 ADD AND DUP2 ADD SUB ADD SWAP1 LOG2 PUSH1 0x1 PUSH1 0x40 MLOAD SWAP2 ADD DUP2 MSTORE RETURN JUMPDEST ADD MLOAD SWAP1 POP DUP13 DUP1 PUSH2 0x867 JUMP JUMPDEST SWAP1 PUSH1 0x5 DUP5 ADD PUSH1 0x0 MSTORE DUP10 PUSH1 0x0 KECCAK256 SWAP2 PUSH1 0x0 JUMPDEST PUSH1 0x1F NOT DUP6 AND DUP2 LT PUSH2 0x977 JUMPI POP DUP4 PUSH1 0x6 SWAP4 PUSH32 0xB743D85F809121E016BA3FC0C2319002171BC4A2A51D60BF64D7EF87B42B2A71 SWAP10 SWAP9 SWAP7 SWAP4 PUSH1 0x1 SWAP4 PUSH1 0x1 PUSH1 0x1 PUSH1 0x40 SHL SUB SWAP10 SWAP8 PUSH1 0x1F NOT DUP2 AND LT PUSH2 0x95E JUMPI JUMPDEST POP POP POP DUP2 SHL ADD PUSH1 0x5 DUP3 ADD SSTORE PUSH2 0x87F JUMP JUMPDEST ADD MLOAD PUSH1 0x0 NOT PUSH1 0xF8 DUP5 PUSH1 0x3 SHL AND SHR NOT AND SWAP1 SSTORE DUP13 DUP1 DUP1 PUSH2 0x94E JUMP JUMPDEST SWAP2 SWAP3 DUP12 PUSH1 0x1 DUP2 SWAP3 DUP7 DUP6 ADD MLOAD DUP2 SSTORE ADD SWAP5 ADD SWAP3 ADD PUSH2 0x901 JUMP JUMPDEST PUSH4 0x4E487B71 PUSH1 0xE0 SHL PUSH1 0x0 MSTORE PUSH1 0x41 PUSH1 0x4 MSTORE PUSH1 0x24 PUSH1 0x0 REVERT JUMPDEST ADD MLOAD SWAP1 POP DUP9 DUP1 PUSH2 0x75E JUMP JUMPDEST SWAP3 POP DUP9 PUSH1 0x0 MSTORE PUSH1 0x20 PUSH1 0x0 KECCAK256 SWAP1 PUSH1 0x0 SWAP4 JUMPDEST PUSH1 0x1F NOT DUP5 AND DUP6 LT PUSH2 0xA00 JUMPI PUSH1 0x1 SWAP5 POP DUP4 PUSH1 0x1F NOT DUP2 AND LT PUSH2 0x9E7 JUMPI JUMPDEST POP POP POP DUP2 SHL ADD DUP7 SSTORE PUSH2 0x773 JUMP JUMPDEST ADD MLOAD PUSH1 0x0 NOT PUSH1 0xF8 DUP5 PUSH1 0x3 SHL AND SHR NOT AND SWAP1 SSTORE DUP9 DUP1 DUP1 PUSH2 0x9DA JUMP JUMPDEST DUP2 DUP2 ADD MLOAD DUP4 SSTORE PUSH1 0x20 SWAP5 DUP6 ADD SWAP5 PUSH1 0x1 SWAP1 SWAP4 ADD SWAP3 SWAP1 SWAP2 ADD SWAP1 PUSH2 0x9BF JUMP JUMPDEST PUSH4 0x4E487B71 PUSH1 0xE0 SHL PUSH1 0x0 MSTORE PUSH1 0x11 PUSH1 0x4 MSTORE PUSH1 0x24 PUSH1 0x0 REVERT JUMPDEST PUSH1 0x40 MLOAD PUSH3 0x461BCD PUSH1 0xE5 SHL DUP2 MSTORE PUSH1 0x20 PUSH1 0x4 DUP3 ADD MSTORE PUSH1 0xC PUSH1 0x24 DUP3 ADD MSTORE PUSH12 0x44414F3A444541444C494E45 PUSH1 0xA0 SHL PUSH1 0x44 DUP3 ADD MSTORE PUSH1 0x64 SWAP1 REVERT JUMPDEST CALLVALUE PUSH2 0x115 JUMPI PUSH1 0x0 CALLDATASIZE PUSH1 0x3 NOT ADD SLT PUSH2 0x115 JUMPI PUSH1 0x20 PUSH1 0x40 MLOAD PUSH32 0x114E74F6EA3BD819998F78687BFCB11B140DA08E9B7D222FA9C1F1BA1F2AA122 DUP2 MSTORE RETURN JUMPDEST CALLVALUE PUSH2 0x115 JUMPI PUSH1 0x0 CALLDATASIZE PUSH1 0x3 NOT ADD SLT PUSH2 0x115 JUMPI PUSH1 0x20 PUSH1 0x40 MLOAD PUSH32 0x2FDAC322EE704CE09F0773F7F3F92EB98D5E7C836EE9C056CCCD5F61041E5E3F DUP2 MSTORE RETURN JUMPDEST CALLVALUE PUSH2 0x115 JUMPI PUSH1 0x0 CALLDATASIZE PUSH1 0x3 NOT ADD SLT PUSH2 0x115 JUMPI PUSH1 0x40 MLOAD PUSH32 0x0 PUSH1 0x1 PUSH1 0x1 PUSH1 0xA0 SHL SUB AND DUP2 MSTORE PUSH1 0x20 SWAP1 RETURN JUMPDEST CALLVALUE PUSH2 0x115 JUMPI PUSH1 0x40 CALLDATASIZE PUSH1 0x3 NOT ADD SLT PUSH2 0x115 JUMPI PUSH2 0xB39 PUSH2 0xF95 JUMP JUMPDEST CALLER PUSH1 0x1 PUSH1 0x1 PUSH1 0xA0 SHL SUB DUP3 AND SUB PUSH2 0xB55 JUMPI PUSH2 0x194 SWAP1 PUSH1 0x4 CALLDATALOAD PUSH2 0x1391 JUMP JUMPDEST PUSH1 0x40 MLOAD PUSH3 0x461BCD PUSH1 0xE5 SHL DUP2 MSTORE PUSH1 0x20 PUSH1 0x4 DUP3 ADD MSTORE PUSH1 0x2F PUSH1 0x24 DUP3 ADD MSTORE PUSH32 0x416363657373436F6E74726F6C3A2063616E206F6E6C792072656E6F756E6365 PUSH1 0x44 DUP3 ADD MSTORE PUSH15 0x103937B632B9903337B91039B2B633 PUSH1 0x89 SHL PUSH1 0x64 DUP3 ADD MSTORE PUSH1 0x84 SWAP1 REVERT JUMPDEST CALLVALUE PUSH2 0x115 JUMPI PUSH1 0x40 CALLDATASIZE PUSH1 0x3 NOT ADD SLT PUSH2 0x115 JUMPI PUSH1 0x4 CALLDATALOAD PUSH2 0xBCE PUSH2 0xF95 JUMP JUMPDEST DUP2 PUSH1 0x0 MSTORE PUSH1 0x0 PUSH1 0x20 MSTORE PUSH2 0xBE8 PUSH1 0x1 PUSH1 0x40 PUSH1 0x0 KECCAK256 ADD SLOAD PUSH2 0x1020 JUMP JUMPDEST DUP2 PUSH1 0x0 MSTORE PUSH1 0x0 PUSH1 0x20 MSTORE PUSH1 0x40 PUSH1 0x0 KECCAK256 SWAP1 PUSH1 0x1 DUP1 PUSH1 0xA0 SHL SUB AND SWAP1 DUP2 PUSH1 0x0 MSTORE PUSH1 0x20 MSTORE PUSH1 0xFF PUSH1 0x40 PUSH1 0x0 KECCAK256 SLOAD AND ISZERO PUSH2 0xC17 JUMPI STOP JUMPDEST DUP2 PUSH1 0x0 MSTORE PUSH1 0x0 PUSH1 0x20 MSTORE PUSH1 0x40 PUSH1 0x0 KECCAK256 DUP2 PUSH1 0x0 MSTORE PUSH1 0x20 MSTORE PUSH1 0x40 PUSH1 0x0 KECCAK256 PUSH1 0x1 PUSH1 0xFF NOT DUP3 SLOAD AND OR SWAP1 SSTORE CALLER SWAP2 PUSH32 0x2F8788117E7EFF1D82E926EC794901D17C78024A50270940304540A733656F0D PUSH1 0x0 DUP1 LOG4 STOP JUMPDEST CALLVALUE PUSH2 0x115 JUMPI PUSH1 0x20 CALLDATASIZE PUSH1 0x3 NOT ADD SLT PUSH2 0x115 JUMPI PUSH1 0x4 CALLDATALOAD PUSH1 0x0 MSTORE PUSH1 0x0 PUSH1 0x20 MSTORE PUSH1 0x20 PUSH1 0x1 PUSH1 0x40 PUSH1 0x0 KECCAK256 ADD SLOAD PUSH1 0x40 MLOAD SWAP1 DUP2 MSTORE RETURN JUMPDEST CALLVALUE PUSH2 0x115 JUMPI PUSH1 0x20 DUP1 PUSH1 0x3 NOT CALLDATASIZE ADD SLT PUSH2 0x115 JUMPI PUSH1 0x4 CALLDATALOAD SWAP1 PUSH32 0x97667070C54EF182B0F5858B034BEAC1B6F3089AA2D3188BB1E8929F4FA9B929 PUSH1 0x0 MSTORE PUSH1 0x0 DUP2 MSTORE PUSH1 0x40 PUSH1 0x0 KECCAK256 CALLER PUSH1 0x0 MSTORE DUP2 MSTORE PUSH2 0xCEE PUSH1 0xFF PUSH1 0x40 PUSH1 0x0 KECCAK256 SLOAD AND PUSH2 0x1454 JUMP JUMPDEST PUSH2 0xCF7 DUP3 PUSH2 0x15F0 JUMP JUMPDEST PUSH1 0x1 PUSH1 0x1 PUSH1 0x1 PUSH1 0x40 SHL SUB DUP2 DUP4 ADD SLOAD PUSH1 0x40 SHR AND TIMESTAMP GT ISZERO PUSH2 0xEC2 JUMPI PUSH1 0x2 DUP3 ADD SLOAD PUSH1 0x3 DUP4 ADD SLOAD LT ISZERO PUSH2 0xE8A JUMPI PUSH1 0x4 DUP3 ADD DUP1 SLOAD PUSH1 0xFF NOT SWAP1 DUP2 AND PUSH1 0x2 OR SWAP1 SWAP2 SSTORE PUSH1 0x6 DUP4 ADD SLOAD PUSH1 0x1 PUSH1 0x1 PUSH1 0xA0 SHL SUB AND SWAP3 DUP4 ISZERO ISZERO DUP1 PUSH2 0xE75 JUMPI JUMPDEST PUSH2 0xD77 JUMPI JUMPDEST DUP6 PUSH32 0x712AE1383F79AC853F8D882153778E0260EF8F03B504E2866E0593E04D2B291F PUSH1 0x0 DUP1 LOG2 STOP JUMPDEST PUSH1 0x5 ADD SWAP1 PUSH1 0x40 MLOAD SWAP3 PUSH1 0x0 SWAP3 DUP1 SLOAD PUSH2 0xD8D DUP2 PUSH2 0x14CC JUMP JUMPDEST SWAP4 DUP2 DUP5 AND SWAP2 DUP3 ISZERO PUSH2 0xE5E JUMPI POP POP PUSH1 0x1 EQ PUSH2 0xE23 JUMPI JUMPDEST POP POP POP SWAP2 DUP2 PUSH1 0x0 DUP1 SWAP5 SWAP4 DUP2 SWAP5 SUB SWAP3 GAS CALL RETURNDATASIZE ISZERO PUSH2 0xE1E JUMPI RETURNDATASIZE PUSH2 0xDC2 DUP2 PUSH2 0x1412 JUMP JUMPDEST SWAP1 PUSH2 0xDD0 PUSH1 0x40 MLOAD SWAP3 DUP4 PUSH2 0x1370 JUMP JUMPDEST DUP2 MSTORE PUSH1 0x0 DUP4 RETURNDATASIZE SWAP3 ADD RETURNDATACOPY JUMPDEST ISZERO PUSH2 0xDE8 JUMPI DUP1 DUP1 DUP1 DUP1 PUSH2 0xD4F JUMP JUMPDEST PUSH1 0x64 SWAP1 PUSH1 0x40 MLOAD SWAP1 PUSH3 0x461BCD PUSH1 0xE5 SHL DUP3 MSTORE PUSH1 0x4 DUP3 ADD MSTORE PUSH1 0xF PUSH1 0x24 DUP3 ADD MSTORE PUSH15 0x111053CE90D0531317D19052531151 PUSH1 0x8A SHL PUSH1 0x44 DUP3 ADD MSTORE REVERT JUMPDEST PUSH2 0xDDA JUMP JUMPDEST SWAP1 SWAP2 SWAP3 POP PUSH1 0x0 MSTORE DUP5 PUSH1 0x0 KECCAK256 SWAP1 DUP6 PUSH1 0x0 SWAP3 JUMPDEST DUP5 DUP5 LT PUSH2 0xE4C JUMPI POP POP POP SWAP1 DUP3 ADD SWAP1 POP DUP2 PUSH1 0x0 DUP1 PUSH2 0xDA2 JUMP JUMPDEST DUP1 SLOAD DUP7 DUP6 ADD MSTORE SWAP3 ADD SWAP2 DUP7 SWAP1 DUP3 ADD PUSH2 0xE34 JUMP JUMPDEST AND DUP7 MSTORE POP POP POP DUP1 ISZERO ISZERO MUL DUP3 ADD SWAP1 POP DUP2 PUSH1 0x0 DUP1 PUSH2 0xDA2 JUMP JUMPDEST POP PUSH2 0xE83 PUSH1 0x5 DUP3 ADD SLOAD PUSH2 0x14CC JUMP JUMPDEST ISZERO ISZERO PUSH2 0xD4A JUMP JUMPDEST PUSH1 0x40 MLOAD PUSH3 0x461BCD PUSH1 0xE5 SHL DUP2 MSTORE PUSH1 0x4 DUP2 ADD DUP5 SWAP1 MSTORE PUSH1 0x10 PUSH1 0x24 DUP3 ADD MSTORE PUSH16 0x111053CE9393D517D054141493D59151 PUSH1 0x82 SHL PUSH1 0x44 DUP3 ADD MSTORE PUSH1 0x64 SWAP1 REVERT JUMPDEST PUSH1 0x40 MLOAD PUSH3 0x461BCD PUSH1 0xE5 SHL DUP2 MSTORE PUSH1 0x4 DUP2 ADD DUP5 SWAP1 MSTORE PUSH1 0x17 PUSH1 0x24 DUP3 ADD MSTORE PUSH32 0x44414F3A444541444C494E455F4E4F545F504153534544000000000000000000 PUSH1 0x44 DUP3 ADD MSTORE PUSH1 0x64 SWAP1 REVERT JUMPDEST CALLVALUE PUSH2 0x115 JUMPI PUSH1 0x0 CALLDATASIZE PUSH1 0x3 NOT ADD SLT PUSH2 0x115 JUMPI PUSH1 0x20 PUSH1 0x40 MLOAD PUSH32 0x68E79A7BF1E0BC45D0A330C573BC367F9CF464FD326078812F301165FBDA4EF1 DUP2 MSTORE RETURN JUMPDEST CALLVALUE PUSH2 0x115 JUMPI PUSH1 0x20 CALLDATASIZE PUSH1 0x3 NOT ADD SLT PUSH2 0x115 JUMPI PUSH1 0x4 CALLDATALOAD SWAP1 PUSH4 0xFFFFFFFF PUSH1 0xE0 SHL DUP3 AND DUP1 SWAP3 SUB PUSH2 0x115 JUMPI PUSH1 0x20 SWAP2 PUSH4 0x7965DB0B PUSH1 0xE0 SHL DUP2 EQ SWAP1 DUP2 ISZERO PUSH2 0xF84 JUMPI JUMPDEST POP ISZERO ISZERO DUP2 MSTORE RETURN JUMPDEST PUSH4 0x1FFC9A7 PUSH1 0xE0 SHL EQ SWAP1 POP DUP4 PUSH2 0xF7D JUMP JUMPDEST PUSH1 0x24 CALLDATALOAD SWAP1 PUSH1 0x1 PUSH1 0x1 PUSH1 0xA0 SHL SUB DUP3 AND DUP3 SUB PUSH2 0x115 JUMPI JUMP JUMPDEST SWAP2 DUP2 PUSH1 0x1F DUP5 ADD SLT ISZERO PUSH2 0x115 JUMPI DUP3 CALLDATALOAD SWAP2 PUSH1 0x1 PUSH1 0x1 PUSH1 0x40 SHL SUB DUP4 GT PUSH2 0x115 JUMPI PUSH1 0x20 DUP4 DUP2 DUP7 ADD SWAP6 ADD ADD GT PUSH2 0x115 JUMPI JUMP JUMPDEST PUSH1 0x0 JUMPDEST DUP4 DUP2 LT PUSH2 0xFEB JUMPI POP POP PUSH1 0x0 SWAP2 ADD MSTORE JUMP JUMPDEST DUP2 DUP2 ADD MLOAD DUP4 DUP3 ADD MSTORE PUSH1 0x20 ADD PUSH2 0xFDB JUMP JUMPDEST SWAP1 PUSH1 0x20 SWAP2 PUSH2 0x1014 DUP2 MLOAD DUP1 SWAP3 DUP2 DUP6 MSTORE DUP6 DUP1 DUP7 ADD SWAP2 ADD PUSH2 0xFD8 JUMP JUMPDEST PUSH1 0x1F ADD PUSH1 0x1F NOT AND ADD ADD SWAP1 JUMP JUMPDEST PUSH1 0x0 SWAP1 DUP1 DUP3 MSTORE PUSH1 0x20 SWAP1 DUP3 DUP3 MSTORE PUSH1 0x40 SWAP3 DUP4 DUP2 KECCAK256 CALLER DUP3 MSTORE DUP4 MSTORE PUSH1 0xFF DUP5 DUP3 KECCAK256 SLOAD AND ISZERO PUSH2 0x1049 JUMPI POP POP POP POP JUMP JUMPDEST DUP4 MLOAD SWAP2 PUSH1 0x1 PUSH1 0x1 PUSH1 0x40 SHL SUB SWAP1 CALLER PUSH1 0x60 DUP6 ADD DUP4 DUP2 GT DUP7 DUP3 LT OR PUSH2 0x1340 JUMPI DUP8 MSTORE PUSH1 0x2A DUP6 MSTORE DUP6 DUP6 ADD SWAP2 DUP8 CALLDATASIZE DUP5 CALLDATACOPY DUP6 MLOAD ISZERO PUSH2 0x132C JUMPI PUSH1 0x30 DUP4 MSTORE8 DUP6 MLOAD SWAP2 PUSH1 0x1 SWAP3 DUP4 LT ISZERO PUSH2 0x1318 JUMPI PUSH1 0x78 PUSH1 0x21 DUP9 ADD MSTORE8 PUSH1 0x29 JUMPDEST DUP4 DUP2 GT PUSH2 0x12AE JUMPI POP PUSH2 0x126C JUMPI SWAP1 DUP8 MLOAD SWAP4 PUSH1 0x80 DUP6 ADD SWAP1 DUP6 DUP3 LT SWAP1 DUP3 GT OR PUSH2 0x1258 JUMPI DUP9 MSTORE PUSH1 0x42 DUP5 MSTORE DUP7 DUP5 ADD SWAP5 PUSH1 0x60 CALLDATASIZE DUP8 CALLDATACOPY DUP5 MLOAD ISZERO PUSH2 0x1244 JUMPI PUSH1 0x30 DUP7 MSTORE8 DUP5 MLOAD DUP3 LT ISZERO PUSH2 0x1244 JUMPI SWAP1 PUSH1 0x78 PUSH1 0x21 DUP7 ADD MSTORE8 PUSH1 0x41 SWAP2 JUMPDEST DUP2 DUP4 GT PUSH2 0x11D6 JUMPI POP POP POP PUSH2 0x1194 JUMPI PUSH2 0x1190 SWAP4 DUP7 SWAP4 PUSH2 0x1174 SWAP4 PUSH2 0x1165 PUSH1 0x48 SWAP5 PUSH2 0x113C SWAP11 MLOAD SWAP11 DUP12 SWAP6 PUSH32 0x416363657373436F6E74726F6C3A206163636F756E7420000000000000000000 DUP13 DUP9 ADD MSTORE MLOAD DUP1 SWAP3 PUSH1 0x37 DUP9 ADD SWAP1 PUSH2 0xFD8 JUMP JUMPDEST DUP5 ADD SWAP2 PUSH17 0x1034B99036B4B9B9B4B733903937B6329 PUSH1 0x7D SHL PUSH1 0x37 DUP5 ADD MSTORE MLOAD DUP1 SWAP4 DUP7 DUP5 ADD SWAP1 PUSH2 0xFD8 JUMP JUMPDEST ADD SUB PUSH1 0x28 DUP2 ADD DUP8 MSTORE ADD DUP6 PUSH2 0x1370 JUMP JUMPDEST MLOAD SWAP3 DUP4 SWAP3 PUSH3 0x461BCD PUSH1 0xE5 SHL DUP5 MSTORE PUSH1 0x4 DUP5 ADD MSTORE PUSH1 0x24 DUP4 ADD SWAP1 PUSH2 0xFFB JUMP JUMPDEST SUB SWAP1 REVERT JUMPDEST PUSH1 0x64 DUP6 DUP8 MLOAD SWAP1 PUSH3 0x461BCD PUSH1 0xE5 SHL DUP3 MSTORE DUP1 PUSH1 0x4 DUP4 ADD MSTORE PUSH1 0x24 DUP3 ADD MSTORE PUSH32 0x537472696E67733A20686578206C656E67746820696E73756666696369656E74 PUSH1 0x44 DUP3 ADD MSTORE REVERT JUMPDEST SWAP1 SWAP2 SWAP3 PUSH1 0xF DUP2 AND PUSH1 0x10 DUP2 LT ISZERO PUSH2 0x1230 JUMPI PUSH16 0x181899199A1A9B1B9C1CB0B131B232B3 PUSH1 0x81 SHL SWAP1 BYTE PUSH2 0x1206 DUP6 DUP9 PUSH2 0x142D JUMP JUMPDEST MSTORE8 PUSH1 0x4 SHR SWAP3 DUP1 ISZERO PUSH2 0x121C JUMPI PUSH1 0x0 NOT ADD SWAP2 SWAP1 PUSH2 0x10E4 JUMP JUMPDEST PUSH4 0x4E487B71 PUSH1 0xE0 SHL DUP3 MSTORE PUSH1 0x11 PUSH1 0x4 MSTORE PUSH1 0x24 DUP3 REVERT JUMPDEST PUSH4 0x4E487B71 PUSH1 0xE0 SHL DUP4 MSTORE PUSH1 0x32 PUSH1 0x4 MSTORE PUSH1 0x24 DUP4 REVERT JUMPDEST PUSH4 0x4E487B71 PUSH1 0xE0 SHL DUP2 MSTORE PUSH1 0x32 PUSH1 0x4 MSTORE PUSH1 0x24 SWAP1 REVERT JUMPDEST PUSH4 0x4E487B71 PUSH1 0xE0 SHL DUP7 MSTORE PUSH1 0x41 PUSH1 0x4 MSTORE PUSH1 0x24 DUP7 REVERT JUMPDEST PUSH1 0x64 DUP8 DUP10 MLOAD SWAP1 PUSH3 0x461BCD PUSH1 0xE5 SHL DUP3 MSTORE DUP1 PUSH1 0x4 DUP4 ADD MSTORE PUSH1 0x24 DUP3 ADD MSTORE PUSH32 0x537472696E67733A20686578206C656E67746820696E73756666696369656E74 PUSH1 0x44 DUP3 ADD MSTORE REVERT JUMPDEST SWAP1 PUSH1 0xF DUP2 AND PUSH1 0x10 DUP2 LT ISZERO PUSH2 0x1304 JUMPI PUSH16 0x181899199A1A9B1B9C1CB0B131B232B3 PUSH1 0x81 SHL SWAP1 BYTE PUSH2 0x12DC DUP4 DUP11 PUSH2 0x142D JUMP JUMPDEST MSTORE8 PUSH1 0x4 SHR SWAP1 DUP1 ISZERO PUSH2 0x12F0 JUMPI PUSH1 0x0 NOT ADD PUSH2 0x1095 JUMP JUMPDEST PUSH4 0x4E487B71 PUSH1 0xE0 SHL DUP8 MSTORE PUSH1 0x11 PUSH1 0x4 MSTORE PUSH1 0x24 DUP8 REVERT JUMPDEST PUSH4 0x4E487B71 PUSH1 0xE0 SHL DUP9 MSTORE PUSH1 0x32 PUSH1 0x4 MSTORE PUSH1 0x24 DUP9 REVERT JUMPDEST PUSH4 0x4E487B71 PUSH1 0xE0 SHL DUP7 MSTORE PUSH1 0x32 PUSH1 0x4 MSTORE PUSH1 0x24 DUP7 REVERT JUMPDEST PUSH4 0x4E487B71 PUSH1 0xE0 SHL DUP6 MSTORE PUSH1 0x32 PUSH1 0x4 MSTORE PUSH1 0x24 DUP6 REVERT JUMPDEST PUSH4 0x4E487B71 PUSH1 0xE0 SHL DUP6 MSTORE PUSH1 0x41 PUSH1 0x4 MSTORE PUSH1 0x24 DUP6 REVERT JUMPDEST PUSH2 0x100 DUP2 ADD SWAP1 DUP2 LT PUSH1 0x1 PUSH1 0x1 PUSH1 0x40 SHL SUB DUP3 GT OR PUSH2 0x98E JUMPI PUSH1 0x40 MSTORE JUMP JUMPDEST SWAP1 PUSH1 0x1F DUP1 NOT SWAP2 ADD AND DUP2 ADD SWAP1 DUP2 LT PUSH1 0x1 PUSH1 0x1 PUSH1 0x40 SHL SUB DUP3 GT OR PUSH2 0x98E JUMPI PUSH1 0x40 MSTORE JUMP JUMPDEST SWAP1 PUSH1 0x0 SWAP2 DUP1 DUP4 MSTORE DUP3 PUSH1 0x20 MSTORE PUSH1 0x40 DUP4 KECCAK256 SWAP2 PUSH1 0x1 DUP1 PUSH1 0xA0 SHL SUB AND SWAP2 DUP3 DUP5 MSTORE PUSH1 0x20 MSTORE PUSH1 0xFF PUSH1 0x40 DUP5 KECCAK256 SLOAD AND PUSH2 0x13C1 JUMPI POP POP POP JUMP JUMPDEST DUP1 DUP4 MSTORE DUP3 PUSH1 0x20 MSTORE PUSH1 0x40 DUP4 KECCAK256 DUP3 DUP5 MSTORE PUSH1 0x20 MSTORE PUSH1 0x40 DUP4 KECCAK256 PUSH1 0xFF NOT DUP2 SLOAD AND SWAP1 SSTORE PUSH32 0xF6391F5C32D9C69D2A47EA670B442974B53935D1EDC7FD64EB21E047A839171B CALLER SWAP4 DUP1 LOG4 JUMP JUMPDEST SWAP2 SWAP1 DUP3 ADD DUP1 SWAP3 GT PUSH2 0xA1B JUMPI JUMP JUMPDEST PUSH1 0x1 PUSH1 0x1 PUSH1 0x40 SHL SUB DUP2 GT PUSH2 0x98E JUMPI PUSH1 0x1F ADD PUSH1 0x1F NOT AND PUSH1 0x20 ADD SWAP1 JUMP JUMPDEST SWAP1 DUP2 MLOAD DUP2 LT ISZERO PUSH2 0x143E JUMPI ADD PUSH1 0x20 ADD SWAP1 JUMP JUMPDEST PUSH4 0x4E487B71 PUSH1 0xE0 SHL PUSH1 0x0 MSTORE PUSH1 0x32 PUSH1 0x4 MSTORE PUSH1 0x24 PUSH1 0x0 REVERT JUMPDEST ISZERO PUSH2 0x145B JUMPI JUMP JUMPDEST PUSH1 0x40 MLOAD PUSH3 0x461BCD PUSH1 0xE5 SHL DUP2 MSTORE PUSH1 0x20 PUSH1 0x4 DUP3 ADD MSTORE PUSH1 0x12 PUSH1 0x24 DUP3 ADD MSTORE PUSH18 0x524F4C453A4F50455241544F525F4F4E4C59 PUSH1 0x70 SHL PUSH1 0x44 DUP3 ADD MSTORE PUSH1 0x64 SWAP1 REVERT JUMPDEST SWAP3 SWAP2 SWAP3 PUSH2 0x14A1 DUP3 PUSH2 0x1412 JUMP JUMPDEST SWAP2 PUSH2 0x14AF PUSH1 0x40 MLOAD SWAP4 DUP5 PUSH2 0x1370 JUMP JUMPDEST DUP3 SWAP5 DUP2 DUP5 MSTORE DUP2 DUP4 ADD GT PUSH2 0x115 JUMPI DUP3 DUP2 PUSH1 0x20 SWAP4 DUP5 PUSH1 0x0 SWAP7 ADD CALLDATACOPY ADD ADD MSTORE JUMP JUMPDEST SWAP1 PUSH1 0x1 DUP3 DUP2 SHR SWAP3 AND DUP1 ISZERO PUSH2 0x14FC JUMPI JUMPDEST PUSH1 0x20 DUP4 LT EQ PUSH2 0x14E6 JUMPI JUMP JUMPDEST PUSH4 0x4E487B71 PUSH1 0xE0 SHL PUSH1 0x0 MSTORE PUSH1 0x22 PUSH1 0x4 MSTORE PUSH1 0x24 PUSH1 0x0 REVERT JUMPDEST SWAP2 PUSH1 0x7F AND SWAP2 PUSH2 0x14DB JUMP JUMPDEST SWAP1 PUSH1 0x1F DUP2 GT PUSH2 0x1514 JUMPI POP POP POP JUMP JUMPDEST PUSH1 0x0 SWAP2 DUP3 MSTORE PUSH1 0x20 DUP3 KECCAK256 SWAP1 PUSH1 0x20 PUSH1 0x1F DUP6 ADD PUSH1 0x5 SHR DUP4 ADD SWAP5 LT PUSH2 0x1550 JUMPI JUMPDEST PUSH1 0x1F ADD PUSH1 0x5 SHR ADD SWAP2 JUMPDEST DUP3 DUP2 LT PUSH2 0x1545 JUMPI POP POP POP JUMP JUMPDEST DUP2 DUP2 SSTORE PUSH1 0x1 ADD PUSH2 0x1539 JUMP JUMPDEST SWAP1 SWAP3 POP DUP3 SWAP1 PUSH2 0x1530 JUMP JUMPDEST SWAP1 PUSH1 0x0 SWAP3 SWAP2 DUP1 SLOAD SWAP2 PUSH2 0x156B DUP4 PUSH2 0x14CC JUMP JUMPDEST SWAP2 DUP3 DUP3 MSTORE PUSH1 0x1 SWAP4 DUP5 DUP2 AND SWAP1 DUP2 PUSH1 0x0 EQ PUSH2 0x15CD JUMPI POP PUSH1 0x1 EQ PUSH2 0x158D JUMPI JUMPDEST POP POP POP POP JUMP JUMPDEST SWAP1 SWAP2 SWAP4 SWAP5 POP PUSH1 0x0 MSTORE PUSH1 0x20 SWAP3 DUP4 PUSH1 0x0 KECCAK256 SWAP3 DUP5 PUSH1 0x0 SWAP5 JUMPDEST DUP4 DUP7 LT PUSH2 0x15B9 JUMPI POP POP POP POP ADD ADD SWAP1 CODESIZE DUP1 DUP1 DUP1 PUSH2 0x1587 JUMP JUMPDEST DUP1 SLOAD DUP6 DUP8 ADD DUP4 ADD MSTORE SWAP5 ADD SWAP4 DUP6 SWAP1 DUP3 ADD PUSH2 0x15A2 JUMP JUMPDEST SWAP3 SWAP5 POP POP POP PUSH1 0x20 SWAP4 SWAP5 POP PUSH1 0xFF NOT AND DUP4 DUP4 ADD MSTORE ISZERO ISZERO PUSH1 0x5 SHL ADD ADD SWAP1 CODESIZE DUP1 DUP1 DUP1 PUSH2 0x1587 JUMP JUMPDEST PUSH1 0x0 MSTORE PUSH1 0x2 PUSH1 0x20 MSTORE PUSH1 0x40 PUSH1 0x0 KECCAK256 PUSH1 0xFF PUSH1 0x4 DUP3 ADD SLOAD AND PUSH1 0x5 DUP2 LT ISZERO PUSH2 0x547 JUMPI PUSH1 0x1 SUB PUSH2 0x1618 JUMPI SWAP1 JUMP JUMPDEST PUSH1 0x40 MLOAD PUSH3 0x461BCD PUSH1 0xE5 SHL DUP2 MSTORE PUSH1 0x20 PUSH1 0x4 DUP3 ADD MSTORE PUSH1 0xE PUSH1 0x24 DUP3 ADD MSTORE PUSH14 0x44414F3A4E4F545F414354495645 PUSH1 0x90 SHL PUSH1 0x44 DUP3 ADD MSTORE PUSH1 0x64 SWAP1 REVERT INVALID LOG2 PUSH5 0x6970667358 0x22 SLT KECCAK256 0xCC ADDMOD PUSH19 0xCBB4CC634569B7E16342FB82658D1338FA83D2 0x49 0x2A 0xB2 KECCAK256 0x2B BALANCE MUL 0xB4 JUMPI 0xEE PUSH5 0x736F6C6343 STOP ADDMOD EQ STOP CALLER "},"methodIdentifiers":{"DEFAULT_ADMIN_ROLE()":"a217fddf","ESCROW_ROLE()":"6ce76f30","GOVERNANCE_ROLE()":"f36c8f5c","ISSUER_ROLE()":"82aefa24","OPERATOR_ROLE()":"f5b541a6","ORACLE_ROLE()":"07e2cea5","createProposal(string,uint64,address,bytes)":"8ea314cb","executeProposal(uint256)":"0d61b519","getProposal(uint256)":"c7f758a8","getRoleAdmin(bytes32)":"248a9ca3","grantRole(bytes32,address)":"2f2ff15d","hasRole(bytes32,address)":"91d14854","propertyToken()":"43ae2695","renounceRole(bytes32,address)":"36568abe","revokeRole(bytes32,address)":"d547741f","supportsInterface(bytes4)":"01ffc9a7","vote(uint256,bool,uint256)":"d46a5d7e"}}}}}