{"contracts/registry/PropertyRegistry.sol":{"PropertyRegistry":{"abi":[{"inputs":[{"internalType":"address","name":"admin","type":"address"}],"stateMutability":"nonpayable","type":"constructor"},{"anonymous":false,"inputs":[{"indexed":true,"internalType":"uint256","name":"propertyId","type":"uint256"},{"indexed":false,"internalType":"string","name":"deedHash","type":"string"}],"name":"DeedVerified","type":"event"},{"anonymous":false,"inputs":[{"indexed":true,"internalType":"uint256","name":"propertyId","type":"uint256"},{"indexed":true,"internalType":"address","name":"newOwner","type":"address"},{"indexed":false,"internalType":"string","name":"deedHash","type":"string"}],"name":"OwnershipUpdated","type":"event"},{"anonymous":false,"inputs":[{"indexed":true,"internalType":"uint256","name":"propertyId","type":"uint256"},{"indexed":true,"internalType":"address","name":"owner","type":"address"},{"indexed":false,"internalType":"string","name":"deedHash","type":"string"}],"name":"PropertyRegistered","type":"event"},{"anonymous":false,"inputs":[{"indexed":true,"internalType":"bytes32","name":"role","type":"bytes32"},{"indexed":true,"internalType":"bytes32","name":"previousAdminRole","type":"bytes32"},{"indexed":true,"internalType":"bytes32","name":"newAdminRole","type":"bytes32"}],"name":"RoleAdminChanged","type":"event"},{"anonymous":false,"inputs":[{"indexed":true,"internalType":"bytes32","name":"role","type":"bytes32"},{"indexed":true,"internalType":"address","name":"account","type":"address"},{"indexed":true,"internalType":"address","name":"sender","type":"address"}],"name":"RoleGranted","type":"event"},{"anonymous":false,"inputs":[{"indexed":true,"internalType":"bytes32","name":"role","type":"bytes32"},{"indexed":true,"internalType":"address","name":"account","type":"address"},{"indexed":true,"internalType":"address","name":"sender","type":"address"}],"name":"RoleRevoked","type":"event"},{"inputs":[],"name":"DEFAULT_ADMIN_ROLE","outputs":[{"internalType":"bytes32","name":"","type":"bytes32"}],"stateMutability":"view","type":"function"},{"inputs":[],"name":"ESCROW_ROLE","outputs":[{"internalType":"bytes32","name":"","type":"bytes32"}],"stateMutability":"view","type":"function"},{"inputs":[],"name":"GOVERNANCE_ROLE","outputs":[{"internalType":"bytes32","name":"","type":"bytes32"}],"stateMutability":"view","type":"function"},{"inputs":[],"name":"ISSUER_ROLE","outputs":[{"internalType":"bytes32","name":"","type":"bytes32"}],"stateMutability":"view","type":"function"},{"inputs":[],"name":"OPERATOR_ROLE","outputs":[{"internalType":"bytes32","name":"","type":"bytes32"}],"stateMutability":"view","type":"function"},{"inputs":[],"name":"ORACLE_ROLE","outputs":[{"internalType":"bytes32","name":"","type":"bytes32"}],"stateMutability":"view","type":"function"},{"inputs":[{"internalType":"uint256","name":"propertyId","type":"uint256"}],"name":"getPropertyHistory","outputs":[{"internalType":"address[]","name":"owners","type":"address[]"},{"internalType":"string[]","name":"deedHashes","type":"string[]"}],"stateMutability":"view","type":"function"},{"inputs":[{"internalType":"uint256","name":"propertyId","type":"uint256"}],"name":"getRecord","outputs":[{"components":[{"internalType":"uint256","name":"propertyId","type":"uint256"},{"internalType":"address","name":"currentOwner","type":"address"},{"internalType":"string","name":"deedHash","type":"string"},{"internalType":"uint64","name":"registeredAt","type":"uint64"},{"internalType":"uint64","name":"updatedAt","type":"uint64"}],"internalType":"struct DataTypes.PropertyRecord","name":"","type":"tuple"}],"stateMutability":"view","type":"function"},{"inputs":[{"internalType":"bytes32","name":"role","type":"bytes32"}],"name":"getRoleAdmin","outputs":[{"internalType":"bytes32","name":"","type":"bytes32"}],"stateMutability":"view","type":"function"},{"inputs":[{"internalType":"bytes32","name":"role","type":"bytes32"},{"internalType":"address","name":"account","type":"address"}],"name":"grantRole","outputs":[],"stateMutability":"nonpayable","type":"function"},{"inputs":[{"internalType":"bytes32","name":"role","type":"bytes32"},{"internalType":"address","name":"account","type":"address"}],"name":"hasRole","outputs":[{"internalType":"bool","name":"","type":"bool"}],"stateMutability":"view","type":"function"},{"inputs":[{"internalType":"uint256","name":"propertyId","type":"uint256"},{"internalType":"address","name":"owner","type":"address"},{"internalType":"string","name":"deedHash","type":"string"}],"name":"registerProperty","outputs":[],"stateMutability":"nonpayable","type":"function"},{"inputs":[{"internalType":"bytes32","name":"role","type":"bytes32"},{"internalType":"address","name":"account","type":"address"}],"name":"renounceRole","outputs":[],"stateMutability":"nonpayable","type":"function"},{"inputs":[{"internalType":"bytes32","name":"role","type":"bytes32"},{"internalType":"address","name":"account","type":"address"}],"name":"revokeRole","outputs":[],"stateMutability":"nonpayable","type":"function"},{"inputs":[{"internalType":"bytes4","name":"interfaceId","type":"bytes4"}],"name":"supportsInterface","outputs":[{"internalType":"bool","name":"","type":"bool"}],"stateMutability":"view","type":"function"},{"inputs":[{"internalType":"uint256","name":"propertyId","type":"uint256"},{"internalType":"address","name":"newOwner","type":"address"},{"internalType":"string","name":"deedHash","type":"string"}],"name":"updateOwnership","outputs":[],"stateMutability":"nonpayable","type":"function"},{"inputs":[{"internalType":"uint256","name":"propertyId","type":"uint256"}],"name":"verifyTitle","outputs":[{"internalType":"string","name":"deedHash","type":"string"}],"stateMutability":"view","type":"function"}],"evm":{"bytecode":{"linkReferences":{},"object":"6080346101f757601f6116c538819003918201601f1916830192916001600160401b038411838510176101fc57808392604095865283396020928391810103126101f757516001600160a01b03811691908290036101f757600091828052828252838320818452825260ff8484205416156101ae575b50817f97667070c54ef182b0f5858b034beac1b6f3089aa2d3188bb1e8929f4fa9b92991828252528160018482200181815491557fbd79b86ffe0ab8e8776151514217cd7cacd52c909f66475c3af44e129f0b00ff92838380a4817f2fdac322ee704ce09f0773f7f3f92eb98d5e7c836ee9c056cccd5f61041e5e3f808252600185832001908282549255838380a4817f68e79a7bf1e0bc45d0a330c573bc367f9cf464fd326078812f301165fbda4ef1808252600185832001908282549255838380a4817f114e74f6ea3bd819998f78687bfcb11b140da08e9b7d222fa9c1f1ba1f2aa122808252600185832001908282549255838380a47f71840dc4906352362b0cdaf79870196c8e42acafade72d5d5a6d59291253ceb18083526001848420019183835493558380a4516114b290816102138239f35b8280528282528383208184528252838320805460ff191660011790553390837f2f8788117e7eff1d82e926ec794901d17c78024a50270940304540a733656f0d8180a438610075565b600080fd5b634e487b7160e01b600052604160045260246000fdfe6080806040526004908136101561001557600080fd5b60003560e01c90816301ffc9a714610bec5750806303e9e60914610af757806307e2cea514610abc5780631d8e17481461097e578063248a9ca3146109505780632f2ff15d1461089e57806336568abe1461080e5780636ce76f30146107d357806382aefa241461079857806391d148541461074b578063a217fddf1461072f578063ae16b152146106e3578063d547741f146106a2578063e04ce17b146102fa578063f36c8f5c146102bf578063f5b541a6146102845763fd585248146100dc57600080fd5b3461027f576020908160031936011261027f57803590816000526002835260406000209260405192838483875492838152018097600052846000209260005b868282106102605750505061013292500385611065565b6000526003815260406000209182549067ffffffffffffffff821161024b575060405190610165838260051b0183611065565b808252828201809460005283600020846000925b84841061021e575050505050604051936040850190604086525180915260608501959060005b81811061020157505050838503828501525180855281850191808260051b87010193926000965b8388106101d35786860387f35b909192939483806101f0600193601f198682030187528951610c61565b9701930197019690939291936101c6565b82516001600160a01b03168852968401969184019160010161019f565b600191829160405161023b816102348189611395565b0382611065565b8152019201920191908590610179565b604190634e487b7160e01b6000525260246000fd5b85546001600160a01b031684526001958601958a95509301920161011b565b600080fd5b3461027f57600036600319011261027f5760206040517f97667070c54ef182b0f5858b034beac1b6f3089aa2d3188bb1e8929f4fa9b9298152f35b3461027f57600036600319011261027f5760206040517f71840dc4906352362b0cdaf79870196c8e42acafade72d5d5a6d59291253ceb18152f35b503461027f5761030936610c9c565b3360009081527fee57cd81e84075558e8fcc182a1f4393f91fc97f963a136e66b7f949a62f319f6020526040902054909392906103489060ff16611122565b6001600160a01b039061035e8183161515611163565b84156106655783600052600160205260406000205461062f5760405161038381611033565b84815260208101838316815267ffffffffffffffff871161061a576040516103b5601f8901601f191660200182611065565b878152368887011161027f57878660208301376000602089830101526040830190815267ffffffffffffffff421680606085015260808401528660005260016020526040600020918351835585600184019151166bffffffffffffffffffffffff60a01b8254161790555180519067ffffffffffffffff8211610605578899506104538261044a6002869c9a9b9c01546111a8565b600286016111e2565b602090601f831160011461055b57608060037f0f5ddfd7ee384d3acc46aab5b9807217e71933f0c3db67ffbf556452423695f99a9795856104f79660409b999667ffffffffffffffff96600092610550575b50508160011b9160001990851b1c19161760028201555b019282606082015116831985541617845501511667ffffffffffffffff60401b82549160401b169067ffffffffffffffff60401b1916179055565b86600052600260205261050d818560002061124e565b86600052600360205261052485848660002061134d565b8351948593602085528160208601528585013760008389018501521695601f01601f19168101030190a3005b0151905038806104a5565b906002840160005260206000209160005b601f19851681106105ea575060037f0f5ddfd7ee384d3acc46aab5b9807217e71933f0c3db67ffbf556452423695f99a979560018660409b999667ffffffffffffffff966080966104f79a601f198116106105d2575b505050811b0160028201556104bc565b015160001983871b60f8161c191690553880806105c2565b8183015184558c99506001909301926020928301920161056c565b60418a634e487b7160e01b6000525260246000fd5b604188634e487b7160e01b6000525260246000fd5b60405162461bcd60e51b8152602081880152600f60248201526e52454749535452593a45584953545360881b6044820152606490fd5b60405162461bcd60e51b81526020818801526016602482015275149151d254d514964e921054d217d49154555254915160521b6044820152606490fd5b503461027f57604036600319011261027f576106e190356106c1610c86565b908060005260006020526106dc600160406000200154610cfe565b611087565b005b503461027f57602036600319011261027f57610234610717600261070a61072b943561142b565b0160405192838092611395565b604051918291602083526020830190610c61565b0390f35b3461027f57600036600319011261027f57602060405160008152f35b503461027f57604036600319011261027f57610765610c86565b9035600052600060205260406000209060018060a01b0316600052602052602060ff604060002054166040519015158152f35b3461027f57600036600319011261027f5760206040517f114e74f6ea3bd819998f78687bfcb11b140da08e9b7d222fa9c1f1ba1f2aa1228152f35b3461027f57600036600319011261027f5760206040517f2fdac322ee704ce09f0773f7f3f92eb98d5e7c836ee9c056cccd5f61041e5e3f8152f35b503461027f57604036600319011261027f57610828610c86565b336001600160a01b03821603610842576106e19135611087565b60405162461bcd60e51b8152602081840152602f60248201527f416363657373436f6e74726f6c3a2063616e206f6e6c792072656e6f756e636560448201526e103937b632b9903337b91039b2b63360891b6064820152608490fd5b503461027f57604036600319011261027f57356108b9610c86565b8160005260006020526108d3600160406000200154610cfe565b81600052600060205260406000209060018060a01b0316908160005260205260ff604060002054161561090257005b8160005260006020526040600020816000526020526040600020600160ff1982541617905533917f2f8788117e7eff1d82e926ec794901d17c78024a50270940304540a733656f0d600080a4005b503461027f57602036600319011261027f573560005260006020526020600160406000200154604051908152f35b3461027f576002610a8d7f6cafc036724ae742d6086206d78dd403ce6cf9b66f3d0636047eebc483310c8f6109b236610c9c565b7f97667070c54ef182b0f5858b034beac1b6f3089aa2d3188bb1e8929f4fa9b9296000979496929752610a7b602093600085526040600020336000528552610a0160ff60406000205416611122565b6001600160a01b03811698610a178a1515611163565b610a208961142b565b6001810180546001600160a01b0319168c1790559380610a92575b50506003830180546fffffffffffffffff000000000000000019164260401b67ffffffffffffffff60401b1617905587600052858552604060002061124e565b60405193838594855284019101611395565b0390a3005b81610aa382610ab5948b8901611289565b8a60005260038852604060002061134d565b8980610a3b565b3461027f57600036600319011261027f5760206040517f68e79a7bf1e0bc45d0a330c573bc367f9cf464fd326078812f301165fbda4ef18152f35b503461027f57602036600319011261027f57610b3b9060006080604051610b1d81611033565b8281528260208201526060604082015282606082015201523561142b565b604051610b4781611033565b8154815260018201546001600160a01b03908116602083019081526040519093600390610b8283610b7b8160028501611395565b0384611065565b6040850192835201546060840192610bd967ffffffffffffffff938492838516875283608089019560401c16855260405198899860208a525160208a0152511660408801525160a0606088015260c0870190610c61565b9351166080850152511660a08301520390f35b823461027f57602036600319011261027f57359063ffffffff60e01b821680920361027f57602091637965db0b60e01b8114908115610c2d575b5015158152f35b6301ffc9a760e01b14905083610c26565b60005b838110610c515750506000910152565b8181015183820152602001610c41565b90602091610c7a81518092818552858086019101610c3e565b601f01601f1916010190565b602435906001600160a01b038216820361027f57565b90606060031983011261027f57600435916024356001600160a01b038116810361027f579160443567ffffffffffffffff9283821161027f578060238301121561027f57816004013593841161027f576024848301011161027f576024019190565b600090808252602090828252604092838120338252835260ff848220541615610d275750505050565b83519167ffffffffffffffff9033606085018381118682101761101f578752602a8552858501918736843785511561100b5760308353855191600192831015610ff7576078602188015360295b838111610f8d5750610f4b5790875193608085019085821090821117610f3757885260428452868401946060368737845115610f2357603086538451821015610f235790607860218601536041915b818311610eb557505050610e7357610e6f938693610e5393610e44604894610e1b9a519a8b957f416363657373436f6e74726f6c3a206163636f756e74200000000000000000008c8801525180926037880190610c3e565b8401917001034b99036b4b9b9b4b733903937b6329607d1b603784015251809386840190610c3e565b01036028810187520185611065565b5192839262461bcd60e51b845260048401526024830190610c61565b0390fd5b60648587519062461bcd60e51b825280600483015260248201527f537472696e67733a20686578206c656e67746820696e73756666696369656e746044820152fd5b909192600f81166010811015610f0f576f181899199a1a9b1b9c1cb0b131b232b360811b901a610ee585886110fb565b5360041c928015610efb57600019019190610dc3565b634e487b7160e01b82526011600452602482fd5b634e487b7160e01b83526032600452602483fd5b634e487b7160e01b81526032600452602490fd5b634e487b7160e01b86526041600452602486fd5b60648789519062461bcd60e51b825280600483015260248201527f537472696e67733a20686578206c656e67746820696e73756666696369656e746044820152fd5b90600f81166010811015610fe3576f181899199a1a9b1b9c1cb0b131b232b360811b901a610fbb838a6110fb565b5360041c908015610fcf5760001901610d74565b634e487b7160e01b87526011600452602487fd5b634e487b7160e01b88526032600452602488fd5b634e487b7160e01b86526032600452602486fd5b634e487b7160e01b85526032600452602485fd5b634e487b7160e01b85526041600452602485fd5b60a0810190811067ffffffffffffffff82111761104f57604052565b634e487b7160e01b600052604160045260246000fd5b90601f8019910116810190811067ffffffffffffffff82111761104f57604052565b9060009180835282602052604083209160018060a01b03169182845260205260ff6040842054166110b757505050565b80835282602052604083208284526020526040832060ff1981541690557ff6391f5c32d9c69d2a47ea670b442974b53935d1edc7fd64eb21e047a839171b339380a4565b90815181101561110c570160200190565b634e487b7160e01b600052603260045260246000fd5b1561112957565b60405162461bcd60e51b8152602060048201526012602482015271524f4c453a4f50455241544f525f4f4e4c5960701b6044820152606490fd5b1561116a57565b60405162461bcd60e51b81526020600482015260166024820152752922a3a4a9aa292c9d24a72b20a624a22fa7aba722a960511b6044820152606490fd5b90600182811c921680156111d8575b60208310146111c257565b634e487b7160e01b600052602260045260246000fd5b91607f16916111b7565b90601f81116111f057505050565b600091825260208220906020601f850160051c8301941061122c575b601f0160051c01915b82811061122157505050565b818155600101611215565b909250829061120c565b805482101561110c5760005260206000200190600090565b8054600160401b81101561104f5761126b91600182018155611236565b819291549060031b9160018060a01b03809116831b921b1916179055565b90929167ffffffffffffffff811161104f576112af816112a984546111a8565b846111e2565b6000601f82116001146112e957819293946000926112de575b50508160011b916000199060031b1c1916179055565b0135905038806112c8565b601f198216948382526020918281209281905b8882106113355750508360019596971061131b575b505050811b019055565b0135600019600384901b60f8161c19169055388080611311565b806001849682949587013581550195019201906112fc565b9190918054600160401b81101561104f5761136d91600182018155611236565b92909261137f5761137d92611289565b565b634e487b7160e01b600052600060045260246000fd5b90600092918054916113a6836111a8565b91828252600193848116908160001461140857506001146113c8575b50505050565b90919394506000526020928360002092846000945b8386106113f45750505050010190388080806113c2565b8054858701830152940193859082016113dd565b9294505050602093945060ff191683830152151560051b010190388080806113c2565b600052600160205260406000208054156114425790565b60405162461bcd60e51b8152602060048201526012602482015271149151d254d514964e9393d517d193d5539160721b6044820152606490fdfea26469706673582212206c3279777a8a0c7f9b96d5c2e9bbe643849e4271e0946bf21074182bb178a3b164736f6c63430008140033","opcodes":"PUSH1 0x80 CALLVALUE PUSH2 0x1F7 JUMPI PUSH1 0x1F PUSH2 0x16C5 CODESIZE DUP2 SWAP1 SUB SWAP2 DUP3 ADD PUSH1 0x1F NOT AND DUP4 ADD SWAP3 SWAP2 PUSH1 0x1 PUSH1 0x1 PUSH1 0x40 SHL SUB DUP5 GT DUP4 DUP6 LT OR PUSH2 0x1FC JUMPI DUP1 DUP4 SWAP3 PUSH1 0x40 SWAP6 DUP7 MSTORE DUP4 CODECOPY PUSH1 0x20 SWAP3 DUP4 SWAP2 DUP2 ADD SUB SLT PUSH2 0x1F7 JUMPI MLOAD PUSH1 0x1 PUSH1 0x1 PUSH1 0xA0 SHL SUB DUP2 AND SWAP2 SWAP1 DUP3 SWAP1 SUB PUSH2 0x1F7 JUMPI PUSH1 0x0 SWAP2 DUP3 DUP1 MSTORE DUP3 DUP3 MSTORE DUP4 DUP4 KECCAK256 DUP2 DUP5 MSTORE DUP3 MSTORE PUSH1 0xFF DUP5 DUP5 KECCAK256 SLOAD AND ISZERO PUSH2 0x1AE JUMPI JUMPDEST POP DUP2 PUSH32 0x97667070C54EF182B0F5858B034BEAC1B6F3089AA2D3188BB1E8929F4FA9B929 SWAP2 DUP3 DUP3 MSTORE MSTORE DUP2 PUSH1 0x1 DUP5 DUP3 KECCAK256 ADD DUP2 DUP2 SLOAD SWAP2 SSTORE PUSH32 0xBD79B86FFE0AB8E8776151514217CD7CACD52C909F66475C3AF44E129F0B00FF SWAP3 DUP4 DUP4 DUP1 LOG4 DUP2 PUSH32 0x2FDAC322EE704CE09F0773F7F3F92EB98D5E7C836EE9C056CCCD5F61041E5E3F DUP1 DUP3 MSTORE PUSH1 0x1 DUP6 DUP4 KECCAK256 ADD SWAP1 DUP3 DUP3 SLOAD SWAP3 SSTORE DUP4 DUP4 DUP1 LOG4 DUP2 PUSH32 0x68E79A7BF1E0BC45D0A330C573BC367F9CF464FD326078812F301165FBDA4EF1 DUP1 DUP3 MSTORE PUSH1 0x1 DUP6 DUP4 KECCAK256 ADD SWAP1 DUP3 DUP3 SLOAD SWAP3 SSTORE DUP4 DUP4 DUP1 LOG4 DUP2 PUSH32 0x114E74F6EA3BD819998F78687BFCB11B140DA08E9B7D222FA9C1F1BA1F2AA122 DUP1 DUP3 MSTORE PUSH1 0x1 DUP6 DUP4 KECCAK256 ADD SWAP1 DUP3 DUP3 SLOAD SWAP3 SSTORE DUP4 DUP4 DUP1 LOG4 PUSH32 0x71840DC4906352362B0CDAF79870196C8E42ACAFADE72D5D5A6D59291253CEB1 DUP1 DUP4 MSTORE PUSH1 0x1 DUP5 DUP5 KECCAK256 ADD SWAP2 DUP4 DUP4 SLOAD SWAP4 SSTORE DUP4 DUP1 LOG4 MLOAD PUSH2 0x14B2 SWAP1 DUP2 PUSH2 0x213 DUP3 CODECOPY RETURN JUMPDEST DUP3 DUP1 MSTORE DUP3 DUP3 MSTORE DUP4 DUP4 KECCAK256 DUP2 DUP5 MSTORE DUP3 MSTORE DUP4 DUP4 KECCAK256 DUP1 SLOAD PUSH1 0xFF NOT AND PUSH1 0x1 OR SWAP1 SSTORE CALLER SWAP1 DUP4 PUSH32 0x2F8788117E7EFF1D82E926EC794901D17C78024A50270940304540A733656F0D DUP2 DUP1 LOG4 CODESIZE PUSH2 0x75 JUMP JUMPDEST PUSH1 0x0 DUP1 REVERT JUMPDEST PUSH4 0x4E487B71 PUSH1 0xE0 SHL PUSH1 0x0 MSTORE PUSH1 0x41 PUSH1 0x4 MSTORE PUSH1 0x24 PUSH1 0x0 REVERT INVALID PUSH1 0x80 DUP1 PUSH1 0x40 MSTORE PUSH1 0x4 SWAP1 DUP2 CALLDATASIZE LT ISZERO PUSH2 0x15 JUMPI PUSH1 0x0 DUP1 REVERT JUMPDEST PUSH1 0x0 CALLDATALOAD PUSH1 0xE0 SHR SWAP1 DUP2 PUSH4 0x1FFC9A7 EQ PUSH2 0xBEC JUMPI POP DUP1 PUSH4 0x3E9E609 EQ PUSH2 0xAF7 JUMPI DUP1 PUSH4 0x7E2CEA5 EQ PUSH2 0xABC JUMPI DUP1 PUSH4 0x1D8E1748 EQ PUSH2 0x97E JUMPI DUP1 PUSH4 0x248A9CA3 EQ PUSH2 0x950 JUMPI DUP1 PUSH4 0x2F2FF15D EQ PUSH2 0x89E JUMPI DUP1 PUSH4 0x36568ABE EQ PUSH2 0x80E JUMPI DUP1 PUSH4 0x6CE76F30 EQ PUSH2 0x7D3 JUMPI DUP1 PUSH4 0x82AEFA24 EQ PUSH2 0x798 JUMPI DUP1 PUSH4 0x91D14854 EQ PUSH2 0x74B JUMPI DUP1 PUSH4 0xA217FDDF EQ PUSH2 0x72F JUMPI DUP1 PUSH4 0xAE16B152 EQ PUSH2 0x6E3 JUMPI DUP1 PUSH4 0xD547741F EQ PUSH2 0x6A2 JUMPI DUP1 PUSH4 0xE04CE17B EQ PUSH2 0x2FA JUMPI DUP1 PUSH4 0xF36C8F5C EQ PUSH2 0x2BF JUMPI DUP1 PUSH4 0xF5B541A6 EQ PUSH2 0x284 JUMPI PUSH4 0xFD585248 EQ PUSH2 0xDC JUMPI PUSH1 0x0 DUP1 REVERT JUMPDEST CALLVALUE PUSH2 0x27F JUMPI PUSH1 0x20 SWAP1 DUP2 PUSH1 0x3 NOT CALLDATASIZE ADD SLT PUSH2 0x27F JUMPI DUP1 CALLDATALOAD SWAP1 DUP2 PUSH1 0x0 MSTORE PUSH1 0x2 DUP4 MSTORE PUSH1 0x40 PUSH1 0x0 KECCAK256 SWAP3 PUSH1 0x40 MLOAD SWAP3 DUP4 DUP5 DUP4 DUP8 SLOAD SWAP3 DUP4 DUP2 MSTORE ADD DUP1 SWAP8 PUSH1 0x0 MSTORE DUP5 PUSH1 0x0 KECCAK256 SWAP3 PUSH1 0x0 JUMPDEST DUP7 DUP3 DUP3 LT PUSH2 0x260 JUMPI POP POP POP PUSH2 0x132 SWAP3 POP SUB DUP6 PUSH2 0x1065 JUMP JUMPDEST PUSH1 0x0 MSTORE PUSH1 0x3 DUP2 MSTORE PUSH1 0x40 PUSH1 0x0 KECCAK256 SWAP2 DUP3 SLOAD SWAP1 PUSH8 0xFFFFFFFFFFFFFFFF DUP3 GT PUSH2 0x24B JUMPI POP PUSH1 0x40 MLOAD SWAP1 PUSH2 0x165 DUP4 DUP3 PUSH1 0x5 SHL ADD DUP4 PUSH2 0x1065 JUMP JUMPDEST DUP1 DUP3 MSTORE DUP3 DUP3 ADD DUP1 SWAP5 PUSH1 0x0 MSTORE DUP4 PUSH1 0x0 KECCAK256 DUP5 PUSH1 0x0 SWAP3 JUMPDEST DUP5 DUP5 LT PUSH2 0x21E JUMPI POP POP POP POP POP PUSH1 0x40 MLOAD SWAP4 PUSH1 0x40 DUP6 ADD SWAP1 PUSH1 0x40 DUP7 MSTORE MLOAD DUP1 SWAP2 MSTORE PUSH1 0x60 DUP6 ADD SWAP6 SWAP1 PUSH1 0x0 JUMPDEST DUP2 DUP2 LT PUSH2 0x201 JUMPI POP POP POP DUP4 DUP6 SUB DUP3 DUP6 ADD MSTORE MLOAD DUP1 DUP6 MSTORE DUP2 DUP6 ADD SWAP2 DUP1 DUP3 PUSH1 0x5 SHL DUP8 ADD ADD SWAP4 SWAP3 PUSH1 0x0 SWAP7 JUMPDEST DUP4 DUP9 LT PUSH2 0x1D3 JUMPI DUP7 DUP7 SUB DUP8 RETURN JUMPDEST SWAP1 SWAP2 SWAP3 SWAP4 SWAP5 DUP4 DUP1 PUSH2 0x1F0 PUSH1 0x1 SWAP4 PUSH1 0x1F NOT DUP7 DUP3 SUB ADD DUP8 MSTORE DUP10 MLOAD PUSH2 0xC61 JUMP JUMPDEST SWAP8 ADD SWAP4 ADD SWAP8 ADD SWAP7 SWAP1 SWAP4 SWAP3 SWAP2 SWAP4 PUSH2 0x1C6 JUMP JUMPDEST DUP3 MLOAD PUSH1 0x1 PUSH1 0x1 PUSH1 0xA0 SHL SUB AND DUP9 MSTORE SWAP7 DUP5 ADD SWAP7 SWAP2 DUP5 ADD SWAP2 PUSH1 0x1 ADD PUSH2 0x19F JUMP JUMPDEST PUSH1 0x1 SWAP2 DUP3 SWAP2 PUSH1 0x40 MLOAD PUSH2 0x23B DUP2 PUSH2 0x234 DUP2 DUP10 PUSH2 0x1395 JUMP JUMPDEST SUB DUP3 PUSH2 0x1065 JUMP JUMPDEST DUP2 MSTORE ADD SWAP3 ADD SWAP3 ADD SWAP2 SWAP1 DUP6 SWAP1 PUSH2 0x179 JUMP JUMPDEST PUSH1 0x41 SWAP1 PUSH4 0x4E487B71 PUSH1 0xE0 SHL PUSH1 0x0 MSTORE MSTORE PUSH1 0x24 PUSH1 0x0 REVERT JUMPDEST DUP6 SLOAD PUSH1 0x1 PUSH1 0x1 PUSH1 0xA0 SHL SUB AND DUP5 MSTORE PUSH1 0x1 SWAP6 DUP7 ADD SWAP6 DUP11 SWAP6 POP SWAP4 ADD SWAP3 ADD PUSH2 0x11B JUMP JUMPDEST PUSH1 0x0 DUP1 REVERT JUMPDEST CALLVALUE PUSH2 0x27F JUMPI PUSH1 0x0 CALLDATASIZE PUSH1 0x3 NOT ADD SLT PUSH2 0x27F JUMPI PUSH1 0x20 PUSH1 0x40 MLOAD PUSH32 0x97667070C54EF182B0F5858B034BEAC1B6F3089AA2D3188BB1E8929F4FA9B929 DUP2 MSTORE RETURN JUMPDEST CALLVALUE PUSH2 0x27F JUMPI PUSH1 0x0 CALLDATASIZE PUSH1 0x3 NOT ADD SLT PUSH2 0x27F JUMPI PUSH1 0x20 PUSH1 0x40 MLOAD PUSH32 0x71840DC4906352362B0CDAF79870196C8E42ACAFADE72D5D5A6D59291253CEB1 DUP2 MSTORE RETURN JUMPDEST POP CALLVALUE PUSH2 0x27F JUMPI PUSH2 0x309 CALLDATASIZE PUSH2 0xC9C JUMP JUMPDEST CALLER PUSH1 0x0 SWAP1 DUP2 MSTORE PUSH32 0xEE57CD81E84075558E8FCC182A1F4393F91FC97F963A136E66B7F949A62F319F PUSH1 0x20 MSTORE PUSH1 0x40 SWAP1 KECCAK256 SLOAD SWAP1 SWAP4 SWAP3 SWAP1 PUSH2 0x348 SWAP1 PUSH1 0xFF AND PUSH2 0x1122 JUMP JUMPDEST PUSH1 0x1 PUSH1 0x1 PUSH1 0xA0 SHL SUB SWAP1 PUSH2 0x35E DUP2 DUP4 AND ISZERO ISZERO PUSH2 0x1163 JUMP JUMPDEST DUP5 ISZERO PUSH2 0x665 JUMPI DUP4 PUSH1 0x0 MSTORE PUSH1 0x1 PUSH1 0x20 MSTORE PUSH1 0x40 PUSH1 0x0 KECCAK256 SLOAD PUSH2 0x62F JUMPI PUSH1 0x40 MLOAD PUSH2 0x383 DUP2 PUSH2 0x1033 JUMP JUMPDEST DUP5 DUP2 MSTORE PUSH1 0x20 DUP2 ADD DUP4 DUP4 AND DUP2 MSTORE PUSH8 0xFFFFFFFFFFFFFFFF DUP8 GT PUSH2 0x61A JUMPI PUSH1 0x40 MLOAD PUSH2 0x3B5 PUSH1 0x1F DUP10 ADD PUSH1 0x1F NOT AND PUSH1 0x20 ADD DUP3 PUSH2 0x1065 JUMP JUMPDEST DUP8 DUP2 MSTORE CALLDATASIZE DUP9 DUP8 ADD GT PUSH2 0x27F JUMPI DUP8 DUP7 PUSH1 0x20 DUP4 ADD CALLDATACOPY PUSH1 0x0 PUSH1 0x20 DUP10 DUP4 ADD ADD MSTORE PUSH1 0x40 DUP4 ADD SWAP1 DUP2 MSTORE PUSH8 0xFFFFFFFFFFFFFFFF TIMESTAMP AND DUP1 PUSH1 0x60 DUP6 ADD MSTORE PUSH1 0x80 DUP5 ADD MSTORE DUP7 PUSH1 0x0 MSTORE PUSH1 0x1 PUSH1 0x20 MSTORE PUSH1 0x40 PUSH1 0x0 KECCAK256 SWAP2 DUP4 MLOAD DUP4 SSTORE DUP6 PUSH1 0x1 DUP5 ADD SWAP2 MLOAD AND PUSH12 0xFFFFFFFFFFFFFFFFFFFFFFFF PUSH1 0xA0 SHL DUP3 SLOAD AND OR SWAP1 SSTORE MLOAD DUP1 MLOAD SWAP1 PUSH8 0xFFFFFFFFFFFFFFFF DUP3 GT PUSH2 0x605 JUMPI DUP9 SWAP10 POP PUSH2 0x453 DUP3 PUSH2 0x44A PUSH1 0x2 DUP7 SWAP13 SWAP11 SWAP12 SWAP13 ADD SLOAD PUSH2 0x11A8 JUMP JUMPDEST PUSH1 0x2 DUP7 ADD PUSH2 0x11E2 JUMP JUMPDEST PUSH1 0x20 SWAP1 PUSH1 0x1F DUP4 GT PUSH1 0x1 EQ PUSH2 0x55B JUMPI PUSH1 0x80 PUSH1 0x3 PUSH32 0xF5DDFD7EE384D3ACC46AAB5B9807217E71933F0C3DB67FFBF556452423695F9 SWAP11 SWAP8 SWAP6 DUP6 PUSH2 0x4F7 SWAP7 PUSH1 0x40 SWAP12 SWAP10 SWAP7 PUSH8 0xFFFFFFFFFFFFFFFF SWAP7 PUSH1 0x0 SWAP3 PUSH2 0x550 JUMPI JUMPDEST POP POP DUP2 PUSH1 0x1 SHL SWAP2 PUSH1 0x0 NOT SWAP1 DUP6 SHL SHR NOT AND OR PUSH1 0x2 DUP3 ADD SSTORE JUMPDEST ADD SWAP3 DUP3 PUSH1 0x60 DUP3 ADD MLOAD AND DUP4 NOT DUP6 SLOAD AND OR DUP5 SSTORE ADD MLOAD AND PUSH8 0xFFFFFFFFFFFFFFFF PUSH1 0x40 SHL DUP3 SLOAD SWAP2 PUSH1 0x40 SHL AND SWAP1 PUSH8 0xFFFFFFFFFFFFFFFF PUSH1 0x40 SHL NOT AND OR SWAP1 SSTORE JUMP JUMPDEST DUP7 PUSH1 0x0 MSTORE PUSH1 0x2 PUSH1 0x20 MSTORE PUSH2 0x50D DUP2 DUP6 PUSH1 0x0 KECCAK256 PUSH2 0x124E JUMP JUMPDEST DUP7 PUSH1 0x0 MSTORE PUSH1 0x3 PUSH1 0x20 MSTORE PUSH2 0x524 DUP6 DUP5 DUP7 PUSH1 0x0 KECCAK256 PUSH2 0x134D JUMP JUMPDEST DUP4 MLOAD SWAP5 DUP6 SWAP4 PUSH1 0x20 DUP6 MSTORE DUP2 PUSH1 0x20 DUP7 ADD MSTORE DUP6 DUP6 ADD CALLDATACOPY PUSH1 0x0 DUP4 DUP10 ADD DUP6 ADD MSTORE AND SWAP6 PUSH1 0x1F ADD PUSH1 0x1F NOT AND DUP2 ADD SUB ADD SWAP1 LOG3 STOP JUMPDEST ADD MLOAD SWAP1 POP CODESIZE DUP1 PUSH2 0x4A5 JUMP JUMPDEST SWAP1 PUSH1 0x2 DUP5 ADD PUSH1 0x0 MSTORE PUSH1 0x20 PUSH1 0x0 KECCAK256 SWAP2 PUSH1 0x0 JUMPDEST PUSH1 0x1F NOT DUP6 AND DUP2 LT PUSH2 0x5EA JUMPI POP PUSH1 0x3 PUSH32 0xF5DDFD7EE384D3ACC46AAB5B9807217E71933F0C3DB67FFBF556452423695F9 SWAP11 SWAP8 SWAP6 PUSH1 0x1 DUP7 PUSH1 0x40 SWAP12 SWAP10 SWAP7 PUSH8 0xFFFFFFFFFFFFFFFF SWAP7 PUSH1 0x80 SWAP7 PUSH2 0x4F7 SWAP11 PUSH1 0x1F NOT DUP2 AND LT PUSH2 0x5D2 JUMPI JUMPDEST POP POP POP DUP2 SHL ADD PUSH1 0x2 DUP3 ADD SSTORE PUSH2 0x4BC JUMP JUMPDEST ADD MLOAD PUSH1 0x0 NOT DUP4 DUP8 SHL PUSH1 0xF8 AND SHR NOT AND SWAP1 SSTORE CODESIZE DUP1 DUP1 PUSH2 0x5C2 JUMP JUMPDEST DUP2 DUP4 ADD MLOAD DUP5 SSTORE DUP13 SWAP10 POP PUSH1 0x1 SWAP1 SWAP4 ADD SWAP3 PUSH1 0x20 SWAP3 DUP4 ADD SWAP3 ADD PUSH2 0x56C JUMP JUMPDEST PUSH1 0x41 DUP11 PUSH4 0x4E487B71 PUSH1 0xE0 SHL PUSH1 0x0 MSTORE MSTORE PUSH1 0x24 PUSH1 0x0 REVERT JUMPDEST PUSH1 0x41 DUP9 PUSH4 0x4E487B71 PUSH1 0xE0 SHL PUSH1 0x0 MSTORE MSTORE PUSH1 0x24 PUSH1 0x0 REVERT JUMPDEST PUSH1 0x40 MLOAD PUSH3 0x461BCD PUSH1 0xE5 SHL DUP2 MSTORE PUSH1 0x20 DUP2 DUP9 ADD MSTORE PUSH1 0xF PUSH1 0x24 DUP3 ADD MSTORE PUSH15 0x52454749535452593A455849535453 PUSH1 0x88 SHL PUSH1 0x44 DUP3 ADD MSTORE PUSH1 0x64 SWAP1 REVERT JUMPDEST PUSH1 0x40 MLOAD PUSH3 0x461BCD PUSH1 0xE5 SHL DUP2 MSTORE PUSH1 0x20 DUP2 DUP9 ADD MSTORE PUSH1 0x16 PUSH1 0x24 DUP3 ADD MSTORE PUSH22 0x149151D254D514964E921054D217D491545552549151 PUSH1 0x52 SHL PUSH1 0x44 DUP3 ADD MSTORE PUSH1 0x64 SWAP1 REVERT JUMPDEST POP CALLVALUE PUSH2 0x27F JUMPI PUSH1 0x40 CALLDATASIZE PUSH1 0x3 NOT ADD SLT PUSH2 0x27F JUMPI PUSH2 0x6E1 SWAP1 CALLDATALOAD PUSH2 0x6C1 PUSH2 0xC86 JUMP JUMPDEST SWAP1 DUP1 PUSH1 0x0 MSTORE PUSH1 0x0 PUSH1 0x20 MSTORE PUSH2 0x6DC PUSH1 0x1 PUSH1 0x40 PUSH1 0x0 KECCAK256 ADD SLOAD PUSH2 0xCFE JUMP JUMPDEST PUSH2 0x1087 JUMP JUMPDEST STOP JUMPDEST POP CALLVALUE PUSH2 0x27F JUMPI PUSH1 0x20 CALLDATASIZE PUSH1 0x3 NOT ADD SLT PUSH2 0x27F JUMPI PUSH2 0x234 PUSH2 0x717 PUSH1 0x2 PUSH2 0x70A PUSH2 0x72B SWAP5 CALLDATALOAD PUSH2 0x142B JUMP JUMPDEST ADD PUSH1 0x40 MLOAD SWAP3 DUP4 DUP1 SWAP3 PUSH2 0x1395 JUMP JUMPDEST PUSH1 0x40 MLOAD SWAP2 DUP3 SWAP2 PUSH1 0x20 DUP4 MSTORE PUSH1 0x20 DUP4 ADD SWAP1 PUSH2 0xC61 JUMP JUMPDEST SUB SWAP1 RETURN JUMPDEST CALLVALUE PUSH2 0x27F JUMPI PUSH1 0x0 CALLDATASIZE PUSH1 0x3 NOT ADD SLT PUSH2 0x27F JUMPI PUSH1 0x20 PUSH1 0x40 MLOAD PUSH1 0x0 DUP2 MSTORE RETURN JUMPDEST POP CALLVALUE PUSH2 0x27F JUMPI PUSH1 0x40 CALLDATASIZE PUSH1 0x3 NOT ADD SLT PUSH2 0x27F JUMPI PUSH2 0x765 PUSH2 0xC86 JUMP JUMPDEST SWAP1 CALLDATALOAD PUSH1 0x0 MSTORE PUSH1 0x0 PUSH1 0x20 MSTORE PUSH1 0x40 PUSH1 0x0 KECCAK256 SWAP1 PUSH1 0x1 DUP1 PUSH1 0xA0 SHL SUB AND PUSH1 0x0 MSTORE PUSH1 0x20 MSTORE PUSH1 0x20 PUSH1 0xFF PUSH1 0x40 PUSH1 0x0 KECCAK256 SLOAD AND PUSH1 0x40 MLOAD SWAP1 ISZERO ISZERO DUP2 MSTORE RETURN JUMPDEST CALLVALUE PUSH2 0x27F JUMPI PUSH1 0x0 CALLDATASIZE PUSH1 0x3 NOT ADD SLT PUSH2 0x27F JUMPI PUSH1 0x20 PUSH1 0x40 MLOAD PUSH32 0x114E74F6EA3BD819998F78687BFCB11B140DA08E9B7D222FA9C1F1BA1F2AA122 DUP2 MSTORE RETURN JUMPDEST CALLVALUE PUSH2 0x27F JUMPI PUSH1 0x0 CALLDATASIZE PUSH1 0x3 NOT ADD SLT PUSH2 0x27F JUMPI PUSH1 0x20 PUSH1 0x40 MLOAD PUSH32 0x2FDAC322EE704CE09F0773F7F3F92EB98D5E7C836EE9C056CCCD5F61041E5E3F DUP2 MSTORE RETURN JUMPDEST POP CALLVALUE PUSH2 0x27F JUMPI PUSH1 0x40 CALLDATASIZE PUSH1 0x3 NOT ADD SLT PUSH2 0x27F JUMPI PUSH2 0x828 PUSH2 0xC86 JUMP JUMPDEST CALLER PUSH1 0x1 PUSH1 0x1 PUSH1 0xA0 SHL SUB DUP3 AND SUB PUSH2 0x842 JUMPI PUSH2 0x6E1 SWAP2 CALLDATALOAD PUSH2 0x1087 JUMP JUMPDEST PUSH1 0x40 MLOAD PUSH3 0x461BCD PUSH1 0xE5 SHL DUP2 MSTORE PUSH1 0x20 DUP2 DUP5 ADD MSTORE PUSH1 0x2F PUSH1 0x24 DUP3 ADD MSTORE PUSH32 0x416363657373436F6E74726F6C3A2063616E206F6E6C792072656E6F756E6365 PUSH1 0x44 DUP3 ADD MSTORE PUSH15 0x103937B632B9903337B91039B2B633 PUSH1 0x89 SHL PUSH1 0x64 DUP3 ADD MSTORE PUSH1 0x84 SWAP1 REVERT JUMPDEST POP CALLVALUE PUSH2 0x27F JUMPI PUSH1 0x40 CALLDATASIZE PUSH1 0x3 NOT ADD SLT PUSH2 0x27F JUMPI CALLDATALOAD PUSH2 0x8B9 PUSH2 0xC86 JUMP JUMPDEST DUP2 PUSH1 0x0 MSTORE PUSH1 0x0 PUSH1 0x20 MSTORE PUSH2 0x8D3 PUSH1 0x1 PUSH1 0x40 PUSH1 0x0 KECCAK256 ADD SLOAD PUSH2 0xCFE JUMP JUMPDEST DUP2 PUSH1 0x0 MSTORE PUSH1 0x0 PUSH1 0x20 MSTORE PUSH1 0x40 PUSH1 0x0 KECCAK256 SWAP1 PUSH1 0x1 DUP1 PUSH1 0xA0 SHL SUB AND SWAP1 DUP2 PUSH1 0x0 MSTORE PUSH1 0x20 MSTORE PUSH1 0xFF PUSH1 0x40 PUSH1 0x0 KECCAK256 SLOAD AND ISZERO PUSH2 0x902 JUMPI STOP JUMPDEST DUP2 PUSH1 0x0 MSTORE PUSH1 0x0 PUSH1 0x20 MSTORE PUSH1 0x40 PUSH1 0x0 KECCAK256 DUP2 PUSH1 0x0 MSTORE PUSH1 0x20 MSTORE PUSH1 0x40 PUSH1 0x0 KECCAK256 PUSH1 0x1 PUSH1 0xFF NOT DUP3 SLOAD AND OR SWAP1 SSTORE CALLER SWAP2 PUSH32 0x2F8788117E7EFF1D82E926EC794901D17C78024A50270940304540A733656F0D PUSH1 0x0 DUP1 LOG4 STOP JUMPDEST POP CALLVALUE PUSH2 0x27F JUMPI PUSH1 0x20 CALLDATASIZE PUSH1 0x3 NOT ADD SLT PUSH2 0x27F JUMPI CALLDATALOAD PUSH1 0x0 MSTORE PUSH1 0x0 PUSH1 0x20 MSTORE PUSH1 0x20 PUSH1 0x1 PUSH1 0x40 PUSH1 0x0 KECCAK256 ADD SLOAD PUSH1 0x40 MLOAD SWAP1 DUP2 MSTORE RETURN JUMPDEST CALLVALUE PUSH2 0x27F JUMPI PUSH1 0x2 PUSH2 0xA8D PUSH32 0x6CAFC036724AE742D6086206D78DD403CE6CF9B66F3D0636047EEBC483310C8F PUSH2 0x9B2 CALLDATASIZE PUSH2 0xC9C JUMP JUMPDEST PUSH32 0x97667070C54EF182B0F5858B034BEAC1B6F3089AA2D3188BB1E8929F4FA9B929 PUSH1 0x0 SWAP8 SWAP5 SWAP7 SWAP3 SWAP8 MSTORE PUSH2 0xA7B PUSH1 0x20 SWAP4 PUSH1 0x0 DUP6 MSTORE PUSH1 0x40 PUSH1 0x0 KECCAK256 CALLER PUSH1 0x0 MSTORE DUP6 MSTORE PUSH2 0xA01 PUSH1 0xFF PUSH1 0x40 PUSH1 0x0 KECCAK256 SLOAD AND PUSH2 0x1122 JUMP JUMPDEST PUSH1 0x1 PUSH1 0x1 PUSH1 0xA0 SHL SUB DUP2 AND SWAP9 PUSH2 0xA17 DUP11 ISZERO ISZERO PUSH2 0x1163 JUMP JUMPDEST PUSH2 0xA20 DUP10 PUSH2 0x142B JUMP JUMPDEST PUSH1 0x1 DUP2 ADD DUP1 SLOAD PUSH1 0x1 PUSH1 0x1 PUSH1 0xA0 SHL SUB NOT AND DUP13 OR SWAP1 SSTORE SWAP4 DUP1 PUSH2 0xA92 JUMPI JUMPDEST POP POP PUSH1 0x3 DUP4 ADD DUP1 SLOAD PUSH16 0xFFFFFFFFFFFFFFFF0000000000000000 NOT AND TIMESTAMP PUSH1 0x40 SHL PUSH8 0xFFFFFFFFFFFFFFFF PUSH1 0x40 SHL AND OR SWAP1 SSTORE DUP8 PUSH1 0x0 MSTORE DUP6 DUP6 MSTORE PUSH1 0x40 PUSH1 0x0 KECCAK256 PUSH2 0x124E JUMP JUMPDEST PUSH1 0x40 MLOAD SWAP4 DUP4 DUP6 SWAP5 DUP6 MSTORE DUP5 ADD SWAP2 ADD PUSH2 0x1395 JUMP JUMPDEST SUB SWAP1 LOG3 STOP JUMPDEST DUP2 PUSH2 0xAA3 DUP3 PUSH2 0xAB5 SWAP5 DUP12 DUP10 ADD PUSH2 0x1289 JUMP JUMPDEST DUP11 PUSH1 0x0 MSTORE PUSH1 0x3 DUP9 MSTORE PUSH1 0x40 PUSH1 0x0 KECCAK256 PUSH2 0x134D JUMP JUMPDEST DUP10 DUP1 PUSH2 0xA3B JUMP JUMPDEST CALLVALUE PUSH2 0x27F JUMPI PUSH1 0x0 CALLDATASIZE PUSH1 0x3 NOT ADD SLT PUSH2 0x27F JUMPI PUSH1 0x20 PUSH1 0x40 MLOAD PUSH32 0x68E79A7BF1E0BC45D0A330C573BC367F9CF464FD326078812F301165FBDA4EF1 DUP2 MSTORE RETURN JUMPDEST POP CALLVALUE PUSH2 0x27F JUMPI PUSH1 0x20 CALLDATASIZE PUSH1 0x3 NOT ADD SLT PUSH2 0x27F JUMPI PUSH2 0xB3B SWAP1 PUSH1 0x0 PUSH1 0x80 PUSH1 0x40 MLOAD PUSH2 0xB1D DUP2 PUSH2 0x1033 JUMP JUMPDEST DUP3 DUP2 MSTORE DUP3 PUSH1 0x20 DUP3 ADD MSTORE PUSH1 0x60 PUSH1 0x40 DUP3 ADD MSTORE DUP3 PUSH1 0x60 DUP3 ADD MSTORE ADD MSTORE CALLDATALOAD PUSH2 0x142B JUMP JUMPDEST PUSH1 0x40 MLOAD PUSH2 0xB47 DUP2 PUSH2 0x1033 JUMP JUMPDEST DUP2 SLOAD DUP2 MSTORE PUSH1 0x1 DUP3 ADD SLOAD PUSH1 0x1 PUSH1 0x1 PUSH1 0xA0 SHL SUB SWAP1 DUP2 AND PUSH1 0x20 DUP4 ADD SWAP1 DUP2 MSTORE PUSH1 0x40 MLOAD SWAP1 SWAP4 PUSH1 0x3 SWAP1 PUSH2 0xB82 DUP4 PUSH2 0xB7B DUP2 PUSH1 0x2 DUP6 ADD PUSH2 0x1395 JUMP JUMPDEST SUB DUP5 PUSH2 0x1065 JUMP JUMPDEST PUSH1 0x40 DUP6 ADD SWAP3 DUP4 MSTORE ADD SLOAD PUSH1 0x60 DUP5 ADD SWAP3 PUSH2 0xBD9 PUSH8 0xFFFFFFFFFFFFFFFF SWAP4 DUP5 SWAP3 DUP4 DUP6 AND DUP8 MSTORE DUP4 PUSH1 0x80 DUP10 ADD SWAP6 PUSH1 0x40 SHR AND DUP6 MSTORE PUSH1 0x40 MLOAD SWAP9 DUP10 SWAP9 PUSH1 0x20 DUP11 MSTORE MLOAD PUSH1 0x20 DUP11 ADD MSTORE MLOAD AND PUSH1 0x40 DUP9 ADD MSTORE MLOAD PUSH1 0xA0 PUSH1 0x60 DUP9 ADD MSTORE PUSH1 0xC0 DUP8 ADD SWAP1 PUSH2 0xC61 JUMP JUMPDEST SWAP4 MLOAD AND PUSH1 0x80 DUP6 ADD MSTORE MLOAD AND PUSH1 0xA0 DUP4 ADD MSTORE SUB SWAP1 RETURN JUMPDEST DUP3 CALLVALUE PUSH2 0x27F JUMPI PUSH1 0x20 CALLDATASIZE PUSH1 0x3 NOT ADD SLT PUSH2 0x27F JUMPI CALLDATALOAD SWAP1 PUSH4 0xFFFFFFFF PUSH1 0xE0 SHL DUP3 AND DUP1 SWAP3 SUB PUSH2 0x27F JUMPI PUSH1 0x20 SWAP2 PUSH4 0x7965DB0B PUSH1 0xE0 SHL DUP2 EQ SWAP1 DUP2 ISZERO PUSH2 0xC2D JUMPI JUMPDEST POP ISZERO ISZERO DUP2 MSTORE RETURN JUMPDEST PUSH4 0x1FFC9A7 PUSH1 0xE0 SHL EQ SWAP1 POP DUP4 PUSH2 0xC26 JUMP JUMPDEST PUSH1 0x0 JUMPDEST DUP4 DUP2 LT PUSH2 0xC51 JUMPI POP POP PUSH1 0x0 SWAP2 ADD MSTORE JUMP JUMPDEST DUP2 DUP2 ADD MLOAD DUP4 DUP3 ADD MSTORE PUSH1 0x20 ADD PUSH2 0xC41 JUMP JUMPDEST SWAP1 PUSH1 0x20 SWAP2 PUSH2 0xC7A DUP2 MLOAD DUP1 SWAP3 DUP2 DUP6 MSTORE DUP6 DUP1 DUP7 ADD SWAP2 ADD PUSH2 0xC3E JUMP JUMPDEST PUSH1 0x1F ADD PUSH1 0x1F NOT AND ADD ADD SWAP1 JUMP JUMPDEST PUSH1 0x24 CALLDATALOAD SWAP1 PUSH1 0x1 PUSH1 0x1 PUSH1 0xA0 SHL SUB DUP3 AND DUP3 SUB PUSH2 0x27F JUMPI JUMP JUMPDEST SWAP1 PUSH1 0x60 PUSH1 0x3 NOT DUP4 ADD SLT PUSH2 0x27F JUMPI PUSH1 0x4 CALLDATALOAD SWAP2 PUSH1 0x24 CALLDATALOAD PUSH1 0x1 PUSH1 0x1 PUSH1 0xA0 SHL SUB DUP2 AND DUP2 SUB PUSH2 0x27F JUMPI SWAP2 PUSH1 0x44 CALLDATALOAD PUSH8 0xFFFFFFFFFFFFFFFF SWAP3 DUP4 DUP3 GT PUSH2 0x27F JUMPI DUP1 PUSH1 0x23 DUP4 ADD SLT ISZERO PUSH2 0x27F JUMPI DUP2 PUSH1 0x4 ADD CALLDATALOAD SWAP4 DUP5 GT PUSH2 0x27F JUMPI PUSH1 0x24 DUP5 DUP4 ADD ADD GT PUSH2 0x27F JUMPI PUSH1 0x24 ADD SWAP2 SWAP1 JUMP JUMPDEST PUSH1 0x0 SWAP1 DUP1 DUP3 MSTORE PUSH1 0x20 SWAP1 DUP3 DUP3 MSTORE PUSH1 0x40 SWAP3 DUP4 DUP2 KECCAK256 CALLER DUP3 MSTORE DUP4 MSTORE PUSH1 0xFF DUP5 DUP3 KECCAK256 SLOAD AND ISZERO PUSH2 0xD27 JUMPI POP POP POP POP JUMP JUMPDEST DUP4 MLOAD SWAP2 PUSH8 0xFFFFFFFFFFFFFFFF SWAP1 CALLER PUSH1 0x60 DUP6 ADD DUP4 DUP2 GT DUP7 DUP3 LT OR PUSH2 0x101F JUMPI DUP8 MSTORE PUSH1 0x2A DUP6 MSTORE DUP6 DUP6 ADD SWAP2 DUP8 CALLDATASIZE DUP5 CALLDATACOPY DUP6 MLOAD ISZERO PUSH2 0x100B JUMPI PUSH1 0x30 DUP4 MSTORE8 DUP6 MLOAD SWAP2 PUSH1 0x1 SWAP3 DUP4 LT ISZERO PUSH2 0xFF7 JUMPI PUSH1 0x78 PUSH1 0x21 DUP9 ADD MSTORE8 PUSH1 0x29 JUMPDEST DUP4 DUP2 GT PUSH2 0xF8D JUMPI POP PUSH2 0xF4B JUMPI SWAP1 DUP8 MLOAD SWAP4 PUSH1 0x80 DUP6 ADD SWAP1 DUP6 DUP3 LT SWAP1 DUP3 GT OR PUSH2 0xF37 JUMPI DUP9 MSTORE PUSH1 0x42 DUP5 MSTORE DUP7 DUP5 ADD SWAP5 PUSH1 0x60 CALLDATASIZE DUP8 CALLDATACOPY DUP5 MLOAD ISZERO PUSH2 0xF23 JUMPI PUSH1 0x30 DUP7 MSTORE8 DUP5 MLOAD DUP3 LT ISZERO PUSH2 0xF23 JUMPI SWAP1 PUSH1 0x78 PUSH1 0x21 DUP7 ADD MSTORE8 PUSH1 0x41 SWAP2 JUMPDEST DUP2 DUP4 GT PUSH2 0xEB5 JUMPI POP POP POP PUSH2 0xE73 JUMPI PUSH2 0xE6F SWAP4 DUP7 SWAP4 PUSH2 0xE53 SWAP4 PUSH2 0xE44 PUSH1 0x48 SWAP5 PUSH2 0xE1B SWAP11 MLOAD SWAP11 DUP12 SWAP6 PUSH32 0x416363657373436F6E74726F6C3A206163636F756E7420000000000000000000 DUP13 DUP9 ADD MSTORE MLOAD DUP1 SWAP3 PUSH1 0x37 DUP9 ADD SWAP1 PUSH2 0xC3E JUMP JUMPDEST DUP5 ADD SWAP2 PUSH17 0x1034B99036B4B9B9B4B733903937B6329 PUSH1 0x7D SHL PUSH1 0x37 DUP5 ADD MSTORE MLOAD DUP1 SWAP4 DUP7 DUP5 ADD SWAP1 PUSH2 0xC3E JUMP JUMPDEST ADD SUB PUSH1 0x28 DUP2 ADD DUP8 MSTORE ADD DUP6 PUSH2 0x1065 JUMP JUMPDEST MLOAD SWAP3 DUP4 SWAP3 PUSH3 0x461BCD PUSH1 0xE5 SHL DUP5 MSTORE PUSH1 0x4 DUP5 ADD MSTORE PUSH1 0x24 DUP4 ADD SWAP1 PUSH2 0xC61 JUMP JUMPDEST SUB SWAP1 REVERT JUMPDEST PUSH1 0x64 DUP6 DUP8 MLOAD SWAP1 PUSH3 0x461BCD PUSH1 0xE5 SHL DUP3 MSTORE DUP1 PUSH1 0x4 DUP4 ADD MSTORE PUSH1 0x24 DUP3 ADD MSTORE PUSH32 0x537472696E67733A20686578206C656E67746820696E73756666696369656E74 PUSH1 0x44 DUP3 ADD MSTORE REVERT JUMPDEST SWAP1 SWAP2 SWAP3 PUSH1 0xF DUP2 AND PUSH1 0x10 DUP2 LT ISZERO PUSH2 0xF0F JUMPI PUSH16 0x181899199A1A9B1B9C1CB0B131B232B3 PUSH1 0x81 SHL SWAP1 BYTE PUSH2 0xEE5 DUP6 DUP9 PUSH2 0x10FB JUMP JUMPDEST MSTORE8 PUSH1 0x4 SHR SWAP3 DUP1 ISZERO PUSH2 0xEFB JUMPI PUSH1 0x0 NOT ADD SWAP2 SWAP1 PUSH2 0xDC3 JUMP JUMPDEST PUSH4 0x4E487B71 PUSH1 0xE0 SHL DUP3 MSTORE PUSH1 0x11 PUSH1 0x4 MSTORE PUSH1 0x24 DUP3 REVERT JUMPDEST PUSH4 0x4E487B71 PUSH1 0xE0 SHL DUP4 MSTORE PUSH1 0x32 PUSH1 0x4 MSTORE PUSH1 0x24 DUP4 REVERT JUMPDEST PUSH4 0x4E487B71 PUSH1 0xE0 SHL DUP2 MSTORE PUSH1 0x32 PUSH1 0x4 MSTORE PUSH1 0x24 SWAP1 REVERT JUMPDEST PUSH4 0x4E487B71 PUSH1 0xE0 SHL DUP7 MSTORE PUSH1 0x41 PUSH1 0x4 MSTORE PUSH1 0x24 DUP7 REVERT JUMPDEST PUSH1 0x64 DUP8 DUP10 MLOAD SWAP1 PUSH3 0x461BCD PUSH1 0xE5 SHL DUP3 MSTORE DUP1 PUSH1 0x4 DUP4 ADD MSTORE PUSH1 0x24 DUP3 ADD MSTORE PUSH32 0x537472696E67733A20686578206C656E67746820696E73756666696369656E74 PUSH1 0x44 DUP3 ADD MSTORE REVERT JUMPDEST SWAP1 PUSH1 0xF DUP2 AND PUSH1 0x10 DUP2 LT ISZERO PUSH2 0xFE3 JUMPI PUSH16 0x181899199A1A9B1B9C1CB0B131B232B3 PUSH1 0x81 SHL SWAP1 BYTE PUSH2 0xFBB DUP4 DUP11 PUSH2 0x10FB JUMP JUMPDEST MSTORE8 PUSH1 0x4 SHR SWAP1 DUP1 ISZERO PUSH2 0xFCF JUMPI PUSH1 0x0 NOT ADD PUSH2 0xD74 JUMP JUMPDEST PUSH4 0x4E487B71 PUSH1 0xE0 SHL DUP8 MSTORE PUSH1 0x11 PUSH1 0x4 MSTORE PUSH1 0x24 DUP8 REVERT JUMPDEST PUSH4 0x4E487B71 PUSH1 0xE0 SHL DUP9 MSTORE PUSH1 0x32 PUSH1 0x4 MSTORE PUSH1 0x24 DUP9 REVERT JUMPDEST PUSH4 0x4E487B71 PUSH1 0xE0 SHL DUP7 MSTORE PUSH1 0x32 PUSH1 0x4 MSTORE PUSH1 0x24 DUP7 REVERT JUMPDEST PUSH4 0x4E487B71 PUSH1 0xE0 SHL DUP6 MSTORE PUSH1 0x32 PUSH1 0x4 MSTORE PUSH1 0x24 DUP6 REVERT JUMPDEST PUSH4 0x4E487B71 PUSH1 0xE0 SHL DUP6 MSTORE PUSH1 0x41 PUSH1 0x4 MSTORE PUSH1 0x24 DUP6 REVERT JUMPDEST PUSH1 0xA0 DUP2 ADD SWAP1 DUP2 LT PUSH8 0xFFFFFFFFFFFFFFFF DUP3 GT OR PUSH2 0x104F JUMPI PUSH1 0x40 MSTORE JUMP JUMPDEST PUSH4 0x4E487B71 PUSH1 0xE0 SHL PUSH1 0x0 MSTORE PUSH1 0x41 PUSH1 0x4 MSTORE PUSH1 0x24 PUSH1 0x0 REVERT JUMPDEST SWAP1 PUSH1 0x1F DUP1 NOT SWAP2 ADD AND DUP2 ADD SWAP1 DUP2 LT PUSH8 0xFFFFFFFFFFFFFFFF DUP3 GT OR PUSH2 0x104F JUMPI PUSH1 0x40 MSTORE JUMP JUMPDEST SWAP1 PUSH1 0x0 SWAP2 DUP1 DUP4 MSTORE DUP3 PUSH1 0x20 MSTORE PUSH1 0x40 DUP4 KECCAK256 SWAP2 PUSH1 0x1 DUP1 PUSH1 0xA0 SHL SUB AND SWAP2 DUP3 DUP5 MSTORE PUSH1 0x20 MSTORE PUSH1 0xFF PUSH1 0x40 DUP5 KECCAK256 SLOAD AND PUSH2 0x10B7 JUMPI POP POP POP JUMP JUMPDEST DUP1 DUP4 MSTORE DUP3 PUSH1 0x20 MSTORE PUSH1 0x40 DUP4 KECCAK256 DUP3 DUP5 MSTORE PUSH1 0x20 MSTORE PUSH1 0x40 DUP4 KECCAK256 PUSH1 0xFF NOT DUP2 SLOAD AND SWAP1 SSTORE PUSH32 0xF6391F5C32D9C69D2A47EA670B442974B53935D1EDC7FD64EB21E047A839171B CALLER SWAP4 DUP1 LOG4 JUMP JUMPDEST SWAP1 DUP2 MLOAD DUP2 LT ISZERO PUSH2 0x110C JUMPI ADD PUSH1 0x20 ADD SWAP1 JUMP JUMPDEST PUSH4 0x4E487B71 PUSH1 0xE0 SHL PUSH1 0x0 MSTORE PUSH1 0x32 PUSH1 0x4 MSTORE PUSH1 0x24 PUSH1 0x0 REVERT JUMPDEST ISZERO PUSH2 0x1129 JUMPI JUMP JUMPDEST PUSH1 0x40 MLOAD PUSH3 0x461BCD PUSH1 0xE5 SHL DUP2 MSTORE PUSH1 0x20 PUSH1 0x4 DUP3 ADD MSTORE PUSH1 0x12 PUSH1 0x24 DUP3 ADD MSTORE PUSH18 0x524F4C453A4F50455241544F525F4F4E4C59 PUSH1 0x70 SHL PUSH1 0x44 DUP3 ADD MSTORE PUSH1 0x64 SWAP1 REVERT JUMPDEST ISZERO PUSH2 0x116A JUMPI JUMP JUMPDEST PUSH1 0x40 MLOAD PUSH3 0x461BCD PUSH1 0xE5 SHL DUP2 MSTORE PUSH1 0x20 PUSH1 0x4 DUP3 ADD MSTORE PUSH1 0x16 PUSH1 0x24 DUP3 ADD MSTORE PUSH22 0x2922A3A4A9AA292C9D24A72B20A624A22FA7ABA722A9 PUSH1 0x51 SHL PUSH1 0x44 DUP3 ADD MSTORE PUSH1 0x64 SWAP1 REVERT JUMPDEST SWAP1 PUSH1 0x1 DUP3 DUP2 SHR SWAP3 AND DUP1 ISZERO PUSH2 0x11D8 JUMPI JUMPDEST PUSH1 0x20 DUP4 LT EQ PUSH2 0x11C2 JUMPI JUMP JUMPDEST PUSH4 0x4E487B71 PUSH1 0xE0 SHL PUSH1 0x0 MSTORE PUSH1 0x22 PUSH1 0x4 MSTORE PUSH1 0x24 PUSH1 0x0 REVERT JUMPDEST SWAP2 PUSH1 0x7F AND SWAP2 PUSH2 0x11B7 JUMP JUMPDEST SWAP1 PUSH1 0x1F DUP2 GT PUSH2 0x11F0 JUMPI POP POP POP JUMP JUMPDEST PUSH1 0x0 SWAP2 DUP3 MSTORE PUSH1 0x20 DUP3 KECCAK256 SWAP1 PUSH1 0x20 PUSH1 0x1F DUP6 ADD PUSH1 0x5 SHR DUP4 ADD SWAP5 LT PUSH2 0x122C JUMPI JUMPDEST PUSH1 0x1F ADD PUSH1 0x5 SHR ADD SWAP2 JUMPDEST DUP3 DUP2 LT PUSH2 0x1221 JUMPI POP POP POP JUMP JUMPDEST DUP2 DUP2 SSTORE PUSH1 0x1 ADD PUSH2 0x1215 JUMP JUMPDEST SWAP1 SWAP3 POP DUP3 SWAP1 PUSH2 0x120C JUMP JUMPDEST DUP1 SLOAD DUP3 LT ISZERO PUSH2 0x110C JUMPI PUSH1 0x0 MSTORE PUSH1 0x20 PUSH1 0x0 KECCAK256 ADD SWAP1 PUSH1 0x0 SWAP1 JUMP JUMPDEST DUP1 SLOAD PUSH1 0x1 PUSH1 0x40 SHL DUP2 LT ISZERO PUSH2 0x104F JUMPI PUSH2 0x126B SWAP2 PUSH1 0x1 DUP3 ADD DUP2 SSTORE PUSH2 0x1236 JUMP JUMPDEST DUP2 SWAP3 SWAP2 SLOAD SWAP1 PUSH1 0x3 SHL SWAP2 PUSH1 0x1 DUP1 PUSH1 0xA0 SHL SUB DUP1 SWAP2 AND DUP4 SHL SWAP3 SHL NOT AND OR SWAP1 SSTORE JUMP JUMPDEST SWAP1 SWAP3 SWAP2 PUSH8 0xFFFFFFFFFFFFFFFF DUP2 GT PUSH2 0x104F JUMPI PUSH2 0x12AF DUP2 PUSH2 0x12A9 DUP5 SLOAD PUSH2 0x11A8 JUMP JUMPDEST DUP5 PUSH2 0x11E2 JUMP JUMPDEST PUSH1 0x0 PUSH1 0x1F DUP3 GT PUSH1 0x1 EQ PUSH2 0x12E9 JUMPI DUP2 SWAP3 SWAP4 SWAP5 PUSH1 0x0 SWAP3 PUSH2 0x12DE JUMPI JUMPDEST POP POP DUP2 PUSH1 0x1 SHL SWAP2 PUSH1 0x0 NOT SWAP1 PUSH1 0x3 SHL SHR NOT AND OR SWAP1 SSTORE JUMP JUMPDEST ADD CALLDATALOAD SWAP1 POP CODESIZE DUP1 PUSH2 0x12C8 JUMP JUMPDEST PUSH1 0x1F NOT DUP3 AND SWAP5 DUP4 DUP3 MSTORE PUSH1 0x20 SWAP2 DUP3 DUP2 KECCAK256 SWAP3 DUP2 SWAP1 JUMPDEST DUP9 DUP3 LT PUSH2 0x1335 JUMPI POP POP DUP4 PUSH1 0x1 SWAP6 SWAP7 SWAP8 LT PUSH2 0x131B JUMPI JUMPDEST POP POP POP DUP2 SHL ADD SWAP1 SSTORE JUMP JUMPDEST ADD CALLDATALOAD PUSH1 0x0 NOT PUSH1 0x3 DUP5 SWAP1 SHL PUSH1 0xF8 AND SHR NOT AND SWAP1 SSTORE CODESIZE DUP1 DUP1 PUSH2 0x1311 JUMP JUMPDEST DUP1 PUSH1 0x1 DUP5 SWAP7 DUP3 SWAP5 SWAP6 DUP8 ADD CALLDATALOAD DUP2 SSTORE ADD SWAP6 ADD SWAP3 ADD SWAP1 PUSH2 0x12FC JUMP JUMPDEST SWAP2 SWAP1 SWAP2 DUP1 SLOAD PUSH1 0x1 PUSH1 0x40 SHL DUP2 LT ISZERO PUSH2 0x104F JUMPI PUSH2 0x136D SWAP2 PUSH1 0x1 DUP3 ADD DUP2 SSTORE PUSH2 0x1236 JUMP JUMPDEST SWAP3 SWAP1 SWAP3 PUSH2 0x137F JUMPI PUSH2 0x137D SWAP3 PUSH2 0x1289 JUMP JUMPDEST JUMP JUMPDEST PUSH4 0x4E487B71 PUSH1 0xE0 SHL PUSH1 0x0 MSTORE PUSH1 0x0 PUSH1 0x4 MSTORE PUSH1 0x24 PUSH1 0x0 REVERT JUMPDEST SWAP1 PUSH1 0x0 SWAP3 SWAP2 DUP1 SLOAD SWAP2 PUSH2 0x13A6 DUP4 PUSH2 0x11A8 JUMP JUMPDEST SWAP2 DUP3 DUP3 MSTORE PUSH1 0x1 SWAP4 DUP5 DUP2 AND SWAP1 DUP2 PUSH1 0x0 EQ PUSH2 0x1408 JUMPI POP PUSH1 0x1 EQ PUSH2 0x13C8 JUMPI JUMPDEST POP POP POP POP JUMP JUMPDEST SWAP1 SWAP2 SWAP4 SWAP5 POP PUSH1 0x0 MSTORE PUSH1 0x20 SWAP3 DUP4 PUSH1 0x0 KECCAK256 SWAP3 DUP5 PUSH1 0x0 SWAP5 JUMPDEST DUP4 DUP7 LT PUSH2 0x13F4 JUMPI POP POP POP POP ADD ADD SWAP1 CODESIZE DUP1 DUP1 DUP1 PUSH2 0x13C2 JUMP JUMPDEST DUP1 SLOAD DUP6 DUP8 ADD DUP4 ADD MSTORE SWAP5 ADD SWAP4 DUP6 SWAP1 DUP3 ADD PUSH2 0x13DD JUMP JUMPDEST SWAP3 SWAP5 POP POP POP PUSH1 0x20 SWAP4 SWAP5 POP PUSH1 0xFF NOT AND DUP4 DUP4 ADD MSTORE ISZERO ISZERO PUSH1 0x5 SHL ADD ADD SWAP1 CODESIZE DUP1 DUP1 DUP1 PUSH2 0x13C2 JUMP JUMPDEST PUSH1 0x0 MSTORE PUSH1 0x1 PUSH1 0x20 MSTORE PUSH1 0x40 PUSH1 0x0 KECCAK256 DUP1 SLOAD ISZERO PUSH2 0x1442 JUMPI SWAP1 JUMP JUMPDEST PUSH1 0x40 MLOAD PUSH3 0x461BCD PUSH1 0xE5 SHL DUP2 MSTORE PUSH1 0x20 PUSH1 0x4 DUP3 ADD MSTORE PUSH1 0x12 PUSH1 0x24 DUP3 ADD MSTORE PUSH18 0x149151D254D514964E9393D517D193D55391 PUSH1 0x72 SHL PUSH1 0x44 DUP3 ADD MSTORE PUSH1 0x64 SWAP1 REVERT INVALID LOG2 PUSH5 0x6970667358 0x22 SLT KECCAK256 PUSH13 0x3279777A8A0C7F9B96D5C2E9BB 0xE6 NUMBER DUP5 SWAP15 TIMESTAMP PUSH18 0xE0946BF21074182BB178A3B164736F6C6343 STOP ADDMOD EQ STOP CALLER "},"methodIdentifiers":{"DEFAULT_ADMIN_ROLE()":"a217fddf","ESCROW_ROLE()":"6ce76f30","GOVERNANCE_ROLE()":"f36c8f5c","ISSUER_ROLE()":"82aefa24","OPERATOR_ROLE()":"f5b541a6","ORACLE_ROLE()":"07e2cea5","getPropertyHistory(uint256)":"fd585248","getRecord(uint256)":"03e9e609","getRoleAdmin(bytes32)":"248a9ca3","grantRole(bytes32,address)":"2f2ff15d","hasRole(bytes32,address)":"91d14854","registerProperty(uint256,address,string)":"e04ce17b","renounceRole(bytes32,address)":"36568abe","revokeRole(bytes32,address)":"d547741f","supportsInterface(bytes4)":"01ffc9a7","updateOwnership(uint256,address,string)":"1d8e1748","verifyTitle(uint256)":"ae16b152"}}}}}