{"contracts/deeds/DigitalTitleDeed.sol":{"DigitalTitleDeed":{"abi":[{"inputs":[{"internalType":"address","name":"admin","type":"address"}],"stateMutability":"nonpayable","type":"constructor"},{"anonymous":false,"inputs":[{"indexed":true,"internalType":"uint256","name":"deedId","type":"uint256"},{"indexed":true,"internalType":"uint256","name":"propertyId","type":"uint256"},{"indexed":false,"internalType":"string","name":"hash","type":"string"}],"name":"DeedCreated","type":"event"},{"anonymous":false,"inputs":[{"indexed":true,"internalType":"uint256","name":"deedId","type":"uint256"},{"indexed":true,"internalType":"address","name":"newOwner","type":"address"}],"name":"DeedTransferred","type":"event"},{"anonymous":false,"inputs":[{"indexed":true,"internalType":"uint256","name":"deedId","type":"uint256"},{"indexed":false,"internalType":"string","name":"hash","type":"string"}],"name":"DeedVerified","type":"event"},{"anonymous":false,"inputs":[{"indexed":true,"internalType":"bytes32","name":"role","type":"bytes32"},{"indexed":true,"internalType":"bytes32","name":"previousAdminRole","type":"bytes32"},{"indexed":true,"internalType":"bytes32","name":"newAdminRole","type":"bytes32"}],"name":"RoleAdminChanged","type":"event"},{"anonymous":false,"inputs":[{"indexed":true,"internalType":"bytes32","name":"role","type":"bytes32"},{"indexed":true,"internalType":"address","name":"account","type":"address"},{"indexed":true,"internalType":"address","name":"sender","type":"address"}],"name":"RoleGranted","type":"event"},{"anonymous":false,"inputs":[{"indexed":true,"internalType":"bytes32","name":"role","type":"bytes32"},{"indexed":true,"internalType":"address","name":"account","type":"address"},{"indexed":true,"internalType":"address","name":"sender","type":"address"}],"name":"RoleRevoked","type":"event"},{"inputs":[],"name":"DEFAULT_ADMIN_ROLE","outputs":[{"internalType":"bytes32","name":"","type":"bytes32"}],"stateMutability":"view","type":"function"},{"inputs":[],"name":"ESCROW_ROLE","outputs":[{"internalType":"bytes32","name":"","type":"bytes32"}],"stateMutability":"view","type":"function"},{"inputs":[],"name":"GOVERNANCE_ROLE","outputs":[{"internalType":"bytes32","name":"","type":"bytes32"}],"stateMutability":"view","type":"function"},{"inputs":[],"name":"ISSUER_ROLE","outputs":[{"internalType":"bytes32","name":"","type":"bytes32"}],"stateMutability":"view","type":"function"},{"inputs":[],"name":"OPERATOR_ROLE","outputs":[{"internalType":"bytes32","name":"","type":"bytes32"}],"stateMutability":"view","type":"function"},{"inputs":[],"name":"ORACLE_ROLE","outputs":[{"internalType":"bytes32","name":"","type":"bytes32"}],"stateMutability":"view","type":"function"},{"inputs":[{"internalType":"uint256","name":"propertyId","type":"uint256"},{"internalType":"string","name":"hash","type":"string"},{"internalType":"string[]","name":"signatures","type":"string[]"}],"name":"createDeed","outputs":[{"internalType":"uint256","name":"deedId","type":"uint256"}],"stateMutability":"nonpayable","type":"function"},{"inputs":[{"internalType":"uint256","name":"deedId","type":"uint256"}],"name":"getDeed","outputs":[{"components":[{"internalType":"uint256","name":"propertyId","type":"uint256"},{"internalType":"string","name":"hash","type":"string"},{"internalType":"string[]","name":"signatures","type":"string[]"},{"internalType":"uint64","name":"createdAt","type":"uint64"},{"internalType":"address","name":"creator","type":"address"}],"internalType":"struct DataTypes.DeedMeta","name":"","type":"tuple"}],"stateMutability":"view","type":"function"},{"inputs":[{"internalType":"uint256","name":"propertyId","type":"uint256"}],"name":"getDeedByProperty","outputs":[{"internalType":"uint256","name":"deedId","type":"uint256"}],"stateMutability":"view","type":"function"},{"inputs":[{"internalType":"bytes32","name":"role","type":"bytes32"}],"name":"getRoleAdmin","outputs":[{"internalType":"bytes32","name":"","type":"bytes32"}],"stateMutability":"view","type":"function"},{"inputs":[{"internalType":"bytes32","name":"role","type":"bytes32"},{"internalType":"address","name":"account","type":"address"}],"name":"grantRole","outputs":[],"stateMutability":"nonpayable","type":"function"},{"inputs":[{"internalType":"bytes32","name":"role","type":"bytes32"},{"internalType":"address","name":"account","type":"address"}],"name":"hasRole","outputs":[{"internalType":"bool","name":"","type":"bool"}],"stateMutability":"view","type":"function"},{"inputs":[{"internalType":"bytes32","name":"role","type":"bytes32"},{"internalType":"address","name":"account","type":"address"}],"name":"renounceRole","outputs":[],"stateMutability":"nonpayable","type":"function"},{"inputs":[{"internalType":"bytes32","name":"role","type":"bytes32"},{"internalType":"address","name":"account","type":"address"}],"name":"revokeRole","outputs":[],"stateMutability":"nonpayable","type":"function"},{"inputs":[{"internalType":"bytes4","name":"interfaceId","type":"bytes4"}],"name":"supportsInterface","outputs":[{"internalType":"bool","name":"","type":"bool"}],"stateMutability":"view","type":"function"},{"inputs":[{"internalType":"uint256","name":"deedId","type":"uint256"},{"internalType":"address","name":"newOwner","type":"address"}],"name":"transferDeed","outputs":[],"stateMutability":"nonpayable","type":"function"},{"inputs":[{"internalType":"uint256","name":"deedId","type":"uint256"},{"internalType":"string[]","name":"signatures","type":"string[]"}],"name":"updateSignatures","outputs":[],"stateMutability":"nonpayable","type":"function"},{"inputs":[{"internalType":"uint256","name":"deedId","type":"uint256"}],"name":"verifyDeed","outputs":[{"internalType":"string","name":"hash","type":"string"},{"internalType":"string[]","name":"signatures","type":"string[]"}],"stateMutability":"view","type":"function"}],"evm":{"bytecode":{"linkReferences":{},"object":"6080346101f757601f61183138819003918201601f1916830192916001600160401b038411838510176101fc57808392604095865283396020928391810103126101f757516001600160a01b03811691908290036101f757600091828052828252838320818452825260ff8484205416156101ae575b50817f97667070c54ef182b0f5858b034beac1b6f3089aa2d3188bb1e8929f4fa9b92991828252528160018482200181815491557fbd79b86ffe0ab8e8776151514217cd7cacd52c909f66475c3af44e129f0b00ff92838380a4817f2fdac322ee704ce09f0773f7f3f92eb98d5e7c836ee9c056cccd5f61041e5e3f808252600185832001908282549255838380a4817f68e79a7bf1e0bc45d0a330c573bc367f9cf464fd326078812f301165fbda4ef1808252600185832001908282549255838380a4817f114e74f6ea3bd819998f78687bfcb11b140da08e9b7d222fa9c1f1ba1f2aa122808252600185832001908282549255838380a47f71840dc4906352362b0cdaf79870196c8e42acafade72d5d5a6d59291253ceb18083526001848420019183835493558380a45161161e90816102138239f35b8280528282528383208184528252838320805460ff191660011790553390837f2f8788117e7eff1d82e926ec794901d17c78024a50270940304540a733656f0d8180a438610075565b600080fd5b634e487b7160e01b600052604160045260246000fdfe608080604052600436101561001357600080fd5b60003560e01c90816301ffc9a714610deb5750806307e2cea514610db0578063248a9ca314610d815780632f2ff15d14610cce57806336568abe14610c3c57806343aa453414610c10578063683ad72714610acf5780636ce76f3014610a9457806371dc3ace146108f95780637b0ead78146103f957806382aefa24146103be57806388e1a975146102b457806391d1485414610267578063a217fddf1461024b578063d547741f1461020a578063d9f029d514610160578063f36c8f5c146101255763f5b541a6146100e557600080fd5b346101205760003660031901126101205760206040517f97667070c54ef182b0f5858b034beac1b6f3089aa2d3188bb1e8929f4fa9b9298152f35b600080fd5b346101205760003660031901126101205760206040517f71840dc4906352362b0cdaf79870196c8e42acafade72d5d5a6d59291253ceb18152f35b34610120576020806003193601126101205761017d60043561159b565b6001610196600261018f8385016114a2565b9301611546565b926101ac60405193604085526040850190610e77565b90838203818501528451908183528083019281808460051b8301019701936000915b8483106101db5787890388f35b90919293949584806101f8839b601f198682030187528a51610e77565b9a9801969594919091019201906101ce565b3461012057604036600319011261012057610249600435610229610e3e565b90806000526000602052610244600160406000200154610ecc565b61123c565b005b3461012057600036600319011261012057602060405160008152f35b3461012057604036600319011261012057610280610e3e565b600435600052600060205260406000209060018060a01b0316600052602052602060ff604060002054166040519015158152f35b34610120576040366003190112610120576004356102d0610e3e565b3360009081527fee57cd81e84075558e8fcc182a1f4393f91fc97f963a136e66b7f949a62f319f602052604090205490919061030e9060ff166112d7565b6001600160a01b0382169182156103845761035d90600361032e8461159b565b01805468010000000000000000600160e01b03191660409290921b600160401b600160e01b0316919091179055565b7ff9c23072b511f93ee8d9f8e7ff3f7dfe41391c4f0852e708ca8a78d70351cd3d600080a3005b60405162461bcd60e51b81526020600482015260126024820152712222a2a21d24a72b20a624a22fa7aba722a960711b6044820152606490fd5b346101205760003660031901126101205760206040517f114e74f6ea3bd819998f78687bfcb11b140da08e9b7d222fa9c1f1ba1f2aa1228152f35b34610120576060366003190112610120576024356001600160401b0381116101205736602382011215610120576001600160401b0381600401351161012057366024826004013583010111610120576044356001600160401b03811161012057610467903690600401610e9c565b3360009081527fee57cd81e84075558e8fcc182a1f4393f91fc97f963a136e66b7f949a62f319f6020526040902054919290916104a69060ff166112d7565b600435156108bb578060040135156108815760015491600019831461086b5760018301600155604051936104d985611200565b60043585526104f036846004013560248601611318565b60208601526104fe8261135e565b9161050c604051938461121b565b80835260208301368260051b8401116101205782905b8260051b8401821061082c575050505060408401526001600160401b034216606084015233608084015260018201600052600260205260406000208351815560208401518051906001600160401b03821161079e5781906105938261058a6001870154611375565b600187016113c6565b602090601f83116001146107bf576000926107b4575b50508160011b916000199060031b1c19161760018201555b60408401518051602060028401926105d9838561140d565b01916000526020600020916000905b8282106106bb57606088015160038601805460808b0151600160401b600160e01b0360409190911b166001600160401b039093166001600160e01b031990911617919091179055602087876004356000526003835260018201604060002055604051908382528060040135848301528060040135602482016040840137600060408260040135840101527fe2ac0feb57efd1c882af80b10b8d21d6b56077338a804a98623b4d7fb3464ade600435926040816001870194601f8019916004013501168101030190a3600160405191018152f35b80518051906001600160401b03821161079e576106e2826106dc8854611375565b886113c6565b602090601f831160011461072e579282600194936020938695600092610723575b5050600019600383901b1c191690841b1787555b019401910190926105e8565b015190508d80610703565b908660005260206000209160005b601f1985168110610786575083602093600196938796938794601f1981161061076d575b505050811b018755610717565b015160001960f88460031b161c191690558d8080610760565b9192602060018192868501518155019401920161073c565b634e487b7160e01b600052604160045260246000fd5b0151905086806105a9565b600185016000908152602081209350601f198516905b81811061081457509084600195949392106107fb575b505050811b0160018201556105c1565b015160001960f88460031b161c191690558680806107eb565b929360206001819287860151815501950193016107d5565b81356001600160401b0381116101205736601f82870101121561012057602091829161086090369088018035908501611318565b815201910190610522565b634e487b7160e01b600052601160045260246000fd5b60405162461bcd60e51b8152602060048201526012602482015271111151510e921054d217d49154555254915160721b6044820152606490fd5b60405162461bcd60e51b8152602060048201526016602482015275111151510e941493d41154951657d49154555254915160521b6044820152606490fd5b34610120576040366003190112610120576001600160401b036024358181116101205761092a903690600401610e9c565b3360009081527fee57cd81e84075558e8fcc182a1f4393f91fc97f963a136e66b7f949a62f319f60209081526040909120549192909161096c9060ff166112d7565b600261097960043561159b565b0193610985848661140d565b600094855282852091805b85871061099957005b8035601e1983360301811215610120578201803584811161012057803603878301136101205786916109d5826109cf8954611375565b896113c6565b600090601f8311600114610a235791808460019693879695600093610a16575b505050600019600383901b1c191690841b1787555b01940196019592610990565b0101359050838d806109f5565b601f1983169188600052846000209260005b818110610a7a575091856001979492868998979510610a5e575b50505050831b83018755610a0a565b60001960f88660031b161c19920101351690558b808481610a4f565b82840187013585558b966001909501949283019201610a35565b346101205760003660031901126101205760206040517f2fdac322ee704ce09f0773f7f3f92eb98d5e7c836ee9c056cccd5f61041e5e3f8152f35b34610120576020806003193601126101205760006080604051610af181611200565b828152606084820152606060408201528260608201520152610b1460043561159b565b60405190610b2182611200565b80548252600192610b338483016114a2565b8184019081526003610b4760028501611546565b9360408601948552015491606085016001600160401b03918285168252610b99608088019460018060a01b03809760401c16865260405198838a5251838a01525160a060408a015260c0890190610e77565b955195601f1991828983030160608a015287519182815281810182808560051b8401019a01946000925b858410610be2578751891660808e015289518b1660a08e01528c8c038df35b9091929394959a85808f92808f8787610bff940301895251610e77565b9d0194019401929594939190610bc3565b346101205760203660031901126101205760043560005260036020526020604060002054604051908152f35b3461012057604036600319011261012057610c55610e3e565b336001600160a01b03821603610c71576102499060043561123c565b60405162461bcd60e51b815260206004820152602f60248201527f416363657373436f6e74726f6c3a2063616e206f6e6c792072656e6f756e636560448201526e103937b632b9903337b91039b2b63360891b6064820152608490fd5b3461012057604036600319011261012057600435610cea610e3e565b816000526000602052610d04600160406000200154610ecc565b81600052600060205260406000209060018060a01b0316908160005260205260ff6040600020541615610d3357005b8160005260006020526040600020816000526020526040600020600160ff1982541617905533917f2f8788117e7eff1d82e926ec794901d17c78024a50270940304540a733656f0d600080a4005b346101205760203660031901126101205760043560005260006020526020600160406000200154604051908152f35b346101205760003660031901126101205760206040517f68e79a7bf1e0bc45d0a330c573bc367f9cf464fd326078812f301165fbda4ef18152f35b34610120576020366003190112610120576004359063ffffffff60e01b821680920361012057602091637965db0b60e01b8114908115610e2d575b5015158152f35b6301ffc9a760e01b14905083610e26565b602435906001600160a01b038216820361012057565b60005b838110610e675750506000910152565b8181015183820152602001610e57565b90602091610e9081518092818552858086019101610e54565b601f01601f1916010190565b9181601f84011215610120578235916001600160401b038311610120576020808501948460051b01011161012057565b600090808252602090828252604092838120338252835260ff848220541615610ef55750505050565b8351916001600160401b03903360608501838111868210176111ec578752602a855285850191873684378551156111d857603083538551916001928310156111c4576078602188015360295b83811161115a57506111185790875193608085019085821090821117611104578852604284528684019460603687378451156110f0576030865384518210156110f05790607860218601536041915b818311611082575050506110405761103c93869361102093611011604894610fe89a519a8b957f416363657373436f6e74726f6c3a206163636f756e74200000000000000000008c8801525180926037880190610e54565b8401917001034b99036b4b9b9b4b733903937b6329607d1b603784015251809386840190610e54565b0103602881018752018561121b565b5192839262461bcd60e51b845260048401526024830190610e77565b0390fd5b60648587519062461bcd60e51b825280600483015260248201527f537472696e67733a20686578206c656e67746820696e73756666696369656e746044820152fd5b909192600f811660108110156110dc576f181899199a1a9b1b9c1cb0b131b232b360811b901a6110b285886112b0565b5360041c9280156110c857600019019190610f90565b634e487b7160e01b82526011600452602482fd5b634e487b7160e01b83526032600452602483fd5b634e487b7160e01b81526032600452602490fd5b634e487b7160e01b86526041600452602486fd5b60648789519062461bcd60e51b825280600483015260248201527f537472696e67733a20686578206c656e67746820696e73756666696369656e746044820152fd5b90600f811660108110156111b0576f181899199a1a9b1b9c1cb0b131b232b360811b901a611188838a6112b0565b5360041c90801561119c5760001901610f41565b634e487b7160e01b87526011600452602487fd5b634e487b7160e01b88526032600452602488fd5b634e487b7160e01b86526032600452602486fd5b634e487b7160e01b85526032600452602485fd5b634e487b7160e01b85526041600452602485fd5b60a081019081106001600160401b0382111761079e57604052565b90601f801991011681019081106001600160401b0382111761079e57604052565b9060009180835282602052604083209160018060a01b03169182845260205260ff60408420541661126c57505050565b80835282602052604083208284526020526040832060ff1981541690557ff6391f5c32d9c69d2a47ea670b442974b53935d1edc7fd64eb21e047a839171b339380a4565b9081518110156112c1570160200190565b634e487b7160e01b600052603260045260246000fd5b156112de57565b60405162461bcd60e51b8152602060048201526012602482015271524f4c453a4f50455241544f525f4f4e4c5960701b6044820152606490fd5b9291926001600160401b03821161079e5760405191611341601f8201601f19166020018461121b565b829481845281830111610120578281602093846000960137010152565b6001600160401b03811161079e5760051b60200190565b90600182811c921680156113a5575b602083101461138f57565b634e487b7160e01b600052602260045260246000fd5b91607f1691611384565b8181106113ba575050565b600081556001016113af565b9190601f81116113d557505050565b611401926000526020600020906020601f840160051c83019310611403575b601f0160051c01906113af565b565b90915081906113f4565b68010000000000000000821161079e5780549180825582811061142f57505050565b600091825260209081832093840193015b83811061144d5750505050565b808361145b60019354611375565b80611469575b505001611440565b601f808211851461148057505081555b8338611461565b61149990848452868420920160051c82018583016113af565b81835555611479565b90604051918260008254926114b684611375565b90818452600194858116908160001461152357506001146114e0575b50506114019250038361121b565b9093915060005260209081600020936000915b81831061150b575050611401935082010138806114d2565b855488840185015294850194879450918301916114f3565b91505061140194506020925060ff191682840152151560051b82010138806114d2565b9081546115528161135e565b92611560604051948561121b565b818452600090815260208082208186015b84841061157f575050505050565b600183819261158d856114a2565b815201920193019290611571565b600052600260205260406000208054156115b25790565b60405162461bcd60e51b815260206004820152600e60248201526d111151510e9393d517d193d5539160921b6044820152606490fdfea2646970667358221220cfe421e56526a006bff0e5d8d3025b6288e9be2bf6a2038e8924b60ef438e5fd64736f6c63430008140033","opcodes":"PUSH1 0x80 CALLVALUE PUSH2 0x1F7 JUMPI PUSH1 0x1F PUSH2 0x1831 CODESIZE DUP2 SWAP1 SUB SWAP2 DUP3 ADD PUSH1 0x1F NOT AND DUP4 ADD SWAP3 SWAP2 PUSH1 0x1 PUSH1 0x1 PUSH1 0x40 SHL SUB DUP5 GT DUP4 DUP6 LT OR PUSH2 0x1FC JUMPI DUP1 DUP4 SWAP3 PUSH1 0x40 SWAP6 DUP7 MSTORE DUP4 CODECOPY PUSH1 0x20 SWAP3 DUP4 SWAP2 DUP2 ADD SUB SLT PUSH2 0x1F7 JUMPI MLOAD PUSH1 0x1 PUSH1 0x1 PUSH1 0xA0 SHL SUB DUP2 AND SWAP2 SWAP1 DUP3 SWAP1 SUB PUSH2 0x1F7 JUMPI PUSH1 0x0 SWAP2 DUP3 DUP1 MSTORE DUP3 DUP3 MSTORE DUP4 DUP4 KECCAK256 DUP2 DUP5 MSTORE DUP3 MSTORE PUSH1 0xFF DUP5 DUP5 KECCAK256 SLOAD AND ISZERO PUSH2 0x1AE JUMPI JUMPDEST POP DUP2 PUSH32 0x97667070C54EF182B0F5858B034BEAC1B6F3089AA2D3188BB1E8929F4FA9B929 SWAP2 DUP3 DUP3 MSTORE MSTORE DUP2 PUSH1 0x1 DUP5 DUP3 KECCAK256 ADD DUP2 DUP2 SLOAD SWAP2 SSTORE PUSH32 0xBD79B86FFE0AB8E8776151514217CD7CACD52C909F66475C3AF44E129F0B00FF SWAP3 DUP4 DUP4 DUP1 LOG4 DUP2 PUSH32 0x2FDAC322EE704CE09F0773F7F3F92EB98D5E7C836EE9C056CCCD5F61041E5E3F DUP1 DUP3 MSTORE PUSH1 0x1 DUP6 DUP4 KECCAK256 ADD SWAP1 DUP3 DUP3 SLOAD SWAP3 SSTORE DUP4 DUP4 DUP1 LOG4 DUP2 PUSH32 0x68E79A7BF1E0BC45D0A330C573BC367F9CF464FD326078812F301165FBDA4EF1 DUP1 DUP3 MSTORE PUSH1 0x1 DUP6 DUP4 KECCAK256 ADD SWAP1 DUP3 DUP3 SLOAD SWAP3 SSTORE DUP4 DUP4 DUP1 LOG4 DUP2 PUSH32 0x114E74F6EA3BD819998F78687BFCB11B140DA08E9B7D222FA9C1F1BA1F2AA122 DUP1 DUP3 MSTORE PUSH1 0x1 DUP6 DUP4 KECCAK256 ADD SWAP1 DUP3 DUP3 SLOAD SWAP3 SSTORE DUP4 DUP4 DUP1 LOG4 PUSH32 0x71840DC4906352362B0CDAF79870196C8E42ACAFADE72D5D5A6D59291253CEB1 DUP1 DUP4 MSTORE PUSH1 0x1 DUP5 DUP5 KECCAK256 ADD SWAP2 DUP4 DUP4 SLOAD SWAP4 SSTORE DUP4 DUP1 LOG4 MLOAD PUSH2 0x161E SWAP1 DUP2 PUSH2 0x213 DUP3 CODECOPY RETURN JUMPDEST DUP3 DUP1 MSTORE DUP3 DUP3 MSTORE DUP4 DUP4 KECCAK256 DUP2 DUP5 MSTORE DUP3 MSTORE DUP4 DUP4 KECCAK256 DUP1 SLOAD PUSH1 0xFF NOT AND PUSH1 0x1 OR SWAP1 SSTORE CALLER SWAP1 DUP4 PUSH32 0x2F8788117E7EFF1D82E926EC794901D17C78024A50270940304540A733656F0D DUP2 DUP1 LOG4 CODESIZE PUSH2 0x75 JUMP JUMPDEST PUSH1 0x0 DUP1 REVERT JUMPDEST PUSH4 0x4E487B71 PUSH1 0xE0 SHL PUSH1 0x0 MSTORE PUSH1 0x41 PUSH1 0x4 MSTORE PUSH1 0x24 PUSH1 0x0 REVERT INVALID PUSH1 0x80 DUP1 PUSH1 0x40 MSTORE PUSH1 0x4 CALLDATASIZE LT ISZERO PUSH2 0x13 JUMPI PUSH1 0x0 DUP1 REVERT JUMPDEST PUSH1 0x0 CALLDATALOAD PUSH1 0xE0 SHR SWAP1 DUP2 PUSH4 0x1FFC9A7 EQ PUSH2 0xDEB JUMPI POP DUP1 PUSH4 0x7E2CEA5 EQ PUSH2 0xDB0 JUMPI DUP1 PUSH4 0x248A9CA3 EQ PUSH2 0xD81 JUMPI DUP1 PUSH4 0x2F2FF15D EQ PUSH2 0xCCE JUMPI DUP1 PUSH4 0x36568ABE EQ PUSH2 0xC3C JUMPI DUP1 PUSH4 0x43AA4534 EQ PUSH2 0xC10 JUMPI DUP1 PUSH4 0x683AD727 EQ PUSH2 0xACF JUMPI DUP1 PUSH4 0x6CE76F30 EQ PUSH2 0xA94 JUMPI DUP1 PUSH4 0x71DC3ACE EQ PUSH2 0x8F9 JUMPI DUP1 PUSH4 0x7B0EAD78 EQ PUSH2 0x3F9 JUMPI DUP1 PUSH4 0x82AEFA24 EQ PUSH2 0x3BE JUMPI DUP1 PUSH4 0x88E1A975 EQ PUSH2 0x2B4 JUMPI DUP1 PUSH4 0x91D14854 EQ PUSH2 0x267 JUMPI DUP1 PUSH4 0xA217FDDF EQ PUSH2 0x24B JUMPI DUP1 PUSH4 0xD547741F EQ PUSH2 0x20A JUMPI DUP1 PUSH4 0xD9F029D5 EQ PUSH2 0x160 JUMPI DUP1 PUSH4 0xF36C8F5C EQ PUSH2 0x125 JUMPI PUSH4 0xF5B541A6 EQ PUSH2 0xE5 JUMPI PUSH1 0x0 DUP1 REVERT JUMPDEST CALLVALUE PUSH2 0x120 JUMPI PUSH1 0x0 CALLDATASIZE PUSH1 0x3 NOT ADD SLT PUSH2 0x120 JUMPI PUSH1 0x20 PUSH1 0x40 MLOAD PUSH32 0x97667070C54EF182B0F5858B034BEAC1B6F3089AA2D3188BB1E8929F4FA9B929 DUP2 MSTORE RETURN JUMPDEST PUSH1 0x0 DUP1 REVERT JUMPDEST CALLVALUE PUSH2 0x120 JUMPI PUSH1 0x0 CALLDATASIZE PUSH1 0x3 NOT ADD SLT PUSH2 0x120 JUMPI PUSH1 0x20 PUSH1 0x40 MLOAD PUSH32 0x71840DC4906352362B0CDAF79870196C8E42ACAFADE72D5D5A6D59291253CEB1 DUP2 MSTORE RETURN JUMPDEST CALLVALUE PUSH2 0x120 JUMPI PUSH1 0x20 DUP1 PUSH1 0x3 NOT CALLDATASIZE ADD SLT PUSH2 0x120 JUMPI PUSH2 0x17D PUSH1 0x4 CALLDATALOAD PUSH2 0x159B JUMP JUMPDEST PUSH1 0x1 PUSH2 0x196 PUSH1 0x2 PUSH2 0x18F DUP4 DUP6 ADD PUSH2 0x14A2 JUMP JUMPDEST SWAP4 ADD PUSH2 0x1546 JUMP JUMPDEST SWAP3 PUSH2 0x1AC PUSH1 0x40 MLOAD SWAP4 PUSH1 0x40 DUP6 MSTORE PUSH1 0x40 DUP6 ADD SWAP1 PUSH2 0xE77 JUMP JUMPDEST SWAP1 DUP4 DUP3 SUB DUP2 DUP6 ADD MSTORE DUP5 MLOAD SWAP1 DUP2 DUP4 MSTORE DUP1 DUP4 ADD SWAP3 DUP2 DUP1 DUP5 PUSH1 0x5 SHL DUP4 ADD ADD SWAP8 ADD SWAP4 PUSH1 0x0 SWAP2 JUMPDEST DUP5 DUP4 LT PUSH2 0x1DB JUMPI DUP8 DUP10 SUB DUP9 RETURN JUMPDEST SWAP1 SWAP2 SWAP3 SWAP4 SWAP5 SWAP6 DUP5 DUP1 PUSH2 0x1F8 DUP4 SWAP12 PUSH1 0x1F NOT DUP7 DUP3 SUB ADD DUP8 MSTORE DUP11 MLOAD PUSH2 0xE77 JUMP JUMPDEST SWAP11 SWAP9 ADD SWAP7 SWAP6 SWAP5 SWAP2 SWAP1 SWAP2 ADD SWAP3 ADD SWAP1 PUSH2 0x1CE JUMP JUMPDEST CALLVALUE PUSH2 0x120 JUMPI PUSH1 0x40 CALLDATASIZE PUSH1 0x3 NOT ADD SLT PUSH2 0x120 JUMPI PUSH2 0x249 PUSH1 0x4 CALLDATALOAD PUSH2 0x229 PUSH2 0xE3E JUMP JUMPDEST SWAP1 DUP1 PUSH1 0x0 MSTORE PUSH1 0x0 PUSH1 0x20 MSTORE PUSH2 0x244 PUSH1 0x1 PUSH1 0x40 PUSH1 0x0 KECCAK256 ADD SLOAD PUSH2 0xECC JUMP JUMPDEST PUSH2 0x123C JUMP JUMPDEST STOP JUMPDEST CALLVALUE PUSH2 0x120 JUMPI PUSH1 0x0 CALLDATASIZE PUSH1 0x3 NOT ADD SLT PUSH2 0x120 JUMPI PUSH1 0x20 PUSH1 0x40 MLOAD PUSH1 0x0 DUP2 MSTORE RETURN JUMPDEST CALLVALUE PUSH2 0x120 JUMPI PUSH1 0x40 CALLDATASIZE PUSH1 0x3 NOT ADD SLT PUSH2 0x120 JUMPI PUSH2 0x280 PUSH2 0xE3E JUMP JUMPDEST PUSH1 0x4 CALLDATALOAD PUSH1 0x0 MSTORE PUSH1 0x0 PUSH1 0x20 MSTORE PUSH1 0x40 PUSH1 0x0 KECCAK256 SWAP1 PUSH1 0x1 DUP1 PUSH1 0xA0 SHL SUB AND PUSH1 0x0 MSTORE PUSH1 0x20 MSTORE PUSH1 0x20 PUSH1 0xFF PUSH1 0x40 PUSH1 0x0 KECCAK256 SLOAD AND PUSH1 0x40 MLOAD SWAP1 ISZERO ISZERO DUP2 MSTORE RETURN JUMPDEST CALLVALUE PUSH2 0x120 JUMPI PUSH1 0x40 CALLDATASIZE PUSH1 0x3 NOT ADD SLT PUSH2 0x120 JUMPI PUSH1 0x4 CALLDATALOAD PUSH2 0x2D0 PUSH2 0xE3E JUMP JUMPDEST CALLER PUSH1 0x0 SWAP1 DUP2 MSTORE PUSH32 0xEE57CD81E84075558E8FCC182A1F4393F91FC97F963A136E66B7F949A62F319F PUSH1 0x20 MSTORE PUSH1 0x40 SWAP1 KECCAK256 SLOAD SWAP1 SWAP2 SWAP1 PUSH2 0x30E SWAP1 PUSH1 0xFF AND PUSH2 0x12D7 JUMP JUMPDEST PUSH1 0x1 PUSH1 0x1 PUSH1 0xA0 SHL SUB DUP3 AND SWAP2 DUP3 ISZERO PUSH2 0x384 JUMPI PUSH2 0x35D SWAP1 PUSH1 0x3 PUSH2 0x32E DUP5 PUSH2 0x159B JUMP JUMPDEST ADD DUP1 SLOAD PUSH9 0x10000000000000000 PUSH1 0x1 PUSH1 0xE0 SHL SUB NOT AND PUSH1 0x40 SWAP3 SWAP1 SWAP3 SHL PUSH1 0x1 PUSH1 0x40 SHL PUSH1 0x1 PUSH1 0xE0 SHL SUB AND SWAP2 SWAP1 SWAP2 OR SWAP1 SSTORE JUMP JUMPDEST PUSH32 0xF9C23072B511F93EE8D9F8E7FF3F7DFE41391C4F0852E708CA8A78D70351CD3D PUSH1 0x0 DUP1 LOG3 STOP JUMPDEST PUSH1 0x40 MLOAD PUSH3 0x461BCD PUSH1 0xE5 SHL DUP2 MSTORE PUSH1 0x20 PUSH1 0x4 DUP3 ADD MSTORE PUSH1 0x12 PUSH1 0x24 DUP3 ADD MSTORE PUSH18 0x2222A2A21D24A72B20A624A22FA7ABA722A9 PUSH1 0x71 SHL PUSH1 0x44 DUP3 ADD MSTORE PUSH1 0x64 SWAP1 REVERT JUMPDEST CALLVALUE PUSH2 0x120 JUMPI PUSH1 0x0 CALLDATASIZE PUSH1 0x3 NOT ADD SLT PUSH2 0x120 JUMPI PUSH1 0x20 PUSH1 0x40 MLOAD PUSH32 0x114E74F6EA3BD819998F78687BFCB11B140DA08E9B7D222FA9C1F1BA1F2AA122 DUP2 MSTORE RETURN JUMPDEST CALLVALUE PUSH2 0x120 JUMPI PUSH1 0x60 CALLDATASIZE PUSH1 0x3 NOT ADD SLT PUSH2 0x120 JUMPI PUSH1 0x24 CALLDATALOAD PUSH1 0x1 PUSH1 0x1 PUSH1 0x40 SHL SUB DUP2 GT PUSH2 0x120 JUMPI CALLDATASIZE PUSH1 0x23 DUP3 ADD SLT ISZERO PUSH2 0x120 JUMPI PUSH1 0x1 PUSH1 0x1 PUSH1 0x40 SHL SUB DUP2 PUSH1 0x4 ADD CALLDATALOAD GT PUSH2 0x120 JUMPI CALLDATASIZE PUSH1 0x24 DUP3 PUSH1 0x4 ADD CALLDATALOAD DUP4 ADD ADD GT PUSH2 0x120 JUMPI PUSH1 0x44 CALLDATALOAD PUSH1 0x1 PUSH1 0x1 PUSH1 0x40 SHL SUB DUP2 GT PUSH2 0x120 JUMPI PUSH2 0x467 SWAP1 CALLDATASIZE SWAP1 PUSH1 0x4 ADD PUSH2 0xE9C JUMP JUMPDEST CALLER PUSH1 0x0 SWAP1 DUP2 MSTORE PUSH32 0xEE57CD81E84075558E8FCC182A1F4393F91FC97F963A136E66B7F949A62F319F PUSH1 0x20 MSTORE PUSH1 0x40 SWAP1 KECCAK256 SLOAD SWAP2 SWAP3 SWAP1 SWAP2 PUSH2 0x4A6 SWAP1 PUSH1 0xFF AND PUSH2 0x12D7 JUMP JUMPDEST PUSH1 0x4 CALLDATALOAD ISZERO PUSH2 0x8BB JUMPI DUP1 PUSH1 0x4 ADD CALLDATALOAD ISZERO PUSH2 0x881 JUMPI PUSH1 0x1 SLOAD SWAP2 PUSH1 0x0 NOT DUP4 EQ PUSH2 0x86B JUMPI PUSH1 0x1 DUP4 ADD PUSH1 0x1 SSTORE PUSH1 0x40 MLOAD SWAP4 PUSH2 0x4D9 DUP6 PUSH2 0x1200 JUMP JUMPDEST PUSH1 0x4 CALLDATALOAD DUP6 MSTORE PUSH2 0x4F0 CALLDATASIZE DUP5 PUSH1 0x4 ADD CALLDATALOAD PUSH1 0x24 DUP7 ADD PUSH2 0x1318 JUMP JUMPDEST PUSH1 0x20 DUP7 ADD MSTORE PUSH2 0x4FE DUP3 PUSH2 0x135E JUMP JUMPDEST SWAP2 PUSH2 0x50C PUSH1 0x40 MLOAD SWAP4 DUP5 PUSH2 0x121B JUMP JUMPDEST DUP1 DUP4 MSTORE PUSH1 0x20 DUP4 ADD CALLDATASIZE DUP3 PUSH1 0x5 SHL DUP5 ADD GT PUSH2 0x120 JUMPI DUP3 SWAP1 JUMPDEST DUP3 PUSH1 0x5 SHL DUP5 ADD DUP3 LT PUSH2 0x82C JUMPI POP POP POP POP PUSH1 0x40 DUP5 ADD MSTORE PUSH1 0x1 PUSH1 0x1 PUSH1 0x40 SHL SUB TIMESTAMP AND PUSH1 0x60 DUP5 ADD MSTORE CALLER PUSH1 0x80 DUP5 ADD MSTORE PUSH1 0x1 DUP3 ADD PUSH1 0x0 MSTORE PUSH1 0x2 PUSH1 0x20 MSTORE PUSH1 0x40 PUSH1 0x0 KECCAK256 DUP4 MLOAD DUP2 SSTORE PUSH1 0x20 DUP5 ADD MLOAD DUP1 MLOAD SWAP1 PUSH1 0x1 PUSH1 0x1 PUSH1 0x40 SHL SUB DUP3 GT PUSH2 0x79E JUMPI DUP2 SWAP1 PUSH2 0x593 DUP3 PUSH2 0x58A PUSH1 0x1 DUP8 ADD SLOAD PUSH2 0x1375 JUMP JUMPDEST PUSH1 0x1 DUP8 ADD PUSH2 0x13C6 JUMP JUMPDEST PUSH1 0x20 SWAP1 PUSH1 0x1F DUP4 GT PUSH1 0x1 EQ PUSH2 0x7BF JUMPI PUSH1 0x0 SWAP3 PUSH2 0x7B4 JUMPI JUMPDEST POP POP DUP2 PUSH1 0x1 SHL SWAP2 PUSH1 0x0 NOT SWAP1 PUSH1 0x3 SHL SHR NOT AND OR PUSH1 0x1 DUP3 ADD SSTORE JUMPDEST PUSH1 0x40 DUP5 ADD MLOAD DUP1 MLOAD PUSH1 0x20 PUSH1 0x2 DUP5 ADD SWAP3 PUSH2 0x5D9 DUP4 DUP6 PUSH2 0x140D JUMP JUMPDEST ADD SWAP2 PUSH1 0x0 MSTORE PUSH1 0x20 PUSH1 0x0 KECCAK256 SWAP2 PUSH1 0x0 SWAP1 JUMPDEST DUP3 DUP3 LT PUSH2 0x6BB JUMPI PUSH1 0x60 DUP9 ADD MLOAD PUSH1 0x3 DUP7 ADD DUP1 SLOAD PUSH1 0x80 DUP12 ADD MLOAD PUSH1 0x1 PUSH1 0x40 SHL PUSH1 0x1 PUSH1 0xE0 SHL SUB PUSH1 0x40 SWAP2 SWAP1 SWAP2 SHL AND PUSH1 0x1 PUSH1 0x1 PUSH1 0x40 SHL SUB SWAP1 SWAP4 AND PUSH1 0x1 PUSH1 0x1 PUSH1 0xE0 SHL SUB NOT SWAP1 SWAP2 AND OR SWAP2 SWAP1 SWAP2 OR SWAP1 SSTORE PUSH1 0x20 DUP8 DUP8 PUSH1 0x4 CALLDATALOAD PUSH1 0x0 MSTORE PUSH1 0x3 DUP4 MSTORE PUSH1 0x1 DUP3 ADD PUSH1 0x40 PUSH1 0x0 KECCAK256 SSTORE PUSH1 0x40 MLOAD SWAP1 DUP4 DUP3 MSTORE DUP1 PUSH1 0x4 ADD CALLDATALOAD DUP5 DUP4 ADD MSTORE DUP1 PUSH1 0x4 ADD CALLDATALOAD PUSH1 0x24 DUP3 ADD PUSH1 0x40 DUP5 ADD CALLDATACOPY PUSH1 0x0 PUSH1 0x40 DUP3 PUSH1 0x4 ADD CALLDATALOAD DUP5 ADD ADD MSTORE PUSH32 0xE2AC0FEB57EFD1C882AF80B10B8D21D6B56077338A804A98623B4D7FB3464ADE PUSH1 0x4 CALLDATALOAD SWAP3 PUSH1 0x40 DUP2 PUSH1 0x1 DUP8 ADD SWAP5 PUSH1 0x1F DUP1 NOT SWAP2 PUSH1 0x4 ADD CALLDATALOAD ADD AND DUP2 ADD SUB ADD SWAP1 LOG3 PUSH1 0x1 PUSH1 0x40 MLOAD SWAP2 ADD DUP2 MSTORE RETURN JUMPDEST DUP1 MLOAD DUP1 MLOAD SWAP1 PUSH1 0x1 PUSH1 0x1 PUSH1 0x40 SHL SUB DUP3 GT PUSH2 0x79E JUMPI PUSH2 0x6E2 DUP3 PUSH2 0x6DC DUP9 SLOAD PUSH2 0x1375 JUMP JUMPDEST DUP9 PUSH2 0x13C6 JUMP JUMPDEST PUSH1 0x20 SWAP1 PUSH1 0x1F DUP4 GT PUSH1 0x1 EQ PUSH2 0x72E JUMPI SWAP3 DUP3 PUSH1 0x1 SWAP5 SWAP4 PUSH1 0x20 SWAP4 DUP7 SWAP6 PUSH1 0x0 SWAP3 PUSH2 0x723 JUMPI JUMPDEST POP POP PUSH1 0x0 NOT PUSH1 0x3 DUP4 SWAP1 SHL SHR NOT AND SWAP1 DUP5 SHL OR DUP8 SSTORE JUMPDEST ADD SWAP5 ADD SWAP2 ADD SWAP1 SWAP3 PUSH2 0x5E8 JUMP JUMPDEST ADD MLOAD SWAP1 POP DUP14 DUP1 PUSH2 0x703 JUMP JUMPDEST SWAP1 DUP7 PUSH1 0x0 MSTORE PUSH1 0x20 PUSH1 0x0 KECCAK256 SWAP2 PUSH1 0x0 JUMPDEST PUSH1 0x1F NOT DUP6 AND DUP2 LT PUSH2 0x786 JUMPI POP DUP4 PUSH1 0x20 SWAP4 PUSH1 0x1 SWAP7 SWAP4 DUP8 SWAP7 SWAP4 DUP8 SWAP5 PUSH1 0x1F NOT DUP2 AND LT PUSH2 0x76D JUMPI JUMPDEST POP POP POP DUP2 SHL ADD DUP8 SSTORE PUSH2 0x717 JUMP JUMPDEST ADD MLOAD PUSH1 0x0 NOT PUSH1 0xF8 DUP5 PUSH1 0x3 SHL AND SHR NOT AND SWAP1 SSTORE DUP14 DUP1 DUP1 PUSH2 0x760 JUMP JUMPDEST SWAP2 SWAP3 PUSH1 0x20 PUSH1 0x1 DUP2 SWAP3 DUP7 DUP6 ADD MLOAD DUP2 SSTORE ADD SWAP5 ADD SWAP3 ADD PUSH2 0x73C JUMP JUMPDEST PUSH4 0x4E487B71 PUSH1 0xE0 SHL PUSH1 0x0 MSTORE PUSH1 0x41 PUSH1 0x4 MSTORE PUSH1 0x24 PUSH1 0x0 REVERT JUMPDEST ADD MLOAD SWAP1 POP DUP7 DUP1 PUSH2 0x5A9 JUMP JUMPDEST PUSH1 0x1 DUP6 ADD PUSH1 0x0 SWAP1 DUP2 MSTORE PUSH1 0x20 DUP2 KECCAK256 SWAP4 POP PUSH1 0x1F NOT DUP6 AND SWAP1 JUMPDEST DUP2 DUP2 LT PUSH2 0x814 JUMPI POP SWAP1 DUP5 PUSH1 0x1 SWAP6 SWAP5 SWAP4 SWAP3 LT PUSH2 0x7FB JUMPI JUMPDEST POP POP POP DUP2 SHL ADD PUSH1 0x1 DUP3 ADD SSTORE PUSH2 0x5C1 JUMP JUMPDEST ADD MLOAD PUSH1 0x0 NOT PUSH1 0xF8 DUP5 PUSH1 0x3 SHL AND SHR NOT AND SWAP1 SSTORE DUP7 DUP1 DUP1 PUSH2 0x7EB JUMP JUMPDEST SWAP3 SWAP4 PUSH1 0x20 PUSH1 0x1 DUP2 SWAP3 DUP8 DUP7 ADD MLOAD DUP2 SSTORE ADD SWAP6 ADD SWAP4 ADD PUSH2 0x7D5 JUMP JUMPDEST DUP2 CALLDATALOAD PUSH1 0x1 PUSH1 0x1 PUSH1 0x40 SHL SUB DUP2 GT PUSH2 0x120 JUMPI CALLDATASIZE PUSH1 0x1F DUP3 DUP8 ADD ADD SLT ISZERO PUSH2 0x120 JUMPI PUSH1 0x20 SWAP2 DUP3 SWAP2 PUSH2 0x860 SWAP1 CALLDATASIZE SWAP1 DUP9 ADD DUP1 CALLDATALOAD SWAP1 DUP6 ADD PUSH2 0x1318 JUMP JUMPDEST DUP2 MSTORE ADD SWAP2 ADD SWAP1 PUSH2 0x522 JUMP JUMPDEST PUSH4 0x4E487B71 PUSH1 0xE0 SHL PUSH1 0x0 MSTORE PUSH1 0x11 PUSH1 0x4 MSTORE PUSH1 0x24 PUSH1 0x0 REVERT JUMPDEST PUSH1 0x40 MLOAD PUSH3 0x461BCD PUSH1 0xE5 SHL DUP2 MSTORE PUSH1 0x20 PUSH1 0x4 DUP3 ADD MSTORE PUSH1 0x12 PUSH1 0x24 DUP3 ADD MSTORE PUSH18 0x111151510E921054D217D491545552549151 PUSH1 0x72 SHL PUSH1 0x44 DUP3 ADD MSTORE PUSH1 0x64 SWAP1 REVERT JUMPDEST PUSH1 0x40 MLOAD PUSH3 0x461BCD PUSH1 0xE5 SHL DUP2 MSTORE PUSH1 0x20 PUSH1 0x4 DUP3 ADD MSTORE PUSH1 0x16 PUSH1 0x24 DUP3 ADD MSTORE PUSH22 0x111151510E941493D41154951657D491545552549151 PUSH1 0x52 SHL PUSH1 0x44 DUP3 ADD MSTORE PUSH1 0x64 SWAP1 REVERT JUMPDEST CALLVALUE PUSH2 0x120 JUMPI PUSH1 0x40 CALLDATASIZE PUSH1 0x3 NOT ADD SLT PUSH2 0x120 JUMPI PUSH1 0x1 PUSH1 0x1 PUSH1 0x40 SHL SUB PUSH1 0x24 CALLDATALOAD DUP2 DUP2 GT PUSH2 0x120 JUMPI PUSH2 0x92A SWAP1 CALLDATASIZE SWAP1 PUSH1 0x4 ADD PUSH2 0xE9C JUMP JUMPDEST CALLER PUSH1 0x0 SWAP1 DUP2 MSTORE PUSH32 0xEE57CD81E84075558E8FCC182A1F4393F91FC97F963A136E66B7F949A62F319F PUSH1 0x20 SWAP1 DUP2 MSTORE PUSH1 0x40 SWAP1 SWAP2 KECCAK256 SLOAD SWAP2 SWAP3 SWAP1 SWAP2 PUSH2 0x96C SWAP1 PUSH1 0xFF AND PUSH2 0x12D7 JUMP JUMPDEST PUSH1 0x2 PUSH2 0x979 PUSH1 0x4 CALLDATALOAD PUSH2 0x159B JUMP JUMPDEST ADD SWAP4 PUSH2 0x985 DUP5 DUP7 PUSH2 0x140D JUMP JUMPDEST PUSH1 0x0 SWAP5 DUP6 MSTORE DUP3 DUP6 KECCAK256 SWAP2 DUP1 JUMPDEST DUP6 DUP8 LT PUSH2 0x999 JUMPI STOP JUMPDEST DUP1 CALLDATALOAD PUSH1 0x1E NOT DUP4 CALLDATASIZE SUB ADD DUP2 SLT ISZERO PUSH2 0x120 JUMPI DUP3 ADD DUP1 CALLDATALOAD DUP5 DUP2 GT PUSH2 0x120 JUMPI DUP1 CALLDATASIZE SUB DUP8 DUP4 ADD SGT PUSH2 0x120 JUMPI DUP7 SWAP2 PUSH2 0x9D5 DUP3 PUSH2 0x9CF DUP10 SLOAD PUSH2 0x1375 JUMP JUMPDEST DUP10 PUSH2 0x13C6 JUMP JUMPDEST PUSH1 0x0 SWAP1 PUSH1 0x1F DUP4 GT PUSH1 0x1 EQ PUSH2 0xA23 JUMPI SWAP2 DUP1 DUP5 PUSH1 0x1 SWAP7 SWAP4 DUP8 SWAP7 SWAP6 PUSH1 0x0 SWAP4 PUSH2 0xA16 JUMPI JUMPDEST POP POP POP PUSH1 0x0 NOT PUSH1 0x3 DUP4 SWAP1 SHL SHR NOT AND SWAP1 DUP5 SHL OR DUP8 SSTORE JUMPDEST ADD SWAP5 ADD SWAP7 ADD SWAP6 SWAP3 PUSH2 0x990 JUMP JUMPDEST ADD ADD CALLDATALOAD SWAP1 POP DUP4 DUP14 DUP1 PUSH2 0x9F5 JUMP JUMPDEST PUSH1 0x1F NOT DUP4 AND SWAP2 DUP9 PUSH1 0x0 MSTORE DUP5 PUSH1 0x0 KECCAK256 SWAP3 PUSH1 0x0 JUMPDEST DUP2 DUP2 LT PUSH2 0xA7A JUMPI POP SWAP2 DUP6 PUSH1 0x1 SWAP8 SWAP5 SWAP3 DUP7 DUP10 SWAP9 SWAP8 SWAP6 LT PUSH2 0xA5E JUMPI JUMPDEST POP POP POP POP DUP4 SHL DUP4 ADD DUP8 SSTORE PUSH2 0xA0A JUMP JUMPDEST PUSH1 0x0 NOT PUSH1 0xF8 DUP7 PUSH1 0x3 SHL AND SHR NOT SWAP3 ADD ADD CALLDATALOAD AND SWAP1 SSTORE DUP12 DUP1 DUP5 DUP2 PUSH2 0xA4F JUMP JUMPDEST DUP3 DUP5 ADD DUP8 ADD CALLDATALOAD DUP6 SSTORE DUP12 SWAP7 PUSH1 0x1 SWAP1 SWAP6 ADD SWAP5 SWAP3 DUP4 ADD SWAP3 ADD PUSH2 0xA35 JUMP JUMPDEST CALLVALUE PUSH2 0x120 JUMPI PUSH1 0x0 CALLDATASIZE PUSH1 0x3 NOT ADD SLT PUSH2 0x120 JUMPI PUSH1 0x20 PUSH1 0x40 MLOAD PUSH32 0x2FDAC322EE704CE09F0773F7F3F92EB98D5E7C836EE9C056CCCD5F61041E5E3F DUP2 MSTORE RETURN JUMPDEST CALLVALUE PUSH2 0x120 JUMPI PUSH1 0x20 DUP1 PUSH1 0x3 NOT CALLDATASIZE ADD SLT PUSH2 0x120 JUMPI PUSH1 0x0 PUSH1 0x80 PUSH1 0x40 MLOAD PUSH2 0xAF1 DUP2 PUSH2 0x1200 JUMP JUMPDEST DUP3 DUP2 MSTORE PUSH1 0x60 DUP5 DUP3 ADD MSTORE PUSH1 0x60 PUSH1 0x40 DUP3 ADD MSTORE DUP3 PUSH1 0x60 DUP3 ADD MSTORE ADD MSTORE PUSH2 0xB14 PUSH1 0x4 CALLDATALOAD PUSH2 0x159B JUMP JUMPDEST PUSH1 0x40 MLOAD SWAP1 PUSH2 0xB21 DUP3 PUSH2 0x1200 JUMP JUMPDEST DUP1 SLOAD DUP3 MSTORE PUSH1 0x1 SWAP3 PUSH2 0xB33 DUP5 DUP4 ADD PUSH2 0x14A2 JUMP JUMPDEST DUP2 DUP5 ADD SWAP1 DUP2 MSTORE PUSH1 0x3 PUSH2 0xB47 PUSH1 0x2 DUP6 ADD PUSH2 0x1546 JUMP JUMPDEST SWAP4 PUSH1 0x40 DUP7 ADD SWAP5 DUP6 MSTORE ADD SLOAD SWAP2 PUSH1 0x60 DUP6 ADD PUSH1 0x1 PUSH1 0x1 PUSH1 0x40 SHL SUB SWAP2 DUP3 DUP6 AND DUP3 MSTORE PUSH2 0xB99 PUSH1 0x80 DUP9 ADD SWAP5 PUSH1 0x1 DUP1 PUSH1 0xA0 SHL SUB DUP1 SWAP8 PUSH1 0x40 SHR AND DUP7 MSTORE PUSH1 0x40 MLOAD SWAP9 DUP4 DUP11 MSTORE MLOAD DUP4 DUP11 ADD MSTORE MLOAD PUSH1 0xA0 PUSH1 0x40 DUP11 ADD MSTORE PUSH1 0xC0 DUP10 ADD SWAP1 PUSH2 0xE77 JUMP JUMPDEST SWAP6 MLOAD SWAP6 PUSH1 0x1F NOT SWAP2 DUP3 DUP10 DUP4 SUB ADD PUSH1 0x60 DUP11 ADD MSTORE DUP8 MLOAD SWAP2 DUP3 DUP2 MSTORE DUP2 DUP2 ADD DUP3 DUP1 DUP6 PUSH1 0x5 SHL DUP5 ADD ADD SWAP11 ADD SWAP5 PUSH1 0x0 SWAP3 JUMPDEST DUP6 DUP5 LT PUSH2 0xBE2 JUMPI DUP8 MLOAD DUP10 AND PUSH1 0x80 DUP15 ADD MSTORE DUP10 MLOAD DUP12 AND PUSH1 0xA0 DUP15 ADD MSTORE DUP13 DUP13 SUB DUP14 RETURN JUMPDEST SWAP1 SWAP2 SWAP3 SWAP4 SWAP5 SWAP6 SWAP11 DUP6 DUP1 DUP16 SWAP3 DUP1 DUP16 DUP8 DUP8 PUSH2 0xBFF SWAP5 SUB ADD DUP10 MSTORE MLOAD PUSH2 0xE77 JUMP JUMPDEST SWAP14 ADD SWAP5 ADD SWAP5 ADD SWAP3 SWAP6 SWAP5 SWAP4 SWAP2 SWAP1 PUSH2 0xBC3 JUMP JUMPDEST CALLVALUE PUSH2 0x120 JUMPI PUSH1 0x20 CALLDATASIZE PUSH1 0x3 NOT ADD SLT PUSH2 0x120 JUMPI PUSH1 0x4 CALLDATALOAD PUSH1 0x0 MSTORE PUSH1 0x3 PUSH1 0x20 MSTORE PUSH1 0x20 PUSH1 0x40 PUSH1 0x0 KECCAK256 SLOAD PUSH1 0x40 MLOAD SWAP1 DUP2 MSTORE RETURN JUMPDEST CALLVALUE PUSH2 0x120 JUMPI PUSH1 0x40 CALLDATASIZE PUSH1 0x3 NOT ADD SLT PUSH2 0x120 JUMPI PUSH2 0xC55 PUSH2 0xE3E JUMP JUMPDEST CALLER PUSH1 0x1 PUSH1 0x1 PUSH1 0xA0 SHL SUB DUP3 AND SUB PUSH2 0xC71 JUMPI PUSH2 0x249 SWAP1 PUSH1 0x4 CALLDATALOAD PUSH2 0x123C JUMP JUMPDEST PUSH1 0x40 MLOAD PUSH3 0x461BCD PUSH1 0xE5 SHL DUP2 MSTORE PUSH1 0x20 PUSH1 0x4 DUP3 ADD MSTORE PUSH1 0x2F PUSH1 0x24 DUP3 ADD MSTORE PUSH32 0x416363657373436F6E74726F6C3A2063616E206F6E6C792072656E6F756E6365 PUSH1 0x44 DUP3 ADD MSTORE PUSH15 0x103937B632B9903337B91039B2B633 PUSH1 0x89 SHL PUSH1 0x64 DUP3 ADD MSTORE PUSH1 0x84 SWAP1 REVERT JUMPDEST CALLVALUE PUSH2 0x120 JUMPI PUSH1 0x40 CALLDATASIZE PUSH1 0x3 NOT ADD SLT PUSH2 0x120 JUMPI PUSH1 0x4 CALLDATALOAD PUSH2 0xCEA PUSH2 0xE3E JUMP JUMPDEST DUP2 PUSH1 0x0 MSTORE PUSH1 0x0 PUSH1 0x20 MSTORE PUSH2 0xD04 PUSH1 0x1 PUSH1 0x40 PUSH1 0x0 KECCAK256 ADD SLOAD PUSH2 0xECC JUMP JUMPDEST DUP2 PUSH1 0x0 MSTORE PUSH1 0x0 PUSH1 0x20 MSTORE PUSH1 0x40 PUSH1 0x0 KECCAK256 SWAP1 PUSH1 0x1 DUP1 PUSH1 0xA0 SHL SUB AND SWAP1 DUP2 PUSH1 0x0 MSTORE PUSH1 0x20 MSTORE PUSH1 0xFF PUSH1 0x40 PUSH1 0x0 KECCAK256 SLOAD AND ISZERO PUSH2 0xD33 JUMPI STOP JUMPDEST DUP2 PUSH1 0x0 MSTORE PUSH1 0x0 PUSH1 0x20 MSTORE PUSH1 0x40 PUSH1 0x0 KECCAK256 DUP2 PUSH1 0x0 MSTORE PUSH1 0x20 MSTORE PUSH1 0x40 PUSH1 0x0 KECCAK256 PUSH1 0x1 PUSH1 0xFF NOT DUP3 SLOAD AND OR SWAP1 SSTORE CALLER SWAP2 PUSH32 0x2F8788117E7EFF1D82E926EC794901D17C78024A50270940304540A733656F0D PUSH1 0x0 DUP1 LOG4 STOP JUMPDEST CALLVALUE PUSH2 0x120 JUMPI PUSH1 0x20 CALLDATASIZE PUSH1 0x3 NOT ADD SLT PUSH2 0x120 JUMPI PUSH1 0x4 CALLDATALOAD PUSH1 0x0 MSTORE PUSH1 0x0 PUSH1 0x20 MSTORE PUSH1 0x20 PUSH1 0x1 PUSH1 0x40 PUSH1 0x0 KECCAK256 ADD SLOAD PUSH1 0x40 MLOAD SWAP1 DUP2 MSTORE RETURN JUMPDEST CALLVALUE PUSH2 0x120 JUMPI PUSH1 0x0 CALLDATASIZE PUSH1 0x3 NOT ADD SLT PUSH2 0x120 JUMPI PUSH1 0x20 PUSH1 0x40 MLOAD PUSH32 0x68E79A7BF1E0BC45D0A330C573BC367F9CF464FD326078812F301165FBDA4EF1 DUP2 MSTORE RETURN JUMPDEST CALLVALUE PUSH2 0x120 JUMPI PUSH1 0x20 CALLDATASIZE PUSH1 0x3 NOT ADD SLT PUSH2 0x120 JUMPI PUSH1 0x4 CALLDATALOAD SWAP1 PUSH4 0xFFFFFFFF PUSH1 0xE0 SHL DUP3 AND DUP1 SWAP3 SUB PUSH2 0x120 JUMPI PUSH1 0x20 SWAP2 PUSH4 0x7965DB0B PUSH1 0xE0 SHL DUP2 EQ SWAP1 DUP2 ISZERO PUSH2 0xE2D JUMPI JUMPDEST POP ISZERO ISZERO DUP2 MSTORE RETURN JUMPDEST PUSH4 0x1FFC9A7 PUSH1 0xE0 SHL EQ SWAP1 POP DUP4 PUSH2 0xE26 JUMP JUMPDEST PUSH1 0x24 CALLDATALOAD SWAP1 PUSH1 0x1 PUSH1 0x1 PUSH1 0xA0 SHL SUB DUP3 AND DUP3 SUB PUSH2 0x120 JUMPI JUMP JUMPDEST PUSH1 0x0 JUMPDEST DUP4 DUP2 LT PUSH2 0xE67 JUMPI POP POP PUSH1 0x0 SWAP2 ADD MSTORE JUMP JUMPDEST DUP2 DUP2 ADD MLOAD DUP4 DUP3 ADD MSTORE PUSH1 0x20 ADD PUSH2 0xE57 JUMP JUMPDEST SWAP1 PUSH1 0x20 SWAP2 PUSH2 0xE90 DUP2 MLOAD DUP1 SWAP3 DUP2 DUP6 MSTORE DUP6 DUP1 DUP7 ADD SWAP2 ADD PUSH2 0xE54 JUMP JUMPDEST PUSH1 0x1F ADD PUSH1 0x1F NOT AND ADD ADD SWAP1 JUMP JUMPDEST SWAP2 DUP2 PUSH1 0x1F DUP5 ADD SLT ISZERO PUSH2 0x120 JUMPI DUP3 CALLDATALOAD SWAP2 PUSH1 0x1 PUSH1 0x1 PUSH1 0x40 SHL SUB DUP4 GT PUSH2 0x120 JUMPI PUSH1 0x20 DUP1 DUP6 ADD SWAP5 DUP5 PUSH1 0x5 SHL ADD ADD GT PUSH2 0x120 JUMPI JUMP JUMPDEST PUSH1 0x0 SWAP1 DUP1 DUP3 MSTORE PUSH1 0x20 SWAP1 DUP3 DUP3 MSTORE PUSH1 0x40 SWAP3 DUP4 DUP2 KECCAK256 CALLER DUP3 MSTORE DUP4 MSTORE PUSH1 0xFF DUP5 DUP3 KECCAK256 SLOAD AND ISZERO PUSH2 0xEF5 JUMPI POP POP POP POP JUMP JUMPDEST DUP4 MLOAD SWAP2 PUSH1 0x1 PUSH1 0x1 PUSH1 0x40 SHL SUB SWAP1 CALLER PUSH1 0x60 DUP6 ADD DUP4 DUP2 GT DUP7 DUP3 LT OR PUSH2 0x11EC JUMPI DUP8 MSTORE PUSH1 0x2A DUP6 MSTORE DUP6 DUP6 ADD SWAP2 DUP8 CALLDATASIZE DUP5 CALLDATACOPY DUP6 MLOAD ISZERO PUSH2 0x11D8 JUMPI PUSH1 0x30 DUP4 MSTORE8 DUP6 MLOAD SWAP2 PUSH1 0x1 SWAP3 DUP4 LT ISZERO PUSH2 0x11C4 JUMPI PUSH1 0x78 PUSH1 0x21 DUP9 ADD MSTORE8 PUSH1 0x29 JUMPDEST DUP4 DUP2 GT PUSH2 0x115A JUMPI POP PUSH2 0x1118 JUMPI SWAP1 DUP8 MLOAD SWAP4 PUSH1 0x80 DUP6 ADD SWAP1 DUP6 DUP3 LT SWAP1 DUP3 GT OR PUSH2 0x1104 JUMPI DUP9 MSTORE PUSH1 0x42 DUP5 MSTORE DUP7 DUP5 ADD SWAP5 PUSH1 0x60 CALLDATASIZE DUP8 CALLDATACOPY DUP5 MLOAD ISZERO PUSH2 0x10F0 JUMPI PUSH1 0x30 DUP7 MSTORE8 DUP5 MLOAD DUP3 LT ISZERO PUSH2 0x10F0 JUMPI SWAP1 PUSH1 0x78 PUSH1 0x21 DUP7 ADD MSTORE8 PUSH1 0x41 SWAP2 JUMPDEST DUP2 DUP4 GT PUSH2 0x1082 JUMPI POP POP POP PUSH2 0x1040 JUMPI PUSH2 0x103C SWAP4 DUP7 SWAP4 PUSH2 0x1020 SWAP4 PUSH2 0x1011 PUSH1 0x48 SWAP5 PUSH2 0xFE8 SWAP11 MLOAD SWAP11 DUP12 SWAP6 PUSH32 0x416363657373436F6E74726F6C3A206163636F756E7420000000000000000000 DUP13 DUP9 ADD MSTORE MLOAD DUP1 SWAP3 PUSH1 0x37 DUP9 ADD SWAP1 PUSH2 0xE54 JUMP JUMPDEST DUP5 ADD SWAP2 PUSH17 0x1034B99036B4B9B9B4B733903937B6329 PUSH1 0x7D SHL PUSH1 0x37 DUP5 ADD MSTORE MLOAD DUP1 SWAP4 DUP7 DUP5 ADD SWAP1 PUSH2 0xE54 JUMP JUMPDEST ADD SUB PUSH1 0x28 DUP2 ADD DUP8 MSTORE ADD DUP6 PUSH2 0x121B JUMP JUMPDEST MLOAD SWAP3 DUP4 SWAP3 PUSH3 0x461BCD PUSH1 0xE5 SHL DUP5 MSTORE PUSH1 0x4 DUP5 ADD MSTORE PUSH1 0x24 DUP4 ADD SWAP1 PUSH2 0xE77 JUMP JUMPDEST SUB SWAP1 REVERT JUMPDEST PUSH1 0x64 DUP6 DUP8 MLOAD SWAP1 PUSH3 0x461BCD PUSH1 0xE5 SHL DUP3 MSTORE DUP1 PUSH1 0x4 DUP4 ADD MSTORE PUSH1 0x24 DUP3 ADD MSTORE PUSH32 0x537472696E67733A20686578206C656E67746820696E73756666696369656E74 PUSH1 0x44 DUP3 ADD MSTORE REVERT JUMPDEST SWAP1 SWAP2 SWAP3 PUSH1 0xF DUP2 AND PUSH1 0x10 DUP2 LT ISZERO PUSH2 0x10DC JUMPI PUSH16 0x181899199A1A9B1B9C1CB0B131B232B3 PUSH1 0x81 SHL SWAP1 BYTE PUSH2 0x10B2 DUP6 DUP9 PUSH2 0x12B0 JUMP JUMPDEST MSTORE8 PUSH1 0x4 SHR SWAP3 DUP1 ISZERO PUSH2 0x10C8 JUMPI PUSH1 0x0 NOT ADD SWAP2 SWAP1 PUSH2 0xF90 JUMP JUMPDEST PUSH4 0x4E487B71 PUSH1 0xE0 SHL DUP3 MSTORE PUSH1 0x11 PUSH1 0x4 MSTORE PUSH1 0x24 DUP3 REVERT JUMPDEST PUSH4 0x4E487B71 PUSH1 0xE0 SHL DUP4 MSTORE PUSH1 0x32 PUSH1 0x4 MSTORE PUSH1 0x24 DUP4 REVERT JUMPDEST PUSH4 0x4E487B71 PUSH1 0xE0 SHL DUP2 MSTORE PUSH1 0x32 PUSH1 0x4 MSTORE PUSH1 0x24 SWAP1 REVERT JUMPDEST PUSH4 0x4E487B71 PUSH1 0xE0 SHL DUP7 MSTORE PUSH1 0x41 PUSH1 0x4 MSTORE PUSH1 0x24 DUP7 REVERT JUMPDEST PUSH1 0x64 DUP8 DUP10 MLOAD SWAP1 PUSH3 0x461BCD PUSH1 0xE5 SHL DUP3 MSTORE DUP1 PUSH1 0x4 DUP4 ADD MSTORE PUSH1 0x24 DUP3 ADD MSTORE PUSH32 0x537472696E67733A20686578206C656E67746820696E73756666696369656E74 PUSH1 0x44 DUP3 ADD MSTORE REVERT JUMPDEST SWAP1 PUSH1 0xF DUP2 AND PUSH1 0x10 DUP2 LT ISZERO PUSH2 0x11B0 JUMPI PUSH16 0x181899199A1A9B1B9C1CB0B131B232B3 PUSH1 0x81 SHL SWAP1 BYTE PUSH2 0x1188 DUP4 DUP11 PUSH2 0x12B0 JUMP JUMPDEST MSTORE8 PUSH1 0x4 SHR SWAP1 DUP1 ISZERO PUSH2 0x119C JUMPI PUSH1 0x0 NOT ADD PUSH2 0xF41 JUMP JUMPDEST PUSH4 0x4E487B71 PUSH1 0xE0 SHL DUP8 MSTORE PUSH1 0x11 PUSH1 0x4 MSTORE PUSH1 0x24 DUP8 REVERT JUMPDEST PUSH4 0x4E487B71 PUSH1 0xE0 SHL DUP9 MSTORE PUSH1 0x32 PUSH1 0x4 MSTORE PUSH1 0x24 DUP9 REVERT JUMPDEST PUSH4 0x4E487B71 PUSH1 0xE0 SHL DUP7 MSTORE PUSH1 0x32 PUSH1 0x4 MSTORE PUSH1 0x24 DUP7 REVERT JUMPDEST PUSH4 0x4E487B71 PUSH1 0xE0 SHL DUP6 MSTORE PUSH1 0x32 PUSH1 0x4 MSTORE PUSH1 0x24 DUP6 REVERT JUMPDEST PUSH4 0x4E487B71 PUSH1 0xE0 SHL DUP6 MSTORE PUSH1 0x41 PUSH1 0x4 MSTORE PUSH1 0x24 DUP6 REVERT JUMPDEST PUSH1 0xA0 DUP2 ADD SWAP1 DUP2 LT PUSH1 0x1 PUSH1 0x1 PUSH1 0x40 SHL SUB DUP3 GT OR PUSH2 0x79E JUMPI PUSH1 0x40 MSTORE JUMP JUMPDEST SWAP1 PUSH1 0x1F DUP1 NOT SWAP2 ADD AND DUP2 ADD SWAP1 DUP2 LT PUSH1 0x1 PUSH1 0x1 PUSH1 0x40 SHL SUB DUP3 GT OR PUSH2 0x79E JUMPI PUSH1 0x40 MSTORE JUMP JUMPDEST SWAP1 PUSH1 0x0 SWAP2 DUP1 DUP4 MSTORE DUP3 PUSH1 0x20 MSTORE PUSH1 0x40 DUP4 KECCAK256 SWAP2 PUSH1 0x1 DUP1 PUSH1 0xA0 SHL SUB AND SWAP2 DUP3 DUP5 MSTORE PUSH1 0x20 MSTORE PUSH1 0xFF PUSH1 0x40 DUP5 KECCAK256 SLOAD AND PUSH2 0x126C JUMPI POP POP POP JUMP JUMPDEST DUP1 DUP4 MSTORE DUP3 PUSH1 0x20 MSTORE PUSH1 0x40 DUP4 KECCAK256 DUP3 DUP5 MSTORE PUSH1 0x20 MSTORE PUSH1 0x40 DUP4 KECCAK256 PUSH1 0xFF NOT DUP2 SLOAD AND SWAP1 SSTORE PUSH32 0xF6391F5C32D9C69D2A47EA670B442974B53935D1EDC7FD64EB21E047A839171B CALLER SWAP4 DUP1 LOG4 JUMP JUMPDEST SWAP1 DUP2 MLOAD DUP2 LT ISZERO PUSH2 0x12C1 JUMPI ADD PUSH1 0x20 ADD SWAP1 JUMP JUMPDEST PUSH4 0x4E487B71 PUSH1 0xE0 SHL PUSH1 0x0 MSTORE PUSH1 0x32 PUSH1 0x4 MSTORE PUSH1 0x24 PUSH1 0x0 REVERT JUMPDEST ISZERO PUSH2 0x12DE JUMPI JUMP JUMPDEST PUSH1 0x40 MLOAD PUSH3 0x461BCD PUSH1 0xE5 SHL DUP2 MSTORE PUSH1 0x20 PUSH1 0x4 DUP3 ADD MSTORE PUSH1 0x12 PUSH1 0x24 DUP3 ADD MSTORE PUSH18 0x524F4C453A4F50455241544F525F4F4E4C59 PUSH1 0x70 SHL PUSH1 0x44 DUP3 ADD MSTORE PUSH1 0x64 SWAP1 REVERT JUMPDEST SWAP3 SWAP2 SWAP3 PUSH1 0x1 PUSH1 0x1 PUSH1 0x40 SHL SUB DUP3 GT PUSH2 0x79E JUMPI PUSH1 0x40 MLOAD SWAP2 PUSH2 0x1341 PUSH1 0x1F DUP3 ADD PUSH1 0x1F NOT AND PUSH1 0x20 ADD DUP5 PUSH2 0x121B JUMP JUMPDEST DUP3 SWAP5 DUP2 DUP5 MSTORE DUP2 DUP4 ADD GT PUSH2 0x120 JUMPI DUP3 DUP2 PUSH1 0x20 SWAP4 DUP5 PUSH1 0x0 SWAP7 ADD CALLDATACOPY ADD ADD MSTORE JUMP JUMPDEST PUSH1 0x1 PUSH1 0x1 PUSH1 0x40 SHL SUB DUP2 GT PUSH2 0x79E JUMPI PUSH1 0x5 SHL PUSH1 0x20 ADD SWAP1 JUMP JUMPDEST SWAP1 PUSH1 0x1 DUP3 DUP2 SHR SWAP3 AND DUP1 ISZERO PUSH2 0x13A5 JUMPI JUMPDEST PUSH1 0x20 DUP4 LT EQ PUSH2 0x138F JUMPI JUMP JUMPDEST PUSH4 0x4E487B71 PUSH1 0xE0 SHL PUSH1 0x0 MSTORE PUSH1 0x22 PUSH1 0x4 MSTORE PUSH1 0x24 PUSH1 0x0 REVERT JUMPDEST SWAP2 PUSH1 0x7F AND SWAP2 PUSH2 0x1384 JUMP JUMPDEST DUP2 DUP2 LT PUSH2 0x13BA JUMPI POP POP JUMP JUMPDEST PUSH1 0x0 DUP2 SSTORE PUSH1 0x1 ADD PUSH2 0x13AF JUMP JUMPDEST SWAP2 SWAP1 PUSH1 0x1F DUP2 GT PUSH2 0x13D5 JUMPI POP POP POP JUMP JUMPDEST PUSH2 0x1401 SWAP3 PUSH1 0x0 MSTORE PUSH1 0x20 PUSH1 0x0 KECCAK256 SWAP1 PUSH1 0x20 PUSH1 0x1F DUP5 ADD PUSH1 0x5 SHR DUP4 ADD SWAP4 LT PUSH2 0x1403 JUMPI JUMPDEST PUSH1 0x1F ADD PUSH1 0x5 SHR ADD SWAP1 PUSH2 0x13AF JUMP JUMPDEST JUMP JUMPDEST SWAP1 SWAP2 POP DUP2 SWAP1 PUSH2 0x13F4 JUMP JUMPDEST PUSH9 0x10000000000000000 DUP3 GT PUSH2 0x79E JUMPI DUP1 SLOAD SWAP2 DUP1 DUP3 SSTORE DUP3 DUP2 LT PUSH2 0x142F JUMPI POP POP POP JUMP JUMPDEST PUSH1 0x0 SWAP2 DUP3 MSTORE PUSH1 0x20 SWAP1 DUP2 DUP4 KECCAK256 SWAP4 DUP5 ADD SWAP4 ADD JUMPDEST DUP4 DUP2 LT PUSH2 0x144D JUMPI POP POP POP POP JUMP JUMPDEST DUP1 DUP4 PUSH2 0x145B PUSH1 0x1 SWAP4 SLOAD PUSH2 0x1375 JUMP JUMPDEST DUP1 PUSH2 0x1469 JUMPI JUMPDEST POP POP ADD PUSH2 0x1440 JUMP JUMPDEST PUSH1 0x1F DUP1 DUP3 GT DUP6 EQ PUSH2 0x1480 JUMPI POP POP DUP2 SSTORE JUMPDEST DUP4 CODESIZE PUSH2 0x1461 JUMP JUMPDEST PUSH2 0x1499 SWAP1 DUP5 DUP5 MSTORE DUP7 DUP5 KECCAK256 SWAP3 ADD PUSH1 0x5 SHR DUP3 ADD DUP6 DUP4 ADD PUSH2 0x13AF JUMP JUMPDEST DUP2 DUP4 SSTORE SSTORE PUSH2 0x1479 JUMP JUMPDEST SWAP1 PUSH1 0x40 MLOAD SWAP2 DUP3 PUSH1 0x0 DUP3 SLOAD SWAP3 PUSH2 0x14B6 DUP5 PUSH2 0x1375 JUMP JUMPDEST SWAP1 DUP2 DUP5 MSTORE PUSH1 0x1 SWAP5 DUP6 DUP2 AND SWAP1 DUP2 PUSH1 0x0 EQ PUSH2 0x1523 JUMPI POP PUSH1 0x1 EQ PUSH2 0x14E0 JUMPI JUMPDEST POP POP PUSH2 0x1401 SWAP3 POP SUB DUP4 PUSH2 0x121B JUMP JUMPDEST SWAP1 SWAP4 SWAP2 POP PUSH1 0x0 MSTORE PUSH1 0x20 SWAP1 DUP2 PUSH1 0x0 KECCAK256 SWAP4 PUSH1 0x0 SWAP2 JUMPDEST DUP2 DUP4 LT PUSH2 0x150B JUMPI POP POP PUSH2 0x1401 SWAP4 POP DUP3 ADD ADD CODESIZE DUP1 PUSH2 0x14D2 JUMP JUMPDEST DUP6 SLOAD DUP9 DUP5 ADD DUP6 ADD MSTORE SWAP5 DUP6 ADD SWAP5 DUP8 SWAP5 POP SWAP2 DUP4 ADD SWAP2 PUSH2 0x14F3 JUMP JUMPDEST SWAP2 POP POP PUSH2 0x1401 SWAP5 POP PUSH1 0x20 SWAP3 POP PUSH1 0xFF NOT AND DUP3 DUP5 ADD MSTORE ISZERO ISZERO PUSH1 0x5 SHL DUP3 ADD ADD CODESIZE DUP1 PUSH2 0x14D2 JUMP JUMPDEST SWAP1 DUP2 SLOAD PUSH2 0x1552 DUP2 PUSH2 0x135E JUMP JUMPDEST SWAP3 PUSH2 0x1560 PUSH1 0x40 MLOAD SWAP5 DUP6 PUSH2 0x121B JUMP JUMPDEST DUP2 DUP5 MSTORE PUSH1 0x0 SWAP1 DUP2 MSTORE PUSH1 0x20 DUP1 DUP3 KECCAK256 DUP2 DUP7 ADD JUMPDEST DUP5 DUP5 LT PUSH2 0x157F JUMPI POP POP POP POP POP JUMP JUMPDEST PUSH1 0x1 DUP4 DUP2 SWAP3 PUSH2 0x158D DUP6 PUSH2 0x14A2 JUMP JUMPDEST DUP2 MSTORE ADD SWAP3 ADD SWAP4 ADD SWAP3 SWAP1 PUSH2 0x1571 JUMP JUMPDEST PUSH1 0x0 MSTORE PUSH1 0x2 PUSH1 0x20 MSTORE PUSH1 0x40 PUSH1 0x0 KECCAK256 DUP1 SLOAD ISZERO PUSH2 0x15B2 JUMPI SWAP1 JUMP JUMPDEST PUSH1 0x40 MLOAD PUSH3 0x461BCD PUSH1 0xE5 SHL DUP2 MSTORE PUSH1 0x20 PUSH1 0x4 DUP3 ADD MSTORE PUSH1 0xE PUSH1 0x24 DUP3 ADD MSTORE PUSH14 0x111151510E9393D517D193D55391 PUSH1 0x92 SHL PUSH1 0x44 DUP3 ADD MSTORE PUSH1 0x64 SWAP1 REVERT INVALID LOG2 PUSH5 0x6970667358 0x22 SLT KECCAK256 0xCF 0xE4 0x21 0xE5 PUSH6 0x26A006BFF0E5 0xD8 0xD3 MUL JUMPDEST PUSH3 0x88E9BE 0x2B 0xF6 LOG2 SUB DUP15 DUP10 0x24 0xB6 0xE DELEGATECALL CODESIZE 0xE5 REVERT PUSH5 0x736F6C6343 STOP ADDMOD EQ STOP CALLER "},"methodIdentifiers":{"DEFAULT_ADMIN_ROLE()":"a217fddf","ESCROW_ROLE()":"6ce76f30","GOVERNANCE_ROLE()":"f36c8f5c","ISSUER_ROLE()":"82aefa24","OPERATOR_ROLE()":"f5b541a6","ORACLE_ROLE()":"07e2cea5","createDeed(uint256,string,string[])":"7b0ead78","getDeed(uint256)":"683ad727","getDeedByProperty(uint256)":"43aa4534","getRoleAdmin(bytes32)":"248a9ca3","grantRole(bytes32,address)":"2f2ff15d","hasRole(bytes32,address)":"91d14854","renounceRole(bytes32,address)":"36568abe","revokeRole(bytes32,address)":"d547741f","supportsInterface(bytes4)":"01ffc9a7","transferDeed(uint256,address)":"88e1a975","updateSignatures(uint256,string[])":"71dc3ace","verifyDeed(uint256)":"d9f029d5"}}}}}