{
  "contractName": "PropertyRegistry",
  "abi": [
    {
      "inputs": [
        {
          "internalType": "address",
          "name": "admin",
          "type": "address"
        }
      ],
      "stateMutability": "nonpayable",
      "type": "constructor"
    },
    {
      "anonymous": false,
      "inputs": [
        {
          "indexed": true,
          "internalType": "uint256",
          "name": "propertyId",
          "type": "uint256"
        },
        {
          "indexed": false,
          "internalType": "string",
          "name": "deedHash",
          "type": "string"
        }
      ],
      "name": "DeedVerified",
      "type": "event"
    },
    {
      "anonymous": false,
      "inputs": [
        {
          "indexed": true,
          "internalType": "uint256",
          "name": "propertyId",
          "type": "uint256"
        },
        {
          "indexed": true,
          "internalType": "address",
          "name": "newOwner",
          "type": "address"
        },
        {
          "indexed": false,
          "internalType": "string",
          "name": "deedHash",
          "type": "string"
        }
      ],
      "name": "OwnershipUpdated",
      "type": "event"
    },
    {
      "anonymous": false,
      "inputs": [
        {
          "indexed": true,
          "internalType": "uint256",
          "name": "propertyId",
          "type": "uint256"
        },
        {
          "indexed": true,
          "internalType": "address",
          "name": "owner",
          "type": "address"
        },
        {
          "indexed": false,
          "internalType": "string",
          "name": "deedHash",
          "type": "string"
        }
      ],
      "name": "PropertyRegistered",
      "type": "event"
    },
    {
      "anonymous": false,
      "inputs": [
        {
          "indexed": true,
          "internalType": "bytes32",
          "name": "role",
          "type": "bytes32"
        },
        {
          "indexed": true,
          "internalType": "bytes32",
          "name": "previousAdminRole",
          "type": "bytes32"
        },
        {
          "indexed": true,
          "internalType": "bytes32",
          "name": "newAdminRole",
          "type": "bytes32"
        }
      ],
      "name": "RoleAdminChanged",
      "type": "event"
    },
    {
      "anonymous": false,
      "inputs": [
        {
          "indexed": true,
          "internalType": "bytes32",
          "name": "role",
          "type": "bytes32"
        },
        {
          "indexed": true,
          "internalType": "address",
          "name": "account",
          "type": "address"
        },
        {
          "indexed": true,
          "internalType": "address",
          "name": "sender",
          "type": "address"
        }
      ],
      "name": "RoleGranted",
      "type": "event"
    },
    {
      "anonymous": false,
      "inputs": [
        {
          "indexed": true,
          "internalType": "bytes32",
          "name": "role",
          "type": "bytes32"
        },
        {
          "indexed": true,
          "internalType": "address",
          "name": "account",
          "type": "address"
        },
        {
          "indexed": true,
          "internalType": "address",
          "name": "sender",
          "type": "address"
        }
      ],
      "name": "RoleRevoked",
      "type": "event"
    },
    {
      "inputs": [],
      "name": "DEFAULT_ADMIN_ROLE",
      "outputs": [
        {
          "internalType": "bytes32",
          "name": "",
          "type": "bytes32"
        }
      ],
      "stateMutability": "view",
      "type": "function"
    },
    {
      "inputs": [],
      "name": "ESCROW_ROLE",
      "outputs": [
        {
          "internalType": "bytes32",
          "name": "",
          "type": "bytes32"
        }
      ],
      "stateMutability": "view",
      "type": "function"
    },
    {
      "inputs": [],
      "name": "GOVERNANCE_ROLE",
      "outputs": [
        {
          "internalType": "bytes32",
          "name": "",
          "type": "bytes32"
        }
      ],
      "stateMutability": "view",
      "type": "function"
    },
    {
      "inputs": [],
      "name": "ISSUER_ROLE",
      "outputs": [
        {
          "internalType": "bytes32",
          "name": "",
          "type": "bytes32"
        }
      ],
      "stateMutability": "view",
      "type": "function"
    },
    {
      "inputs": [],
      "name": "OPERATOR_ROLE",
      "outputs": [
        {
          "internalType": "bytes32",
          "name": "",
          "type": "bytes32"
        }
      ],
      "stateMutability": "view",
      "type": "function"
    },
    {
      "inputs": [],
      "name": "ORACLE_ROLE",
      "outputs": [
        {
          "internalType": "bytes32",
          "name": "",
          "type": "bytes32"
        }
      ],
      "stateMutability": "view",
      "type": "function"
    },
    {
      "inputs": [
        {
          "internalType": "uint256",
          "name": "propertyId",
          "type": "uint256"
        }
      ],
      "name": "getPropertyHistory",
      "outputs": [
        {
          "internalType": "address[]",
          "name": "owners",
          "type": "address[]"
        },
        {
          "internalType": "string[]",
          "name": "deedHashes",
          "type": "string[]"
        }
      ],
      "stateMutability": "view",
      "type": "function"
    },
    {
      "inputs": [
        {
          "internalType": "uint256",
          "name": "propertyId",
          "type": "uint256"
        }
      ],
      "name": "getRecord",
      "outputs": [
        {
          "components": [
            {
              "internalType": "uint256",
              "name": "propertyId",
              "type": "uint256"
            },
            {
              "internalType": "address",
              "name": "currentOwner",
              "type": "address"
            },
            {
              "internalType": "string",
              "name": "deedHash",
              "type": "string"
            },
            {
              "internalType": "uint64",
              "name": "registeredAt",
              "type": "uint64"
            },
            {
              "internalType": "uint64",
              "name": "updatedAt",
              "type": "uint64"
            }
          ],
          "internalType": "struct DataTypes.PropertyRecord",
          "name": "",
          "type": "tuple"
        }
      ],
      "stateMutability": "view",
      "type": "function"
    },
    {
      "inputs": [
        {
          "internalType": "bytes32",
          "name": "role",
          "type": "bytes32"
        }
      ],
      "name": "getRoleAdmin",
      "outputs": [
        {
          "internalType": "bytes32",
          "name": "",
          "type": "bytes32"
        }
      ],
      "stateMutability": "view",
      "type": "function"
    },
    {
      "inputs": [
        {
          "internalType": "bytes32",
          "name": "role",
          "type": "bytes32"
        },
        {
          "internalType": "address",
          "name": "account",
          "type": "address"
        }
      ],
      "name": "grantRole",
      "outputs": [],
      "stateMutability": "nonpayable",
      "type": "function"
    },
    {
      "inputs": [
        {
          "internalType": "bytes32",
          "name": "role",
          "type": "bytes32"
        },
        {
          "internalType": "address",
          "name": "account",
          "type": "address"
        }
      ],
      "name": "hasRole",
      "outputs": [
        {
          "internalType": "bool",
          "name": "",
          "type": "bool"
        }
      ],
      "stateMutability": "view",
      "type": "function"
    },
    {
      "inputs": [
        {
          "internalType": "uint256",
          "name": "propertyId",
          "type": "uint256"
        },
        {
          "internalType": "address",
          "name": "owner",
          "type": "address"
        },
        {
          "internalType": "string",
          "name": "deedHash",
          "type": "string"
        }
      ],
      "name": "registerProperty",
      "outputs": [],
      "stateMutability": "nonpayable",
      "type": "function"
    },
    {
      "inputs": [
        {
          "internalType": "bytes32",
          "name": "role",
          "type": "bytes32"
        },
        {
          "internalType": "address",
          "name": "account",
          "type": "address"
        }
      ],
      "name": "renounceRole",
      "outputs": [],
      "stateMutability": "nonpayable",
      "type": "function"
    },
    {
      "inputs": [
        {
          "internalType": "bytes32",
          "name": "role",
          "type": "bytes32"
        },
        {
          "internalType": "address",
          "name": "account",
          "type": "address"
        }
      ],
      "name": "revokeRole",
      "outputs": [],
      "stateMutability": "nonpayable",
      "type": "function"
    },
    {
      "inputs": [
        {
          "internalType": "bytes4",
          "name": "interfaceId",
          "type": "bytes4"
        }
      ],
      "name": "supportsInterface",
      "outputs": [
        {
          "internalType": "bool",
          "name": "",
          "type": "bool"
        }
      ],
      "stateMutability": "view",
      "type": "function"
    },
    {
      "inputs": [
        {
          "internalType": "uint256",
          "name": "propertyId",
          "type": "uint256"
        },
        {
          "internalType": "address",
          "name": "newOwner",
          "type": "address"
        },
        {
          "internalType": "string",
          "name": "deedHash",
          "type": "string"
        }
      ],
      "name": "updateOwnership",
      "outputs": [],
      "stateMutability": "nonpayable",
      "type": "function"
    },
    {
      "inputs": [
        {
          "internalType": "uint256",
          "name": "propertyId",
          "type": "uint256"
        }
      ],
      "name": "verifyTitle",
      "outputs": [
        {
          "internalType": "string",
          "name": "deedHash",
          "type": "string"
        }
      ],
      "stateMutability": "view",
      "type": "function"
    }
  ],
  "bytecode": {
    "object": "6080346102c857601f61168338819003918201601f19168301916001600160401b038311848410176102cc578084926020946040528339810103126102c857516001600160a01b038116908190036102c8575f8181525f80516020611663833981519152602052604090205460ff1615610277575b7f97667070c54ef182b0f5858b034beac1b6f3089aa2d3188bb1e8929f4fa9b9295f81815260208190527fee57cd81e84075558e8fcc182a1f4393f91fc97f963a136e66b7f949a62f31a080549082905590915f805160206116438339815191528380a47f2fdac322ee704ce09f0773f7f3f92eb98d5e7c836ee9c056cccd5f61041e5e3f5f81815260208190527fe3c558b62678382104a32eca8acfc9cd319238c371fe623afa6ac48f9723f7b180549082905590915f805160206116438339815191528380a47f68e79a7bf1e0bc45d0a330c573bc367f9cf464fd326078812f301165fbda4ef15f81815260208190527fa629f6981c2f6895a67dc766e8e03ff72d04a413d0d8773a3ca56e9e474032c280549082905590915f805160206116438339815191528380a47f114e74f6ea3bd819998f78687bfcb11b140da08e9b7d222fa9c1f1ba1f2aa1225f81815260208190527ff9c002f57bb53b4d861ae1ef1369a8087d06c8210e4846f897918d0e534663cf80549082905590915f805160206116438339815191528380a47f71840dc4906352362b0cdaf79870196c8e42acafade72d5d5a6d59291253ceb15f81815260208190527f316a51056d8b2401ab04c48d9973add294eadde229c785c6d19cde93785467f080549082905590915f805160206116438339815191528380a460405161136290816102e18239f35b5f8181525f8051602061166383398151915260205260408120805460ff191660011790553391907f2f8788117e7eff1d82e926ec794901d17c78024a50270940304540a733656f0d8180a45f610074565b5f80fd5b634e487b7160e01b5f52604160045260245ffdfe6080806040526004361015610012575f80fd5b5f3560e01c90816301ffc9a714610ba25750806303e9e60914610aa957806307e2cea514610a6f5780631d8e174814610938578063248a9ca3146109065780632f2ff15d1461084f57806336568abe146107bd5780636ce76f301461078357806382aefa241461074957806391d1485414610701578063a217fddf146106e7578063ae16b1521461069b578063d547741f14610657578063e04ce17b146102ff578063f36c8f5c146102c5578063f5b541a61461028b5763fd585248146100d7575f80fd5b3461028757602036600319011261028757600435805f52600260205260405f2060405191828360208454928381520180945f5260205f20925f5b81811061026557505061012692500384610cb4565b5f52600360205260405f2090815467ffffffffffffffff8111610251579291906040519361015a60208260051b0186610cb4565b8085526020850180935f5260205f205f915b83831061021b5750505050604051938493604085019060408652518091526060850192905f5b8181106101f957505050838203602085015251808252602082019160208260051b82010193925f915b8383106101c85786860387f35b9193955091936020806101e7600193601f198682030187528951610bf5565b970193019301909286959492936101bb565b82516001600160a01b0316855287965060209485019490920191600101610192565b60016020819260409a9798999a5161023e816102378189610d0e565b0382610cb4565b815201920192019190969594939661016c565b634e487b7160e01b5f52604160045260245ffd5b84546001600160a01b0316835260019485019488945060209093019201610111565b5f80fd5b34610287575f3660031901126102875760206040517f97667070c54ef182b0f5858b034beac1b6f3089aa2d3188bb1e8929f4fa9b9298152f35b34610287575f3660031901126102875760206040517f71840dc4906352362b0cdaf79870196c8e42acafade72d5d5a6d59291253ceb18152f35b346102875761030d36610c2f565b335f9081527fee57cd81e84075558e8fcc182a1f4393f91fc97f963a136e66b7f949a62f319f60205260409020549293919261034b9060ff16610d8f565b6001600160a01b03841692610361841515610dd0565b811561061957825f52600160205260405f20546105e257604051944267ffffffffffffffff1661039087610c98565b84875260208701908682526103a485610fd5565b6103b16040519182610cb4565b858152368686011161028757858560208301375f818701602090810182905260408b810193845260608c0185815260808d019586528a845260019283905292209a518b559351938a0180546001600160a01b0319166001600160a01b03959095169490941790935551805160028a019167ffffffffffffffff8211610251576104448261043e8554610cd6565b85610e15565b602090601f8311600114610543579367ffffffffffffffff60037f0f5ddfd7ee384d3acc46aab5b9807217e71933f0c3db67ffbf556452423695f99b9c9d6104e9966104b1876104f99b98869860409f9e9c5f92610538575b50508160011b915f199060031b1c19161790565b90555b019351168219845416178355511667ffffffffffffffff60401b82549160401b169067ffffffffffffffff60401b1916179055565b865f526002602052835f20610f94565b845f52600360205261050e8382845f20610f4f565b82825193849260208452816020850152848401375f828201840152601f01601f19168101030190a3005b015190505f8061049d565b90601f19831691845f52815f20925f5b8181106105ca57507f0f5ddfd7ee384d3acc46aab5b9807217e71933f0c3db67ffbf556452423695f99b9c9d6104e99660018767ffffffffffffffff9760409e9d9b9789976104f99e9b600398106105b3575b505050811b0190556104b4565b01515f1983881b60f8161c191690555f80806105a6565b92936020600181928786015181550195019301610553565b60405162461bcd60e51b815260206004820152600f60248201526e52454749535452593a45584953545360881b6044820152606490fd5b60405162461bcd60e51b8152602060048201526016602482015275149151d254d514964e921054d217d49154555254915160521b6044820152606490fd5b3461028757604036600319011261028757610699600435610676610c19565b9061069461068f825f525f602052600160405f20015490565b611040565b61129b565b005b34610287576020366003190112610287576106e36102376106cf60026106c2600435610ff1565b0160405192838092610d0e565b604051918291602083526020830190610bf5565b0390f35b34610287575f3660031901126102875760206040515f8152f35b346102875760403660031901126102875761071a610c19565b6004355f525f60205260405f209060018060a01b03165f52602052602060ff60405f2054166040519015158152f35b34610287575f3660031901126102875760206040517f114e74f6ea3bd819998f78687bfcb11b140da08e9b7d222fa9c1f1ba1f2aa1228152f35b34610287575f3660031901126102875760206040517f2fdac322ee704ce09f0773f7f3f92eb98d5e7c836ee9c056cccd5f61041e5e3f8152f35b34610287576040366003190112610287576107d6610c19565b336001600160a01b038216036107f2576106999060043561129b565b60405162461bcd60e51b815260206004820152602f60248201527f416363657373436f6e74726f6c3a2063616e206f6e6c792072656e6f756e636560448201526e103937b632b9903337b91039b2b63360891b6064820152608490fd5b346102875760403660031901126102875760043561086b610c19565b9061088461068f825f525f602052600160405f20015490565b5f818152602081815260408083206001600160a01b038616845290915290205460ff16156108ae57005b5f818152602081815260408083206001600160a01b0395909516808452949091528120805460ff19166001179055339291907f2f8788117e7eff1d82e926ec794901d17c78024a50270940304540a733656f0d9080a4005b346102875760203660031901126102875760206109306004355f525f602052600160405f20015490565b604051908152f35b3461028757610a40610a297f6cafc036724ae742d6086206d78dd403ce6cf9b66f3d0636047eebc483310c8f61096d36610c2f565b335f9081527fee57cd81e84075558e8fcc182a1f4393f91fc97f963a136e66b7f949a62f319f602052604090205491969395909290916109af9060ff16610d8f565b6001600160a01b038116966109c5881515610dd0565b6109ce87610ff1565b6001810180546001600160a01b0319168a1790559380610a45575b50506003830180546fffffffffffffffff000000000000000019164260401b67ffffffffffffffff60401b16179055855f52600260205260405f20610f94565b604051918291602083526002602084019101610d0e565b0390a3005b81610a5782610a689460028901610e64565b885f52600360205260405f20610f4f565b87806109e9565b34610287575f3660031901126102875760206040517f68e79a7bf1e0bc45d0a330c573bc367f9cf464fd326078812f301165fbda4ef18152f35b34610287576020366003190112610287575f6080604051610ac981610c98565b828152826020820152606060408201528260608201520152610aec600435610ff1565b604051610af881610c98565b8154815260018201546001600160a01b031660208201908152604051909267ffffffffffffffff90600390610b3b84610b348160028501610d0e565b0385610cb4565b60408501938452015481610b8f6060860194828416865282608088019460401c1684526040519788976020895251602089015260018060a01b0390511660408801525160a0606088015260c0870190610bf5565b9351166080850152511660a08301520390f35b34610287576020366003190112610287576004359063ffffffff60e01b821680920361028757602091637965db0b60e01b8114908115610be4575b5015158152f35b6301ffc9a760e01b14905083610bdd565b805180835260209291819084018484015e5f828201840152601f01601f1916010190565b602435906001600160a01b038216820361028757565b90606060031983011261028757600435916024356001600160a01b0381168103610287579160443567ffffffffffffffff811161028757826023820112156102875780600401359267ffffffffffffffff84116102875760248483010111610287576024019190565b60a0810190811067ffffffffffffffff82111761025157604052565b90601f8019910116810190811067ffffffffffffffff82111761025157604052565b90600182811c92168015610d04575b6020831014610cf057565b634e487b7160e01b5f52602260045260245ffd5b91607f1691610ce5565b5f9291815491610d1d83610cd6565b8083529260018116908115610d725750600114610d3957505050565b5f9081526020812093945091925b838310610d58575060209250010190565b600181602092949394548385870101520191019190610d47565b915050602093945060ff929192191683830152151560051b010190565b15610d9657565b60405162461bcd60e51b8152602060048201526012602482015271524f4c453a4f50455241544f525f4f4e4c5960701b6044820152606490fd5b15610dd757565b60405162461bcd60e51b81526020600482015260166024820152752922a3a4a9aa292c9d24a72b20a624a22fa7aba722a960511b6044820152606490fd5b601f8211610e2257505050565b5f5260205f20906020601f840160051c83019310610e5a575b601f0160051c01905b818110610e4f575050565b5f8155600101610e44565b9091508190610e3b565b90929167ffffffffffffffff811161025157610e8a81610e848454610cd6565b84610e15565b5f601f8211600114610ec7578190610eb89394955f92610ebc5750508160011b915f199060031b1c19161790565b9055565b013590505f8061049d565b601f19821694835f5260205f20915f5b878110610f0e575083600195969710610ef5575b505050811b019055565b01355f19600384901b60f8161c191690555f8080610eeb565b90926020600181928686013581550194019101610ed7565b8054821015610f3b575f5260205f2001905f90565b634e487b7160e01b5f52603260045260245ffd5b9190918054600160401b81101561025157610f6f91600182018155610f26565b929092610f8157610f7f92610e64565b565b634e487b7160e01b5f525f60045260245ffd5b8054600160401b81101561025157610fb191600182018155610f26565b81546001600160a01b0393841660039290921b91821b9390911b1916919091179055565b67ffffffffffffffff811161025157601f01601f191660200190565b5f52600160205260405f208054156110065790565b60405162461bcd60e51b8152602060048201526012602482015271149151d254d514964e9393d517d193d5539160721b6044820152606490fd5b5f8181526020818152604080832033845290915290205460ff16156110625750565b3361106d602a610fd5565b9161107b6040519384610cb4565b602a8352611089602a610fd5565b602084019290601f1901368437835115610f3b5760308353835160011015610f3b576078602185015360295b6001811161125a57506111c1576110cc6042610fd5565b906110da6040519283610cb4565b604282526110e86042610fd5565b602083019190601f1901368337825115610f3b5760308253825160011015610f3b576078602184015360415b6001811161120557506111c1576111bd9360376011928461119d95506040519687947f416363657373436f6e74726f6c3a206163636f756e742000000000000000000060208701525180918587015e8401907001034b99036b4b9b9b4b733903937b6329607d1b84830152518092604883015e01015f838201520301601f198101835282610cb4565b60405162461bcd60e51b8152602060048201529182916024830190610bf5565b0390fd5b606460405162461bcd60e51b815260206004820152602060248201527f537472696e67733a20686578206c656e67746820696e73756666696369656e746044820152fd5b90600f81166010811015610f3b576f181899199a1a9b1b9c1cb0b131b232b360811b901a611233838661131b565b5360041c908015611246575f1901611114565b634e487b7160e01b5f52601160045260245ffd5b90600f81166010811015610f3b576f181899199a1a9b1b9c1cb0b131b232b360811b901a611288838761131b565b5360041c908015611246575f19016110b5565b5f818152602081815260408083206001600160a01b038616845290915290205460ff166112c6575050565b5f818152602081815260408083206001600160a01b0395909516808452949091528120805460ff19169055339291907ff6391f5c32d9c69d2a47ea670b442974b53935d1edc7fd64eb21e047a839171b9080a4565b908151811015610f3b57016020019056fea26469706673582212209a22fd8deac891e562fcd1564bd61c959bfeb46e28308ea1630b1d7f14e4808664736f6c634300081a0033bd79b86ffe0ab8e8776151514217cd7cacd52c909f66475c3af44e129f0b00ffad3228b676f7d3cd4284a5443f17f1962b36e491b30a40b2405849e597ba5fb5"
  }
}