{
  "contractName": "DigitalTitleDeed",
  "abi": [
    {
      "inputs": [
        {
          "internalType": "address",
          "name": "admin",
          "type": "address"
        }
      ],
      "stateMutability": "nonpayable",
      "type": "constructor"
    },
    {
      "anonymous": false,
      "inputs": [
        {
          "indexed": true,
          "internalType": "uint256",
          "name": "deedId",
          "type": "uint256"
        },
        {
          "indexed": true,
          "internalType": "uint256",
          "name": "propertyId",
          "type": "uint256"
        },
        {
          "indexed": false,
          "internalType": "string",
          "name": "hash",
          "type": "string"
        }
      ],
      "name": "DeedCreated",
      "type": "event"
    },
    {
      "anonymous": false,
      "inputs": [
        {
          "indexed": true,
          "internalType": "uint256",
          "name": "deedId",
          "type": "uint256"
        },
        {
          "indexed": true,
          "internalType": "address",
          "name": "newOwner",
          "type": "address"
        }
      ],
      "name": "DeedTransferred",
      "type": "event"
    },
    {
      "anonymous": false,
      "inputs": [
        {
          "indexed": true,
          "internalType": "uint256",
          "name": "deedId",
          "type": "uint256"
        },
        {
          "indexed": false,
          "internalType": "string",
          "name": "hash",
          "type": "string"
        }
      ],
      "name": "DeedVerified",
      "type": "event"
    },
    {
      "anonymous": false,
      "inputs": [
        {
          "indexed": true,
          "internalType": "bytes32",
          "name": "role",
          "type": "bytes32"
        },
        {
          "indexed": true,
          "internalType": "bytes32",
          "name": "previousAdminRole",
          "type": "bytes32"
        },
        {
          "indexed": true,
          "internalType": "bytes32",
          "name": "newAdminRole",
          "type": "bytes32"
        }
      ],
      "name": "RoleAdminChanged",
      "type": "event"
    },
    {
      "anonymous": false,
      "inputs": [
        {
          "indexed": true,
          "internalType": "bytes32",
          "name": "role",
          "type": "bytes32"
        },
        {
          "indexed": true,
          "internalType": "address",
          "name": "account",
          "type": "address"
        },
        {
          "indexed": true,
          "internalType": "address",
          "name": "sender",
          "type": "address"
        }
      ],
      "name": "RoleGranted",
      "type": "event"
    },
    {
      "anonymous": false,
      "inputs": [
        {
          "indexed": true,
          "internalType": "bytes32",
          "name": "role",
          "type": "bytes32"
        },
        {
          "indexed": true,
          "internalType": "address",
          "name": "account",
          "type": "address"
        },
        {
          "indexed": true,
          "internalType": "address",
          "name": "sender",
          "type": "address"
        }
      ],
      "name": "RoleRevoked",
      "type": "event"
    },
    {
      "inputs": [],
      "name": "DEFAULT_ADMIN_ROLE",
      "outputs": [
        {
          "internalType": "bytes32",
          "name": "",
          "type": "bytes32"
        }
      ],
      "stateMutability": "view",
      "type": "function"
    },
    {
      "inputs": [],
      "name": "ESCROW_ROLE",
      "outputs": [
        {
          "internalType": "bytes32",
          "name": "",
          "type": "bytes32"
        }
      ],
      "stateMutability": "view",
      "type": "function"
    },
    {
      "inputs": [],
      "name": "GOVERNANCE_ROLE",
      "outputs": [
        {
          "internalType": "bytes32",
          "name": "",
          "type": "bytes32"
        }
      ],
      "stateMutability": "view",
      "type": "function"
    },
    {
      "inputs": [],
      "name": "ISSUER_ROLE",
      "outputs": [
        {
          "internalType": "bytes32",
          "name": "",
          "type": "bytes32"
        }
      ],
      "stateMutability": "view",
      "type": "function"
    },
    {
      "inputs": [],
      "name": "OPERATOR_ROLE",
      "outputs": [
        {
          "internalType": "bytes32",
          "name": "",
          "type": "bytes32"
        }
      ],
      "stateMutability": "view",
      "type": "function"
    },
    {
      "inputs": [],
      "name": "ORACLE_ROLE",
      "outputs": [
        {
          "internalType": "bytes32",
          "name": "",
          "type": "bytes32"
        }
      ],
      "stateMutability": "view",
      "type": "function"
    },
    {
      "inputs": [
        {
          "internalType": "uint256",
          "name": "propertyId",
          "type": "uint256"
        },
        {
          "internalType": "string",
          "name": "hash",
          "type": "string"
        },
        {
          "internalType": "string[]",
          "name": "signatures",
          "type": "string[]"
        }
      ],
      "name": "createDeed",
      "outputs": [
        {
          "internalType": "uint256",
          "name": "deedId",
          "type": "uint256"
        }
      ],
      "stateMutability": "nonpayable",
      "type": "function"
    },
    {
      "inputs": [
        {
          "internalType": "uint256",
          "name": "deedId",
          "type": "uint256"
        }
      ],
      "name": "getDeed",
      "outputs": [
        {
          "components": [
            {
              "internalType": "uint256",
              "name": "propertyId",
              "type": "uint256"
            },
            {
              "internalType": "string",
              "name": "hash",
              "type": "string"
            },
            {
              "internalType": "string[]",
              "name": "signatures",
              "type": "string[]"
            },
            {
              "internalType": "uint64",
              "name": "createdAt",
              "type": "uint64"
            },
            {
              "internalType": "address",
              "name": "creator",
              "type": "address"
            }
          ],
          "internalType": "struct DataTypes.DeedMeta",
          "name": "",
          "type": "tuple"
        }
      ],
      "stateMutability": "view",
      "type": "function"
    },
    {
      "inputs": [
        {
          "internalType": "uint256",
          "name": "propertyId",
          "type": "uint256"
        }
      ],
      "name": "getDeedByProperty",
      "outputs": [
        {
          "internalType": "uint256",
          "name": "deedId",
          "type": "uint256"
        }
      ],
      "stateMutability": "view",
      "type": "function"
    },
    {
      "inputs": [
        {
          "internalType": "bytes32",
          "name": "role",
          "type": "bytes32"
        }
      ],
      "name": "getRoleAdmin",
      "outputs": [
        {
          "internalType": "bytes32",
          "name": "",
          "type": "bytes32"
        }
      ],
      "stateMutability": "view",
      "type": "function"
    },
    {
      "inputs": [
        {
          "internalType": "bytes32",
          "name": "role",
          "type": "bytes32"
        },
        {
          "internalType": "address",
          "name": "account",
          "type": "address"
        }
      ],
      "name": "grantRole",
      "outputs": [],
      "stateMutability": "nonpayable",
      "type": "function"
    },
    {
      "inputs": [
        {
          "internalType": "bytes32",
          "name": "role",
          "type": "bytes32"
        },
        {
          "internalType": "address",
          "name": "account",
          "type": "address"
        }
      ],
      "name": "hasRole",
      "outputs": [
        {
          "internalType": "bool",
          "name": "",
          "type": "bool"
        }
      ],
      "stateMutability": "view",
      "type": "function"
    },
    {
      "inputs": [
        {
          "internalType": "bytes32",
          "name": "role",
          "type": "bytes32"
        },
        {
          "internalType": "address",
          "name": "account",
          "type": "address"
        }
      ],
      "name": "renounceRole",
      "outputs": [],
      "stateMutability": "nonpayable",
      "type": "function"
    },
    {
      "inputs": [
        {
          "internalType": "bytes32",
          "name": "role",
          "type": "bytes32"
        },
        {
          "internalType": "address",
          "name": "account",
          "type": "address"
        }
      ],
      "name": "revokeRole",
      "outputs": [],
      "stateMutability": "nonpayable",
      "type": "function"
    },
    {
      "inputs": [
        {
          "internalType": "bytes4",
          "name": "interfaceId",
          "type": "bytes4"
        }
      ],
      "name": "supportsInterface",
      "outputs": [
        {
          "internalType": "bool",
          "name": "",
          "type": "bool"
        }
      ],
      "stateMutability": "view",
      "type": "function"
    },
    {
      "inputs": [
        {
          "internalType": "uint256",
          "name": "deedId",
          "type": "uint256"
        },
        {
          "internalType": "address",
          "name": "newOwner",
          "type": "address"
        }
      ],
      "name": "transferDeed",
      "outputs": [],
      "stateMutability": "nonpayable",
      "type": "function"
    },
    {
      "inputs": [
        {
          "internalType": "uint256",
          "name": "deedId",
          "type": "uint256"
        },
        {
          "internalType": "string[]",
          "name": "signatures",
          "type": "string[]"
        }
      ],
      "name": "updateSignatures",
      "outputs": [],
      "stateMutability": "nonpayable",
      "type": "function"
    },
    {
      "inputs": [
        {
          "internalType": "uint256",
          "name": "deedId",
          "type": "uint256"
        }
      ],
      "name": "verifyDeed",
      "outputs": [
        {
          "internalType": "string",
          "name": "hash",
          "type": "string"
        },
        {
          "internalType": "string[]",
          "name": "signatures",
          "type": "string[]"
        }
      ],
      "stateMutability": "view",
      "type": "function"
    }
  ],
  "bytecode": {
    "object": "6080346102c857601f6117e938819003918201601f19168301916001600160401b038311848410176102cc578084926020946040528339810103126102c857516001600160a01b038116908190036102c8575f8181525f805160206117c9833981519152602052604090205460ff1615610277575b7f97667070c54ef182b0f5858b034beac1b6f3089aa2d3188bb1e8929f4fa9b9295f81815260208190527fee57cd81e84075558e8fcc182a1f4393f91fc97f963a136e66b7f949a62f31a080549082905590915f805160206117a98339815191528380a47f2fdac322ee704ce09f0773f7f3f92eb98d5e7c836ee9c056cccd5f61041e5e3f5f81815260208190527fe3c558b62678382104a32eca8acfc9cd319238c371fe623afa6ac48f9723f7b180549082905590915f805160206117a98339815191528380a47f68e79a7bf1e0bc45d0a330c573bc367f9cf464fd326078812f301165fbda4ef15f81815260208190527fa629f6981c2f6895a67dc766e8e03ff72d04a413d0d8773a3ca56e9e474032c280549082905590915f805160206117a98339815191528380a47f114e74f6ea3bd819998f78687bfcb11b140da08e9b7d222fa9c1f1ba1f2aa1225f81815260208190527ff9c002f57bb53b4d861ae1ef1369a8087d06c8210e4846f897918d0e534663cf80549082905590915f805160206117a98339815191528380a47f71840dc4906352362b0cdaf79870196c8e42acafade72d5d5a6d59291253ceb15f81815260208190527f316a51056d8b2401ab04c48d9973add294eadde229c785c6d19cde93785467f080549082905590915f805160206117a98339815191528380a46040516114c890816102e18239f35b5f8181525f805160206117c983398151915260205260408120805460ff191660011790553391907f2f8788117e7eff1d82e926ec794901d17c78024a50270940304540a733656f0d8180a45f610074565b5f80fd5b634e487b7160e01b5f52604160045260245ffdfe6080806040526004361015610012575f80fd5b5f3560e01c90816301ffc9a714610d9d5750806307e2cea514610d63578063248a9ca314610d315780632f2ff15d14610c7a57806336568abe14610be857806343aa453414610bbe578063683ad72714610a745780636ce76f3014610a3a57806371dc3ace1461089e5780637b0ead78146103ed57806382aefa24146103b357806388e1a975146102ab57806391d1485414610263578063a217fddf14610249578063d547741f14610205578063d9f029d51461015a578063f36c8f5c146101205763f5b541a6146100e2575f80fd5b3461011c575f36600319011261011c5760206040517f97667070c54ef182b0f5858b034beac1b6f3089aa2d3188bb1e8929f4fa9b9298152f35b5f80fd5b3461011c575f36600319011261011c5760206040517f71840dc4906352362b0cdaf79870196c8e42acafade72d5d5a6d59291253ceb18152f35b3461011c57602036600319011261011c576101a5610179600435611436565b610191600261018a60018401610ece565b9201610f85565b604051928392604084526040840190610e06565b8281036020840152815180825260208201916020808360051b8301019401925f915b8383106101d45786860387f35b9193955091936020806101f3600193601f198682030187528951610e06565b970193019301909286959492936101c7565b3461011c57604036600319011261011c57610247600435610224610df0565b9061024261023d825f525f602052600160405f20015490565b61115b565b6113b6565b005b3461011c575f36600319011261011c5760206040515f8152f35b3461011c57604036600319011261011c5761027c610df0565b6004355f525f60205260405f209060018060a01b03165f52602052602060ff60405f2054166040519015158152f35b3461011c57604036600319011261011c576004356102c7610df0565b335f9081527fee57cd81e84075558e8fcc182a1f4393f91fc97f963a136e66b7f949a62f319f60205260409020549091906103049060ff16610fda565b6001600160a01b0382169182156103795761035390600361032484611436565b01805468010000000000000000600160e01b03191660409290921b600160401b600160e01b0316919091179055565b7ff9c23072b511f93ee8d9f8e7ff3f7dfe41391c4f0852e708ca8a78d70351cd3d5f80a3005b60405162461bcd60e51b81526020600482015260126024820152712222a2a21d24a72b20a624a22fa7aba722a960711b6044820152606490fd5b3461011c575f36600319011261011c5760206040517f114e74f6ea3bd819998f78687bfcb11b140da08e9b7d222fa9c1f1ba1f2aa1228152f35b3461011c57606036600319011261011c576004356024356001600160401b03811161011c573660238201121561011c578060040135916001600160401b03831161011c576024820191602484369201011161011c576044356001600160401b03811161011c57610461903690600401610e2a565b335f9081527fee57cd81e84075558e8fcc182a1f4393f91fc97f963a136e66b7f949a62f319f60205260409020549093919061049f9060ff16610fda565b8215610860578415610826576001545f1981146108125760010193846001556040516104ca81610e5a565b8481526104d8368886611125565b91602082019283526104e981610f6e565b936104f76040519586610e75565b818552602085019160051b81019036821161011c5780925b8284106107d657505050506040810192835260608101926001600160401b03421684526080820192338452875f52600260205260405f20925183556001830190518051906001600160401b038211610754576105758261056f8554610e96565b856110c7565b602090601f8311600114610773576105a492915f9183610768575b50508160011b915f199060031b1c19161790565b90555b60028201905160208151916105bc8385611031565b01915f5260205f20915f905b8282106106745750509351600392909201805493516001600160e01b03199094166001600160401b039390931692909217604093841b600160401b600160e01b0316179091555060209585937fe2ac0feb57efd1c882af80b10b8d21d6b56077338a804a98623b4d7fb3464ade9350909190855f526003885284825f20558282519384928a8452818b850152848401375f828201840152601f01601f19168101030190a3604051908152f35b80518051906001600160401b0382116107545761069b826106958854610e96565b886110c7565b602090601f83116001146106eb57926106d1836001959460209487965f926106e05750508160011b915f199060031b1c19161790565b87555b019401910190926105c8565b015190505f80610590565b90601f19831691875f52815f20925f5b81811061073c5750936020936001969387969383889510610724575b505050811b0187556106d4565b01515f1960f88460031b161c191690555f8080610717565b929360206001819287860151815501950193016106fb565b634e487b7160e01b5f52604160045260245ffd5b015190508c80610590565b90601f19831691845f52815f20925f5b8181106107be57509084600195949392106107a6575b505050811b0190556105a7565b01515f1960f88460031b161c191690558b8080610799565b92936020600181928786015181550195019301610783565b83356001600160401b03811161011c57820136601f8201121561011c57602091610807839236908481359101611125565b81520193019261050f565b634e487b7160e01b5f52601160045260245ffd5b60405162461bcd60e51b8152602060048201526012602482015271111151510e921054d217d49154555254915160721b6044820152606490fd5b60405162461bcd60e51b8152602060048201526016602482015275111151510e941493d41154951657d49154555254915160521b6044820152606490fd5b3461011c57604036600319011261011c576024356001600160401b03811161011c576108ce903690600401610e2a565b335f9081527fee57cd81e84075558e8fcc182a1f4393f91fc97f963a136e66b7f949a62f319f60205260409020546109089060ff16610fda565b6002610915600435611436565b01916109218284611031565b80925f5260205f20925f91601e1981360301915b84841061093e57005b80358381121561011c5782018035906001600160401b03821161011c57813603602082011361011c5761097b826109758a54610e96565b8a6110c7565b5f90601f83116001146109cc57926109b0836001959460209487965f926109bf5750508160011b915f199060031b1c19161790565b89555b01960193019294610935565b8692500101358c80610590565b601f19831691895f5260205f20925f5b818110610a205750936020936001969387969383889510610a05575b505050811b0189556109b3565b018501355f19600384901b60f8161c191690558b80806109f8565b9193602060018192828888010135815501950192016109dc565b3461011c575f36600319011261011c5760206040517f2fdac322ee704ce09f0773f7f3f92eb98d5e7c836ee9c056cccd5f61041e5e3f8152f35b3461011c57602036600319011261011c575f6080604051610a9481610e5a565b82815260606020820152606060408201528260608201520152610ab8600435611436565b604051610ac481610e5a565b81548152610ad460018301610ece565b91602082019283526003610aea60028301610f85565b91604084019283520154610b3b60608401946001600160401b0383168652608085019260018060a01b039060401c16835260405194602086525160208601525160a0604086015260c0850190610e06565b915191601f19848203016060850152825180825260208201916020808360051b8301019501925f915b838310610b915788516001600160401b0316608089015285516001600160a01b031660a089015287870388f35b9091929395602080610baf600193601f198682030187528a51610e06565b98019301930191939290610b64565b3461011c57602036600319011261011c576004355f526003602052602060405f2054604051908152f35b3461011c57604036600319011261011c57610c01610df0565b336001600160a01b03821603610c1d57610247906004356113b6565b60405162461bcd60e51b815260206004820152602f60248201527f416363657373436f6e74726f6c3a2063616e206f6e6c792072656e6f756e636560448201526e103937b632b9903337b91039b2b63360891b6064820152608490fd5b3461011c57604036600319011261011c57600435610c96610df0565b90610caf61023d825f525f602052600160405f20015490565b5f818152602081815260408083206001600160a01b038616845290915290205460ff1615610cd957005b5f818152602081815260408083206001600160a01b0395909516808452949091528120805460ff19166001179055339291907f2f8788117e7eff1d82e926ec794901d17c78024a50270940304540a733656f0d9080a4005b3461011c57602036600319011261011c576020610d5b6004355f525f602052600160405f20015490565b604051908152f35b3461011c575f36600319011261011c5760206040517f68e79a7bf1e0bc45d0a330c573bc367f9cf464fd326078812f301165fbda4ef18152f35b3461011c57602036600319011261011c576004359063ffffffff60e01b821680920361011c57602091637965db0b60e01b8114908115610ddf575b5015158152f35b6301ffc9a760e01b14905083610dd8565b602435906001600160a01b038216820361011c57565b805180835260209291819084018484015e5f828201840152601f01601f1916010190565b9181601f8401121561011c578235916001600160401b03831161011c576020808501948460051b01011161011c57565b60a081019081106001600160401b0382111761075457604052565b90601f801991011681019081106001600160401b0382111761075457604052565b90600182811c92168015610ec4575b6020831014610eb057565b634e487b7160e01b5f52602260045260245ffd5b91607f1691610ea5565b9060405191825f825492610ee184610e96565b8084529360018116908115610f4c5750600114610f08575b50610f0692500383610e75565b565b90505f9291925260205f20905f915b818310610f30575050906020610f06928201015f610ef9565b6020919350806001915483858901015201910190918492610f17565b905060209250610f0694915060ff191682840152151560051b8201015f610ef9565b6001600160401b0381116107545760051b60200190565b908154610f9181610f6e565b92610f9f6040519485610e75565b81845260208401905f5260205f205f915b838310610fbd5750505050565b600160208192610fcc85610ece565b815201920192019190610fb0565b15610fe157565b60405162461bcd60e51b8152602060048201526012602482015271524f4c453a4f50455241544f525f4f4e4c5960701b6044820152606490fd5b818110611026575050565b5f815560010161101b565b906801000000000000000081116107545781549181815582821061105457505050565b5f5260205f2091820191015b81811061106b575050565b8061107860019254610e96565b80611085575b5001611060565b601f8111831461109a57505f81555b5f61107e565b6110b690825f5283601f60205f20920160051c8201910161101b565b805f525f6020812081835555611094565b9190601f81116110d657505050565b610f06925f5260205f20906020601f840160051c83019310611100575b601f0160051c019061101b565b90915081906110f3565b6001600160401b03811161075457601f01601f191660200190565b9291926111318261110a565b9161113f6040519384610e75565b82948184528183011161011c578281602093845f960137010152565b5f8181526020818152604080832033845290915290205460ff161561117d5750565b33611188602a61110a565b916111966040519384610e75565b602a83526111a4602a61110a565b602084019290601f19013684378351156113615760308353835160011015611361576078602185015360295b6001811161137557506112dc576111e7604261110a565b906111f56040519283610e75565b60428252611203604261110a565b602083019190601f19013683378251156113615760308253825160011015611361576078602184015360415b6001811161132057506112dc576112d8936037601192846112b895506040519687947f416363657373436f6e74726f6c3a206163636f756e742000000000000000000060208701525180918587015e8401907001034b99036b4b9b9b4b733903937b6329607d1b84830152518092604883015e01015f838201520301601f198101835282610e75565b60405162461bcd60e51b8152602060048201529182916024830190610e06565b0390fd5b606460405162461bcd60e51b815260206004820152602060248201527f537472696e67733a20686578206c656e67746820696e73756666696369656e746044820152fd5b90600f81166010811015611361576f181899199a1a9b1b9c1cb0b131b232b360811b901a61134e8386611481565b5360041c908015610812575f190161122f565b634e487b7160e01b5f52603260045260245ffd5b90600f81166010811015611361576f181899199a1a9b1b9c1cb0b131b232b360811b901a6113a38387611481565b5360041c908015610812575f19016111d0565b5f818152602081815260408083206001600160a01b038616845290915290205460ff166113e1575050565b5f818152602081815260408083206001600160a01b0395909516808452949091528120805460ff19169055339291907ff6391f5c32d9c69d2a47ea670b442974b53935d1edc7fd64eb21e047a839171b9080a4565b5f52600260205260405f2080541561144b5790565b60405162461bcd60e51b815260206004820152600e60248201526d111151510e9393d517d193d5539160921b6044820152606490fd5b90815181101561136157016020019056fea26469706673582212201a0a8eed72f02496a231859d76480b8674603de180c14a51facc3c51cb34de7764736f6c634300081a0033bd79b86ffe0ab8e8776151514217cd7cacd52c909f66475c3af44e129f0b00ffad3228b676f7d3cd4284a5443f17f1962b36e491b30a40b2405849e597ba5fb5"
  }
}