{
  "contractName": "InvestmentOffering",
  "abi": [
    {
      "inputs": [
        {
          "internalType": "address",
          "name": "admin",
          "type": "address"
        },
        {
          "internalType": "address",
          "name": "_paymentToken",
          "type": "address"
        },
        {
          "internalType": "address",
          "name": "_escrowManager",
          "type": "address"
        },
        {
          "internalType": "address",
          "name": "_propertyToken",
          "type": "address"
        },
        {
          "internalType": "address",
          "name": "_complianceOracle",
          "type": "address"
        }
      ],
      "stateMutability": "nonpayable",
      "type": "constructor"
    },
    {
      "anonymous": false,
      "inputs": [
        {
          "indexed": true,
          "internalType": "uint256",
          "name": "offeringId",
          "type": "uint256"
        },
        {
          "indexed": true,
          "internalType": "address",
          "name": "investor",
          "type": "address"
        },
        {
          "indexed": false,
          "internalType": "uint256",
          "name": "amount",
          "type": "uint256"
        }
      ],
      "name": "InvestmentMade",
      "type": "event"
    },
    {
      "anonymous": false,
      "inputs": [
        {
          "indexed": true,
          "internalType": "uint256",
          "name": "offeringId",
          "type": "uint256"
        },
        {
          "indexed": false,
          "internalType": "uint256",
          "name": "totalRaised",
          "type": "uint256"
        }
      ],
      "name": "OfferingClosed",
      "type": "event"
    },
    {
      "anonymous": false,
      "inputs": [
        {
          "indexed": true,
          "internalType": "uint256",
          "name": "offeringId",
          "type": "uint256"
        },
        {
          "indexed": false,
          "internalType": "uint256",
          "name": "targetAmount",
          "type": "uint256"
        },
        {
          "indexed": false,
          "internalType": "uint256",
          "name": "minInvestment",
          "type": "uint256"
        },
        {
          "indexed": false,
          "internalType": "uint256",
          "name": "maxInvestment",
          "type": "uint256"
        },
        {
          "indexed": false,
          "internalType": "address",
          "name": "propertyToken",
          "type": "address"
        }
      ],
      "name": "OfferingCreated",
      "type": "event"
    },
    {
      "anonymous": false,
      "inputs": [
        {
          "indexed": true,
          "internalType": "uint256",
          "name": "offeringId",
          "type": "uint256"
        }
      ],
      "name": "OfferingFailed",
      "type": "event"
    },
    {
      "anonymous": false,
      "inputs": [
        {
          "indexed": true,
          "internalType": "uint256",
          "name": "offeringId",
          "type": "uint256"
        },
        {
          "indexed": true,
          "internalType": "address",
          "name": "investor",
          "type": "address"
        },
        {
          "indexed": false,
          "internalType": "uint256",
          "name": "amount",
          "type": "uint256"
        }
      ],
      "name": "Refunded",
      "type": "event"
    },
    {
      "anonymous": false,
      "inputs": [
        {
          "indexed": true,
          "internalType": "bytes32",
          "name": "role",
          "type": "bytes32"
        },
        {
          "indexed": true,
          "internalType": "bytes32",
          "name": "previousAdminRole",
          "type": "bytes32"
        },
        {
          "indexed": true,
          "internalType": "bytes32",
          "name": "newAdminRole",
          "type": "bytes32"
        }
      ],
      "name": "RoleAdminChanged",
      "type": "event"
    },
    {
      "anonymous": false,
      "inputs": [
        {
          "indexed": true,
          "internalType": "bytes32",
          "name": "role",
          "type": "bytes32"
        },
        {
          "indexed": true,
          "internalType": "address",
          "name": "account",
          "type": "address"
        },
        {
          "indexed": true,
          "internalType": "address",
          "name": "sender",
          "type": "address"
        }
      ],
      "name": "RoleGranted",
      "type": "event"
    },
    {
      "anonymous": false,
      "inputs": [
        {
          "indexed": true,
          "internalType": "bytes32",
          "name": "role",
          "type": "bytes32"
        },
        {
          "indexed": true,
          "internalType": "address",
          "name": "account",
          "type": "address"
        },
        {
          "indexed": true,
          "internalType": "address",
          "name": "sender",
          "type": "address"
        }
      ],
      "name": "RoleRevoked",
      "type": "event"
    },
    {
      "inputs": [],
      "name": "DEFAULT_ADMIN_ROLE",
      "outputs": [
        {
          "internalType": "bytes32",
          "name": "",
          "type": "bytes32"
        }
      ],
      "stateMutability": "view",
      "type": "function"
    },
    {
      "inputs": [],
      "name": "ESCROW_ROLE",
      "outputs": [
        {
          "internalType": "bytes32",
          "name": "",
          "type": "bytes32"
        }
      ],
      "stateMutability": "view",
      "type": "function"
    },
    {
      "inputs": [],
      "name": "GOVERNANCE_ROLE",
      "outputs": [
        {
          "internalType": "bytes32",
          "name": "",
          "type": "bytes32"
        }
      ],
      "stateMutability": "view",
      "type": "function"
    },
    {
      "inputs": [],
      "name": "ISSUER_ROLE",
      "outputs": [
        {
          "internalType": "bytes32",
          "name": "",
          "type": "bytes32"
        }
      ],
      "stateMutability": "view",
      "type": "function"
    },
    {
      "inputs": [],
      "name": "OPERATOR_ROLE",
      "outputs": [
        {
          "internalType": "bytes32",
          "name": "",
          "type": "bytes32"
        }
      ],
      "stateMutability": "view",
      "type": "function"
    },
    {
      "inputs": [],
      "name": "ORACLE_ROLE",
      "outputs": [
        {
          "internalType": "bytes32",
          "name": "",
          "type": "bytes32"
        }
      ],
      "stateMutability": "view",
      "type": "function"
    },
    {
      "inputs": [
        {
          "internalType": "uint256",
          "name": "offeringId",
          "type": "uint256"
        }
      ],
      "name": "closeOffering",
      "outputs": [],
      "stateMutability": "nonpayable",
      "type": "function"
    },
    {
      "inputs": [],
      "name": "complianceOracle",
      "outputs": [
        {
          "internalType": "address",
          "name": "",
          "type": "address"
        }
      ],
      "stateMutability": "view",
      "type": "function"
    },
    {
      "inputs": [
        {
          "internalType": "uint256",
          "name": "targetAmount",
          "type": "uint256"
        },
        {
          "internalType": "uint256",
          "name": "minInvestment",
          "type": "uint256"
        },
        {
          "internalType": "uint256",
          "name": "maxInvestment",
          "type": "uint256"
        },
        {
          "internalType": "uint64",
          "name": "closesAt",
          "type": "uint64"
        },
        {
          "internalType": "uint256",
          "name": "propertyTokenId",
          "type": "uint256"
        }
      ],
      "name": "createOffering",
      "outputs": [
        {
          "internalType": "uint256",
          "name": "offeringId",
          "type": "uint256"
        }
      ],
      "stateMutability": "nonpayable",
      "type": "function"
    },
    {
      "inputs": [],
      "name": "escrowManager",
      "outputs": [
        {
          "internalType": "address",
          "name": "",
          "type": "address"
        }
      ],
      "stateMutability": "view",
      "type": "function"
    },
    {
      "inputs": [
        {
          "internalType": "uint256",
          "name": "offeringId",
          "type": "uint256"
        }
      ],
      "name": "getOffering",
      "outputs": [
        {
          "components": [
            {
              "internalType": "uint256",
              "name": "targetAmount",
              "type": "uint256"
            },
            {
              "internalType": "uint256",
              "name": "minInvestment",
              "type": "uint256"
            },
            {
              "internalType": "uint256",
              "name": "maxInvestment",
              "type": "uint256"
            },
            {
              "internalType": "uint256",
              "name": "totalRaised",
              "type": "uint256"
            },
            {
              "internalType": "uint64",
              "name": "opensAt",
              "type": "uint64"
            },
            {
              "internalType": "uint64",
              "name": "closesAt",
              "type": "uint64"
            },
            {
              "internalType": "enum DataTypes.OfferingStatus",
              "name": "status",
              "type": "uint8"
            },
            {
              "internalType": "uint256",
              "name": "escrowId",
              "type": "uint256"
            },
            {
              "internalType": "address",
              "name": "propertyToken",
              "type": "address"
            },
            {
              "internalType": "uint256",
              "name": "propertyTokenId",
              "type": "uint256"
            }
          ],
          "internalType": "struct DataTypes.Offering",
          "name": "",
          "type": "tuple"
        }
      ],
      "stateMutability": "view",
      "type": "function"
    },
    {
      "inputs": [
        {
          "internalType": "bytes32",
          "name": "role",
          "type": "bytes32"
        }
      ],
      "name": "getRoleAdmin",
      "outputs": [
        {
          "internalType": "bytes32",
          "name": "",
          "type": "bytes32"
        }
      ],
      "stateMutability": "view",
      "type": "function"
    },
    {
      "inputs": [
        {
          "internalType": "bytes32",
          "name": "role",
          "type": "bytes32"
        },
        {
          "internalType": "address",
          "name": "account",
          "type": "address"
        }
      ],
      "name": "grantRole",
      "outputs": [],
      "stateMutability": "nonpayable",
      "type": "function"
    },
    {
      "inputs": [
        {
          "internalType": "bytes32",
          "name": "role",
          "type": "bytes32"
        },
        {
          "internalType": "address",
          "name": "account",
          "type": "address"
        }
      ],
      "name": "hasRole",
      "outputs": [
        {
          "internalType": "bool",
          "name": "",
          "type": "bool"
        }
      ],
      "stateMutability": "view",
      "type": "function"
    },
    {
      "inputs": [
        {
          "internalType": "uint256",
          "name": "offeringId",
          "type": "uint256"
        },
        {
          "internalType": "uint256",
          "name": "amount",
          "type": "uint256"
        }
      ],
      "name": "invest",
      "outputs": [],
      "stateMutability": "nonpayable",
      "type": "function"
    },
    {
      "inputs": [],
      "name": "paymentToken",
      "outputs": [
        {
          "internalType": "address",
          "name": "",
          "type": "address"
        }
      ],
      "stateMutability": "view",
      "type": "function"
    },
    {
      "inputs": [],
      "name": "propertyToken",
      "outputs": [
        {
          "internalType": "address",
          "name": "",
          "type": "address"
        }
      ],
      "stateMutability": "view",
      "type": "function"
    },
    {
      "inputs": [
        {
          "internalType": "uint256",
          "name": "offeringId",
          "type": "uint256"
        }
      ],
      "name": "refundInvestors",
      "outputs": [],
      "stateMutability": "nonpayable",
      "type": "function"
    },
    {
      "inputs": [
        {
          "internalType": "bytes32",
          "name": "role",
          "type": "bytes32"
        },
        {
          "internalType": "address",
          "name": "account",
          "type": "address"
        }
      ],
      "name": "renounceRole",
      "outputs": [],
      "stateMutability": "nonpayable",
      "type": "function"
    },
    {
      "inputs": [
        {
          "internalType": "bytes32",
          "name": "role",
          "type": "bytes32"
        },
        {
          "internalType": "address",
          "name": "account",
          "type": "address"
        }
      ],
      "name": "revokeRole",
      "outputs": [],
      "stateMutability": "nonpayable",
      "type": "function"
    },
    {
      "inputs": [
        {
          "internalType": "bytes4",
          "name": "interfaceId",
          "type": "bytes4"
        }
      ],
      "name": "supportsInterface",
      "outputs": [
        {
          "internalType": "bool",
          "name": "",
          "type": "bool"
        }
      ],
      "stateMutability": "view",
      "type": "function"
    }
  ],
  "bytecode": {
    "object": "6101003461036d57601f611db238819003918201601f19168301916001600160401b038311848410176103715780849260a09460405283398101031261036d5761004881610385565b9061005560208201610385565b61006160408301610385565b9061007a608061007360608601610385565b9401610385565b6001600160a01b0385165f9081525f80516020611d92833981519152602052604090205490949060ff1615610313575b507f97667070c54ef182b0f5858b034beac1b6f3089aa2d3188bb1e8929f4fa9b9295f81815260208190527fee57cd81e84075558e8fcc182a1f4393f91fc97f963a136e66b7f949a62f31a080549082905590915f80516020611d728339815191528380a47f2fdac322ee704ce09f0773f7f3f92eb98d5e7c836ee9c056cccd5f61041e5e3f5f81815260208190527fe3c558b62678382104a32eca8acfc9cd319238c371fe623afa6ac48f9723f7b180549082905590915f80516020611d728339815191528380a47f68e79a7bf1e0bc45d0a330c573bc367f9cf464fd326078812f301165fbda4ef15f81815260208190527fa629f6981c2f6895a67dc766e8e03ff72d04a413d0d8773a3ca56e9e474032c280549082905590915f80516020611d728339815191528380a47f114e74f6ea3bd819998f78687bfcb11b140da08e9b7d222fa9c1f1ba1f2aa1225f81815260208190527ff9c002f57bb53b4d861ae1ef1369a8087d06c8210e4846f897918d0e534663cf80549082905590915f80516020611d728339815191528380a47f71840dc4906352362b0cdaf79870196c8e42acafade72d5d5a6d59291253ceb15f81815260208190527f316a51056d8b2401ab04c48d9973add294eadde229c785c6d19cde93785467f080549082905590915f80516020611d728339815191528380a46001805560805260a05260c05260e0526040516119d8908161039a823960805181818161025e0152818161097e01528181610d010152611528015260a0518181816105120152611562015260c05181818161066a01528181610bf501526115b5015260e0518181816101ff0152610c390152f35b6001600160a01b03165f8181525f80516020611d9283398151915260205260408120805460ff191660011790553391907f2f8788117e7eff1d82e926ec794901d17c78024a50270940304540a733656f0d8180a45f6100aa565b5f80fd5b634e487b7160e01b5f52604160045260245ffd5b51906001600160a01b038216820361036d5756fe60c0806040526004361015610012575f80fd5b5f3560e01c90816301ffc9a714610fb85750806307e2cea514610f7e578063248a9ca314610f4c5780632b13203014610dd95780632f2ff15d14610d305780633013ce2914610cec57806336568abe14610c68578063410239bf14610c2457806343ae269514610be05780636ce76f3014610ba657806382aefa2414610b6c57806391d1485414610b315780639ee987b2146108f2578063a1d4646f146107d3578063a217fddf146107b9578063a9cec53414610541578063c12255c4146104fd578063d547741f146104c7578063d87aa6431461017b578063f36c8f5c146101415763f5b541a614610103575f80fd5b3461013d575f36600319011261013d5760206040517f97667070c54ef182b0f5858b034beac1b6f3089aa2d3188bb1e8929f4fa9b9298152f35b5f80fd5b3461013d575f36600319011261013d5760206040517f71840dc4906352362b0cdaf79870196c8e42acafade72d5d5a6d59291253ceb18152f35b3461013d57604036600319011261013d5760043560243561019a6113d0565b6101a382611426565b9067ffffffffffffffff600483015460401c16421161049057600182015481101580610482575b1561044557600782015460405163094ddcf360e31b815233600482015260248101919091526020816044816001600160a01b037f0000000000000000000000000000000000000000000000000000000000000000165afa9081156103e0575f91610426575b50156103eb576040516323b872dd60e01b8152336004820152306024820152604481018290526020816064815f7f00000000000000000000000000000000000000000000000000000000000000006001600160a01b03165af180156103e0576103b3575b506003820190815481810180911161039f578255835f52600360205260405f206040516040810181811067ffffffffffffffff82111761038b57604052338152602081019183835280546801000000000000000081101561038b576102fd916001820181556110b1565b92909261037857905182546001600160a01b0319166001600160a01b03919091161782555160019190910155604051908152339084907f89728d542d77fad9fe42c7d1f032c2b85f64cf938d754183b0e95359fbfac8a190602090a35490541115610369575b60018055005b6103729061148a565b80610363565b634e487b7160e01b5f525f60045260245ffd5b634e487b7160e01b5f52604160045260245ffd5b634e487b7160e01b5f52601160045260245ffd5b6103d49060203d6020116103d9575b6103cc818361104e565b8101906110de565b610293565b503d6103c2565b6040513d5f823e3d90fd5b60405162461bcd60e51b81526020600482015260136024820152724f46464552494e473a434f4d504c49414e434560681b6044820152606490fd5b61043f915060203d6020116103d9576103cc818361104e565b8461022f565b60405162461bcd60e51b81526020600482015260156024820152744f46464552494e473a414d4f554e545f52414e474560581b6044820152606490fd5b5060028201548111156101ca565b60405162461bcd60e51b815260206004820152600f60248201526e13d1919154925391ce90d313d4d151608a1b6044820152606490fd5b3461013d576104fb6104d83661100b565b906104f66104f1825f525f602052600160405f20015490565b6110f6565b611350565b005b3461013d575f36600319011261013d576040517f00000000000000000000000000000000000000000000000000000000000000006001600160a01b03168152602090f35b3461013d5760a036600319011261013d5760043560443560243560643567ffffffffffffffff811680820361013d57335f9081527ff9c002f57bb53b4d861ae1ef1369a8087d06c8210e4846f897918d0e534663ce602052604090205460ff161561078157841561074a57838311610713574210156106da576004545f19811461039f576020947f3cdc031a952a16b829d9a532801bfbef171618aa3eda64a07811445b4668ca769260016080930195869586600455865f526002895260405f20928484558160018501558260028501555f600385015560048401906fffffffffffffffff000000000000000082549160401b169067ffffffffffffffff4216906fffffffffffffffffffffffffffffffff1916171781556001861b60ff871b198254161790557f0000000000000000000000000000000000000000000000000000000000000000926006810160018060a01b0385166bffffffffffffffffffffffff60a01b825416179055600760843591015560405193845288840152604083015260018060a01b03166060820152a2604051908152f35b60405162461bcd60e51b81526020600482015260116024820152704f46464552494e473a444541444c494e4560781b6044820152606490fd5b60405162461bcd60e51b815260206004820152600f60248201526e4f46464552494e473a4c494d49545360881b6044820152606490fd5b60405162461bcd60e51b815260206004820152600f60248201526e13d1919154925391ce95105491d155608a1b6044820152606490fd5b60405162461bcd60e51b815260206004820152601060248201526f524f4c453a4953535545525f4f4e4c5960801b6044820152606490fd5b3461013d575f36600319011261013d5760206040515f8152f35b3461013d57602036600319011261013d57335f9081527fee57cd81e84075558e8fcc182a1f4393f91fc97f963a136e66b7f949a62f319f6020526040902054600435906108229060ff16611070565b61082b81611426565b67ffffffffffffffff600482015460401c1642108015906108e3575b156108a8576003810154905411610861576104fb9061148a565b5f818152600260205260408120600401805460ff60801b1916600160821b1790557f219277becdfe34da60667fba55be656eaad5448b30203fb7d68e493132afd6649080a2005b60405162461bcd60e51b815260206004820152601360248201527227a32322a924a7239d29aa24a6262fa7a822a760691b6044820152606490fd5b50600381015481541115610847565b3461013d57602036600319011261013d57335f9081527fee57cd81e84075558e8fcc182a1f4393f91fc97f963a136e66b7f949a62f319f6020526040902054600435906109419060ff16611070565b6109496113d0565b805f52600260205260ff600460405f20015460801c166005811015610b1d57600403610ae2575f8181526003602052604081207f00000000000000000000000000000000000000000000000000000000000000006001600160a01b0316915b8154811015610a8e578060206109c1610a0993856110b1565b50546001600160a01b031660016109d884876110b1565b50015460405163a9059cbb60e01b81526001600160a01b039092166004830152602482015292839081906044820190565b03815f885af19182156103e057600192610a72575b50610a2981846110b1565b50828060a01b03905416857f7ca5472b7ea78c2c0141c5a12ee6d170cf4ce8ed06be3d22c8252ddfc7a6a2c4602085610a6286896110b1565b500154604051908152a3016109a8565b610a899060203d81116103d9576103cc818361104e565b610a1e565b835f52600360205260405f208054905f815581610aab5760018055005b6001600160ff1b038216820361039f575f5260205f209060011b8101905b81811015610363575f8082556001820155600201610ac9565b60405162461bcd60e51b815260206004820152601360248201527213d1919154925391ce9393d517d19052531151606a1b6044820152606490fd5b634e487b7160e01b5f52602160045260245ffd5b3461013d57610b3f3661100b565b905f525f60205260405f209060018060a01b03165f52602052602060ff60405f2054166040519015158152f35b3461013d575f36600319011261013d5760206040517f114e74f6ea3bd819998f78687bfcb11b140da08e9b7d222fa9c1f1ba1f2aa1228152f35b3461013d575f36600319011261013d5760206040517f2fdac322ee704ce09f0773f7f3f92eb98d5e7c836ee9c056cccd5f61041e5e3f8152f35b3461013d575f36600319011261013d576040517f00000000000000000000000000000000000000000000000000000000000000006001600160a01b03168152602090f35b3461013d575f36600319011261013d576040517f00000000000000000000000000000000000000000000000000000000000000006001600160a01b03168152602090f35b3461013d57610c763661100b565b336001600160a01b03821603610c8f576104fb91611350565b60405162461bcd60e51b815260206004820152602f60248201527f416363657373436f6e74726f6c3a2063616e206f6e6c792072656e6f756e636560448201526e103937b632b9903337b91039b2b63360891b6064820152608490fd5b3461013d575f36600319011261013d576040517f00000000000000000000000000000000000000000000000000000000000000006001600160a01b03168152602090f35b3461013d57610d3e3661100b565b90610d576104f1825f525f602052600160405f20015490565b5f818152602081815260408083206001600160a01b038616845290915290205460ff1615610d8157005b5f818152602081815260408083206001600160a01b0395909516808452949091528120805460ff19166001179055339291907f2f8788117e7eff1d82e926ec794901d17c78024a50270940304540a733656f0d9080a4005b3461013d57602036600319011261013d575f610120604051610dfa81611031565b8281528260208201528260408201528260608201528260808201528260a08201528260c08201528260e08201528261010082015201526004355f52600260205260405f20604051610e4a81611031565b8154815260018201546020820190815260028301549260408301938452600381015460608401908152600482015490608085019167ffffffffffffffff8116835260ff60a087019167ffffffffffffffff8160401c16835260801c1660c08701936005821015610b1d5767ffffffffffffffff938492865260058701549960e08a019a8b52600760018060a01b0360068a015416986101008c01998a520154986101208b01998a526040519a518b525160208b01525160408a015251606089015251166080870152511660a085015251936005851015610b1d576101409460c08501525160e084015260018060a01b0390511661010083015251610120820152f35b3461013d57602036600319011261013d576020610f766004355f525f602052600160405f20015490565b604051908152f35b3461013d575f36600319011261013d5760206040517f68e79a7bf1e0bc45d0a330c573bc367f9cf464fd326078812f301165fbda4ef18152f35b3461013d57602036600319011261013d576004359063ffffffff60e01b821680920361013d57602091637965db0b60e01b8114908115610ffa575b5015158152f35b6301ffc9a760e01b14905083610ff3565b604090600319011261013d57600435906024356001600160a01b038116810361013d5790565b610140810190811067ffffffffffffffff82111761038b57604052565b90601f8019910116810190811067ffffffffffffffff82111761038b57604052565b1561107757565b60405162461bcd60e51b8152602060048201526012602482015271524f4c453a4f50455241544f525f4f4e4c5960701b6044820152606490fd5b80548210156110ca575f5260205f209060011b01905f90565b634e487b7160e01b5f52603260045260245ffd5b9081602091031261013d5751801515810361013d5790565b5f8181526020818152604080832033845290915290205460ff16156111185750565b33611123602a611975565b91611131604051938461104e565b602a835261113f602a611975565b602084019290601f19013684378351156110ca57603083538351600110156110ca576078602185015360295b6001811161130f575061128a57906111836042611975565b90611191604051928361104e565b6042825261119f6042611975565b602083019390601f19013685378251156110ca57603084538251600110156110ca576078602184015360415b600181116112ce575061128a57601161125291603760449560405195869360208501997f416363657373436f6e74726f6c3a206163636f756e74200000000000000000008b525180918587015e8401907001034b99036b4b9b9b4b733903937b6329607d1b84830152518092604883015e01015f838201520301601f19810183528261104e565b60405192839162461bcd60e51b8352602060048401525180918160248501528484015e5f828201840152601f01601f19168101030190fd5b606460405162461bcd60e51b815260206004820152602060248201527f537472696e67733a20686578206c656e67746820696e73756666696369656e746044820152fd5b90600f811660108110156110ca576f181899199a1a9b1b9c1cb0b131b232b360811b901a6112fc8386611991565b5360041c90801561039f575f19016111cb565b90600f811660108110156110ca576f181899199a1a9b1b9c1cb0b131b232b360811b901a61133d8387611991565b5360041c90801561039f575f190161116b565b5f818152602081815260408083206001600160a01b038616845290915290205460ff1661137b575050565b5f818152602081815260408083206001600160a01b0395909516808452949091528120805460ff19169055339291907ff6391f5c32d9c69d2a47ea670b442974b53935d1edc7fd64eb21e047a839171b9080a4565b6002600154146113e1576002600155565b60405162461bcd60e51b815260206004820152601f60248201527f5265656e7472616e637947756172643a207265656e7472616e742063616c6c006044820152606490fd5b5f52600260205260405f2060ff600482015460801c166005811015610b1d5760010361144f5790565b60405162461bcd60e51b81526020600482015260136024820152724f46464552494e473a4e4f545f41435449564560681b6044820152606490fd5b5f91815f52600260205260405f209060048201600160811b60ff60801b1982541617905560018060a01b03600683015416926007830191825490604051926331a9108f60e11b84528260048501526020846024818a5afa9384156103e0575f94611931575b5060038601805460405163334ff20560e21b81523060048201526001600160a01b039687166080819052602482015260448101919091527f0000000000000000000000000000000000000000000000000000000000000000861660648201819052608482019990995260a48101949094527f000000000000000000000000000000000000000000000000000000000000000096939490939087169060208660c4815f865af19586156103e0575f966118fc575b5060058691015583549460018060a01b037f00000000000000000000000000000000000000000000000000000000000000001660a052865460405163013f2dad60e41b815281600482015260208160248160a0515afa9081156103e0575f916118ca575b501561187d575b50828a52600360205260408a20978a5b895481101561170b576001611632828c6110b1565b5001548089029089820414891517156116f75787549081156116e3578d918c9161165e858e54946110b1565b505460a0516001600160a01b03909116903b156116df57604051936317aecef160e11b855260048501526080516024850152604484015204606482015281816084818360a0515af180156116d4576116bb575b505060010161161d565b816116c59161104e565b6116d0578b5f6116b1565b8b80fd5b6040513d84823e3d90fd5b8480fd5b634e487b7160e01b8e52601260045260248efd5b634e487b7160e01b8d52601160045260248dfd5b509399965093965093509580155f146117a157505090835491813b1561179d5790602484926040519485938492633b76594d60e01b845260048401525af180156116d457611785575b505060207fc566557ce4cb9ae8e7b1ebb1215c266fb3ef7b87e5a726107e9188fd256423fb915b54604051908152a2565b61179082809261104e565b61179a5780611754565b80fd5b8380fd5b855460405163095ea7b360e01b81526001600160a01b0393909316600484015260248301526020908290604490829088905af1801561187257611855575b50813b15611851578291602483926040519485938492633b76594d60e01b845260048401525af180156116d45761183c575b505060207fc566557ce4cb9ae8e7b1ebb1215c266fb3ef7b87e5a726107e9188fd256423fb9161177b565b61184782809261104e565b61179a5780611811565b8280fd5b61186d9060203d6020116103d9576103cc818361104e565b6117df565b6040513d86823e3d90fd5b60a0513b1561013d576040519063061c37ed60e11b825260048201528660248201525f816044818360a0515af180156103e0571561160d576118c2919a505f9061104e565b5f985f61160d565b90506020813d6020116118f4575b816118e56020938361104e565b8101031261013d57515f611606565b3d91506118d8565b95506020863d602011611929575b816119176020938361104e565b8101031261013d5760059551956115a2565b3d915061190a565b9093506020813d60201161196d575b8161194d6020938361104e565b8101031261013d57516001600160a01b038116810361013d57925f6114ef565b3d9150611940565b67ffffffffffffffff811161038b57601f01601f191660200190565b9081518110156110ca57016020019056fea2646970667358221220bf59b6623f9f02e414a3d2669a2510db2debaedb215a836b2dfe38dd0a18499664736f6c634300081a0033bd79b86ffe0ab8e8776151514217cd7cacd52c909f66475c3af44e129f0b00ffad3228b676f7d3cd4284a5443f17f1962b36e491b30a40b2405849e597ba5fb5"
  }
}