{
  "contractName": "GovernanceDAO",
  "abi": [
    {
      "inputs": [
        {
          "internalType": "address",
          "name": "admin",
          "type": "address"
        },
        {
          "internalType": "address",
          "name": "_propertyToken",
          "type": "address"
        }
      ],
      "stateMutability": "nonpayable",
      "type": "constructor"
    },
    {
      "anonymous": false,
      "inputs": [
        {
          "indexed": true,
          "internalType": "uint256",
          "name": "proposalId",
          "type": "uint256"
        },
        {
          "indexed": false,
          "internalType": "string",
          "name": "description",
          "type": "string"
        },
        {
          "indexed": false,
          "internalType": "uint64",
          "name": "deadline",
          "type": "uint64"
        }
      ],
      "name": "ProposalCreated",
      "type": "event"
    },
    {
      "anonymous": false,
      "inputs": [
        {
          "indexed": true,
          "internalType": "uint256",
          "name": "proposalId",
          "type": "uint256"
        }
      ],
      "name": "ProposalExecuted",
      "type": "event"
    },
    {
      "anonymous": false,
      "inputs": [
        {
          "indexed": true,
          "internalType": "bytes32",
          "name": "role",
          "type": "bytes32"
        },
        {
          "indexed": true,
          "internalType": "bytes32",
          "name": "previousAdminRole",
          "type": "bytes32"
        },
        {
          "indexed": true,
          "internalType": "bytes32",
          "name": "newAdminRole",
          "type": "bytes32"
        }
      ],
      "name": "RoleAdminChanged",
      "type": "event"
    },
    {
      "anonymous": false,
      "inputs": [
        {
          "indexed": true,
          "internalType": "bytes32",
          "name": "role",
          "type": "bytes32"
        },
        {
          "indexed": true,
          "internalType": "address",
          "name": "account",
          "type": "address"
        },
        {
          "indexed": true,
          "internalType": "address",
          "name": "sender",
          "type": "address"
        }
      ],
      "name": "RoleGranted",
      "type": "event"
    },
    {
      "anonymous": false,
      "inputs": [
        {
          "indexed": true,
          "internalType": "bytes32",
          "name": "role",
          "type": "bytes32"
        },
        {
          "indexed": true,
          "internalType": "address",
          "name": "account",
          "type": "address"
        },
        {
          "indexed": true,
          "internalType": "address",
          "name": "sender",
          "type": "address"
        }
      ],
      "name": "RoleRevoked",
      "type": "event"
    },
    {
      "anonymous": false,
      "inputs": [
        {
          "indexed": true,
          "internalType": "uint256",
          "name": "proposalId",
          "type": "uint256"
        },
        {
          "indexed": true,
          "internalType": "address",
          "name": "voter",
          "type": "address"
        },
        {
          "indexed": false,
          "internalType": "bool",
          "name": "support",
          "type": "bool"
        },
        {
          "indexed": false,
          "internalType": "uint256",
          "name": "weight",
          "type": "uint256"
        }
      ],
      "name": "Voted",
      "type": "event"
    },
    {
      "inputs": [],
      "name": "DEFAULT_ADMIN_ROLE",
      "outputs": [
        {
          "internalType": "bytes32",
          "name": "",
          "type": "bytes32"
        }
      ],
      "stateMutability": "view",
      "type": "function"
    },
    {
      "inputs": [],
      "name": "ESCROW_ROLE",
      "outputs": [
        {
          "internalType": "bytes32",
          "name": "",
          "type": "bytes32"
        }
      ],
      "stateMutability": "view",
      "type": "function"
    },
    {
      "inputs": [],
      "name": "GOVERNANCE_ROLE",
      "outputs": [
        {
          "internalType": "bytes32",
          "name": "",
          "type": "bytes32"
        }
      ],
      "stateMutability": "view",
      "type": "function"
    },
    {
      "inputs": [],
      "name": "ISSUER_ROLE",
      "outputs": [
        {
          "internalType": "bytes32",
          "name": "",
          "type": "bytes32"
        }
      ],
      "stateMutability": "view",
      "type": "function"
    },
    {
      "inputs": [],
      "name": "OPERATOR_ROLE",
      "outputs": [
        {
          "internalType": "bytes32",
          "name": "",
          "type": "bytes32"
        }
      ],
      "stateMutability": "view",
      "type": "function"
    },
    {
      "inputs": [],
      "name": "ORACLE_ROLE",
      "outputs": [
        {
          "internalType": "bytes32",
          "name": "",
          "type": "bytes32"
        }
      ],
      "stateMutability": "view",
      "type": "function"
    },
    {
      "inputs": [
        {
          "internalType": "string",
          "name": "description",
          "type": "string"
        },
        {
          "internalType": "uint64",
          "name": "deadline",
          "type": "uint64"
        },
        {
          "internalType": "address",
          "name": "target",
          "type": "address"
        },
        {
          "internalType": "bytes",
          "name": "callData",
          "type": "bytes"
        }
      ],
      "name": "createProposal",
      "outputs": [
        {
          "internalType": "uint256",
          "name": "proposalId",
          "type": "uint256"
        }
      ],
      "stateMutability": "nonpayable",
      "type": "function"
    },
    {
      "inputs": [
        {
          "internalType": "uint256",
          "name": "proposalId",
          "type": "uint256"
        }
      ],
      "name": "executeProposal",
      "outputs": [],
      "stateMutability": "nonpayable",
      "type": "function"
    },
    {
      "inputs": [
        {
          "internalType": "uint256",
          "name": "proposalId",
          "type": "uint256"
        }
      ],
      "name": "getProposal",
      "outputs": [
        {
          "components": [
            {
              "internalType": "string",
              "name": "description",
              "type": "string"
            },
            {
              "internalType": "uint64",
              "name": "createdAt",
              "type": "uint64"
            },
            {
              "internalType": "uint64",
              "name": "deadline",
              "type": "uint64"
            },
            {
              "internalType": "uint256",
              "name": "forVotes",
              "type": "uint256"
            },
            {
              "internalType": "uint256",
              "name": "againstVotes",
              "type": "uint256"
            },
            {
              "internalType": "enum DataTypes.ProposalStatus",
              "name": "status",
              "type": "uint8"
            },
            {
              "internalType": "bytes",
              "name": "callData",
              "type": "bytes"
            },
            {
              "internalType": "address",
              "name": "target",
              "type": "address"
            }
          ],
          "internalType": "struct DataTypes.Proposal",
          "name": "",
          "type": "tuple"
        }
      ],
      "stateMutability": "view",
      "type": "function"
    },
    {
      "inputs": [
        {
          "internalType": "bytes32",
          "name": "role",
          "type": "bytes32"
        }
      ],
      "name": "getRoleAdmin",
      "outputs": [
        {
          "internalType": "bytes32",
          "name": "",
          "type": "bytes32"
        }
      ],
      "stateMutability": "view",
      "type": "function"
    },
    {
      "inputs": [
        {
          "internalType": "bytes32",
          "name": "role",
          "type": "bytes32"
        },
        {
          "internalType": "address",
          "name": "account",
          "type": "address"
        }
      ],
      "name": "grantRole",
      "outputs": [],
      "stateMutability": "nonpayable",
      "type": "function"
    },
    {
      "inputs": [
        {
          "internalType": "bytes32",
          "name": "role",
          "type": "bytes32"
        },
        {
          "internalType": "address",
          "name": "account",
          "type": "address"
        }
      ],
      "name": "hasRole",
      "outputs": [
        {
          "internalType": "bool",
          "name": "",
          "type": "bool"
        }
      ],
      "stateMutability": "view",
      "type": "function"
    },
    {
      "inputs": [],
      "name": "propertyToken",
      "outputs": [
        {
          "internalType": "address",
          "name": "",
          "type": "address"
        }
      ],
      "stateMutability": "view",
      "type": "function"
    },
    {
      "inputs": [
        {
          "internalType": "bytes32",
          "name": "role",
          "type": "bytes32"
        },
        {
          "internalType": "address",
          "name": "account",
          "type": "address"
        }
      ],
      "name": "renounceRole",
      "outputs": [],
      "stateMutability": "nonpayable",
      "type": "function"
    },
    {
      "inputs": [
        {
          "internalType": "bytes32",
          "name": "role",
          "type": "bytes32"
        },
        {
          "internalType": "address",
          "name": "account",
          "type": "address"
        }
      ],
      "name": "revokeRole",
      "outputs": [],
      "stateMutability": "nonpayable",
      "type": "function"
    },
    {
      "inputs": [
        {
          "internalType": "bytes4",
          "name": "interfaceId",
          "type": "bytes4"
        }
      ],
      "name": "supportsInterface",
      "outputs": [
        {
          "internalType": "bool",
          "name": "",
          "type": "bool"
        }
      ],
      "stateMutability": "view",
      "type": "function"
    },
    {
      "inputs": [
        {
          "internalType": "uint256",
          "name": "proposalId",
          "type": "uint256"
        },
        {
          "internalType": "bool",
          "name": "support",
          "type": "bool"
        },
        {
          "internalType": "uint256",
          "name": "propertyTokenId",
          "type": "uint256"
        }
      ],
      "name": "vote",
      "outputs": [],
      "stateMutability": "nonpayable",
      "type": "function"
    }
  ],
  "bytecode": {
    "object": "60a0346102f357601f61185d38819003918201601f19168301916001600160401b038311848410176102f75780849260409485528339810103126102f357610052602061004b8361030b565b920161030b565b6001600160a01b0382165f9081525f8051602061183d833981519152602052604090205490919060ff1615610299575b507f97667070c54ef182b0f5858b034beac1b6f3089aa2d3188bb1e8929f4fa9b9295f81815260208190527fee57cd81e84075558e8fcc182a1f4393f91fc97f963a136e66b7f949a62f31a080549082905590915f8051602061181d8339815191528380a47f2fdac322ee704ce09f0773f7f3f92eb98d5e7c836ee9c056cccd5f61041e5e3f5f81815260208190527fe3c558b62678382104a32eca8acfc9cd319238c371fe623afa6ac48f9723f7b180549082905590915f8051602061181d8339815191528380a47f68e79a7bf1e0bc45d0a330c573bc367f9cf464fd326078812f301165fbda4ef15f81815260208190527fa629f6981c2f6895a67dc766e8e03ff72d04a413d0d8773a3ca56e9e474032c280549082905590915f8051602061181d8339815191528380a47f114e74f6ea3bd819998f78687bfcb11b140da08e9b7d222fa9c1f1ba1f2aa1225f81815260208190527ff9c002f57bb53b4d861ae1ef1369a8087d06c8210e4846f897918d0e534663cf80549082905590915f8051602061181d8339815191528380a47f71840dc4906352362b0cdaf79870196c8e42acafade72d5d5a6d59291253ceb15f81815260208190527f316a51056d8b2401ab04c48d9973add294eadde229c785c6d19cde93785467f080549082905590915f8051602061181d8339815191528380a46080526040516114fd9081610320823960805181818161021d0152610aa70152f35b6001600160a01b03165f8181525f8051602061183d83398151915260205260408120805460ff191660011790553391907f2f8788117e7eff1d82e926ec794901d17c78024a50270940304540a733656f0d8180a45f610082565b5f80fd5b634e487b7160e01b5f52604160045260245ffd5b51906001600160a01b03821682036102f35756fe6080806040526004361015610012575f80fd5b5f3560e01c90816301ffc9a714610ee15750806307e2cea514610ea75780630d61b51914610c51578063248a9ca314610c1f5780632f2ff15d14610b6857806336568abe14610ad657806343ae269514610a925780636ce76f3014610a5857806382aefa2414610a1e5780638ea314cb146105d257806391d148541461058a578063a217fddf14610570578063c7f758a8146103cb578063d46a5d7e14610193578063d547741f1461014f578063f36c8f5c146101155763f5b541a6146100d7575f80fd5b34610111575f3660031901126101115760206040517f97667070c54ef182b0f5858b034beac1b6f3089aa2d3188bb1e8929f4fa9b9298152f35b5f80fd5b34610111575f3660031901126101115760206040517f71840dc4906352362b0cdaf79870196c8e42acafade72d5d5a6d59291253ceb18152f35b346101115760403660031901126101115761019160043561016e610f34565b9061018c610187825f525f602052600160405f20015490565b6111db565b611436565b005b34610111576060366003190112610111576004356024359081151591828103610111576101bf8261117f565b6001600160401b03600182015460401c164211610390575f83815260036020908152604080832033845290915290205460ff16610357576040516303ad1e5d60e61b81526044803560048301523360248301529092906020908490817f00000000000000000000000000000000000000000000000000000000000000006001600160a01b03165afa92831561034c575f93610318575b5082156102e357156102ce5760020161026f828254611172565b90555b815f52600360205260405f2060018060a01b0333165f5260205260405f20600160ff1982541617905560405192835260208301527f7c2de587c00d75474a0c6c6fa96fd3b45dc974cd4e8a75f712bb84c950dce1b560403393a3005b6003016102dc828254611172565b9055610272565b60405162461bcd60e51b815260206004820152600d60248201526c111053ce9393d7d5d15251d215609a1b6044820152606490fd5b9092506020813d602011610344575b8161033460209383611030565b8101031261011157519185610255565b3d9150610327565b6040513d5f823e3d90fd5b60405162461bcd60e51b8152602060048201526011602482015270111053ce9053149150511657d593d51151607a1b6044820152606490fd5b60405162461bcd60e51b8152602060048201526013602482015272111053ce911150511312539157d41054d4d151606a1b6044820152606490fd5b34610111576020366003190112610111575f60e06040516103eb81611014565b606081528260208201528260408201528260608201528260808201528260a0820152606060c082015201526004355f52600260205260405f206040519061043182611014565b6040516104498161044281856110f1565b0382611030565b82526001810154602083016001600160401b03821681526001600160401b03604085019260401c16825260028301546060850190815260038401546080860190815260ff6004860154169160a0870192600581101561055c5783526001600160401b03604051966104c8886104c181600585016110f1565b0389611030565b60c08901978852600660018060a01b03910154169560e08901968752816105046040519a60208c525161010060208d01526101208c0190610f77565b96511660408a0152511660608801525160808701525160a08601525190600582101561055c5784936105479260c086015251601f198583030160e0860152610f77565b90516001600160a01b03166101008301520390f35b634e487b7160e01b5f52602160045260245ffd5b34610111575f3660031901126101115760206040515f8152f35b34610111576040366003190112610111576105a3610f34565b6004355f525f60205260405f209060018060a01b03165f52602052602060ff60405f2054166040519015158152f35b34610111576080366003190112610111576004356001600160401b03811161011157610602903690600401610f4a565b906024356001600160401b038116809103610111576044356001600160a01b0381169390849003610111576064356001600160401b0381116101115761064c903690600401610f4a565b335f9081527fee57cd81e84075558e8fcc182a1f4393f91fc97f963a136e66b7f949a62f319f6020526040902054919590939161068b9060ff16610f9b565b428211156109ea576001545f1981146109d6576001019384600155604051906106b382611014565b6106be36868961106c565b825260208201976001600160401b03421689526040830198858a5260608401905f82526106fc60808601935f855260a087019560018752369161106c565b9a60c086019b8c5260e08601968752895f52600260205260405f2095518051906001600160401b0382116109545761073e826107388a54610fdc565b8a6110a2565b602090601f83116001146109735761076d92915f9183610968575b50508160011b915f199060031b1c19161790565b86555b6001600160401b03600187019251166fffffffffffffffff00000000000000008354925160401b16916fffffffffffffffffffffffffffffffff191617179055516002840155516003830155600482019051600581101561055c5760ff801983541691161790556005810196519687516001600160401b03811161095457602098610805826107ff8554610fdc565b856110a2565b8990601f83116001146108c55788999488979394610861867fb743d85f809121e016ba3fc0c2319002171bc4a2a51d60bf64d7ef87b42b2a719b9760609a966006965f926108ba5750508160011b915f199060031b1c19161790565b90555b019060018060a01b039051166bffffffffffffffffffffffff60a01b82541617905560405194859360408552816040860152858501375f83830185015288830152601f01601f19168101030190a2604051908152f35b015190505f80610759565b90601f19831691845f52815f20925f5b81811061093d575094600185606099956006958e9f9a958e9d997fb743d85f809121e016ba3fc0c2319002171bc4a2a51d60bf64d7ef87b42b2a719f9b10610925575b505050811b019055610864565b01515f1960f88460031b161c191690558f8080610918565b92938d6001819287860151815501950193016108d5565b634e487b7160e01b5f52604160045260245ffd5b015190508f80610759565b90601f19831691895f52815f20925f5b8181106109be57509084600195949392106109a6575b505050811b018655610770565b01515f1960f88460031b161c191690558e8080610999565b92936020600181928786015181550195019301610983565b634e487b7160e01b5f52601160045260245ffd5b60405162461bcd60e51b815260206004820152600c60248201526b44414f3a444541444c494e4560a01b6044820152606490fd5b34610111575f3660031901126101115760206040517f114e74f6ea3bd819998f78687bfcb11b140da08e9b7d222fa9c1f1ba1f2aa1228152f35b34610111575f3660031901126101115760206040517f2fdac322ee704ce09f0773f7f3f92eb98d5e7c836ee9c056cccd5f61041e5e3f8152f35b34610111575f366003190112610111576040517f00000000000000000000000000000000000000000000000000000000000000006001600160a01b03168152602090f35b3461011157604036600319011261011157610aef610f34565b336001600160a01b03821603610b0b5761019190600435611436565b60405162461bcd60e51b815260206004820152602f60248201527f416363657373436f6e74726f6c3a2063616e206f6e6c792072656e6f756e636560448201526e103937b632b9903337b91039b2b63360891b6064820152608490fd5b3461011157604036600319011261011157600435610b84610f34565b90610b9d610187825f525f602052600160405f20015490565b5f818152602081815260408083206001600160a01b038616845290915290205460ff1615610bc757005b5f818152602081815260408083206001600160a01b0395909516808452949091528120805460ff19166001179055339291907f2f8788117e7eff1d82e926ec794901d17c78024a50270940304540a733656f0d9080a4005b34610111576020366003190112610111576020610c496004355f525f602052600160405f20015490565b604051908152f35b3461011157602036600319011261011157335f9081527fee57cd81e84075558e8fcc182a1f4393f91fc97f963a136e66b7f949a62f319f602052604090205460043590610ca09060ff16610f9b565b610ca98161117f565b6001600160401b03600182015460401c16421115610e6257600281015460038201541015610e2a5760048101805460ff1916600217905560068101546001600160a01b03169081151580610e15575b610d24575b827f712ae1383f79ac853f8d882153778e0260ef8f03b504e2866e0593e04d2b291f5f80a2005b600501604051905f90805490610d3982610fdc565b9160018116908115610dfe5750600114610dcc575b505091815f809493819403925af13d15610dc7573d610d6c81611051565b90610d7a6040519283611030565b81525f60203d92013e5b15610d90578180610cfd565b60405162461bcd60e51b815260206004820152600f60248201526e111053ce90d0531317d19052531151608a1b6044820152606490fd5b610d84565b9091505f5260205f205f905b828210610dea5750508101815f610d4e565b600181602092548487015201910190610dd8565b60ff1916855250508015150282019050815f610d4e565b50610e236005820154610fdc565b1515610cf8565b60405162461bcd60e51b815260206004820152601060248201526f111053ce9393d517d054141493d5915160821b6044820152606490fd5b60405162461bcd60e51b815260206004820152601760248201527f44414f3a444541444c494e455f4e4f545f5041535345440000000000000000006044820152606490fd5b34610111575f3660031901126101115760206040517f68e79a7bf1e0bc45d0a330c573bc367f9cf464fd326078812f301165fbda4ef18152f35b34610111576020366003190112610111576004359063ffffffff60e01b821680920361011157602091637965db0b60e01b8114908115610f23575b5015158152f35b6301ffc9a760e01b14905083610f1c565b602435906001600160a01b038216820361011157565b9181601f84011215610111578235916001600160401b038311610111576020838186019501011161011157565b805180835260209291819084018484015e5f828201840152601f01601f1916010190565b15610fa257565b60405162461bcd60e51b8152602060048201526012602482015271524f4c453a4f50455241544f525f4f4e4c5960701b6044820152606490fd5b90600182811c9216801561100a575b6020831014610ff657565b634e487b7160e01b5f52602260045260245ffd5b91607f1691610feb565b61010081019081106001600160401b0382111761095457604052565b90601f801991011681019081106001600160401b0382111761095457604052565b6001600160401b03811161095457601f01601f191660200190565b92919261107882611051565b916110866040519384611030565b829481845281830111610111578281602093845f960137010152565b601f82116110af57505050565b5f5260205f20906020601f840160051c830193106110e7575b601f0160051c01905b8181106110dc575050565b5f81556001016110d1565b90915081906110c8565b5f929181549161110083610fdc565b8083529260018116908115611155575060011461111c57505050565b5f9081526020812093945091925b83831061113b575060209250010190565b60018160209294939454838587010152019101919061112a565b915050602093945060ff929192191683830152151560051b010190565b919082018092116109d657565b5f52600260205260405f2060ff600482015416600581101561055c576001036111a55790565b60405162461bcd60e51b815260206004820152600e60248201526d44414f3a4e4f545f41435449564560901b6044820152606490fd5b5f8181526020818152604080832033845290915290205460ff16156111fd5750565b33611208602a611051565b916112166040519384611030565b602a8352611224602a611051565b602084019290601f19013684378351156113e157603083538351600110156113e1576078602185015360295b600181116113f5575061135c576112676042611051565b906112756040519283611030565b604282526112836042611051565b602083019190601f19013683378251156113e157603082538251600110156113e1576078602184015360415b600181116113a0575061135c576113589360376011928461133895506040519687947f416363657373436f6e74726f6c3a206163636f756e742000000000000000000060208701525180918587015e8401907001034b99036b4b9b9b4b733903937b6329607d1b84830152518092604883015e01015f838201520301601f198101835282611030565b60405162461bcd60e51b8152602060048201529182916024830190610f77565b0390fd5b606460405162461bcd60e51b815260206004820152602060248201527f537472696e67733a20686578206c656e67746820696e73756666696369656e746044820152fd5b90600f811660108110156113e1576f181899199a1a9b1b9c1cb0b131b232b360811b901a6113ce83866114b6565b5360041c9080156109d6575f19016112af565b634e487b7160e01b5f52603260045260245ffd5b90600f811660108110156113e1576f181899199a1a9b1b9c1cb0b131b232b360811b901a61142383876114b6565b5360041c9080156109d6575f1901611250565b5f818152602081815260408083206001600160a01b038616845290915290205460ff16611461575050565b5f818152602081815260408083206001600160a01b0395909516808452949091528120805460ff19169055339291907ff6391f5c32d9c69d2a47ea670b442974b53935d1edc7fd64eb21e047a839171b9080a4565b9081518110156113e157016020019056fea2646970667358221220c87c55048ef91e9dee512864e44d67d095f8f8241c8b1a41468b624aab7e8bb964736f6c634300081a0033bd79b86ffe0ab8e8776151514217cd7cacd52c909f66475c3af44e129f0b00ffad3228b676f7d3cd4284a5443f17f1962b36e491b30a40b2405849e597ba5fb5"
  }
}